{
	"Projects/01_Lottery.sol": {
		"Lottery": {
			"abi": [
				{
					"inputs": [],
					"stateMutability": "nonpayable",
					"type": "constructor"
				},
				{
					"inputs": [],
					"name": "buy_lottery",
					"outputs": [],
					"stateMutability": "payable",
					"type": "function"
				},
				{
					"inputs": [],
					"name": "manager",
					"outputs": [
						{
							"internalType": "address",
							"name": "",
							"type": "address"
						}
					],
					"stateMutability": "view",
					"type": "function"
				},
				{
					"inputs": [
						{
							"internalType": "uint256",
							"name": "",
							"type": "uint256"
						}
					],
					"name": "participants",
					"outputs": [
						{
							"internalType": "address",
							"name": "",
							"type": "address"
						}
					],
					"stateMutability": "view",
					"type": "function"
				},
				{
					"inputs": [],
					"name": "random_number_generator",
					"outputs": [
						{
							"internalType": "uint256",
							"name": "",
							"type": "uint256"
						}
					],
					"stateMutability": "view",
					"type": "function"
				},
				{
					"inputs": [],
					"name": "select_winner",
					"outputs": [
						{
							"internalType": "address",
							"name": "",
							"type": "address"
						}
					],
					"stateMutability": "nonpayable",
					"type": "function"
				},
				{
					"inputs": [],
					"name": "show_balance",
					"outputs": [
						{
							"internalType": "uint256",
							"name": "",
							"type": "uint256"
						}
					],
					"stateMutability": "view",
					"type": "function"
				},
				{
					"inputs": [],
					"name": "winner",
					"outputs": [
						{
							"internalType": "address",
							"name": "",
							"type": "address"
						}
					],
					"stateMutability": "view",
					"type": "function"
				}
			],
			"devdoc": {
				"kind": "dev",
				"methods": {},
				"version": 1
			},
			"evm": {
				"assembly": "    /* \"Projects/01_Lottery.sol\":508:1802  contract Lottery {\r... */\n  mstore(0x40, 0x80)\n    /* \"Projects/01_Lottery.sol\":627:680  constructor() {\r... */\n  callvalue\n  dup1\n  iszero\n  tag_1\n  jumpi\n  0x00\n  dup1\n  revert\ntag_1:\n  pop\n    /* \"Projects/01_Lottery.sol\":662:672  msg.sender */\n  caller\n    /* \"Projects/01_Lottery.sol\":652:659  manager */\n  0x00\n  dup1\n    /* \"Projects/01_Lottery.sol\":652:672  manager = msg.sender */\n  0x0100\n  exp\n  dup2\n  sload\n  dup2\n  0xffffffffffffffffffffffffffffffffffffffff\n  mul\n  not\n  and\n  swap1\n  dup4\n  0xffffffffffffffffffffffffffffffffffffffff\n  and\n  mul\n  or\n  swap1\n  sstore\n  pop\n    /* \"Projects/01_Lottery.sol\":508:1802  contract Lottery {\r... */\n  dataSize(sub_0)\n  dup1\n  dataOffset(sub_0)\n  0x00\n  codecopy\n  0x00\n  return\nstop\n\nsub_0: assembly {\n        /* \"Projects/01_Lottery.sol\":508:1802  contract Lottery {\r... */\n      mstore(0x40, 0x80)\n      jumpi(tag_1, lt(calldatasize, 0x04))\n      shr(0xe0, calldataload(0x00))\n      dup1\n      0x8c200df4\n      gt\n      tag_9\n      jumpi\n      dup1\n      0x8c200df4\n      eq\n      tag_5\n      jumpi\n      dup1\n      0x946d0149\n      eq\n      tag_6\n      jumpi\n      dup1\n      0xdfbf53ae\n      eq\n      tag_7\n      jumpi\n      dup1\n      0xe8e11e16\n      eq\n      tag_8\n      jumpi\n      jump(tag_1)\n    tag_9:\n      dup1\n      0x1bef21d6\n      eq\n      tag_2\n      jumpi\n      dup1\n      0x35c1d349\n      eq\n      tag_3\n      jumpi\n      dup1\n      0x481c6a75\n      eq\n      tag_4\n      jumpi\n    tag_1:\n      0x00\n      dup1\n      revert\n        /* \"Projects/01_Lottery.sol\":1416:1799  function select_winner() public only_manager returns(address) {\r... */\n    tag_2:\n      callvalue\n      dup1\n      iszero\n      tag_10\n      jumpi\n      0x00\n      dup1\n      revert\n    tag_10:\n      pop\n      tag_11\n      tag_12\n      jump\t// in\n    tag_11:\n      mload(0x40)\n      tag_13\n      swap2\n      swap1\n      tag_14\n      jump\t// in\n    tag_13:\n      mload(0x40)\n      dup1\n      swap2\n      sub\n      swap1\n      return\n        /* \"Projects/01_Lottery.sol\":561:590  address[] public participants */\n    tag_3:\n      callvalue\n      dup1\n      iszero\n      tag_15\n      jumpi\n      0x00\n      dup1\n      revert\n    tag_15:\n      pop\n      tag_16\n      0x04\n      dup1\n      calldatasize\n      sub\n      dup2\n      add\n      swap1\n      tag_17\n      swap2\n      swap1\n      tag_18\n      jump\t// in\n    tag_17:\n      tag_19\n      jump\t// in\n    tag_16:\n      mload(0x40)\n      tag_20\n      swap2\n      swap1\n      tag_14\n      jump\t// in\n    tag_20:\n      mload(0x40)\n      dup1\n      swap2\n      sub\n      swap1\n      return\n        /* \"Projects/01_Lottery.sol\":532:554  address public manager */\n    tag_4:\n      callvalue\n      dup1\n      iszero\n      tag_21\n      jumpi\n      0x00\n      dup1\n      revert\n    tag_21:\n      pop\n      tag_22\n      tag_23\n      jump\t// in\n    tag_22:\n      mload(0x40)\n      tag_24\n      swap2\n      swap1\n      tag_14\n      jump\t// in\n    tag_24:\n      mload(0x40)\n      dup1\n      swap2\n      sub\n      swap1\n      return\n        /* \"Projects/01_Lottery.sol\":1183:1388  function random_number_generator() public view only_manager returns(uint) {\r... */\n    tag_5:\n      callvalue\n      dup1\n      iszero\n      tag_25\n      jumpi\n      0x00\n      dup1\n      revert\n    tag_25:\n      pop\n      tag_26\n      tag_27\n      jump\t// in\n    tag_26:\n      mload(0x40)\n      tag_28\n      swap2\n      swap1\n      tag_29\n      jump\t// in\n    tag_28:\n      mload(0x40)\n      dup1\n      swap2\n      sub\n      swap1\n      return\n        /* \"Projects/01_Lottery.sol\":1045:1154  function show_balance() public view only_manager returns(uint){\r... */\n    tag_6:\n      callvalue\n      dup1\n      iszero\n      tag_30\n      jumpi\n      0x00\n      dup1\n      revert\n    tag_30:\n      pop\n      tag_31\n      tag_32\n      jump\t// in\n    tag_31:\n      mload(0x40)\n      tag_33\n      swap2\n      swap1\n      tag_29\n      jump\t// in\n    tag_33:\n      mload(0x40)\n      dup1\n      swap2\n      sub\n      swap1\n      return\n        /* \"Projects/01_Lottery.sol\":597:618  address public winner */\n    tag_7:\n      callvalue\n      dup1\n      iszero\n      tag_34\n      jumpi\n      0x00\n      dup1\n      revert\n    tag_34:\n      pop\n      tag_35\n      tag_36\n      jump\t// in\n    tag_35:\n      mload(0x40)\n      tag_37\n      swap2\n      swap1\n      tag_14\n      jump\t// in\n    tag_37:\n      mload(0x40)\n      dup1\n      swap2\n      sub\n      swap1\n      return\n        /* \"Projects/01_Lottery.sol\":839:1016  function buy_lottery() payable public {\r... */\n    tag_8:\n      tag_38\n      tag_39\n      jump\t// in\n    tag_38:\n      stop\n        /* \"Projects/01_Lottery.sol\":1416:1799  function select_winner() public only_manager returns(address) {\r... */\n    tag_12:\n        /* \"Projects/01_Lottery.sol\":1469:1476  address */\n      0x00\n        /* \"Projects/01_Lottery.sol\":745:752  manager */\n      dup1\n      0x00\n      swap1\n      sload\n      swap1\n      0x0100\n      exp\n      swap1\n      div\n      0xffffffffffffffffffffffffffffffffffffffff\n      and\n        /* \"Projects/01_Lottery.sol\":731:752  msg.sender == manager */\n      0xffffffffffffffffffffffffffffffffffffffff\n      and\n        /* \"Projects/01_Lottery.sol\":731:741  msg.sender */\n      caller\n        /* \"Projects/01_Lottery.sol\":731:752  msg.sender == manager */\n      0xffffffffffffffffffffffffffffffffffffffff\n      and\n      eq\n        /* \"Projects/01_Lottery.sol\":723:778  require(msg.sender == manager, \"Only manager can do i\") */\n      tag_41\n      jumpi\n      mload(0x40)\n      0x08c379a000000000000000000000000000000000000000000000000000000000\n      dup2\n      mstore\n      0x04\n      add\n      tag_42\n      swap1\n      tag_43\n      jump\t// in\n    tag_42:\n      mload(0x40)\n      dup1\n      swap2\n      sub\n      swap1\n      revert\n    tag_41:\n        /* \"Projects/01_Lottery.sol\":1520:1521  3 */\n      0x03\n        /* \"Projects/01_Lottery.sol\":1497:1509  participants */\n      0x01\n        /* \"Projects/01_Lottery.sol\":1497:1516  participants.length */\n      dup1\n      sload\n      swap1\n      pop\n        /* \"Projects/01_Lottery.sol\":1497:1521  participants.length >= 3 */\n      lt\n      iszero\n        /* \"Projects/01_Lottery.sol\":1489:1522  require(participants.length >= 3) */\n      tag_45\n      jumpi\n      0x00\n      dup1\n      revert\n    tag_45:\n        /* \"Projects/01_Lottery.sol\":1544:1556  participants */\n      0x01\n        /* \"Projects/01_Lottery.sol\":1557:1582  random_number_generator() */\n      tag_46\n        /* \"Projects/01_Lottery.sol\":1557:1580  random_number_generator */\n      tag_27\n        /* \"Projects/01_Lottery.sol\":1557:1582  random_number_generator() */\n      jump\t// in\n    tag_46:\n        /* \"Projects/01_Lottery.sol\":1544:1583  participants[random_number_generator()] */\n      dup2\n      sload\n      dup2\n      lt\n      tag_47\n      jumpi\n      tag_48\n      tag_49\n      jump\t// in\n    tag_48:\n    tag_47:\n      swap1\n      0x00\n      mstore\n      keccak256(0x00, 0x20)\n      add\n      0x00\n      swap1\n      sload\n      swap1\n      0x0100\n      exp\n      swap1\n      div\n      0xffffffffffffffffffffffffffffffffffffffff\n      and\n        /* \"Projects/01_Lottery.sol\":1535:1541  winner */\n      0x02\n      0x00\n        /* \"Projects/01_Lottery.sol\":1535:1583  winner = participants[random_number_generator()] */\n      0x0100\n      exp\n      dup2\n      sload\n      dup2\n      0xffffffffffffffffffffffffffffffffffffffff\n      mul\n      not\n      and\n      swap1\n      dup4\n      0xffffffffffffffffffffffffffffffffffffffff\n      and\n      mul\n      or\n      swap1\n      sstore\n      pop\n        /* \"Projects/01_Lottery.sol\":1602:1608  winner */\n      0x02\n      0x00\n      swap1\n      sload\n      swap1\n      0x0100\n      exp\n      swap1\n      div\n      0xffffffffffffffffffffffffffffffffffffffff\n      and\n        /* \"Projects/01_Lottery.sol\":1594:1618  payable(winner).transfer */\n      0xffffffffffffffffffffffffffffffffffffffff\n      and\n        /* \"Projects/01_Lottery.sol\":1594:1644  payable(winner).transfer(show_balance() - 1 ether) */\n      0x08fc\n        /* \"Projects/01_Lottery.sol\":1636:1643  1 ether */\n      0x0de0b6b3a7640000\n        /* \"Projects/01_Lottery.sol\":1619:1633  show_balance() */\n      tag_51\n        /* \"Projects/01_Lottery.sol\":1619:1631  show_balance */\n      tag_32\n        /* \"Projects/01_Lottery.sol\":1619:1633  show_balance() */\n      jump\t// in\n    tag_51:\n        /* \"Projects/01_Lottery.sol\":1619:1643  show_balance() - 1 ether */\n      tag_52\n      swap2\n      swap1\n      tag_53\n      jump\t// in\n    tag_52:\n        /* \"Projects/01_Lottery.sol\":1594:1644  payable(winner).transfer(show_balance() - 1 ether) */\n      swap1\n      dup2\n      iszero\n      mul\n      swap1\n      mload(0x40)\n      0x00\n      mload(0x40)\n      dup1\n      dup4\n      sub\n      dup2\n      dup6\n      dup9\n      dup9\n      call\n      swap4\n      pop\n      pop\n      pop\n      pop\n      iszero\n      dup1\n      iszero\n      tag_55\n      jumpi\n      returndatasize\n      0x00\n      dup1\n      returndatacopy\n      revert(0x00, returndatasize)\n    tag_55:\n      pop\n        /* \"Projects/01_Lottery.sol\":1663:1670  manager */\n      0x00\n      dup1\n      sload\n      swap1\n      0x0100\n      exp\n      swap1\n      div\n      0xffffffffffffffffffffffffffffffffffffffff\n      and\n        /* \"Projects/01_Lottery.sol\":1655:1680  payable(manager).transfer */\n      0xffffffffffffffffffffffffffffffffffffffff\n      and\n        /* \"Projects/01_Lottery.sol\":1655:1689  payable(manager).transfer(1 ether) */\n      0x08fc\n        /* \"Projects/01_Lottery.sol\":1681:1688  1 ether */\n      0x0de0b6b3a7640000\n        /* \"Projects/01_Lottery.sol\":1655:1689  payable(manager).transfer(1 ether) */\n      swap1\n      dup2\n      iszero\n      mul\n      swap1\n      mload(0x40)\n      0x00\n      mload(0x40)\n      dup1\n      dup4\n      sub\n      dup2\n      dup6\n      dup9\n      dup9\n      call\n      swap4\n      pop\n      pop\n      pop\n      pop\n      iszero\n      dup1\n      iszero\n      tag_57\n      jumpi\n      returndatasize\n      0x00\n      dup1\n      returndatacopy\n      revert(0x00, returndatasize)\n    tag_57:\n      pop\n        /* \"Projects/01_Lottery.sol\":1702:1730  address[] memory blank_array */\n      0x60\n        /* \"Projects/01_Lottery.sol\":1756:1767  blank_array */\n      dup1\n        /* \"Projects/01_Lottery.sol\":1741:1753  participants */\n      0x01\n        /* \"Projects/01_Lottery.sol\":1741:1767  participants = blank_array */\n      swap1\n      dup1\n      mload\n      swap1\n      0x20\n      add\n      swap1\n      tag_58\n      swap3\n      swap2\n      swap1\n      tag_59\n      jump\t// in\n    tag_58:\n      pop\n        /* \"Projects/01_Lottery.sol\":1785:1791  winner */\n      0x02\n      0x00\n      swap1\n      sload\n      swap1\n      0x0100\n      exp\n      swap1\n      div\n      0xffffffffffffffffffffffffffffffffffffffff\n      and\n        /* \"Projects/01_Lottery.sol\":1778:1791  return winner */\n      swap2\n      pop\n      pop\n        /* \"Projects/01_Lottery.sol\":1416:1799  function select_winner() public only_manager returns(address) {\r... */\n      swap1\n      jump\t// out\n        /* \"Projects/01_Lottery.sol\":561:590  address[] public participants */\n    tag_19:\n      0x01\n      dup2\n      dup2\n      sload\n      dup2\n      lt\n      tag_60\n      jumpi\n      0x00\n      dup1\n      revert\n    tag_60:\n      swap1\n      0x00\n      mstore\n      keccak256(0x00, 0x20)\n      add\n      0x00\n      swap2\n      pop\n      sload\n      swap1\n      0x0100\n      exp\n      swap1\n      div\n      0xffffffffffffffffffffffffffffffffffffffff\n      and\n      dup2\n      jump\t// out\n        /* \"Projects/01_Lottery.sol\":532:554  address public manager */\n    tag_23:\n      0x00\n      dup1\n      sload\n      swap1\n      0x0100\n      exp\n      swap1\n      div\n      0xffffffffffffffffffffffffffffffffffffffff\n      and\n      dup2\n      jump\t// out\n        /* \"Projects/01_Lottery.sol\":1183:1388  function random_number_generator() public view only_manager returns(uint) {\r... */\n    tag_27:\n        /* \"Projects/01_Lottery.sol\":1251:1255  uint */\n      0x00\n        /* \"Projects/01_Lottery.sol\":745:752  manager */\n      dup1\n      0x00\n      swap1\n      sload\n      swap1\n      0x0100\n      exp\n      swap1\n      div\n      0xffffffffffffffffffffffffffffffffffffffff\n      and\n        /* \"Projects/01_Lottery.sol\":731:752  msg.sender == manager */\n      0xffffffffffffffffffffffffffffffffffffffff\n      and\n        /* \"Projects/01_Lottery.sol\":731:741  msg.sender */\n      caller\n        /* \"Projects/01_Lottery.sol\":731:752  msg.sender == manager */\n      0xffffffffffffffffffffffffffffffffffffffff\n      and\n      eq\n        /* \"Projects/01_Lottery.sol\":723:778  require(msg.sender == manager, \"Only manager can do i\") */\n      tag_63\n      jumpi\n      mload(0x40)\n      0x08c379a000000000000000000000000000000000000000000000000000000000\n      dup2\n      mstore\n      0x04\n      add\n      tag_64\n      swap1\n      tag_43\n      jump\t// in\n    tag_64:\n      mload(0x40)\n      dup1\n      swap2\n      sub\n      swap1\n      revert\n    tag_63:\n        /* \"Projects/01_Lottery.sol\":1361:1373  participants */\n      0x01\n        /* \"Projects/01_Lottery.sol\":1361:1380  participants.length */\n      dup1\n      sload\n      swap1\n      pop\n        /* \"Projects/01_Lottery.sol\":1307:1322  block.timestamp */\n      timestamp\n        /* \"Projects/01_Lottery.sol\":1324:1334  msg.sender */\n      caller\n        /* \"Projects/01_Lottery.sol\":1336:1348  participants */\n      0x01\n        /* \"Projects/01_Lottery.sol\":1336:1355  participants.length */\n      dup1\n      sload\n      swap1\n      pop\n        /* \"Projects/01_Lottery.sol\":1290:1356  abi.encodePacked(block.timestamp, msg.sender, participants.length) */\n      add(0x20, mload(0x40))\n      tag_66\n      swap4\n      swap3\n      swap2\n      swap1\n      tag_67\n      jump\t// in\n    tag_66:\n      mload(0x40)\n      0x20\n      dup2\n      dup4\n      sub\n      sub\n      dup2\n      mstore\n      swap1\n      0x40\n      mstore\n        /* \"Projects/01_Lottery.sol\":1280:1357  keccak256(abi.encodePacked(block.timestamp, msg.sender, participants.length)) */\n      dup1\n      mload\n      swap1\n      0x20\n      add\n      keccak256\n        /* \"Projects/01_Lottery.sol\":1275:1358  uint(keccak256(abi.encodePacked(block.timestamp, msg.sender, participants.length))) */\n      0x00\n      shr\n        /* \"Projects/01_Lottery.sol\":1275:1380  uint(keccak256(abi.encodePacked(block.timestamp, msg.sender, participants.length))) % participants.length */\n      tag_68\n      swap2\n      swap1\n      tag_69\n      jump\t// in\n    tag_68:\n        /* \"Projects/01_Lottery.sol\":1268:1380  return uint(keccak256(abi.encodePacked(block.timestamp, msg.sender, participants.length))) % participants.length */\n      swap1\n      pop\n        /* \"Projects/01_Lottery.sol\":1183:1388  function random_number_generator() public view only_manager returns(uint) {\r... */\n      swap1\n      jump\t// out\n        /* \"Projects/01_Lottery.sol\":1045:1154  function show_balance() public view only_manager returns(uint){\r... */\n    tag_32:\n        /* \"Projects/01_Lottery.sol\":1102:1106  uint */\n      0x00\n        /* \"Projects/01_Lottery.sol\":745:752  manager */\n      dup1\n      0x00\n      swap1\n      sload\n      swap1\n      0x0100\n      exp\n      swap1\n      div\n      0xffffffffffffffffffffffffffffffffffffffff\n      and\n        /* \"Projects/01_Lottery.sol\":731:752  msg.sender == manager */\n      0xffffffffffffffffffffffffffffffffffffffff\n      and\n        /* \"Projects/01_Lottery.sol\":731:741  msg.sender */\n      caller\n        /* \"Projects/01_Lottery.sol\":731:752  msg.sender == manager */\n      0xffffffffffffffffffffffffffffffffffffffff\n      and\n      eq\n        /* \"Projects/01_Lottery.sol\":723:778  require(msg.sender == manager, \"Only manager can do i\") */\n      tag_71\n      jumpi\n      mload(0x40)\n      0x08c379a000000000000000000000000000000000000000000000000000000000\n      dup2\n      mstore\n      0x04\n      add\n      tag_72\n      swap1\n      tag_43\n      jump\t// in\n    tag_72:\n      mload(0x40)\n      dup1\n      swap2\n      sub\n      swap1\n      revert\n    tag_71:\n        /* \"Projects/01_Lottery.sol\":1125:1146  address(this).balance */\n      selfbalance\n        /* \"Projects/01_Lottery.sol\":1118:1146  return address(this).balance */\n      swap1\n      pop\n        /* \"Projects/01_Lottery.sol\":1045:1154  function show_balance() public view only_manager returns(uint){\r... */\n      swap1\n      jump\t// out\n        /* \"Projects/01_Lottery.sol\":597:618  address public winner */\n    tag_36:\n      0x02\n      0x00\n      swap1\n      sload\n      swap1\n      0x0100\n      exp\n      swap1\n      div\n      0xffffffffffffffffffffffffffffffffffffffff\n      and\n      dup2\n      jump\t// out\n        /* \"Projects/01_Lottery.sol\":839:1016  function buy_lottery() payable public {\r... */\n    tag_39:\n        /* \"Projects/01_Lottery.sol\":910:917  manager */\n      0x00\n      dup1\n      sload\n      swap1\n      0x0100\n      exp\n      swap1\n      div\n      0xffffffffffffffffffffffffffffffffffffffff\n      and\n        /* \"Projects/01_Lottery.sol\":896:917  msg.sender != manager */\n      0xffffffffffffffffffffffffffffffffffffffff\n      and\n        /* \"Projects/01_Lottery.sol\":896:906  msg.sender */\n      caller\n        /* \"Projects/01_Lottery.sol\":896:917  msg.sender != manager */\n      0xffffffffffffffffffffffffffffffffffffffff\n      and\n      eq\n      iszero\n        /* \"Projects/01_Lottery.sol\":888:918  require(msg.sender != manager) */\n      tag_75\n      jumpi\n      0x00\n      dup1\n      revert\n    tag_75:\n        /* \"Projects/01_Lottery.sol\":950:958  10 ether */\n      0x8ac7230489e80000\n        /* \"Projects/01_Lottery.sol\":937:946  msg.value */\n      callvalue\n        /* \"Projects/01_Lottery.sol\":937:958  msg.value == 10 ether */\n      eq\n        /* \"Projects/01_Lottery.sol\":929:959  require(msg.value == 10 ether) */\n      tag_76\n      jumpi\n      0x00\n      dup1\n      revert\n    tag_76:\n        /* \"Projects/01_Lottery.sol\":970:982  participants */\n      0x01\n        /* \"Projects/01_Lottery.sol\":996:1006  msg.sender */\n      caller\n        /* \"Projects/01_Lottery.sol\":970:1008  participants.push(payable(msg.sender)) */\n      swap1\n      dup1\n      0x01\n      dup2\n      sload\n      add\n      dup1\n      dup3\n      sstore\n      dup1\n      swap2\n      pop\n      pop\n      0x01\n      swap1\n      sub\n      swap1\n      0x00\n      mstore\n      keccak256(0x00, 0x20)\n      add\n      0x00\n      swap1\n      swap2\n      swap1\n      swap2\n      swap1\n      swap2\n      0x0100\n      exp\n      dup2\n      sload\n      dup2\n      0xffffffffffffffffffffffffffffffffffffffff\n      mul\n      not\n      and\n      swap1\n      dup4\n      0xffffffffffffffffffffffffffffffffffffffff\n      and\n      mul\n      or\n      swap1\n      sstore\n      pop\n        /* \"Projects/01_Lottery.sol\":839:1016  function buy_lottery() payable public {\r... */\n      jump\t// out\n    tag_59:\n      dup3\n      dup1\n      sload\n      dup3\n      dup3\n      sstore\n      swap1\n      0x00\n      mstore\n      keccak256(0x00, 0x20)\n      swap1\n      dup2\n      add\n      swap3\n      dup3\n      iszero\n      tag_78\n      jumpi\n      swap2\n      0x20\n      mul\n      dup3\n      add\n    tag_79:\n      dup3\n      dup2\n      gt\n      iszero\n      tag_80\n      jumpi\n      dup3\n      mload\n      dup3\n      exp(0x0100, 0x00)\n      dup2\n      sload\n      dup2\n      0xffffffffffffffffffffffffffffffffffffffff\n      mul\n      not\n      and\n      swap1\n      dup4\n      0xffffffffffffffffffffffffffffffffffffffff\n      and\n      mul\n      or\n      swap1\n      sstore\n      pop\n      swap2\n      0x20\n      add\n      swap2\n      swap1\n      0x01\n      add\n      swap1\n      jump(tag_79)\n    tag_80:\n    tag_78:\n      pop\n      swap1\n      pop\n      tag_81\n      swap2\n      swap1\n      tag_82\n      jump\t// in\n    tag_81:\n      pop\n      swap1\n      jump\t// out\n    tag_82:\n    tag_83:\n      dup1\n      dup3\n      gt\n      iszero\n      tag_84\n      jumpi\n      0x00\n      dup2\n      0x00\n      swap1\n      sstore\n      pop\n      0x01\n      add\n      jump(tag_83)\n    tag_84:\n      pop\n      swap1\n      jump\t// out\n        /* \"#utility.yul\":7:146   */\n    tag_86:\n        /* \"#utility.yul\":53:58   */\n      0x00\n        /* \"#utility.yul\":91:97   */\n      dup2\n        /* \"#utility.yul\":78:98   */\n      calldataload\n        /* \"#utility.yul\":69:98   */\n      swap1\n      pop\n        /* \"#utility.yul\":107:140   */\n      tag_88\n        /* \"#utility.yul\":134:139   */\n      dup2\n        /* \"#utility.yul\":107:140   */\n      tag_89\n      jump\t// in\n    tag_88:\n        /* \"#utility.yul\":7:146   */\n      swap3\n      swap2\n      pop\n      pop\n      jump\t// out\n        /* \"#utility.yul\":152:481   */\n    tag_18:\n        /* \"#utility.yul\":211:217   */\n      0x00\n        /* \"#utility.yul\":260:262   */\n      0x20\n        /* \"#utility.yul\":248:257   */\n      dup3\n        /* \"#utility.yul\":239:246   */\n      dup5\n        /* \"#utility.yul\":235:258   */\n      sub\n        /* \"#utility.yul\":231:263   */\n      slt\n        /* \"#utility.yul\":228:347   */\n      iszero\n      tag_91\n      jumpi\n        /* \"#utility.yul\":266:345   */\n      tag_92\n      tag_93\n      jump\t// in\n    tag_92:\n        /* \"#utility.yul\":228:347   */\n    tag_91:\n        /* \"#utility.yul\":386:387   */\n      0x00\n        /* \"#utility.yul\":411:464   */\n      tag_94\n        /* \"#utility.yul\":456:463   */\n      dup5\n        /* \"#utility.yul\":447:453   */\n      dup3\n        /* \"#utility.yul\":436:445   */\n      dup6\n        /* \"#utility.yul\":432:454   */\n      add\n        /* \"#utility.yul\":411:464   */\n      tag_86\n      jump\t// in\n    tag_94:\n        /* \"#utility.yul\":401:464   */\n      swap2\n      pop\n        /* \"#utility.yul\":357:474   */\n      pop\n        /* \"#utility.yul\":152:481   */\n      swap3\n      swap2\n      pop\n      pop\n      jump\t// out\n        /* \"#utility.yul\":487:605   */\n    tag_95:\n        /* \"#utility.yul\":574:598   */\n      tag_97\n        /* \"#utility.yul\":592:597   */\n      dup2\n        /* \"#utility.yul\":574:598   */\n      tag_98\n      jump\t// in\n    tag_97:\n        /* \"#utility.yul\":569:572   */\n      dup3\n        /* \"#utility.yul\":562:599   */\n      mstore\n        /* \"#utility.yul\":487:605   */\n      pop\n      pop\n      jump\t// out\n        /* \"#utility.yul\":611:768   */\n    tag_99:\n        /* \"#utility.yul\":716:761   */\n      tag_101\n        /* \"#utility.yul\":736:760   */\n      tag_102\n        /* \"#utility.yul\":754:759   */\n      dup3\n        /* \"#utility.yul\":736:760   */\n      tag_98\n      jump\t// in\n    tag_102:\n        /* \"#utility.yul\":716:761   */\n      tag_103\n      jump\t// in\n    tag_101:\n        /* \"#utility.yul\":711:714   */\n      dup3\n        /* \"#utility.yul\":704:762   */\n      mstore\n        /* \"#utility.yul\":611:768   */\n      pop\n      pop\n      jump\t// out\n        /* \"#utility.yul\":774:1140   */\n    tag_104:\n        /* \"#utility.yul\":916:919   */\n      0x00\n        /* \"#utility.yul\":937:1004   */\n      tag_106\n        /* \"#utility.yul\":1001:1003   */\n      0x15\n        /* \"#utility.yul\":996:999   */\n      dup4\n        /* \"#utility.yul\":937:1004   */\n      tag_107\n      jump\t// in\n    tag_106:\n        /* \"#utility.yul\":930:1004   */\n      swap2\n      pop\n        /* \"#utility.yul\":1013:1106   */\n      tag_108\n        /* \"#utility.yul\":1102:1105   */\n      dup3\n        /* \"#utility.yul\":1013:1106   */\n      tag_109\n      jump\t// in\n    tag_108:\n        /* \"#utility.yul\":1131:1133   */\n      0x20\n        /* \"#utility.yul\":1126:1129   */\n      dup3\n        /* \"#utility.yul\":1122:1134   */\n      add\n        /* \"#utility.yul\":1115:1134   */\n      swap1\n      pop\n        /* \"#utility.yul\":774:1140   */\n      swap2\n      swap1\n      pop\n      jump\t// out\n        /* \"#utility.yul\":1146:1264   */\n    tag_110:\n        /* \"#utility.yul\":1233:1257   */\n      tag_112\n        /* \"#utility.yul\":1251:1256   */\n      dup2\n        /* \"#utility.yul\":1233:1257   */\n      tag_113\n      jump\t// in\n    tag_112:\n        /* \"#utility.yul\":1228:1231   */\n      dup3\n        /* \"#utility.yul\":1221:1258   */\n      mstore\n        /* \"#utility.yul\":1146:1264   */\n      pop\n      pop\n      jump\t// out\n        /* \"#utility.yul\":1270:1427   */\n    tag_114:\n        /* \"#utility.yul\":1375:1420   */\n      tag_116\n        /* \"#utility.yul\":1395:1419   */\n      tag_117\n        /* \"#utility.yul\":1413:1418   */\n      dup3\n        /* \"#utility.yul\":1395:1419   */\n      tag_113\n      jump\t// in\n    tag_117:\n        /* \"#utility.yul\":1375:1420   */\n      tag_118\n      jump\t// in\n    tag_116:\n        /* \"#utility.yul\":1370:1373   */\n      dup3\n        /* \"#utility.yul\":1363:1421   */\n      mstore\n        /* \"#utility.yul\":1270:1427   */\n      pop\n      pop\n      jump\t// out\n        /* \"#utility.yul\":1433:1971   */\n    tag_67:\n        /* \"#utility.yul\":1601:1604   */\n      0x00\n        /* \"#utility.yul\":1616:1691   */\n      tag_120\n        /* \"#utility.yul\":1687:1690   */\n      dup3\n        /* \"#utility.yul\":1678:1684   */\n      dup7\n        /* \"#utility.yul\":1616:1691   */\n      tag_114\n      jump\t// in\n    tag_120:\n        /* \"#utility.yul\":1716:1718   */\n      0x20\n        /* \"#utility.yul\":1711:1714   */\n      dup3\n        /* \"#utility.yul\":1707:1719   */\n      add\n        /* \"#utility.yul\":1700:1719   */\n      swap2\n      pop\n        /* \"#utility.yul\":1729:1804   */\n      tag_121\n        /* \"#utility.yul\":1800:1803   */\n      dup3\n        /* \"#utility.yul\":1791:1797   */\n      dup6\n        /* \"#utility.yul\":1729:1804   */\n      tag_99\n      jump\t// in\n    tag_121:\n        /* \"#utility.yul\":1829:1831   */\n      0x14\n        /* \"#utility.yul\":1824:1827   */\n      dup3\n        /* \"#utility.yul\":1820:1832   */\n      add\n        /* \"#utility.yul\":1813:1832   */\n      swap2\n      pop\n        /* \"#utility.yul\":1842:1917   */\n      tag_122\n        /* \"#utility.yul\":1913:1916   */\n      dup3\n        /* \"#utility.yul\":1904:1910   */\n      dup5\n        /* \"#utility.yul\":1842:1917   */\n      tag_114\n      jump\t// in\n    tag_122:\n        /* \"#utility.yul\":1942:1944   */\n      0x20\n        /* \"#utility.yul\":1937:1940   */\n      dup3\n        /* \"#utility.yul\":1933:1945   */\n      add\n        /* \"#utility.yul\":1926:1945   */\n      swap2\n      pop\n        /* \"#utility.yul\":1962:1965   */\n      dup2\n        /* \"#utility.yul\":1955:1965   */\n      swap1\n      pop\n        /* \"#utility.yul\":1433:1971   */\n      swap5\n      swap4\n      pop\n      pop\n      pop\n      pop\n      jump\t// out\n        /* \"#utility.yul\":1977:2199   */\n    tag_14:\n        /* \"#utility.yul\":2070:2074   */\n      0x00\n        /* \"#utility.yul\":2108:2110   */\n      0x20\n        /* \"#utility.yul\":2097:2106   */\n      dup3\n        /* \"#utility.yul\":2093:2111   */\n      add\n        /* \"#utility.yul\":2085:2111   */\n      swap1\n      pop\n        /* \"#utility.yul\":2121:2192   */\n      tag_124\n        /* \"#utility.yul\":2189:2190   */\n      0x00\n        /* \"#utility.yul\":2178:2187   */\n      dup4\n        /* \"#utility.yul\":2174:2191   */\n      add\n        /* \"#utility.yul\":2165:2171   */\n      dup5\n        /* \"#utility.yul\":2121:2192   */\n      tag_95\n      jump\t// in\n    tag_124:\n        /* \"#utility.yul\":1977:2199   */\n      swap3\n      swap2\n      pop\n      pop\n      jump\t// out\n        /* \"#utility.yul\":2205:2624   */\n    tag_43:\n        /* \"#utility.yul\":2371:2375   */\n      0x00\n        /* \"#utility.yul\":2409:2411   */\n      0x20\n        /* \"#utility.yul\":2398:2407   */\n      dup3\n        /* \"#utility.yul\":2394:2412   */\n      add\n        /* \"#utility.yul\":2386:2412   */\n      swap1\n      pop\n        /* \"#utility.yul\":2458:2467   */\n      dup2\n        /* \"#utility.yul\":2452:2456   */\n      dup2\n        /* \"#utility.yul\":2448:2468   */\n      sub\n        /* \"#utility.yul\":2444:2445   */\n      0x00\n        /* \"#utility.yul\":2433:2442   */\n      dup4\n        /* \"#utility.yul\":2429:2446   */\n      add\n        /* \"#utility.yul\":2422:2469   */\n      mstore\n        /* \"#utility.yul\":2486:2617   */\n      tag_126\n        /* \"#utility.yul\":2612:2616   */\n      dup2\n        /* \"#utility.yul\":2486:2617   */\n      tag_104\n      jump\t// in\n    tag_126:\n        /* \"#utility.yul\":2478:2617   */\n      swap1\n      pop\n        /* \"#utility.yul\":2205:2624   */\n      swap2\n      swap1\n      pop\n      jump\t// out\n        /* \"#utility.yul\":2630:2852   */\n    tag_29:\n        /* \"#utility.yul\":2723:2727   */\n      0x00\n        /* \"#utility.yul\":2761:2763   */\n      0x20\n        /* \"#utility.yul\":2750:2759   */\n      dup3\n        /* \"#utility.yul\":2746:2764   */\n      add\n        /* \"#utility.yul\":2738:2764   */\n      swap1\n      pop\n        /* \"#utility.yul\":2774:2845   */\n      tag_128\n        /* \"#utility.yul\":2842:2843   */\n      0x00\n        /* \"#utility.yul\":2831:2840   */\n      dup4\n        /* \"#utility.yul\":2827:2844   */\n      add\n        /* \"#utility.yul\":2818:2824   */\n      dup5\n        /* \"#utility.yul\":2774:2845   */\n      tag_110\n      jump\t// in\n    tag_128:\n        /* \"#utility.yul\":2630:2852   */\n      swap3\n      swap2\n      pop\n      pop\n      jump\t// out\n        /* \"#utility.yul\":2939:3108   */\n    tag_107:\n        /* \"#utility.yul\":3023:3034   */\n      0x00\n        /* \"#utility.yul\":3057:3063   */\n      dup3\n        /* \"#utility.yul\":3052:3055   */\n      dup3\n        /* \"#utility.yul\":3045:3064   */\n      mstore\n        /* \"#utility.yul\":3097:3101   */\n      0x20\n        /* \"#utility.yul\":3092:3095   */\n      dup3\n        /* \"#utility.yul\":3088:3102   */\n      add\n        /* \"#utility.yul\":3073:3102   */\n      swap1\n      pop\n        /* \"#utility.yul\":2939:3108   */\n      swap3\n      swap2\n      pop\n      pop\n      jump\t// out\n        /* \"#utility.yul\":3114:3305   */\n    tag_53:\n        /* \"#utility.yul\":3154:3158   */\n      0x00\n        /* \"#utility.yul\":3174:3194   */\n      tag_133\n        /* \"#utility.yul\":3192:3193   */\n      dup3\n        /* \"#utility.yul\":3174:3194   */\n      tag_113\n      jump\t// in\n    tag_133:\n        /* \"#utility.yul\":3169:3194   */\n      swap2\n      pop\n        /* \"#utility.yul\":3208:3228   */\n      tag_134\n        /* \"#utility.yul\":3226:3227   */\n      dup4\n        /* \"#utility.yul\":3208:3228   */\n      tag_113\n      jump\t// in\n    tag_134:\n        /* \"#utility.yul\":3203:3228   */\n      swap3\n      pop\n        /* \"#utility.yul\":3247:3248   */\n      dup3\n        /* \"#utility.yul\":3244:3245   */\n      dup3\n        /* \"#utility.yul\":3241:3249   */\n      lt\n        /* \"#utility.yul\":3238:3272   */\n      iszero\n      tag_135\n      jumpi\n        /* \"#utility.yul\":3252:3270   */\n      tag_136\n      tag_137\n      jump\t// in\n    tag_136:\n        /* \"#utility.yul\":3238:3272   */\n    tag_135:\n        /* \"#utility.yul\":3297:3298   */\n      dup3\n        /* \"#utility.yul\":3294:3295   */\n      dup3\n        /* \"#utility.yul\":3290:3299   */\n      sub\n        /* \"#utility.yul\":3282:3299   */\n      swap1\n      pop\n        /* \"#utility.yul\":3114:3305   */\n      swap3\n      swap2\n      pop\n      pop\n      jump\t// out\n        /* \"#utility.yul\":3311:3407   */\n    tag_98:\n        /* \"#utility.yul\":3348:3355   */\n      0x00\n        /* \"#utility.yul\":3377:3401   */\n      tag_139\n        /* \"#utility.yul\":3395:3400   */\n      dup3\n        /* \"#utility.yul\":3377:3401   */\n      tag_140\n      jump\t// in\n    tag_139:\n        /* \"#utility.yul\":3366:3401   */\n      swap1\n      pop\n        /* \"#utility.yul\":3311:3407   */\n      swap2\n      swap1\n      pop\n      jump\t// out\n        /* \"#utility.yul\":3413:3539   */\n    tag_140:\n        /* \"#utility.yul\":3450:3457   */\n      0x00\n        /* \"#utility.yul\":3490:3532   */\n      0xffffffffffffffffffffffffffffffffffffffff\n        /* \"#utility.yul\":3483:3488   */\n      dup3\n        /* \"#utility.yul\":3479:3533   */\n      and\n        /* \"#utility.yul\":3468:3533   */\n      swap1\n      pop\n        /* \"#utility.yul\":3413:3539   */\n      swap2\n      swap1\n      pop\n      jump\t// out\n        /* \"#utility.yul\":3545:3622   */\n    tag_113:\n        /* \"#utility.yul\":3582:3589   */\n      0x00\n        /* \"#utility.yul\":3611:3616   */\n      dup2\n        /* \"#utility.yul\":3600:3616   */\n      swap1\n      pop\n        /* \"#utility.yul\":3545:3622   */\n      swap2\n      swap1\n      pop\n      jump\t// out\n        /* \"#utility.yul\":3628:3728   */\n    tag_103:\n        /* \"#utility.yul\":3667:3674   */\n      0x00\n        /* \"#utility.yul\":3696:3722   */\n      tag_144\n        /* \"#utility.yul\":3716:3721   */\n      dup3\n        /* \"#utility.yul\":3696:3722   */\n      tag_145\n      jump\t// in\n    tag_144:\n        /* \"#utility.yul\":3685:3722   */\n      swap1\n      pop\n        /* \"#utility.yul\":3628:3728   */\n      swap2\n      swap1\n      pop\n      jump\t// out\n        /* \"#utility.yul\":3734:3828   */\n    tag_145:\n        /* \"#utility.yul\":3773:3780   */\n      0x00\n        /* \"#utility.yul\":3802:3822   */\n      tag_147\n        /* \"#utility.yul\":3816:3821   */\n      dup3\n        /* \"#utility.yul\":3802:3822   */\n      tag_148\n      jump\t// in\n    tag_147:\n        /* \"#utility.yul\":3791:3822   */\n      swap1\n      pop\n        /* \"#utility.yul\":3734:3828   */\n      swap2\n      swap1\n      pop\n      jump\t// out\n        /* \"#utility.yul\":3834:3913   */\n    tag_118:\n        /* \"#utility.yul\":3873:3880   */\n      0x00\n        /* \"#utility.yul\":3902:3907   */\n      dup2\n        /* \"#utility.yul\":3891:3907   */\n      swap1\n      pop\n        /* \"#utility.yul\":3834:3913   */\n      swap2\n      swap1\n      pop\n      jump\t// out\n        /* \"#utility.yul\":3919:4095   */\n    tag_69:\n        /* \"#utility.yul\":3951:3952   */\n      0x00\n        /* \"#utility.yul\":3968:3988   */\n      tag_151\n        /* \"#utility.yul\":3986:3987   */\n      dup3\n        /* \"#utility.yul\":3968:3988   */\n      tag_113\n      jump\t// in\n    tag_151:\n        /* \"#utility.yul\":3963:3988   */\n      swap2\n      pop\n        /* \"#utility.yul\":4002:4022   */\n      tag_152\n        /* \"#utility.yul\":4020:4021   */\n      dup4\n        /* \"#utility.yul\":4002:4022   */\n      tag_113\n      jump\t// in\n    tag_152:\n        /* \"#utility.yul\":3997:4022   */\n      swap3\n      pop\n        /* \"#utility.yul\":4041:4042   */\n      dup3\n        /* \"#utility.yul\":4031:4066   */\n      tag_153\n      jumpi\n        /* \"#utility.yul\":4046:4064   */\n      tag_154\n      tag_155\n      jump\t// in\n    tag_154:\n        /* \"#utility.yul\":4031:4066   */\n    tag_153:\n        /* \"#utility.yul\":4087:4088   */\n      dup3\n        /* \"#utility.yul\":4084:4085   */\n      dup3\n        /* \"#utility.yul\":4080:4089   */\n      mod\n        /* \"#utility.yul\":4075:4089   */\n      swap1\n      pop\n        /* \"#utility.yul\":3919:4095   */\n      swap3\n      swap2\n      pop\n      pop\n      jump\t// out\n        /* \"#utility.yul\":4101:4281   */\n    tag_137:\n        /* \"#utility.yul\":4149:4226   */\n      0x4e487b7100000000000000000000000000000000000000000000000000000000\n        /* \"#utility.yul\":4146:4147   */\n      0x00\n        /* \"#utility.yul\":4139:4227   */\n      mstore\n        /* \"#utility.yul\":4246:4250   */\n      0x11\n        /* \"#utility.yul\":4243:4244   */\n      0x04\n        /* \"#utility.yul\":4236:4251   */\n      mstore\n        /* \"#utility.yul\":4270:4274   */\n      0x24\n        /* \"#utility.yul\":4267:4268   */\n      0x00\n        /* \"#utility.yul\":4260:4275   */\n      revert\n        /* \"#utility.yul\":4287:4467   */\n    tag_155:\n        /* \"#utility.yul\":4335:4412   */\n      0x4e487b7100000000000000000000000000000000000000000000000000000000\n        /* \"#utility.yul\":4332:4333   */\n      0x00\n        /* \"#utility.yul\":4325:4413   */\n      mstore\n        /* \"#utility.yul\":4432:4436   */\n      0x12\n        /* \"#utility.yul\":4429:4430   */\n      0x04\n        /* \"#utility.yul\":4422:4437   */\n      mstore\n        /* \"#utility.yul\":4456:4460   */\n      0x24\n        /* \"#utility.yul\":4453:4454   */\n      0x00\n        /* \"#utility.yul\":4446:4461   */\n      revert\n        /* \"#utility.yul\":4473:4653   */\n    tag_49:\n        /* \"#utility.yul\":4521:4598   */\n      0x4e487b7100000000000000000000000000000000000000000000000000000000\n        /* \"#utility.yul\":4518:4519   */\n      0x00\n        /* \"#utility.yul\":4511:4599   */\n      mstore\n        /* \"#utility.yul\":4618:4622   */\n      0x32\n        /* \"#utility.yul\":4615:4616   */\n      0x04\n        /* \"#utility.yul\":4608:4623   */\n      mstore\n        /* \"#utility.yul\":4642:4646   */\n      0x24\n        /* \"#utility.yul\":4639:4640   */\n      0x00\n        /* \"#utility.yul\":4632:4647   */\n      revert\n        /* \"#utility.yul\":4782:4899   */\n    tag_93:\n        /* \"#utility.yul\":4891:4892   */\n      0x00\n        /* \"#utility.yul\":4888:4889   */\n      dup1\n        /* \"#utility.yul\":4881:4893   */\n      revert\n        /* \"#utility.yul\":4905:4999   */\n    tag_148:\n        /* \"#utility.yul\":4938:4946   */\n      0x00\n        /* \"#utility.yul\":4986:4991   */\n      dup2\n        /* \"#utility.yul\":4982:4984   */\n      0x60\n        /* \"#utility.yul\":4978:4992   */\n      shl\n        /* \"#utility.yul\":4957:4992   */\n      swap1\n      pop\n        /* \"#utility.yul\":4905:4999   */\n      swap2\n      swap1\n      pop\n      jump\t// out\n        /* \"#utility.yul\":5005:5176   */\n    tag_109:\n        /* \"#utility.yul\":5145:5168   */\n      0x4f6e6c79206d616e616765722063616e20646f20690000000000000000000000\n        /* \"#utility.yul\":5141:5142   */\n      0x00\n        /* \"#utility.yul\":5133:5139   */\n      dup3\n        /* \"#utility.yul\":5129:5143   */\n      add\n        /* \"#utility.yul\":5122:5169   */\n      mstore\n        /* \"#utility.yul\":5005:5176   */\n      pop\n      jump\t// out\n        /* \"#utility.yul\":5182:5304   */\n    tag_89:\n        /* \"#utility.yul\":5255:5279   */\n      tag_165\n        /* \"#utility.yul\":5273:5278   */\n      dup2\n        /* \"#utility.yul\":5255:5279   */\n      tag_113\n      jump\t// in\n    tag_165:\n        /* \"#utility.yul\":5248:5253   */\n      dup2\n        /* \"#utility.yul\":5245:5280   */\n      eq\n        /* \"#utility.yul\":5235:5298   */\n      tag_166\n      jumpi\n        /* \"#utility.yul\":5294:5295   */\n      0x00\n        /* \"#utility.yul\":5291:5292   */\n      dup1\n        /* \"#utility.yul\":5284:5296   */\n      revert\n        /* \"#utility.yul\":5235:5298   */\n    tag_166:\n        /* \"#utility.yul\":5182:5304   */\n      pop\n      jump\t// out\n\n    auxdata: 0xa26469706673582212201dd2c8c6523c134de03ad59c367b58197dc92890bb1120b33a4399a97ec4596364736f6c63430008070033\n}\n",
				"bytecode": {
					"linkReferences": {},
					"object": "608060405234801561001057600080fd5b50336000806101000a81548173ffffffffffffffffffffffffffffffffffffffff021916908373ffffffffffffffffffffffffffffffffffffffff160217905550610a9c806100606000396000f3fe6080604052600436106100705760003560e01c80638c200df41161004e5780638c200df414610108578063946d014914610133578063dfbf53ae1461015e578063e8e11e161461018957610070565b80631bef21d61461007557806335c1d349146100a0578063481c6a75146100dd575b600080fd5b34801561008157600080fd5b5061008a610193565b6040516100979190610851565b60405180910390f35b3480156100ac57600080fd5b506100c760048036038101906100c29190610778565b6103f1565b6040516100d49190610851565b60405180910390f35b3480156100e957600080fd5b506100f2610430565b6040516100ff9190610851565b60405180910390f35b34801561011457600080fd5b5061011d610454565b60405161012a919061088c565b60405180910390f35b34801561013f57600080fd5b5061014861052d565b604051610155919061088c565b60405180910390f35b34801561016a57600080fd5b506101736105c4565b6040516101809190610851565b60405180910390f35b6101916105ea565b005b60008060009054906101000a900473ffffffffffffffffffffffffffffffffffffffff1673ffffffffffffffffffffffffffffffffffffffff163373ffffffffffffffffffffffffffffffffffffffff1614610224576040517f08c379a000000000000000000000000000000000000000000000000000000000815260040161021b9061086c565b60405180910390fd5b6003600180549050101561023757600080fd5b6001610241610454565b81548110610252576102516109e5565b5b9060005260206000200160009054906101000a900473ffffffffffffffffffffffffffffffffffffffff16600260006101000a81548173ffffffffffffffffffffffffffffffffffffffff021916908373ffffffffffffffffffffffffffffffffffffffff160217905550600260009054906101000a900473ffffffffffffffffffffffffffffffffffffffff1673ffffffffffffffffffffffffffffffffffffffff166108fc670de0b6b3a764000061030a61052d565b61031491906108b8565b9081150290604051600060405180830381858888f1935050505015801561033f573d6000803e3d6000fd5b5060008054906101000a900473ffffffffffffffffffffffffffffffffffffffff1673ffffffffffffffffffffffffffffffffffffffff166108fc670de0b6b3a76400009081150290604051600060405180830381858888f193505050501580156103ae573d6000803e3d6000fd5b50606080600190805190602001906103c79291906106bc565b50600260009054906101000a900473ffffffffffffffffffffffffffffffffffffffff1691505090565b6001818154811061040157600080fd5b906000526020600020016000915054906101000a900473ffffffffffffffffffffffffffffffffffffffff1681565b60008054906101000a900473ffffffffffffffffffffffffffffffffffffffff1681565b60008060009054906101000a900473ffffffffffffffffffffffffffffffffffffffff1673ffffffffffffffffffffffffffffffffffffffff163373ffffffffffffffffffffffffffffffffffffffff16146104e5576040517f08c379a00000000000000000000000000000000000000000000000000000000081526004016104dc9061086c565b60405180910390fd5b600180549050423360018054905060405160200161050593929190610814565b6040516020818303038152906040528051906020012060001c6105289190610956565b905090565b60008060009054906101000a900473ffffffffffffffffffffffffffffffffffffffff1673ffffffffffffffffffffffffffffffffffffffff163373ffffffffffffffffffffffffffffffffffffffff16146105be576040517f08c379a00000000000000000000000000000000000000000000000000000000081526004016105b59061086c565b60405180910390fd5b47905090565b600260009054906101000a900473ffffffffffffffffffffffffffffffffffffffff1681565b60008054906101000a900473ffffffffffffffffffffffffffffffffffffffff1673ffffffffffffffffffffffffffffffffffffffff163373ffffffffffffffffffffffffffffffffffffffff16141561064357600080fd5b678ac7230489e80000341461065757600080fd5b6001339080600181540180825580915050600190039060005260206000200160009091909190916101000a81548173ffffffffffffffffffffffffffffffffffffffff021916908373ffffffffffffffffffffffffffffffffffffffff160217905550565b828054828255906000526020600020908101928215610735579160200282015b828111156107345782518260006101000a81548173ffffffffffffffffffffffffffffffffffffffff021916908373ffffffffffffffffffffffffffffffffffffffff160217905550916020019190600101906106dc565b5b5090506107429190610746565b5090565b5b8082111561075f576000816000905550600101610747565b5090565b60008135905061077281610a4f565b92915050565b60006020828403121561078e5761078d610a14565b5b600061079c84828501610763565b91505092915050565b6107ae816108ec565b82525050565b6107c56107c0826108ec565b610928565b82525050565b60006107d86015836108a7565b91506107e382610a26565b602082019050919050565b6107f78161091e565b82525050565b61080e6108098261091e565b61094c565b82525050565b600061082082866107fd565b60208201915061083082856107b4565b60148201915061084082846107fd565b602082019150819050949350505050565b600060208201905061086660008301846107a5565b92915050565b60006020820190508181036000830152610885816107cb565b9050919050565b60006020820190506108a160008301846107ee565b92915050565b600082825260208201905092915050565b60006108c38261091e565b91506108ce8361091e565b9250828210156108e1576108e0610987565b5b828203905092915050565b60006108f7826108fe565b9050919050565b600073ffffffffffffffffffffffffffffffffffffffff82169050919050565b6000819050919050565b60006109338261093a565b9050919050565b600061094582610a19565b9050919050565b6000819050919050565b60006109618261091e565b915061096c8361091e565b92508261097c5761097b6109b6565b5b828206905092915050565b7f4e487b7100000000000000000000000000000000000000000000000000000000600052601160045260246000fd5b7f4e487b7100000000000000000000000000000000000000000000000000000000600052601260045260246000fd5b7f4e487b7100000000000000000000000000000000000000000000000000000000600052603260045260246000fd5b600080fd5b60008160601b9050919050565b7f4f6e6c79206d616e616765722063616e20646f20690000000000000000000000600082015250565b610a588161091e565b8114610a6357600080fd5b5056fea26469706673582212201dd2c8c6523c134de03ad59c367b58197dc92890bb1120b33a4399a97ec4596364736f6c63430008070033",
					"opcodes": "PUSH1 0x80 PUSH1 0x40 MSTORE CALLVALUE DUP1 ISZERO PUSH2 0x10 JUMPI PUSH1 0x0 DUP1 REVERT JUMPDEST POP CALLER PUSH1 0x0 DUP1 PUSH2 0x100 EXP DUP2 SLOAD DUP2 PUSH20 0xFFFFFFFFFFFFFFFFFFFFFFFFFFFFFFFFFFFFFFFF MUL NOT AND SWAP1 DUP4 PUSH20 0xFFFFFFFFFFFFFFFFFFFFFFFFFFFFFFFFFFFFFFFF AND MUL OR SWAP1 SSTORE POP PUSH2 0xA9C DUP1 PUSH2 0x60 PUSH1 0x0 CODECOPY PUSH1 0x0 RETURN INVALID PUSH1 0x80 PUSH1 0x40 MSTORE PUSH1 0x4 CALLDATASIZE LT PUSH2 0x70 JUMPI PUSH1 0x0 CALLDATALOAD PUSH1 0xE0 SHR DUP1 PUSH4 0x8C200DF4 GT PUSH2 0x4E JUMPI DUP1 PUSH4 0x8C200DF4 EQ PUSH2 0x108 JUMPI DUP1 PUSH4 0x946D0149 EQ PUSH2 0x133 JUMPI DUP1 PUSH4 0xDFBF53AE EQ PUSH2 0x15E JUMPI DUP1 PUSH4 0xE8E11E16 EQ PUSH2 0x189 JUMPI PUSH2 0x70 JUMP JUMPDEST DUP1 PUSH4 0x1BEF21D6 EQ PUSH2 0x75 JUMPI DUP1 PUSH4 0x35C1D349 EQ PUSH2 0xA0 JUMPI DUP1 PUSH4 0x481C6A75 EQ PUSH2 0xDD JUMPI JUMPDEST PUSH1 0x0 DUP1 REVERT JUMPDEST CALLVALUE DUP1 ISZERO PUSH2 0x81 JUMPI PUSH1 0x0 DUP1 REVERT JUMPDEST POP PUSH2 0x8A PUSH2 0x193 JUMP JUMPDEST PUSH1 0x40 MLOAD PUSH2 0x97 SWAP2 SWAP1 PUSH2 0x851 JUMP JUMPDEST PUSH1 0x40 MLOAD DUP1 SWAP2 SUB SWAP1 RETURN JUMPDEST CALLVALUE DUP1 ISZERO PUSH2 0xAC JUMPI PUSH1 0x0 DUP1 REVERT JUMPDEST POP PUSH2 0xC7 PUSH1 0x4 DUP1 CALLDATASIZE SUB DUP2 ADD SWAP1 PUSH2 0xC2 SWAP2 SWAP1 PUSH2 0x778 JUMP JUMPDEST PUSH2 0x3F1 JUMP JUMPDEST PUSH1 0x40 MLOAD PUSH2 0xD4 SWAP2 SWAP1 PUSH2 0x851 JUMP JUMPDEST PUSH1 0x40 MLOAD DUP1 SWAP2 SUB SWAP1 RETURN JUMPDEST CALLVALUE DUP1 ISZERO PUSH2 0xE9 JUMPI PUSH1 0x0 DUP1 REVERT JUMPDEST POP PUSH2 0xF2 PUSH2 0x430 JUMP JUMPDEST PUSH1 0x40 MLOAD PUSH2 0xFF SWAP2 SWAP1 PUSH2 0x851 JUMP JUMPDEST PUSH1 0x40 MLOAD DUP1 SWAP2 SUB SWAP1 RETURN JUMPDEST CALLVALUE DUP1 ISZERO PUSH2 0x114 JUMPI PUSH1 0x0 DUP1 REVERT JUMPDEST POP PUSH2 0x11D PUSH2 0x454 JUMP JUMPDEST PUSH1 0x40 MLOAD PUSH2 0x12A SWAP2 SWAP1 PUSH2 0x88C JUMP JUMPDEST PUSH1 0x40 MLOAD DUP1 SWAP2 SUB SWAP1 RETURN JUMPDEST CALLVALUE DUP1 ISZERO PUSH2 0x13F JUMPI PUSH1 0x0 DUP1 REVERT JUMPDEST POP PUSH2 0x148 PUSH2 0x52D JUMP JUMPDEST PUSH1 0x40 MLOAD PUSH2 0x155 SWAP2 SWAP1 PUSH2 0x88C JUMP JUMPDEST PUSH1 0x40 MLOAD DUP1 SWAP2 SUB SWAP1 RETURN JUMPDEST CALLVALUE DUP1 ISZERO PUSH2 0x16A JUMPI PUSH1 0x0 DUP1 REVERT JUMPDEST POP PUSH2 0x173 PUSH2 0x5C4 JUMP JUMPDEST PUSH1 0x40 MLOAD PUSH2 0x180 SWAP2 SWAP1 PUSH2 0x851 JUMP JUMPDEST PUSH1 0x40 MLOAD DUP1 SWAP2 SUB SWAP1 RETURN JUMPDEST PUSH2 0x191 PUSH2 0x5EA JUMP JUMPDEST STOP JUMPDEST PUSH1 0x0 DUP1 PUSH1 0x0 SWAP1 SLOAD SWAP1 PUSH2 0x100 EXP SWAP1 DIV PUSH20 0xFFFFFFFFFFFFFFFFFFFFFFFFFFFFFFFFFFFFFFFF AND PUSH20 0xFFFFFFFFFFFFFFFFFFFFFFFFFFFFFFFFFFFFFFFF AND CALLER PUSH20 0xFFFFFFFFFFFFFFFFFFFFFFFFFFFFFFFFFFFFFFFF AND EQ PUSH2 0x224 JUMPI PUSH1 0x40 MLOAD PUSH32 0x8C379A000000000000000000000000000000000000000000000000000000000 DUP2 MSTORE PUSH1 0x4 ADD PUSH2 0x21B SWAP1 PUSH2 0x86C JUMP JUMPDEST PUSH1 0x40 MLOAD DUP1 SWAP2 SUB SWAP1 REVERT JUMPDEST PUSH1 0x3 PUSH1 0x1 DUP1 SLOAD SWAP1 POP LT ISZERO PUSH2 0x237 JUMPI PUSH1 0x0 DUP1 REVERT JUMPDEST PUSH1 0x1 PUSH2 0x241 PUSH2 0x454 JUMP JUMPDEST DUP2 SLOAD DUP2 LT PUSH2 0x252 JUMPI PUSH2 0x251 PUSH2 0x9E5 JUMP JUMPDEST JUMPDEST SWAP1 PUSH1 0x0 MSTORE PUSH1 0x20 PUSH1 0x0 KECCAK256 ADD PUSH1 0x0 SWAP1 SLOAD SWAP1 PUSH2 0x100 EXP SWAP1 DIV PUSH20 0xFFFFFFFFFFFFFFFFFFFFFFFFFFFFFFFFFFFFFFFF AND PUSH1 0x2 PUSH1 0x0 PUSH2 0x100 EXP DUP2 SLOAD DUP2 PUSH20 0xFFFFFFFFFFFFFFFFFFFFFFFFFFFFFFFFFFFFFFFF MUL NOT AND SWAP1 DUP4 PUSH20 0xFFFFFFFFFFFFFFFFFFFFFFFFFFFFFFFFFFFFFFFF AND MUL OR SWAP1 SSTORE POP PUSH1 0x2 PUSH1 0x0 SWAP1 SLOAD SWAP1 PUSH2 0x100 EXP SWAP1 DIV PUSH20 0xFFFFFFFFFFFFFFFFFFFFFFFFFFFFFFFFFFFFFFFF AND PUSH20 0xFFFFFFFFFFFFFFFFFFFFFFFFFFFFFFFFFFFFFFFF AND PUSH2 0x8FC PUSH8 0xDE0B6B3A7640000 PUSH2 0x30A PUSH2 0x52D JUMP JUMPDEST PUSH2 0x314 SWAP2 SWAP1 PUSH2 0x8B8 JUMP JUMPDEST SWAP1 DUP2 ISZERO MUL SWAP1 PUSH1 0x40 MLOAD PUSH1 0x0 PUSH1 0x40 MLOAD DUP1 DUP4 SUB DUP2 DUP6 DUP9 DUP9 CALL SWAP4 POP POP POP POP ISZERO DUP1 ISZERO PUSH2 0x33F JUMPI RETURNDATASIZE PUSH1 0x0 DUP1 RETURNDATACOPY RETURNDATASIZE PUSH1 0x0 REVERT JUMPDEST POP PUSH1 0x0 DUP1 SLOAD SWAP1 PUSH2 0x100 EXP SWAP1 DIV PUSH20 0xFFFFFFFFFFFFFFFFFFFFFFFFFFFFFFFFFFFFFFFF AND PUSH20 0xFFFFFFFFFFFFFFFFFFFFFFFFFFFFFFFFFFFFFFFF AND PUSH2 0x8FC PUSH8 0xDE0B6B3A7640000 SWAP1 DUP2 ISZERO MUL SWAP1 PUSH1 0x40 MLOAD PUSH1 0x0 PUSH1 0x40 MLOAD DUP1 DUP4 SUB DUP2 DUP6 DUP9 DUP9 CALL SWAP4 POP POP POP POP ISZERO DUP1 ISZERO PUSH2 0x3AE JUMPI RETURNDATASIZE PUSH1 0x0 DUP1 RETURNDATACOPY RETURNDATASIZE PUSH1 0x0 REVERT JUMPDEST POP PUSH1 0x60 DUP1 PUSH1 0x1 SWAP1 DUP1 MLOAD SWAP1 PUSH1 0x20 ADD SWAP1 PUSH2 0x3C7 SWAP3 SWAP2 SWAP1 PUSH2 0x6BC JUMP JUMPDEST POP PUSH1 0x2 PUSH1 0x0 SWAP1 SLOAD SWAP1 PUSH2 0x100 EXP SWAP1 DIV PUSH20 0xFFFFFFFFFFFFFFFFFFFFFFFFFFFFFFFFFFFFFFFF AND SWAP2 POP POP SWAP1 JUMP JUMPDEST PUSH1 0x1 DUP2 DUP2 SLOAD DUP2 LT PUSH2 0x401 JUMPI PUSH1 0x0 DUP1 REVERT JUMPDEST SWAP1 PUSH1 0x0 MSTORE PUSH1 0x20 PUSH1 0x0 KECCAK256 ADD PUSH1 0x0 SWAP2 POP SLOAD SWAP1 PUSH2 0x100 EXP SWAP1 DIV PUSH20 0xFFFFFFFFFFFFFFFFFFFFFFFFFFFFFFFFFFFFFFFF AND DUP2 JUMP JUMPDEST PUSH1 0x0 DUP1 SLOAD SWAP1 PUSH2 0x100 EXP SWAP1 DIV PUSH20 0xFFFFFFFFFFFFFFFFFFFFFFFFFFFFFFFFFFFFFFFF AND DUP2 JUMP JUMPDEST PUSH1 0x0 DUP1 PUSH1 0x0 SWAP1 SLOAD SWAP1 PUSH2 0x100 EXP SWAP1 DIV PUSH20 0xFFFFFFFFFFFFFFFFFFFFFFFFFFFFFFFFFFFFFFFF AND PUSH20 0xFFFFFFFFFFFFFFFFFFFFFFFFFFFFFFFFFFFFFFFF AND CALLER PUSH20 0xFFFFFFFFFFFFFFFFFFFFFFFFFFFFFFFFFFFFFFFF AND EQ PUSH2 0x4E5 JUMPI PUSH1 0x40 MLOAD PUSH32 0x8C379A000000000000000000000000000000000000000000000000000000000 DUP2 MSTORE PUSH1 0x4 ADD PUSH2 0x4DC SWAP1 PUSH2 0x86C JUMP JUMPDEST PUSH1 0x40 MLOAD DUP1 SWAP2 SUB SWAP1 REVERT JUMPDEST PUSH1 0x1 DUP1 SLOAD SWAP1 POP TIMESTAMP CALLER PUSH1 0x1 DUP1 SLOAD SWAP1 POP PUSH1 0x40 MLOAD PUSH1 0x20 ADD PUSH2 0x505 SWAP4 SWAP3 SWAP2 SWAP1 PUSH2 0x814 JUMP JUMPDEST PUSH1 0x40 MLOAD PUSH1 0x20 DUP2 DUP4 SUB SUB DUP2 MSTORE SWAP1 PUSH1 0x40 MSTORE DUP1 MLOAD SWAP1 PUSH1 0x20 ADD KECCAK256 PUSH1 0x0 SHR PUSH2 0x528 SWAP2 SWAP1 PUSH2 0x956 JUMP JUMPDEST SWAP1 POP SWAP1 JUMP JUMPDEST PUSH1 0x0 DUP1 PUSH1 0x0 SWAP1 SLOAD SWAP1 PUSH2 0x100 EXP SWAP1 DIV PUSH20 0xFFFFFFFFFFFFFFFFFFFFFFFFFFFFFFFFFFFFFFFF AND PUSH20 0xFFFFFFFFFFFFFFFFFFFFFFFFFFFFFFFFFFFFFFFF AND CALLER PUSH20 0xFFFFFFFFFFFFFFFFFFFFFFFFFFFFFFFFFFFFFFFF AND EQ PUSH2 0x5BE JUMPI PUSH1 0x40 MLOAD PUSH32 0x8C379A000000000000000000000000000000000000000000000000000000000 DUP2 MSTORE PUSH1 0x4 ADD PUSH2 0x5B5 SWAP1 PUSH2 0x86C JUMP JUMPDEST PUSH1 0x40 MLOAD DUP1 SWAP2 SUB SWAP1 REVERT JUMPDEST SELFBALANCE SWAP1 POP SWAP1 JUMP JUMPDEST PUSH1 0x2 PUSH1 0x0 SWAP1 SLOAD SWAP1 PUSH2 0x100 EXP SWAP1 DIV PUSH20 0xFFFFFFFFFFFFFFFFFFFFFFFFFFFFFFFFFFFFFFFF AND DUP2 JUMP JUMPDEST PUSH1 0x0 DUP1 SLOAD SWAP1 PUSH2 0x100 EXP SWAP1 DIV PUSH20 0xFFFFFFFFFFFFFFFFFFFFFFFFFFFFFFFFFFFFFFFF AND PUSH20 0xFFFFFFFFFFFFFFFFFFFFFFFFFFFFFFFFFFFFFFFF AND CALLER PUSH20 0xFFFFFFFFFFFFFFFFFFFFFFFFFFFFFFFFFFFFFFFF AND EQ ISZERO PUSH2 0x643 JUMPI PUSH1 0x0 DUP1 REVERT JUMPDEST PUSH8 0x8AC7230489E80000 CALLVALUE EQ PUSH2 0x657 JUMPI PUSH1 0x0 DUP1 REVERT JUMPDEST PUSH1 0x1 CALLER SWAP1 DUP1 PUSH1 0x1 DUP2 SLOAD ADD DUP1 DUP3 SSTORE DUP1 SWAP2 POP POP PUSH1 0x1 SWAP1 SUB SWAP1 PUSH1 0x0 MSTORE PUSH1 0x20 PUSH1 0x0 KECCAK256 ADD PUSH1 0x0 SWAP1 SWAP2 SWAP1 SWAP2 SWAP1 SWAP2 PUSH2 0x100 EXP DUP2 SLOAD DUP2 PUSH20 0xFFFFFFFFFFFFFFFFFFFFFFFFFFFFFFFFFFFFFFFF MUL NOT AND SWAP1 DUP4 PUSH20 0xFFFFFFFFFFFFFFFFFFFFFFFFFFFFFFFFFFFFFFFF AND MUL OR SWAP1 SSTORE POP JUMP JUMPDEST DUP3 DUP1 SLOAD DUP3 DUP3 SSTORE SWAP1 PUSH1 0x0 MSTORE PUSH1 0x20 PUSH1 0x0 KECCAK256 SWAP1 DUP2 ADD SWAP3 DUP3 ISZERO PUSH2 0x735 JUMPI SWAP2 PUSH1 0x20 MUL DUP3 ADD JUMPDEST DUP3 DUP2 GT ISZERO PUSH2 0x734 JUMPI DUP3 MLOAD DUP3 PUSH1 0x0 PUSH2 0x100 EXP DUP2 SLOAD DUP2 PUSH20 0xFFFFFFFFFFFFFFFFFFFFFFFFFFFFFFFFFFFFFFFF MUL NOT AND SWAP1 DUP4 PUSH20 0xFFFFFFFFFFFFFFFFFFFFFFFFFFFFFFFFFFFFFFFF AND MUL OR SWAP1 SSTORE POP SWAP2 PUSH1 0x20 ADD SWAP2 SWAP1 PUSH1 0x1 ADD SWAP1 PUSH2 0x6DC JUMP JUMPDEST JUMPDEST POP SWAP1 POP PUSH2 0x742 SWAP2 SWAP1 PUSH2 0x746 JUMP JUMPDEST POP SWAP1 JUMP JUMPDEST JUMPDEST DUP1 DUP3 GT ISZERO PUSH2 0x75F JUMPI PUSH1 0x0 DUP2 PUSH1 0x0 SWAP1 SSTORE POP PUSH1 0x1 ADD PUSH2 0x747 JUMP JUMPDEST POP SWAP1 JUMP JUMPDEST PUSH1 0x0 DUP2 CALLDATALOAD SWAP1 POP PUSH2 0x772 DUP2 PUSH2 0xA4F JUMP JUMPDEST SWAP3 SWAP2 POP POP JUMP JUMPDEST PUSH1 0x0 PUSH1 0x20 DUP3 DUP5 SUB SLT ISZERO PUSH2 0x78E JUMPI PUSH2 0x78D PUSH2 0xA14 JUMP JUMPDEST JUMPDEST PUSH1 0x0 PUSH2 0x79C DUP5 DUP3 DUP6 ADD PUSH2 0x763 JUMP JUMPDEST SWAP2 POP POP SWAP3 SWAP2 POP POP JUMP JUMPDEST PUSH2 0x7AE DUP2 PUSH2 0x8EC JUMP JUMPDEST DUP3 MSTORE POP POP JUMP JUMPDEST PUSH2 0x7C5 PUSH2 0x7C0 DUP3 PUSH2 0x8EC JUMP JUMPDEST PUSH2 0x928 JUMP JUMPDEST DUP3 MSTORE POP POP JUMP JUMPDEST PUSH1 0x0 PUSH2 0x7D8 PUSH1 0x15 DUP4 PUSH2 0x8A7 JUMP JUMPDEST SWAP2 POP PUSH2 0x7E3 DUP3 PUSH2 0xA26 JUMP JUMPDEST PUSH1 0x20 DUP3 ADD SWAP1 POP SWAP2 SWAP1 POP JUMP JUMPDEST PUSH2 0x7F7 DUP2 PUSH2 0x91E JUMP JUMPDEST DUP3 MSTORE POP POP JUMP JUMPDEST PUSH2 0x80E PUSH2 0x809 DUP3 PUSH2 0x91E JUMP JUMPDEST PUSH2 0x94C JUMP JUMPDEST DUP3 MSTORE POP POP JUMP JUMPDEST PUSH1 0x0 PUSH2 0x820 DUP3 DUP7 PUSH2 0x7FD JUMP JUMPDEST PUSH1 0x20 DUP3 ADD SWAP2 POP PUSH2 0x830 DUP3 DUP6 PUSH2 0x7B4 JUMP JUMPDEST PUSH1 0x14 DUP3 ADD SWAP2 POP PUSH2 0x840 DUP3 DUP5 PUSH2 0x7FD JUMP JUMPDEST PUSH1 0x20 DUP3 ADD SWAP2 POP DUP2 SWAP1 POP SWAP5 SWAP4 POP POP POP POP JUMP JUMPDEST PUSH1 0x0 PUSH1 0x20 DUP3 ADD SWAP1 POP PUSH2 0x866 PUSH1 0x0 DUP4 ADD DUP5 PUSH2 0x7A5 JUMP JUMPDEST SWAP3 SWAP2 POP POP JUMP JUMPDEST PUSH1 0x0 PUSH1 0x20 DUP3 ADD SWAP1 POP DUP2 DUP2 SUB PUSH1 0x0 DUP4 ADD MSTORE PUSH2 0x885 DUP2 PUSH2 0x7CB JUMP JUMPDEST SWAP1 POP SWAP2 SWAP1 POP JUMP JUMPDEST PUSH1 0x0 PUSH1 0x20 DUP3 ADD SWAP1 POP PUSH2 0x8A1 PUSH1 0x0 DUP4 ADD DUP5 PUSH2 0x7EE JUMP JUMPDEST SWAP3 SWAP2 POP POP JUMP JUMPDEST PUSH1 0x0 DUP3 DUP3 MSTORE PUSH1 0x20 DUP3 ADD SWAP1 POP SWAP3 SWAP2 POP POP JUMP JUMPDEST PUSH1 0x0 PUSH2 0x8C3 DUP3 PUSH2 0x91E JUMP JUMPDEST SWAP2 POP PUSH2 0x8CE DUP4 PUSH2 0x91E JUMP JUMPDEST SWAP3 POP DUP3 DUP3 LT ISZERO PUSH2 0x8E1 JUMPI PUSH2 0x8E0 PUSH2 0x987 JUMP JUMPDEST JUMPDEST DUP3 DUP3 SUB SWAP1 POP SWAP3 SWAP2 POP POP JUMP JUMPDEST PUSH1 0x0 PUSH2 0x8F7 DUP3 PUSH2 0x8FE JUMP JUMPDEST SWAP1 POP SWAP2 SWAP1 POP JUMP JUMPDEST PUSH1 0x0 PUSH20 0xFFFFFFFFFFFFFFFFFFFFFFFFFFFFFFFFFFFFFFFF DUP3 AND SWAP1 POP SWAP2 SWAP1 POP JUMP JUMPDEST PUSH1 0x0 DUP2 SWAP1 POP SWAP2 SWAP1 POP JUMP JUMPDEST PUSH1 0x0 PUSH2 0x933 DUP3 PUSH2 0x93A JUMP JUMPDEST SWAP1 POP SWAP2 SWAP1 POP JUMP JUMPDEST PUSH1 0x0 PUSH2 0x945 DUP3 PUSH2 0xA19 JUMP JUMPDEST SWAP1 POP SWAP2 SWAP1 POP JUMP JUMPDEST PUSH1 0x0 DUP2 SWAP1 POP SWAP2 SWAP1 POP JUMP JUMPDEST PUSH1 0x0 PUSH2 0x961 DUP3 PUSH2 0x91E JUMP JUMPDEST SWAP2 POP PUSH2 0x96C DUP4 PUSH2 0x91E JUMP JUMPDEST SWAP3 POP DUP3 PUSH2 0x97C JUMPI PUSH2 0x97B PUSH2 0x9B6 JUMP JUMPDEST JUMPDEST DUP3 DUP3 MOD SWAP1 POP SWAP3 SWAP2 POP POP JUMP JUMPDEST PUSH32 0x4E487B7100000000000000000000000000000000000000000000000000000000 PUSH1 0x0 MSTORE PUSH1 0x11 PUSH1 0x4 MSTORE PUSH1 0x24 PUSH1 0x0 REVERT JUMPDEST PUSH32 0x4E487B7100000000000000000000000000000000000000000000000000000000 PUSH1 0x0 MSTORE PUSH1 0x12 PUSH1 0x4 MSTORE PUSH1 0x24 PUSH1 0x0 REVERT JUMPDEST PUSH32 0x4E487B7100000000000000000000000000000000000000000000000000000000 PUSH1 0x0 MSTORE PUSH1 0x32 PUSH1 0x4 MSTORE PUSH1 0x24 PUSH1 0x0 REVERT JUMPDEST PUSH1 0x0 DUP1 REVERT JUMPDEST PUSH1 0x0 DUP2 PUSH1 0x60 SHL SWAP1 POP SWAP2 SWAP1 POP JUMP JUMPDEST PUSH32 0x4F6E6C79206D616E616765722063616E20646F20690000000000000000000000 PUSH1 0x0 DUP3 ADD MSTORE POP JUMP JUMPDEST PUSH2 0xA58 DUP2 PUSH2 0x91E JUMP JUMPDEST DUP2 EQ PUSH2 0xA63 JUMPI PUSH1 0x0 DUP1 REVERT JUMPDEST POP JUMP INVALID LOG2 PUSH5 0x6970667358 0x22 SLT KECCAK256 SAR 0xD2 0xC8 0xC6 MSTORE EXTCODECOPY SGT 0x4D 0xE0 GASPRICE 0xD5 SWAP13 CALLDATASIZE PUSH28 0x58197DC92890BB1120B33A4399A97EC4596364736F6C634300080700 CALLER "
				},
				"gasEstimates": {
					"creation": {
						"codeDepositCost": "543200",
						"executionCost": "24841",
						"totalCost": "568041"
					},
					"external": {
						"buy_lottery()": "50956",
						"manager()": "2556",
						"participants(uint256)": "4979",
						"random_number_generator()": "infinite",
						"select_winner()": "infinite",
						"show_balance()": "2628",
						"winner()": "2558"
					}
				},
				"methodIdentifiers": {
					"buy_lottery()": "e8e11e16",
					"manager()": "481c6a75",
					"participants(uint256)": "35c1d349",
					"random_number_generator()": "8c200df4",
					"select_winner()": "1bef21d6",
					"show_balance()": "946d0149",
					"winner()": "dfbf53ae"
				}
			},
			"storageLayout": {
				"storage": [
					{
						"astId": 3,
						"contract": "Projects/01_Lottery.sol:Lottery",
						"label": "manager",
						"offset": 0,
						"slot": "0",
						"type": "t_address"
					},
					{
						"astId": 6,
						"contract": "Projects/01_Lottery.sol:Lottery",
						"label": "participants",
						"offset": 0,
						"slot": "1",
						"type": "t_array(t_address)dyn_storage"
					},
					{
						"astId": 8,
						"contract": "Projects/01_Lottery.sol:Lottery",
						"label": "winner",
						"offset": 0,
						"slot": "2",
						"type": "t_address"
					}
				],
				"types": {
					"t_address": {
						"encoding": "inplace",
						"label": "address",
						"numberOfBytes": "20"
					},
					"t_array(t_address)dyn_storage": {
						"base": "t_address",
						"encoding": "dynamic_array",
						"label": "address[]",
						"numberOfBytes": "32"
					}
				}
			},
			"userdoc": {
				"kind": "user",
				"methods": {},
				"version": 1
			}
		}
	}
}