{
	"Projects/02_Event_Management.sol": {
		"EventManagement": {
			"abi": [
				{
					"inputs": [],
					"stateMutability": "nonpayable",
					"type": "constructor"
				},
				{
					"inputs": [
						{
							"internalType": "uint256",
							"name": "_event_index",
							"type": "uint256"
						},
						{
							"internalType": "uint256",
							"name": "_ticket_quantity",
							"type": "uint256"
						}
					],
					"name": "buy_ticket",
					"outputs": [],
					"stateMutability": "payable",
					"type": "function"
				},
				{
					"inputs": [
						{
							"internalType": "string",
							"name": "_event_name",
							"type": "string"
						},
						{
							"internalType": "uint256",
							"name": "_event_date",
							"type": "uint256"
						},
						{
							"internalType": "uint256",
							"name": "_ticket_price",
							"type": "uint256"
						},
						{
							"internalType": "uint256",
							"name": "_ticket_count",
							"type": "uint256"
						}
					],
					"name": "create_event",
					"outputs": [],
					"stateMutability": "payable",
					"type": "function"
				},
				{
					"inputs": [
						{
							"internalType": "uint256",
							"name": "",
							"type": "uint256"
						}
					],
					"name": "events",
					"outputs": [
						{
							"internalType": "address",
							"name": "organizer",
							"type": "address"
						},
						{
							"internalType": "string",
							"name": "event_name",
							"type": "string"
						},
						{
							"internalType": "uint256",
							"name": "event_date",
							"type": "uint256"
						},
						{
							"internalType": "uint256",
							"name": "ticket_price",
							"type": "uint256"
						},
						{
							"internalType": "uint256",
							"name": "ticket_count",
							"type": "uint256"
						}
					],
					"stateMutability": "view",
					"type": "function"
				}
			],
			"devdoc": {
				"kind": "dev",
				"methods": {},
				"version": 1
			},
			"evm": {
				"assembly": "    /* \"Projects/02_Event_Management.sol\":75:1777  contract EventManagement {\r... */\n  mstore(0x40, 0x80)\n    /* \"Projects/02_Event_Management.sol\":354:423  constructor() {\r... */\n  callvalue\n  dup1\n  iszero\n  tag_1\n  jumpi\n  0x00\n  dup1\n  revert\ntag_1:\n  pop\n    /* \"Projects/02_Event_Management.sol\":404:414  msg.sender */\n  caller\n    /* \"Projects/02_Event_Management.sol\":379:393  owner_contract */\n  0x00\n  dup1\n    /* \"Projects/02_Event_Management.sol\":379:415  owner_contract = payable(msg.sender) */\n  0x0100\n  exp\n  dup2\n  sload\n  dup2\n  0xffffffffffffffffffffffffffffffffffffffff\n  mul\n  not\n  and\n  swap1\n  dup4\n  0xffffffffffffffffffffffffffffffffffffffff\n  and\n  mul\n  or\n  swap1\n  sstore\n  pop\n    /* \"Projects/02_Event_Management.sol\":75:1777  contract EventManagement {\r... */\n  dataSize(sub_0)\n  dup1\n  dataOffset(sub_0)\n  0x00\n  codecopy\n  0x00\n  return\nstop\n\nsub_0: assembly {\n        /* \"Projects/02_Event_Management.sol\":75:1777  contract EventManagement {\r... */\n      mstore(0x40, 0x80)\n      jumpi(tag_1, lt(calldatasize, 0x04))\n      shr(0xe0, calldataload(0x00))\n      dup1\n      0x0b791430\n      eq\n      tag_2\n      jumpi\n      dup1\n      0xc71e7edc\n      eq\n      tag_3\n      jumpi\n      dup1\n      0xee3bf803\n      eq\n      tag_4\n      jumpi\n    tag_1:\n      0x00\n      dup1\n      revert\n        /* \"Projects/02_Event_Management.sol\":322:343  Event[] public events */\n    tag_2:\n      callvalue\n      dup1\n      iszero\n      tag_5\n      jumpi\n      0x00\n      dup1\n      revert\n    tag_5:\n      pop\n      tag_6\n      0x04\n      dup1\n      calldatasize\n      sub\n      dup2\n      add\n      swap1\n      tag_7\n      swap2\n      swap1\n      tag_8\n      jump\t// in\n    tag_7:\n      tag_9\n      jump\t// in\n    tag_6:\n      mload(0x40)\n      tag_10\n      swap6\n      swap5\n      swap4\n      swap3\n      swap2\n      swap1\n      tag_11\n      jump\t// in\n    tag_10:\n      mload(0x40)\n      dup1\n      swap2\n      sub\n      swap1\n      return\n        /* \"Projects/02_Event_Management.sol\":1466:1772  function buy_ticket(uint _event_index, uint _ticket_quantity) public payable {\r... */\n    tag_3:\n      tag_12\n      0x04\n      dup1\n      calldatasize\n      sub\n      dup2\n      add\n      swap1\n      tag_13\n      swap2\n      swap1\n      tag_14\n      jump\t// in\n    tag_13:\n      tag_15\n      jump\t// in\n    tag_12:\n      stop\n        /* \"Projects/02_Event_Management.sol\":458:1458  function create_event(string memory _event_name, uint _event_date, uint _ticket_price, uint _ticket_count) public payable {\r... */\n    tag_4:\n      tag_16\n      0x04\n      dup1\n      calldatasize\n      sub\n      dup2\n      add\n      swap1\n      tag_17\n      swap2\n      swap1\n      tag_18\n      jump\t// in\n    tag_17:\n      tag_19\n      jump\t// in\n    tag_16:\n      stop\n        /* \"Projects/02_Event_Management.sol\":322:343  Event[] public events */\n    tag_9:\n      0x01\n      dup2\n      dup2\n      sload\n      dup2\n      lt\n      tag_20\n      jumpi\n      0x00\n      dup1\n      revert\n    tag_20:\n      swap1\n      0x00\n      mstore\n      keccak256(0x00, 0x20)\n      swap1\n      0x05\n      mul\n      add\n      0x00\n      swap2\n      pop\n      swap1\n      pop\n      dup1\n      0x00\n      add\n      0x00\n      swap1\n      sload\n      swap1\n      0x0100\n      exp\n      swap1\n      div\n      0xffffffffffffffffffffffffffffffffffffffff\n      and\n      swap1\n      dup1\n      0x01\n      add\n      dup1\n      sload\n      tag_22\n      swap1\n      tag_23\n      jump\t// in\n    tag_22:\n      dup1\n      0x1f\n      add\n      0x20\n      dup1\n      swap2\n      div\n      mul\n      0x20\n      add\n      mload(0x40)\n      swap1\n      dup2\n      add\n      0x40\n      mstore\n      dup1\n      swap3\n      swap2\n      swap1\n      dup2\n      dup2\n      mstore\n      0x20\n      add\n      dup3\n      dup1\n      sload\n      tag_24\n      swap1\n      tag_23\n      jump\t// in\n    tag_24:\n      dup1\n      iszero\n      tag_25\n      jumpi\n      dup1\n      0x1f\n      lt\n      tag_26\n      jumpi\n      0x0100\n      dup1\n      dup4\n      sload\n      div\n      mul\n      dup4\n      mstore\n      swap2\n      0x20\n      add\n      swap2\n      jump(tag_25)\n    tag_26:\n      dup3\n      add\n      swap2\n      swap1\n      0x00\n      mstore\n      keccak256(0x00, 0x20)\n      swap1\n    tag_27:\n      dup2\n      sload\n      dup2\n      mstore\n      swap1\n      0x01\n      add\n      swap1\n      0x20\n      add\n      dup1\n      dup4\n      gt\n      tag_27\n      jumpi\n      dup3\n      swap1\n      sub\n      0x1f\n      and\n      dup3\n      add\n      swap2\n    tag_25:\n      pop\n      pop\n      pop\n      pop\n      pop\n      swap1\n      dup1\n      0x02\n      add\n      sload\n      swap1\n      dup1\n      0x03\n      add\n      sload\n      swap1\n      dup1\n      0x04\n      add\n      sload\n      swap1\n      pop\n      dup6\n      jump\t// out\n        /* \"Projects/02_Event_Management.sol\":1466:1772  function buy_ticket(uint _event_index, uint _ticket_quantity) public payable {\r... */\n    tag_15:\n        /* \"Projects/02_Event_Management.sol\":1577:1583  events */\n      0x01\n        /* \"Projects/02_Event_Management.sol\":1577:1590  events.length */\n      dup1\n      sload\n      swap1\n      pop\n        /* \"Projects/02_Event_Management.sol\":1562:1574  _event_index */\n      dup3\n        /* \"Projects/02_Event_Management.sol\":1562:1590  _event_index < events.length */\n      lt\n        /* \"Projects/02_Event_Management.sol\":1554:1619  require(_event_index < events.length, \"No events on this index.\") */\n      tag_29\n      jumpi\n      mload(0x40)\n      0x08c379a000000000000000000000000000000000000000000000000000000000\n      dup2\n      mstore\n      0x04\n      add\n      tag_30\n      swap1\n      tag_31\n      jump\t// in\n    tag_30:\n      mload(0x40)\n      dup1\n      swap2\n      sub\n      swap1\n      revert\n    tag_29:\n        /* \"Projects/02_Event_Management.sol\":1658:1659  0 */\n      0x00\n        /* \"Projects/02_Event_Management.sol\":1638:1654  _ticket_quantity */\n      dup2\n        /* \"Projects/02_Event_Management.sol\":1638:1659  _ticket_quantity != 0 */\n      eq\n      iszero\n        /* \"Projects/02_Event_Management.sol\":1630:1679  require(_ticket_quantity != 0, \"Please select t\") */\n      tag_32\n      jumpi\n      mload(0x40)\n      0x08c379a000000000000000000000000000000000000000000000000000000000\n      dup2\n      mstore\n      0x04\n      add\n      tag_33\n      swap1\n      tag_34\n      jump\t// in\n    tag_33:\n      mload(0x40)\n      dup1\n      swap2\n      sub\n      swap1\n      revert\n    tag_32:\n        /* \"Projects/02_Event_Management.sol\":1747:1763  _ticket_quantity */\n      dup1\n        /* \"Projects/02_Event_Management.sol\":1711:1717  events */\n      0x01\n        /* \"Projects/02_Event_Management.sol\":1718:1730  _event_index */\n      dup4\n        /* \"Projects/02_Event_Management.sol\":1711:1731  events[_event_index] */\n      dup2\n      sload\n      dup2\n      lt\n      tag_35\n      jumpi\n      tag_36\n      tag_37\n      jump\t// in\n    tag_36:\n    tag_35:\n      swap1\n      0x00\n      mstore\n      keccak256(0x00, 0x20)\n      swap1\n      0x05\n      mul\n      add\n        /* \"Projects/02_Event_Management.sol\":1711:1744  events[_event_index].ticket_price */\n      0x03\n      add\n      sload\n        /* \"Projects/02_Event_Management.sol\":1711:1763  events[_event_index].ticket_price * _ticket_quantity */\n      tag_39\n      swap2\n      swap1\n      tag_40\n      jump\t// in\n    tag_39:\n        /* \"Projects/02_Event_Management.sol\":1698:1707  msg.value */\n      callvalue\n        /* \"Projects/02_Event_Management.sol\":1698:1763  msg.value == events[_event_index].ticket_price * _ticket_quantity */\n      eq\n        /* \"Projects/02_Event_Management.sol\":1690:1764  require(msg.value == events[_event_index].ticket_price * _ticket_quantity) */\n      tag_41\n      jumpi\n      0x00\n      dup1\n      revert\n    tag_41:\n        /* \"Projects/02_Event_Management.sol\":1466:1772  function buy_ticket(uint _event_index, uint _ticket_quantity) public payable {\r... */\n      pop\n      pop\n      jump\t// out\n        /* \"Projects/02_Event_Management.sol\":458:1458  function create_event(string memory _event_name, uint _event_date, uint _ticket_price, uint _ticket_count) public payable {\r... */\n    tag_19:\n        /* \"Projects/02_Event_Management.sol\":654:668  owner_contract */\n      0x00\n      dup1\n      sload\n      swap1\n      0x0100\n      exp\n      swap1\n      div\n      0xffffffffffffffffffffffffffffffffffffffff\n      and\n        /* \"Projects/02_Event_Management.sol\":640:668  msg.sender != owner_contract */\n      0xffffffffffffffffffffffffffffffffffffffff\n      and\n        /* \"Projects/02_Event_Management.sol\":640:650  msg.sender */\n      caller\n        /* \"Projects/02_Event_Management.sol\":640:668  msg.sender != owner_contract */\n      0xffffffffffffffffffffffffffffffffffffffff\n      and\n      eq\n      iszero\n        /* \"Projects/02_Event_Management.sol\":640:696  msg.sender != owner_contract && msg.sender != address(0) */\n      dup1\n      iszero\n      tag_43\n      jumpi\n      pop\n        /* \"Projects/02_Event_Management.sol\":694:695  0 */\n      0x00\n        /* \"Projects/02_Event_Management.sol\":672:696  msg.sender != address(0) */\n      0xffffffffffffffffffffffffffffffffffffffff\n      and\n        /* \"Projects/02_Event_Management.sol\":672:682  msg.sender */\n      caller\n        /* \"Projects/02_Event_Management.sol\":672:696  msg.sender != address(0) */\n      0xffffffffffffffffffffffffffffffffffffffff\n      and\n      eq\n      iszero\n        /* \"Projects/02_Event_Management.sol\":640:696  msg.sender != owner_contract && msg.sender != address(0) */\n    tag_43:\n        /* \"Projects/02_Event_Management.sol\":632:751  require(msg.sender != owner_contract && msg.sender != address(0), \"Enter a valid address or owner can't host an event\") */\n      tag_44\n      jumpi\n      mload(0x40)\n      0x08c379a000000000000000000000000000000000000000000000000000000000\n      dup2\n      mstore\n      0x04\n      add\n      tag_45\n      swap1\n      tag_46\n      jump\t// in\n    tag_45:\n      mload(0x40)\n      dup1\n      swap2\n      sub\n      swap1\n      revert\n    tag_44:\n        /* \"Projects/02_Event_Management.sol\":785:786  0 */\n      0x00\n        /* \"Projects/02_Event_Management.sol\":770:781  _event_date */\n      dup4\n        /* \"Projects/02_Event_Management.sol\":770:786  _event_date != 0 */\n      eq\n      iszero\n        /* \"Projects/02_Event_Management.sol\":770:819  _event_date != 0 && _event_date > block.timestamp */\n      dup1\n      iszero\n      tag_47\n      jumpi\n      pop\n        /* \"Projects/02_Event_Management.sol\":804:819  block.timestamp */\n      timestamp\n        /* \"Projects/02_Event_Management.sol\":790:801  _event_date */\n      dup4\n        /* \"Projects/02_Event_Management.sol\":790:819  _event_date > block.timestamp */\n      gt\n        /* \"Projects/02_Event_Management.sol\":770:819  _event_date != 0 && _event_date > block.timestamp */\n    tag_47:\n        /* \"Projects/02_Event_Management.sol\":762:859  require(_event_date != 0 && _event_date > block.timestamp, \"Please enter a valid date in future\") */\n      tag_48\n      jumpi\n      mload(0x40)\n      0x08c379a000000000000000000000000000000000000000000000000000000000\n      dup2\n      mstore\n      0x04\n      add\n      tag_49\n      swap1\n      tag_50\n      jump\t// in\n    tag_49:\n      mload(0x40)\n      dup1\n      swap2\n      sub\n      swap1\n      revert\n    tag_48:\n        /* \"Projects/02_Event_Management.sol\":894:895  0 */\n      0x00\n        /* \"Projects/02_Event_Management.sol\":878:891  _ticket_count */\n      dup2\n        /* \"Projects/02_Event_Management.sol\":878:895  _ticket_count > 0 */\n      gt\n        /* \"Projects/02_Event_Management.sol\":870:926  require(_ticket_count > 0, \"Please create some tickets\") */\n      tag_51\n      jumpi\n      mload(0x40)\n      0x08c379a000000000000000000000000000000000000000000000000000000000\n      dup2\n      mstore\n      0x04\n      add\n      tag_52\n      swap1\n      tag_53\n      jump\t// in\n    tag_52:\n      mload(0x40)\n      dup1\n      swap2\n      sub\n      swap1\n      revert\n    tag_51:\n        /* \"Projects/02_Event_Management.sol\":1021:1022  0 */\n      0x00\n        /* \"Projects/02_Event_Management.sol\":1004:1017  _ticket_price */\n      dup3\n        /* \"Projects/02_Event_Management.sol\":1004:1022  _ticket_price != 0 */\n      eq\n        /* \"Projects/02_Event_Management.sol\":1000:1137  if (_ticket_price != 0) {\r... */\n      tag_54\n      jumpi\n        /* \"Projects/02_Event_Management.sol\":1060:1068  1000 wei */\n      0x03e8\n        /* \"Projects/02_Event_Management.sol\":1047:1056  msg.value */\n      callvalue\n        /* \"Projects/02_Event_Management.sol\":1047:1068  msg.value == 1000 wei */\n      eq\n        /* \"Projects/02_Event_Management.sol\":1039:1125  require(msg.value == 1000 wei, \"Please pay sufficient fund for organizing your event\") */\n      tag_55\n      jumpi\n      mload(0x40)\n      0x08c379a000000000000000000000000000000000000000000000000000000000\n      dup2\n      mstore\n      0x04\n      add\n      tag_56\n      swap1\n      tag_57\n      jump\t// in\n    tag_56:\n      mload(0x40)\n      dup1\n      swap2\n      sub\n      swap1\n      revert\n    tag_55:\n        /* \"Projects/02_Event_Management.sol\":1000:1137  if (_ticket_price != 0) {\r... */\n    tag_54:\n        /* \"Projects/02_Event_Management.sol\":1211:1233  Event memory new_event */\n      0x00\n        /* \"Projects/02_Event_Management.sol\":1236:1305  Event(msg.sender,_event_name,_event_date,_ticket_price,_ticket_count) */\n      mload(0x40)\n      dup1\n      0xa0\n      add\n      0x40\n      mstore\n      dup1\n        /* \"Projects/02_Event_Management.sol\":1242:1252  msg.sender */\n      caller\n        /* \"Projects/02_Event_Management.sol\":1236:1305  Event(msg.sender,_event_name,_event_date,_ticket_price,_ticket_count) */\n      0xffffffffffffffffffffffffffffffffffffffff\n      and\n      dup2\n      mstore\n      0x20\n      add\n        /* \"Projects/02_Event_Management.sol\":1253:1264  _event_name */\n      dup7\n        /* \"Projects/02_Event_Management.sol\":1236:1305  Event(msg.sender,_event_name,_event_date,_ticket_price,_ticket_count) */\n      dup2\n      mstore\n      0x20\n      add\n        /* \"Projects/02_Event_Management.sol\":1265:1276  _event_date */\n      dup6\n        /* \"Projects/02_Event_Management.sol\":1236:1305  Event(msg.sender,_event_name,_event_date,_ticket_price,_ticket_count) */\n      dup2\n      mstore\n      0x20\n      add\n        /* \"Projects/02_Event_Management.sol\":1277:1290  _ticket_price */\n      dup5\n        /* \"Projects/02_Event_Management.sol\":1236:1305  Event(msg.sender,_event_name,_event_date,_ticket_price,_ticket_count) */\n      dup2\n      mstore\n      0x20\n      add\n        /* \"Projects/02_Event_Management.sol\":1291:1304  _ticket_count */\n      dup4\n        /* \"Projects/02_Event_Management.sol\":1236:1305  Event(msg.sender,_event_name,_event_date,_ticket_price,_ticket_count) */\n      dup2\n      mstore\n      pop\n        /* \"Projects/02_Event_Management.sol\":1211:1305  Event memory new_event = Event(msg.sender,_event_name,_event_date,_ticket_price,_ticket_count) */\n      swap1\n      pop\n        /* \"Projects/02_Event_Management.sol\":1316:1322  events */\n      0x01\n        /* \"Projects/02_Event_Management.sol\":1328:1337  new_event */\n      dup2\n        /* \"Projects/02_Event_Management.sol\":1316:1338  events.push(new_event) */\n      swap1\n      dup1\n      0x01\n      dup2\n      sload\n      add\n      dup1\n      dup3\n      sstore\n      dup1\n      swap2\n      pop\n      pop\n      0x01\n      swap1\n      sub\n      swap1\n      0x00\n      mstore\n      keccak256(0x00, 0x20)\n      swap1\n      0x05\n      mul\n      add\n      0x00\n      swap1\n      swap2\n      swap1\n      swap2\n      swap1\n      swap2\n      pop\n      0x00\n      dup3\n      add\n      mload\n      dup2\n      0x00\n      add\n      exp(0x0100, 0x00)\n      dup2\n      sload\n      dup2\n      0xffffffffffffffffffffffffffffffffffffffff\n      mul\n      not\n      and\n      swap1\n      dup4\n      0xffffffffffffffffffffffffffffffffffffffff\n      and\n      mul\n      or\n      swap1\n      sstore\n      pop\n      0x20\n      dup3\n      add\n      mload\n      dup2\n      0x01\n      add\n      swap1\n      dup1\n      mload\n      swap1\n      0x20\n      add\n      swap1\n      tag_59\n      swap3\n      swap2\n      swap1\n      tag_60\n      jump\t// in\n    tag_59:\n      pop\n      0x40\n      dup3\n      add\n      mload\n      dup2\n      0x02\n      add\n      sstore\n      0x60\n      dup3\n      add\n      mload\n      dup2\n      0x03\n      add\n      sstore\n      0x80\n      dup3\n      add\n      mload\n      dup2\n      0x04\n      add\n      sstore\n      pop\n      pop\n        /* \"Projects/02_Event_Management.sol\":1416:1430  owner_contract */\n      0x00\n      dup1\n      sload\n      swap1\n      0x0100\n      exp\n      swap1\n      div\n      0xffffffffffffffffffffffffffffffffffffffff\n      and\n        /* \"Projects/02_Event_Management.sol\":1416:1439  owner_contract.transfer */\n      0xffffffffffffffffffffffffffffffffffffffff\n      and\n        /* \"Projects/02_Event_Management.sol\":1416:1450  owner_contract.transfer(msg.value) */\n      0x08fc\n        /* \"Projects/02_Event_Management.sol\":1440:1449  msg.value */\n      callvalue\n        /* \"Projects/02_Event_Management.sol\":1416:1450  owner_contract.transfer(msg.value) */\n      swap1\n      dup2\n      iszero\n      mul\n      swap1\n      mload(0x40)\n      0x00\n      mload(0x40)\n      dup1\n      dup4\n      sub\n      dup2\n      dup6\n      dup9\n      dup9\n      call\n      swap4\n      pop\n      pop\n      pop\n      pop\n      iszero\n      dup1\n      iszero\n      tag_62\n      jumpi\n      returndatasize\n      0x00\n      dup1\n      returndatacopy\n      revert(0x00, returndatasize)\n    tag_62:\n      pop\n        /* \"Projects/02_Event_Management.sol\":580:1458  {\r... */\n      pop\n        /* \"Projects/02_Event_Management.sol\":458:1458  function create_event(string memory _event_name, uint _event_date, uint _ticket_price, uint _ticket_count) public payable {\r... */\n      pop\n      pop\n      pop\n      pop\n      jump\t// out\n    tag_60:\n      dup3\n      dup1\n      sload\n      tag_63\n      swap1\n      tag_23\n      jump\t// in\n    tag_63:\n      swap1\n      0x00\n      mstore\n      keccak256(0x00, 0x20)\n      swap1\n      0x1f\n      add\n      0x20\n      swap1\n      div\n      dup2\n      add\n      swap3\n      dup3\n      tag_65\n      jumpi\n      0x00\n      dup6\n      sstore\n      jump(tag_64)\n    tag_65:\n      dup3\n      0x1f\n      lt\n      tag_66\n      jumpi\n      dup1\n      mload\n      not(0xff)\n      and\n      dup4\n      dup1\n      add\n      or\n      dup6\n      sstore\n      jump(tag_64)\n    tag_66:\n      dup3\n      dup1\n      add\n      0x01\n      add\n      dup6\n      sstore\n      dup3\n      iszero\n      tag_64\n      jumpi\n      swap2\n      dup3\n      add\n    tag_67:\n      dup3\n      dup2\n      gt\n      iszero\n      tag_68\n      jumpi\n      dup3\n      mload\n      dup3\n      sstore\n      swap2\n      0x20\n      add\n      swap2\n      swap1\n      0x01\n      add\n      swap1\n      jump(tag_67)\n    tag_68:\n    tag_64:\n      pop\n      swap1\n      pop\n      tag_69\n      swap2\n      swap1\n      tag_70\n      jump\t// in\n    tag_69:\n      pop\n      swap1\n      jump\t// out\n    tag_70:\n    tag_71:\n      dup1\n      dup3\n      gt\n      iszero\n      tag_72\n      jumpi\n      0x00\n      dup2\n      0x00\n      swap1\n      sstore\n      pop\n      0x01\n      add\n      jump(tag_71)\n    tag_72:\n      pop\n      swap1\n      jump\t// out\n        /* \"#utility.yul\":7:419   */\n    tag_74:\n        /* \"#utility.yul\":85:90   */\n      0x00\n        /* \"#utility.yul\":110:176   */\n      tag_76\n        /* \"#utility.yul\":126:175   */\n      tag_77\n        /* \"#utility.yul\":168:174   */\n      dup5\n        /* \"#utility.yul\":126:175   */\n      tag_78\n      jump\t// in\n    tag_77:\n        /* \"#utility.yul\":110:176   */\n      tag_79\n      jump\t// in\n    tag_76:\n        /* \"#utility.yul\":101:176   */\n      swap1\n      pop\n        /* \"#utility.yul\":199:205   */\n      dup3\n        /* \"#utility.yul\":192:197   */\n      dup2\n        /* \"#utility.yul\":185:206   */\n      mstore\n        /* \"#utility.yul\":237:241   */\n      0x20\n        /* \"#utility.yul\":230:235   */\n      dup2\n        /* \"#utility.yul\":226:242   */\n      add\n        /* \"#utility.yul\":275:278   */\n      dup5\n        /* \"#utility.yul\":266:272   */\n      dup5\n        /* \"#utility.yul\":261:264   */\n      dup5\n        /* \"#utility.yul\":257:273   */\n      add\n        /* \"#utility.yul\":254:279   */\n      gt\n        /* \"#utility.yul\":251:363   */\n      iszero\n      tag_80\n      jumpi\n        /* \"#utility.yul\":282:361   */\n      tag_81\n      tag_82\n      jump\t// in\n    tag_81:\n        /* \"#utility.yul\":251:363   */\n    tag_80:\n        /* \"#utility.yul\":372:413   */\n      tag_83\n        /* \"#utility.yul\":406:412   */\n      dup5\n        /* \"#utility.yul\":401:404   */\n      dup3\n        /* \"#utility.yul\":396:399   */\n      dup6\n        /* \"#utility.yul\":372:413   */\n      tag_84\n      jump\t// in\n    tag_83:\n        /* \"#utility.yul\":91:419   */\n      pop\n        /* \"#utility.yul\":7:419   */\n      swap4\n      swap3\n      pop\n      pop\n      pop\n      jump\t// out\n        /* \"#utility.yul\":439:779   */\n    tag_85:\n        /* \"#utility.yul\":495:500   */\n      0x00\n        /* \"#utility.yul\":544:547   */\n      dup3\n        /* \"#utility.yul\":537:541   */\n      0x1f\n        /* \"#utility.yul\":529:535   */\n      dup4\n        /* \"#utility.yul\":525:542   */\n      add\n        /* \"#utility.yul\":521:548   */\n      slt\n        /* \"#utility.yul\":511:633   */\n      tag_87\n      jumpi\n        /* \"#utility.yul\":552:631   */\n      tag_88\n      tag_89\n      jump\t// in\n    tag_88:\n        /* \"#utility.yul\":511:633   */\n    tag_87:\n        /* \"#utility.yul\":669:675   */\n      dup2\n        /* \"#utility.yul\":656:676   */\n      calldataload\n        /* \"#utility.yul\":694:773   */\n      tag_90\n        /* \"#utility.yul\":769:772   */\n      dup5\n        /* \"#utility.yul\":761:767   */\n      dup3\n        /* \"#utility.yul\":754:758   */\n      0x20\n        /* \"#utility.yul\":746:752   */\n      dup7\n        /* \"#utility.yul\":742:759   */\n      add\n        /* \"#utility.yul\":694:773   */\n      tag_74\n      jump\t// in\n    tag_90:\n        /* \"#utility.yul\":685:773   */\n      swap2\n      pop\n        /* \"#utility.yul\":501:779   */\n      pop\n        /* \"#utility.yul\":439:779   */\n      swap3\n      swap2\n      pop\n      pop\n      jump\t// out\n        /* \"#utility.yul\":785:924   */\n    tag_91:\n        /* \"#utility.yul\":831:836   */\n      0x00\n        /* \"#utility.yul\":869:875   */\n      dup2\n        /* \"#utility.yul\":856:876   */\n      calldataload\n        /* \"#utility.yul\":847:876   */\n      swap1\n      pop\n        /* \"#utility.yul\":885:918   */\n      tag_93\n        /* \"#utility.yul\":912:917   */\n      dup2\n        /* \"#utility.yul\":885:918   */\n      tag_94\n      jump\t// in\n    tag_93:\n        /* \"#utility.yul\":785:924   */\n      swap3\n      swap2\n      pop\n      pop\n      jump\t// out\n        /* \"#utility.yul\":930:1875   */\n    tag_18:\n        /* \"#utility.yul\":1026:1032   */\n      0x00\n        /* \"#utility.yul\":1034:1040   */\n      dup1\n        /* \"#utility.yul\":1042:1048   */\n      0x00\n        /* \"#utility.yul\":1050:1056   */\n      dup1\n        /* \"#utility.yul\":1099:1102   */\n      0x80\n        /* \"#utility.yul\":1087:1096   */\n      dup6\n        /* \"#utility.yul\":1078:1085   */\n      dup8\n        /* \"#utility.yul\":1074:1097   */\n      sub\n        /* \"#utility.yul\":1070:1103   */\n      slt\n        /* \"#utility.yul\":1067:1187   */\n      iszero\n      tag_96\n      jumpi\n        /* \"#utility.yul\":1106:1185   */\n      tag_97\n      tag_98\n      jump\t// in\n    tag_97:\n        /* \"#utility.yul\":1067:1187   */\n    tag_96:\n        /* \"#utility.yul\":1254:1255   */\n      0x00\n        /* \"#utility.yul\":1243:1252   */\n      dup6\n        /* \"#utility.yul\":1239:1256   */\n      add\n        /* \"#utility.yul\":1226:1257   */\n      calldataload\n        /* \"#utility.yul\":1284:1302   */\n      0xffffffffffffffff\n        /* \"#utility.yul\":1276:1282   */\n      dup2\n        /* \"#utility.yul\":1273:1303   */\n      gt\n        /* \"#utility.yul\":1270:1387   */\n      iszero\n      tag_99\n      jumpi\n        /* \"#utility.yul\":1306:1385   */\n      tag_100\n      tag_101\n      jump\t// in\n    tag_100:\n        /* \"#utility.yul\":1270:1387   */\n    tag_99:\n        /* \"#utility.yul\":1411:1474   */\n      tag_102\n        /* \"#utility.yul\":1466:1473   */\n      dup8\n        /* \"#utility.yul\":1457:1463   */\n      dup3\n        /* \"#utility.yul\":1446:1455   */\n      dup9\n        /* \"#utility.yul\":1442:1464   */\n      add\n        /* \"#utility.yul\":1411:1474   */\n      tag_85\n      jump\t// in\n    tag_102:\n        /* \"#utility.yul\":1401:1474   */\n      swap5\n      pop\n        /* \"#utility.yul\":1197:1484   */\n      pop\n        /* \"#utility.yul\":1523:1525   */\n      0x20\n        /* \"#utility.yul\":1549:1602   */\n      tag_103\n        /* \"#utility.yul\":1594:1601   */\n      dup8\n        /* \"#utility.yul\":1585:1591   */\n      dup3\n        /* \"#utility.yul\":1574:1583   */\n      dup9\n        /* \"#utility.yul\":1570:1592   */\n      add\n        /* \"#utility.yul\":1549:1602   */\n      tag_91\n      jump\t// in\n    tag_103:\n        /* \"#utility.yul\":1539:1602   */\n      swap4\n      pop\n        /* \"#utility.yul\":1494:1612   */\n      pop\n        /* \"#utility.yul\":1651:1653   */\n      0x40\n        /* \"#utility.yul\":1677:1730   */\n      tag_104\n        /* \"#utility.yul\":1722:1729   */\n      dup8\n        /* \"#utility.yul\":1713:1719   */\n      dup3\n        /* \"#utility.yul\":1702:1711   */\n      dup9\n        /* \"#utility.yul\":1698:1720   */\n      add\n        /* \"#utility.yul\":1677:1730   */\n      tag_91\n      jump\t// in\n    tag_104:\n        /* \"#utility.yul\":1667:1730   */\n      swap3\n      pop\n        /* \"#utility.yul\":1622:1740   */\n      pop\n        /* \"#utility.yul\":1779:1781   */\n      0x60\n        /* \"#utility.yul\":1805:1858   */\n      tag_105\n        /* \"#utility.yul\":1850:1857   */\n      dup8\n        /* \"#utility.yul\":1841:1847   */\n      dup3\n        /* \"#utility.yul\":1830:1839   */\n      dup9\n        /* \"#utility.yul\":1826:1848   */\n      add\n        /* \"#utility.yul\":1805:1858   */\n      tag_91\n      jump\t// in\n    tag_105:\n        /* \"#utility.yul\":1795:1858   */\n      swap2\n      pop\n        /* \"#utility.yul\":1750:1868   */\n      pop\n        /* \"#utility.yul\":930:1875   */\n      swap3\n      swap6\n      swap2\n      swap5\n      pop\n      swap3\n      pop\n      jump\t// out\n        /* \"#utility.yul\":1881:2210   */\n    tag_8:\n        /* \"#utility.yul\":1940:1946   */\n      0x00\n        /* \"#utility.yul\":1989:1991   */\n      0x20\n        /* \"#utility.yul\":1977:1986   */\n      dup3\n        /* \"#utility.yul\":1968:1975   */\n      dup5\n        /* \"#utility.yul\":1964:1987   */\n      sub\n        /* \"#utility.yul\":1960:1992   */\n      slt\n        /* \"#utility.yul\":1957:2076   */\n      iszero\n      tag_107\n      jumpi\n        /* \"#utility.yul\":1995:2074   */\n      tag_108\n      tag_98\n      jump\t// in\n    tag_108:\n        /* \"#utility.yul\":1957:2076   */\n    tag_107:\n        /* \"#utility.yul\":2115:2116   */\n      0x00\n        /* \"#utility.yul\":2140:2193   */\n      tag_109\n        /* \"#utility.yul\":2185:2192   */\n      dup5\n        /* \"#utility.yul\":2176:2182   */\n      dup3\n        /* \"#utility.yul\":2165:2174   */\n      dup6\n        /* \"#utility.yul\":2161:2183   */\n      add\n        /* \"#utility.yul\":2140:2193   */\n      tag_91\n      jump\t// in\n    tag_109:\n        /* \"#utility.yul\":2130:2193   */\n      swap2\n      pop\n        /* \"#utility.yul\":2086:2203   */\n      pop\n        /* \"#utility.yul\":1881:2210   */\n      swap3\n      swap2\n      pop\n      pop\n      jump\t// out\n        /* \"#utility.yul\":2216:2690   */\n    tag_14:\n        /* \"#utility.yul\":2284:2290   */\n      0x00\n        /* \"#utility.yul\":2292:2298   */\n      dup1\n        /* \"#utility.yul\":2341:2343   */\n      0x40\n        /* \"#utility.yul\":2329:2338   */\n      dup4\n        /* \"#utility.yul\":2320:2327   */\n      dup6\n        /* \"#utility.yul\":2316:2339   */\n      sub\n        /* \"#utility.yul\":2312:2344   */\n      slt\n        /* \"#utility.yul\":2309:2428   */\n      iszero\n      tag_111\n      jumpi\n        /* \"#utility.yul\":2347:2426   */\n      tag_112\n      tag_98\n      jump\t// in\n    tag_112:\n        /* \"#utility.yul\":2309:2428   */\n    tag_111:\n        /* \"#utility.yul\":2467:2468   */\n      0x00\n        /* \"#utility.yul\":2492:2545   */\n      tag_113\n        /* \"#utility.yul\":2537:2544   */\n      dup6\n        /* \"#utility.yul\":2528:2534   */\n      dup3\n        /* \"#utility.yul\":2517:2526   */\n      dup7\n        /* \"#utility.yul\":2513:2535   */\n      add\n        /* \"#utility.yul\":2492:2545   */\n      tag_91\n      jump\t// in\n    tag_113:\n        /* \"#utility.yul\":2482:2545   */\n      swap3\n      pop\n        /* \"#utility.yul\":2438:2555   */\n      pop\n        /* \"#utility.yul\":2594:2596   */\n      0x20\n        /* \"#utility.yul\":2620:2673   */\n      tag_114\n        /* \"#utility.yul\":2665:2672   */\n      dup6\n        /* \"#utility.yul\":2656:2662   */\n      dup3\n        /* \"#utility.yul\":2645:2654   */\n      dup7\n        /* \"#utility.yul\":2641:2663   */\n      add\n        /* \"#utility.yul\":2620:2673   */\n      tag_91\n      jump\t// in\n    tag_114:\n        /* \"#utility.yul\":2610:2673   */\n      swap2\n      pop\n        /* \"#utility.yul\":2565:2683   */\n      pop\n        /* \"#utility.yul\":2216:2690   */\n      swap3\n      pop\n      swap3\n      swap1\n      pop\n      jump\t// out\n        /* \"#utility.yul\":2696:2814   */\n    tag_115:\n        /* \"#utility.yul\":2783:2807   */\n      tag_117\n        /* \"#utility.yul\":2801:2806   */\n      dup2\n        /* \"#utility.yul\":2783:2807   */\n      tag_118\n      jump\t// in\n    tag_117:\n        /* \"#utility.yul\":2778:2781   */\n      dup3\n        /* \"#utility.yul\":2771:2808   */\n      mstore\n        /* \"#utility.yul\":2696:2814   */\n      pop\n      pop\n      jump\t// out\n        /* \"#utility.yul\":2820:3184   */\n    tag_119:\n        /* \"#utility.yul\":2908:2911   */\n      0x00\n        /* \"#utility.yul\":2936:2975   */\n      tag_121\n        /* \"#utility.yul\":2969:2974   */\n      dup3\n        /* \"#utility.yul\":2936:2975   */\n      tag_122\n      jump\t// in\n    tag_121:\n        /* \"#utility.yul\":2991:3062   */\n      tag_123\n        /* \"#utility.yul\":3055:3061   */\n      dup2\n        /* \"#utility.yul\":3050:3053   */\n      dup6\n        /* \"#utility.yul\":2991:3062   */\n      tag_124\n      jump\t// in\n    tag_123:\n        /* \"#utility.yul\":2984:3062   */\n      swap4\n      pop\n        /* \"#utility.yul\":3071:3123   */\n      tag_125\n        /* \"#utility.yul\":3116:3122   */\n      dup2\n        /* \"#utility.yul\":3111:3114   */\n      dup6\n        /* \"#utility.yul\":3104:3108   */\n      0x20\n        /* \"#utility.yul\":3097:3102   */\n      dup7\n        /* \"#utility.yul\":3093:3109   */\n      add\n        /* \"#utility.yul\":3071:3123   */\n      tag_126\n      jump\t// in\n    tag_125:\n        /* \"#utility.yul\":3148:3177   */\n      tag_127\n        /* \"#utility.yul\":3170:3176   */\n      dup2\n        /* \"#utility.yul\":3148:3177   */\n      tag_128\n      jump\t// in\n    tag_127:\n        /* \"#utility.yul\":3143:3146   */\n      dup5\n        /* \"#utility.yul\":3139:3178   */\n      add\n        /* \"#utility.yul\":3132:3178   */\n      swap2\n      pop\n        /* \"#utility.yul\":2912:3184   */\n      pop\n        /* \"#utility.yul\":2820:3184   */\n      swap3\n      swap2\n      pop\n      pop\n      jump\t// out\n        /* \"#utility.yul\":3190:3556   */\n    tag_129:\n        /* \"#utility.yul\":3332:3335   */\n      0x00\n        /* \"#utility.yul\":3353:3420   */\n      tag_131\n        /* \"#utility.yul\":3417:3419   */\n      0x34\n        /* \"#utility.yul\":3412:3415   */\n      dup4\n        /* \"#utility.yul\":3353:3420   */\n      tag_124\n      jump\t// in\n    tag_131:\n        /* \"#utility.yul\":3346:3420   */\n      swap2\n      pop\n        /* \"#utility.yul\":3429:3522   */\n      tag_132\n        /* \"#utility.yul\":3518:3521   */\n      dup3\n        /* \"#utility.yul\":3429:3522   */\n      tag_133\n      jump\t// in\n    tag_132:\n        /* \"#utility.yul\":3547:3549   */\n      0x40\n        /* \"#utility.yul\":3542:3545   */\n      dup3\n        /* \"#utility.yul\":3538:3550   */\n      add\n        /* \"#utility.yul\":3531:3550   */\n      swap1\n      pop\n        /* \"#utility.yul\":3190:3556   */\n      swap2\n      swap1\n      pop\n      jump\t// out\n        /* \"#utility.yul\":3562:3928   */\n    tag_134:\n        /* \"#utility.yul\":3704:3707   */\n      0x00\n        /* \"#utility.yul\":3725:3792   */\n      tag_136\n        /* \"#utility.yul\":3789:3791   */\n      0x1a\n        /* \"#utility.yul\":3784:3787   */\n      dup4\n        /* \"#utility.yul\":3725:3792   */\n      tag_124\n      jump\t// in\n    tag_136:\n        /* \"#utility.yul\":3718:3792   */\n      swap2\n      pop\n        /* \"#utility.yul\":3801:3894   */\n      tag_137\n        /* \"#utility.yul\":3890:3893   */\n      dup3\n        /* \"#utility.yul\":3801:3894   */\n      tag_138\n      jump\t// in\n    tag_137:\n        /* \"#utility.yul\":3919:3921   */\n      0x20\n        /* \"#utility.yul\":3914:3917   */\n      dup3\n        /* \"#utility.yul\":3910:3922   */\n      add\n        /* \"#utility.yul\":3903:3922   */\n      swap1\n      pop\n        /* \"#utility.yul\":3562:3928   */\n      swap2\n      swap1\n      pop\n      jump\t// out\n        /* \"#utility.yul\":3934:4300   */\n    tag_139:\n        /* \"#utility.yul\":4076:4079   */\n      0x00\n        /* \"#utility.yul\":4097:4164   */\n      tag_141\n        /* \"#utility.yul\":4161:4163   */\n      0x23\n        /* \"#utility.yul\":4156:4159   */\n      dup4\n        /* \"#utility.yul\":4097:4164   */\n      tag_124\n      jump\t// in\n    tag_141:\n        /* \"#utility.yul\":4090:4164   */\n      swap2\n      pop\n        /* \"#utility.yul\":4173:4266   */\n      tag_142\n        /* \"#utility.yul\":4262:4265   */\n      dup3\n        /* \"#utility.yul\":4173:4266   */\n      tag_143\n      jump\t// in\n    tag_142:\n        /* \"#utility.yul\":4291:4293   */\n      0x40\n        /* \"#utility.yul\":4286:4289   */\n      dup3\n        /* \"#utility.yul\":4282:4294   */\n      add\n        /* \"#utility.yul\":4275:4294   */\n      swap1\n      pop\n        /* \"#utility.yul\":3934:4300   */\n      swap2\n      swap1\n      pop\n      jump\t// out\n        /* \"#utility.yul\":4306:4672   */\n    tag_144:\n        /* \"#utility.yul\":4448:4451   */\n      0x00\n        /* \"#utility.yul\":4469:4536   */\n      tag_146\n        /* \"#utility.yul\":4533:4535   */\n      0x18\n        /* \"#utility.yul\":4528:4531   */\n      dup4\n        /* \"#utility.yul\":4469:4536   */\n      tag_124\n      jump\t// in\n    tag_146:\n        /* \"#utility.yul\":4462:4536   */\n      swap2\n      pop\n        /* \"#utility.yul\":4545:4638   */\n      tag_147\n        /* \"#utility.yul\":4634:4637   */\n      dup3\n        /* \"#utility.yul\":4545:4638   */\n      tag_148\n      jump\t// in\n    tag_147:\n        /* \"#utility.yul\":4663:4665   */\n      0x20\n        /* \"#utility.yul\":4658:4661   */\n      dup3\n        /* \"#utility.yul\":4654:4666   */\n      add\n        /* \"#utility.yul\":4647:4666   */\n      swap1\n      pop\n        /* \"#utility.yul\":4306:4672   */\n      swap2\n      swap1\n      pop\n      jump\t// out\n        /* \"#utility.yul\":4678:5044   */\n    tag_149:\n        /* \"#utility.yul\":4820:4823   */\n      0x00\n        /* \"#utility.yul\":4841:4908   */\n      tag_151\n        /* \"#utility.yul\":4905:4907   */\n      0x32\n        /* \"#utility.yul\":4900:4903   */\n      dup4\n        /* \"#utility.yul\":4841:4908   */\n      tag_124\n      jump\t// in\n    tag_151:\n        /* \"#utility.yul\":4834:4908   */\n      swap2\n      pop\n        /* \"#utility.yul\":4917:5010   */\n      tag_152\n        /* \"#utility.yul\":5006:5009   */\n      dup3\n        /* \"#utility.yul\":4917:5010   */\n      tag_153\n      jump\t// in\n    tag_152:\n        /* \"#utility.yul\":5035:5037   */\n      0x40\n        /* \"#utility.yul\":5030:5033   */\n      dup3\n        /* \"#utility.yul\":5026:5038   */\n      add\n        /* \"#utility.yul\":5019:5038   */\n      swap1\n      pop\n        /* \"#utility.yul\":4678:5044   */\n      swap2\n      swap1\n      pop\n      jump\t// out\n        /* \"#utility.yul\":5050:5416   */\n    tag_154:\n        /* \"#utility.yul\":5192:5195   */\n      0x00\n        /* \"#utility.yul\":5213:5280   */\n      tag_156\n        /* \"#utility.yul\":5277:5279   */\n      0x0f\n        /* \"#utility.yul\":5272:5275   */\n      dup4\n        /* \"#utility.yul\":5213:5280   */\n      tag_124\n      jump\t// in\n    tag_156:\n        /* \"#utility.yul\":5206:5280   */\n      swap2\n      pop\n        /* \"#utility.yul\":5289:5382   */\n      tag_157\n        /* \"#utility.yul\":5378:5381   */\n      dup3\n        /* \"#utility.yul\":5289:5382   */\n      tag_158\n      jump\t// in\n    tag_157:\n        /* \"#utility.yul\":5407:5409   */\n      0x20\n        /* \"#utility.yul\":5402:5405   */\n      dup3\n        /* \"#utility.yul\":5398:5410   */\n      add\n        /* \"#utility.yul\":5391:5410   */\n      swap1\n      pop\n        /* \"#utility.yul\":5050:5416   */\n      swap2\n      swap1\n      pop\n      jump\t// out\n        /* \"#utility.yul\":5422:5540   */\n    tag_159:\n        /* \"#utility.yul\":5509:5533   */\n      tag_161\n        /* \"#utility.yul\":5527:5532   */\n      dup2\n        /* \"#utility.yul\":5509:5533   */\n      tag_162\n      jump\t// in\n    tag_161:\n        /* \"#utility.yul\":5504:5507   */\n      dup3\n        /* \"#utility.yul\":5497:5534   */\n      mstore\n        /* \"#utility.yul\":5422:5540   */\n      pop\n      pop\n      jump\t// out\n        /* \"#utility.yul\":5546:6301   */\n    tag_11:\n        /* \"#utility.yul\":5771:5775   */\n      0x00\n        /* \"#utility.yul\":5809:5812   */\n      0xa0\n        /* \"#utility.yul\":5798:5807   */\n      dup3\n        /* \"#utility.yul\":5794:5813   */\n      add\n        /* \"#utility.yul\":5786:5813   */\n      swap1\n      pop\n        /* \"#utility.yul\":5823:5894   */\n      tag_164\n        /* \"#utility.yul\":5891:5892   */\n      0x00\n        /* \"#utility.yul\":5880:5889   */\n      dup4\n        /* \"#utility.yul\":5876:5893   */\n      add\n        /* \"#utility.yul\":5867:5873   */\n      dup9\n        /* \"#utility.yul\":5823:5894   */\n      tag_115\n      jump\t// in\n    tag_164:\n        /* \"#utility.yul\":5941:5950   */\n      dup2\n        /* \"#utility.yul\":5935:5939   */\n      dup2\n        /* \"#utility.yul\":5931:5951   */\n      sub\n        /* \"#utility.yul\":5926:5928   */\n      0x20\n        /* \"#utility.yul\":5915:5924   */\n      dup4\n        /* \"#utility.yul\":5911:5929   */\n      add\n        /* \"#utility.yul\":5904:5952   */\n      mstore\n        /* \"#utility.yul\":5969:6047   */\n      tag_165\n        /* \"#utility.yul\":6042:6046   */\n      dup2\n        /* \"#utility.yul\":6033:6039   */\n      dup8\n        /* \"#utility.yul\":5969:6047   */\n      tag_119\n      jump\t// in\n    tag_165:\n        /* \"#utility.yul\":5961:6047   */\n      swap1\n      pop\n        /* \"#utility.yul\":6057:6129   */\n      tag_166\n        /* \"#utility.yul\":6125:6127   */\n      0x40\n        /* \"#utility.yul\":6114:6123   */\n      dup4\n        /* \"#utility.yul\":6110:6128   */\n      add\n        /* \"#utility.yul\":6101:6107   */\n      dup7\n        /* \"#utility.yul\":6057:6129   */\n      tag_159\n      jump\t// in\n    tag_166:\n        /* \"#utility.yul\":6139:6211   */\n      tag_167\n        /* \"#utility.yul\":6207:6209   */\n      0x60\n        /* \"#utility.yul\":6196:6205   */\n      dup4\n        /* \"#utility.yul\":6192:6210   */\n      add\n        /* \"#utility.yul\":6183:6189   */\n      dup6\n        /* \"#utility.yul\":6139:6211   */\n      tag_159\n      jump\t// in\n    tag_167:\n        /* \"#utility.yul\":6221:6294   */\n      tag_168\n        /* \"#utility.yul\":6289:6292   */\n      0x80\n        /* \"#utility.yul\":6278:6287   */\n      dup4\n        /* \"#utility.yul\":6274:6293   */\n      add\n        /* \"#utility.yul\":6265:6271   */\n      dup5\n        /* \"#utility.yul\":6221:6294   */\n      tag_159\n      jump\t// in\n    tag_168:\n        /* \"#utility.yul\":5546:6301   */\n      swap7\n      swap6\n      pop\n      pop\n      pop\n      pop\n      pop\n      pop\n      jump\t// out\n        /* \"#utility.yul\":6307:6726   */\n    tag_57:\n        /* \"#utility.yul\":6473:6477   */\n      0x00\n        /* \"#utility.yul\":6511:6513   */\n      0x20\n        /* \"#utility.yul\":6500:6509   */\n      dup3\n        /* \"#utility.yul\":6496:6514   */\n      add\n        /* \"#utility.yul\":6488:6514   */\n      swap1\n      pop\n        /* \"#utility.yul\":6560:6569   */\n      dup2\n        /* \"#utility.yul\":6554:6558   */\n      dup2\n        /* \"#utility.yul\":6550:6570   */\n      sub\n        /* \"#utility.yul\":6546:6547   */\n      0x00\n        /* \"#utility.yul\":6535:6544   */\n      dup4\n        /* \"#utility.yul\":6531:6548   */\n      add\n        /* \"#utility.yul\":6524:6571   */\n      mstore\n        /* \"#utility.yul\":6588:6719   */\n      tag_170\n        /* \"#utility.yul\":6714:6718   */\n      dup2\n        /* \"#utility.yul\":6588:6719   */\n      tag_129\n      jump\t// in\n    tag_170:\n        /* \"#utility.yul\":6580:6719   */\n      swap1\n      pop\n        /* \"#utility.yul\":6307:6726   */\n      swap2\n      swap1\n      pop\n      jump\t// out\n        /* \"#utility.yul\":6732:7151   */\n    tag_53:\n        /* \"#utility.yul\":6898:6902   */\n      0x00\n        /* \"#utility.yul\":6936:6938   */\n      0x20\n        /* \"#utility.yul\":6925:6934   */\n      dup3\n        /* \"#utility.yul\":6921:6939   */\n      add\n        /* \"#utility.yul\":6913:6939   */\n      swap1\n      pop\n        /* \"#utility.yul\":6985:6994   */\n      dup2\n        /* \"#utility.yul\":6979:6983   */\n      dup2\n        /* \"#utility.yul\":6975:6995   */\n      sub\n        /* \"#utility.yul\":6971:6972   */\n      0x00\n        /* \"#utility.yul\":6960:6969   */\n      dup4\n        /* \"#utility.yul\":6956:6973   */\n      add\n        /* \"#utility.yul\":6949:6996   */\n      mstore\n        /* \"#utility.yul\":7013:7144   */\n      tag_172\n        /* \"#utility.yul\":7139:7143   */\n      dup2\n        /* \"#utility.yul\":7013:7144   */\n      tag_134\n      jump\t// in\n    tag_172:\n        /* \"#utility.yul\":7005:7144   */\n      swap1\n      pop\n        /* \"#utility.yul\":6732:7151   */\n      swap2\n      swap1\n      pop\n      jump\t// out\n        /* \"#utility.yul\":7157:7576   */\n    tag_50:\n        /* \"#utility.yul\":7323:7327   */\n      0x00\n        /* \"#utility.yul\":7361:7363   */\n      0x20\n        /* \"#utility.yul\":7350:7359   */\n      dup3\n        /* \"#utility.yul\":7346:7364   */\n      add\n        /* \"#utility.yul\":7338:7364   */\n      swap1\n      pop\n        /* \"#utility.yul\":7410:7419   */\n      dup2\n        /* \"#utility.yul\":7404:7408   */\n      dup2\n        /* \"#utility.yul\":7400:7420   */\n      sub\n        /* \"#utility.yul\":7396:7397   */\n      0x00\n        /* \"#utility.yul\":7385:7394   */\n      dup4\n        /* \"#utility.yul\":7381:7398   */\n      add\n        /* \"#utility.yul\":7374:7421   */\n      mstore\n        /* \"#utility.yul\":7438:7569   */\n      tag_174\n        /* \"#utility.yul\":7564:7568   */\n      dup2\n        /* \"#utility.yul\":7438:7569   */\n      tag_139\n      jump\t// in\n    tag_174:\n        /* \"#utility.yul\":7430:7569   */\n      swap1\n      pop\n        /* \"#utility.yul\":7157:7576   */\n      swap2\n      swap1\n      pop\n      jump\t// out\n        /* \"#utility.yul\":7582:8001   */\n    tag_31:\n        /* \"#utility.yul\":7748:7752   */\n      0x00\n        /* \"#utility.yul\":7786:7788   */\n      0x20\n        /* \"#utility.yul\":7775:7784   */\n      dup3\n        /* \"#utility.yul\":7771:7789   */\n      add\n        /* \"#utility.yul\":7763:7789   */\n      swap1\n      pop\n        /* \"#utility.yul\":7835:7844   */\n      dup2\n        /* \"#utility.yul\":7829:7833   */\n      dup2\n        /* \"#utility.yul\":7825:7845   */\n      sub\n        /* \"#utility.yul\":7821:7822   */\n      0x00\n        /* \"#utility.yul\":7810:7819   */\n      dup4\n        /* \"#utility.yul\":7806:7823   */\n      add\n        /* \"#utility.yul\":7799:7846   */\n      mstore\n        /* \"#utility.yul\":7863:7994   */\n      tag_176\n        /* \"#utility.yul\":7989:7993   */\n      dup2\n        /* \"#utility.yul\":7863:7994   */\n      tag_144\n      jump\t// in\n    tag_176:\n        /* \"#utility.yul\":7855:7994   */\n      swap1\n      pop\n        /* \"#utility.yul\":7582:8001   */\n      swap2\n      swap1\n      pop\n      jump\t// out\n        /* \"#utility.yul\":8007:8426   */\n    tag_46:\n        /* \"#utility.yul\":8173:8177   */\n      0x00\n        /* \"#utility.yul\":8211:8213   */\n      0x20\n        /* \"#utility.yul\":8200:8209   */\n      dup3\n        /* \"#utility.yul\":8196:8214   */\n      add\n        /* \"#utility.yul\":8188:8214   */\n      swap1\n      pop\n        /* \"#utility.yul\":8260:8269   */\n      dup2\n        /* \"#utility.yul\":8254:8258   */\n      dup2\n        /* \"#utility.yul\":8250:8270   */\n      sub\n        /* \"#utility.yul\":8246:8247   */\n      0x00\n        /* \"#utility.yul\":8235:8244   */\n      dup4\n        /* \"#utility.yul\":8231:8248   */\n      add\n        /* \"#utility.yul\":8224:8271   */\n      mstore\n        /* \"#utility.yul\":8288:8419   */\n      tag_178\n        /* \"#utility.yul\":8414:8418   */\n      dup2\n        /* \"#utility.yul\":8288:8419   */\n      tag_149\n      jump\t// in\n    tag_178:\n        /* \"#utility.yul\":8280:8419   */\n      swap1\n      pop\n        /* \"#utility.yul\":8007:8426   */\n      swap2\n      swap1\n      pop\n      jump\t// out\n        /* \"#utility.yul\":8432:8851   */\n    tag_34:\n        /* \"#utility.yul\":8598:8602   */\n      0x00\n        /* \"#utility.yul\":8636:8638   */\n      0x20\n        /* \"#utility.yul\":8625:8634   */\n      dup3\n        /* \"#utility.yul\":8621:8639   */\n      add\n        /* \"#utility.yul\":8613:8639   */\n      swap1\n      pop\n        /* \"#utility.yul\":8685:8694   */\n      dup2\n        /* \"#utility.yul\":8679:8683   */\n      dup2\n        /* \"#utility.yul\":8675:8695   */\n      sub\n        /* \"#utility.yul\":8671:8672   */\n      0x00\n        /* \"#utility.yul\":8660:8669   */\n      dup4\n        /* \"#utility.yul\":8656:8673   */\n      add\n        /* \"#utility.yul\":8649:8696   */\n      mstore\n        /* \"#utility.yul\":8713:8844   */\n      tag_180\n        /* \"#utility.yul\":8839:8843   */\n      dup2\n        /* \"#utility.yul\":8713:8844   */\n      tag_154\n      jump\t// in\n    tag_180:\n        /* \"#utility.yul\":8705:8844   */\n      swap1\n      pop\n        /* \"#utility.yul\":8432:8851   */\n      swap2\n      swap1\n      pop\n      jump\t// out\n        /* \"#utility.yul\":8857:8986   */\n    tag_79:\n        /* \"#utility.yul\":8891:8897   */\n      0x00\n        /* \"#utility.yul\":8918:8938   */\n      tag_182\n      tag_183\n      jump\t// in\n    tag_182:\n        /* \"#utility.yul\":8908:8938   */\n      swap1\n      pop\n        /* \"#utility.yul\":8947:8980   */\n      tag_184\n        /* \"#utility.yul\":8975:8979   */\n      dup3\n        /* \"#utility.yul\":8967:8973   */\n      dup3\n        /* \"#utility.yul\":8947:8980   */\n      tag_185\n      jump\t// in\n    tag_184:\n        /* \"#utility.yul\":8857:8986   */\n      swap2\n      swap1\n      pop\n      jump\t// out\n        /* \"#utility.yul\":8992:9067   */\n    tag_183:\n        /* \"#utility.yul\":9025:9031   */\n      0x00\n        /* \"#utility.yul\":9058:9060   */\n      0x40\n        /* \"#utility.yul\":9052:9061   */\n      mload\n        /* \"#utility.yul\":9042:9061   */\n      swap1\n      pop\n        /* \"#utility.yul\":8992:9067   */\n      swap1\n      jump\t// out\n        /* \"#utility.yul\":9073:9381   */\n    tag_78:\n        /* \"#utility.yul\":9135:9139   */\n      0x00\n        /* \"#utility.yul\":9225:9243   */\n      0xffffffffffffffff\n        /* \"#utility.yul\":9217:9223   */\n      dup3\n        /* \"#utility.yul\":9214:9244   */\n      gt\n        /* \"#utility.yul\":9211:9267   */\n      iszero\n      tag_188\n      jumpi\n        /* \"#utility.yul\":9247:9265   */\n      tag_189\n      tag_190\n      jump\t// in\n    tag_189:\n        /* \"#utility.yul\":9211:9267   */\n    tag_188:\n        /* \"#utility.yul\":9285:9314   */\n      tag_191\n        /* \"#utility.yul\":9307:9313   */\n      dup3\n        /* \"#utility.yul\":9285:9314   */\n      tag_128\n      jump\t// in\n    tag_191:\n        /* \"#utility.yul\":9277:9314   */\n      swap1\n      pop\n        /* \"#utility.yul\":9369:9373   */\n      0x20\n        /* \"#utility.yul\":9363:9367   */\n      dup2\n        /* \"#utility.yul\":9359:9374   */\n      add\n        /* \"#utility.yul\":9351:9374   */\n      swap1\n      pop\n        /* \"#utility.yul\":9073:9381   */\n      swap2\n      swap1\n      pop\n      jump\t// out\n        /* \"#utility.yul\":9387:9486   */\n    tag_122:\n        /* \"#utility.yul\":9439:9445   */\n      0x00\n        /* \"#utility.yul\":9473:9478   */\n      dup2\n        /* \"#utility.yul\":9467:9479   */\n      mload\n        /* \"#utility.yul\":9457:9479   */\n      swap1\n      pop\n        /* \"#utility.yul\":9387:9486   */\n      swap2\n      swap1\n      pop\n      jump\t// out\n        /* \"#utility.yul\":9492:9661   */\n    tag_124:\n        /* \"#utility.yul\":9576:9587   */\n      0x00\n        /* \"#utility.yul\":9610:9616   */\n      dup3\n        /* \"#utility.yul\":9605:9608   */\n      dup3\n        /* \"#utility.yul\":9598:9617   */\n      mstore\n        /* \"#utility.yul\":9650:9654   */\n      0x20\n        /* \"#utility.yul\":9645:9648   */\n      dup3\n        /* \"#utility.yul\":9641:9655   */\n      add\n        /* \"#utility.yul\":9626:9655   */\n      swap1\n      pop\n        /* \"#utility.yul\":9492:9661   */\n      swap3\n      swap2\n      pop\n      pop\n      jump\t// out\n        /* \"#utility.yul\":9667:10015   */\n    tag_40:\n        /* \"#utility.yul\":9707:9714   */\n      0x00\n        /* \"#utility.yul\":9730:9750   */\n      tag_195\n        /* \"#utility.yul\":9748:9749   */\n      dup3\n        /* \"#utility.yul\":9730:9750   */\n      tag_162\n      jump\t// in\n    tag_195:\n        /* \"#utility.yul\":9725:9750   */\n      swap2\n      pop\n        /* \"#utility.yul\":9764:9784   */\n      tag_196\n        /* \"#utility.yul\":9782:9783   */\n      dup4\n        /* \"#utility.yul\":9764:9784   */\n      tag_162\n      jump\t// in\n    tag_196:\n        /* \"#utility.yul\":9759:9784   */\n      swap3\n      pop\n        /* \"#utility.yul\":9952:9953   */\n      dup2\n        /* \"#utility.yul\":9884:9950   */\n      0xffffffffffffffffffffffffffffffffffffffffffffffffffffffffffffffff\n        /* \"#utility.yul\":9880:9954   */\n      div\n        /* \"#utility.yul\":9877:9878   */\n      dup4\n        /* \"#utility.yul\":9874:9955   */\n      gt\n        /* \"#utility.yul\":9869:9870   */\n      dup3\n        /* \"#utility.yul\":9862:9871   */\n      iszero\n        /* \"#utility.yul\":9855:9872   */\n      iszero\n        /* \"#utility.yul\":9851:9956   */\n      and\n        /* \"#utility.yul\":9848:9979   */\n      iszero\n      tag_197\n      jumpi\n        /* \"#utility.yul\":9959:9977   */\n      tag_198\n      tag_199\n      jump\t// in\n    tag_198:\n        /* \"#utility.yul\":9848:9979   */\n    tag_197:\n        /* \"#utility.yul\":10007:10008   */\n      dup3\n        /* \"#utility.yul\":10004:10005   */\n      dup3\n        /* \"#utility.yul\":10000:10009   */\n      mul\n        /* \"#utility.yul\":9989:10009   */\n      swap1\n      pop\n        /* \"#utility.yul\":9667:10015   */\n      swap3\n      swap2\n      pop\n      pop\n      jump\t// out\n        /* \"#utility.yul\":10021:10117   */\n    tag_118:\n        /* \"#utility.yul\":10058:10065   */\n      0x00\n        /* \"#utility.yul\":10087:10111   */\n      tag_201\n        /* \"#utility.yul\":10105:10110   */\n      dup3\n        /* \"#utility.yul\":10087:10111   */\n      tag_202\n      jump\t// in\n    tag_201:\n        /* \"#utility.yul\":10076:10111   */\n      swap1\n      pop\n        /* \"#utility.yul\":10021:10117   */\n      swap2\n      swap1\n      pop\n      jump\t// out\n        /* \"#utility.yul\":10123:10249   */\n    tag_202:\n        /* \"#utility.yul\":10160:10167   */\n      0x00\n        /* \"#utility.yul\":10200:10242   */\n      0xffffffffffffffffffffffffffffffffffffffff\n        /* \"#utility.yul\":10193:10198   */\n      dup3\n        /* \"#utility.yul\":10189:10243   */\n      and\n        /* \"#utility.yul\":10178:10243   */\n      swap1\n      pop\n        /* \"#utility.yul\":10123:10249   */\n      swap2\n      swap1\n      pop\n      jump\t// out\n        /* \"#utility.yul\":10255:10332   */\n    tag_162:\n        /* \"#utility.yul\":10292:10299   */\n      0x00\n        /* \"#utility.yul\":10321:10326   */\n      dup2\n        /* \"#utility.yul\":10310:10326   */\n      swap1\n      pop\n        /* \"#utility.yul\":10255:10332   */\n      swap2\n      swap1\n      pop\n      jump\t// out\n        /* \"#utility.yul\":10338:10492   */\n    tag_84:\n        /* \"#utility.yul\":10422:10428   */\n      dup3\n        /* \"#utility.yul\":10417:10420   */\n      dup2\n        /* \"#utility.yul\":10412:10415   */\n      dup4\n        /* \"#utility.yul\":10399:10429   */\n      calldatacopy\n        /* \"#utility.yul\":10484:10485   */\n      0x00\n        /* \"#utility.yul\":10475:10481   */\n      dup4\n        /* \"#utility.yul\":10470:10473   */\n      dup4\n        /* \"#utility.yul\":10466:10482   */\n      add\n        /* \"#utility.yul\":10459:10486   */\n      mstore\n        /* \"#utility.yul\":10338:10492   */\n      pop\n      pop\n      pop\n      jump\t// out\n        /* \"#utility.yul\":10498:10805   */\n    tag_126:\n        /* \"#utility.yul\":10566:10567   */\n      0x00\n        /* \"#utility.yul\":10576:10689   */\n    tag_207:\n        /* \"#utility.yul\":10590:10596   */\n      dup4\n        /* \"#utility.yul\":10587:10588   */\n      dup2\n        /* \"#utility.yul\":10584:10597   */\n      lt\n        /* \"#utility.yul\":10576:10689   */\n      iszero\n      tag_209\n      jumpi\n        /* \"#utility.yul\":10675:10676   */\n      dup1\n        /* \"#utility.yul\":10670:10673   */\n      dup3\n        /* \"#utility.yul\":10666:10677   */\n      add\n        /* \"#utility.yul\":10660:10678   */\n      mload\n        /* \"#utility.yul\":10656:10657   */\n      dup2\n        /* \"#utility.yul\":10651:10654   */\n      dup5\n        /* \"#utility.yul\":10647:10658   */\n      add\n        /* \"#utility.yul\":10640:10679   */\n      mstore\n        /* \"#utility.yul\":10612:10614   */\n      0x20\n        /* \"#utility.yul\":10609:10610   */\n      dup2\n        /* \"#utility.yul\":10605:10615   */\n      add\n        /* \"#utility.yul\":10600:10615   */\n      swap1\n      pop\n        /* \"#utility.yul\":10576:10689   */\n      jump(tag_207)\n    tag_209:\n        /* \"#utility.yul\":10707:10713   */\n      dup4\n        /* \"#utility.yul\":10704:10705   */\n      dup2\n        /* \"#utility.yul\":10701:10714   */\n      gt\n        /* \"#utility.yul\":10698:10799   */\n      iszero\n      tag_210\n      jumpi\n        /* \"#utility.yul\":10787:10788   */\n      0x00\n        /* \"#utility.yul\":10778:10784   */\n      dup5\n        /* \"#utility.yul\":10773:10776   */\n      dup5\n        /* \"#utility.yul\":10769:10785   */\n      add\n        /* \"#utility.yul\":10762:10789   */\n      mstore\n        /* \"#utility.yul\":10698:10799   */\n    tag_210:\n        /* \"#utility.yul\":10547:10805   */\n      pop\n        /* \"#utility.yul\":10498:10805   */\n      pop\n      pop\n      pop\n      jump\t// out\n        /* \"#utility.yul\":10811:11131   */\n    tag_23:\n        /* \"#utility.yul\":10855:10861   */\n      0x00\n        /* \"#utility.yul\":10892:10893   */\n      0x02\n        /* \"#utility.yul\":10886:10890   */\n      dup3\n        /* \"#utility.yul\":10882:10894   */\n      div\n        /* \"#utility.yul\":10872:10894   */\n      swap1\n      pop\n        /* \"#utility.yul\":10939:10940   */\n      0x01\n        /* \"#utility.yul\":10933:10937   */\n      dup3\n        /* \"#utility.yul\":10929:10941   */\n      and\n        /* \"#utility.yul\":10960:10978   */\n      dup1\n        /* \"#utility.yul\":10950:11031   */\n      tag_212\n      jumpi\n        /* \"#utility.yul\":11016:11020   */\n      0x7f\n        /* \"#utility.yul\":11008:11014   */\n      dup3\n        /* \"#utility.yul\":11004:11021   */\n      and\n        /* \"#utility.yul\":10994:11021   */\n      swap2\n      pop\n        /* \"#utility.yul\":10950:11031   */\n    tag_212:\n        /* \"#utility.yul\":11078:11080   */\n      0x20\n        /* \"#utility.yul\":11070:11076   */\n      dup3\n        /* \"#utility.yul\":11067:11081   */\n      lt\n        /* \"#utility.yul\":11047:11065   */\n      dup2\n        /* \"#utility.yul\":11044:11082   */\n      eq\n        /* \"#utility.yul\":11041:11125   */\n      iszero\n      tag_213\n      jumpi\n        /* \"#utility.yul\":11097:11115   */\n      tag_214\n      tag_215\n      jump\t// in\n    tag_214:\n        /* \"#utility.yul\":11041:11125   */\n    tag_213:\n        /* \"#utility.yul\":10862:11131   */\n      pop\n        /* \"#utility.yul\":10811:11131   */\n      swap2\n      swap1\n      pop\n      jump\t// out\n        /* \"#utility.yul\":11137:11418   */\n    tag_185:\n        /* \"#utility.yul\":11220:11247   */\n      tag_217\n        /* \"#utility.yul\":11242:11246   */\n      dup3\n        /* \"#utility.yul\":11220:11247   */\n      tag_128\n      jump\t// in\n    tag_217:\n        /* \"#utility.yul\":11212:11218   */\n      dup2\n        /* \"#utility.yul\":11208:11248   */\n      add\n        /* \"#utility.yul\":11350:11356   */\n      dup2\n        /* \"#utility.yul\":11338:11348   */\n      dup2\n        /* \"#utility.yul\":11335:11357   */\n      lt\n        /* \"#utility.yul\":11314:11332   */\n      0xffffffffffffffff\n        /* \"#utility.yul\":11302:11312   */\n      dup3\n        /* \"#utility.yul\":11299:11333   */\n      gt\n        /* \"#utility.yul\":11296:11358   */\n      or\n        /* \"#utility.yul\":11293:11381   */\n      iszero\n      tag_218\n      jumpi\n        /* \"#utility.yul\":11361:11379   */\n      tag_219\n      tag_190\n      jump\t// in\n    tag_219:\n        /* \"#utility.yul\":11293:11381   */\n    tag_218:\n        /* \"#utility.yul\":11401:11411   */\n      dup1\n        /* \"#utility.yul\":11397:11399   */\n      0x40\n        /* \"#utility.yul\":11390:11412   */\n      mstore\n        /* \"#utility.yul\":11180:11418   */\n      pop\n        /* \"#utility.yul\":11137:11418   */\n      pop\n      pop\n      jump\t// out\n        /* \"#utility.yul\":11424:11604   */\n    tag_199:\n        /* \"#utility.yul\":11472:11549   */\n      0x4e487b7100000000000000000000000000000000000000000000000000000000\n        /* \"#utility.yul\":11469:11470   */\n      0x00\n        /* \"#utility.yul\":11462:11550   */\n      mstore\n        /* \"#utility.yul\":11569:11573   */\n      0x11\n        /* \"#utility.yul\":11566:11567   */\n      0x04\n        /* \"#utility.yul\":11559:11574   */\n      mstore\n        /* \"#utility.yul\":11593:11597   */\n      0x24\n        /* \"#utility.yul\":11590:11591   */\n      0x00\n        /* \"#utility.yul\":11583:11598   */\n      revert\n        /* \"#utility.yul\":11610:11790   */\n    tag_215:\n        /* \"#utility.yul\":11658:11735   */\n      0x4e487b7100000000000000000000000000000000000000000000000000000000\n        /* \"#utility.yul\":11655:11656   */\n      0x00\n        /* \"#utility.yul\":11648:11736   */\n      mstore\n        /* \"#utility.yul\":11755:11759   */\n      0x22\n        /* \"#utility.yul\":11752:11753   */\n      0x04\n        /* \"#utility.yul\":11745:11760   */\n      mstore\n        /* \"#utility.yul\":11779:11783   */\n      0x24\n        /* \"#utility.yul\":11776:11777   */\n      0x00\n        /* \"#utility.yul\":11769:11784   */\n      revert\n        /* \"#utility.yul\":11796:11976   */\n    tag_37:\n        /* \"#utility.yul\":11844:11921   */\n      0x4e487b7100000000000000000000000000000000000000000000000000000000\n        /* \"#utility.yul\":11841:11842   */\n      0x00\n        /* \"#utility.yul\":11834:11922   */\n      mstore\n        /* \"#utility.yul\":11941:11945   */\n      0x32\n        /* \"#utility.yul\":11938:11939   */\n      0x04\n        /* \"#utility.yul\":11931:11946   */\n      mstore\n        /* \"#utility.yul\":11965:11969   */\n      0x24\n        /* \"#utility.yul\":11962:11963   */\n      0x00\n        /* \"#utility.yul\":11955:11970   */\n      revert\n        /* \"#utility.yul\":11982:12162   */\n    tag_190:\n        /* \"#utility.yul\":12030:12107   */\n      0x4e487b7100000000000000000000000000000000000000000000000000000000\n        /* \"#utility.yul\":12027:12028   */\n      0x00\n        /* \"#utility.yul\":12020:12108   */\n      mstore\n        /* \"#utility.yul\":12127:12131   */\n      0x41\n        /* \"#utility.yul\":12124:12125   */\n      0x04\n        /* \"#utility.yul\":12117:12132   */\n      mstore\n        /* \"#utility.yul\":12151:12155   */\n      0x24\n        /* \"#utility.yul\":12148:12149   */\n      0x00\n        /* \"#utility.yul\":12141:12156   */\n      revert\n        /* \"#utility.yul\":12168:12285   */\n    tag_89:\n        /* \"#utility.yul\":12277:12278   */\n      0x00\n        /* \"#utility.yul\":12274:12275   */\n      dup1\n        /* \"#utility.yul\":12267:12279   */\n      revert\n        /* \"#utility.yul\":12291:12408   */\n    tag_82:\n        /* \"#utility.yul\":12400:12401   */\n      0x00\n        /* \"#utility.yul\":12397:12398   */\n      dup1\n        /* \"#utility.yul\":12390:12402   */\n      revert\n        /* \"#utility.yul\":12414:12531   */\n    tag_101:\n        /* \"#utility.yul\":12523:12524   */\n      0x00\n        /* \"#utility.yul\":12520:12521   */\n      dup1\n        /* \"#utility.yul\":12513:12525   */\n      revert\n        /* \"#utility.yul\":12537:12654   */\n    tag_98:\n        /* \"#utility.yul\":12646:12647   */\n      0x00\n        /* \"#utility.yul\":12643:12644   */\n      dup1\n        /* \"#utility.yul\":12636:12648   */\n      revert\n        /* \"#utility.yul\":12660:12762   */\n    tag_128:\n        /* \"#utility.yul\":12701:12707   */\n      0x00\n        /* \"#utility.yul\":12752:12754   */\n      0x1f\n        /* \"#utility.yul\":12748:12755   */\n      not\n        /* \"#utility.yul\":12743:12745   */\n      0x1f\n        /* \"#utility.yul\":12736:12741   */\n      dup4\n        /* \"#utility.yul\":12732:12746   */\n      add\n        /* \"#utility.yul\":12728:12756   */\n      and\n        /* \"#utility.yul\":12718:12756   */\n      swap1\n      pop\n        /* \"#utility.yul\":12660:12762   */\n      swap2\n      swap1\n      pop\n      jump\t// out\n        /* \"#utility.yul\":12768:13007   */\n    tag_133:\n        /* \"#utility.yul\":12908:12942   */\n      0x506c65617365207061792073756666696369656e742066756e6420666f72206f\n        /* \"#utility.yul\":12904:12905   */\n      0x00\n        /* \"#utility.yul\":12896:12902   */\n      dup3\n        /* \"#utility.yul\":12892:12906   */\n      add\n        /* \"#utility.yul\":12885:12943   */\n      mstore\n        /* \"#utility.yul\":12977:12999   */\n      0x7267616e697a696e6720796f7572206576656e74000000000000000000000000\n        /* \"#utility.yul\":12972:12974   */\n      0x20\n        /* \"#utility.yul\":12964:12970   */\n      dup3\n        /* \"#utility.yul\":12960:12975   */\n      add\n        /* \"#utility.yul\":12953:13000   */\n      mstore\n        /* \"#utility.yul\":12768:13007   */\n      pop\n      jump\t// out\n        /* \"#utility.yul\":13013:13189   */\n    tag_138:\n        /* \"#utility.yul\":13153:13181   */\n      0x506c656173652063726561746520736f6d65207469636b657473000000000000\n        /* \"#utility.yul\":13149:13150   */\n      0x00\n        /* \"#utility.yul\":13141:13147   */\n      dup3\n        /* \"#utility.yul\":13137:13151   */\n      add\n        /* \"#utility.yul\":13130:13182   */\n      mstore\n        /* \"#utility.yul\":13013:13189   */\n      pop\n      jump\t// out\n        /* \"#utility.yul\":13195:13417   */\n    tag_143:\n        /* \"#utility.yul\":13335:13369   */\n      0x506c6561736520656e74657220612076616c6964206461746520696e20667574\n        /* \"#utility.yul\":13331:13332   */\n      0x00\n        /* \"#utility.yul\":13323:13329   */\n      dup3\n        /* \"#utility.yul\":13319:13333   */\n      add\n        /* \"#utility.yul\":13312:13370   */\n      mstore\n        /* \"#utility.yul\":13404:13409   */\n      0x7572650000000000000000000000000000000000000000000000000000000000\n        /* \"#utility.yul\":13399:13401   */\n      0x20\n        /* \"#utility.yul\":13391:13397   */\n      dup3\n        /* \"#utility.yul\":13387:13402   */\n      add\n        /* \"#utility.yul\":13380:13410   */\n      mstore\n        /* \"#utility.yul\":13195:13417   */\n      pop\n      jump\t// out\n        /* \"#utility.yul\":13423:13597   */\n    tag_148:\n        /* \"#utility.yul\":13563:13589   */\n      0x4e6f206576656e7473206f6e207468697320696e6465782e0000000000000000\n        /* \"#utility.yul\":13559:13560   */\n      0x00\n        /* \"#utility.yul\":13551:13557   */\n      dup3\n        /* \"#utility.yul\":13547:13561   */\n      add\n        /* \"#utility.yul\":13540:13590   */\n      mstore\n        /* \"#utility.yul\":13423:13597   */\n      pop\n      jump\t// out\n        /* \"#utility.yul\":13603:13840   */\n    tag_153:\n        /* \"#utility.yul\":13743:13777   */\n      0x456e74657220612076616c69642061646472657373206f72206f776e65722063\n        /* \"#utility.yul\":13739:13740   */\n      0x00\n        /* \"#utility.yul\":13731:13737   */\n      dup3\n        /* \"#utility.yul\":13727:13741   */\n      add\n        /* \"#utility.yul\":13720:13778   */\n      mstore\n        /* \"#utility.yul\":13812:13832   */\n      0x616e277420686f737420616e206576656e740000000000000000000000000000\n        /* \"#utility.yul\":13807:13809   */\n      0x20\n        /* \"#utility.yul\":13799:13805   */\n      dup3\n        /* \"#utility.yul\":13795:13810   */\n      add\n        /* \"#utility.yul\":13788:13833   */\n      mstore\n        /* \"#utility.yul\":13603:13840   */\n      pop\n      jump\t// out\n        /* \"#utility.yul\":13846:14011   */\n    tag_158:\n        /* \"#utility.yul\":13986:14003   */\n      0x506c656173652073656c65637420740000000000000000000000000000000000\n        /* \"#utility.yul\":13982:13983   */\n      0x00\n        /* \"#utility.yul\":13974:13980   */\n      dup3\n        /* \"#utility.yul\":13970:13984   */\n      add\n        /* \"#utility.yul\":13963:14004   */\n      mstore\n        /* \"#utility.yul\":13846:14011   */\n      pop\n      jump\t// out\n        /* \"#utility.yul\":14017:14139   */\n    tag_94:\n        /* \"#utility.yul\":14090:14114   */\n      tag_236\n        /* \"#utility.yul\":14108:14113   */\n      dup2\n        /* \"#utility.yul\":14090:14114   */\n      tag_162\n      jump\t// in\n    tag_236:\n        /* \"#utility.yul\":14083:14088   */\n      dup2\n        /* \"#utility.yul\":14080:14115   */\n      eq\n        /* \"#utility.yul\":14070:14133   */\n      tag_237\n      jumpi\n        /* \"#utility.yul\":14129:14130   */\n      0x00\n        /* \"#utility.yul\":14126:14127   */\n      dup1\n        /* \"#utility.yul\":14119:14131   */\n      revert\n        /* \"#utility.yul\":14070:14133   */\n    tag_237:\n        /* \"#utility.yul\":14017:14139   */\n      pop\n      jump\t// out\n\n    auxdata: 0xa2646970667358221220116c0b72f3ae328b3a73496ea1305e4520de7c174ec3c55bdf30feb4ac9a491564736f6c63430008070033\n}\n",
				"bytecode": {
					"linkReferences": {},
					"object": "608060405234801561001057600080fd5b50336000806101000a81548173ffffffffffffffffffffffffffffffffffffffff021916908373ffffffffffffffffffffffffffffffffffffffff160217905550610e0f806100606000396000f3fe6080604052600436106100345760003560e01c80630b79143014610039578063c71e7edc1461007a578063ee3bf80314610096575b600080fd5b34801561004557600080fd5b50610060600480360381019061005b919061071c565b6100b2565b6040516100719594939291906108b2565b60405180910390f35b610094600480360381019061008f9190610749565b6101a0565b005b6100b060048036038101906100ab9190610699565b61026b565b005b600181815481106100c257600080fd5b90600052602060002090600502016000915090508060000160009054906101000a900473ffffffffffffffffffffffffffffffffffffffff169080600101805461010b90610b16565b80601f016020809104026020016040519081016040528092919081815260200182805461013790610b16565b80156101845780601f1061015957610100808354040283529160200191610184565b820191906000526020600020905b81548152906001019060200180831161016757829003601f168201915b5050505050908060020154908060030154908060040154905085565b60018054905082106101e7576040517f08c379a00000000000000000000000000000000000000000000000000000000081526004016101de9061096c565b60405180910390fd5b600081141561022b576040517f08c379a0000000000000000000000000000000000000000000000000000000008152600401610222906109ac565b60405180910390fd5b80600183815481106102405761023f610bd7565b5b90600052602060002090600502016003015461025c9190610a3e565b341461026757600080fd5b5050565b60008054906101000a900473ffffffffffffffffffffffffffffffffffffffff1673ffffffffffffffffffffffffffffffffffffffff163373ffffffffffffffffffffffffffffffffffffffff16141580156102f45750600073ffffffffffffffffffffffffffffffffffffffff163373ffffffffffffffffffffffffffffffffffffffff1614155b610333576040517f08c379a000000000000000000000000000000000000000000000000000000000815260040161032a9061098c565b60405180910390fd5b6000831415801561034357504283115b610382576040517f08c379a00000000000000000000000000000000000000000000000000000000081526004016103799061094c565b60405180910390fd5b600081116103c5576040517f08c379a00000000000000000000000000000000000000000000000000000000081526004016103bc9061092c565b60405180910390fd5b60008214610412576103e83414610411576040517f08c379a00000000000000000000000000000000000000000000000000000000081526004016104089061090c565b60405180910390fd5b5b60006040518060a001604052803373ffffffffffffffffffffffffffffffffffffffff168152602001868152602001858152602001848152602001838152509050600181908060018154018082558091505060019003906000526020600020906005020160009091909190915060008201518160000160006101000a81548173ffffffffffffffffffffffffffffffffffffffff021916908373ffffffffffffffffffffffffffffffffffffffff16021790555060208201518160010190805190602001906104e2929190610571565b50604082015181600201556060820151816003015560808201518160040155505060008054906101000a900473ffffffffffffffffffffffffffffffffffffffff1673ffffffffffffffffffffffffffffffffffffffff166108fc349081150290604051600060405180830381858888f19350505050158015610569573d6000803e3d6000fd5b505050505050565b82805461057d90610b16565b90600052602060002090601f01602090048101928261059f57600085556105e6565b82601f106105b857805160ff19168380011785556105e6565b828001600101855582156105e6579182015b828111156105e55782518255916020019190600101906105ca565b5b5090506105f391906105f7565b5090565b5b808211156106105760008160009055506001016105f8565b5090565b6000610627610622846109f1565b6109cc565b90508281526020810184848401111561064357610642610c3a565b5b61064e848285610ad4565b509392505050565b600082601f83011261066b5761066a610c35565b5b813561067b848260208601610614565b91505092915050565b60008135905061069381610dc2565b92915050565b600080600080608085870312156106b3576106b2610c44565b5b600085013567ffffffffffffffff8111156106d1576106d0610c3f565b5b6106dd87828801610656565b94505060206106ee87828801610684565b93505060406106ff87828801610684565b925050606061071087828801610684565b91505092959194509250565b60006020828403121561073257610731610c44565b5b600061074084828501610684565b91505092915050565b600080604083850312156107605761075f610c44565b5b600061076e85828601610684565b925050602061077f85828601610684565b9150509250929050565b61079281610a98565b82525050565b60006107a382610a22565b6107ad8185610a2d565b93506107bd818560208601610ae3565b6107c681610c49565b840191505092915050565b60006107de603483610a2d565b91506107e982610c5a565b604082019050919050565b6000610801601a83610a2d565b915061080c82610ca9565b602082019050919050565b6000610824602383610a2d565b915061082f82610cd2565b604082019050919050565b6000610847601883610a2d565b915061085282610d21565b602082019050919050565b600061086a603283610a2d565b915061087582610d4a565b604082019050919050565b600061088d600f83610a2d565b915061089882610d99565b602082019050919050565b6108ac81610aca565b82525050565b600060a0820190506108c76000830188610789565b81810360208301526108d98187610798565b90506108e860408301866108a3565b6108f560608301856108a3565b61090260808301846108a3565b9695505050505050565b60006020820190508181036000830152610925816107d1565b9050919050565b60006020820190508181036000830152610945816107f4565b9050919050565b6000602082019050818103600083015261096581610817565b9050919050565b600060208201905081810360008301526109858161083a565b9050919050565b600060208201905081810360008301526109a58161085d565b9050919050565b600060208201905081810360008301526109c581610880565b9050919050565b60006109d66109e7565b90506109e28282610b48565b919050565b6000604051905090565b600067ffffffffffffffff821115610a0c57610a0b610c06565b5b610a1582610c49565b9050602081019050919050565b600081519050919050565b600082825260208201905092915050565b6000610a4982610aca565b9150610a5483610aca565b9250817fffffffffffffffffffffffffffffffffffffffffffffffffffffffffffffffff0483118215151615610a8d57610a8c610b79565b5b828202905092915050565b6000610aa382610aaa565b9050919050565b600073ffffffffffffffffffffffffffffffffffffffff82169050919050565b6000819050919050565b82818337600083830152505050565b60005b83811015610b01578082015181840152602081019050610ae6565b83811115610b10576000848401525b50505050565b60006002820490506001821680610b2e57607f821691505b60208210811415610b4257610b41610ba8565b5b50919050565b610b5182610c49565b810181811067ffffffffffffffff82111715610b7057610b6f610c06565b5b80604052505050565b7f4e487b7100000000000000000000000000000000000000000000000000000000600052601160045260246000fd5b7f4e487b7100000000000000000000000000000000000000000000000000000000600052602260045260246000fd5b7f4e487b7100000000000000000000000000000000000000000000000000000000600052603260045260246000fd5b7f4e487b7100000000000000000000000000000000000000000000000000000000600052604160045260246000fd5b600080fd5b600080fd5b600080fd5b600080fd5b6000601f19601f8301169050919050565b7f506c65617365207061792073756666696369656e742066756e6420666f72206f60008201527f7267616e697a696e6720796f7572206576656e74000000000000000000000000602082015250565b7f506c656173652063726561746520736f6d65207469636b657473000000000000600082015250565b7f506c6561736520656e74657220612076616c6964206461746520696e2066757460008201527f7572650000000000000000000000000000000000000000000000000000000000602082015250565b7f4e6f206576656e7473206f6e207468697320696e6465782e0000000000000000600082015250565b7f456e74657220612076616c69642061646472657373206f72206f776e6572206360008201527f616e277420686f737420616e206576656e740000000000000000000000000000602082015250565b7f506c656173652073656c65637420740000000000000000000000000000000000600082015250565b610dcb81610aca565b8114610dd657600080fd5b5056fea2646970667358221220116c0b72f3ae328b3a73496ea1305e4520de7c174ec3c55bdf30feb4ac9a491564736f6c63430008070033",
					"opcodes": "PUSH1 0x80 PUSH1 0x40 MSTORE CALLVALUE DUP1 ISZERO PUSH2 0x10 JUMPI PUSH1 0x0 DUP1 REVERT JUMPDEST POP CALLER PUSH1 0x0 DUP1 PUSH2 0x100 EXP DUP2 SLOAD DUP2 PUSH20 0xFFFFFFFFFFFFFFFFFFFFFFFFFFFFFFFFFFFFFFFF MUL NOT AND SWAP1 DUP4 PUSH20 0xFFFFFFFFFFFFFFFFFFFFFFFFFFFFFFFFFFFFFFFF AND MUL OR SWAP1 SSTORE POP PUSH2 0xE0F DUP1 PUSH2 0x60 PUSH1 0x0 CODECOPY PUSH1 0x0 RETURN INVALID PUSH1 0x80 PUSH1 0x40 MSTORE PUSH1 0x4 CALLDATASIZE LT PUSH2 0x34 JUMPI PUSH1 0x0 CALLDATALOAD PUSH1 0xE0 SHR DUP1 PUSH4 0xB791430 EQ PUSH2 0x39 JUMPI DUP1 PUSH4 0xC71E7EDC EQ PUSH2 0x7A JUMPI DUP1 PUSH4 0xEE3BF803 EQ PUSH2 0x96 JUMPI JUMPDEST PUSH1 0x0 DUP1 REVERT JUMPDEST CALLVALUE DUP1 ISZERO PUSH2 0x45 JUMPI PUSH1 0x0 DUP1 REVERT JUMPDEST POP PUSH2 0x60 PUSH1 0x4 DUP1 CALLDATASIZE SUB DUP2 ADD SWAP1 PUSH2 0x5B SWAP2 SWAP1 PUSH2 0x71C JUMP JUMPDEST PUSH2 0xB2 JUMP JUMPDEST PUSH1 0x40 MLOAD PUSH2 0x71 SWAP6 SWAP5 SWAP4 SWAP3 SWAP2 SWAP1 PUSH2 0x8B2 JUMP JUMPDEST PUSH1 0x40 MLOAD DUP1 SWAP2 SUB SWAP1 RETURN JUMPDEST PUSH2 0x94 PUSH1 0x4 DUP1 CALLDATASIZE SUB DUP2 ADD SWAP1 PUSH2 0x8F SWAP2 SWAP1 PUSH2 0x749 JUMP JUMPDEST PUSH2 0x1A0 JUMP JUMPDEST STOP JUMPDEST PUSH2 0xB0 PUSH1 0x4 DUP1 CALLDATASIZE SUB DUP2 ADD SWAP1 PUSH2 0xAB SWAP2 SWAP1 PUSH2 0x699 JUMP JUMPDEST PUSH2 0x26B JUMP JUMPDEST STOP JUMPDEST PUSH1 0x1 DUP2 DUP2 SLOAD DUP2 LT PUSH2 0xC2 JUMPI PUSH1 0x0 DUP1 REVERT JUMPDEST SWAP1 PUSH1 0x0 MSTORE PUSH1 0x20 PUSH1 0x0 KECCAK256 SWAP1 PUSH1 0x5 MUL ADD PUSH1 0x0 SWAP2 POP SWAP1 POP DUP1 PUSH1 0x0 ADD PUSH1 0x0 SWAP1 SLOAD SWAP1 PUSH2 0x100 EXP SWAP1 DIV PUSH20 0xFFFFFFFFFFFFFFFFFFFFFFFFFFFFFFFFFFFFFFFF AND SWAP1 DUP1 PUSH1 0x1 ADD DUP1 SLOAD PUSH2 0x10B SWAP1 PUSH2 0xB16 JUMP JUMPDEST DUP1 PUSH1 0x1F ADD PUSH1 0x20 DUP1 SWAP2 DIV MUL PUSH1 0x20 ADD PUSH1 0x40 MLOAD SWAP1 DUP2 ADD PUSH1 0x40 MSTORE DUP1 SWAP3 SWAP2 SWAP1 DUP2 DUP2 MSTORE PUSH1 0x20 ADD DUP3 DUP1 SLOAD PUSH2 0x137 SWAP1 PUSH2 0xB16 JUMP JUMPDEST DUP1 ISZERO PUSH2 0x184 JUMPI DUP1 PUSH1 0x1F LT PUSH2 0x159 JUMPI PUSH2 0x100 DUP1 DUP4 SLOAD DIV MUL DUP4 MSTORE SWAP2 PUSH1 0x20 ADD SWAP2 PUSH2 0x184 JUMP JUMPDEST DUP3 ADD SWAP2 SWAP1 PUSH1 0x0 MSTORE PUSH1 0x20 PUSH1 0x0 KECCAK256 SWAP1 JUMPDEST DUP2 SLOAD DUP2 MSTORE SWAP1 PUSH1 0x1 ADD SWAP1 PUSH1 0x20 ADD DUP1 DUP4 GT PUSH2 0x167 JUMPI DUP3 SWAP1 SUB PUSH1 0x1F AND DUP3 ADD SWAP2 JUMPDEST POP POP POP POP POP SWAP1 DUP1 PUSH1 0x2 ADD SLOAD SWAP1 DUP1 PUSH1 0x3 ADD SLOAD SWAP1 DUP1 PUSH1 0x4 ADD SLOAD SWAP1 POP DUP6 JUMP JUMPDEST PUSH1 0x1 DUP1 SLOAD SWAP1 POP DUP3 LT PUSH2 0x1E7 JUMPI PUSH1 0x40 MLOAD PUSH32 0x8C379A000000000000000000000000000000000000000000000000000000000 DUP2 MSTORE PUSH1 0x4 ADD PUSH2 0x1DE SWAP1 PUSH2 0x96C JUMP JUMPDEST PUSH1 0x40 MLOAD DUP1 SWAP2 SUB SWAP1 REVERT JUMPDEST PUSH1 0x0 DUP2 EQ ISZERO PUSH2 0x22B JUMPI PUSH1 0x40 MLOAD PUSH32 0x8C379A000000000000000000000000000000000000000000000000000000000 DUP2 MSTORE PUSH1 0x4 ADD PUSH2 0x222 SWAP1 PUSH2 0x9AC JUMP JUMPDEST PUSH1 0x40 MLOAD DUP1 SWAP2 SUB SWAP1 REVERT JUMPDEST DUP1 PUSH1 0x1 DUP4 DUP2 SLOAD DUP2 LT PUSH2 0x240 JUMPI PUSH2 0x23F PUSH2 0xBD7 JUMP JUMPDEST JUMPDEST SWAP1 PUSH1 0x0 MSTORE PUSH1 0x20 PUSH1 0x0 KECCAK256 SWAP1 PUSH1 0x5 MUL ADD PUSH1 0x3 ADD SLOAD PUSH2 0x25C SWAP2 SWAP1 PUSH2 0xA3E JUMP JUMPDEST CALLVALUE EQ PUSH2 0x267 JUMPI PUSH1 0x0 DUP1 REVERT JUMPDEST POP POP JUMP JUMPDEST PUSH1 0x0 DUP1 SLOAD SWAP1 PUSH2 0x100 EXP SWAP1 DIV PUSH20 0xFFFFFFFFFFFFFFFFFFFFFFFFFFFFFFFFFFFFFFFF AND PUSH20 0xFFFFFFFFFFFFFFFFFFFFFFFFFFFFFFFFFFFFFFFF AND CALLER PUSH20 0xFFFFFFFFFFFFFFFFFFFFFFFFFFFFFFFFFFFFFFFF AND EQ ISZERO DUP1 ISZERO PUSH2 0x2F4 JUMPI POP PUSH1 0x0 PUSH20 0xFFFFFFFFFFFFFFFFFFFFFFFFFFFFFFFFFFFFFFFF AND CALLER PUSH20 0xFFFFFFFFFFFFFFFFFFFFFFFFFFFFFFFFFFFFFFFF AND EQ ISZERO JUMPDEST PUSH2 0x333 JUMPI PUSH1 0x40 MLOAD PUSH32 0x8C379A000000000000000000000000000000000000000000000000000000000 DUP2 MSTORE PUSH1 0x4 ADD PUSH2 0x32A SWAP1 PUSH2 0x98C JUMP JUMPDEST PUSH1 0x40 MLOAD DUP1 SWAP2 SUB SWAP1 REVERT JUMPDEST PUSH1 0x0 DUP4 EQ ISZERO DUP1 ISZERO PUSH2 0x343 JUMPI POP TIMESTAMP DUP4 GT JUMPDEST PUSH2 0x382 JUMPI PUSH1 0x40 MLOAD PUSH32 0x8C379A000000000000000000000000000000000000000000000000000000000 DUP2 MSTORE PUSH1 0x4 ADD PUSH2 0x379 SWAP1 PUSH2 0x94C JUMP JUMPDEST PUSH1 0x40 MLOAD DUP1 SWAP2 SUB SWAP1 REVERT JUMPDEST PUSH1 0x0 DUP2 GT PUSH2 0x3C5 JUMPI PUSH1 0x40 MLOAD PUSH32 0x8C379A000000000000000000000000000000000000000000000000000000000 DUP2 MSTORE PUSH1 0x4 ADD PUSH2 0x3BC SWAP1 PUSH2 0x92C JUMP JUMPDEST PUSH1 0x40 MLOAD DUP1 SWAP2 SUB SWAP1 REVERT JUMPDEST PUSH1 0x0 DUP3 EQ PUSH2 0x412 JUMPI PUSH2 0x3E8 CALLVALUE EQ PUSH2 0x411 JUMPI PUSH1 0x40 MLOAD PUSH32 0x8C379A000000000000000000000000000000000000000000000000000000000 DUP2 MSTORE PUSH1 0x4 ADD PUSH2 0x408 SWAP1 PUSH2 0x90C JUMP JUMPDEST PUSH1 0x40 MLOAD DUP1 SWAP2 SUB SWAP1 REVERT JUMPDEST JUMPDEST PUSH1 0x0 PUSH1 0x40 MLOAD DUP1 PUSH1 0xA0 ADD PUSH1 0x40 MSTORE DUP1 CALLER PUSH20 0xFFFFFFFFFFFFFFFFFFFFFFFFFFFFFFFFFFFFFFFF AND DUP2 MSTORE PUSH1 0x20 ADD DUP7 DUP2 MSTORE PUSH1 0x20 ADD DUP6 DUP2 MSTORE PUSH1 0x20 ADD DUP5 DUP2 MSTORE PUSH1 0x20 ADD DUP4 DUP2 MSTORE POP SWAP1 POP PUSH1 0x1 DUP2 SWAP1 DUP1 PUSH1 0x1 DUP2 SLOAD ADD DUP1 DUP3 SSTORE DUP1 SWAP2 POP POP PUSH1 0x1 SWAP1 SUB SWAP1 PUSH1 0x0 MSTORE PUSH1 0x20 PUSH1 0x0 KECCAK256 SWAP1 PUSH1 0x5 MUL ADD PUSH1 0x0 SWAP1 SWAP2 SWAP1 SWAP2 SWAP1 SWAP2 POP PUSH1 0x0 DUP3 ADD MLOAD DUP2 PUSH1 0x0 ADD PUSH1 0x0 PUSH2 0x100 EXP DUP2 SLOAD DUP2 PUSH20 0xFFFFFFFFFFFFFFFFFFFFFFFFFFFFFFFFFFFFFFFF MUL NOT AND SWAP1 DUP4 PUSH20 0xFFFFFFFFFFFFFFFFFFFFFFFFFFFFFFFFFFFFFFFF AND MUL OR SWAP1 SSTORE POP PUSH1 0x20 DUP3 ADD MLOAD DUP2 PUSH1 0x1 ADD SWAP1 DUP1 MLOAD SWAP1 PUSH1 0x20 ADD SWAP1 PUSH2 0x4E2 SWAP3 SWAP2 SWAP1 PUSH2 0x571 JUMP JUMPDEST POP PUSH1 0x40 DUP3 ADD MLOAD DUP2 PUSH1 0x2 ADD SSTORE PUSH1 0x60 DUP3 ADD MLOAD DUP2 PUSH1 0x3 ADD SSTORE PUSH1 0x80 DUP3 ADD MLOAD DUP2 PUSH1 0x4 ADD SSTORE POP POP PUSH1 0x0 DUP1 SLOAD SWAP1 PUSH2 0x100 EXP SWAP1 DIV PUSH20 0xFFFFFFFFFFFFFFFFFFFFFFFFFFFFFFFFFFFFFFFF AND PUSH20 0xFFFFFFFFFFFFFFFFFFFFFFFFFFFFFFFFFFFFFFFF AND PUSH2 0x8FC CALLVALUE SWAP1 DUP2 ISZERO MUL SWAP1 PUSH1 0x40 MLOAD PUSH1 0x0 PUSH1 0x40 MLOAD DUP1 DUP4 SUB DUP2 DUP6 DUP9 DUP9 CALL SWAP4 POP POP POP POP ISZERO DUP1 ISZERO PUSH2 0x569 JUMPI RETURNDATASIZE PUSH1 0x0 DUP1 RETURNDATACOPY RETURNDATASIZE PUSH1 0x0 REVERT JUMPDEST POP POP POP POP POP POP JUMP JUMPDEST DUP3 DUP1 SLOAD PUSH2 0x57D SWAP1 PUSH2 0xB16 JUMP JUMPDEST SWAP1 PUSH1 0x0 MSTORE PUSH1 0x20 PUSH1 0x0 KECCAK256 SWAP1 PUSH1 0x1F ADD PUSH1 0x20 SWAP1 DIV DUP2 ADD SWAP3 DUP3 PUSH2 0x59F JUMPI PUSH1 0x0 DUP6 SSTORE PUSH2 0x5E6 JUMP JUMPDEST DUP3 PUSH1 0x1F LT PUSH2 0x5B8 JUMPI DUP1 MLOAD PUSH1 0xFF NOT AND DUP4 DUP1 ADD OR DUP6 SSTORE PUSH2 0x5E6 JUMP JUMPDEST DUP3 DUP1 ADD PUSH1 0x1 ADD DUP6 SSTORE DUP3 ISZERO PUSH2 0x5E6 JUMPI SWAP2 DUP3 ADD JUMPDEST DUP3 DUP2 GT ISZERO PUSH2 0x5E5 JUMPI DUP3 MLOAD DUP3 SSTORE SWAP2 PUSH1 0x20 ADD SWAP2 SWAP1 PUSH1 0x1 ADD SWAP1 PUSH2 0x5CA JUMP JUMPDEST JUMPDEST POP SWAP1 POP PUSH2 0x5F3 SWAP2 SWAP1 PUSH2 0x5F7 JUMP JUMPDEST POP SWAP1 JUMP JUMPDEST JUMPDEST DUP1 DUP3 GT ISZERO PUSH2 0x610 JUMPI PUSH1 0x0 DUP2 PUSH1 0x0 SWAP1 SSTORE POP PUSH1 0x1 ADD PUSH2 0x5F8 JUMP JUMPDEST POP SWAP1 JUMP JUMPDEST PUSH1 0x0 PUSH2 0x627 PUSH2 0x622 DUP5 PUSH2 0x9F1 JUMP JUMPDEST PUSH2 0x9CC JUMP JUMPDEST SWAP1 POP DUP3 DUP2 MSTORE PUSH1 0x20 DUP2 ADD DUP5 DUP5 DUP5 ADD GT ISZERO PUSH2 0x643 JUMPI PUSH2 0x642 PUSH2 0xC3A JUMP JUMPDEST JUMPDEST PUSH2 0x64E DUP5 DUP3 DUP6 PUSH2 0xAD4 JUMP JUMPDEST POP SWAP4 SWAP3 POP POP POP JUMP JUMPDEST PUSH1 0x0 DUP3 PUSH1 0x1F DUP4 ADD SLT PUSH2 0x66B JUMPI PUSH2 0x66A PUSH2 0xC35 JUMP JUMPDEST JUMPDEST DUP2 CALLDATALOAD PUSH2 0x67B DUP5 DUP3 PUSH1 0x20 DUP7 ADD PUSH2 0x614 JUMP JUMPDEST SWAP2 POP POP SWAP3 SWAP2 POP POP JUMP JUMPDEST PUSH1 0x0 DUP2 CALLDATALOAD SWAP1 POP PUSH2 0x693 DUP2 PUSH2 0xDC2 JUMP JUMPDEST SWAP3 SWAP2 POP POP JUMP JUMPDEST PUSH1 0x0 DUP1 PUSH1 0x0 DUP1 PUSH1 0x80 DUP6 DUP8 SUB SLT ISZERO PUSH2 0x6B3 JUMPI PUSH2 0x6B2 PUSH2 0xC44 JUMP JUMPDEST JUMPDEST PUSH1 0x0 DUP6 ADD CALLDATALOAD PUSH8 0xFFFFFFFFFFFFFFFF DUP2 GT ISZERO PUSH2 0x6D1 JUMPI PUSH2 0x6D0 PUSH2 0xC3F JUMP JUMPDEST JUMPDEST PUSH2 0x6DD DUP8 DUP3 DUP9 ADD PUSH2 0x656 JUMP JUMPDEST SWAP5 POP POP PUSH1 0x20 PUSH2 0x6EE DUP8 DUP3 DUP9 ADD PUSH2 0x684 JUMP JUMPDEST SWAP4 POP POP PUSH1 0x40 PUSH2 0x6FF DUP8 DUP3 DUP9 ADD PUSH2 0x684 JUMP JUMPDEST SWAP3 POP POP PUSH1 0x60 PUSH2 0x710 DUP8 DUP3 DUP9 ADD PUSH2 0x684 JUMP JUMPDEST SWAP2 POP POP SWAP3 SWAP6 SWAP2 SWAP5 POP SWAP3 POP JUMP JUMPDEST PUSH1 0x0 PUSH1 0x20 DUP3 DUP5 SUB SLT ISZERO PUSH2 0x732 JUMPI PUSH2 0x731 PUSH2 0xC44 JUMP JUMPDEST JUMPDEST PUSH1 0x0 PUSH2 0x740 DUP5 DUP3 DUP6 ADD PUSH2 0x684 JUMP JUMPDEST SWAP2 POP POP SWAP3 SWAP2 POP POP JUMP JUMPDEST PUSH1 0x0 DUP1 PUSH1 0x40 DUP4 DUP6 SUB SLT ISZERO PUSH2 0x760 JUMPI PUSH2 0x75F PUSH2 0xC44 JUMP JUMPDEST JUMPDEST PUSH1 0x0 PUSH2 0x76E DUP6 DUP3 DUP7 ADD PUSH2 0x684 JUMP JUMPDEST SWAP3 POP POP PUSH1 0x20 PUSH2 0x77F DUP6 DUP3 DUP7 ADD PUSH2 0x684 JUMP JUMPDEST SWAP2 POP POP SWAP3 POP SWAP3 SWAP1 POP JUMP JUMPDEST PUSH2 0x792 DUP2 PUSH2 0xA98 JUMP JUMPDEST DUP3 MSTORE POP POP JUMP JUMPDEST PUSH1 0x0 PUSH2 0x7A3 DUP3 PUSH2 0xA22 JUMP JUMPDEST PUSH2 0x7AD DUP2 DUP6 PUSH2 0xA2D JUMP JUMPDEST SWAP4 POP PUSH2 0x7BD DUP2 DUP6 PUSH1 0x20 DUP7 ADD PUSH2 0xAE3 JUMP JUMPDEST PUSH2 0x7C6 DUP2 PUSH2 0xC49 JUMP JUMPDEST DUP5 ADD SWAP2 POP POP SWAP3 SWAP2 POP POP JUMP JUMPDEST PUSH1 0x0 PUSH2 0x7DE PUSH1 0x34 DUP4 PUSH2 0xA2D JUMP JUMPDEST SWAP2 POP PUSH2 0x7E9 DUP3 PUSH2 0xC5A JUMP JUMPDEST PUSH1 0x40 DUP3 ADD SWAP1 POP SWAP2 SWAP1 POP JUMP JUMPDEST PUSH1 0x0 PUSH2 0x801 PUSH1 0x1A DUP4 PUSH2 0xA2D JUMP JUMPDEST SWAP2 POP PUSH2 0x80C DUP3 PUSH2 0xCA9 JUMP JUMPDEST PUSH1 0x20 DUP3 ADD SWAP1 POP SWAP2 SWAP1 POP JUMP JUMPDEST PUSH1 0x0 PUSH2 0x824 PUSH1 0x23 DUP4 PUSH2 0xA2D JUMP JUMPDEST SWAP2 POP PUSH2 0x82F DUP3 PUSH2 0xCD2 JUMP JUMPDEST PUSH1 0x40 DUP3 ADD SWAP1 POP SWAP2 SWAP1 POP JUMP JUMPDEST PUSH1 0x0 PUSH2 0x847 PUSH1 0x18 DUP4 PUSH2 0xA2D JUMP JUMPDEST SWAP2 POP PUSH2 0x852 DUP3 PUSH2 0xD21 JUMP JUMPDEST PUSH1 0x20 DUP3 ADD SWAP1 POP SWAP2 SWAP1 POP JUMP JUMPDEST PUSH1 0x0 PUSH2 0x86A PUSH1 0x32 DUP4 PUSH2 0xA2D JUMP JUMPDEST SWAP2 POP PUSH2 0x875 DUP3 PUSH2 0xD4A JUMP JUMPDEST PUSH1 0x40 DUP3 ADD SWAP1 POP SWAP2 SWAP1 POP JUMP JUMPDEST PUSH1 0x0 PUSH2 0x88D PUSH1 0xF DUP4 PUSH2 0xA2D JUMP JUMPDEST SWAP2 POP PUSH2 0x898 DUP3 PUSH2 0xD99 JUMP JUMPDEST PUSH1 0x20 DUP3 ADD SWAP1 POP SWAP2 SWAP1 POP JUMP JUMPDEST PUSH2 0x8AC DUP2 PUSH2 0xACA JUMP JUMPDEST DUP3 MSTORE POP POP JUMP JUMPDEST PUSH1 0x0 PUSH1 0xA0 DUP3 ADD SWAP1 POP PUSH2 0x8C7 PUSH1 0x0 DUP4 ADD DUP9 PUSH2 0x789 JUMP JUMPDEST DUP2 DUP2 SUB PUSH1 0x20 DUP4 ADD MSTORE PUSH2 0x8D9 DUP2 DUP8 PUSH2 0x798 JUMP JUMPDEST SWAP1 POP PUSH2 0x8E8 PUSH1 0x40 DUP4 ADD DUP7 PUSH2 0x8A3 JUMP JUMPDEST PUSH2 0x8F5 PUSH1 0x60 DUP4 ADD DUP6 PUSH2 0x8A3 JUMP JUMPDEST PUSH2 0x902 PUSH1 0x80 DUP4 ADD DUP5 PUSH2 0x8A3 JUMP JUMPDEST SWAP7 SWAP6 POP POP POP POP POP POP JUMP JUMPDEST PUSH1 0x0 PUSH1 0x20 DUP3 ADD SWAP1 POP DUP2 DUP2 SUB PUSH1 0x0 DUP4 ADD MSTORE PUSH2 0x925 DUP2 PUSH2 0x7D1 JUMP JUMPDEST SWAP1 POP SWAP2 SWAP1 POP JUMP JUMPDEST PUSH1 0x0 PUSH1 0x20 DUP3 ADD SWAP1 POP DUP2 DUP2 SUB PUSH1 0x0 DUP4 ADD MSTORE PUSH2 0x945 DUP2 PUSH2 0x7F4 JUMP JUMPDEST SWAP1 POP SWAP2 SWAP1 POP JUMP JUMPDEST PUSH1 0x0 PUSH1 0x20 DUP3 ADD SWAP1 POP DUP2 DUP2 SUB PUSH1 0x0 DUP4 ADD MSTORE PUSH2 0x965 DUP2 PUSH2 0x817 JUMP JUMPDEST SWAP1 POP SWAP2 SWAP1 POP JUMP JUMPDEST PUSH1 0x0 PUSH1 0x20 DUP3 ADD SWAP1 POP DUP2 DUP2 SUB PUSH1 0x0 DUP4 ADD MSTORE PUSH2 0x985 DUP2 PUSH2 0x83A JUMP JUMPDEST SWAP1 POP SWAP2 SWAP1 POP JUMP JUMPDEST PUSH1 0x0 PUSH1 0x20 DUP3 ADD SWAP1 POP DUP2 DUP2 SUB PUSH1 0x0 DUP4 ADD MSTORE PUSH2 0x9A5 DUP2 PUSH2 0x85D JUMP JUMPDEST SWAP1 POP SWAP2 SWAP1 POP JUMP JUMPDEST PUSH1 0x0 PUSH1 0x20 DUP3 ADD SWAP1 POP DUP2 DUP2 SUB PUSH1 0x0 DUP4 ADD MSTORE PUSH2 0x9C5 DUP2 PUSH2 0x880 JUMP JUMPDEST SWAP1 POP SWAP2 SWAP1 POP JUMP JUMPDEST PUSH1 0x0 PUSH2 0x9D6 PUSH2 0x9E7 JUMP JUMPDEST SWAP1 POP PUSH2 0x9E2 DUP3 DUP3 PUSH2 0xB48 JUMP JUMPDEST SWAP2 SWAP1 POP JUMP JUMPDEST PUSH1 0x0 PUSH1 0x40 MLOAD SWAP1 POP SWAP1 JUMP JUMPDEST PUSH1 0x0 PUSH8 0xFFFFFFFFFFFFFFFF DUP3 GT ISZERO PUSH2 0xA0C JUMPI PUSH2 0xA0B PUSH2 0xC06 JUMP JUMPDEST JUMPDEST PUSH2 0xA15 DUP3 PUSH2 0xC49 JUMP JUMPDEST SWAP1 POP PUSH1 0x20 DUP2 ADD SWAP1 POP SWAP2 SWAP1 POP JUMP JUMPDEST PUSH1 0x0 DUP2 MLOAD SWAP1 POP SWAP2 SWAP1 POP JUMP JUMPDEST PUSH1 0x0 DUP3 DUP3 MSTORE PUSH1 0x20 DUP3 ADD SWAP1 POP SWAP3 SWAP2 POP POP JUMP JUMPDEST PUSH1 0x0 PUSH2 0xA49 DUP3 PUSH2 0xACA JUMP JUMPDEST SWAP2 POP PUSH2 0xA54 DUP4 PUSH2 0xACA JUMP JUMPDEST SWAP3 POP DUP2 PUSH32 0xFFFFFFFFFFFFFFFFFFFFFFFFFFFFFFFFFFFFFFFFFFFFFFFFFFFFFFFFFFFFFFFF DIV DUP4 GT DUP3 ISZERO ISZERO AND ISZERO PUSH2 0xA8D JUMPI PUSH2 0xA8C PUSH2 0xB79 JUMP JUMPDEST JUMPDEST DUP3 DUP3 MUL SWAP1 POP SWAP3 SWAP2 POP POP JUMP JUMPDEST PUSH1 0x0 PUSH2 0xAA3 DUP3 PUSH2 0xAAA JUMP JUMPDEST SWAP1 POP SWAP2 SWAP1 POP JUMP JUMPDEST PUSH1 0x0 PUSH20 0xFFFFFFFFFFFFFFFFFFFFFFFFFFFFFFFFFFFFFFFF DUP3 AND SWAP1 POP SWAP2 SWAP1 POP JUMP JUMPDEST PUSH1 0x0 DUP2 SWAP1 POP SWAP2 SWAP1 POP JUMP JUMPDEST DUP3 DUP2 DUP4 CALLDATACOPY PUSH1 0x0 DUP4 DUP4 ADD MSTORE POP POP POP JUMP JUMPDEST PUSH1 0x0 JUMPDEST DUP4 DUP2 LT ISZERO PUSH2 0xB01 JUMPI DUP1 DUP3 ADD MLOAD DUP2 DUP5 ADD MSTORE PUSH1 0x20 DUP2 ADD SWAP1 POP PUSH2 0xAE6 JUMP JUMPDEST DUP4 DUP2 GT ISZERO PUSH2 0xB10 JUMPI PUSH1 0x0 DUP5 DUP5 ADD MSTORE JUMPDEST POP POP POP POP JUMP JUMPDEST PUSH1 0x0 PUSH1 0x2 DUP3 DIV SWAP1 POP PUSH1 0x1 DUP3 AND DUP1 PUSH2 0xB2E JUMPI PUSH1 0x7F DUP3 AND SWAP2 POP JUMPDEST PUSH1 0x20 DUP3 LT DUP2 EQ ISZERO PUSH2 0xB42 JUMPI PUSH2 0xB41 PUSH2 0xBA8 JUMP JUMPDEST JUMPDEST POP SWAP2 SWAP1 POP JUMP JUMPDEST PUSH2 0xB51 DUP3 PUSH2 0xC49 JUMP JUMPDEST DUP2 ADD DUP2 DUP2 LT PUSH8 0xFFFFFFFFFFFFFFFF DUP3 GT OR ISZERO PUSH2 0xB70 JUMPI PUSH2 0xB6F PUSH2 0xC06 JUMP JUMPDEST JUMPDEST DUP1 PUSH1 0x40 MSTORE POP POP POP JUMP JUMPDEST PUSH32 0x4E487B7100000000000000000000000000000000000000000000000000000000 PUSH1 0x0 MSTORE PUSH1 0x11 PUSH1 0x4 MSTORE PUSH1 0x24 PUSH1 0x0 REVERT JUMPDEST PUSH32 0x4E487B7100000000000000000000000000000000000000000000000000000000 PUSH1 0x0 MSTORE PUSH1 0x22 PUSH1 0x4 MSTORE PUSH1 0x24 PUSH1 0x0 REVERT JUMPDEST PUSH32 0x4E487B7100000000000000000000000000000000000000000000000000000000 PUSH1 0x0 MSTORE PUSH1 0x32 PUSH1 0x4 MSTORE PUSH1 0x24 PUSH1 0x0 REVERT JUMPDEST PUSH32 0x4E487B7100000000000000000000000000000000000000000000000000000000 PUSH1 0x0 MSTORE PUSH1 0x41 PUSH1 0x4 MSTORE PUSH1 0x24 PUSH1 0x0 REVERT JUMPDEST PUSH1 0x0 DUP1 REVERT JUMPDEST PUSH1 0x0 DUP1 REVERT JUMPDEST PUSH1 0x0 DUP1 REVERT JUMPDEST PUSH1 0x0 DUP1 REVERT JUMPDEST PUSH1 0x0 PUSH1 0x1F NOT PUSH1 0x1F DUP4 ADD AND SWAP1 POP SWAP2 SWAP1 POP JUMP JUMPDEST PUSH32 0x506C65617365207061792073756666696369656E742066756E6420666F72206F PUSH1 0x0 DUP3 ADD MSTORE PUSH32 0x7267616E697A696E6720796F7572206576656E74000000000000000000000000 PUSH1 0x20 DUP3 ADD MSTORE POP JUMP JUMPDEST PUSH32 0x506C656173652063726561746520736F6D65207469636B657473000000000000 PUSH1 0x0 DUP3 ADD MSTORE POP JUMP JUMPDEST PUSH32 0x506C6561736520656E74657220612076616C6964206461746520696E20667574 PUSH1 0x0 DUP3 ADD MSTORE PUSH32 0x7572650000000000000000000000000000000000000000000000000000000000 PUSH1 0x20 DUP3 ADD MSTORE POP JUMP JUMPDEST PUSH32 0x4E6F206576656E7473206F6E207468697320696E6465782E0000000000000000 PUSH1 0x0 DUP3 ADD MSTORE POP JUMP JUMPDEST PUSH32 0x456E74657220612076616C69642061646472657373206F72206F776E65722063 PUSH1 0x0 DUP3 ADD MSTORE PUSH32 0x616E277420686F737420616E206576656E740000000000000000000000000000 PUSH1 0x20 DUP3 ADD MSTORE POP JUMP JUMPDEST PUSH32 0x506C656173652073656C65637420740000000000000000000000000000000000 PUSH1 0x0 DUP3 ADD MSTORE POP JUMP JUMPDEST PUSH2 0xDCB DUP2 PUSH2 0xACA JUMP JUMPDEST DUP2 EQ PUSH2 0xDD6 JUMPI PUSH1 0x0 DUP1 REVERT JUMPDEST POP JUMP INVALID LOG2 PUSH5 0x6970667358 0x22 SLT KECCAK256 GT PUSH13 0xB72F3AE328B3A73496EA1305E GASLIMIT KECCAK256 0xDE PUSH29 0x174EC3C55BDF30FEB4AC9A491564736F6C634300080700330000000000 "
				},
				"gasEstimates": {
					"creation": {
						"codeDepositCost": "719800",
						"executionCost": "25019",
						"totalCost": "744819"
					},
					"external": {
						"buy_ticket(uint256,uint256)": "infinite",
						"create_event(string,uint256,uint256,uint256)": "infinite",
						"events(uint256)": "infinite"
					}
				},
				"methodIdentifiers": {
					"buy_ticket(uint256,uint256)": "c71e7edc",
					"create_event(string,uint256,uint256,uint256)": "ee3bf803",
					"events(uint256)": "0b791430"
				}
			},
			"storageLayout": {
				"storage": [
					{
						"astId": 14,
						"contract": "Projects/02_Event_Management.sol:EventManagement",
						"label": "owner_contract",
						"offset": 0,
						"slot": "0",
						"type": "t_address_payable"
					},
					{
						"astId": 18,
						"contract": "Projects/02_Event_Management.sol:EventManagement",
						"label": "events",
						"offset": 0,
						"slot": "1",
						"type": "t_array(t_struct(Event)12_storage)dyn_storage"
					}
				],
				"types": {
					"t_address": {
						"encoding": "inplace",
						"label": "address",
						"numberOfBytes": "20"
					},
					"t_address_payable": {
						"encoding": "inplace",
						"label": "address payable",
						"numberOfBytes": "20"
					},
					"t_array(t_struct(Event)12_storage)dyn_storage": {
						"base": "t_struct(Event)12_storage",
						"encoding": "dynamic_array",
						"label": "struct EventManagement.Event[]",
						"numberOfBytes": "32"
					},
					"t_string_storage": {
						"encoding": "bytes",
						"label": "string",
						"numberOfBytes": "32"
					},
					"t_struct(Event)12_storage": {
						"encoding": "inplace",
						"label": "struct EventManagement.Event",
						"members": [
							{
								"astId": 3,
								"contract": "Projects/02_Event_Management.sol:EventManagement",
								"label": "organizer",
								"offset": 0,
								"slot": "0",
								"type": "t_address"
							},
							{
								"astId": 5,
								"contract": "Projects/02_Event_Management.sol:EventManagement",
								"label": "event_name",
								"offset": 0,
								"slot": "1",
								"type": "t_string_storage"
							},
							{
								"astId": 7,
								"contract": "Projects/02_Event_Management.sol:EventManagement",
								"label": "event_date",
								"offset": 0,
								"slot": "2",
								"type": "t_uint256"
							},
							{
								"astId": 9,
								"contract": "Projects/02_Event_Management.sol:EventManagement",
								"label": "ticket_price",
								"offset": 0,
								"slot": "3",
								"type": "t_uint256"
							},
							{
								"astId": 11,
								"contract": "Projects/02_Event_Management.sol:EventManagement",
								"label": "ticket_count",
								"offset": 0,
								"slot": "4",
								"type": "t_uint256"
							}
						],
						"numberOfBytes": "160"
					},
					"t_uint256": {
						"encoding": "inplace",
						"label": "uint256",
						"numberOfBytes": "32"
					}
				}
			},
			"userdoc": {
				"kind": "user",
				"methods": {},
				"version": 1
			}
		}
	}
}