{
	"Projects/02_Event_Management.sol": {
		"EventManagement": {
			"abi": [
				{
					"inputs": [],
					"stateMutability": "nonpayable",
					"type": "constructor"
				},
				{
					"inputs": [
						{
							"internalType": "uint256",
							"name": "_event_index",
							"type": "uint256"
						},
						{
							"internalType": "uint256",
							"name": "_ticket_quantity",
							"type": "uint256"
						}
					],
					"name": "buy_ticket",
					"outputs": [],
					"stateMutability": "payable",
					"type": "function"
				},
				{
					"inputs": [
						{
							"internalType": "string",
							"name": "_event_name",
							"type": "string"
						},
						{
							"internalType": "uint256",
							"name": "_event_date",
							"type": "uint256"
						},
						{
							"internalType": "uint256",
							"name": "_ticket_price",
							"type": "uint256"
						},
						{
							"internalType": "uint256",
							"name": "_ticket_count",
							"type": "uint256"
						}
					],
					"name": "create_event",
					"outputs": [],
					"stateMutability": "payable",
					"type": "function"
				},
				{
					"inputs": [
						{
							"internalType": "uint256",
							"name": "",
							"type": "uint256"
						}
					],
					"name": "events",
					"outputs": [
						{
							"internalType": "address",
							"name": "organizer",
							"type": "address"
						},
						{
							"internalType": "string",
							"name": "event_name",
							"type": "string"
						},
						{
							"internalType": "uint256",
							"name": "event_date",
							"type": "uint256"
						},
						{
							"internalType": "uint256",
							"name": "ticket_price",
							"type": "uint256"
						},
						{
							"internalType": "uint256",
							"name": "ticket_count",
							"type": "uint256"
						}
					],
					"stateMutability": "view",
					"type": "function"
				}
			],
			"devdoc": {
				"kind": "dev",
				"methods": {},
				"version": 1
			},
			"evm": {
				"assembly": "    /* \"Projects/02_Event_Management.sol\":75:1604  contract EventManagement {\r... */\n  mstore(0x40, 0x80)\n    /* \"Projects/02_Event_Management.sol\":354:423  constructor() {\r... */\n  callvalue\n  dup1\n  iszero\n  tag_1\n  jumpi\n  0x00\n  dup1\n  revert\ntag_1:\n  pop\n    /* \"Projects/02_Event_Management.sol\":404:414  msg.sender */\n  caller\n    /* \"Projects/02_Event_Management.sol\":379:393  owner_contract */\n  0x00\n  dup1\n    /* \"Projects/02_Event_Management.sol\":379:415  owner_contract = payable(msg.sender) */\n  0x0100\n  exp\n  dup2\n  sload\n  dup2\n  0xffffffffffffffffffffffffffffffffffffffff\n  mul\n  not\n  and\n  swap1\n  dup4\n  0xffffffffffffffffffffffffffffffffffffffff\n  and\n  mul\n  or\n  swap1\n  sstore\n  pop\n    /* \"Projects/02_Event_Management.sol\":75:1604  contract EventManagement {\r... */\n  dataSize(sub_0)\n  dup1\n  dataOffset(sub_0)\n  0x00\n  codecopy\n  0x00\n  return\nstop\n\nsub_0: assembly {\n        /* \"Projects/02_Event_Management.sol\":75:1604  contract EventManagement {\r... */\n      mstore(0x40, 0x80)\n      jumpi(tag_1, lt(calldatasize, 0x04))\n      shr(0xe0, calldataload(0x00))\n      dup1\n      0x0b791430\n      eq\n      tag_2\n      jumpi\n      dup1\n      0xc71e7edc\n      eq\n      tag_3\n      jumpi\n      dup1\n      0xee3bf803\n      eq\n      tag_4\n      jumpi\n    tag_1:\n      0x00\n      dup1\n      revert\n        /* \"Projects/02_Event_Management.sol\":322:343  Event[] public events */\n    tag_2:\n      callvalue\n      dup1\n      iszero\n      tag_5\n      jumpi\n      0x00\n      dup1\n      revert\n    tag_5:\n      pop\n      tag_6\n      0x04\n      dup1\n      calldatasize\n      sub\n      dup2\n      add\n      swap1\n      tag_7\n      swap2\n      swap1\n      tag_8\n      jump\t// in\n    tag_7:\n      tag_9\n      jump\t// in\n    tag_6:\n      mload(0x40)\n      tag_10\n      swap6\n      swap5\n      swap4\n      swap3\n      swap2\n      swap1\n      tag_11\n      jump\t// in\n    tag_10:\n      mload(0x40)\n      dup1\n      swap2\n      sub\n      swap1\n      return\n        /* \"Projects/02_Event_Management.sol\":1466:1599  function buy_ticket(uint _event_index, uint _ticket_quantity) public payable {\r... */\n    tag_3:\n      tag_12\n      0x04\n      dup1\n      calldatasize\n      sub\n      dup2\n      add\n      swap1\n      tag_13\n      swap2\n      swap1\n      tag_14\n      jump\t// in\n    tag_13:\n      tag_15\n      jump\t// in\n    tag_12:\n      stop\n        /* \"Projects/02_Event_Management.sol\":458:1458  function create_event(string memory _event_name, uint _event_date, uint _ticket_price, uint _ticket_count) public payable {\r... */\n    tag_4:\n      tag_16\n      0x04\n      dup1\n      calldatasize\n      sub\n      dup2\n      add\n      swap1\n      tag_17\n      swap2\n      swap1\n      tag_18\n      jump\t// in\n    tag_17:\n      tag_19\n      jump\t// in\n    tag_16:\n      stop\n        /* \"Projects/02_Event_Management.sol\":322:343  Event[] public events */\n    tag_9:\n      0x01\n      dup2\n      dup2\n      sload\n      dup2\n      lt\n      tag_20\n      jumpi\n      0x00\n      dup1\n      revert\n    tag_20:\n      swap1\n      0x00\n      mstore\n      keccak256(0x00, 0x20)\n      swap1\n      0x05\n      mul\n      add\n      0x00\n      swap2\n      pop\n      swap1\n      pop\n      dup1\n      0x00\n      add\n      0x00\n      swap1\n      sload\n      swap1\n      0x0100\n      exp\n      swap1\n      div\n      0xffffffffffffffffffffffffffffffffffffffff\n      and\n      swap1\n      dup1\n      0x01\n      add\n      dup1\n      sload\n      tag_22\n      swap1\n      tag_23\n      jump\t// in\n    tag_22:\n      dup1\n      0x1f\n      add\n      0x20\n      dup1\n      swap2\n      div\n      mul\n      0x20\n      add\n      mload(0x40)\n      swap1\n      dup2\n      add\n      0x40\n      mstore\n      dup1\n      swap3\n      swap2\n      swap1\n      dup2\n      dup2\n      mstore\n      0x20\n      add\n      dup3\n      dup1\n      sload\n      tag_24\n      swap1\n      tag_23\n      jump\t// in\n    tag_24:\n      dup1\n      iszero\n      tag_25\n      jumpi\n      dup1\n      0x1f\n      lt\n      tag_26\n      jumpi\n      0x0100\n      dup1\n      dup4\n      sload\n      div\n      mul\n      dup4\n      mstore\n      swap2\n      0x20\n      add\n      swap2\n      jump(tag_25)\n    tag_26:\n      dup3\n      add\n      swap2\n      swap1\n      0x00\n      mstore\n      keccak256(0x00, 0x20)\n      swap1\n    tag_27:\n      dup2\n      sload\n      dup2\n      mstore\n      swap1\n      0x01\n      add\n      swap1\n      0x20\n      add\n      dup1\n      dup4\n      gt\n      tag_27\n      jumpi\n      dup3\n      swap1\n      sub\n      0x1f\n      and\n      dup3\n      add\n      swap2\n    tag_25:\n      pop\n      pop\n      pop\n      pop\n      pop\n      swap1\n      dup1\n      0x02\n      add\n      sload\n      swap1\n      dup1\n      0x03\n      add\n      sload\n      swap1\n      dup1\n      0x04\n      add\n      sload\n      swap1\n      pop\n      dup6\n      jump\t// out\n        /* \"Projects/02_Event_Management.sol\":1466:1599  function buy_ticket(uint _event_index, uint _ticket_quantity) public payable {\r... */\n    tag_15:\n        /* \"Projects/02_Event_Management.sol\":1577:1583  events */\n      0x01\n        /* \"Projects/02_Event_Management.sol\":1577:1590  events.length */\n      dup1\n      sload\n      swap1\n      pop\n        /* \"Projects/02_Event_Management.sol\":1562:1574  _event_index */\n      dup3\n        /* \"Projects/02_Event_Management.sol\":1562:1590  _event_index < events.length */\n      lt\n        /* \"Projects/02_Event_Management.sol\":1554:1591  require(_event_index < events.length) */\n      tag_29\n      jumpi\n      0x00\n      dup1\n      revert\n    tag_29:\n        /* \"Projects/02_Event_Management.sol\":1466:1599  function buy_ticket(uint _event_index, uint _ticket_quantity) public payable {\r... */\n      pop\n      pop\n      jump\t// out\n        /* \"Projects/02_Event_Management.sol\":458:1458  function create_event(string memory _event_name, uint _event_date, uint _ticket_price, uint _ticket_count) public payable {\r... */\n    tag_19:\n        /* \"Projects/02_Event_Management.sol\":654:668  owner_contract */\n      0x00\n      dup1\n      sload\n      swap1\n      0x0100\n      exp\n      swap1\n      div\n      0xffffffffffffffffffffffffffffffffffffffff\n      and\n        /* \"Projects/02_Event_Management.sol\":640:668  msg.sender != owner_contract */\n      0xffffffffffffffffffffffffffffffffffffffff\n      and\n        /* \"Projects/02_Event_Management.sol\":640:650  msg.sender */\n      caller\n        /* \"Projects/02_Event_Management.sol\":640:668  msg.sender != owner_contract */\n      0xffffffffffffffffffffffffffffffffffffffff\n      and\n      eq\n      iszero\n        /* \"Projects/02_Event_Management.sol\":640:696  msg.sender != owner_contract && msg.sender != address(0) */\n      dup1\n      iszero\n      tag_31\n      jumpi\n      pop\n        /* \"Projects/02_Event_Management.sol\":694:695  0 */\n      0x00\n        /* \"Projects/02_Event_Management.sol\":672:696  msg.sender != address(0) */\n      0xffffffffffffffffffffffffffffffffffffffff\n      and\n        /* \"Projects/02_Event_Management.sol\":672:682  msg.sender */\n      caller\n        /* \"Projects/02_Event_Management.sol\":672:696  msg.sender != address(0) */\n      0xffffffffffffffffffffffffffffffffffffffff\n      and\n      eq\n      iszero\n        /* \"Projects/02_Event_Management.sol\":640:696  msg.sender != owner_contract && msg.sender != address(0) */\n    tag_31:\n        /* \"Projects/02_Event_Management.sol\":632:751  require(msg.sender != owner_contract && msg.sender != address(0), \"Enter a valid address or owner can't host an event\") */\n      tag_32\n      jumpi\n      mload(0x40)\n      0x08c379a000000000000000000000000000000000000000000000000000000000\n      dup2\n      mstore\n      0x04\n      add\n      tag_33\n      swap1\n      tag_34\n      jump\t// in\n    tag_33:\n      mload(0x40)\n      dup1\n      swap2\n      sub\n      swap1\n      revert\n    tag_32:\n        /* \"Projects/02_Event_Management.sol\":785:786  0 */\n      0x00\n        /* \"Projects/02_Event_Management.sol\":770:781  _event_date */\n      dup4\n        /* \"Projects/02_Event_Management.sol\":770:786  _event_date != 0 */\n      eq\n      iszero\n        /* \"Projects/02_Event_Management.sol\":770:819  _event_date != 0 && _event_date > block.timestamp */\n      dup1\n      iszero\n      tag_35\n      jumpi\n      pop\n        /* \"Projects/02_Event_Management.sol\":804:819  block.timestamp */\n      timestamp\n        /* \"Projects/02_Event_Management.sol\":790:801  _event_date */\n      dup4\n        /* \"Projects/02_Event_Management.sol\":790:819  _event_date > block.timestamp */\n      gt\n        /* \"Projects/02_Event_Management.sol\":770:819  _event_date != 0 && _event_date > block.timestamp */\n    tag_35:\n        /* \"Projects/02_Event_Management.sol\":762:859  require(_event_date != 0 && _event_date > block.timestamp, \"Please enter a valid date in future\") */\n      tag_36\n      jumpi\n      mload(0x40)\n      0x08c379a000000000000000000000000000000000000000000000000000000000\n      dup2\n      mstore\n      0x04\n      add\n      tag_37\n      swap1\n      tag_38\n      jump\t// in\n    tag_37:\n      mload(0x40)\n      dup1\n      swap2\n      sub\n      swap1\n      revert\n    tag_36:\n        /* \"Projects/02_Event_Management.sol\":894:895  0 */\n      0x00\n        /* \"Projects/02_Event_Management.sol\":878:891  _ticket_count */\n      dup2\n        /* \"Projects/02_Event_Management.sol\":878:895  _ticket_count > 0 */\n      gt\n        /* \"Projects/02_Event_Management.sol\":870:926  require(_ticket_count > 0, \"Please create some tickets\") */\n      tag_39\n      jumpi\n      mload(0x40)\n      0x08c379a000000000000000000000000000000000000000000000000000000000\n      dup2\n      mstore\n      0x04\n      add\n      tag_40\n      swap1\n      tag_41\n      jump\t// in\n    tag_40:\n      mload(0x40)\n      dup1\n      swap2\n      sub\n      swap1\n      revert\n    tag_39:\n        /* \"Projects/02_Event_Management.sol\":1021:1022  0 */\n      0x00\n        /* \"Projects/02_Event_Management.sol\":1004:1017  _ticket_price */\n      dup3\n        /* \"Projects/02_Event_Management.sol\":1004:1022  _ticket_price != 0 */\n      eq\n        /* \"Projects/02_Event_Management.sol\":1000:1137  if (_ticket_price != 0) {\r... */\n      tag_42\n      jumpi\n        /* \"Projects/02_Event_Management.sol\":1060:1068  1000 wei */\n      0x03e8\n        /* \"Projects/02_Event_Management.sol\":1047:1056  msg.value */\n      callvalue\n        /* \"Projects/02_Event_Management.sol\":1047:1068  msg.value == 1000 wei */\n      eq\n        /* \"Projects/02_Event_Management.sol\":1039:1125  require(msg.value == 1000 wei, \"Please pay sufficient fund for organizing your event\") */\n      tag_43\n      jumpi\n      mload(0x40)\n      0x08c379a000000000000000000000000000000000000000000000000000000000\n      dup2\n      mstore\n      0x04\n      add\n      tag_44\n      swap1\n      tag_45\n      jump\t// in\n    tag_44:\n      mload(0x40)\n      dup1\n      swap2\n      sub\n      swap1\n      revert\n    tag_43:\n        /* \"Projects/02_Event_Management.sol\":1000:1137  if (_ticket_price != 0) {\r... */\n    tag_42:\n        /* \"Projects/02_Event_Management.sol\":1211:1233  Event memory new_event */\n      0x00\n        /* \"Projects/02_Event_Management.sol\":1236:1305  Event(msg.sender,_event_name,_event_date,_ticket_price,_ticket_count) */\n      mload(0x40)\n      dup1\n      0xa0\n      add\n      0x40\n      mstore\n      dup1\n        /* \"Projects/02_Event_Management.sol\":1242:1252  msg.sender */\n      caller\n        /* \"Projects/02_Event_Management.sol\":1236:1305  Event(msg.sender,_event_name,_event_date,_ticket_price,_ticket_count) */\n      0xffffffffffffffffffffffffffffffffffffffff\n      and\n      dup2\n      mstore\n      0x20\n      add\n        /* \"Projects/02_Event_Management.sol\":1253:1264  _event_name */\n      dup7\n        /* \"Projects/02_Event_Management.sol\":1236:1305  Event(msg.sender,_event_name,_event_date,_ticket_price,_ticket_count) */\n      dup2\n      mstore\n      0x20\n      add\n        /* \"Projects/02_Event_Management.sol\":1265:1276  _event_date */\n      dup6\n        /* \"Projects/02_Event_Management.sol\":1236:1305  Event(msg.sender,_event_name,_event_date,_ticket_price,_ticket_count) */\n      dup2\n      mstore\n      0x20\n      add\n        /* \"Projects/02_Event_Management.sol\":1277:1290  _ticket_price */\n      dup5\n        /* \"Projects/02_Event_Management.sol\":1236:1305  Event(msg.sender,_event_name,_event_date,_ticket_price,_ticket_count) */\n      dup2\n      mstore\n      0x20\n      add\n        /* \"Projects/02_Event_Management.sol\":1291:1304  _ticket_count */\n      dup4\n        /* \"Projects/02_Event_Management.sol\":1236:1305  Event(msg.sender,_event_name,_event_date,_ticket_price,_ticket_count) */\n      dup2\n      mstore\n      pop\n        /* \"Projects/02_Event_Management.sol\":1211:1305  Event memory new_event = Event(msg.sender,_event_name,_event_date,_ticket_price,_ticket_count) */\n      swap1\n      pop\n        /* \"Projects/02_Event_Management.sol\":1316:1322  events */\n      0x01\n        /* \"Projects/02_Event_Management.sol\":1328:1337  new_event */\n      dup2\n        /* \"Projects/02_Event_Management.sol\":1316:1338  events.push(new_event) */\n      swap1\n      dup1\n      0x01\n      dup2\n      sload\n      add\n      dup1\n      dup3\n      sstore\n      dup1\n      swap2\n      pop\n      pop\n      0x01\n      swap1\n      sub\n      swap1\n      0x00\n      mstore\n      keccak256(0x00, 0x20)\n      swap1\n      0x05\n      mul\n      add\n      0x00\n      swap1\n      swap2\n      swap1\n      swap2\n      swap1\n      swap2\n      pop\n      0x00\n      dup3\n      add\n      mload\n      dup2\n      0x00\n      add\n      exp(0x0100, 0x00)\n      dup2\n      sload\n      dup2\n      0xffffffffffffffffffffffffffffffffffffffff\n      mul\n      not\n      and\n      swap1\n      dup4\n      0xffffffffffffffffffffffffffffffffffffffff\n      and\n      mul\n      or\n      swap1\n      sstore\n      pop\n      0x20\n      dup3\n      add\n      mload\n      dup2\n      0x01\n      add\n      swap1\n      dup1\n      mload\n      swap1\n      0x20\n      add\n      swap1\n      tag_47\n      swap3\n      swap2\n      swap1\n      tag_48\n      jump\t// in\n    tag_47:\n      pop\n      0x40\n      dup3\n      add\n      mload\n      dup2\n      0x02\n      add\n      sstore\n      0x60\n      dup3\n      add\n      mload\n      dup2\n      0x03\n      add\n      sstore\n      0x80\n      dup3\n      add\n      mload\n      dup2\n      0x04\n      add\n      sstore\n      pop\n      pop\n        /* \"Projects/02_Event_Management.sol\":1416:1430  owner_contract */\n      0x00\n      dup1\n      sload\n      swap1\n      0x0100\n      exp\n      swap1\n      div\n      0xffffffffffffffffffffffffffffffffffffffff\n      and\n        /* \"Projects/02_Event_Management.sol\":1416:1439  owner_contract.transfer */\n      0xffffffffffffffffffffffffffffffffffffffff\n      and\n        /* \"Projects/02_Event_Management.sol\":1416:1450  owner_contract.transfer(msg.value) */\n      0x08fc\n        /* \"Projects/02_Event_Management.sol\":1440:1449  msg.value */\n      callvalue\n        /* \"Projects/02_Event_Management.sol\":1416:1450  owner_contract.transfer(msg.value) */\n      swap1\n      dup2\n      iszero\n      mul\n      swap1\n      mload(0x40)\n      0x00\n      mload(0x40)\n      dup1\n      dup4\n      sub\n      dup2\n      dup6\n      dup9\n      dup9\n      call\n      swap4\n      pop\n      pop\n      pop\n      pop\n      iszero\n      dup1\n      iszero\n      tag_50\n      jumpi\n      returndatasize\n      0x00\n      dup1\n      returndatacopy\n      revert(0x00, returndatasize)\n    tag_50:\n      pop\n        /* \"Projects/02_Event_Management.sol\":580:1458  {\r... */\n      pop\n        /* \"Projects/02_Event_Management.sol\":458:1458  function create_event(string memory _event_name, uint _event_date, uint _ticket_price, uint _ticket_count) public payable {\r... */\n      pop\n      pop\n      pop\n      pop\n      jump\t// out\n    tag_48:\n      dup3\n      dup1\n      sload\n      tag_51\n      swap1\n      tag_23\n      jump\t// in\n    tag_51:\n      swap1\n      0x00\n      mstore\n      keccak256(0x00, 0x20)\n      swap1\n      0x1f\n      add\n      0x20\n      swap1\n      div\n      dup2\n      add\n      swap3\n      dup3\n      tag_53\n      jumpi\n      0x00\n      dup6\n      sstore\n      jump(tag_52)\n    tag_53:\n      dup3\n      0x1f\n      lt\n      tag_54\n      jumpi\n      dup1\n      mload\n      not(0xff)\n      and\n      dup4\n      dup1\n      add\n      or\n      dup6\n      sstore\n      jump(tag_52)\n    tag_54:\n      dup3\n      dup1\n      add\n      0x01\n      add\n      dup6\n      sstore\n      dup3\n      iszero\n      tag_52\n      jumpi\n      swap2\n      dup3\n      add\n    tag_55:\n      dup3\n      dup2\n      gt\n      iszero\n      tag_56\n      jumpi\n      dup3\n      mload\n      dup3\n      sstore\n      swap2\n      0x20\n      add\n      swap2\n      swap1\n      0x01\n      add\n      swap1\n      jump(tag_55)\n    tag_56:\n    tag_52:\n      pop\n      swap1\n      pop\n      tag_57\n      swap2\n      swap1\n      tag_58\n      jump\t// in\n    tag_57:\n      pop\n      swap1\n      jump\t// out\n    tag_58:\n    tag_59:\n      dup1\n      dup3\n      gt\n      iszero\n      tag_60\n      jumpi\n      0x00\n      dup2\n      0x00\n      swap1\n      sstore\n      pop\n      0x01\n      add\n      jump(tag_59)\n    tag_60:\n      pop\n      swap1\n      jump\t// out\n        /* \"#utility.yul\":7:419   */\n    tag_62:\n        /* \"#utility.yul\":85:90   */\n      0x00\n        /* \"#utility.yul\":110:176   */\n      tag_64\n        /* \"#utility.yul\":126:175   */\n      tag_65\n        /* \"#utility.yul\":168:174   */\n      dup5\n        /* \"#utility.yul\":126:175   */\n      tag_66\n      jump\t// in\n    tag_65:\n        /* \"#utility.yul\":110:176   */\n      tag_67\n      jump\t// in\n    tag_64:\n        /* \"#utility.yul\":101:176   */\n      swap1\n      pop\n        /* \"#utility.yul\":199:205   */\n      dup3\n        /* \"#utility.yul\":192:197   */\n      dup2\n        /* \"#utility.yul\":185:206   */\n      mstore\n        /* \"#utility.yul\":237:241   */\n      0x20\n        /* \"#utility.yul\":230:235   */\n      dup2\n        /* \"#utility.yul\":226:242   */\n      add\n        /* \"#utility.yul\":275:278   */\n      dup5\n        /* \"#utility.yul\":266:272   */\n      dup5\n        /* \"#utility.yul\":261:264   */\n      dup5\n        /* \"#utility.yul\":257:273   */\n      add\n        /* \"#utility.yul\":254:279   */\n      gt\n        /* \"#utility.yul\":251:363   */\n      iszero\n      tag_68\n      jumpi\n        /* \"#utility.yul\":282:361   */\n      tag_69\n      tag_70\n      jump\t// in\n    tag_69:\n        /* \"#utility.yul\":251:363   */\n    tag_68:\n        /* \"#utility.yul\":372:413   */\n      tag_71\n        /* \"#utility.yul\":406:412   */\n      dup5\n        /* \"#utility.yul\":401:404   */\n      dup3\n        /* \"#utility.yul\":396:399   */\n      dup6\n        /* \"#utility.yul\":372:413   */\n      tag_72\n      jump\t// in\n    tag_71:\n        /* \"#utility.yul\":91:419   */\n      pop\n        /* \"#utility.yul\":7:419   */\n      swap4\n      swap3\n      pop\n      pop\n      pop\n      jump\t// out\n        /* \"#utility.yul\":439:779   */\n    tag_73:\n        /* \"#utility.yul\":495:500   */\n      0x00\n        /* \"#utility.yul\":544:547   */\n      dup3\n        /* \"#utility.yul\":537:541   */\n      0x1f\n        /* \"#utility.yul\":529:535   */\n      dup4\n        /* \"#utility.yul\":525:542   */\n      add\n        /* \"#utility.yul\":521:548   */\n      slt\n        /* \"#utility.yul\":511:633   */\n      tag_75\n      jumpi\n        /* \"#utility.yul\":552:631   */\n      tag_76\n      tag_77\n      jump\t// in\n    tag_76:\n        /* \"#utility.yul\":511:633   */\n    tag_75:\n        /* \"#utility.yul\":669:675   */\n      dup2\n        /* \"#utility.yul\":656:676   */\n      calldataload\n        /* \"#utility.yul\":694:773   */\n      tag_78\n        /* \"#utility.yul\":769:772   */\n      dup5\n        /* \"#utility.yul\":761:767   */\n      dup3\n        /* \"#utility.yul\":754:758   */\n      0x20\n        /* \"#utility.yul\":746:752   */\n      dup7\n        /* \"#utility.yul\":742:759   */\n      add\n        /* \"#utility.yul\":694:773   */\n      tag_62\n      jump\t// in\n    tag_78:\n        /* \"#utility.yul\":685:773   */\n      swap2\n      pop\n        /* \"#utility.yul\":501:779   */\n      pop\n        /* \"#utility.yul\":439:779   */\n      swap3\n      swap2\n      pop\n      pop\n      jump\t// out\n        /* \"#utility.yul\":785:924   */\n    tag_79:\n        /* \"#utility.yul\":831:836   */\n      0x00\n        /* \"#utility.yul\":869:875   */\n      dup2\n        /* \"#utility.yul\":856:876   */\n      calldataload\n        /* \"#utility.yul\":847:876   */\n      swap1\n      pop\n        /* \"#utility.yul\":885:918   */\n      tag_81\n        /* \"#utility.yul\":912:917   */\n      dup2\n        /* \"#utility.yul\":885:918   */\n      tag_82\n      jump\t// in\n    tag_81:\n        /* \"#utility.yul\":785:924   */\n      swap3\n      swap2\n      pop\n      pop\n      jump\t// out\n        /* \"#utility.yul\":930:1875   */\n    tag_18:\n        /* \"#utility.yul\":1026:1032   */\n      0x00\n        /* \"#utility.yul\":1034:1040   */\n      dup1\n        /* \"#utility.yul\":1042:1048   */\n      0x00\n        /* \"#utility.yul\":1050:1056   */\n      dup1\n        /* \"#utility.yul\":1099:1102   */\n      0x80\n        /* \"#utility.yul\":1087:1096   */\n      dup6\n        /* \"#utility.yul\":1078:1085   */\n      dup8\n        /* \"#utility.yul\":1074:1097   */\n      sub\n        /* \"#utility.yul\":1070:1103   */\n      slt\n        /* \"#utility.yul\":1067:1187   */\n      iszero\n      tag_84\n      jumpi\n        /* \"#utility.yul\":1106:1185   */\n      tag_85\n      tag_86\n      jump\t// in\n    tag_85:\n        /* \"#utility.yul\":1067:1187   */\n    tag_84:\n        /* \"#utility.yul\":1254:1255   */\n      0x00\n        /* \"#utility.yul\":1243:1252   */\n      dup6\n        /* \"#utility.yul\":1239:1256   */\n      add\n        /* \"#utility.yul\":1226:1257   */\n      calldataload\n        /* \"#utility.yul\":1284:1302   */\n      0xffffffffffffffff\n        /* \"#utility.yul\":1276:1282   */\n      dup2\n        /* \"#utility.yul\":1273:1303   */\n      gt\n        /* \"#utility.yul\":1270:1387   */\n      iszero\n      tag_87\n      jumpi\n        /* \"#utility.yul\":1306:1385   */\n      tag_88\n      tag_89\n      jump\t// in\n    tag_88:\n        /* \"#utility.yul\":1270:1387   */\n    tag_87:\n        /* \"#utility.yul\":1411:1474   */\n      tag_90\n        /* \"#utility.yul\":1466:1473   */\n      dup8\n        /* \"#utility.yul\":1457:1463   */\n      dup3\n        /* \"#utility.yul\":1446:1455   */\n      dup9\n        /* \"#utility.yul\":1442:1464   */\n      add\n        /* \"#utility.yul\":1411:1474   */\n      tag_73\n      jump\t// in\n    tag_90:\n        /* \"#utility.yul\":1401:1474   */\n      swap5\n      pop\n        /* \"#utility.yul\":1197:1484   */\n      pop\n        /* \"#utility.yul\":1523:1525   */\n      0x20\n        /* \"#utility.yul\":1549:1602   */\n      tag_91\n        /* \"#utility.yul\":1594:1601   */\n      dup8\n        /* \"#utility.yul\":1585:1591   */\n      dup3\n        /* \"#utility.yul\":1574:1583   */\n      dup9\n        /* \"#utility.yul\":1570:1592   */\n      add\n        /* \"#utility.yul\":1549:1602   */\n      tag_79\n      jump\t// in\n    tag_91:\n        /* \"#utility.yul\":1539:1602   */\n      swap4\n      pop\n        /* \"#utility.yul\":1494:1612   */\n      pop\n        /* \"#utility.yul\":1651:1653   */\n      0x40\n        /* \"#utility.yul\":1677:1730   */\n      tag_92\n        /* \"#utility.yul\":1722:1729   */\n      dup8\n        /* \"#utility.yul\":1713:1719   */\n      dup3\n        /* \"#utility.yul\":1702:1711   */\n      dup9\n        /* \"#utility.yul\":1698:1720   */\n      add\n        /* \"#utility.yul\":1677:1730   */\n      tag_79\n      jump\t// in\n    tag_92:\n        /* \"#utility.yul\":1667:1730   */\n      swap3\n      pop\n        /* \"#utility.yul\":1622:1740   */\n      pop\n        /* \"#utility.yul\":1779:1781   */\n      0x60\n        /* \"#utility.yul\":1805:1858   */\n      tag_93\n        /* \"#utility.yul\":1850:1857   */\n      dup8\n        /* \"#utility.yul\":1841:1847   */\n      dup3\n        /* \"#utility.yul\":1830:1839   */\n      dup9\n        /* \"#utility.yul\":1826:1848   */\n      add\n        /* \"#utility.yul\":1805:1858   */\n      tag_79\n      jump\t// in\n    tag_93:\n        /* \"#utility.yul\":1795:1858   */\n      swap2\n      pop\n        /* \"#utility.yul\":1750:1868   */\n      pop\n        /* \"#utility.yul\":930:1875   */\n      swap3\n      swap6\n      swap2\n      swap5\n      pop\n      swap3\n      pop\n      jump\t// out\n        /* \"#utility.yul\":1881:2210   */\n    tag_8:\n        /* \"#utility.yul\":1940:1946   */\n      0x00\n        /* \"#utility.yul\":1989:1991   */\n      0x20\n        /* \"#utility.yul\":1977:1986   */\n      dup3\n        /* \"#utility.yul\":1968:1975   */\n      dup5\n        /* \"#utility.yul\":1964:1987   */\n      sub\n        /* \"#utility.yul\":1960:1992   */\n      slt\n        /* \"#utility.yul\":1957:2076   */\n      iszero\n      tag_95\n      jumpi\n        /* \"#utility.yul\":1995:2074   */\n      tag_96\n      tag_86\n      jump\t// in\n    tag_96:\n        /* \"#utility.yul\":1957:2076   */\n    tag_95:\n        /* \"#utility.yul\":2115:2116   */\n      0x00\n        /* \"#utility.yul\":2140:2193   */\n      tag_97\n        /* \"#utility.yul\":2185:2192   */\n      dup5\n        /* \"#utility.yul\":2176:2182   */\n      dup3\n        /* \"#utility.yul\":2165:2174   */\n      dup6\n        /* \"#utility.yul\":2161:2183   */\n      add\n        /* \"#utility.yul\":2140:2193   */\n      tag_79\n      jump\t// in\n    tag_97:\n        /* \"#utility.yul\":2130:2193   */\n      swap2\n      pop\n        /* \"#utility.yul\":2086:2203   */\n      pop\n        /* \"#utility.yul\":1881:2210   */\n      swap3\n      swap2\n      pop\n      pop\n      jump\t// out\n        /* \"#utility.yul\":2216:2690   */\n    tag_14:\n        /* \"#utility.yul\":2284:2290   */\n      0x00\n        /* \"#utility.yul\":2292:2298   */\n      dup1\n        /* \"#utility.yul\":2341:2343   */\n      0x40\n        /* \"#utility.yul\":2329:2338   */\n      dup4\n        /* \"#utility.yul\":2320:2327   */\n      dup6\n        /* \"#utility.yul\":2316:2339   */\n      sub\n        /* \"#utility.yul\":2312:2344   */\n      slt\n        /* \"#utility.yul\":2309:2428   */\n      iszero\n      tag_99\n      jumpi\n        /* \"#utility.yul\":2347:2426   */\n      tag_100\n      tag_86\n      jump\t// in\n    tag_100:\n        /* \"#utility.yul\":2309:2428   */\n    tag_99:\n        /* \"#utility.yul\":2467:2468   */\n      0x00\n        /* \"#utility.yul\":2492:2545   */\n      tag_101\n        /* \"#utility.yul\":2537:2544   */\n      dup6\n        /* \"#utility.yul\":2528:2534   */\n      dup3\n        /* \"#utility.yul\":2517:2526   */\n      dup7\n        /* \"#utility.yul\":2513:2535   */\n      add\n        /* \"#utility.yul\":2492:2545   */\n      tag_79\n      jump\t// in\n    tag_101:\n        /* \"#utility.yul\":2482:2545   */\n      swap3\n      pop\n        /* \"#utility.yul\":2438:2555   */\n      pop\n        /* \"#utility.yul\":2594:2596   */\n      0x20\n        /* \"#utility.yul\":2620:2673   */\n      tag_102\n        /* \"#utility.yul\":2665:2672   */\n      dup6\n        /* \"#utility.yul\":2656:2662   */\n      dup3\n        /* \"#utility.yul\":2645:2654   */\n      dup7\n        /* \"#utility.yul\":2641:2663   */\n      add\n        /* \"#utility.yul\":2620:2673   */\n      tag_79\n      jump\t// in\n    tag_102:\n        /* \"#utility.yul\":2610:2673   */\n      swap2\n      pop\n        /* \"#utility.yul\":2565:2683   */\n      pop\n        /* \"#utility.yul\":2216:2690   */\n      swap3\n      pop\n      swap3\n      swap1\n      pop\n      jump\t// out\n        /* \"#utility.yul\":2696:2814   */\n    tag_103:\n        /* \"#utility.yul\":2783:2807   */\n      tag_105\n        /* \"#utility.yul\":2801:2806   */\n      dup2\n        /* \"#utility.yul\":2783:2807   */\n      tag_106\n      jump\t// in\n    tag_105:\n        /* \"#utility.yul\":2778:2781   */\n      dup3\n        /* \"#utility.yul\":2771:2808   */\n      mstore\n        /* \"#utility.yul\":2696:2814   */\n      pop\n      pop\n      jump\t// out\n        /* \"#utility.yul\":2820:3184   */\n    tag_107:\n        /* \"#utility.yul\":2908:2911   */\n      0x00\n        /* \"#utility.yul\":2936:2975   */\n      tag_109\n        /* \"#utility.yul\":2969:2974   */\n      dup3\n        /* \"#utility.yul\":2936:2975   */\n      tag_110\n      jump\t// in\n    tag_109:\n        /* \"#utility.yul\":2991:3062   */\n      tag_111\n        /* \"#utility.yul\":3055:3061   */\n      dup2\n        /* \"#utility.yul\":3050:3053   */\n      dup6\n        /* \"#utility.yul\":2991:3062   */\n      tag_112\n      jump\t// in\n    tag_111:\n        /* \"#utility.yul\":2984:3062   */\n      swap4\n      pop\n        /* \"#utility.yul\":3071:3123   */\n      tag_113\n        /* \"#utility.yul\":3116:3122   */\n      dup2\n        /* \"#utility.yul\":3111:3114   */\n      dup6\n        /* \"#utility.yul\":3104:3108   */\n      0x20\n        /* \"#utility.yul\":3097:3102   */\n      dup7\n        /* \"#utility.yul\":3093:3109   */\n      add\n        /* \"#utility.yul\":3071:3123   */\n      tag_114\n      jump\t// in\n    tag_113:\n        /* \"#utility.yul\":3148:3177   */\n      tag_115\n        /* \"#utility.yul\":3170:3176   */\n      dup2\n        /* \"#utility.yul\":3148:3177   */\n      tag_116\n      jump\t// in\n    tag_115:\n        /* \"#utility.yul\":3143:3146   */\n      dup5\n        /* \"#utility.yul\":3139:3178   */\n      add\n        /* \"#utility.yul\":3132:3178   */\n      swap2\n      pop\n        /* \"#utility.yul\":2912:3184   */\n      pop\n        /* \"#utility.yul\":2820:3184   */\n      swap3\n      swap2\n      pop\n      pop\n      jump\t// out\n        /* \"#utility.yul\":3190:3556   */\n    tag_117:\n        /* \"#utility.yul\":3332:3335   */\n      0x00\n        /* \"#utility.yul\":3353:3420   */\n      tag_119\n        /* \"#utility.yul\":3417:3419   */\n      0x34\n        /* \"#utility.yul\":3412:3415   */\n      dup4\n        /* \"#utility.yul\":3353:3420   */\n      tag_112\n      jump\t// in\n    tag_119:\n        /* \"#utility.yul\":3346:3420   */\n      swap2\n      pop\n        /* \"#utility.yul\":3429:3522   */\n      tag_120\n        /* \"#utility.yul\":3518:3521   */\n      dup3\n        /* \"#utility.yul\":3429:3522   */\n      tag_121\n      jump\t// in\n    tag_120:\n        /* \"#utility.yul\":3547:3549   */\n      0x40\n        /* \"#utility.yul\":3542:3545   */\n      dup3\n        /* \"#utility.yul\":3538:3550   */\n      add\n        /* \"#utility.yul\":3531:3550   */\n      swap1\n      pop\n        /* \"#utility.yul\":3190:3556   */\n      swap2\n      swap1\n      pop\n      jump\t// out\n        /* \"#utility.yul\":3562:3928   */\n    tag_122:\n        /* \"#utility.yul\":3704:3707   */\n      0x00\n        /* \"#utility.yul\":3725:3792   */\n      tag_124\n        /* \"#utility.yul\":3789:3791   */\n      0x1a\n        /* \"#utility.yul\":3784:3787   */\n      dup4\n        /* \"#utility.yul\":3725:3792   */\n      tag_112\n      jump\t// in\n    tag_124:\n        /* \"#utility.yul\":3718:3792   */\n      swap2\n      pop\n        /* \"#utility.yul\":3801:3894   */\n      tag_125\n        /* \"#utility.yul\":3890:3893   */\n      dup3\n        /* \"#utility.yul\":3801:3894   */\n      tag_126\n      jump\t// in\n    tag_125:\n        /* \"#utility.yul\":3919:3921   */\n      0x20\n        /* \"#utility.yul\":3914:3917   */\n      dup3\n        /* \"#utility.yul\":3910:3922   */\n      add\n        /* \"#utility.yul\":3903:3922   */\n      swap1\n      pop\n        /* \"#utility.yul\":3562:3928   */\n      swap2\n      swap1\n      pop\n      jump\t// out\n        /* \"#utility.yul\":3934:4300   */\n    tag_127:\n        /* \"#utility.yul\":4076:4079   */\n      0x00\n        /* \"#utility.yul\":4097:4164   */\n      tag_129\n        /* \"#utility.yul\":4161:4163   */\n      0x23\n        /* \"#utility.yul\":4156:4159   */\n      dup4\n        /* \"#utility.yul\":4097:4164   */\n      tag_112\n      jump\t// in\n    tag_129:\n        /* \"#utility.yul\":4090:4164   */\n      swap2\n      pop\n        /* \"#utility.yul\":4173:4266   */\n      tag_130\n        /* \"#utility.yul\":4262:4265   */\n      dup3\n        /* \"#utility.yul\":4173:4266   */\n      tag_131\n      jump\t// in\n    tag_130:\n        /* \"#utility.yul\":4291:4293   */\n      0x40\n        /* \"#utility.yul\":4286:4289   */\n      dup3\n        /* \"#utility.yul\":4282:4294   */\n      add\n        /* \"#utility.yul\":4275:4294   */\n      swap1\n      pop\n        /* \"#utility.yul\":3934:4300   */\n      swap2\n      swap1\n      pop\n      jump\t// out\n        /* \"#utility.yul\":4306:4672   */\n    tag_132:\n        /* \"#utility.yul\":4448:4451   */\n      0x00\n        /* \"#utility.yul\":4469:4536   */\n      tag_134\n        /* \"#utility.yul\":4533:4535   */\n      0x32\n        /* \"#utility.yul\":4528:4531   */\n      dup4\n        /* \"#utility.yul\":4469:4536   */\n      tag_112\n      jump\t// in\n    tag_134:\n        /* \"#utility.yul\":4462:4536   */\n      swap2\n      pop\n        /* \"#utility.yul\":4545:4638   */\n      tag_135\n        /* \"#utility.yul\":4634:4637   */\n      dup3\n        /* \"#utility.yul\":4545:4638   */\n      tag_136\n      jump\t// in\n    tag_135:\n        /* \"#utility.yul\":4663:4665   */\n      0x40\n        /* \"#utility.yul\":4658:4661   */\n      dup3\n        /* \"#utility.yul\":4654:4666   */\n      add\n        /* \"#utility.yul\":4647:4666   */\n      swap1\n      pop\n        /* \"#utility.yul\":4306:4672   */\n      swap2\n      swap1\n      pop\n      jump\t// out\n        /* \"#utility.yul\":4678:4796   */\n    tag_137:\n        /* \"#utility.yul\":4765:4789   */\n      tag_139\n        /* \"#utility.yul\":4783:4788   */\n      dup2\n        /* \"#utility.yul\":4765:4789   */\n      tag_140\n      jump\t// in\n    tag_139:\n        /* \"#utility.yul\":4760:4763   */\n      dup3\n        /* \"#utility.yul\":4753:4790   */\n      mstore\n        /* \"#utility.yul\":4678:4796   */\n      pop\n      pop\n      jump\t// out\n        /* \"#utility.yul\":4802:5557   */\n    tag_11:\n        /* \"#utility.yul\":5027:5031   */\n      0x00\n        /* \"#utility.yul\":5065:5068   */\n      0xa0\n        /* \"#utility.yul\":5054:5063   */\n      dup3\n        /* \"#utility.yul\":5050:5069   */\n      add\n        /* \"#utility.yul\":5042:5069   */\n      swap1\n      pop\n        /* \"#utility.yul\":5079:5150   */\n      tag_142\n        /* \"#utility.yul\":5147:5148   */\n      0x00\n        /* \"#utility.yul\":5136:5145   */\n      dup4\n        /* \"#utility.yul\":5132:5149   */\n      add\n        /* \"#utility.yul\":5123:5129   */\n      dup9\n        /* \"#utility.yul\":5079:5150   */\n      tag_103\n      jump\t// in\n    tag_142:\n        /* \"#utility.yul\":5197:5206   */\n      dup2\n        /* \"#utility.yul\":5191:5195   */\n      dup2\n        /* \"#utility.yul\":5187:5207   */\n      sub\n        /* \"#utility.yul\":5182:5184   */\n      0x20\n        /* \"#utility.yul\":5171:5180   */\n      dup4\n        /* \"#utility.yul\":5167:5185   */\n      add\n        /* \"#utility.yul\":5160:5208   */\n      mstore\n        /* \"#utility.yul\":5225:5303   */\n      tag_143\n        /* \"#utility.yul\":5298:5302   */\n      dup2\n        /* \"#utility.yul\":5289:5295   */\n      dup8\n        /* \"#utility.yul\":5225:5303   */\n      tag_107\n      jump\t// in\n    tag_143:\n        /* \"#utility.yul\":5217:5303   */\n      swap1\n      pop\n        /* \"#utility.yul\":5313:5385   */\n      tag_144\n        /* \"#utility.yul\":5381:5383   */\n      0x40\n        /* \"#utility.yul\":5370:5379   */\n      dup4\n        /* \"#utility.yul\":5366:5384   */\n      add\n        /* \"#utility.yul\":5357:5363   */\n      dup7\n        /* \"#utility.yul\":5313:5385   */\n      tag_137\n      jump\t// in\n    tag_144:\n        /* \"#utility.yul\":5395:5467   */\n      tag_145\n        /* \"#utility.yul\":5463:5465   */\n      0x60\n        /* \"#utility.yul\":5452:5461   */\n      dup4\n        /* \"#utility.yul\":5448:5466   */\n      add\n        /* \"#utility.yul\":5439:5445   */\n      dup6\n        /* \"#utility.yul\":5395:5467   */\n      tag_137\n      jump\t// in\n    tag_145:\n        /* \"#utility.yul\":5477:5550   */\n      tag_146\n        /* \"#utility.yul\":5545:5548   */\n      0x80\n        /* \"#utility.yul\":5534:5543   */\n      dup4\n        /* \"#utility.yul\":5530:5549   */\n      add\n        /* \"#utility.yul\":5521:5527   */\n      dup5\n        /* \"#utility.yul\":5477:5550   */\n      tag_137\n      jump\t// in\n    tag_146:\n        /* \"#utility.yul\":4802:5557   */\n      swap7\n      swap6\n      pop\n      pop\n      pop\n      pop\n      pop\n      pop\n      jump\t// out\n        /* \"#utility.yul\":5563:5982   */\n    tag_45:\n        /* \"#utility.yul\":5729:5733   */\n      0x00\n        /* \"#utility.yul\":5767:5769   */\n      0x20\n        /* \"#utility.yul\":5756:5765   */\n      dup3\n        /* \"#utility.yul\":5752:5770   */\n      add\n        /* \"#utility.yul\":5744:5770   */\n      swap1\n      pop\n        /* \"#utility.yul\":5816:5825   */\n      dup2\n        /* \"#utility.yul\":5810:5814   */\n      dup2\n        /* \"#utility.yul\":5806:5826   */\n      sub\n        /* \"#utility.yul\":5802:5803   */\n      0x00\n        /* \"#utility.yul\":5791:5800   */\n      dup4\n        /* \"#utility.yul\":5787:5804   */\n      add\n        /* \"#utility.yul\":5780:5827   */\n      mstore\n        /* \"#utility.yul\":5844:5975   */\n      tag_148\n        /* \"#utility.yul\":5970:5974   */\n      dup2\n        /* \"#utility.yul\":5844:5975   */\n      tag_117\n      jump\t// in\n    tag_148:\n        /* \"#utility.yul\":5836:5975   */\n      swap1\n      pop\n        /* \"#utility.yul\":5563:5982   */\n      swap2\n      swap1\n      pop\n      jump\t// out\n        /* \"#utility.yul\":5988:6407   */\n    tag_41:\n        /* \"#utility.yul\":6154:6158   */\n      0x00\n        /* \"#utility.yul\":6192:6194   */\n      0x20\n        /* \"#utility.yul\":6181:6190   */\n      dup3\n        /* \"#utility.yul\":6177:6195   */\n      add\n        /* \"#utility.yul\":6169:6195   */\n      swap1\n      pop\n        /* \"#utility.yul\":6241:6250   */\n      dup2\n        /* \"#utility.yul\":6235:6239   */\n      dup2\n        /* \"#utility.yul\":6231:6251   */\n      sub\n        /* \"#utility.yul\":6227:6228   */\n      0x00\n        /* \"#utility.yul\":6216:6225   */\n      dup4\n        /* \"#utility.yul\":6212:6229   */\n      add\n        /* \"#utility.yul\":6205:6252   */\n      mstore\n        /* \"#utility.yul\":6269:6400   */\n      tag_150\n        /* \"#utility.yul\":6395:6399   */\n      dup2\n        /* \"#utility.yul\":6269:6400   */\n      tag_122\n      jump\t// in\n    tag_150:\n        /* \"#utility.yul\":6261:6400   */\n      swap1\n      pop\n        /* \"#utility.yul\":5988:6407   */\n      swap2\n      swap1\n      pop\n      jump\t// out\n        /* \"#utility.yul\":6413:6832   */\n    tag_38:\n        /* \"#utility.yul\":6579:6583   */\n      0x00\n        /* \"#utility.yul\":6617:6619   */\n      0x20\n        /* \"#utility.yul\":6606:6615   */\n      dup3\n        /* \"#utility.yul\":6602:6620   */\n      add\n        /* \"#utility.yul\":6594:6620   */\n      swap1\n      pop\n        /* \"#utility.yul\":6666:6675   */\n      dup2\n        /* \"#utility.yul\":6660:6664   */\n      dup2\n        /* \"#utility.yul\":6656:6676   */\n      sub\n        /* \"#utility.yul\":6652:6653   */\n      0x00\n        /* \"#utility.yul\":6641:6650   */\n      dup4\n        /* \"#utility.yul\":6637:6654   */\n      add\n        /* \"#utility.yul\":6630:6677   */\n      mstore\n        /* \"#utility.yul\":6694:6825   */\n      tag_152\n        /* \"#utility.yul\":6820:6824   */\n      dup2\n        /* \"#utility.yul\":6694:6825   */\n      tag_127\n      jump\t// in\n    tag_152:\n        /* \"#utility.yul\":6686:6825   */\n      swap1\n      pop\n        /* \"#utility.yul\":6413:6832   */\n      swap2\n      swap1\n      pop\n      jump\t// out\n        /* \"#utility.yul\":6838:7257   */\n    tag_34:\n        /* \"#utility.yul\":7004:7008   */\n      0x00\n        /* \"#utility.yul\":7042:7044   */\n      0x20\n        /* \"#utility.yul\":7031:7040   */\n      dup3\n        /* \"#utility.yul\":7027:7045   */\n      add\n        /* \"#utility.yul\":7019:7045   */\n      swap1\n      pop\n        /* \"#utility.yul\":7091:7100   */\n      dup2\n        /* \"#utility.yul\":7085:7089   */\n      dup2\n        /* \"#utility.yul\":7081:7101   */\n      sub\n        /* \"#utility.yul\":7077:7078   */\n      0x00\n        /* \"#utility.yul\":7066:7075   */\n      dup4\n        /* \"#utility.yul\":7062:7079   */\n      add\n        /* \"#utility.yul\":7055:7102   */\n      mstore\n        /* \"#utility.yul\":7119:7250   */\n      tag_154\n        /* \"#utility.yul\":7245:7249   */\n      dup2\n        /* \"#utility.yul\":7119:7250   */\n      tag_132\n      jump\t// in\n    tag_154:\n        /* \"#utility.yul\":7111:7250   */\n      swap1\n      pop\n        /* \"#utility.yul\":6838:7257   */\n      swap2\n      swap1\n      pop\n      jump\t// out\n        /* \"#utility.yul\":7263:7392   */\n    tag_67:\n        /* \"#utility.yul\":7297:7303   */\n      0x00\n        /* \"#utility.yul\":7324:7344   */\n      tag_156\n      tag_157\n      jump\t// in\n    tag_156:\n        /* \"#utility.yul\":7314:7344   */\n      swap1\n      pop\n        /* \"#utility.yul\":7353:7386   */\n      tag_158\n        /* \"#utility.yul\":7381:7385   */\n      dup3\n        /* \"#utility.yul\":7373:7379   */\n      dup3\n        /* \"#utility.yul\":7353:7386   */\n      tag_159\n      jump\t// in\n    tag_158:\n        /* \"#utility.yul\":7263:7392   */\n      swap2\n      swap1\n      pop\n      jump\t// out\n        /* \"#utility.yul\":7398:7473   */\n    tag_157:\n        /* \"#utility.yul\":7431:7437   */\n      0x00\n        /* \"#utility.yul\":7464:7466   */\n      0x40\n        /* \"#utility.yul\":7458:7467   */\n      mload\n        /* \"#utility.yul\":7448:7467   */\n      swap1\n      pop\n        /* \"#utility.yul\":7398:7473   */\n      swap1\n      jump\t// out\n        /* \"#utility.yul\":7479:7787   */\n    tag_66:\n        /* \"#utility.yul\":7541:7545   */\n      0x00\n        /* \"#utility.yul\":7631:7649   */\n      0xffffffffffffffff\n        /* \"#utility.yul\":7623:7629   */\n      dup3\n        /* \"#utility.yul\":7620:7650   */\n      gt\n        /* \"#utility.yul\":7617:7673   */\n      iszero\n      tag_162\n      jumpi\n        /* \"#utility.yul\":7653:7671   */\n      tag_163\n      tag_164\n      jump\t// in\n    tag_163:\n        /* \"#utility.yul\":7617:7673   */\n    tag_162:\n        /* \"#utility.yul\":7691:7720   */\n      tag_165\n        /* \"#utility.yul\":7713:7719   */\n      dup3\n        /* \"#utility.yul\":7691:7720   */\n      tag_116\n      jump\t// in\n    tag_165:\n        /* \"#utility.yul\":7683:7720   */\n      swap1\n      pop\n        /* \"#utility.yul\":7775:7779   */\n      0x20\n        /* \"#utility.yul\":7769:7773   */\n      dup2\n        /* \"#utility.yul\":7765:7780   */\n      add\n        /* \"#utility.yul\":7757:7780   */\n      swap1\n      pop\n        /* \"#utility.yul\":7479:7787   */\n      swap2\n      swap1\n      pop\n      jump\t// out\n        /* \"#utility.yul\":7793:7892   */\n    tag_110:\n        /* \"#utility.yul\":7845:7851   */\n      0x00\n        /* \"#utility.yul\":7879:7884   */\n      dup2\n        /* \"#utility.yul\":7873:7885   */\n      mload\n        /* \"#utility.yul\":7863:7885   */\n      swap1\n      pop\n        /* \"#utility.yul\":7793:7892   */\n      swap2\n      swap1\n      pop\n      jump\t// out\n        /* \"#utility.yul\":7898:8067   */\n    tag_112:\n        /* \"#utility.yul\":7982:7993   */\n      0x00\n        /* \"#utility.yul\":8016:8022   */\n      dup3\n        /* \"#utility.yul\":8011:8014   */\n      dup3\n        /* \"#utility.yul\":8004:8023   */\n      mstore\n        /* \"#utility.yul\":8056:8060   */\n      0x20\n        /* \"#utility.yul\":8051:8054   */\n      dup3\n        /* \"#utility.yul\":8047:8061   */\n      add\n        /* \"#utility.yul\":8032:8061   */\n      swap1\n      pop\n        /* \"#utility.yul\":7898:8067   */\n      swap3\n      swap2\n      pop\n      pop\n      jump\t// out\n        /* \"#utility.yul\":8073:8169   */\n    tag_106:\n        /* \"#utility.yul\":8110:8117   */\n      0x00\n        /* \"#utility.yul\":8139:8163   */\n      tag_169\n        /* \"#utility.yul\":8157:8162   */\n      dup3\n        /* \"#utility.yul\":8139:8163   */\n      tag_170\n      jump\t// in\n    tag_169:\n        /* \"#utility.yul\":8128:8163   */\n      swap1\n      pop\n        /* \"#utility.yul\":8073:8169   */\n      swap2\n      swap1\n      pop\n      jump\t// out\n        /* \"#utility.yul\":8175:8301   */\n    tag_170:\n        /* \"#utility.yul\":8212:8219   */\n      0x00\n        /* \"#utility.yul\":8252:8294   */\n      0xffffffffffffffffffffffffffffffffffffffff\n        /* \"#utility.yul\":8245:8250   */\n      dup3\n        /* \"#utility.yul\":8241:8295   */\n      and\n        /* \"#utility.yul\":8230:8295   */\n      swap1\n      pop\n        /* \"#utility.yul\":8175:8301   */\n      swap2\n      swap1\n      pop\n      jump\t// out\n        /* \"#utility.yul\":8307:8384   */\n    tag_140:\n        /* \"#utility.yul\":8344:8351   */\n      0x00\n        /* \"#utility.yul\":8373:8378   */\n      dup2\n        /* \"#utility.yul\":8362:8378   */\n      swap1\n      pop\n        /* \"#utility.yul\":8307:8384   */\n      swap2\n      swap1\n      pop\n      jump\t// out\n        /* \"#utility.yul\":8390:8544   */\n    tag_72:\n        /* \"#utility.yul\":8474:8480   */\n      dup3\n        /* \"#utility.yul\":8469:8472   */\n      dup2\n        /* \"#utility.yul\":8464:8467   */\n      dup4\n        /* \"#utility.yul\":8451:8481   */\n      calldatacopy\n        /* \"#utility.yul\":8536:8537   */\n      0x00\n        /* \"#utility.yul\":8527:8533   */\n      dup4\n        /* \"#utility.yul\":8522:8525   */\n      dup4\n        /* \"#utility.yul\":8518:8534   */\n      add\n        /* \"#utility.yul\":8511:8538   */\n      mstore\n        /* \"#utility.yul\":8390:8544   */\n      pop\n      pop\n      pop\n      jump\t// out\n        /* \"#utility.yul\":8550:8857   */\n    tag_114:\n        /* \"#utility.yul\":8618:8619   */\n      0x00\n        /* \"#utility.yul\":8628:8741   */\n    tag_175:\n        /* \"#utility.yul\":8642:8648   */\n      dup4\n        /* \"#utility.yul\":8639:8640   */\n      dup2\n        /* \"#utility.yul\":8636:8649   */\n      lt\n        /* \"#utility.yul\":8628:8741   */\n      iszero\n      tag_177\n      jumpi\n        /* \"#utility.yul\":8727:8728   */\n      dup1\n        /* \"#utility.yul\":8722:8725   */\n      dup3\n        /* \"#utility.yul\":8718:8729   */\n      add\n        /* \"#utility.yul\":8712:8730   */\n      mload\n        /* \"#utility.yul\":8708:8709   */\n      dup2\n        /* \"#utility.yul\":8703:8706   */\n      dup5\n        /* \"#utility.yul\":8699:8710   */\n      add\n        /* \"#utility.yul\":8692:8731   */\n      mstore\n        /* \"#utility.yul\":8664:8666   */\n      0x20\n        /* \"#utility.yul\":8661:8662   */\n      dup2\n        /* \"#utility.yul\":8657:8667   */\n      add\n        /* \"#utility.yul\":8652:8667   */\n      swap1\n      pop\n        /* \"#utility.yul\":8628:8741   */\n      jump(tag_175)\n    tag_177:\n        /* \"#utility.yul\":8759:8765   */\n      dup4\n        /* \"#utility.yul\":8756:8757   */\n      dup2\n        /* \"#utility.yul\":8753:8766   */\n      gt\n        /* \"#utility.yul\":8750:8851   */\n      iszero\n      tag_178\n      jumpi\n        /* \"#utility.yul\":8839:8840   */\n      0x00\n        /* \"#utility.yul\":8830:8836   */\n      dup5\n        /* \"#utility.yul\":8825:8828   */\n      dup5\n        /* \"#utility.yul\":8821:8837   */\n      add\n        /* \"#utility.yul\":8814:8841   */\n      mstore\n        /* \"#utility.yul\":8750:8851   */\n    tag_178:\n        /* \"#utility.yul\":8599:8857   */\n      pop\n        /* \"#utility.yul\":8550:8857   */\n      pop\n      pop\n      pop\n      jump\t// out\n        /* \"#utility.yul\":8863:9183   */\n    tag_23:\n        /* \"#utility.yul\":8907:8913   */\n      0x00\n        /* \"#utility.yul\":8944:8945   */\n      0x02\n        /* \"#utility.yul\":8938:8942   */\n      dup3\n        /* \"#utility.yul\":8934:8946   */\n      div\n        /* \"#utility.yul\":8924:8946   */\n      swap1\n      pop\n        /* \"#utility.yul\":8991:8992   */\n      0x01\n        /* \"#utility.yul\":8985:8989   */\n      dup3\n        /* \"#utility.yul\":8981:8993   */\n      and\n        /* \"#utility.yul\":9012:9030   */\n      dup1\n        /* \"#utility.yul\":9002:9083   */\n      tag_180\n      jumpi\n        /* \"#utility.yul\":9068:9072   */\n      0x7f\n        /* \"#utility.yul\":9060:9066   */\n      dup3\n        /* \"#utility.yul\":9056:9073   */\n      and\n        /* \"#utility.yul\":9046:9073   */\n      swap2\n      pop\n        /* \"#utility.yul\":9002:9083   */\n    tag_180:\n        /* \"#utility.yul\":9130:9132   */\n      0x20\n        /* \"#utility.yul\":9122:9128   */\n      dup3\n        /* \"#utility.yul\":9119:9133   */\n      lt\n        /* \"#utility.yul\":9099:9117   */\n      dup2\n        /* \"#utility.yul\":9096:9134   */\n      eq\n        /* \"#utility.yul\":9093:9177   */\n      iszero\n      tag_181\n      jumpi\n        /* \"#utility.yul\":9149:9167   */\n      tag_182\n      tag_183\n      jump\t// in\n    tag_182:\n        /* \"#utility.yul\":9093:9177   */\n    tag_181:\n        /* \"#utility.yul\":8914:9183   */\n      pop\n        /* \"#utility.yul\":8863:9183   */\n      swap2\n      swap1\n      pop\n      jump\t// out\n        /* \"#utility.yul\":9189:9470   */\n    tag_159:\n        /* \"#utility.yul\":9272:9299   */\n      tag_185\n        /* \"#utility.yul\":9294:9298   */\n      dup3\n        /* \"#utility.yul\":9272:9299   */\n      tag_116\n      jump\t// in\n    tag_185:\n        /* \"#utility.yul\":9264:9270   */\n      dup2\n        /* \"#utility.yul\":9260:9300   */\n      add\n        /* \"#utility.yul\":9402:9408   */\n      dup2\n        /* \"#utility.yul\":9390:9400   */\n      dup2\n        /* \"#utility.yul\":9387:9409   */\n      lt\n        /* \"#utility.yul\":9366:9384   */\n      0xffffffffffffffff\n        /* \"#utility.yul\":9354:9364   */\n      dup3\n        /* \"#utility.yul\":9351:9385   */\n      gt\n        /* \"#utility.yul\":9348:9410   */\n      or\n        /* \"#utility.yul\":9345:9433   */\n      iszero\n      tag_186\n      jumpi\n        /* \"#utility.yul\":9413:9431   */\n      tag_187\n      tag_164\n      jump\t// in\n    tag_187:\n        /* \"#utility.yul\":9345:9433   */\n    tag_186:\n        /* \"#utility.yul\":9453:9463   */\n      dup1\n        /* \"#utility.yul\":9449:9451   */\n      0x40\n        /* \"#utility.yul\":9442:9464   */\n      mstore\n        /* \"#utility.yul\":9232:9470   */\n      pop\n        /* \"#utility.yul\":9189:9470   */\n      pop\n      pop\n      jump\t// out\n        /* \"#utility.yul\":9476:9656   */\n    tag_183:\n        /* \"#utility.yul\":9524:9601   */\n      0x4e487b7100000000000000000000000000000000000000000000000000000000\n        /* \"#utility.yul\":9521:9522   */\n      0x00\n        /* \"#utility.yul\":9514:9602   */\n      mstore\n        /* \"#utility.yul\":9621:9625   */\n      0x22\n        /* \"#utility.yul\":9618:9619   */\n      0x04\n        /* \"#utility.yul\":9611:9626   */\n      mstore\n        /* \"#utility.yul\":9645:9649   */\n      0x24\n        /* \"#utility.yul\":9642:9643   */\n      0x00\n        /* \"#utility.yul\":9635:9650   */\n      revert\n        /* \"#utility.yul\":9662:9842   */\n    tag_164:\n        /* \"#utility.yul\":9710:9787   */\n      0x4e487b7100000000000000000000000000000000000000000000000000000000\n        /* \"#utility.yul\":9707:9708   */\n      0x00\n        /* \"#utility.yul\":9700:9788   */\n      mstore\n        /* \"#utility.yul\":9807:9811   */\n      0x41\n        /* \"#utility.yul\":9804:9805   */\n      0x04\n        /* \"#utility.yul\":9797:9812   */\n      mstore\n        /* \"#utility.yul\":9831:9835   */\n      0x24\n        /* \"#utility.yul\":9828:9829   */\n      0x00\n        /* \"#utility.yul\":9821:9836   */\n      revert\n        /* \"#utility.yul\":9848:9965   */\n    tag_77:\n        /* \"#utility.yul\":9957:9958   */\n      0x00\n        /* \"#utility.yul\":9954:9955   */\n      dup1\n        /* \"#utility.yul\":9947:9959   */\n      revert\n        /* \"#utility.yul\":9971:10088   */\n    tag_70:\n        /* \"#utility.yul\":10080:10081   */\n      0x00\n        /* \"#utility.yul\":10077:10078   */\n      dup1\n        /* \"#utility.yul\":10070:10082   */\n      revert\n        /* \"#utility.yul\":10094:10211   */\n    tag_89:\n        /* \"#utility.yul\":10203:10204   */\n      0x00\n        /* \"#utility.yul\":10200:10201   */\n      dup1\n        /* \"#utility.yul\":10193:10205   */\n      revert\n        /* \"#utility.yul\":10217:10334   */\n    tag_86:\n        /* \"#utility.yul\":10326:10327   */\n      0x00\n        /* \"#utility.yul\":10323:10324   */\n      dup1\n        /* \"#utility.yul\":10316:10328   */\n      revert\n        /* \"#utility.yul\":10340:10442   */\n    tag_116:\n        /* \"#utility.yul\":10381:10387   */\n      0x00\n        /* \"#utility.yul\":10432:10434   */\n      0x1f\n        /* \"#utility.yul\":10428:10435   */\n      not\n        /* \"#utility.yul\":10423:10425   */\n      0x1f\n        /* \"#utility.yul\":10416:10421   */\n      dup4\n        /* \"#utility.yul\":10412:10426   */\n      add\n        /* \"#utility.yul\":10408:10436   */\n      and\n        /* \"#utility.yul\":10398:10436   */\n      swap1\n      pop\n        /* \"#utility.yul\":10340:10442   */\n      swap2\n      swap1\n      pop\n      jump\t// out\n        /* \"#utility.yul\":10448:10687   */\n    tag_121:\n        /* \"#utility.yul\":10588:10622   */\n      0x506c65617365207061792073756666696369656e742066756e6420666f72206f\n        /* \"#utility.yul\":10584:10585   */\n      0x00\n        /* \"#utility.yul\":10576:10582   */\n      dup3\n        /* \"#utility.yul\":10572:10586   */\n      add\n        /* \"#utility.yul\":10565:10623   */\n      mstore\n        /* \"#utility.yul\":10657:10679   */\n      0x7267616e697a696e6720796f7572206576656e74000000000000000000000000\n        /* \"#utility.yul\":10652:10654   */\n      0x20\n        /* \"#utility.yul\":10644:10650   */\n      dup3\n        /* \"#utility.yul\":10640:10655   */\n      add\n        /* \"#utility.yul\":10633:10680   */\n      mstore\n        /* \"#utility.yul\":10448:10687   */\n      pop\n      jump\t// out\n        /* \"#utility.yul\":10693:10869   */\n    tag_126:\n        /* \"#utility.yul\":10833:10861   */\n      0x506c656173652063726561746520736f6d65207469636b657473000000000000\n        /* \"#utility.yul\":10829:10830   */\n      0x00\n        /* \"#utility.yul\":10821:10827   */\n      dup3\n        /* \"#utility.yul\":10817:10831   */\n      add\n        /* \"#utility.yul\":10810:10862   */\n      mstore\n        /* \"#utility.yul\":10693:10869   */\n      pop\n      jump\t// out\n        /* \"#utility.yul\":10875:11097   */\n    tag_131:\n        /* \"#utility.yul\":11015:11049   */\n      0x506c6561736520656e74657220612076616c6964206461746520696e20667574\n        /* \"#utility.yul\":11011:11012   */\n      0x00\n        /* \"#utility.yul\":11003:11009   */\n      dup3\n        /* \"#utility.yul\":10999:11013   */\n      add\n        /* \"#utility.yul\":10992:11050   */\n      mstore\n        /* \"#utility.yul\":11084:11089   */\n      0x7572650000000000000000000000000000000000000000000000000000000000\n        /* \"#utility.yul\":11079:11081   */\n      0x20\n        /* \"#utility.yul\":11071:11077   */\n      dup3\n        /* \"#utility.yul\":11067:11082   */\n      add\n        /* \"#utility.yul\":11060:11090   */\n      mstore\n        /* \"#utility.yul\":10875:11097   */\n      pop\n      jump\t// out\n        /* \"#utility.yul\":11103:11340   */\n    tag_136:\n        /* \"#utility.yul\":11243:11277   */\n      0x456e74657220612076616c69642061646472657373206f72206f776e65722063\n        /* \"#utility.yul\":11239:11240   */\n      0x00\n        /* \"#utility.yul\":11231:11237   */\n      dup3\n        /* \"#utility.yul\":11227:11241   */\n      add\n        /* \"#utility.yul\":11220:11278   */\n      mstore\n        /* \"#utility.yul\":11312:11332   */\n      0x616e277420686f737420616e206576656e740000000000000000000000000000\n        /* \"#utility.yul\":11307:11309   */\n      0x20\n        /* \"#utility.yul\":11299:11305   */\n      dup3\n        /* \"#utility.yul\":11295:11310   */\n      add\n        /* \"#utility.yul\":11288:11333   */\n      mstore\n        /* \"#utility.yul\":11103:11340   */\n      pop\n      jump\t// out\n        /* \"#utility.yul\":11346:11468   */\n    tag_82:\n        /* \"#utility.yul\":11419:11443   */\n      tag_200\n        /* \"#utility.yul\":11437:11442   */\n      dup2\n        /* \"#utility.yul\":11419:11443   */\n      tag_140\n      jump\t// in\n    tag_200:\n        /* \"#utility.yul\":11412:11417   */\n      dup2\n        /* \"#utility.yul\":11409:11444   */\n      eq\n        /* \"#utility.yul\":11399:11462   */\n      tag_201\n      jumpi\n        /* \"#utility.yul\":11458:11459   */\n      0x00\n        /* \"#utility.yul\":11455:11456   */\n      dup1\n        /* \"#utility.yul\":11448:11460   */\n      revert\n        /* \"#utility.yul\":11399:11462   */\n    tag_201:\n        /* \"#utility.yul\":11346:11468   */\n      pop\n      jump\t// out\n\n    auxdata: 0xa264697066735822122008d87339763624c609d83e7a1da36d51e18f1ac076b5501da816a9bad7517ef364736f6c63430008070033\n}\n",
				"bytecode": {
					"linkReferences": {},
					"object": "608060405234801561001057600080fd5b50336000806101000a81548173ffffffffffffffffffffffffffffffffffffffff021916908373ffffffffffffffffffffffffffffffffffffffff160217905550610bc9806100606000396000f3fe6080604052600436106100345760003560e01c80630b79143014610039578063c71e7edc1461007a578063ee3bf80314610096575b600080fd5b34801561004557600080fd5b50610060600480360381019061005b9190610666565b6100b2565b6040516100719594939291906107b6565b60405180910390f35b610094600480360381019061008f9190610693565b6101a0565b005b6100b060048036038101906100ab91906105e3565b6101b5565b005b600181815481106100c257600080fd5b90600052602060002090600502016000915090508060000160009054906101000a900473ffffffffffffffffffffffffffffffffffffffff169080600101805461010b90610980565b80601f016020809104026020016040519081016040528092919081815260200182805461013790610980565b80156101845780601f1061015957610100808354040283529160200191610184565b820191906000526020600020905b81548152906001019060200180831161016757829003601f168201915b5050505050908060020154908060030154908060040154905085565b60018054905082106101b157600080fd5b5050565b60008054906101000a900473ffffffffffffffffffffffffffffffffffffffff1673ffffffffffffffffffffffffffffffffffffffff163373ffffffffffffffffffffffffffffffffffffffff161415801561023e5750600073ffffffffffffffffffffffffffffffffffffffff163373ffffffffffffffffffffffffffffffffffffffff1614155b61027d576040517f08c379a000000000000000000000000000000000000000000000000000000000815260040161027490610870565b60405180910390fd5b6000831415801561028d57504283115b6102cc576040517f08c379a00000000000000000000000000000000000000000000000000000000081526004016102c390610850565b60405180910390fd5b6000811161030f576040517f08c379a000000000000000000000000000000000000000000000000000000000815260040161030690610830565b60405180910390fd5b6000821461035c576103e8341461035b576040517f08c379a000000000000000000000000000000000000000000000000000000000815260040161035290610810565b60405180910390fd5b5b60006040518060a001604052803373ffffffffffffffffffffffffffffffffffffffff168152602001868152602001858152602001848152602001838152509050600181908060018154018082558091505060019003906000526020600020906005020160009091909190915060008201518160000160006101000a81548173ffffffffffffffffffffffffffffffffffffffff021916908373ffffffffffffffffffffffffffffffffffffffff160217905550602082015181600101908051906020019061042c9291906104bb565b50604082015181600201556060820151816003015560808201518160040155505060008054906101000a900473ffffffffffffffffffffffffffffffffffffffff1673ffffffffffffffffffffffffffffffffffffffff166108fc349081150290604051600060405180830381858888f193505050501580156104b3573d6000803e3d6000fd5b505050505050565b8280546104c790610980565b90600052602060002090601f0160209004810192826104e95760008555610530565b82601f1061050257805160ff1916838001178555610530565b82800160010185558215610530579182015b8281111561052f578251825591602001919060010190610514565b5b50905061053d9190610541565b5090565b5b8082111561055a576000816000905550600101610542565b5090565b600061057161056c846108b5565b610890565b90508281526020810184848401111561058d5761058c610a46565b5b61059884828561093e565b509392505050565b600082601f8301126105b5576105b4610a41565b5b81356105c584826020860161055e565b91505092915050565b6000813590506105dd81610b7c565b92915050565b600080600080608085870312156105fd576105fc610a50565b5b600085013567ffffffffffffffff81111561061b5761061a610a4b565b5b610627878288016105a0565b9450506020610638878288016105ce565b9350506040610649878288016105ce565b925050606061065a878288016105ce565b91505092959194509250565b60006020828403121561067c5761067b610a50565b5b600061068a848285016105ce565b91505092915050565b600080604083850312156106aa576106a9610a50565b5b60006106b8858286016105ce565b92505060206106c9858286016105ce565b9150509250929050565b6106dc81610902565b82525050565b60006106ed826108e6565b6106f781856108f1565b935061070781856020860161094d565b61071081610a55565b840191505092915050565b60006107286034836108f1565b915061073382610a66565b604082019050919050565b600061074b601a836108f1565b915061075682610ab5565b602082019050919050565b600061076e6023836108f1565b915061077982610ade565b604082019050919050565b60006107916032836108f1565b915061079c82610b2d565b604082019050919050565b6107b081610934565b82525050565b600060a0820190506107cb60008301886106d3565b81810360208301526107dd81876106e2565b90506107ec60408301866107a7565b6107f960608301856107a7565b61080660808301846107a7565b9695505050505050565b600060208201905081810360008301526108298161071b565b9050919050565b600060208201905081810360008301526108498161073e565b9050919050565b6000602082019050818103600083015261086981610761565b9050919050565b6000602082019050818103600083015261088981610784565b9050919050565b600061089a6108ab565b90506108a682826109b2565b919050565b6000604051905090565b600067ffffffffffffffff8211156108d0576108cf610a12565b5b6108d982610a55565b9050602081019050919050565b600081519050919050565b600082825260208201905092915050565b600061090d82610914565b9050919050565b600073ffffffffffffffffffffffffffffffffffffffff82169050919050565b6000819050919050565b82818337600083830152505050565b60005b8381101561096b578082015181840152602081019050610950565b8381111561097a576000848401525b50505050565b6000600282049050600182168061099857607f821691505b602082108114156109ac576109ab6109e3565b5b50919050565b6109bb82610a55565b810181811067ffffffffffffffff821117156109da576109d9610a12565b5b80604052505050565b7f4e487b7100000000000000000000000000000000000000000000000000000000600052602260045260246000fd5b7f4e487b7100000000000000000000000000000000000000000000000000000000600052604160045260246000fd5b600080fd5b600080fd5b600080fd5b600080fd5b6000601f19601f8301169050919050565b7f506c65617365207061792073756666696369656e742066756e6420666f72206f60008201527f7267616e697a696e6720796f7572206576656e74000000000000000000000000602082015250565b7f506c656173652063726561746520736f6d65207469636b657473000000000000600082015250565b7f506c6561736520656e74657220612076616c6964206461746520696e2066757460008201527f7572650000000000000000000000000000000000000000000000000000000000602082015250565b7f456e74657220612076616c69642061646472657373206f72206f776e6572206360008201527f616e277420686f737420616e206576656e740000000000000000000000000000602082015250565b610b8581610934565b8114610b9057600080fd5b5056fea264697066735822122008d87339763624c609d83e7a1da36d51e18f1ac076b5501da816a9bad7517ef364736f6c63430008070033",
					"opcodes": "PUSH1 0x80 PUSH1 0x40 MSTORE CALLVALUE DUP1 ISZERO PUSH2 0x10 JUMPI PUSH1 0x0 DUP1 REVERT JUMPDEST POP CALLER PUSH1 0x0 DUP1 PUSH2 0x100 EXP DUP2 SLOAD DUP2 PUSH20 0xFFFFFFFFFFFFFFFFFFFFFFFFFFFFFFFFFFFFFFFF MUL NOT AND SWAP1 DUP4 PUSH20 0xFFFFFFFFFFFFFFFFFFFFFFFFFFFFFFFFFFFFFFFF AND MUL OR SWAP1 SSTORE POP PUSH2 0xBC9 DUP1 PUSH2 0x60 PUSH1 0x0 CODECOPY PUSH1 0x0 RETURN INVALID PUSH1 0x80 PUSH1 0x40 MSTORE PUSH1 0x4 CALLDATASIZE LT PUSH2 0x34 JUMPI PUSH1 0x0 CALLDATALOAD PUSH1 0xE0 SHR DUP1 PUSH4 0xB791430 EQ PUSH2 0x39 JUMPI DUP1 PUSH4 0xC71E7EDC EQ PUSH2 0x7A JUMPI DUP1 PUSH4 0xEE3BF803 EQ PUSH2 0x96 JUMPI JUMPDEST PUSH1 0x0 DUP1 REVERT JUMPDEST CALLVALUE DUP1 ISZERO PUSH2 0x45 JUMPI PUSH1 0x0 DUP1 REVERT JUMPDEST POP PUSH2 0x60 PUSH1 0x4 DUP1 CALLDATASIZE SUB DUP2 ADD SWAP1 PUSH2 0x5B SWAP2 SWAP1 PUSH2 0x666 JUMP JUMPDEST PUSH2 0xB2 JUMP JUMPDEST PUSH1 0x40 MLOAD PUSH2 0x71 SWAP6 SWAP5 SWAP4 SWAP3 SWAP2 SWAP1 PUSH2 0x7B6 JUMP JUMPDEST PUSH1 0x40 MLOAD DUP1 SWAP2 SUB SWAP1 RETURN JUMPDEST PUSH2 0x94 PUSH1 0x4 DUP1 CALLDATASIZE SUB DUP2 ADD SWAP1 PUSH2 0x8F SWAP2 SWAP1 PUSH2 0x693 JUMP JUMPDEST PUSH2 0x1A0 JUMP JUMPDEST STOP JUMPDEST PUSH2 0xB0 PUSH1 0x4 DUP1 CALLDATASIZE SUB DUP2 ADD SWAP1 PUSH2 0xAB SWAP2 SWAP1 PUSH2 0x5E3 JUMP JUMPDEST PUSH2 0x1B5 JUMP JUMPDEST STOP JUMPDEST PUSH1 0x1 DUP2 DUP2 SLOAD DUP2 LT PUSH2 0xC2 JUMPI PUSH1 0x0 DUP1 REVERT JUMPDEST SWAP1 PUSH1 0x0 MSTORE PUSH1 0x20 PUSH1 0x0 KECCAK256 SWAP1 PUSH1 0x5 MUL ADD PUSH1 0x0 SWAP2 POP SWAP1 POP DUP1 PUSH1 0x0 ADD PUSH1 0x0 SWAP1 SLOAD SWAP1 PUSH2 0x100 EXP SWAP1 DIV PUSH20 0xFFFFFFFFFFFFFFFFFFFFFFFFFFFFFFFFFFFFFFFF AND SWAP1 DUP1 PUSH1 0x1 ADD DUP1 SLOAD PUSH2 0x10B SWAP1 PUSH2 0x980 JUMP JUMPDEST DUP1 PUSH1 0x1F ADD PUSH1 0x20 DUP1 SWAP2 DIV MUL PUSH1 0x20 ADD PUSH1 0x40 MLOAD SWAP1 DUP2 ADD PUSH1 0x40 MSTORE DUP1 SWAP3 SWAP2 SWAP1 DUP2 DUP2 MSTORE PUSH1 0x20 ADD DUP3 DUP1 SLOAD PUSH2 0x137 SWAP1 PUSH2 0x980 JUMP JUMPDEST DUP1 ISZERO PUSH2 0x184 JUMPI DUP1 PUSH1 0x1F LT PUSH2 0x159 JUMPI PUSH2 0x100 DUP1 DUP4 SLOAD DIV MUL DUP4 MSTORE SWAP2 PUSH1 0x20 ADD SWAP2 PUSH2 0x184 JUMP JUMPDEST DUP3 ADD SWAP2 SWAP1 PUSH1 0x0 MSTORE PUSH1 0x20 PUSH1 0x0 KECCAK256 SWAP1 JUMPDEST DUP2 SLOAD DUP2 MSTORE SWAP1 PUSH1 0x1 ADD SWAP1 PUSH1 0x20 ADD DUP1 DUP4 GT PUSH2 0x167 JUMPI DUP3 SWAP1 SUB PUSH1 0x1F AND DUP3 ADD SWAP2 JUMPDEST POP POP POP POP POP SWAP1 DUP1 PUSH1 0x2 ADD SLOAD SWAP1 DUP1 PUSH1 0x3 ADD SLOAD SWAP1 DUP1 PUSH1 0x4 ADD SLOAD SWAP1 POP DUP6 JUMP JUMPDEST PUSH1 0x1 DUP1 SLOAD SWAP1 POP DUP3 LT PUSH2 0x1B1 JUMPI PUSH1 0x0 DUP1 REVERT JUMPDEST POP POP JUMP JUMPDEST PUSH1 0x0 DUP1 SLOAD SWAP1 PUSH2 0x100 EXP SWAP1 DIV PUSH20 0xFFFFFFFFFFFFFFFFFFFFFFFFFFFFFFFFFFFFFFFF AND PUSH20 0xFFFFFFFFFFFFFFFFFFFFFFFFFFFFFFFFFFFFFFFF AND CALLER PUSH20 0xFFFFFFFFFFFFFFFFFFFFFFFFFFFFFFFFFFFFFFFF AND EQ ISZERO DUP1 ISZERO PUSH2 0x23E JUMPI POP PUSH1 0x0 PUSH20 0xFFFFFFFFFFFFFFFFFFFFFFFFFFFFFFFFFFFFFFFF AND CALLER PUSH20 0xFFFFFFFFFFFFFFFFFFFFFFFFFFFFFFFFFFFFFFFF AND EQ ISZERO JUMPDEST PUSH2 0x27D JUMPI PUSH1 0x40 MLOAD PUSH32 0x8C379A000000000000000000000000000000000000000000000000000000000 DUP2 MSTORE PUSH1 0x4 ADD PUSH2 0x274 SWAP1 PUSH2 0x870 JUMP JUMPDEST PUSH1 0x40 MLOAD DUP1 SWAP2 SUB SWAP1 REVERT JUMPDEST PUSH1 0x0 DUP4 EQ ISZERO DUP1 ISZERO PUSH2 0x28D JUMPI POP TIMESTAMP DUP4 GT JUMPDEST PUSH2 0x2CC JUMPI PUSH1 0x40 MLOAD PUSH32 0x8C379A000000000000000000000000000000000000000000000000000000000 DUP2 MSTORE PUSH1 0x4 ADD PUSH2 0x2C3 SWAP1 PUSH2 0x850 JUMP JUMPDEST PUSH1 0x40 MLOAD DUP1 SWAP2 SUB SWAP1 REVERT JUMPDEST PUSH1 0x0 DUP2 GT PUSH2 0x30F JUMPI PUSH1 0x40 MLOAD PUSH32 0x8C379A000000000000000000000000000000000000000000000000000000000 DUP2 MSTORE PUSH1 0x4 ADD PUSH2 0x306 SWAP1 PUSH2 0x830 JUMP JUMPDEST PUSH1 0x40 MLOAD DUP1 SWAP2 SUB SWAP1 REVERT JUMPDEST PUSH1 0x0 DUP3 EQ PUSH2 0x35C JUMPI PUSH2 0x3E8 CALLVALUE EQ PUSH2 0x35B JUMPI PUSH1 0x40 MLOAD PUSH32 0x8C379A000000000000000000000000000000000000000000000000000000000 DUP2 MSTORE PUSH1 0x4 ADD PUSH2 0x352 SWAP1 PUSH2 0x810 JUMP JUMPDEST PUSH1 0x40 MLOAD DUP1 SWAP2 SUB SWAP1 REVERT JUMPDEST JUMPDEST PUSH1 0x0 PUSH1 0x40 MLOAD DUP1 PUSH1 0xA0 ADD PUSH1 0x40 MSTORE DUP1 CALLER PUSH20 0xFFFFFFFFFFFFFFFFFFFFFFFFFFFFFFFFFFFFFFFF AND DUP2 MSTORE PUSH1 0x20 ADD DUP7 DUP2 MSTORE PUSH1 0x20 ADD DUP6 DUP2 MSTORE PUSH1 0x20 ADD DUP5 DUP2 MSTORE PUSH1 0x20 ADD DUP4 DUP2 MSTORE POP SWAP1 POP PUSH1 0x1 DUP2 SWAP1 DUP1 PUSH1 0x1 DUP2 SLOAD ADD DUP1 DUP3 SSTORE DUP1 SWAP2 POP POP PUSH1 0x1 SWAP1 SUB SWAP1 PUSH1 0x0 MSTORE PUSH1 0x20 PUSH1 0x0 KECCAK256 SWAP1 PUSH1 0x5 MUL ADD PUSH1 0x0 SWAP1 SWAP2 SWAP1 SWAP2 SWAP1 SWAP2 POP PUSH1 0x0 DUP3 ADD MLOAD DUP2 PUSH1 0x0 ADD PUSH1 0x0 PUSH2 0x100 EXP DUP2 SLOAD DUP2 PUSH20 0xFFFFFFFFFFFFFFFFFFFFFFFFFFFFFFFFFFFFFFFF MUL NOT AND SWAP1 DUP4 PUSH20 0xFFFFFFFFFFFFFFFFFFFFFFFFFFFFFFFFFFFFFFFF AND MUL OR SWAP1 SSTORE POP PUSH1 0x20 DUP3 ADD MLOAD DUP2 PUSH1 0x1 ADD SWAP1 DUP1 MLOAD SWAP1 PUSH1 0x20 ADD SWAP1 PUSH2 0x42C SWAP3 SWAP2 SWAP1 PUSH2 0x4BB JUMP JUMPDEST POP PUSH1 0x40 DUP3 ADD MLOAD DUP2 PUSH1 0x2 ADD SSTORE PUSH1 0x60 DUP3 ADD MLOAD DUP2 PUSH1 0x3 ADD SSTORE PUSH1 0x80 DUP3 ADD MLOAD DUP2 PUSH1 0x4 ADD SSTORE POP POP PUSH1 0x0 DUP1 SLOAD SWAP1 PUSH2 0x100 EXP SWAP1 DIV PUSH20 0xFFFFFFFFFFFFFFFFFFFFFFFFFFFFFFFFFFFFFFFF AND PUSH20 0xFFFFFFFFFFFFFFFFFFFFFFFFFFFFFFFFFFFFFFFF AND PUSH2 0x8FC CALLVALUE SWAP1 DUP2 ISZERO MUL SWAP1 PUSH1 0x40 MLOAD PUSH1 0x0 PUSH1 0x40 MLOAD DUP1 DUP4 SUB DUP2 DUP6 DUP9 DUP9 CALL SWAP4 POP POP POP POP ISZERO DUP1 ISZERO PUSH2 0x4B3 JUMPI RETURNDATASIZE PUSH1 0x0 DUP1 RETURNDATACOPY RETURNDATASIZE PUSH1 0x0 REVERT JUMPDEST POP POP POP POP POP POP JUMP JUMPDEST DUP3 DUP1 SLOAD PUSH2 0x4C7 SWAP1 PUSH2 0x980 JUMP JUMPDEST SWAP1 PUSH1 0x0 MSTORE PUSH1 0x20 PUSH1 0x0 KECCAK256 SWAP1 PUSH1 0x1F ADD PUSH1 0x20 SWAP1 DIV DUP2 ADD SWAP3 DUP3 PUSH2 0x4E9 JUMPI PUSH1 0x0 DUP6 SSTORE PUSH2 0x530 JUMP JUMPDEST DUP3 PUSH1 0x1F LT PUSH2 0x502 JUMPI DUP1 MLOAD PUSH1 0xFF NOT AND DUP4 DUP1 ADD OR DUP6 SSTORE PUSH2 0x530 JUMP JUMPDEST DUP3 DUP1 ADD PUSH1 0x1 ADD DUP6 SSTORE DUP3 ISZERO PUSH2 0x530 JUMPI SWAP2 DUP3 ADD JUMPDEST DUP3 DUP2 GT ISZERO PUSH2 0x52F JUMPI DUP3 MLOAD DUP3 SSTORE SWAP2 PUSH1 0x20 ADD SWAP2 SWAP1 PUSH1 0x1 ADD SWAP1 PUSH2 0x514 JUMP JUMPDEST JUMPDEST POP SWAP1 POP PUSH2 0x53D SWAP2 SWAP1 PUSH2 0x541 JUMP JUMPDEST POP SWAP1 JUMP JUMPDEST JUMPDEST DUP1 DUP3 GT ISZERO PUSH2 0x55A JUMPI PUSH1 0x0 DUP2 PUSH1 0x0 SWAP1 SSTORE POP PUSH1 0x1 ADD PUSH2 0x542 JUMP JUMPDEST POP SWAP1 JUMP JUMPDEST PUSH1 0x0 PUSH2 0x571 PUSH2 0x56C DUP5 PUSH2 0x8B5 JUMP JUMPDEST PUSH2 0x890 JUMP JUMPDEST SWAP1 POP DUP3 DUP2 MSTORE PUSH1 0x20 DUP2 ADD DUP5 DUP5 DUP5 ADD GT ISZERO PUSH2 0x58D JUMPI PUSH2 0x58C PUSH2 0xA46 JUMP JUMPDEST JUMPDEST PUSH2 0x598 DUP5 DUP3 DUP6 PUSH2 0x93E JUMP JUMPDEST POP SWAP4 SWAP3 POP POP POP JUMP JUMPDEST PUSH1 0x0 DUP3 PUSH1 0x1F DUP4 ADD SLT PUSH2 0x5B5 JUMPI PUSH2 0x5B4 PUSH2 0xA41 JUMP JUMPDEST JUMPDEST DUP2 CALLDATALOAD PUSH2 0x5C5 DUP5 DUP3 PUSH1 0x20 DUP7 ADD PUSH2 0x55E JUMP JUMPDEST SWAP2 POP POP SWAP3 SWAP2 POP POP JUMP JUMPDEST PUSH1 0x0 DUP2 CALLDATALOAD SWAP1 POP PUSH2 0x5DD DUP2 PUSH2 0xB7C JUMP JUMPDEST SWAP3 SWAP2 POP POP JUMP JUMPDEST PUSH1 0x0 DUP1 PUSH1 0x0 DUP1 PUSH1 0x80 DUP6 DUP8 SUB SLT ISZERO PUSH2 0x5FD JUMPI PUSH2 0x5FC PUSH2 0xA50 JUMP JUMPDEST JUMPDEST PUSH1 0x0 DUP6 ADD CALLDATALOAD PUSH8 0xFFFFFFFFFFFFFFFF DUP2 GT ISZERO PUSH2 0x61B JUMPI PUSH2 0x61A PUSH2 0xA4B JUMP JUMPDEST JUMPDEST PUSH2 0x627 DUP8 DUP3 DUP9 ADD PUSH2 0x5A0 JUMP JUMPDEST SWAP5 POP POP PUSH1 0x20 PUSH2 0x638 DUP8 DUP3 DUP9 ADD PUSH2 0x5CE JUMP JUMPDEST SWAP4 POP POP PUSH1 0x40 PUSH2 0x649 DUP8 DUP3 DUP9 ADD PUSH2 0x5CE JUMP JUMPDEST SWAP3 POP POP PUSH1 0x60 PUSH2 0x65A DUP8 DUP3 DUP9 ADD PUSH2 0x5CE JUMP JUMPDEST SWAP2 POP POP SWAP3 SWAP6 SWAP2 SWAP5 POP SWAP3 POP JUMP JUMPDEST PUSH1 0x0 PUSH1 0x20 DUP3 DUP5 SUB SLT ISZERO PUSH2 0x67C JUMPI PUSH2 0x67B PUSH2 0xA50 JUMP JUMPDEST JUMPDEST PUSH1 0x0 PUSH2 0x68A DUP5 DUP3 DUP6 ADD PUSH2 0x5CE JUMP JUMPDEST SWAP2 POP POP SWAP3 SWAP2 POP POP JUMP JUMPDEST PUSH1 0x0 DUP1 PUSH1 0x40 DUP4 DUP6 SUB SLT ISZERO PUSH2 0x6AA JUMPI PUSH2 0x6A9 PUSH2 0xA50 JUMP JUMPDEST JUMPDEST PUSH1 0x0 PUSH2 0x6B8 DUP6 DUP3 DUP7 ADD PUSH2 0x5CE JUMP JUMPDEST SWAP3 POP POP PUSH1 0x20 PUSH2 0x6C9 DUP6 DUP3 DUP7 ADD PUSH2 0x5CE JUMP JUMPDEST SWAP2 POP POP SWAP3 POP SWAP3 SWAP1 POP JUMP JUMPDEST PUSH2 0x6DC DUP2 PUSH2 0x902 JUMP JUMPDEST DUP3 MSTORE POP POP JUMP JUMPDEST PUSH1 0x0 PUSH2 0x6ED DUP3 PUSH2 0x8E6 JUMP JUMPDEST PUSH2 0x6F7 DUP2 DUP6 PUSH2 0x8F1 JUMP JUMPDEST SWAP4 POP PUSH2 0x707 DUP2 DUP6 PUSH1 0x20 DUP7 ADD PUSH2 0x94D JUMP JUMPDEST PUSH2 0x710 DUP2 PUSH2 0xA55 JUMP JUMPDEST DUP5 ADD SWAP2 POP POP SWAP3 SWAP2 POP POP JUMP JUMPDEST PUSH1 0x0 PUSH2 0x728 PUSH1 0x34 DUP4 PUSH2 0x8F1 JUMP JUMPDEST SWAP2 POP PUSH2 0x733 DUP3 PUSH2 0xA66 JUMP JUMPDEST PUSH1 0x40 DUP3 ADD SWAP1 POP SWAP2 SWAP1 POP JUMP JUMPDEST PUSH1 0x0 PUSH2 0x74B PUSH1 0x1A DUP4 PUSH2 0x8F1 JUMP JUMPDEST SWAP2 POP PUSH2 0x756 DUP3 PUSH2 0xAB5 JUMP JUMPDEST PUSH1 0x20 DUP3 ADD SWAP1 POP SWAP2 SWAP1 POP JUMP JUMPDEST PUSH1 0x0 PUSH2 0x76E PUSH1 0x23 DUP4 PUSH2 0x8F1 JUMP JUMPDEST SWAP2 POP PUSH2 0x779 DUP3 PUSH2 0xADE JUMP JUMPDEST PUSH1 0x40 DUP3 ADD SWAP1 POP SWAP2 SWAP1 POP JUMP JUMPDEST PUSH1 0x0 PUSH2 0x791 PUSH1 0x32 DUP4 PUSH2 0x8F1 JUMP JUMPDEST SWAP2 POP PUSH2 0x79C DUP3 PUSH2 0xB2D JUMP JUMPDEST PUSH1 0x40 DUP3 ADD SWAP1 POP SWAP2 SWAP1 POP JUMP JUMPDEST PUSH2 0x7B0 DUP2 PUSH2 0x934 JUMP JUMPDEST DUP3 MSTORE POP POP JUMP JUMPDEST PUSH1 0x0 PUSH1 0xA0 DUP3 ADD SWAP1 POP PUSH2 0x7CB PUSH1 0x0 DUP4 ADD DUP9 PUSH2 0x6D3 JUMP JUMPDEST DUP2 DUP2 SUB PUSH1 0x20 DUP4 ADD MSTORE PUSH2 0x7DD DUP2 DUP8 PUSH2 0x6E2 JUMP JUMPDEST SWAP1 POP PUSH2 0x7EC PUSH1 0x40 DUP4 ADD DUP7 PUSH2 0x7A7 JUMP JUMPDEST PUSH2 0x7F9 PUSH1 0x60 DUP4 ADD DUP6 PUSH2 0x7A7 JUMP JUMPDEST PUSH2 0x806 PUSH1 0x80 DUP4 ADD DUP5 PUSH2 0x7A7 JUMP JUMPDEST SWAP7 SWAP6 POP POP POP POP POP POP JUMP JUMPDEST PUSH1 0x0 PUSH1 0x20 DUP3 ADD SWAP1 POP DUP2 DUP2 SUB PUSH1 0x0 DUP4 ADD MSTORE PUSH2 0x829 DUP2 PUSH2 0x71B JUMP JUMPDEST SWAP1 POP SWAP2 SWAP1 POP JUMP JUMPDEST PUSH1 0x0 PUSH1 0x20 DUP3 ADD SWAP1 POP DUP2 DUP2 SUB PUSH1 0x0 DUP4 ADD MSTORE PUSH2 0x849 DUP2 PUSH2 0x73E JUMP JUMPDEST SWAP1 POP SWAP2 SWAP1 POP JUMP JUMPDEST PUSH1 0x0 PUSH1 0x20 DUP3 ADD SWAP1 POP DUP2 DUP2 SUB PUSH1 0x0 DUP4 ADD MSTORE PUSH2 0x869 DUP2 PUSH2 0x761 JUMP JUMPDEST SWAP1 POP SWAP2 SWAP1 POP JUMP JUMPDEST PUSH1 0x0 PUSH1 0x20 DUP3 ADD SWAP1 POP DUP2 DUP2 SUB PUSH1 0x0 DUP4 ADD MSTORE PUSH2 0x889 DUP2 PUSH2 0x784 JUMP JUMPDEST SWAP1 POP SWAP2 SWAP1 POP JUMP JUMPDEST PUSH1 0x0 PUSH2 0x89A PUSH2 0x8AB JUMP JUMPDEST SWAP1 POP PUSH2 0x8A6 DUP3 DUP3 PUSH2 0x9B2 JUMP JUMPDEST SWAP2 SWAP1 POP JUMP JUMPDEST PUSH1 0x0 PUSH1 0x40 MLOAD SWAP1 POP SWAP1 JUMP JUMPDEST PUSH1 0x0 PUSH8 0xFFFFFFFFFFFFFFFF DUP3 GT ISZERO PUSH2 0x8D0 JUMPI PUSH2 0x8CF PUSH2 0xA12 JUMP JUMPDEST JUMPDEST PUSH2 0x8D9 DUP3 PUSH2 0xA55 JUMP JUMPDEST SWAP1 POP PUSH1 0x20 DUP2 ADD SWAP1 POP SWAP2 SWAP1 POP JUMP JUMPDEST PUSH1 0x0 DUP2 MLOAD SWAP1 POP SWAP2 SWAP1 POP JUMP JUMPDEST PUSH1 0x0 DUP3 DUP3 MSTORE PUSH1 0x20 DUP3 ADD SWAP1 POP SWAP3 SWAP2 POP POP JUMP JUMPDEST PUSH1 0x0 PUSH2 0x90D DUP3 PUSH2 0x914 JUMP JUMPDEST SWAP1 POP SWAP2 SWAP1 POP JUMP JUMPDEST PUSH1 0x0 PUSH20 0xFFFFFFFFFFFFFFFFFFFFFFFFFFFFFFFFFFFFFFFF DUP3 AND SWAP1 POP SWAP2 SWAP1 POP JUMP JUMPDEST PUSH1 0x0 DUP2 SWAP1 POP SWAP2 SWAP1 POP JUMP JUMPDEST DUP3 DUP2 DUP4 CALLDATACOPY PUSH1 0x0 DUP4 DUP4 ADD MSTORE POP POP POP JUMP JUMPDEST PUSH1 0x0 JUMPDEST DUP4 DUP2 LT ISZERO PUSH2 0x96B JUMPI DUP1 DUP3 ADD MLOAD DUP2 DUP5 ADD MSTORE PUSH1 0x20 DUP2 ADD SWAP1 POP PUSH2 0x950 JUMP JUMPDEST DUP4 DUP2 GT ISZERO PUSH2 0x97A JUMPI PUSH1 0x0 DUP5 DUP5 ADD MSTORE JUMPDEST POP POP POP POP JUMP JUMPDEST PUSH1 0x0 PUSH1 0x2 DUP3 DIV SWAP1 POP PUSH1 0x1 DUP3 AND DUP1 PUSH2 0x998 JUMPI PUSH1 0x7F DUP3 AND SWAP2 POP JUMPDEST PUSH1 0x20 DUP3 LT DUP2 EQ ISZERO PUSH2 0x9AC JUMPI PUSH2 0x9AB PUSH2 0x9E3 JUMP JUMPDEST JUMPDEST POP SWAP2 SWAP1 POP JUMP JUMPDEST PUSH2 0x9BB DUP3 PUSH2 0xA55 JUMP JUMPDEST DUP2 ADD DUP2 DUP2 LT PUSH8 0xFFFFFFFFFFFFFFFF DUP3 GT OR ISZERO PUSH2 0x9DA JUMPI PUSH2 0x9D9 PUSH2 0xA12 JUMP JUMPDEST JUMPDEST DUP1 PUSH1 0x40 MSTORE POP POP POP JUMP JUMPDEST PUSH32 0x4E487B7100000000000000000000000000000000000000000000000000000000 PUSH1 0x0 MSTORE PUSH1 0x22 PUSH1 0x4 MSTORE PUSH1 0x24 PUSH1 0x0 REVERT JUMPDEST PUSH32 0x4E487B7100000000000000000000000000000000000000000000000000000000 PUSH1 0x0 MSTORE PUSH1 0x41 PUSH1 0x4 MSTORE PUSH1 0x24 PUSH1 0x0 REVERT JUMPDEST PUSH1 0x0 DUP1 REVERT JUMPDEST PUSH1 0x0 DUP1 REVERT JUMPDEST PUSH1 0x0 DUP1 REVERT JUMPDEST PUSH1 0x0 DUP1 REVERT JUMPDEST PUSH1 0x0 PUSH1 0x1F NOT PUSH1 0x1F DUP4 ADD AND SWAP1 POP SWAP2 SWAP1 POP JUMP JUMPDEST PUSH32 0x506C65617365207061792073756666696369656E742066756E6420666F72206F PUSH1 0x0 DUP3 ADD MSTORE PUSH32 0x7267616E697A696E6720796F7572206576656E74000000000000000000000000 PUSH1 0x20 DUP3 ADD MSTORE POP JUMP JUMPDEST PUSH32 0x506C656173652063726561746520736F6D65207469636B657473000000000000 PUSH1 0x0 DUP3 ADD MSTORE POP JUMP JUMPDEST PUSH32 0x506C6561736520656E74657220612076616C6964206461746520696E20667574 PUSH1 0x0 DUP3 ADD MSTORE PUSH32 0x7572650000000000000000000000000000000000000000000000000000000000 PUSH1 0x20 DUP3 ADD MSTORE POP JUMP JUMPDEST PUSH32 0x456E74657220612076616C69642061646472657373206F72206F776E65722063 PUSH1 0x0 DUP3 ADD MSTORE PUSH32 0x616E277420686F737420616E206576656E740000000000000000000000000000 PUSH1 0x20 DUP3 ADD MSTORE POP JUMP JUMPDEST PUSH2 0xB85 DUP2 PUSH2 0x934 JUMP JUMPDEST DUP2 EQ PUSH2 0xB90 JUMPI PUSH1 0x0 DUP1 REVERT JUMPDEST POP JUMP INVALID LOG2 PUSH5 0x6970667358 0x22 SLT KECCAK256 ADDMOD 0xD8 PUSH20 0x39763624C609D83E7A1DA36D51E18F1AC076B550 SAR 0xA8 AND 0xA9 0xBA 0xD7 MLOAD PUSH31 0xF364736F6C6343000807003300000000000000000000000000000000000000 "
				},
				"gasEstimates": {
					"creation": {
						"codeDepositCost": "603400",
						"executionCost": "24904",
						"totalCost": "628304"
					},
					"external": {
						"buy_ticket(uint256,uint256)": "infinite",
						"create_event(string,uint256,uint256,uint256)": "infinite",
						"events(uint256)": "infinite"
					}
				},
				"methodIdentifiers": {
					"buy_ticket(uint256,uint256)": "c71e7edc",
					"create_event(string,uint256,uint256,uint256)": "ee3bf803",
					"events(uint256)": "0b791430"
				}
			},
			"storageLayout": {
				"storage": [
					{
						"astId": 14,
						"contract": "Projects/02_Event_Management.sol:EventManagement",
						"label": "owner_contract",
						"offset": 0,
						"slot": "0",
						"type": "t_address_payable"
					},
					{
						"astId": 18,
						"contract": "Projects/02_Event_Management.sol:EventManagement",
						"label": "events",
						"offset": 0,
						"slot": "1",
						"type": "t_array(t_struct(Event)12_storage)dyn_storage"
					}
				],
				"types": {
					"t_address": {
						"encoding": "inplace",
						"label": "address",
						"numberOfBytes": "20"
					},
					"t_address_payable": {
						"encoding": "inplace",
						"label": "address payable",
						"numberOfBytes": "20"
					},
					"t_array(t_struct(Event)12_storage)dyn_storage": {
						"base": "t_struct(Event)12_storage",
						"encoding": "dynamic_array",
						"label": "struct EventManagement.Event[]",
						"numberOfBytes": "32"
					},
					"t_string_storage": {
						"encoding": "bytes",
						"label": "string",
						"numberOfBytes": "32"
					},
					"t_struct(Event)12_storage": {
						"encoding": "inplace",
						"label": "struct EventManagement.Event",
						"members": [
							{
								"astId": 3,
								"contract": "Projects/02_Event_Management.sol:EventManagement",
								"label": "organizer",
								"offset": 0,
								"slot": "0",
								"type": "t_address"
							},
							{
								"astId": 5,
								"contract": "Projects/02_Event_Management.sol:EventManagement",
								"label": "event_name",
								"offset": 0,
								"slot": "1",
								"type": "t_string_storage"
							},
							{
								"astId": 7,
								"contract": "Projects/02_Event_Management.sol:EventManagement",
								"label": "event_date",
								"offset": 0,
								"slot": "2",
								"type": "t_uint256"
							},
							{
								"astId": 9,
								"contract": "Projects/02_Event_Management.sol:EventManagement",
								"label": "ticket_price",
								"offset": 0,
								"slot": "3",
								"type": "t_uint256"
							},
							{
								"astId": 11,
								"contract": "Projects/02_Event_Management.sol:EventManagement",
								"label": "ticket_count",
								"offset": 0,
								"slot": "4",
								"type": "t_uint256"
							}
						],
						"numberOfBytes": "160"
					},
					"t_uint256": {
						"encoding": "inplace",
						"label": "uint256",
						"numberOfBytes": "32"
					}
				}
			},
			"userdoc": {
				"kind": "user",
				"methods": {},
				"version": 1
			}
		}
	}
}