{
	"Projects/02_Event_Management.sol": {
		"EventManagement": {
			"abi": [
				{
					"inputs": [],
					"stateMutability": "nonpayable",
					"type": "constructor"
				},
				{
					"inputs": [
						{
							"internalType": "string",
							"name": "_event_name",
							"type": "string"
						},
						{
							"internalType": "uint256",
							"name": "_event_date",
							"type": "uint256"
						},
						{
							"internalType": "uint256",
							"name": "_ticket_price",
							"type": "uint256"
						},
						{
							"internalType": "uint256",
							"name": "_ticket_count",
							"type": "uint256"
						}
					],
					"name": "create_event",
					"outputs": [],
					"stateMutability": "nonpayable",
					"type": "function"
				},
				{
					"inputs": [
						{
							"internalType": "uint256",
							"name": "",
							"type": "uint256"
						}
					],
					"name": "events",
					"outputs": [
						{
							"internalType": "address",
							"name": "organizer",
							"type": "address"
						},
						{
							"internalType": "string",
							"name": "event_name",
							"type": "string"
						},
						{
							"internalType": "uint256",
							"name": "event_date",
							"type": "uint256"
						},
						{
							"internalType": "uint256",
							"name": "ticket_price",
							"type": "uint256"
						},
						{
							"internalType": "uint256",
							"name": "ticket_count",
							"type": "uint256"
						}
					],
					"stateMutability": "view",
					"type": "function"
				}
			],
			"devdoc": {
				"kind": "dev",
				"methods": {},
				"version": 1
			},
			"evm": {
				"assembly": "    /* \"Projects/02_Event_Management.sol\":75:925  contract EventManagement {\r... */\n  mstore(0x40, 0x80)\n    /* \"Projects/02_Event_Management.sol\":346:406  constructor() {\r... */\n  callvalue\n  dup1\n  iszero\n  tag_1\n  jumpi\n  0x00\n  dup1\n  revert\ntag_1:\n  pop\n    /* \"Projects/02_Event_Management.sol\":388:398  msg.sender */\n  caller\n    /* \"Projects/02_Event_Management.sol\":371:385  owner_contract */\n  0x00\n  dup1\n    /* \"Projects/02_Event_Management.sol\":371:398  owner_contract = msg.sender */\n  0x0100\n  exp\n  dup2\n  sload\n  dup2\n  0xffffffffffffffffffffffffffffffffffffffff\n  mul\n  not\n  and\n  swap1\n  dup4\n  0xffffffffffffffffffffffffffffffffffffffff\n  and\n  mul\n  or\n  swap1\n  sstore\n  pop\n    /* \"Projects/02_Event_Management.sol\":75:925  contract EventManagement {\r... */\n  dataSize(sub_0)\n  dup1\n  dataOffset(sub_0)\n  0x00\n  codecopy\n  0x00\n  return\nstop\n\nsub_0: assembly {\n        /* \"Projects/02_Event_Management.sol\":75:925  contract EventManagement {\r... */\n      mstore(0x40, 0x80)\n      callvalue\n      dup1\n      iszero\n      tag_1\n      jumpi\n      0x00\n      dup1\n      revert\n    tag_1:\n      pop\n      jumpi(tag_2, lt(calldatasize, 0x04))\n      shr(0xe0, calldataload(0x00))\n      dup1\n      0x0b791430\n      eq\n      tag_3\n      jumpi\n      dup1\n      0xee3bf803\n      eq\n      tag_4\n      jumpi\n    tag_2:\n      0x00\n      dup1\n      revert\n        /* \"Projects/02_Event_Management.sol\":314:335  Event[] public events */\n    tag_3:\n      tag_5\n      0x04\n      dup1\n      calldatasize\n      sub\n      dup2\n      add\n      swap1\n      tag_6\n      swap2\n      swap1\n      tag_7\n      jump\t// in\n    tag_6:\n      tag_8\n      jump\t// in\n    tag_5:\n      mload(0x40)\n      tag_9\n      swap6\n      swap5\n      swap4\n      swap3\n      swap2\n      swap1\n      tag_10\n      jump\t// in\n    tag_9:\n      mload(0x40)\n      dup1\n      swap2\n      sub\n      swap1\n      return\n        /* \"Projects/02_Event_Management.sol\":420:922  function create_event(string memory _event_name, uint _event_date, uint _ticket_price, uint _ticket_count) public {\r... */\n    tag_4:\n      tag_11\n      0x04\n      dup1\n      calldatasize\n      sub\n      dup2\n      add\n      swap1\n      tag_12\n      swap2\n      swap1\n      tag_13\n      jump\t// in\n    tag_12:\n      tag_14\n      jump\t// in\n    tag_11:\n      stop\n        /* \"Projects/02_Event_Management.sol\":314:335  Event[] public events */\n    tag_8:\n      0x01\n      dup2\n      dup2\n      sload\n      dup2\n      lt\n      tag_15\n      jumpi\n      0x00\n      dup1\n      revert\n    tag_15:\n      swap1\n      0x00\n      mstore\n      keccak256(0x00, 0x20)\n      swap1\n      0x05\n      mul\n      add\n      0x00\n      swap2\n      pop\n      swap1\n      pop\n      dup1\n      0x00\n      add\n      0x00\n      swap1\n      sload\n      swap1\n      0x0100\n      exp\n      swap1\n      div\n      0xffffffffffffffffffffffffffffffffffffffff\n      and\n      swap1\n      dup1\n      0x01\n      add\n      dup1\n      sload\n      tag_17\n      swap1\n      tag_18\n      jump\t// in\n    tag_17:\n      dup1\n      0x1f\n      add\n      0x20\n      dup1\n      swap2\n      div\n      mul\n      0x20\n      add\n      mload(0x40)\n      swap1\n      dup2\n      add\n      0x40\n      mstore\n      dup1\n      swap3\n      swap2\n      swap1\n      dup2\n      dup2\n      mstore\n      0x20\n      add\n      dup3\n      dup1\n      sload\n      tag_19\n      swap1\n      tag_18\n      jump\t// in\n    tag_19:\n      dup1\n      iszero\n      tag_20\n      jumpi\n      dup1\n      0x1f\n      lt\n      tag_21\n      jumpi\n      0x0100\n      dup1\n      dup4\n      sload\n      div\n      mul\n      dup4\n      mstore\n      swap2\n      0x20\n      add\n      swap2\n      jump(tag_20)\n    tag_21:\n      dup3\n      add\n      swap2\n      swap1\n      0x00\n      mstore\n      keccak256(0x00, 0x20)\n      swap1\n    tag_22:\n      dup2\n      sload\n      dup2\n      mstore\n      swap1\n      0x01\n      add\n      swap1\n      0x20\n      add\n      dup1\n      dup4\n      gt\n      tag_22\n      jumpi\n      dup3\n      swap1\n      sub\n      0x1f\n      and\n      dup3\n      add\n      swap2\n    tag_20:\n      pop\n      pop\n      pop\n      pop\n      pop\n      swap1\n      dup1\n      0x02\n      add\n      sload\n      swap1\n      dup1\n      0x03\n      add\n      sload\n      swap1\n      dup1\n      0x04\n      add\n      sload\n      swap1\n      pop\n      dup6\n      jump\t// out\n        /* \"Projects/02_Event_Management.sol\":420:922  function create_event(string memory _event_name, uint _event_date, uint _ticket_price, uint _ticket_count) public {\r... */\n    tag_14:\n        /* \"Projects/02_Event_Management.sol\":567:581  owner_contract */\n      0x00\n      dup1\n      sload\n      swap1\n      0x0100\n      exp\n      swap1\n      div\n      0xffffffffffffffffffffffffffffffffffffffff\n      and\n        /* \"Projects/02_Event_Management.sol\":553:581  msg.sender != owner_contract */\n      0xffffffffffffffffffffffffffffffffffffffff\n      and\n        /* \"Projects/02_Event_Management.sol\":553:563  msg.sender */\n      caller\n        /* \"Projects/02_Event_Management.sol\":553:581  msg.sender != owner_contract */\n      0xffffffffffffffffffffffffffffffffffffffff\n      and\n      eq\n      iszero\n        /* \"Projects/02_Event_Management.sol\":553:609  msg.sender != owner_contract && msg.sender != address(0) */\n      dup1\n      iszero\n      tag_24\n      jumpi\n      pop\n        /* \"Projects/02_Event_Management.sol\":607:608  0 */\n      0x00\n        /* \"Projects/02_Event_Management.sol\":585:609  msg.sender != address(0) */\n      0xffffffffffffffffffffffffffffffffffffffff\n      and\n        /* \"Projects/02_Event_Management.sol\":585:595  msg.sender */\n      caller\n        /* \"Projects/02_Event_Management.sol\":585:609  msg.sender != address(0) */\n      0xffffffffffffffffffffffffffffffffffffffff\n      and\n      eq\n      iszero\n        /* \"Projects/02_Event_Management.sol\":553:609  msg.sender != owner_contract && msg.sender != address(0) */\n    tag_24:\n        /* \"Projects/02_Event_Management.sol\":545:664  require(msg.sender != owner_contract && msg.sender != address(0), \"Enter a valid address or owner can't host an event\") */\n      tag_25\n      jumpi\n      mload(0x40)\n      0x08c379a000000000000000000000000000000000000000000000000000000000\n      dup2\n      mstore\n      0x04\n      add\n      tag_26\n      swap1\n      tag_27\n      jump\t// in\n    tag_26:\n      mload(0x40)\n      dup1\n      swap2\n      sub\n      swap1\n      revert\n    tag_25:\n        /* \"Projects/02_Event_Management.sol\":698:699  0 */\n      0x00\n        /* \"Projects/02_Event_Management.sol\":683:694  _event_date */\n      dup4\n        /* \"Projects/02_Event_Management.sol\":683:699  _event_date != 0 */\n      eq\n      iszero\n        /* \"Projects/02_Event_Management.sol\":683:732  _event_date != 0 && _event_date > block.timestamp */\n      dup1\n      iszero\n      tag_28\n      jumpi\n      pop\n        /* \"Projects/02_Event_Management.sol\":717:732  block.timestamp */\n      timestamp\n        /* \"Projects/02_Event_Management.sol\":703:714  _event_date */\n      dup4\n        /* \"Projects/02_Event_Management.sol\":703:732  _event_date > block.timestamp */\n      gt\n        /* \"Projects/02_Event_Management.sol\":683:732  _event_date != 0 && _event_date > block.timestamp */\n    tag_28:\n        /* \"Projects/02_Event_Management.sol\":675:737  require(_event_date != 0 && _event_date > block.timestamp, \"\") */\n      tag_29\n      jumpi\n      mload(0x40)\n      0x08c379a000000000000000000000000000000000000000000000000000000000\n      dup2\n      mstore\n      0x04\n      add\n      tag_30\n      swap1\n      tag_31\n      jump\t// in\n    tag_30:\n      mload(0x40)\n      dup1\n      swap2\n      sub\n      swap1\n      revert\n    tag_29:\n        /* \"Projects/02_Event_Management.sol\":772:773  0 */\n      0x00\n        /* \"Projects/02_Event_Management.sol\":756:769  _ticket_count */\n      dup2\n        /* \"Projects/02_Event_Management.sol\":756:773  _ticket_count > 0 */\n      gt\n        /* \"Projects/02_Event_Management.sol\":748:774  require(_ticket_count > 0) */\n      tag_32\n      jumpi\n      0x00\n      dup1\n      revert\n    tag_32:\n        /* \"Projects/02_Event_Management.sol\":787:809  Event memory new_event */\n      0x00\n        /* \"Projects/02_Event_Management.sol\":812:881  Event(msg.sender,_event_name,_event_date,_ticket_price,_ticket_count) */\n      mload(0x40)\n      dup1\n      0xa0\n      add\n      0x40\n      mstore\n      dup1\n        /* \"Projects/02_Event_Management.sol\":818:828  msg.sender */\n      caller\n        /* \"Projects/02_Event_Management.sol\":812:881  Event(msg.sender,_event_name,_event_date,_ticket_price,_ticket_count) */\n      0xffffffffffffffffffffffffffffffffffffffff\n      and\n      dup2\n      mstore\n      0x20\n      add\n        /* \"Projects/02_Event_Management.sol\":829:840  _event_name */\n      dup7\n        /* \"Projects/02_Event_Management.sol\":812:881  Event(msg.sender,_event_name,_event_date,_ticket_price,_ticket_count) */\n      dup2\n      mstore\n      0x20\n      add\n        /* \"Projects/02_Event_Management.sol\":841:852  _event_date */\n      dup6\n        /* \"Projects/02_Event_Management.sol\":812:881  Event(msg.sender,_event_name,_event_date,_ticket_price,_ticket_count) */\n      dup2\n      mstore\n      0x20\n      add\n        /* \"Projects/02_Event_Management.sol\":853:866  _ticket_price */\n      dup5\n        /* \"Projects/02_Event_Management.sol\":812:881  Event(msg.sender,_event_name,_event_date,_ticket_price,_ticket_count) */\n      dup2\n      mstore\n      0x20\n      add\n        /* \"Projects/02_Event_Management.sol\":867:880  _ticket_count */\n      dup4\n        /* \"Projects/02_Event_Management.sol\":812:881  Event(msg.sender,_event_name,_event_date,_ticket_price,_ticket_count) */\n      dup2\n      mstore\n      pop\n        /* \"Projects/02_Event_Management.sol\":787:881  Event memory new_event = Event(msg.sender,_event_name,_event_date,_ticket_price,_ticket_count) */\n      swap1\n      pop\n        /* \"Projects/02_Event_Management.sol\":892:898  events */\n      0x01\n        /* \"Projects/02_Event_Management.sol\":904:913  new_event */\n      dup2\n        /* \"Projects/02_Event_Management.sol\":892:914  events.push(new_event) */\n      swap1\n      dup1\n      0x01\n      dup2\n      sload\n      add\n      dup1\n      dup3\n      sstore\n      dup1\n      swap2\n      pop\n      pop\n      0x01\n      swap1\n      sub\n      swap1\n      0x00\n      mstore\n      keccak256(0x00, 0x20)\n      swap1\n      0x05\n      mul\n      add\n      0x00\n      swap1\n      swap2\n      swap1\n      swap2\n      swap1\n      swap2\n      pop\n      0x00\n      dup3\n      add\n      mload\n      dup2\n      0x00\n      add\n      exp(0x0100, 0x00)\n      dup2\n      sload\n      dup2\n      0xffffffffffffffffffffffffffffffffffffffff\n      mul\n      not\n      and\n      swap1\n      dup4\n      0xffffffffffffffffffffffffffffffffffffffff\n      and\n      mul\n      or\n      swap1\n      sstore\n      pop\n      0x20\n      dup3\n      add\n      mload\n      dup2\n      0x01\n      add\n      swap1\n      dup1\n      mload\n      swap1\n      0x20\n      add\n      swap1\n      tag_34\n      swap3\n      swap2\n      swap1\n      tag_35\n      jump\t// in\n    tag_34:\n      pop\n      0x40\n      dup3\n      add\n      mload\n      dup2\n      0x02\n      add\n      sstore\n      0x60\n      dup3\n      add\n      mload\n      dup2\n      0x03\n      add\n      sstore\n      0x80\n      dup3\n      add\n      mload\n      dup2\n      0x04\n      add\n      sstore\n      pop\n      pop\n        /* \"Projects/02_Event_Management.sol\":534:922  {\r... */\n      pop\n        /* \"Projects/02_Event_Management.sol\":420:922  function create_event(string memory _event_name, uint _event_date, uint _ticket_price, uint _ticket_count) public {\r... */\n      pop\n      pop\n      pop\n      pop\n      jump\t// out\n    tag_35:\n      dup3\n      dup1\n      sload\n      tag_36\n      swap1\n      tag_18\n      jump\t// in\n    tag_36:\n      swap1\n      0x00\n      mstore\n      keccak256(0x00, 0x20)\n      swap1\n      0x1f\n      add\n      0x20\n      swap1\n      div\n      dup2\n      add\n      swap3\n      dup3\n      tag_38\n      jumpi\n      0x00\n      dup6\n      sstore\n      jump(tag_37)\n    tag_38:\n      dup3\n      0x1f\n      lt\n      tag_39\n      jumpi\n      dup1\n      mload\n      not(0xff)\n      and\n      dup4\n      dup1\n      add\n      or\n      dup6\n      sstore\n      jump(tag_37)\n    tag_39:\n      dup3\n      dup1\n      add\n      0x01\n      add\n      dup6\n      sstore\n      dup3\n      iszero\n      tag_37\n      jumpi\n      swap2\n      dup3\n      add\n    tag_40:\n      dup3\n      dup2\n      gt\n      iszero\n      tag_41\n      jumpi\n      dup3\n      mload\n      dup3\n      sstore\n      swap2\n      0x20\n      add\n      swap2\n      swap1\n      0x01\n      add\n      swap1\n      jump(tag_40)\n    tag_41:\n    tag_37:\n      pop\n      swap1\n      pop\n      tag_42\n      swap2\n      swap1\n      tag_43\n      jump\t// in\n    tag_42:\n      pop\n      swap1\n      jump\t// out\n    tag_43:\n    tag_44:\n      dup1\n      dup3\n      gt\n      iszero\n      tag_45\n      jumpi\n      0x00\n      dup2\n      0x00\n      swap1\n      sstore\n      pop\n      0x01\n      add\n      jump(tag_44)\n    tag_45:\n      pop\n      swap1\n      jump\t// out\n        /* \"#utility.yul\":7:419   */\n    tag_47:\n        /* \"#utility.yul\":85:90   */\n      0x00\n        /* \"#utility.yul\":110:176   */\n      tag_49\n        /* \"#utility.yul\":126:175   */\n      tag_50\n        /* \"#utility.yul\":168:174   */\n      dup5\n        /* \"#utility.yul\":126:175   */\n      tag_51\n      jump\t// in\n    tag_50:\n        /* \"#utility.yul\":110:176   */\n      tag_52\n      jump\t// in\n    tag_49:\n        /* \"#utility.yul\":101:176   */\n      swap1\n      pop\n        /* \"#utility.yul\":199:205   */\n      dup3\n        /* \"#utility.yul\":192:197   */\n      dup2\n        /* \"#utility.yul\":185:206   */\n      mstore\n        /* \"#utility.yul\":237:241   */\n      0x20\n        /* \"#utility.yul\":230:235   */\n      dup2\n        /* \"#utility.yul\":226:242   */\n      add\n        /* \"#utility.yul\":275:278   */\n      dup5\n        /* \"#utility.yul\":266:272   */\n      dup5\n        /* \"#utility.yul\":261:264   */\n      dup5\n        /* \"#utility.yul\":257:273   */\n      add\n        /* \"#utility.yul\":254:279   */\n      gt\n        /* \"#utility.yul\":251:363   */\n      iszero\n      tag_53\n      jumpi\n        /* \"#utility.yul\":282:361   */\n      tag_54\n      tag_55\n      jump\t// in\n    tag_54:\n        /* \"#utility.yul\":251:363   */\n    tag_53:\n        /* \"#utility.yul\":372:413   */\n      tag_56\n        /* \"#utility.yul\":406:412   */\n      dup5\n        /* \"#utility.yul\":401:404   */\n      dup3\n        /* \"#utility.yul\":396:399   */\n      dup6\n        /* \"#utility.yul\":372:413   */\n      tag_57\n      jump\t// in\n    tag_56:\n        /* \"#utility.yul\":91:419   */\n      pop\n        /* \"#utility.yul\":7:419   */\n      swap4\n      swap3\n      pop\n      pop\n      pop\n      jump\t// out\n        /* \"#utility.yul\":439:779   */\n    tag_58:\n        /* \"#utility.yul\":495:500   */\n      0x00\n        /* \"#utility.yul\":544:547   */\n      dup3\n        /* \"#utility.yul\":537:541   */\n      0x1f\n        /* \"#utility.yul\":529:535   */\n      dup4\n        /* \"#utility.yul\":525:542   */\n      add\n        /* \"#utility.yul\":521:548   */\n      slt\n        /* \"#utility.yul\":511:633   */\n      tag_60\n      jumpi\n        /* \"#utility.yul\":552:631   */\n      tag_61\n      tag_62\n      jump\t// in\n    tag_61:\n        /* \"#utility.yul\":511:633   */\n    tag_60:\n        /* \"#utility.yul\":669:675   */\n      dup2\n        /* \"#utility.yul\":656:676   */\n      calldataload\n        /* \"#utility.yul\":694:773   */\n      tag_63\n        /* \"#utility.yul\":769:772   */\n      dup5\n        /* \"#utility.yul\":761:767   */\n      dup3\n        /* \"#utility.yul\":754:758   */\n      0x20\n        /* \"#utility.yul\":746:752   */\n      dup7\n        /* \"#utility.yul\":742:759   */\n      add\n        /* \"#utility.yul\":694:773   */\n      tag_47\n      jump\t// in\n    tag_63:\n        /* \"#utility.yul\":685:773   */\n      swap2\n      pop\n        /* \"#utility.yul\":501:779   */\n      pop\n        /* \"#utility.yul\":439:779   */\n      swap3\n      swap2\n      pop\n      pop\n      jump\t// out\n        /* \"#utility.yul\":785:924   */\n    tag_64:\n        /* \"#utility.yul\":831:836   */\n      0x00\n        /* \"#utility.yul\":869:875   */\n      dup2\n        /* \"#utility.yul\":856:876   */\n      calldataload\n        /* \"#utility.yul\":847:876   */\n      swap1\n      pop\n        /* \"#utility.yul\":885:918   */\n      tag_66\n        /* \"#utility.yul\":912:917   */\n      dup2\n        /* \"#utility.yul\":885:918   */\n      tag_67\n      jump\t// in\n    tag_66:\n        /* \"#utility.yul\":785:924   */\n      swap3\n      swap2\n      pop\n      pop\n      jump\t// out\n        /* \"#utility.yul\":930:1875   */\n    tag_13:\n        /* \"#utility.yul\":1026:1032   */\n      0x00\n        /* \"#utility.yul\":1034:1040   */\n      dup1\n        /* \"#utility.yul\":1042:1048   */\n      0x00\n        /* \"#utility.yul\":1050:1056   */\n      dup1\n        /* \"#utility.yul\":1099:1102   */\n      0x80\n        /* \"#utility.yul\":1087:1096   */\n      dup6\n        /* \"#utility.yul\":1078:1085   */\n      dup8\n        /* \"#utility.yul\":1074:1097   */\n      sub\n        /* \"#utility.yul\":1070:1103   */\n      slt\n        /* \"#utility.yul\":1067:1187   */\n      iszero\n      tag_69\n      jumpi\n        /* \"#utility.yul\":1106:1185   */\n      tag_70\n      tag_71\n      jump\t// in\n    tag_70:\n        /* \"#utility.yul\":1067:1187   */\n    tag_69:\n        /* \"#utility.yul\":1254:1255   */\n      0x00\n        /* \"#utility.yul\":1243:1252   */\n      dup6\n        /* \"#utility.yul\":1239:1256   */\n      add\n        /* \"#utility.yul\":1226:1257   */\n      calldataload\n        /* \"#utility.yul\":1284:1302   */\n      0xffffffffffffffff\n        /* \"#utility.yul\":1276:1282   */\n      dup2\n        /* \"#utility.yul\":1273:1303   */\n      gt\n        /* \"#utility.yul\":1270:1387   */\n      iszero\n      tag_72\n      jumpi\n        /* \"#utility.yul\":1306:1385   */\n      tag_73\n      tag_74\n      jump\t// in\n    tag_73:\n        /* \"#utility.yul\":1270:1387   */\n    tag_72:\n        /* \"#utility.yul\":1411:1474   */\n      tag_75\n        /* \"#utility.yul\":1466:1473   */\n      dup8\n        /* \"#utility.yul\":1457:1463   */\n      dup3\n        /* \"#utility.yul\":1446:1455   */\n      dup9\n        /* \"#utility.yul\":1442:1464   */\n      add\n        /* \"#utility.yul\":1411:1474   */\n      tag_58\n      jump\t// in\n    tag_75:\n        /* \"#utility.yul\":1401:1474   */\n      swap5\n      pop\n        /* \"#utility.yul\":1197:1484   */\n      pop\n        /* \"#utility.yul\":1523:1525   */\n      0x20\n        /* \"#utility.yul\":1549:1602   */\n      tag_76\n        /* \"#utility.yul\":1594:1601   */\n      dup8\n        /* \"#utility.yul\":1585:1591   */\n      dup3\n        /* \"#utility.yul\":1574:1583   */\n      dup9\n        /* \"#utility.yul\":1570:1592   */\n      add\n        /* \"#utility.yul\":1549:1602   */\n      tag_64\n      jump\t// in\n    tag_76:\n        /* \"#utility.yul\":1539:1602   */\n      swap4\n      pop\n        /* \"#utility.yul\":1494:1612   */\n      pop\n        /* \"#utility.yul\":1651:1653   */\n      0x40\n        /* \"#utility.yul\":1677:1730   */\n      tag_77\n        /* \"#utility.yul\":1722:1729   */\n      dup8\n        /* \"#utility.yul\":1713:1719   */\n      dup3\n        /* \"#utility.yul\":1702:1711   */\n      dup9\n        /* \"#utility.yul\":1698:1720   */\n      add\n        /* \"#utility.yul\":1677:1730   */\n      tag_64\n      jump\t// in\n    tag_77:\n        /* \"#utility.yul\":1667:1730   */\n      swap3\n      pop\n        /* \"#utility.yul\":1622:1740   */\n      pop\n        /* \"#utility.yul\":1779:1781   */\n      0x60\n        /* \"#utility.yul\":1805:1858   */\n      tag_78\n        /* \"#utility.yul\":1850:1857   */\n      dup8\n        /* \"#utility.yul\":1841:1847   */\n      dup3\n        /* \"#utility.yul\":1830:1839   */\n      dup9\n        /* \"#utility.yul\":1826:1848   */\n      add\n        /* \"#utility.yul\":1805:1858   */\n      tag_64\n      jump\t// in\n    tag_78:\n        /* \"#utility.yul\":1795:1858   */\n      swap2\n      pop\n        /* \"#utility.yul\":1750:1868   */\n      pop\n        /* \"#utility.yul\":930:1875   */\n      swap3\n      swap6\n      swap2\n      swap5\n      pop\n      swap3\n      pop\n      jump\t// out\n        /* \"#utility.yul\":1881:2210   */\n    tag_7:\n        /* \"#utility.yul\":1940:1946   */\n      0x00\n        /* \"#utility.yul\":1989:1991   */\n      0x20\n        /* \"#utility.yul\":1977:1986   */\n      dup3\n        /* \"#utility.yul\":1968:1975   */\n      dup5\n        /* \"#utility.yul\":1964:1987   */\n      sub\n        /* \"#utility.yul\":1960:1992   */\n      slt\n        /* \"#utility.yul\":1957:2076   */\n      iszero\n      tag_80\n      jumpi\n        /* \"#utility.yul\":1995:2074   */\n      tag_81\n      tag_71\n      jump\t// in\n    tag_81:\n        /* \"#utility.yul\":1957:2076   */\n    tag_80:\n        /* \"#utility.yul\":2115:2116   */\n      0x00\n        /* \"#utility.yul\":2140:2193   */\n      tag_82\n        /* \"#utility.yul\":2185:2192   */\n      dup5\n        /* \"#utility.yul\":2176:2182   */\n      dup3\n        /* \"#utility.yul\":2165:2174   */\n      dup6\n        /* \"#utility.yul\":2161:2183   */\n      add\n        /* \"#utility.yul\":2140:2193   */\n      tag_64\n      jump\t// in\n    tag_82:\n        /* \"#utility.yul\":2130:2193   */\n      swap2\n      pop\n        /* \"#utility.yul\":2086:2203   */\n      pop\n        /* \"#utility.yul\":1881:2210   */\n      swap3\n      swap2\n      pop\n      pop\n      jump\t// out\n        /* \"#utility.yul\":2216:2334   */\n    tag_83:\n        /* \"#utility.yul\":2303:2327   */\n      tag_85\n        /* \"#utility.yul\":2321:2326   */\n      dup2\n        /* \"#utility.yul\":2303:2327   */\n      tag_86\n      jump\t// in\n    tag_85:\n        /* \"#utility.yul\":2298:2301   */\n      dup3\n        /* \"#utility.yul\":2291:2328   */\n      mstore\n        /* \"#utility.yul\":2216:2334   */\n      pop\n      pop\n      jump\t// out\n        /* \"#utility.yul\":2340:2704   */\n    tag_87:\n        /* \"#utility.yul\":2428:2431   */\n      0x00\n        /* \"#utility.yul\":2456:2495   */\n      tag_89\n        /* \"#utility.yul\":2489:2494   */\n      dup3\n        /* \"#utility.yul\":2456:2495   */\n      tag_90\n      jump\t// in\n    tag_89:\n        /* \"#utility.yul\":2511:2582   */\n      tag_91\n        /* \"#utility.yul\":2575:2581   */\n      dup2\n        /* \"#utility.yul\":2570:2573   */\n      dup6\n        /* \"#utility.yul\":2511:2582   */\n      tag_92\n      jump\t// in\n    tag_91:\n        /* \"#utility.yul\":2504:2582   */\n      swap4\n      pop\n        /* \"#utility.yul\":2591:2643   */\n      tag_93\n        /* \"#utility.yul\":2636:2642   */\n      dup2\n        /* \"#utility.yul\":2631:2634   */\n      dup6\n        /* \"#utility.yul\":2624:2628   */\n      0x20\n        /* \"#utility.yul\":2617:2622   */\n      dup7\n        /* \"#utility.yul\":2613:2629   */\n      add\n        /* \"#utility.yul\":2591:2643   */\n      tag_94\n      jump\t// in\n    tag_93:\n        /* \"#utility.yul\":2668:2697   */\n      tag_95\n        /* \"#utility.yul\":2690:2696   */\n      dup2\n        /* \"#utility.yul\":2668:2697   */\n      tag_96\n      jump\t// in\n    tag_95:\n        /* \"#utility.yul\":2663:2666   */\n      dup5\n        /* \"#utility.yul\":2659:2698   */\n      add\n        /* \"#utility.yul\":2652:2698   */\n      swap2\n      pop\n        /* \"#utility.yul\":2432:2704   */\n      pop\n        /* \"#utility.yul\":2340:2704   */\n      swap3\n      swap2\n      pop\n      pop\n      jump\t// out\n        /* \"#utility.yul\":2710:3076   */\n    tag_97:\n        /* \"#utility.yul\":2852:2855   */\n      0x00\n        /* \"#utility.yul\":2873:2940   */\n      tag_99\n        /* \"#utility.yul\":2937:2939   */\n      0x32\n        /* \"#utility.yul\":2932:2935   */\n      dup4\n        /* \"#utility.yul\":2873:2940   */\n      tag_92\n      jump\t// in\n    tag_99:\n        /* \"#utility.yul\":2866:2940   */\n      swap2\n      pop\n        /* \"#utility.yul\":2949:3042   */\n      tag_100\n        /* \"#utility.yul\":3038:3041   */\n      dup3\n        /* \"#utility.yul\":2949:3042   */\n      tag_101\n      jump\t// in\n    tag_100:\n        /* \"#utility.yul\":3067:3069   */\n      0x40\n        /* \"#utility.yul\":3062:3065   */\n      dup3\n        /* \"#utility.yul\":3058:3070   */\n      add\n        /* \"#utility.yul\":3051:3070   */\n      swap1\n      pop\n        /* \"#utility.yul\":2710:3076   */\n      swap2\n      swap1\n      pop\n      jump\t// out\n        /* \"#utility.yul\":3082:3446   */\n    tag_102:\n        /* \"#utility.yul\":3224:3227   */\n      0x00\n        /* \"#utility.yul\":3245:3311   */\n      tag_104\n        /* \"#utility.yul\":3309:3310   */\n      0x00\n        /* \"#utility.yul\":3304:3307   */\n      dup4\n        /* \"#utility.yul\":3245:3311   */\n      tag_92\n      jump\t// in\n    tag_104:\n        /* \"#utility.yul\":3238:3311   */\n      swap2\n      pop\n        /* \"#utility.yul\":3320:3413   */\n      tag_105\n        /* \"#utility.yul\":3409:3412   */\n      dup3\n        /* \"#utility.yul\":3320:3413   */\n      tag_106\n      jump\t// in\n    tag_105:\n        /* \"#utility.yul\":3438:3439   */\n      0x00\n        /* \"#utility.yul\":3433:3436   */\n      dup3\n        /* \"#utility.yul\":3429:3440   */\n      add\n        /* \"#utility.yul\":3422:3440   */\n      swap1\n      pop\n        /* \"#utility.yul\":3082:3446   */\n      swap2\n      swap1\n      pop\n      jump\t// out\n        /* \"#utility.yul\":3452:3570   */\n    tag_107:\n        /* \"#utility.yul\":3539:3563   */\n      tag_109\n        /* \"#utility.yul\":3557:3562   */\n      dup2\n        /* \"#utility.yul\":3539:3563   */\n      tag_110\n      jump\t// in\n    tag_109:\n        /* \"#utility.yul\":3534:3537   */\n      dup3\n        /* \"#utility.yul\":3527:3564   */\n      mstore\n        /* \"#utility.yul\":3452:3570   */\n      pop\n      pop\n      jump\t// out\n        /* \"#utility.yul\":3576:4331   */\n    tag_10:\n        /* \"#utility.yul\":3801:3805   */\n      0x00\n        /* \"#utility.yul\":3839:3842   */\n      0xa0\n        /* \"#utility.yul\":3828:3837   */\n      dup3\n        /* \"#utility.yul\":3824:3843   */\n      add\n        /* \"#utility.yul\":3816:3843   */\n      swap1\n      pop\n        /* \"#utility.yul\":3853:3924   */\n      tag_112\n        /* \"#utility.yul\":3921:3922   */\n      0x00\n        /* \"#utility.yul\":3910:3919   */\n      dup4\n        /* \"#utility.yul\":3906:3923   */\n      add\n        /* \"#utility.yul\":3897:3903   */\n      dup9\n        /* \"#utility.yul\":3853:3924   */\n      tag_83\n      jump\t// in\n    tag_112:\n        /* \"#utility.yul\":3971:3980   */\n      dup2\n        /* \"#utility.yul\":3965:3969   */\n      dup2\n        /* \"#utility.yul\":3961:3981   */\n      sub\n        /* \"#utility.yul\":3956:3958   */\n      0x20\n        /* \"#utility.yul\":3945:3954   */\n      dup4\n        /* \"#utility.yul\":3941:3959   */\n      add\n        /* \"#utility.yul\":3934:3982   */\n      mstore\n        /* \"#utility.yul\":3999:4077   */\n      tag_113\n        /* \"#utility.yul\":4072:4076   */\n      dup2\n        /* \"#utility.yul\":4063:4069   */\n      dup8\n        /* \"#utility.yul\":3999:4077   */\n      tag_87\n      jump\t// in\n    tag_113:\n        /* \"#utility.yul\":3991:4077   */\n      swap1\n      pop\n        /* \"#utility.yul\":4087:4159   */\n      tag_114\n        /* \"#utility.yul\":4155:4157   */\n      0x40\n        /* \"#utility.yul\":4144:4153   */\n      dup4\n        /* \"#utility.yul\":4140:4158   */\n      add\n        /* \"#utility.yul\":4131:4137   */\n      dup7\n        /* \"#utility.yul\":4087:4159   */\n      tag_107\n      jump\t// in\n    tag_114:\n        /* \"#utility.yul\":4169:4241   */\n      tag_115\n        /* \"#utility.yul\":4237:4239   */\n      0x60\n        /* \"#utility.yul\":4226:4235   */\n      dup4\n        /* \"#utility.yul\":4222:4240   */\n      add\n        /* \"#utility.yul\":4213:4219   */\n      dup6\n        /* \"#utility.yul\":4169:4241   */\n      tag_107\n      jump\t// in\n    tag_115:\n        /* \"#utility.yul\":4251:4324   */\n      tag_116\n        /* \"#utility.yul\":4319:4322   */\n      0x80\n        /* \"#utility.yul\":4308:4317   */\n      dup4\n        /* \"#utility.yul\":4304:4323   */\n      add\n        /* \"#utility.yul\":4295:4301   */\n      dup5\n        /* \"#utility.yul\":4251:4324   */\n      tag_107\n      jump\t// in\n    tag_116:\n        /* \"#utility.yul\":3576:4331   */\n      swap7\n      swap6\n      pop\n      pop\n      pop\n      pop\n      pop\n      pop\n      jump\t// out\n        /* \"#utility.yul\":4337:4756   */\n    tag_27:\n        /* \"#utility.yul\":4503:4507   */\n      0x00\n        /* \"#utility.yul\":4541:4543   */\n      0x20\n        /* \"#utility.yul\":4530:4539   */\n      dup3\n        /* \"#utility.yul\":4526:4544   */\n      add\n        /* \"#utility.yul\":4518:4544   */\n      swap1\n      pop\n        /* \"#utility.yul\":4590:4599   */\n      dup2\n        /* \"#utility.yul\":4584:4588   */\n      dup2\n        /* \"#utility.yul\":4580:4600   */\n      sub\n        /* \"#utility.yul\":4576:4577   */\n      0x00\n        /* \"#utility.yul\":4565:4574   */\n      dup4\n        /* \"#utility.yul\":4561:4578   */\n      add\n        /* \"#utility.yul\":4554:4601   */\n      mstore\n        /* \"#utility.yul\":4618:4749   */\n      tag_118\n        /* \"#utility.yul\":4744:4748   */\n      dup2\n        /* \"#utility.yul\":4618:4749   */\n      tag_97\n      jump\t// in\n    tag_118:\n        /* \"#utility.yul\":4610:4749   */\n      swap1\n      pop\n        /* \"#utility.yul\":4337:4756   */\n      swap2\n      swap1\n      pop\n      jump\t// out\n        /* \"#utility.yul\":4762:5181   */\n    tag_31:\n        /* \"#utility.yul\":4928:4932   */\n      0x00\n        /* \"#utility.yul\":4966:4968   */\n      0x20\n        /* \"#utility.yul\":4955:4964   */\n      dup3\n        /* \"#utility.yul\":4951:4969   */\n      add\n        /* \"#utility.yul\":4943:4969   */\n      swap1\n      pop\n        /* \"#utility.yul\":5015:5024   */\n      dup2\n        /* \"#utility.yul\":5009:5013   */\n      dup2\n        /* \"#utility.yul\":5005:5025   */\n      sub\n        /* \"#utility.yul\":5001:5002   */\n      0x00\n        /* \"#utility.yul\":4990:4999   */\n      dup4\n        /* \"#utility.yul\":4986:5003   */\n      add\n        /* \"#utility.yul\":4979:5026   */\n      mstore\n        /* \"#utility.yul\":5043:5174   */\n      tag_120\n        /* \"#utility.yul\":5169:5173   */\n      dup2\n        /* \"#utility.yul\":5043:5174   */\n      tag_102\n      jump\t// in\n    tag_120:\n        /* \"#utility.yul\":5035:5174   */\n      swap1\n      pop\n        /* \"#utility.yul\":4762:5181   */\n      swap2\n      swap1\n      pop\n      jump\t// out\n        /* \"#utility.yul\":5187:5316   */\n    tag_52:\n        /* \"#utility.yul\":5221:5227   */\n      0x00\n        /* \"#utility.yul\":5248:5268   */\n      tag_122\n      tag_123\n      jump\t// in\n    tag_122:\n        /* \"#utility.yul\":5238:5268   */\n      swap1\n      pop\n        /* \"#utility.yul\":5277:5310   */\n      tag_124\n        /* \"#utility.yul\":5305:5309   */\n      dup3\n        /* \"#utility.yul\":5297:5303   */\n      dup3\n        /* \"#utility.yul\":5277:5310   */\n      tag_125\n      jump\t// in\n    tag_124:\n        /* \"#utility.yul\":5187:5316   */\n      swap2\n      swap1\n      pop\n      jump\t// out\n        /* \"#utility.yul\":5322:5397   */\n    tag_123:\n        /* \"#utility.yul\":5355:5361   */\n      0x00\n        /* \"#utility.yul\":5388:5390   */\n      0x40\n        /* \"#utility.yul\":5382:5391   */\n      mload\n        /* \"#utility.yul\":5372:5391   */\n      swap1\n      pop\n        /* \"#utility.yul\":5322:5397   */\n      swap1\n      jump\t// out\n        /* \"#utility.yul\":5403:5711   */\n    tag_51:\n        /* \"#utility.yul\":5465:5469   */\n      0x00\n        /* \"#utility.yul\":5555:5573   */\n      0xffffffffffffffff\n        /* \"#utility.yul\":5547:5553   */\n      dup3\n        /* \"#utility.yul\":5544:5574   */\n      gt\n        /* \"#utility.yul\":5541:5597   */\n      iszero\n      tag_128\n      jumpi\n        /* \"#utility.yul\":5577:5595   */\n      tag_129\n      tag_130\n      jump\t// in\n    tag_129:\n        /* \"#utility.yul\":5541:5597   */\n    tag_128:\n        /* \"#utility.yul\":5615:5644   */\n      tag_131\n        /* \"#utility.yul\":5637:5643   */\n      dup3\n        /* \"#utility.yul\":5615:5644   */\n      tag_96\n      jump\t// in\n    tag_131:\n        /* \"#utility.yul\":5607:5644   */\n      swap1\n      pop\n        /* \"#utility.yul\":5699:5703   */\n      0x20\n        /* \"#utility.yul\":5693:5697   */\n      dup2\n        /* \"#utility.yul\":5689:5704   */\n      add\n        /* \"#utility.yul\":5681:5704   */\n      swap1\n      pop\n        /* \"#utility.yul\":5403:5711   */\n      swap2\n      swap1\n      pop\n      jump\t// out\n        /* \"#utility.yul\":5717:5816   */\n    tag_90:\n        /* \"#utility.yul\":5769:5775   */\n      0x00\n        /* \"#utility.yul\":5803:5808   */\n      dup2\n        /* \"#utility.yul\":5797:5809   */\n      mload\n        /* \"#utility.yul\":5787:5809   */\n      swap1\n      pop\n        /* \"#utility.yul\":5717:5816   */\n      swap2\n      swap1\n      pop\n      jump\t// out\n        /* \"#utility.yul\":5822:5991   */\n    tag_92:\n        /* \"#utility.yul\":5906:5917   */\n      0x00\n        /* \"#utility.yul\":5940:5946   */\n      dup3\n        /* \"#utility.yul\":5935:5938   */\n      dup3\n        /* \"#utility.yul\":5928:5947   */\n      mstore\n        /* \"#utility.yul\":5980:5984   */\n      0x20\n        /* \"#utility.yul\":5975:5978   */\n      dup3\n        /* \"#utility.yul\":5971:5985   */\n      add\n        /* \"#utility.yul\":5956:5985   */\n      swap1\n      pop\n        /* \"#utility.yul\":5822:5991   */\n      swap3\n      swap2\n      pop\n      pop\n      jump\t// out\n        /* \"#utility.yul\":5997:6093   */\n    tag_86:\n        /* \"#utility.yul\":6034:6041   */\n      0x00\n        /* \"#utility.yul\":6063:6087   */\n      tag_135\n        /* \"#utility.yul\":6081:6086   */\n      dup3\n        /* \"#utility.yul\":6063:6087   */\n      tag_136\n      jump\t// in\n    tag_135:\n        /* \"#utility.yul\":6052:6087   */\n      swap1\n      pop\n        /* \"#utility.yul\":5997:6093   */\n      swap2\n      swap1\n      pop\n      jump\t// out\n        /* \"#utility.yul\":6099:6225   */\n    tag_136:\n        /* \"#utility.yul\":6136:6143   */\n      0x00\n        /* \"#utility.yul\":6176:6218   */\n      0xffffffffffffffffffffffffffffffffffffffff\n        /* \"#utility.yul\":6169:6174   */\n      dup3\n        /* \"#utility.yul\":6165:6219   */\n      and\n        /* \"#utility.yul\":6154:6219   */\n      swap1\n      pop\n        /* \"#utility.yul\":6099:6225   */\n      swap2\n      swap1\n      pop\n      jump\t// out\n        /* \"#utility.yul\":6231:6308   */\n    tag_110:\n        /* \"#utility.yul\":6268:6275   */\n      0x00\n        /* \"#utility.yul\":6297:6302   */\n      dup2\n        /* \"#utility.yul\":6286:6302   */\n      swap1\n      pop\n        /* \"#utility.yul\":6231:6308   */\n      swap2\n      swap1\n      pop\n      jump\t// out\n        /* \"#utility.yul\":6314:6468   */\n    tag_57:\n        /* \"#utility.yul\":6398:6404   */\n      dup3\n        /* \"#utility.yul\":6393:6396   */\n      dup2\n        /* \"#utility.yul\":6388:6391   */\n      dup4\n        /* \"#utility.yul\":6375:6405   */\n      calldatacopy\n        /* \"#utility.yul\":6460:6461   */\n      0x00\n        /* \"#utility.yul\":6451:6457   */\n      dup4\n        /* \"#utility.yul\":6446:6449   */\n      dup4\n        /* \"#utility.yul\":6442:6458   */\n      add\n        /* \"#utility.yul\":6435:6462   */\n      mstore\n        /* \"#utility.yul\":6314:6468   */\n      pop\n      pop\n      pop\n      jump\t// out\n        /* \"#utility.yul\":6474:6781   */\n    tag_94:\n        /* \"#utility.yul\":6542:6543   */\n      0x00\n        /* \"#utility.yul\":6552:6665   */\n    tag_141:\n        /* \"#utility.yul\":6566:6572   */\n      dup4\n        /* \"#utility.yul\":6563:6564   */\n      dup2\n        /* \"#utility.yul\":6560:6573   */\n      lt\n        /* \"#utility.yul\":6552:6665   */\n      iszero\n      tag_143\n      jumpi\n        /* \"#utility.yul\":6651:6652   */\n      dup1\n        /* \"#utility.yul\":6646:6649   */\n      dup3\n        /* \"#utility.yul\":6642:6653   */\n      add\n        /* \"#utility.yul\":6636:6654   */\n      mload\n        /* \"#utility.yul\":6632:6633   */\n      dup2\n        /* \"#utility.yul\":6627:6630   */\n      dup5\n        /* \"#utility.yul\":6623:6634   */\n      add\n        /* \"#utility.yul\":6616:6655   */\n      mstore\n        /* \"#utility.yul\":6588:6590   */\n      0x20\n        /* \"#utility.yul\":6585:6586   */\n      dup2\n        /* \"#utility.yul\":6581:6591   */\n      add\n        /* \"#utility.yul\":6576:6591   */\n      swap1\n      pop\n        /* \"#utility.yul\":6552:6665   */\n      jump(tag_141)\n    tag_143:\n        /* \"#utility.yul\":6683:6689   */\n      dup4\n        /* \"#utility.yul\":6680:6681   */\n      dup2\n        /* \"#utility.yul\":6677:6690   */\n      gt\n        /* \"#utility.yul\":6674:6775   */\n      iszero\n      tag_144\n      jumpi\n        /* \"#utility.yul\":6763:6764   */\n      0x00\n        /* \"#utility.yul\":6754:6760   */\n      dup5\n        /* \"#utility.yul\":6749:6752   */\n      dup5\n        /* \"#utility.yul\":6745:6761   */\n      add\n        /* \"#utility.yul\":6738:6765   */\n      mstore\n        /* \"#utility.yul\":6674:6775   */\n    tag_144:\n        /* \"#utility.yul\":6523:6781   */\n      pop\n        /* \"#utility.yul\":6474:6781   */\n      pop\n      pop\n      pop\n      jump\t// out\n        /* \"#utility.yul\":6787:7107   */\n    tag_18:\n        /* \"#utility.yul\":6831:6837   */\n      0x00\n        /* \"#utility.yul\":6868:6869   */\n      0x02\n        /* \"#utility.yul\":6862:6866   */\n      dup3\n        /* \"#utility.yul\":6858:6870   */\n      div\n        /* \"#utility.yul\":6848:6870   */\n      swap1\n      pop\n        /* \"#utility.yul\":6915:6916   */\n      0x01\n        /* \"#utility.yul\":6909:6913   */\n      dup3\n        /* \"#utility.yul\":6905:6917   */\n      and\n        /* \"#utility.yul\":6936:6954   */\n      dup1\n        /* \"#utility.yul\":6926:7007   */\n      tag_146\n      jumpi\n        /* \"#utility.yul\":6992:6996   */\n      0x7f\n        /* \"#utility.yul\":6984:6990   */\n      dup3\n        /* \"#utility.yul\":6980:6997   */\n      and\n        /* \"#utility.yul\":6970:6997   */\n      swap2\n      pop\n        /* \"#utility.yul\":6926:7007   */\n    tag_146:\n        /* \"#utility.yul\":7054:7056   */\n      0x20\n        /* \"#utility.yul\":7046:7052   */\n      dup3\n        /* \"#utility.yul\":7043:7057   */\n      lt\n        /* \"#utility.yul\":7023:7041   */\n      dup2\n        /* \"#utility.yul\":7020:7058   */\n      eq\n        /* \"#utility.yul\":7017:7101   */\n      iszero\n      tag_147\n      jumpi\n        /* \"#utility.yul\":7073:7091   */\n      tag_148\n      tag_149\n      jump\t// in\n    tag_148:\n        /* \"#utility.yul\":7017:7101   */\n    tag_147:\n        /* \"#utility.yul\":6838:7107   */\n      pop\n        /* \"#utility.yul\":6787:7107   */\n      swap2\n      swap1\n      pop\n      jump\t// out\n        /* \"#utility.yul\":7113:7394   */\n    tag_125:\n        /* \"#utility.yul\":7196:7223   */\n      tag_151\n        /* \"#utility.yul\":7218:7222   */\n      dup3\n        /* \"#utility.yul\":7196:7223   */\n      tag_96\n      jump\t// in\n    tag_151:\n        /* \"#utility.yul\":7188:7194   */\n      dup2\n        /* \"#utility.yul\":7184:7224   */\n      add\n        /* \"#utility.yul\":7326:7332   */\n      dup2\n        /* \"#utility.yul\":7314:7324   */\n      dup2\n        /* \"#utility.yul\":7311:7333   */\n      lt\n        /* \"#utility.yul\":7290:7308   */\n      0xffffffffffffffff\n        /* \"#utility.yul\":7278:7288   */\n      dup3\n        /* \"#utility.yul\":7275:7309   */\n      gt\n        /* \"#utility.yul\":7272:7334   */\n      or\n        /* \"#utility.yul\":7269:7357   */\n      iszero\n      tag_152\n      jumpi\n        /* \"#utility.yul\":7337:7355   */\n      tag_153\n      tag_130\n      jump\t// in\n    tag_153:\n        /* \"#utility.yul\":7269:7357   */\n    tag_152:\n        /* \"#utility.yul\":7377:7387   */\n      dup1\n        /* \"#utility.yul\":7373:7375   */\n      0x40\n        /* \"#utility.yul\":7366:7388   */\n      mstore\n        /* \"#utility.yul\":7156:7394   */\n      pop\n        /* \"#utility.yul\":7113:7394   */\n      pop\n      pop\n      jump\t// out\n        /* \"#utility.yul\":7400:7580   */\n    tag_149:\n        /* \"#utility.yul\":7448:7525   */\n      0x4e487b7100000000000000000000000000000000000000000000000000000000\n        /* \"#utility.yul\":7445:7446   */\n      0x00\n        /* \"#utility.yul\":7438:7526   */\n      mstore\n        /* \"#utility.yul\":7545:7549   */\n      0x22\n        /* \"#utility.yul\":7542:7543   */\n      0x04\n        /* \"#utility.yul\":7535:7550   */\n      mstore\n        /* \"#utility.yul\":7569:7573   */\n      0x24\n        /* \"#utility.yul\":7566:7567   */\n      0x00\n        /* \"#utility.yul\":7559:7574   */\n      revert\n        /* \"#utility.yul\":7586:7766   */\n    tag_130:\n        /* \"#utility.yul\":7634:7711   */\n      0x4e487b7100000000000000000000000000000000000000000000000000000000\n        /* \"#utility.yul\":7631:7632   */\n      0x00\n        /* \"#utility.yul\":7624:7712   */\n      mstore\n        /* \"#utility.yul\":7731:7735   */\n      0x41\n        /* \"#utility.yul\":7728:7729   */\n      0x04\n        /* \"#utility.yul\":7721:7736   */\n      mstore\n        /* \"#utility.yul\":7755:7759   */\n      0x24\n        /* \"#utility.yul\":7752:7753   */\n      0x00\n        /* \"#utility.yul\":7745:7760   */\n      revert\n        /* \"#utility.yul\":7772:7889   */\n    tag_62:\n        /* \"#utility.yul\":7881:7882   */\n      0x00\n        /* \"#utility.yul\":7878:7879   */\n      dup1\n        /* \"#utility.yul\":7871:7883   */\n      revert\n        /* \"#utility.yul\":7895:8012   */\n    tag_55:\n        /* \"#utility.yul\":8004:8005   */\n      0x00\n        /* \"#utility.yul\":8001:8002   */\n      dup1\n        /* \"#utility.yul\":7994:8006   */\n      revert\n        /* \"#utility.yul\":8018:8135   */\n    tag_74:\n        /* \"#utility.yul\":8127:8128   */\n      0x00\n        /* \"#utility.yul\":8124:8125   */\n      dup1\n        /* \"#utility.yul\":8117:8129   */\n      revert\n        /* \"#utility.yul\":8141:8258   */\n    tag_71:\n        /* \"#utility.yul\":8250:8251   */\n      0x00\n        /* \"#utility.yul\":8247:8248   */\n      dup1\n        /* \"#utility.yul\":8240:8252   */\n      revert\n        /* \"#utility.yul\":8264:8366   */\n    tag_96:\n        /* \"#utility.yul\":8305:8311   */\n      0x00\n        /* \"#utility.yul\":8356:8358   */\n      0x1f\n        /* \"#utility.yul\":8352:8359   */\n      not\n        /* \"#utility.yul\":8347:8349   */\n      0x1f\n        /* \"#utility.yul\":8340:8345   */\n      dup4\n        /* \"#utility.yul\":8336:8350   */\n      add\n        /* \"#utility.yul\":8332:8360   */\n      and\n        /* \"#utility.yul\":8322:8360   */\n      swap1\n      pop\n        /* \"#utility.yul\":8264:8366   */\n      swap2\n      swap1\n      pop\n      jump\t// out\n        /* \"#utility.yul\":8372:8609   */\n    tag_101:\n        /* \"#utility.yul\":8512:8546   */\n      0x456e74657220612076616c69642061646472657373206f72206f776e65722063\n        /* \"#utility.yul\":8508:8509   */\n      0x00\n        /* \"#utility.yul\":8500:8506   */\n      dup3\n        /* \"#utility.yul\":8496:8510   */\n      add\n        /* \"#utility.yul\":8489:8547   */\n      mstore\n        /* \"#utility.yul\":8581:8601   */\n      0x616e277420686f737420616e206576656e740000000000000000000000000000\n        /* \"#utility.yul\":8576:8578   */\n      0x20\n        /* \"#utility.yul\":8568:8574   */\n      dup3\n        /* \"#utility.yul\":8564:8579   */\n      add\n        /* \"#utility.yul\":8557:8602   */\n      mstore\n        /* \"#utility.yul\":8372:8609   */\n      pop\n      jump\t// out\n        /* \"#utility.yul\":8615:8729   */\n    tag_106:\n      pop\n      jump\t// out\n        /* \"#utility.yul\":8735:8857   */\n    tag_67:\n        /* \"#utility.yul\":8808:8832   */\n      tag_164\n        /* \"#utility.yul\":8826:8831   */\n      dup2\n        /* \"#utility.yul\":8808:8832   */\n      tag_110\n      jump\t// in\n    tag_164:\n        /* \"#utility.yul\":8801:8806   */\n      dup2\n        /* \"#utility.yul\":8798:8833   */\n      eq\n        /* \"#utility.yul\":8788:8851   */\n      tag_165\n      jumpi\n        /* \"#utility.yul\":8847:8848   */\n      0x00\n        /* \"#utility.yul\":8844:8845   */\n      dup1\n        /* \"#utility.yul\":8837:8849   */\n      revert\n        /* \"#utility.yul\":8788:8851   */\n    tag_165:\n        /* \"#utility.yul\":8735:8857   */\n      pop\n      jump\t// out\n\n    auxdata: 0xa2646970667358221220f542eff00300552eed4f53d53251f4b305fef72b6ff6392a2ba4b448ae539e6f64736f6c63430008070033\n}\n",
				"bytecode": {
					"linkReferences": {},
					"object": "608060405234801561001057600080fd5b50336000806101000a81548173ffffffffffffffffffffffffffffffffffffffff021916908373ffffffffffffffffffffffffffffffffffffffff160217905550610919806100606000396000f3fe608060405234801561001057600080fd5b50600436106100365760003560e01c80630b7914301461003b578063ee3bf8031461006f575b600080fd5b61005560048036038101906100509190610540565b61008b565b60405161006695949392919061060a565b60405180910390f35b610089600480360381019061008491906104bd565b610179565b005b6001818154811061009b57600080fd5b90600052602060002090600502016000915090508060000160009054906101000a900473ffffffffffffffffffffffffffffffffffffffff16908060010180546100e490610794565b80601f016020809104026020016040519081016040528092919081815260200182805461011090610794565b801561015d5780601f106101325761010080835404028352916020019161015d565b820191906000526020600020905b81548152906001019060200180831161014057829003601f168201915b5050505050908060020154908060030154908060040154905085565b60008054906101000a900473ffffffffffffffffffffffffffffffffffffffff1673ffffffffffffffffffffffffffffffffffffffff163373ffffffffffffffffffffffffffffffffffffffff16141580156102025750600073ffffffffffffffffffffffffffffffffffffffff163373ffffffffffffffffffffffffffffffffffffffff1614155b610241576040517f08c379a000000000000000000000000000000000000000000000000000000000815260040161023890610664565b60405180910390fd5b6000831415801561025157504283115b610290576040517f08c379a000000000000000000000000000000000000000000000000000000000815260040161028790610684565b60405180910390fd5b6000811161029d57600080fd5b60006040518060a001604052803373ffffffffffffffffffffffffffffffffffffffff168152602001868152602001858152602001848152602001838152509050600181908060018154018082558091505060019003906000526020600020906005020160009091909190915060008201518160000160006101000a81548173ffffffffffffffffffffffffffffffffffffffff021916908373ffffffffffffffffffffffffffffffffffffffff160217905550602082015181600101908051906020019061036d929190610395565b5060408201518160020155606082015181600301556080820151816004015550505050505050565b8280546103a190610794565b90600052602060002090601f0160209004810192826103c3576000855561040a565b82601f106103dc57805160ff191683800117855561040a565b8280016001018555821561040a579182015b828111156104095782518255916020019190600101906103ee565b5b509050610417919061041b565b5090565b5b8082111561043457600081600090555060010161041c565b5090565b600061044b610446846106c9565b6106a4565b9050828152602081018484840111156104675761046661085a565b5b610472848285610752565b509392505050565b600082601f83011261048f5761048e610855565b5b813561049f848260208601610438565b91505092915050565b6000813590506104b7816108cc565b92915050565b600080600080608085870312156104d7576104d6610864565b5b600085013567ffffffffffffffff8111156104f5576104f461085f565b5b6105018782880161047a565b9450506020610512878288016104a8565b9350506040610523878288016104a8565b9250506060610534878288016104a8565b91505092959194509250565b60006020828403121561055657610555610864565b5b6000610564848285016104a8565b91505092915050565b61057681610716565b82525050565b6000610587826106fa565b6105918185610705565b93506105a1818560208601610761565b6105aa81610869565b840191505092915050565b60006105c2603283610705565b91506105cd8261087a565b604082019050919050565b60006105e5600083610705565b91506105f0826108c9565b600082019050919050565b61060481610748565b82525050565b600060a08201905061061f600083018861056d565b8181036020830152610631818761057c565b905061064060408301866105fb565b61064d60608301856105fb565b61065a60808301846105fb565b9695505050505050565b6000602082019050818103600083015261067d816105b5565b9050919050565b6000602082019050818103600083015261069d816105d8565b9050919050565b60006106ae6106bf565b90506106ba82826107c6565b919050565b6000604051905090565b600067ffffffffffffffff8211156106e4576106e3610826565b5b6106ed82610869565b9050602081019050919050565b600081519050919050565b600082825260208201905092915050565b600061072182610728565b9050919050565b600073ffffffffffffffffffffffffffffffffffffffff82169050919050565b6000819050919050565b82818337600083830152505050565b60005b8381101561077f578082015181840152602081019050610764565b8381111561078e576000848401525b50505050565b600060028204905060018216806107ac57607f821691505b602082108114156107c0576107bf6107f7565b5b50919050565b6107cf82610869565b810181811067ffffffffffffffff821117156107ee576107ed610826565b5b80604052505050565b7f4e487b7100000000000000000000000000000000000000000000000000000000600052602260045260246000fd5b7f4e487b7100000000000000000000000000000000000000000000000000000000600052604160045260246000fd5b600080fd5b600080fd5b600080fd5b600080fd5b6000601f19601f8301169050919050565b7f456e74657220612076616c69642061646472657373206f72206f776e6572206360008201527f616e277420686f737420616e206576656e740000000000000000000000000000602082015250565b50565b6108d581610748565b81146108e057600080fd5b5056fea2646970667358221220f542eff00300552eed4f53d53251f4b305fef72b6ff6392a2ba4b448ae539e6f64736f6c63430008070033",
					"opcodes": "PUSH1 0x80 PUSH1 0x40 MSTORE CALLVALUE DUP1 ISZERO PUSH2 0x10 JUMPI PUSH1 0x0 DUP1 REVERT JUMPDEST POP CALLER PUSH1 0x0 DUP1 PUSH2 0x100 EXP DUP2 SLOAD DUP2 PUSH20 0xFFFFFFFFFFFFFFFFFFFFFFFFFFFFFFFFFFFFFFFF MUL NOT AND SWAP1 DUP4 PUSH20 0xFFFFFFFFFFFFFFFFFFFFFFFFFFFFFFFFFFFFFFFF AND MUL OR SWAP1 SSTORE POP PUSH2 0x919 DUP1 PUSH2 0x60 PUSH1 0x0 CODECOPY PUSH1 0x0 RETURN INVALID PUSH1 0x80 PUSH1 0x40 MSTORE CALLVALUE DUP1 ISZERO PUSH2 0x10 JUMPI PUSH1 0x0 DUP1 REVERT JUMPDEST POP PUSH1 0x4 CALLDATASIZE LT PUSH2 0x36 JUMPI PUSH1 0x0 CALLDATALOAD PUSH1 0xE0 SHR DUP1 PUSH4 0xB791430 EQ PUSH2 0x3B JUMPI DUP1 PUSH4 0xEE3BF803 EQ PUSH2 0x6F JUMPI JUMPDEST PUSH1 0x0 DUP1 REVERT JUMPDEST PUSH2 0x55 PUSH1 0x4 DUP1 CALLDATASIZE SUB DUP2 ADD SWAP1 PUSH2 0x50 SWAP2 SWAP1 PUSH2 0x540 JUMP JUMPDEST PUSH2 0x8B JUMP JUMPDEST PUSH1 0x40 MLOAD PUSH2 0x66 SWAP6 SWAP5 SWAP4 SWAP3 SWAP2 SWAP1 PUSH2 0x60A JUMP JUMPDEST PUSH1 0x40 MLOAD DUP1 SWAP2 SUB SWAP1 RETURN JUMPDEST PUSH2 0x89 PUSH1 0x4 DUP1 CALLDATASIZE SUB DUP2 ADD SWAP1 PUSH2 0x84 SWAP2 SWAP1 PUSH2 0x4BD JUMP JUMPDEST PUSH2 0x179 JUMP JUMPDEST STOP JUMPDEST PUSH1 0x1 DUP2 DUP2 SLOAD DUP2 LT PUSH2 0x9B JUMPI PUSH1 0x0 DUP1 REVERT JUMPDEST SWAP1 PUSH1 0x0 MSTORE PUSH1 0x20 PUSH1 0x0 KECCAK256 SWAP1 PUSH1 0x5 MUL ADD PUSH1 0x0 SWAP2 POP SWAP1 POP DUP1 PUSH1 0x0 ADD PUSH1 0x0 SWAP1 SLOAD SWAP1 PUSH2 0x100 EXP SWAP1 DIV PUSH20 0xFFFFFFFFFFFFFFFFFFFFFFFFFFFFFFFFFFFFFFFF AND SWAP1 DUP1 PUSH1 0x1 ADD DUP1 SLOAD PUSH2 0xE4 SWAP1 PUSH2 0x794 JUMP JUMPDEST DUP1 PUSH1 0x1F ADD PUSH1 0x20 DUP1 SWAP2 DIV MUL PUSH1 0x20 ADD PUSH1 0x40 MLOAD SWAP1 DUP2 ADD PUSH1 0x40 MSTORE DUP1 SWAP3 SWAP2 SWAP1 DUP2 DUP2 MSTORE PUSH1 0x20 ADD DUP3 DUP1 SLOAD PUSH2 0x110 SWAP1 PUSH2 0x794 JUMP JUMPDEST DUP1 ISZERO PUSH2 0x15D JUMPI DUP1 PUSH1 0x1F LT PUSH2 0x132 JUMPI PUSH2 0x100 DUP1 DUP4 SLOAD DIV MUL DUP4 MSTORE SWAP2 PUSH1 0x20 ADD SWAP2 PUSH2 0x15D JUMP JUMPDEST DUP3 ADD SWAP2 SWAP1 PUSH1 0x0 MSTORE PUSH1 0x20 PUSH1 0x0 KECCAK256 SWAP1 JUMPDEST DUP2 SLOAD DUP2 MSTORE SWAP1 PUSH1 0x1 ADD SWAP1 PUSH1 0x20 ADD DUP1 DUP4 GT PUSH2 0x140 JUMPI DUP3 SWAP1 SUB PUSH1 0x1F AND DUP3 ADD SWAP2 JUMPDEST POP POP POP POP POP SWAP1 DUP1 PUSH1 0x2 ADD SLOAD SWAP1 DUP1 PUSH1 0x3 ADD SLOAD SWAP1 DUP1 PUSH1 0x4 ADD SLOAD SWAP1 POP DUP6 JUMP JUMPDEST PUSH1 0x0 DUP1 SLOAD SWAP1 PUSH2 0x100 EXP SWAP1 DIV PUSH20 0xFFFFFFFFFFFFFFFFFFFFFFFFFFFFFFFFFFFFFFFF AND PUSH20 0xFFFFFFFFFFFFFFFFFFFFFFFFFFFFFFFFFFFFFFFF AND CALLER PUSH20 0xFFFFFFFFFFFFFFFFFFFFFFFFFFFFFFFFFFFFFFFF AND EQ ISZERO DUP1 ISZERO PUSH2 0x202 JUMPI POP PUSH1 0x0 PUSH20 0xFFFFFFFFFFFFFFFFFFFFFFFFFFFFFFFFFFFFFFFF AND CALLER PUSH20 0xFFFFFFFFFFFFFFFFFFFFFFFFFFFFFFFFFFFFFFFF AND EQ ISZERO JUMPDEST PUSH2 0x241 JUMPI PUSH1 0x40 MLOAD PUSH32 0x8C379A000000000000000000000000000000000000000000000000000000000 DUP2 MSTORE PUSH1 0x4 ADD PUSH2 0x238 SWAP1 PUSH2 0x664 JUMP JUMPDEST PUSH1 0x40 MLOAD DUP1 SWAP2 SUB SWAP1 REVERT JUMPDEST PUSH1 0x0 DUP4 EQ ISZERO DUP1 ISZERO PUSH2 0x251 JUMPI POP TIMESTAMP DUP4 GT JUMPDEST PUSH2 0x290 JUMPI PUSH1 0x40 MLOAD PUSH32 0x8C379A000000000000000000000000000000000000000000000000000000000 DUP2 MSTORE PUSH1 0x4 ADD PUSH2 0x287 SWAP1 PUSH2 0x684 JUMP JUMPDEST PUSH1 0x40 MLOAD DUP1 SWAP2 SUB SWAP1 REVERT JUMPDEST PUSH1 0x0 DUP2 GT PUSH2 0x29D JUMPI PUSH1 0x0 DUP1 REVERT JUMPDEST PUSH1 0x0 PUSH1 0x40 MLOAD DUP1 PUSH1 0xA0 ADD PUSH1 0x40 MSTORE DUP1 CALLER PUSH20 0xFFFFFFFFFFFFFFFFFFFFFFFFFFFFFFFFFFFFFFFF AND DUP2 MSTORE PUSH1 0x20 ADD DUP7 DUP2 MSTORE PUSH1 0x20 ADD DUP6 DUP2 MSTORE PUSH1 0x20 ADD DUP5 DUP2 MSTORE PUSH1 0x20 ADD DUP4 DUP2 MSTORE POP SWAP1 POP PUSH1 0x1 DUP2 SWAP1 DUP1 PUSH1 0x1 DUP2 SLOAD ADD DUP1 DUP3 SSTORE DUP1 SWAP2 POP POP PUSH1 0x1 SWAP1 SUB SWAP1 PUSH1 0x0 MSTORE PUSH1 0x20 PUSH1 0x0 KECCAK256 SWAP1 PUSH1 0x5 MUL ADD PUSH1 0x0 SWAP1 SWAP2 SWAP1 SWAP2 SWAP1 SWAP2 POP PUSH1 0x0 DUP3 ADD MLOAD DUP2 PUSH1 0x0 ADD PUSH1 0x0 PUSH2 0x100 EXP DUP2 SLOAD DUP2 PUSH20 0xFFFFFFFFFFFFFFFFFFFFFFFFFFFFFFFFFFFFFFFF MUL NOT AND SWAP1 DUP4 PUSH20 0xFFFFFFFFFFFFFFFFFFFFFFFFFFFFFFFFFFFFFFFF AND MUL OR SWAP1 SSTORE POP PUSH1 0x20 DUP3 ADD MLOAD DUP2 PUSH1 0x1 ADD SWAP1 DUP1 MLOAD SWAP1 PUSH1 0x20 ADD SWAP1 PUSH2 0x36D SWAP3 SWAP2 SWAP1 PUSH2 0x395 JUMP JUMPDEST POP PUSH1 0x40 DUP3 ADD MLOAD DUP2 PUSH1 0x2 ADD SSTORE PUSH1 0x60 DUP3 ADD MLOAD DUP2 PUSH1 0x3 ADD SSTORE PUSH1 0x80 DUP3 ADD MLOAD DUP2 PUSH1 0x4 ADD SSTORE POP POP POP POP POP POP POP JUMP JUMPDEST DUP3 DUP1 SLOAD PUSH2 0x3A1 SWAP1 PUSH2 0x794 JUMP JUMPDEST SWAP1 PUSH1 0x0 MSTORE PUSH1 0x20 PUSH1 0x0 KECCAK256 SWAP1 PUSH1 0x1F ADD PUSH1 0x20 SWAP1 DIV DUP2 ADD SWAP3 DUP3 PUSH2 0x3C3 JUMPI PUSH1 0x0 DUP6 SSTORE PUSH2 0x40A JUMP JUMPDEST DUP3 PUSH1 0x1F LT PUSH2 0x3DC JUMPI DUP1 MLOAD PUSH1 0xFF NOT AND DUP4 DUP1 ADD OR DUP6 SSTORE PUSH2 0x40A JUMP JUMPDEST DUP3 DUP1 ADD PUSH1 0x1 ADD DUP6 SSTORE DUP3 ISZERO PUSH2 0x40A JUMPI SWAP2 DUP3 ADD JUMPDEST DUP3 DUP2 GT ISZERO PUSH2 0x409 JUMPI DUP3 MLOAD DUP3 SSTORE SWAP2 PUSH1 0x20 ADD SWAP2 SWAP1 PUSH1 0x1 ADD SWAP1 PUSH2 0x3EE JUMP JUMPDEST JUMPDEST POP SWAP1 POP PUSH2 0x417 SWAP2 SWAP1 PUSH2 0x41B JUMP JUMPDEST POP SWAP1 JUMP JUMPDEST JUMPDEST DUP1 DUP3 GT ISZERO PUSH2 0x434 JUMPI PUSH1 0x0 DUP2 PUSH1 0x0 SWAP1 SSTORE POP PUSH1 0x1 ADD PUSH2 0x41C JUMP JUMPDEST POP SWAP1 JUMP JUMPDEST PUSH1 0x0 PUSH2 0x44B PUSH2 0x446 DUP5 PUSH2 0x6C9 JUMP JUMPDEST PUSH2 0x6A4 JUMP JUMPDEST SWAP1 POP DUP3 DUP2 MSTORE PUSH1 0x20 DUP2 ADD DUP5 DUP5 DUP5 ADD GT ISZERO PUSH2 0x467 JUMPI PUSH2 0x466 PUSH2 0x85A JUMP JUMPDEST JUMPDEST PUSH2 0x472 DUP5 DUP3 DUP6 PUSH2 0x752 JUMP JUMPDEST POP SWAP4 SWAP3 POP POP POP JUMP JUMPDEST PUSH1 0x0 DUP3 PUSH1 0x1F DUP4 ADD SLT PUSH2 0x48F JUMPI PUSH2 0x48E PUSH2 0x855 JUMP JUMPDEST JUMPDEST DUP2 CALLDATALOAD PUSH2 0x49F DUP5 DUP3 PUSH1 0x20 DUP7 ADD PUSH2 0x438 JUMP JUMPDEST SWAP2 POP POP SWAP3 SWAP2 POP POP JUMP JUMPDEST PUSH1 0x0 DUP2 CALLDATALOAD SWAP1 POP PUSH2 0x4B7 DUP2 PUSH2 0x8CC JUMP JUMPDEST SWAP3 SWAP2 POP POP JUMP JUMPDEST PUSH1 0x0 DUP1 PUSH1 0x0 DUP1 PUSH1 0x80 DUP6 DUP8 SUB SLT ISZERO PUSH2 0x4D7 JUMPI PUSH2 0x4D6 PUSH2 0x864 JUMP JUMPDEST JUMPDEST PUSH1 0x0 DUP6 ADD CALLDATALOAD PUSH8 0xFFFFFFFFFFFFFFFF DUP2 GT ISZERO PUSH2 0x4F5 JUMPI PUSH2 0x4F4 PUSH2 0x85F JUMP JUMPDEST JUMPDEST PUSH2 0x501 DUP8 DUP3 DUP9 ADD PUSH2 0x47A JUMP JUMPDEST SWAP5 POP POP PUSH1 0x20 PUSH2 0x512 DUP8 DUP3 DUP9 ADD PUSH2 0x4A8 JUMP JUMPDEST SWAP4 POP POP PUSH1 0x40 PUSH2 0x523 DUP8 DUP3 DUP9 ADD PUSH2 0x4A8 JUMP JUMPDEST SWAP3 POP POP PUSH1 0x60 PUSH2 0x534 DUP8 DUP3 DUP9 ADD PUSH2 0x4A8 JUMP JUMPDEST SWAP2 POP POP SWAP3 SWAP6 SWAP2 SWAP5 POP SWAP3 POP JUMP JUMPDEST PUSH1 0x0 PUSH1 0x20 DUP3 DUP5 SUB SLT ISZERO PUSH2 0x556 JUMPI PUSH2 0x555 PUSH2 0x864 JUMP JUMPDEST JUMPDEST PUSH1 0x0 PUSH2 0x564 DUP5 DUP3 DUP6 ADD PUSH2 0x4A8 JUMP JUMPDEST SWAP2 POP POP SWAP3 SWAP2 POP POP JUMP JUMPDEST PUSH2 0x576 DUP2 PUSH2 0x716 JUMP JUMPDEST DUP3 MSTORE POP POP JUMP JUMPDEST PUSH1 0x0 PUSH2 0x587 DUP3 PUSH2 0x6FA JUMP JUMPDEST PUSH2 0x591 DUP2 DUP6 PUSH2 0x705 JUMP JUMPDEST SWAP4 POP PUSH2 0x5A1 DUP2 DUP6 PUSH1 0x20 DUP7 ADD PUSH2 0x761 JUMP JUMPDEST PUSH2 0x5AA DUP2 PUSH2 0x869 JUMP JUMPDEST DUP5 ADD SWAP2 POP POP SWAP3 SWAP2 POP POP JUMP JUMPDEST PUSH1 0x0 PUSH2 0x5C2 PUSH1 0x32 DUP4 PUSH2 0x705 JUMP JUMPDEST SWAP2 POP PUSH2 0x5CD DUP3 PUSH2 0x87A JUMP JUMPDEST PUSH1 0x40 DUP3 ADD SWAP1 POP SWAP2 SWAP1 POP JUMP JUMPDEST PUSH1 0x0 PUSH2 0x5E5 PUSH1 0x0 DUP4 PUSH2 0x705 JUMP JUMPDEST SWAP2 POP PUSH2 0x5F0 DUP3 PUSH2 0x8C9 JUMP JUMPDEST PUSH1 0x0 DUP3 ADD SWAP1 POP SWAP2 SWAP1 POP JUMP JUMPDEST PUSH2 0x604 DUP2 PUSH2 0x748 JUMP JUMPDEST DUP3 MSTORE POP POP JUMP JUMPDEST PUSH1 0x0 PUSH1 0xA0 DUP3 ADD SWAP1 POP PUSH2 0x61F PUSH1 0x0 DUP4 ADD DUP9 PUSH2 0x56D JUMP JUMPDEST DUP2 DUP2 SUB PUSH1 0x20 DUP4 ADD MSTORE PUSH2 0x631 DUP2 DUP8 PUSH2 0x57C JUMP JUMPDEST SWAP1 POP PUSH2 0x640 PUSH1 0x40 DUP4 ADD DUP7 PUSH2 0x5FB JUMP JUMPDEST PUSH2 0x64D PUSH1 0x60 DUP4 ADD DUP6 PUSH2 0x5FB JUMP JUMPDEST PUSH2 0x65A PUSH1 0x80 DUP4 ADD DUP5 PUSH2 0x5FB JUMP JUMPDEST SWAP7 SWAP6 POP POP POP POP POP POP JUMP JUMPDEST PUSH1 0x0 PUSH1 0x20 DUP3 ADD SWAP1 POP DUP2 DUP2 SUB PUSH1 0x0 DUP4 ADD MSTORE PUSH2 0x67D DUP2 PUSH2 0x5B5 JUMP JUMPDEST SWAP1 POP SWAP2 SWAP1 POP JUMP JUMPDEST PUSH1 0x0 PUSH1 0x20 DUP3 ADD SWAP1 POP DUP2 DUP2 SUB PUSH1 0x0 DUP4 ADD MSTORE PUSH2 0x69D DUP2 PUSH2 0x5D8 JUMP JUMPDEST SWAP1 POP SWAP2 SWAP1 POP JUMP JUMPDEST PUSH1 0x0 PUSH2 0x6AE PUSH2 0x6BF JUMP JUMPDEST SWAP1 POP PUSH2 0x6BA DUP3 DUP3 PUSH2 0x7C6 JUMP JUMPDEST SWAP2 SWAP1 POP JUMP JUMPDEST PUSH1 0x0 PUSH1 0x40 MLOAD SWAP1 POP SWAP1 JUMP JUMPDEST PUSH1 0x0 PUSH8 0xFFFFFFFFFFFFFFFF DUP3 GT ISZERO PUSH2 0x6E4 JUMPI PUSH2 0x6E3 PUSH2 0x826 JUMP JUMPDEST JUMPDEST PUSH2 0x6ED DUP3 PUSH2 0x869 JUMP JUMPDEST SWAP1 POP PUSH1 0x20 DUP2 ADD SWAP1 POP SWAP2 SWAP1 POP JUMP JUMPDEST PUSH1 0x0 DUP2 MLOAD SWAP1 POP SWAP2 SWAP1 POP JUMP JUMPDEST PUSH1 0x0 DUP3 DUP3 MSTORE PUSH1 0x20 DUP3 ADD SWAP1 POP SWAP3 SWAP2 POP POP JUMP JUMPDEST PUSH1 0x0 PUSH2 0x721 DUP3 PUSH2 0x728 JUMP JUMPDEST SWAP1 POP SWAP2 SWAP1 POP JUMP JUMPDEST PUSH1 0x0 PUSH20 0xFFFFFFFFFFFFFFFFFFFFFFFFFFFFFFFFFFFFFFFF DUP3 AND SWAP1 POP SWAP2 SWAP1 POP JUMP JUMPDEST PUSH1 0x0 DUP2 SWAP1 POP SWAP2 SWAP1 POP JUMP JUMPDEST DUP3 DUP2 DUP4 CALLDATACOPY PUSH1 0x0 DUP4 DUP4 ADD MSTORE POP POP POP JUMP JUMPDEST PUSH1 0x0 JUMPDEST DUP4 DUP2 LT ISZERO PUSH2 0x77F JUMPI DUP1 DUP3 ADD MLOAD DUP2 DUP5 ADD MSTORE PUSH1 0x20 DUP2 ADD SWAP1 POP PUSH2 0x764 JUMP JUMPDEST DUP4 DUP2 GT ISZERO PUSH2 0x78E JUMPI PUSH1 0x0 DUP5 DUP5 ADD MSTORE JUMPDEST POP POP POP POP JUMP JUMPDEST PUSH1 0x0 PUSH1 0x2 DUP3 DIV SWAP1 POP PUSH1 0x1 DUP3 AND DUP1 PUSH2 0x7AC JUMPI PUSH1 0x7F DUP3 AND SWAP2 POP JUMPDEST PUSH1 0x20 DUP3 LT DUP2 EQ ISZERO PUSH2 0x7C0 JUMPI PUSH2 0x7BF PUSH2 0x7F7 JUMP JUMPDEST JUMPDEST POP SWAP2 SWAP1 POP JUMP JUMPDEST PUSH2 0x7CF DUP3 PUSH2 0x869 JUMP JUMPDEST DUP2 ADD DUP2 DUP2 LT PUSH8 0xFFFFFFFFFFFFFFFF DUP3 GT OR ISZERO PUSH2 0x7EE JUMPI PUSH2 0x7ED PUSH2 0x826 JUMP JUMPDEST JUMPDEST DUP1 PUSH1 0x40 MSTORE POP POP POP JUMP JUMPDEST PUSH32 0x4E487B7100000000000000000000000000000000000000000000000000000000 PUSH1 0x0 MSTORE PUSH1 0x22 PUSH1 0x4 MSTORE PUSH1 0x24 PUSH1 0x0 REVERT JUMPDEST PUSH32 0x4E487B7100000000000000000000000000000000000000000000000000000000 PUSH1 0x0 MSTORE PUSH1 0x41 PUSH1 0x4 MSTORE PUSH1 0x24 PUSH1 0x0 REVERT JUMPDEST PUSH1 0x0 DUP1 REVERT JUMPDEST PUSH1 0x0 DUP1 REVERT JUMPDEST PUSH1 0x0 DUP1 REVERT JUMPDEST PUSH1 0x0 DUP1 REVERT JUMPDEST PUSH1 0x0 PUSH1 0x1F NOT PUSH1 0x1F DUP4 ADD AND SWAP1 POP SWAP2 SWAP1 POP JUMP JUMPDEST PUSH32 0x456E74657220612076616C69642061646472657373206F72206F776E65722063 PUSH1 0x0 DUP3 ADD MSTORE PUSH32 0x616E277420686F737420616E206576656E740000000000000000000000000000 PUSH1 0x20 DUP3 ADD MSTORE POP JUMP JUMPDEST POP JUMP JUMPDEST PUSH2 0x8D5 DUP2 PUSH2 0x748 JUMP JUMPDEST DUP2 EQ PUSH2 0x8E0 JUMPI PUSH1 0x0 DUP1 REVERT JUMPDEST POP JUMP INVALID LOG2 PUSH5 0x6970667358 0x22 SLT KECCAK256 CREATE2 TIMESTAMP 0xEF CREATE SUB STOP SSTORE 0x2E 0xED 0x4F MSTORE8 0xD5 ORIGIN MLOAD DELEGATECALL 0xB3 SDIV INVALID 0xF7 0x2B PUSH16 0xF6392A2BA4B448AE539E6F64736F6C63 NUMBER STOP ADDMOD SMOD STOP CALLER "
				},
				"gasEstimates": {
					"creation": {
						"codeDepositCost": "465800",
						"executionCost": "24765",
						"totalCost": "490565"
					},
					"external": {
						"create_event(string,uint256,uint256,uint256)": "infinite",
						"events(uint256)": "infinite"
					}
				},
				"methodIdentifiers": {
					"create_event(string,uint256,uint256,uint256)": "ee3bf803",
					"events(uint256)": "0b791430"
				}
			},
			"storageLayout": {
				"storage": [
					{
						"astId": 14,
						"contract": "Projects/02_Event_Management.sol:EventManagement",
						"label": "owner_contract",
						"offset": 0,
						"slot": "0",
						"type": "t_address"
					},
					{
						"astId": 18,
						"contract": "Projects/02_Event_Management.sol:EventManagement",
						"label": "events",
						"offset": 0,
						"slot": "1",
						"type": "t_array(t_struct(Event)12_storage)dyn_storage"
					}
				],
				"types": {
					"t_address": {
						"encoding": "inplace",
						"label": "address",
						"numberOfBytes": "20"
					},
					"t_array(t_struct(Event)12_storage)dyn_storage": {
						"base": "t_struct(Event)12_storage",
						"encoding": "dynamic_array",
						"label": "struct EventManagement.Event[]",
						"numberOfBytes": "32"
					},
					"t_string_storage": {
						"encoding": "bytes",
						"label": "string",
						"numberOfBytes": "32"
					},
					"t_struct(Event)12_storage": {
						"encoding": "inplace",
						"label": "struct EventManagement.Event",
						"members": [
							{
								"astId": 3,
								"contract": "Projects/02_Event_Management.sol:EventManagement",
								"label": "organizer",
								"offset": 0,
								"slot": "0",
								"type": "t_address"
							},
							{
								"astId": 5,
								"contract": "Projects/02_Event_Management.sol:EventManagement",
								"label": "event_name",
								"offset": 0,
								"slot": "1",
								"type": "t_string_storage"
							},
							{
								"astId": 7,
								"contract": "Projects/02_Event_Management.sol:EventManagement",
								"label": "event_date",
								"offset": 0,
								"slot": "2",
								"type": "t_uint256"
							},
							{
								"astId": 9,
								"contract": "Projects/02_Event_Management.sol:EventManagement",
								"label": "ticket_price",
								"offset": 0,
								"slot": "3",
								"type": "t_uint256"
							},
							{
								"astId": 11,
								"contract": "Projects/02_Event_Management.sol:EventManagement",
								"label": "ticket_count",
								"offset": 0,
								"slot": "4",
								"type": "t_uint256"
							}
						],
						"numberOfBytes": "160"
					},
					"t_uint256": {
						"encoding": "inplace",
						"label": "uint256",
						"numberOfBytes": "32"
					}
				}
			},
			"userdoc": {
				"kind": "user",
				"methods": {},
				"version": 1
			}
		}
	}
}