{
	"Projects/01_Lottery.sol": {
		"Lottery": {
			"abi": [
				{
					"inputs": [],
					"stateMutability": "nonpayable",
					"type": "constructor"
				},
				{
					"inputs": [],
					"name": "buy_lottery",
					"outputs": [],
					"stateMutability": "payable",
					"type": "function"
				},
				{
					"inputs": [],
					"name": "manager",
					"outputs": [
						{
							"internalType": "address",
							"name": "",
							"type": "address"
						}
					],
					"stateMutability": "view",
					"type": "function"
				},
				{
					"inputs": [
						{
							"internalType": "uint256",
							"name": "",
							"type": "uint256"
						}
					],
					"name": "participants",
					"outputs": [
						{
							"internalType": "address",
							"name": "",
							"type": "address"
						}
					],
					"stateMutability": "view",
					"type": "function"
				},
				{
					"inputs": [],
					"name": "random_number_generator",
					"outputs": [
						{
							"internalType": "uint256",
							"name": "",
							"type": "uint256"
						}
					],
					"stateMutability": "view",
					"type": "function"
				},
				{
					"inputs": [],
					"name": "select_winner",
					"outputs": [
						{
							"internalType": "address",
							"name": "",
							"type": "address"
						}
					],
					"stateMutability": "nonpayable",
					"type": "function"
				},
				{
					"inputs": [],
					"name": "show_balance",
					"outputs": [
						{
							"internalType": "uint256",
							"name": "",
							"type": "uint256"
						}
					],
					"stateMutability": "view",
					"type": "function"
				},
				{
					"inputs": [],
					"name": "winner",
					"outputs": [
						{
							"internalType": "address",
							"name": "",
							"type": "address"
						}
					],
					"stateMutability": "view",
					"type": "function"
				}
			],
			"devdoc": {
				"kind": "dev",
				"methods": {},
				"version": 1
			},
			"evm": {
				"assembly": "    /* \"Projects/01_Lottery.sol\":79:1251  contract Lottery {\r... */\n  mstore(0x40, 0x80)\n    /* \"Projects/01_Lottery.sol\":198:251  constructor() {\r... */\n  callvalue\n  dup1\n  iszero\n  tag_1\n  jumpi\n  0x00\n  dup1\n  revert\ntag_1:\n  pop\n    /* \"Projects/01_Lottery.sol\":233:243  msg.sender */\n  caller\n    /* \"Projects/01_Lottery.sol\":223:230  manager */\n  0x00\n  dup1\n    /* \"Projects/01_Lottery.sol\":223:243  manager = msg.sender */\n  0x0100\n  exp\n  dup2\n  sload\n  dup2\n  0xffffffffffffffffffffffffffffffffffffffff\n  mul\n  not\n  and\n  swap1\n  dup4\n  0xffffffffffffffffffffffffffffffffffffffff\n  and\n  mul\n  or\n  swap1\n  sstore\n  pop\n    /* \"Projects/01_Lottery.sol\":79:1251  contract Lottery {\r... */\n  dataSize(sub_0)\n  dup1\n  dataOffset(sub_0)\n  0x00\n  codecopy\n  0x00\n  return\nstop\n\nsub_0: assembly {\n        /* \"Projects/01_Lottery.sol\":79:1251  contract Lottery {\r... */\n      mstore(0x40, 0x80)\n      jumpi(tag_1, lt(calldatasize, 0x04))\n      shr(0xe0, calldataload(0x00))\n      dup1\n      0x8c200df4\n      gt\n      tag_9\n      jumpi\n      dup1\n      0x8c200df4\n      eq\n      tag_5\n      jumpi\n      dup1\n      0x946d0149\n      eq\n      tag_6\n      jumpi\n      dup1\n      0xdfbf53ae\n      eq\n      tag_7\n      jumpi\n      dup1\n      0xe8e11e16\n      eq\n      tag_8\n      jumpi\n      jump(tag_1)\n    tag_9:\n      dup1\n      0x1bef21d6\n      eq\n      tag_2\n      jumpi\n      dup1\n      0x35c1d349\n      eq\n      tag_3\n      jumpi\n      dup1\n      0x481c6a75\n      eq\n      tag_4\n      jumpi\n    tag_1:\n      0x00\n      dup1\n      revert\n        /* \"Projects/01_Lottery.sol\":915:1248  function select_winner() public returns(address) {\r... */\n    tag_2:\n      callvalue\n      dup1\n      iszero\n      tag_10\n      jumpi\n      0x00\n      dup1\n      revert\n    tag_10:\n      pop\n      tag_11\n      tag_12\n      jump\t// in\n    tag_11:\n      mload(0x40)\n      tag_13\n      swap2\n      swap1\n      tag_14\n      jump\t// in\n    tag_13:\n      mload(0x40)\n      dup1\n      swap2\n      sub\n      swap1\n      return\n        /* \"Projects/01_Lottery.sol\":132:161  address[] public participants */\n    tag_3:\n      callvalue\n      dup1\n      iszero\n      tag_15\n      jumpi\n      0x00\n      dup1\n      revert\n    tag_15:\n      pop\n      tag_16\n      0x04\n      dup1\n      calldatasize\n      sub\n      dup2\n      add\n      swap1\n      tag_17\n      swap2\n      swap1\n      tag_18\n      jump\t// in\n    tag_17:\n      tag_19\n      jump\t// in\n    tag_16:\n      mload(0x40)\n      tag_20\n      swap2\n      swap1\n      tag_14\n      jump\t// in\n    tag_20:\n      mload(0x40)\n      dup1\n      swap2\n      sub\n      swap1\n      return\n        /* \"Projects/01_Lottery.sol\":103:125  address public manager */\n    tag_4:\n      callvalue\n      dup1\n      iszero\n      tag_21\n      jumpi\n      0x00\n      dup1\n      revert\n    tag_21:\n      pop\n      tag_22\n      tag_23\n      jump\t// in\n    tag_22:\n      mload(0x40)\n      tag_24\n      swap2\n      swap1\n      tag_14\n      jump\t// in\n    tag_24:\n      mload(0x40)\n      dup1\n      swap2\n      sub\n      swap1\n      return\n        /* \"Projects/01_Lottery.sol\":654:887  function random_number_generator() public view returns(uint) {\r... */\n    tag_5:\n      callvalue\n      dup1\n      iszero\n      tag_25\n      jumpi\n      0x00\n      dup1\n      revert\n    tag_25:\n      pop\n      tag_26\n      tag_27\n      jump\t// in\n    tag_26:\n      mload(0x40)\n      tag_28\n      swap2\n      swap1\n      tag_29\n      jump\t// in\n    tag_28:\n      mload(0x40)\n      dup1\n      swap2\n      sub\n      swap1\n      return\n        /* \"Projects/01_Lottery.sol\":488:625  function show_balance() public view returns(uint){\r... */\n    tag_6:\n      callvalue\n      dup1\n      iszero\n      tag_30\n      jumpi\n      0x00\n      dup1\n      revert\n    tag_30:\n      pop\n      tag_31\n      tag_32\n      jump\t// in\n    tag_31:\n      mload(0x40)\n      tag_33\n      swap2\n      swap1\n      tag_29\n      jump\t// in\n    tag_33:\n      mload(0x40)\n      dup1\n      swap2\n      sub\n      swap1\n      return\n        /* \"Projects/01_Lottery.sol\":168:189  address public winner */\n    tag_7:\n      callvalue\n      dup1\n      iszero\n      tag_34\n      jumpi\n      0x00\n      dup1\n      revert\n    tag_34:\n      pop\n      tag_35\n      tag_36\n      jump\t// in\n    tag_35:\n      mload(0x40)\n      tag_37\n      swap2\n      swap1\n      tag_14\n      jump\t// in\n    tag_37:\n      mload(0x40)\n      dup1\n      swap2\n      sub\n      swap1\n      return\n        /* \"Projects/01_Lottery.sol\":282:459  function buy_lottery() payable public {\r... */\n    tag_8:\n      tag_38\n      tag_39\n      jump\t// in\n    tag_38:\n      stop\n        /* \"Projects/01_Lottery.sol\":915:1248  function select_winner() public returns(address) {\r... */\n    tag_12:\n        /* \"Projects/01_Lottery.sol\":955:962  address */\n      0x00\n        /* \"Projects/01_Lottery.sol\":997:1004  manager */\n      dup1\n      0x00\n      swap1\n      sload\n      swap1\n      0x0100\n      exp\n      swap1\n      div\n      0xffffffffffffffffffffffffffffffffffffffff\n      and\n        /* \"Projects/01_Lottery.sol\":983:1004  msg.sender == manager */\n      0xffffffffffffffffffffffffffffffffffffffff\n      and\n        /* \"Projects/01_Lottery.sol\":983:993  msg.sender */\n      caller\n        /* \"Projects/01_Lottery.sol\":983:1004  msg.sender == manager */\n      0xffffffffffffffffffffffffffffffffffffffff\n      and\n      eq\n        /* \"Projects/01_Lottery.sol\":975:1005  require(msg.sender == manager) */\n      tag_41\n      jumpi\n      0x00\n      dup1\n      revert\n    tag_41:\n        /* \"Projects/01_Lottery.sol\":1047:1048  3 */\n      0x03\n        /* \"Projects/01_Lottery.sol\":1024:1036  participants */\n      0x01\n        /* \"Projects/01_Lottery.sol\":1024:1043  participants.length */\n      dup1\n      sload\n      swap1\n      pop\n        /* \"Projects/01_Lottery.sol\":1024:1048  participants.length >= 3 */\n      lt\n      iszero\n        /* \"Projects/01_Lottery.sol\":1016:1049  require(participants.length >= 3) */\n      tag_42\n      jumpi\n      0x00\n      dup1\n      revert\n    tag_42:\n        /* \"Projects/01_Lottery.sol\":1071:1083  participants */\n      0x01\n        /* \"Projects/01_Lottery.sol\":1084:1109  random_number_generator() */\n      tag_43\n        /* \"Projects/01_Lottery.sol\":1084:1107  random_number_generator */\n      tag_27\n        /* \"Projects/01_Lottery.sol\":1084:1109  random_number_generator() */\n      jump\t// in\n    tag_43:\n        /* \"Projects/01_Lottery.sol\":1071:1110  participants[random_number_generator()] */\n      dup2\n      sload\n      dup2\n      lt\n      tag_44\n      jumpi\n      tag_45\n      tag_46\n      jump\t// in\n    tag_45:\n    tag_44:\n      swap1\n      0x00\n      mstore\n      keccak256(0x00, 0x20)\n      add\n      0x00\n      swap1\n      sload\n      swap1\n      0x0100\n      exp\n      swap1\n      div\n      0xffffffffffffffffffffffffffffffffffffffff\n      and\n        /* \"Projects/01_Lottery.sol\":1062:1068  winner */\n      0x02\n      0x00\n        /* \"Projects/01_Lottery.sol\":1062:1110  winner = participants[random_number_generator()] */\n      0x0100\n      exp\n      dup2\n      sload\n      dup2\n      0xffffffffffffffffffffffffffffffffffffffff\n      mul\n      not\n      and\n      swap1\n      dup4\n      0xffffffffffffffffffffffffffffffffffffffff\n      and\n      mul\n      or\n      swap1\n      sstore\n      pop\n        /* \"Projects/01_Lottery.sol\":1129:1135  winner */\n      0x02\n      0x00\n      swap1\n      sload\n      swap1\n      0x0100\n      exp\n      swap1\n      div\n      0xffffffffffffffffffffffffffffffffffffffff\n      and\n        /* \"Projects/01_Lottery.sol\":1121:1145  payable(winner).transfer */\n      0xffffffffffffffffffffffffffffffffffffffff\n      and\n        /* \"Projects/01_Lottery.sol\":1121:1171  payable(winner).transfer(show_balance() - 1 ether) */\n      0x08fc\n        /* \"Projects/01_Lottery.sol\":1163:1170  1 ether */\n      0x0de0b6b3a7640000\n        /* \"Projects/01_Lottery.sol\":1146:1160  show_balance() */\n      tag_48\n        /* \"Projects/01_Lottery.sol\":1146:1158  show_balance */\n      tag_32\n        /* \"Projects/01_Lottery.sol\":1146:1160  show_balance() */\n      jump\t// in\n    tag_48:\n        /* \"Projects/01_Lottery.sol\":1146:1170  show_balance() - 1 ether */\n      tag_49\n      swap2\n      swap1\n      tag_50\n      jump\t// in\n    tag_49:\n        /* \"Projects/01_Lottery.sol\":1121:1171  payable(winner).transfer(show_balance() - 1 ether) */\n      swap1\n      dup2\n      iszero\n      mul\n      swap1\n      mload(0x40)\n      0x00\n      mload(0x40)\n      dup1\n      dup4\n      sub\n      dup2\n      dup6\n      dup9\n      dup9\n      call\n      swap4\n      pop\n      pop\n      pop\n      pop\n      iszero\n      dup1\n      iszero\n      tag_52\n      jumpi\n      returndatasize\n      0x00\n      dup1\n      returndatacopy\n      revert(0x00, returndatasize)\n    tag_52:\n      pop\n        /* \"Projects/01_Lottery.sol\":1190:1197  manager */\n      0x00\n      dup1\n      sload\n      swap1\n      0x0100\n      exp\n      swap1\n      div\n      0xffffffffffffffffffffffffffffffffffffffff\n      and\n        /* \"Projects/01_Lottery.sol\":1182:1207  payable(manager).transfer */\n      0xffffffffffffffffffffffffffffffffffffffff\n      and\n        /* \"Projects/01_Lottery.sol\":1182:1216  payable(manager).transfer(1 ether) */\n      0x08fc\n        /* \"Projects/01_Lottery.sol\":1208:1215  1 ether */\n      0x0de0b6b3a7640000\n        /* \"Projects/01_Lottery.sol\":1182:1216  payable(manager).transfer(1 ether) */\n      swap1\n      dup2\n      iszero\n      mul\n      swap1\n      mload(0x40)\n      0x00\n      mload(0x40)\n      dup1\n      dup4\n      sub\n      dup2\n      dup6\n      dup9\n      dup9\n      call\n      swap4\n      pop\n      pop\n      pop\n      pop\n      iszero\n      dup1\n      iszero\n      tag_54\n      jumpi\n      returndatasize\n      0x00\n      dup1\n      returndatacopy\n      revert(0x00, returndatasize)\n    tag_54:\n      pop\n        /* \"Projects/01_Lottery.sol\":1234:1240  winner */\n      0x02\n      0x00\n      swap1\n      sload\n      swap1\n      0x0100\n      exp\n      swap1\n      div\n      0xffffffffffffffffffffffffffffffffffffffff\n      and\n        /* \"Projects/01_Lottery.sol\":1227:1240  return winner */\n      swap1\n      pop\n        /* \"Projects/01_Lottery.sol\":915:1248  function select_winner() public returns(address) {\r... */\n      swap1\n      jump\t// out\n        /* \"Projects/01_Lottery.sol\":132:161  address[] public participants */\n    tag_19:\n      0x01\n      dup2\n      dup2\n      sload\n      dup2\n      lt\n      tag_55\n      jumpi\n      0x00\n      dup1\n      revert\n    tag_55:\n      swap1\n      0x00\n      mstore\n      keccak256(0x00, 0x20)\n      add\n      0x00\n      swap2\n      pop\n      sload\n      swap1\n      0x0100\n      exp\n      swap1\n      div\n      0xffffffffffffffffffffffffffffffffffffffff\n      and\n      dup2\n      jump\t// out\n        /* \"Projects/01_Lottery.sol\":103:125  address public manager */\n    tag_23:\n      0x00\n      dup1\n      sload\n      swap1\n      0x0100\n      exp\n      swap1\n      div\n      0xffffffffffffffffffffffffffffffffffffffff\n      and\n      dup2\n      jump\t// out\n        /* \"Projects/01_Lottery.sol\":654:887  function random_number_generator() public view returns(uint) {\r... */\n    tag_27:\n        /* \"Projects/01_Lottery.sol\":709:713  uint */\n      0x00\n        /* \"Projects/01_Lottery.sol\":748:755  manager */\n      dup1\n      0x00\n      swap1\n      sload\n      swap1\n      0x0100\n      exp\n      swap1\n      div\n      0xffffffffffffffffffffffffffffffffffffffff\n      and\n        /* \"Projects/01_Lottery.sol\":734:755  msg.sender == manager */\n      0xffffffffffffffffffffffffffffffffffffffff\n      and\n        /* \"Projects/01_Lottery.sol\":734:744  msg.sender */\n      caller\n        /* \"Projects/01_Lottery.sol\":734:755  msg.sender == manager */\n      0xffffffffffffffffffffffffffffffffffffffff\n      and\n      eq\n        /* \"Projects/01_Lottery.sol\":726:756  require(msg.sender == manager) */\n      tag_58\n      jumpi\n      0x00\n      dup1\n      revert\n    tag_58:\n        /* \"Projects/01_Lottery.sol\":860:872  participants */\n      0x01\n        /* \"Projects/01_Lottery.sol\":860:879  participants.length */\n      dup1\n      sload\n      swap1\n      pop\n        /* \"Projects/01_Lottery.sol\":806:821  block.timestamp */\n      timestamp\n        /* \"Projects/01_Lottery.sol\":823:833  msg.sender */\n      caller\n        /* \"Projects/01_Lottery.sol\":835:847  participants */\n      0x01\n        /* \"Projects/01_Lottery.sol\":835:854  participants.length */\n      dup1\n      sload\n      swap1\n      pop\n        /* \"Projects/01_Lottery.sol\":789:855  abi.encodePacked(block.timestamp, msg.sender, participants.length) */\n      add(0x20, mload(0x40))\n      tag_59\n      swap4\n      swap3\n      swap2\n      swap1\n      tag_60\n      jump\t// in\n    tag_59:\n      mload(0x40)\n      0x20\n      dup2\n      dup4\n      sub\n      sub\n      dup2\n      mstore\n      swap1\n      0x40\n      mstore\n        /* \"Projects/01_Lottery.sol\":779:856  keccak256(abi.encodePacked(block.timestamp, msg.sender, participants.length)) */\n      dup1\n      mload\n      swap1\n      0x20\n      add\n      keccak256\n        /* \"Projects/01_Lottery.sol\":774:857  uint(keccak256(abi.encodePacked(block.timestamp, msg.sender, participants.length))) */\n      0x00\n      shr\n        /* \"Projects/01_Lottery.sol\":774:879  uint(keccak256(abi.encodePacked(block.timestamp, msg.sender, participants.length))) % participants.length */\n      tag_61\n      swap2\n      swap1\n      tag_62\n      jump\t// in\n    tag_61:\n        /* \"Projects/01_Lottery.sol\":767:879  return uint(keccak256(abi.encodePacked(block.timestamp, msg.sender, participants.length))) % participants.length */\n      swap1\n      pop\n        /* \"Projects/01_Lottery.sol\":654:887  function random_number_generator() public view returns(uint) {\r... */\n      swap1\n      jump\t// out\n        /* \"Projects/01_Lottery.sol\":488:625  function show_balance() public view returns(uint){\r... */\n    tag_32:\n        /* \"Projects/01_Lottery.sol\":532:536  uint */\n      0x00\n        /* \"Projects/01_Lottery.sol\":570:577  manager */\n      dup1\n      0x00\n      swap1\n      sload\n      swap1\n      0x0100\n      exp\n      swap1\n      div\n      0xffffffffffffffffffffffffffffffffffffffff\n      and\n        /* \"Projects/01_Lottery.sol\":556:577  msg.sender == manager */\n      0xffffffffffffffffffffffffffffffffffffffff\n      and\n        /* \"Projects/01_Lottery.sol\":556:566  msg.sender */\n      caller\n        /* \"Projects/01_Lottery.sol\":556:577  msg.sender == manager */\n      0xffffffffffffffffffffffffffffffffffffffff\n      and\n      eq\n        /* \"Projects/01_Lottery.sol\":548:578  require(msg.sender == manager) */\n      tag_64\n      jumpi\n      0x00\n      dup1\n      revert\n    tag_64:\n        /* \"Projects/01_Lottery.sol\":596:617  address(this).balance */\n      selfbalance\n        /* \"Projects/01_Lottery.sol\":589:617  return address(this).balance */\n      swap1\n      pop\n        /* \"Projects/01_Lottery.sol\":488:625  function show_balance() public view returns(uint){\r... */\n      swap1\n      jump\t// out\n        /* \"Projects/01_Lottery.sol\":168:189  address public winner */\n    tag_36:\n      0x02\n      0x00\n      swap1\n      sload\n      swap1\n      0x0100\n      exp\n      swap1\n      div\n      0xffffffffffffffffffffffffffffffffffffffff\n      and\n      dup2\n      jump\t// out\n        /* \"Projects/01_Lottery.sol\":282:459  function buy_lottery() payable public {\r... */\n    tag_39:\n        /* \"Projects/01_Lottery.sol\":353:360  manager */\n      0x00\n      dup1\n      sload\n      swap1\n      0x0100\n      exp\n      swap1\n      div\n      0xffffffffffffffffffffffffffffffffffffffff\n      and\n        /* \"Projects/01_Lottery.sol\":339:360  msg.sender != manager */\n      0xffffffffffffffffffffffffffffffffffffffff\n      and\n        /* \"Projects/01_Lottery.sol\":339:349  msg.sender */\n      caller\n        /* \"Projects/01_Lottery.sol\":339:360  msg.sender != manager */\n      0xffffffffffffffffffffffffffffffffffffffff\n      and\n      eq\n      iszero\n        /* \"Projects/01_Lottery.sol\":331:361  require(msg.sender != manager) */\n      tag_66\n      jumpi\n      0x00\n      dup1\n      revert\n    tag_66:\n        /* \"Projects/01_Lottery.sol\":393:401  10 ether */\n      0x8ac7230489e80000\n        /* \"Projects/01_Lottery.sol\":380:389  msg.value */\n      callvalue\n        /* \"Projects/01_Lottery.sol\":380:401  msg.value == 10 ether */\n      eq\n        /* \"Projects/01_Lottery.sol\":372:402  require(msg.value == 10 ether) */\n      tag_67\n      jumpi\n      0x00\n      dup1\n      revert\n    tag_67:\n        /* \"Projects/01_Lottery.sol\":413:425  participants */\n      0x01\n        /* \"Projects/01_Lottery.sol\":439:449  msg.sender */\n      caller\n        /* \"Projects/01_Lottery.sol\":413:451  participants.push(payable(msg.sender)) */\n      swap1\n      dup1\n      0x01\n      dup2\n      sload\n      add\n      dup1\n      dup3\n      sstore\n      dup1\n      swap2\n      pop\n      pop\n      0x01\n      swap1\n      sub\n      swap1\n      0x00\n      mstore\n      keccak256(0x00, 0x20)\n      add\n      0x00\n      swap1\n      swap2\n      swap1\n      swap2\n      swap1\n      swap2\n      0x0100\n      exp\n      dup2\n      sload\n      dup2\n      0xffffffffffffffffffffffffffffffffffffffff\n      mul\n      not\n      and\n      swap1\n      dup4\n      0xffffffffffffffffffffffffffffffffffffffff\n      and\n      mul\n      or\n      swap1\n      sstore\n      pop\n        /* \"Projects/01_Lottery.sol\":282:459  function buy_lottery() payable public {\r... */\n      jump\t// out\n        /* \"#utility.yul\":7:146   */\n    tag_70:\n        /* \"#utility.yul\":53:58   */\n      0x00\n        /* \"#utility.yul\":91:97   */\n      dup2\n        /* \"#utility.yul\":78:98   */\n      calldataload\n        /* \"#utility.yul\":69:98   */\n      swap1\n      pop\n        /* \"#utility.yul\":107:140   */\n      tag_72\n        /* \"#utility.yul\":134:139   */\n      dup2\n        /* \"#utility.yul\":107:140   */\n      tag_73\n      jump\t// in\n    tag_72:\n        /* \"#utility.yul\":7:146   */\n      swap3\n      swap2\n      pop\n      pop\n      jump\t// out\n        /* \"#utility.yul\":152:481   */\n    tag_18:\n        /* \"#utility.yul\":211:217   */\n      0x00\n        /* \"#utility.yul\":260:262   */\n      0x20\n        /* \"#utility.yul\":248:257   */\n      dup3\n        /* \"#utility.yul\":239:246   */\n      dup5\n        /* \"#utility.yul\":235:258   */\n      sub\n        /* \"#utility.yul\":231:263   */\n      slt\n        /* \"#utility.yul\":228:347   */\n      iszero\n      tag_75\n      jumpi\n        /* \"#utility.yul\":266:345   */\n      tag_76\n      tag_77\n      jump\t// in\n    tag_76:\n        /* \"#utility.yul\":228:347   */\n    tag_75:\n        /* \"#utility.yul\":386:387   */\n      0x00\n        /* \"#utility.yul\":411:464   */\n      tag_78\n        /* \"#utility.yul\":456:463   */\n      dup5\n        /* \"#utility.yul\":447:453   */\n      dup3\n        /* \"#utility.yul\":436:445   */\n      dup6\n        /* \"#utility.yul\":432:454   */\n      add\n        /* \"#utility.yul\":411:464   */\n      tag_70\n      jump\t// in\n    tag_78:\n        /* \"#utility.yul\":401:464   */\n      swap2\n      pop\n        /* \"#utility.yul\":357:474   */\n      pop\n        /* \"#utility.yul\":152:481   */\n      swap3\n      swap2\n      pop\n      pop\n      jump\t// out\n        /* \"#utility.yul\":487:605   */\n    tag_79:\n        /* \"#utility.yul\":574:598   */\n      tag_81\n        /* \"#utility.yul\":592:597   */\n      dup2\n        /* \"#utility.yul\":574:598   */\n      tag_82\n      jump\t// in\n    tag_81:\n        /* \"#utility.yul\":569:572   */\n      dup3\n        /* \"#utility.yul\":562:599   */\n      mstore\n        /* \"#utility.yul\":487:605   */\n      pop\n      pop\n      jump\t// out\n        /* \"#utility.yul\":611:768   */\n    tag_83:\n        /* \"#utility.yul\":716:761   */\n      tag_85\n        /* \"#utility.yul\":736:760   */\n      tag_86\n        /* \"#utility.yul\":754:759   */\n      dup3\n        /* \"#utility.yul\":736:760   */\n      tag_82\n      jump\t// in\n    tag_86:\n        /* \"#utility.yul\":716:761   */\n      tag_87\n      jump\t// in\n    tag_85:\n        /* \"#utility.yul\":711:714   */\n      dup3\n        /* \"#utility.yul\":704:762   */\n      mstore\n        /* \"#utility.yul\":611:768   */\n      pop\n      pop\n      jump\t// out\n        /* \"#utility.yul\":774:892   */\n    tag_88:\n        /* \"#utility.yul\":861:885   */\n      tag_90\n        /* \"#utility.yul\":879:884   */\n      dup2\n        /* \"#utility.yul\":861:885   */\n      tag_91\n      jump\t// in\n    tag_90:\n        /* \"#utility.yul\":856:859   */\n      dup3\n        /* \"#utility.yul\":849:886   */\n      mstore\n        /* \"#utility.yul\":774:892   */\n      pop\n      pop\n      jump\t// out\n        /* \"#utility.yul\":898:1055   */\n    tag_92:\n        /* \"#utility.yul\":1003:1048   */\n      tag_94\n        /* \"#utility.yul\":1023:1047   */\n      tag_95\n        /* \"#utility.yul\":1041:1046   */\n      dup3\n        /* \"#utility.yul\":1023:1047   */\n      tag_91\n      jump\t// in\n    tag_95:\n        /* \"#utility.yul\":1003:1048   */\n      tag_96\n      jump\t// in\n    tag_94:\n        /* \"#utility.yul\":998:1001   */\n      dup3\n        /* \"#utility.yul\":991:1049   */\n      mstore\n        /* \"#utility.yul\":898:1055   */\n      pop\n      pop\n      jump\t// out\n        /* \"#utility.yul\":1061:1599   */\n    tag_60:\n        /* \"#utility.yul\":1229:1232   */\n      0x00\n        /* \"#utility.yul\":1244:1319   */\n      tag_98\n        /* \"#utility.yul\":1315:1318   */\n      dup3\n        /* \"#utility.yul\":1306:1312   */\n      dup7\n        /* \"#utility.yul\":1244:1319   */\n      tag_92\n      jump\t// in\n    tag_98:\n        /* \"#utility.yul\":1344:1346   */\n      0x20\n        /* \"#utility.yul\":1339:1342   */\n      dup3\n        /* \"#utility.yul\":1335:1347   */\n      add\n        /* \"#utility.yul\":1328:1347   */\n      swap2\n      pop\n        /* \"#utility.yul\":1357:1432   */\n      tag_99\n        /* \"#utility.yul\":1428:1431   */\n      dup3\n        /* \"#utility.yul\":1419:1425   */\n      dup6\n        /* \"#utility.yul\":1357:1432   */\n      tag_83\n      jump\t// in\n    tag_99:\n        /* \"#utility.yul\":1457:1459   */\n      0x14\n        /* \"#utility.yul\":1452:1455   */\n      dup3\n        /* \"#utility.yul\":1448:1460   */\n      add\n        /* \"#utility.yul\":1441:1460   */\n      swap2\n      pop\n        /* \"#utility.yul\":1470:1545   */\n      tag_100\n        /* \"#utility.yul\":1541:1544   */\n      dup3\n        /* \"#utility.yul\":1532:1538   */\n      dup5\n        /* \"#utility.yul\":1470:1545   */\n      tag_92\n      jump\t// in\n    tag_100:\n        /* \"#utility.yul\":1570:1572   */\n      0x20\n        /* \"#utility.yul\":1565:1568   */\n      dup3\n        /* \"#utility.yul\":1561:1573   */\n      add\n        /* \"#utility.yul\":1554:1573   */\n      swap2\n      pop\n        /* \"#utility.yul\":1590:1593   */\n      dup2\n        /* \"#utility.yul\":1583:1593   */\n      swap1\n      pop\n        /* \"#utility.yul\":1061:1599   */\n      swap5\n      swap4\n      pop\n      pop\n      pop\n      pop\n      jump\t// out\n        /* \"#utility.yul\":1605:1827   */\n    tag_14:\n        /* \"#utility.yul\":1698:1702   */\n      0x00\n        /* \"#utility.yul\":1736:1738   */\n      0x20\n        /* \"#utility.yul\":1725:1734   */\n      dup3\n        /* \"#utility.yul\":1721:1739   */\n      add\n        /* \"#utility.yul\":1713:1739   */\n      swap1\n      pop\n        /* \"#utility.yul\":1749:1820   */\n      tag_102\n        /* \"#utility.yul\":1817:1818   */\n      0x00\n        /* \"#utility.yul\":1806:1815   */\n      dup4\n        /* \"#utility.yul\":1802:1819   */\n      add\n        /* \"#utility.yul\":1793:1799   */\n      dup5\n        /* \"#utility.yul\":1749:1820   */\n      tag_79\n      jump\t// in\n    tag_102:\n        /* \"#utility.yul\":1605:1827   */\n      swap3\n      swap2\n      pop\n      pop\n      jump\t// out\n        /* \"#utility.yul\":1833:2055   */\n    tag_29:\n        /* \"#utility.yul\":1926:1930   */\n      0x00\n        /* \"#utility.yul\":1964:1966   */\n      0x20\n        /* \"#utility.yul\":1953:1962   */\n      dup3\n        /* \"#utility.yul\":1949:1967   */\n      add\n        /* \"#utility.yul\":1941:1967   */\n      swap1\n      pop\n        /* \"#utility.yul\":1977:2048   */\n      tag_104\n        /* \"#utility.yul\":2045:2046   */\n      0x00\n        /* \"#utility.yul\":2034:2043   */\n      dup4\n        /* \"#utility.yul\":2030:2047   */\n      add\n        /* \"#utility.yul\":2021:2027   */\n      dup5\n        /* \"#utility.yul\":1977:2048   */\n      tag_88\n      jump\t// in\n    tag_104:\n        /* \"#utility.yul\":1833:2055   */\n      swap3\n      swap2\n      pop\n      pop\n      jump\t// out\n        /* \"#utility.yul\":2142:2333   */\n    tag_50:\n        /* \"#utility.yul\":2182:2186   */\n      0x00\n        /* \"#utility.yul\":2202:2222   */\n      tag_108\n        /* \"#utility.yul\":2220:2221   */\n      dup3\n        /* \"#utility.yul\":2202:2222   */\n      tag_91\n      jump\t// in\n    tag_108:\n        /* \"#utility.yul\":2197:2222   */\n      swap2\n      pop\n        /* \"#utility.yul\":2236:2256   */\n      tag_109\n        /* \"#utility.yul\":2254:2255   */\n      dup4\n        /* \"#utility.yul\":2236:2256   */\n      tag_91\n      jump\t// in\n    tag_109:\n        /* \"#utility.yul\":2231:2256   */\n      swap3\n      pop\n        /* \"#utility.yul\":2275:2276   */\n      dup3\n        /* \"#utility.yul\":2272:2273   */\n      dup3\n        /* \"#utility.yul\":2269:2277   */\n      lt\n        /* \"#utility.yul\":2266:2300   */\n      iszero\n      tag_110\n      jumpi\n        /* \"#utility.yul\":2280:2298   */\n      tag_111\n      tag_112\n      jump\t// in\n    tag_111:\n        /* \"#utility.yul\":2266:2300   */\n    tag_110:\n        /* \"#utility.yul\":2325:2326   */\n      dup3\n        /* \"#utility.yul\":2322:2323   */\n      dup3\n        /* \"#utility.yul\":2318:2327   */\n      sub\n        /* \"#utility.yul\":2310:2327   */\n      swap1\n      pop\n        /* \"#utility.yul\":2142:2333   */\n      swap3\n      swap2\n      pop\n      pop\n      jump\t// out\n        /* \"#utility.yul\":2339:2435   */\n    tag_82:\n        /* \"#utility.yul\":2376:2383   */\n      0x00\n        /* \"#utility.yul\":2405:2429   */\n      tag_114\n        /* \"#utility.yul\":2423:2428   */\n      dup3\n        /* \"#utility.yul\":2405:2429   */\n      tag_115\n      jump\t// in\n    tag_114:\n        /* \"#utility.yul\":2394:2429   */\n      swap1\n      pop\n        /* \"#utility.yul\":2339:2435   */\n      swap2\n      swap1\n      pop\n      jump\t// out\n        /* \"#utility.yul\":2441:2567   */\n    tag_115:\n        /* \"#utility.yul\":2478:2485   */\n      0x00\n        /* \"#utility.yul\":2518:2560   */\n      0xffffffffffffffffffffffffffffffffffffffff\n        /* \"#utility.yul\":2511:2516   */\n      dup3\n        /* \"#utility.yul\":2507:2561   */\n      and\n        /* \"#utility.yul\":2496:2561   */\n      swap1\n      pop\n        /* \"#utility.yul\":2441:2567   */\n      swap2\n      swap1\n      pop\n      jump\t// out\n        /* \"#utility.yul\":2573:2650   */\n    tag_91:\n        /* \"#utility.yul\":2610:2617   */\n      0x00\n        /* \"#utility.yul\":2639:2644   */\n      dup2\n        /* \"#utility.yul\":2628:2644   */\n      swap1\n      pop\n        /* \"#utility.yul\":2573:2650   */\n      swap2\n      swap1\n      pop\n      jump\t// out\n        /* \"#utility.yul\":2656:2756   */\n    tag_87:\n        /* \"#utility.yul\":2695:2702   */\n      0x00\n        /* \"#utility.yul\":2724:2750   */\n      tag_119\n        /* \"#utility.yul\":2744:2749   */\n      dup3\n        /* \"#utility.yul\":2724:2750   */\n      tag_120\n      jump\t// in\n    tag_119:\n        /* \"#utility.yul\":2713:2750   */\n      swap1\n      pop\n        /* \"#utility.yul\":2656:2756   */\n      swap2\n      swap1\n      pop\n      jump\t// out\n        /* \"#utility.yul\":2762:2856   */\n    tag_120:\n        /* \"#utility.yul\":2801:2808   */\n      0x00\n        /* \"#utility.yul\":2830:2850   */\n      tag_122\n        /* \"#utility.yul\":2844:2849   */\n      dup3\n        /* \"#utility.yul\":2830:2850   */\n      tag_123\n      jump\t// in\n    tag_122:\n        /* \"#utility.yul\":2819:2850   */\n      swap1\n      pop\n        /* \"#utility.yul\":2762:2856   */\n      swap2\n      swap1\n      pop\n      jump\t// out\n        /* \"#utility.yul\":2862:2941   */\n    tag_96:\n        /* \"#utility.yul\":2901:2908   */\n      0x00\n        /* \"#utility.yul\":2930:2935   */\n      dup2\n        /* \"#utility.yul\":2919:2935   */\n      swap1\n      pop\n        /* \"#utility.yul\":2862:2941   */\n      swap2\n      swap1\n      pop\n      jump\t// out\n        /* \"#utility.yul\":2947:3123   */\n    tag_62:\n        /* \"#utility.yul\":2979:2980   */\n      0x00\n        /* \"#utility.yul\":2996:3016   */\n      tag_126\n        /* \"#utility.yul\":3014:3015   */\n      dup3\n        /* \"#utility.yul\":2996:3016   */\n      tag_91\n      jump\t// in\n    tag_126:\n        /* \"#utility.yul\":2991:3016   */\n      swap2\n      pop\n        /* \"#utility.yul\":3030:3050   */\n      tag_127\n        /* \"#utility.yul\":3048:3049   */\n      dup4\n        /* \"#utility.yul\":3030:3050   */\n      tag_91\n      jump\t// in\n    tag_127:\n        /* \"#utility.yul\":3025:3050   */\n      swap3\n      pop\n        /* \"#utility.yul\":3069:3070   */\n      dup3\n        /* \"#utility.yul\":3059:3094   */\n      tag_128\n      jumpi\n        /* \"#utility.yul\":3074:3092   */\n      tag_129\n      tag_130\n      jump\t// in\n    tag_129:\n        /* \"#utility.yul\":3059:3094   */\n    tag_128:\n        /* \"#utility.yul\":3115:3116   */\n      dup3\n        /* \"#utility.yul\":3112:3113   */\n      dup3\n        /* \"#utility.yul\":3108:3117   */\n      mod\n        /* \"#utility.yul\":3103:3117   */\n      swap1\n      pop\n        /* \"#utility.yul\":2947:3123   */\n      swap3\n      swap2\n      pop\n      pop\n      jump\t// out\n        /* \"#utility.yul\":3129:3309   */\n    tag_112:\n        /* \"#utility.yul\":3177:3254   */\n      0x4e487b7100000000000000000000000000000000000000000000000000000000\n        /* \"#utility.yul\":3174:3175   */\n      0x00\n        /* \"#utility.yul\":3167:3255   */\n      mstore\n        /* \"#utility.yul\":3274:3278   */\n      0x11\n        /* \"#utility.yul\":3271:3272   */\n      0x04\n        /* \"#utility.yul\":3264:3279   */\n      mstore\n        /* \"#utility.yul\":3298:3302   */\n      0x24\n        /* \"#utility.yul\":3295:3296   */\n      0x00\n        /* \"#utility.yul\":3288:3303   */\n      revert\n        /* \"#utility.yul\":3315:3495   */\n    tag_130:\n        /* \"#utility.yul\":3363:3440   */\n      0x4e487b7100000000000000000000000000000000000000000000000000000000\n        /* \"#utility.yul\":3360:3361   */\n      0x00\n        /* \"#utility.yul\":3353:3441   */\n      mstore\n        /* \"#utility.yul\":3460:3464   */\n      0x12\n        /* \"#utility.yul\":3457:3458   */\n      0x04\n        /* \"#utility.yul\":3450:3465   */\n      mstore\n        /* \"#utility.yul\":3484:3488   */\n      0x24\n        /* \"#utility.yul\":3481:3482   */\n      0x00\n        /* \"#utility.yul\":3474:3489   */\n      revert\n        /* \"#utility.yul\":3501:3681   */\n    tag_46:\n        /* \"#utility.yul\":3549:3626   */\n      0x4e487b7100000000000000000000000000000000000000000000000000000000\n        /* \"#utility.yul\":3546:3547   */\n      0x00\n        /* \"#utility.yul\":3539:3627   */\n      mstore\n        /* \"#utility.yul\":3646:3650   */\n      0x32\n        /* \"#utility.yul\":3643:3644   */\n      0x04\n        /* \"#utility.yul\":3636:3651   */\n      mstore\n        /* \"#utility.yul\":3670:3674   */\n      0x24\n        /* \"#utility.yul\":3667:3668   */\n      0x00\n        /* \"#utility.yul\":3660:3675   */\n      revert\n        /* \"#utility.yul\":3810:3927   */\n    tag_77:\n        /* \"#utility.yul\":3919:3920   */\n      0x00\n        /* \"#utility.yul\":3916:3917   */\n      dup1\n        /* \"#utility.yul\":3909:3921   */\n      revert\n        /* \"#utility.yul\":3933:4027   */\n    tag_123:\n        /* \"#utility.yul\":3966:3974   */\n      0x00\n        /* \"#utility.yul\":4014:4019   */\n      dup2\n        /* \"#utility.yul\":4010:4012   */\n      0x60\n        /* \"#utility.yul\":4006:4020   */\n      shl\n        /* \"#utility.yul\":3985:4020   */\n      swap1\n      pop\n        /* \"#utility.yul\":3933:4027   */\n      swap2\n      swap1\n      pop\n      jump\t// out\n        /* \"#utility.yul\":4033:4155   */\n    tag_73:\n        /* \"#utility.yul\":4106:4130   */\n      tag_139\n        /* \"#utility.yul\":4124:4129   */\n      dup2\n        /* \"#utility.yul\":4106:4130   */\n      tag_91\n      jump\t// in\n    tag_139:\n        /* \"#utility.yul\":4099:4104   */\n      dup2\n        /* \"#utility.yul\":4096:4131   */\n      eq\n        /* \"#utility.yul\":4086:4149   */\n      tag_140\n      jumpi\n        /* \"#utility.yul\":4145:4146   */\n      0x00\n        /* \"#utility.yul\":4142:4143   */\n      dup1\n        /* \"#utility.yul\":4135:4147   */\n      revert\n        /* \"#utility.yul\":4086:4149   */\n    tag_140:\n        /* \"#utility.yul\":4033:4155   */\n      pop\n      jump\t// out\n\n    auxdata: 0xa26469706673582212206538e87915dc221dc1930e08be7b7b2083675ccd69f22f07aef966f552699c7964736f6c63430008070033\n}\n",
				"bytecode": {
					"linkReferences": {},
					"object": "608060405234801561001057600080fd5b50336000806101000a81548173ffffffffffffffffffffffffffffffffffffffff021916908373ffffffffffffffffffffffffffffffffffffffff1602179055506108bc806100606000396000f3fe6080604052600436106100705760003560e01c80638c200df41161004e5780638c200df414610108578063946d014914610133578063dfbf53ae1461015e578063e8e11e161461018957610070565b80631bef21d61461007557806335c1d349146100a0578063481c6a75146100dd575b600080fd5b34801561008157600080fd5b5061008a610193565b60405161009791906106cb565b60405180910390f35b3480156100ac57600080fd5b506100c760048036038101906100c29190610615565b6103a1565b6040516100d491906106cb565b60405180910390f35b3480156100e957600080fd5b506100f26103e0565b6040516100ff91906106cb565b60405180910390f35b34801561011457600080fd5b5061011d610404565b60405161012a91906106e6565b60405180910390f35b34801561013f57600080fd5b506101486104a7565b60405161015591906106e6565b60405180910390f35b34801561016a57600080fd5b50610173610508565b60405161018091906106cb565b60405180910390f35b61019161052e565b005b60008060009054906101000a900473ffffffffffffffffffffffffffffffffffffffff1673ffffffffffffffffffffffffffffffffffffffff163373ffffffffffffffffffffffffffffffffffffffff16146101ee57600080fd5b6003600180549050101561020157600080fd5b600161020b610404565b8154811061021c5761021b61082e565b5b9060005260206000200160009054906101000a900473ffffffffffffffffffffffffffffffffffffffff16600260006101000a81548173ffffffffffffffffffffffffffffffffffffffff021916908373ffffffffffffffffffffffffffffffffffffffff160217905550600260009054906101000a900473ffffffffffffffffffffffffffffffffffffffff1673ffffffffffffffffffffffffffffffffffffffff166108fc670de0b6b3a76400006102d46104a7565b6102de9190610701565b9081150290604051600060405180830381858888f19350505050158015610309573d6000803e3d6000fd5b5060008054906101000a900473ffffffffffffffffffffffffffffffffffffffff1673ffffffffffffffffffffffffffffffffffffffff166108fc670de0b6b3a76400009081150290604051600060405180830381858888f19350505050158015610378573d6000803e3d6000fd5b50600260009054906101000a900473ffffffffffffffffffffffffffffffffffffffff16905090565b600181815481106103b157600080fd5b906000526020600020016000915054906101000a900473ffffffffffffffffffffffffffffffffffffffff1681565b60008054906101000a900473ffffffffffffffffffffffffffffffffffffffff1681565b60008060009054906101000a900473ffffffffffffffffffffffffffffffffffffffff1673ffffffffffffffffffffffffffffffffffffffff163373ffffffffffffffffffffffffffffffffffffffff161461045f57600080fd5b600180549050423360018054905060405160200161047f9392919061068e565b6040516020818303038152906040528051906020012060001c6104a2919061079f565b905090565b60008060009054906101000a900473ffffffffffffffffffffffffffffffffffffffff1673ffffffffffffffffffffffffffffffffffffffff163373ffffffffffffffffffffffffffffffffffffffff161461050257600080fd5b47905090565b600260009054906101000a900473ffffffffffffffffffffffffffffffffffffffff1681565b60008054906101000a900473ffffffffffffffffffffffffffffffffffffffff1673ffffffffffffffffffffffffffffffffffffffff163373ffffffffffffffffffffffffffffffffffffffff16141561058757600080fd5b678ac7230489e80000341461059b57600080fd5b6001339080600181540180825580915050600190039060005260206000200160009091909190916101000a81548173ffffffffffffffffffffffffffffffffffffffff021916908373ffffffffffffffffffffffffffffffffffffffff160217905550565b60008135905061060f8161086f565b92915050565b60006020828403121561062b5761062a61085d565b5b600061063984828501610600565b91505092915050565b61064b81610735565b82525050565b61066261065d82610735565b610771565b82525050565b61067181610767565b82525050565b61068861068382610767565b610795565b82525050565b600061069a8286610677565b6020820191506106aa8285610651565b6014820191506106ba8284610677565b602082019150819050949350505050565b60006020820190506106e06000830184610642565b92915050565b60006020820190506106fb6000830184610668565b92915050565b600061070c82610767565b915061071783610767565b92508282101561072a576107296107d0565b5b828203905092915050565b600061074082610747565b9050919050565b600073ffffffffffffffffffffffffffffffffffffffff82169050919050565b6000819050919050565b600061077c82610783565b9050919050565b600061078e82610862565b9050919050565b6000819050919050565b60006107aa82610767565b91506107b583610767565b9250826107c5576107c46107ff565b5b828206905092915050565b7f4e487b7100000000000000000000000000000000000000000000000000000000600052601160045260246000fd5b7f4e487b7100000000000000000000000000000000000000000000000000000000600052601260045260246000fd5b7f4e487b7100000000000000000000000000000000000000000000000000000000600052603260045260246000fd5b600080fd5b60008160601b9050919050565b61087881610767565b811461088357600080fd5b5056fea26469706673582212206538e87915dc221dc1930e08be7b7b2083675ccd69f22f07aef966f552699c7964736f6c63430008070033",
					"opcodes": "PUSH1 0x80 PUSH1 0x40 MSTORE CALLVALUE DUP1 ISZERO PUSH2 0x10 JUMPI PUSH1 0x0 DUP1 REVERT JUMPDEST POP CALLER PUSH1 0x0 DUP1 PUSH2 0x100 EXP DUP2 SLOAD DUP2 PUSH20 0xFFFFFFFFFFFFFFFFFFFFFFFFFFFFFFFFFFFFFFFF MUL NOT AND SWAP1 DUP4 PUSH20 0xFFFFFFFFFFFFFFFFFFFFFFFFFFFFFFFFFFFFFFFF AND MUL OR SWAP1 SSTORE POP PUSH2 0x8BC DUP1 PUSH2 0x60 PUSH1 0x0 CODECOPY PUSH1 0x0 RETURN INVALID PUSH1 0x80 PUSH1 0x40 MSTORE PUSH1 0x4 CALLDATASIZE LT PUSH2 0x70 JUMPI PUSH1 0x0 CALLDATALOAD PUSH1 0xE0 SHR DUP1 PUSH4 0x8C200DF4 GT PUSH2 0x4E JUMPI DUP1 PUSH4 0x8C200DF4 EQ PUSH2 0x108 JUMPI DUP1 PUSH4 0x946D0149 EQ PUSH2 0x133 JUMPI DUP1 PUSH4 0xDFBF53AE EQ PUSH2 0x15E JUMPI DUP1 PUSH4 0xE8E11E16 EQ PUSH2 0x189 JUMPI PUSH2 0x70 JUMP JUMPDEST DUP1 PUSH4 0x1BEF21D6 EQ PUSH2 0x75 JUMPI DUP1 PUSH4 0x35C1D349 EQ PUSH2 0xA0 JUMPI DUP1 PUSH4 0x481C6A75 EQ PUSH2 0xDD JUMPI JUMPDEST PUSH1 0x0 DUP1 REVERT JUMPDEST CALLVALUE DUP1 ISZERO PUSH2 0x81 JUMPI PUSH1 0x0 DUP1 REVERT JUMPDEST POP PUSH2 0x8A PUSH2 0x193 JUMP JUMPDEST PUSH1 0x40 MLOAD PUSH2 0x97 SWAP2 SWAP1 PUSH2 0x6CB JUMP JUMPDEST PUSH1 0x40 MLOAD DUP1 SWAP2 SUB SWAP1 RETURN JUMPDEST CALLVALUE DUP1 ISZERO PUSH2 0xAC JUMPI PUSH1 0x0 DUP1 REVERT JUMPDEST POP PUSH2 0xC7 PUSH1 0x4 DUP1 CALLDATASIZE SUB DUP2 ADD SWAP1 PUSH2 0xC2 SWAP2 SWAP1 PUSH2 0x615 JUMP JUMPDEST PUSH2 0x3A1 JUMP JUMPDEST PUSH1 0x40 MLOAD PUSH2 0xD4 SWAP2 SWAP1 PUSH2 0x6CB JUMP JUMPDEST PUSH1 0x40 MLOAD DUP1 SWAP2 SUB SWAP1 RETURN JUMPDEST CALLVALUE DUP1 ISZERO PUSH2 0xE9 JUMPI PUSH1 0x0 DUP1 REVERT JUMPDEST POP PUSH2 0xF2 PUSH2 0x3E0 JUMP JUMPDEST PUSH1 0x40 MLOAD PUSH2 0xFF SWAP2 SWAP1 PUSH2 0x6CB JUMP JUMPDEST PUSH1 0x40 MLOAD DUP1 SWAP2 SUB SWAP1 RETURN JUMPDEST CALLVALUE DUP1 ISZERO PUSH2 0x114 JUMPI PUSH1 0x0 DUP1 REVERT JUMPDEST POP PUSH2 0x11D PUSH2 0x404 JUMP JUMPDEST PUSH1 0x40 MLOAD PUSH2 0x12A SWAP2 SWAP1 PUSH2 0x6E6 JUMP JUMPDEST PUSH1 0x40 MLOAD DUP1 SWAP2 SUB SWAP1 RETURN JUMPDEST CALLVALUE DUP1 ISZERO PUSH2 0x13F JUMPI PUSH1 0x0 DUP1 REVERT JUMPDEST POP PUSH2 0x148 PUSH2 0x4A7 JUMP JUMPDEST PUSH1 0x40 MLOAD PUSH2 0x155 SWAP2 SWAP1 PUSH2 0x6E6 JUMP JUMPDEST PUSH1 0x40 MLOAD DUP1 SWAP2 SUB SWAP1 RETURN JUMPDEST CALLVALUE DUP1 ISZERO PUSH2 0x16A JUMPI PUSH1 0x0 DUP1 REVERT JUMPDEST POP PUSH2 0x173 PUSH2 0x508 JUMP JUMPDEST PUSH1 0x40 MLOAD PUSH2 0x180 SWAP2 SWAP1 PUSH2 0x6CB JUMP JUMPDEST PUSH1 0x40 MLOAD DUP1 SWAP2 SUB SWAP1 RETURN JUMPDEST PUSH2 0x191 PUSH2 0x52E JUMP JUMPDEST STOP JUMPDEST PUSH1 0x0 DUP1 PUSH1 0x0 SWAP1 SLOAD SWAP1 PUSH2 0x100 EXP SWAP1 DIV PUSH20 0xFFFFFFFFFFFFFFFFFFFFFFFFFFFFFFFFFFFFFFFF AND PUSH20 0xFFFFFFFFFFFFFFFFFFFFFFFFFFFFFFFFFFFFFFFF AND CALLER PUSH20 0xFFFFFFFFFFFFFFFFFFFFFFFFFFFFFFFFFFFFFFFF AND EQ PUSH2 0x1EE JUMPI PUSH1 0x0 DUP1 REVERT JUMPDEST PUSH1 0x3 PUSH1 0x1 DUP1 SLOAD SWAP1 POP LT ISZERO PUSH2 0x201 JUMPI PUSH1 0x0 DUP1 REVERT JUMPDEST PUSH1 0x1 PUSH2 0x20B PUSH2 0x404 JUMP JUMPDEST DUP2 SLOAD DUP2 LT PUSH2 0x21C JUMPI PUSH2 0x21B PUSH2 0x82E JUMP JUMPDEST JUMPDEST SWAP1 PUSH1 0x0 MSTORE PUSH1 0x20 PUSH1 0x0 KECCAK256 ADD PUSH1 0x0 SWAP1 SLOAD SWAP1 PUSH2 0x100 EXP SWAP1 DIV PUSH20 0xFFFFFFFFFFFFFFFFFFFFFFFFFFFFFFFFFFFFFFFF AND PUSH1 0x2 PUSH1 0x0 PUSH2 0x100 EXP DUP2 SLOAD DUP2 PUSH20 0xFFFFFFFFFFFFFFFFFFFFFFFFFFFFFFFFFFFFFFFF MUL NOT AND SWAP1 DUP4 PUSH20 0xFFFFFFFFFFFFFFFFFFFFFFFFFFFFFFFFFFFFFFFF AND MUL OR SWAP1 SSTORE POP PUSH1 0x2 PUSH1 0x0 SWAP1 SLOAD SWAP1 PUSH2 0x100 EXP SWAP1 DIV PUSH20 0xFFFFFFFFFFFFFFFFFFFFFFFFFFFFFFFFFFFFFFFF AND PUSH20 0xFFFFFFFFFFFFFFFFFFFFFFFFFFFFFFFFFFFFFFFF AND PUSH2 0x8FC PUSH8 0xDE0B6B3A7640000 PUSH2 0x2D4 PUSH2 0x4A7 JUMP JUMPDEST PUSH2 0x2DE SWAP2 SWAP1 PUSH2 0x701 JUMP JUMPDEST SWAP1 DUP2 ISZERO MUL SWAP1 PUSH1 0x40 MLOAD PUSH1 0x0 PUSH1 0x40 MLOAD DUP1 DUP4 SUB DUP2 DUP6 DUP9 DUP9 CALL SWAP4 POP POP POP POP ISZERO DUP1 ISZERO PUSH2 0x309 JUMPI RETURNDATASIZE PUSH1 0x0 DUP1 RETURNDATACOPY RETURNDATASIZE PUSH1 0x0 REVERT JUMPDEST POP PUSH1 0x0 DUP1 SLOAD SWAP1 PUSH2 0x100 EXP SWAP1 DIV PUSH20 0xFFFFFFFFFFFFFFFFFFFFFFFFFFFFFFFFFFFFFFFF AND PUSH20 0xFFFFFFFFFFFFFFFFFFFFFFFFFFFFFFFFFFFFFFFF AND PUSH2 0x8FC PUSH8 0xDE0B6B3A7640000 SWAP1 DUP2 ISZERO MUL SWAP1 PUSH1 0x40 MLOAD PUSH1 0x0 PUSH1 0x40 MLOAD DUP1 DUP4 SUB DUP2 DUP6 DUP9 DUP9 CALL SWAP4 POP POP POP POP ISZERO DUP1 ISZERO PUSH2 0x378 JUMPI RETURNDATASIZE PUSH1 0x0 DUP1 RETURNDATACOPY RETURNDATASIZE PUSH1 0x0 REVERT JUMPDEST POP PUSH1 0x2 PUSH1 0x0 SWAP1 SLOAD SWAP1 PUSH2 0x100 EXP SWAP1 DIV PUSH20 0xFFFFFFFFFFFFFFFFFFFFFFFFFFFFFFFFFFFFFFFF AND SWAP1 POP SWAP1 JUMP JUMPDEST PUSH1 0x1 DUP2 DUP2 SLOAD DUP2 LT PUSH2 0x3B1 JUMPI PUSH1 0x0 DUP1 REVERT JUMPDEST SWAP1 PUSH1 0x0 MSTORE PUSH1 0x20 PUSH1 0x0 KECCAK256 ADD PUSH1 0x0 SWAP2 POP SLOAD SWAP1 PUSH2 0x100 EXP SWAP1 DIV PUSH20 0xFFFFFFFFFFFFFFFFFFFFFFFFFFFFFFFFFFFFFFFF AND DUP2 JUMP JUMPDEST PUSH1 0x0 DUP1 SLOAD SWAP1 PUSH2 0x100 EXP SWAP1 DIV PUSH20 0xFFFFFFFFFFFFFFFFFFFFFFFFFFFFFFFFFFFFFFFF AND DUP2 JUMP JUMPDEST PUSH1 0x0 DUP1 PUSH1 0x0 SWAP1 SLOAD SWAP1 PUSH2 0x100 EXP SWAP1 DIV PUSH20 0xFFFFFFFFFFFFFFFFFFFFFFFFFFFFFFFFFFFFFFFF AND PUSH20 0xFFFFFFFFFFFFFFFFFFFFFFFFFFFFFFFFFFFFFFFF AND CALLER PUSH20 0xFFFFFFFFFFFFFFFFFFFFFFFFFFFFFFFFFFFFFFFF AND EQ PUSH2 0x45F JUMPI PUSH1 0x0 DUP1 REVERT JUMPDEST PUSH1 0x1 DUP1 SLOAD SWAP1 POP TIMESTAMP CALLER PUSH1 0x1 DUP1 SLOAD SWAP1 POP PUSH1 0x40 MLOAD PUSH1 0x20 ADD PUSH2 0x47F SWAP4 SWAP3 SWAP2 SWAP1 PUSH2 0x68E JUMP JUMPDEST PUSH1 0x40 MLOAD PUSH1 0x20 DUP2 DUP4 SUB SUB DUP2 MSTORE SWAP1 PUSH1 0x40 MSTORE DUP1 MLOAD SWAP1 PUSH1 0x20 ADD KECCAK256 PUSH1 0x0 SHR PUSH2 0x4A2 SWAP2 SWAP1 PUSH2 0x79F JUMP JUMPDEST SWAP1 POP SWAP1 JUMP JUMPDEST PUSH1 0x0 DUP1 PUSH1 0x0 SWAP1 SLOAD SWAP1 PUSH2 0x100 EXP SWAP1 DIV PUSH20 0xFFFFFFFFFFFFFFFFFFFFFFFFFFFFFFFFFFFFFFFF AND PUSH20 0xFFFFFFFFFFFFFFFFFFFFFFFFFFFFFFFFFFFFFFFF AND CALLER PUSH20 0xFFFFFFFFFFFFFFFFFFFFFFFFFFFFFFFFFFFFFFFF AND EQ PUSH2 0x502 JUMPI PUSH1 0x0 DUP1 REVERT JUMPDEST SELFBALANCE SWAP1 POP SWAP1 JUMP JUMPDEST PUSH1 0x2 PUSH1 0x0 SWAP1 SLOAD SWAP1 PUSH2 0x100 EXP SWAP1 DIV PUSH20 0xFFFFFFFFFFFFFFFFFFFFFFFFFFFFFFFFFFFFFFFF AND DUP2 JUMP JUMPDEST PUSH1 0x0 DUP1 SLOAD SWAP1 PUSH2 0x100 EXP SWAP1 DIV PUSH20 0xFFFFFFFFFFFFFFFFFFFFFFFFFFFFFFFFFFFFFFFF AND PUSH20 0xFFFFFFFFFFFFFFFFFFFFFFFFFFFFFFFFFFFFFFFF AND CALLER PUSH20 0xFFFFFFFFFFFFFFFFFFFFFFFFFFFFFFFFFFFFFFFF AND EQ ISZERO PUSH2 0x587 JUMPI PUSH1 0x0 DUP1 REVERT JUMPDEST PUSH8 0x8AC7230489E80000 CALLVALUE EQ PUSH2 0x59B JUMPI PUSH1 0x0 DUP1 REVERT JUMPDEST PUSH1 0x1 CALLER SWAP1 DUP1 PUSH1 0x1 DUP2 SLOAD ADD DUP1 DUP3 SSTORE DUP1 SWAP2 POP POP PUSH1 0x1 SWAP1 SUB SWAP1 PUSH1 0x0 MSTORE PUSH1 0x20 PUSH1 0x0 KECCAK256 ADD PUSH1 0x0 SWAP1 SWAP2 SWAP1 SWAP2 SWAP1 SWAP2 PUSH2 0x100 EXP DUP2 SLOAD DUP2 PUSH20 0xFFFFFFFFFFFFFFFFFFFFFFFFFFFFFFFFFFFFFFFF MUL NOT AND SWAP1 DUP4 PUSH20 0xFFFFFFFFFFFFFFFFFFFFFFFFFFFFFFFFFFFFFFFF AND MUL OR SWAP1 SSTORE POP JUMP JUMPDEST PUSH1 0x0 DUP2 CALLDATALOAD SWAP1 POP PUSH2 0x60F DUP2 PUSH2 0x86F JUMP JUMPDEST SWAP3 SWAP2 POP POP JUMP JUMPDEST PUSH1 0x0 PUSH1 0x20 DUP3 DUP5 SUB SLT ISZERO PUSH2 0x62B JUMPI PUSH2 0x62A PUSH2 0x85D JUMP JUMPDEST JUMPDEST PUSH1 0x0 PUSH2 0x639 DUP5 DUP3 DUP6 ADD PUSH2 0x600 JUMP JUMPDEST SWAP2 POP POP SWAP3 SWAP2 POP POP JUMP JUMPDEST PUSH2 0x64B DUP2 PUSH2 0x735 JUMP JUMPDEST DUP3 MSTORE POP POP JUMP JUMPDEST PUSH2 0x662 PUSH2 0x65D DUP3 PUSH2 0x735 JUMP JUMPDEST PUSH2 0x771 JUMP JUMPDEST DUP3 MSTORE POP POP JUMP JUMPDEST PUSH2 0x671 DUP2 PUSH2 0x767 JUMP JUMPDEST DUP3 MSTORE POP POP JUMP JUMPDEST PUSH2 0x688 PUSH2 0x683 DUP3 PUSH2 0x767 JUMP JUMPDEST PUSH2 0x795 JUMP JUMPDEST DUP3 MSTORE POP POP JUMP JUMPDEST PUSH1 0x0 PUSH2 0x69A DUP3 DUP7 PUSH2 0x677 JUMP JUMPDEST PUSH1 0x20 DUP3 ADD SWAP2 POP PUSH2 0x6AA DUP3 DUP6 PUSH2 0x651 JUMP JUMPDEST PUSH1 0x14 DUP3 ADD SWAP2 POP PUSH2 0x6BA DUP3 DUP5 PUSH2 0x677 JUMP JUMPDEST PUSH1 0x20 DUP3 ADD SWAP2 POP DUP2 SWAP1 POP SWAP5 SWAP4 POP POP POP POP JUMP JUMPDEST PUSH1 0x0 PUSH1 0x20 DUP3 ADD SWAP1 POP PUSH2 0x6E0 PUSH1 0x0 DUP4 ADD DUP5 PUSH2 0x642 JUMP JUMPDEST SWAP3 SWAP2 POP POP JUMP JUMPDEST PUSH1 0x0 PUSH1 0x20 DUP3 ADD SWAP1 POP PUSH2 0x6FB PUSH1 0x0 DUP4 ADD DUP5 PUSH2 0x668 JUMP JUMPDEST SWAP3 SWAP2 POP POP JUMP JUMPDEST PUSH1 0x0 PUSH2 0x70C DUP3 PUSH2 0x767 JUMP JUMPDEST SWAP2 POP PUSH2 0x717 DUP4 PUSH2 0x767 JUMP JUMPDEST SWAP3 POP DUP3 DUP3 LT ISZERO PUSH2 0x72A JUMPI PUSH2 0x729 PUSH2 0x7D0 JUMP JUMPDEST JUMPDEST DUP3 DUP3 SUB SWAP1 POP SWAP3 SWAP2 POP POP JUMP JUMPDEST PUSH1 0x0 PUSH2 0x740 DUP3 PUSH2 0x747 JUMP JUMPDEST SWAP1 POP SWAP2 SWAP1 POP JUMP JUMPDEST PUSH1 0x0 PUSH20 0xFFFFFFFFFFFFFFFFFFFFFFFFFFFFFFFFFFFFFFFF DUP3 AND SWAP1 POP SWAP2 SWAP1 POP JUMP JUMPDEST PUSH1 0x0 DUP2 SWAP1 POP SWAP2 SWAP1 POP JUMP JUMPDEST PUSH1 0x0 PUSH2 0x77C DUP3 PUSH2 0x783 JUMP JUMPDEST SWAP1 POP SWAP2 SWAP1 POP JUMP JUMPDEST PUSH1 0x0 PUSH2 0x78E DUP3 PUSH2 0x862 JUMP JUMPDEST SWAP1 POP SWAP2 SWAP1 POP JUMP JUMPDEST PUSH1 0x0 DUP2 SWAP1 POP SWAP2 SWAP1 POP JUMP JUMPDEST PUSH1 0x0 PUSH2 0x7AA DUP3 PUSH2 0x767 JUMP JUMPDEST SWAP2 POP PUSH2 0x7B5 DUP4 PUSH2 0x767 JUMP JUMPDEST SWAP3 POP DUP3 PUSH2 0x7C5 JUMPI PUSH2 0x7C4 PUSH2 0x7FF JUMP JUMPDEST JUMPDEST DUP3 DUP3 MOD SWAP1 POP SWAP3 SWAP2 POP POP JUMP JUMPDEST PUSH32 0x4E487B7100000000000000000000000000000000000000000000000000000000 PUSH1 0x0 MSTORE PUSH1 0x11 PUSH1 0x4 MSTORE PUSH1 0x24 PUSH1 0x0 REVERT JUMPDEST PUSH32 0x4E487B7100000000000000000000000000000000000000000000000000000000 PUSH1 0x0 MSTORE PUSH1 0x12 PUSH1 0x4 MSTORE PUSH1 0x24 PUSH1 0x0 REVERT JUMPDEST PUSH32 0x4E487B7100000000000000000000000000000000000000000000000000000000 PUSH1 0x0 MSTORE PUSH1 0x32 PUSH1 0x4 MSTORE PUSH1 0x24 PUSH1 0x0 REVERT JUMPDEST PUSH1 0x0 DUP1 REVERT JUMPDEST PUSH1 0x0 DUP2 PUSH1 0x60 SHL SWAP1 POP SWAP2 SWAP1 POP JUMP JUMPDEST PUSH2 0x878 DUP2 PUSH2 0x767 JUMP JUMPDEST DUP2 EQ PUSH2 0x883 JUMPI PUSH1 0x0 DUP1 REVERT JUMPDEST POP JUMP INVALID LOG2 PUSH5 0x6970667358 0x22 SLT KECCAK256 PUSH6 0x38E87915DC22 SAR 0xC1 SWAP4 0xE ADDMOD 0xBE PUSH28 0x7B2083675CCD69F22F07AEF966F552699C7964736F6C634300080700 CALLER "
				},
				"gasEstimates": {
					"creation": {
						"codeDepositCost": "447200",
						"executionCost": "24746",
						"totalCost": "471946"
					},
					"external": {
						"buy_lottery()": "50956",
						"manager()": "2556",
						"participants(uint256)": "4979",
						"random_number_generator()": "infinite",
						"select_winner()": "infinite",
						"show_balance()": "2531",
						"winner()": "2558"
					}
				},
				"methodIdentifiers": {
					"buy_lottery()": "e8e11e16",
					"manager()": "481c6a75",
					"participants(uint256)": "35c1d349",
					"random_number_generator()": "8c200df4",
					"select_winner()": "1bef21d6",
					"show_balance()": "946d0149",
					"winner()": "dfbf53ae"
				}
			},
			"storageLayout": {
				"storage": [
					{
						"astId": 3,
						"contract": "Projects/01_Lottery.sol:Lottery",
						"label": "manager",
						"offset": 0,
						"slot": "0",
						"type": "t_address"
					},
					{
						"astId": 6,
						"contract": "Projects/01_Lottery.sol:Lottery",
						"label": "participants",
						"offset": 0,
						"slot": "1",
						"type": "t_array(t_address)dyn_storage"
					},
					{
						"astId": 8,
						"contract": "Projects/01_Lottery.sol:Lottery",
						"label": "winner",
						"offset": 0,
						"slot": "2",
						"type": "t_address"
					}
				],
				"types": {
					"t_address": {
						"encoding": "inplace",
						"label": "address",
						"numberOfBytes": "20"
					},
					"t_array(t_address)dyn_storage": {
						"base": "t_address",
						"encoding": "dynamic_array",
						"label": "address[]",
						"numberOfBytes": "32"
					}
				}
			},
			"userdoc": {
				"kind": "user",
				"methods": {},
				"version": 1
			}
		}
	}
}