{
	"Projects/02_Event_Management.sol": {
		"EventManagement": {
			"abi": [
				{
					"inputs": [],
					"stateMutability": "nonpayable",
					"type": "constructor"
				},
				{
					"inputs": [
						{
							"internalType": "uint256",
							"name": "_event_index",
							"type": "uint256"
						},
						{
							"internalType": "uint256",
							"name": "_ticket_quantity",
							"type": "uint256"
						}
					],
					"name": "buy_ticket",
					"outputs": [],
					"stateMutability": "payable",
					"type": "function"
				},
				{
					"inputs": [
						{
							"internalType": "string",
							"name": "_event_name",
							"type": "string"
						},
						{
							"internalType": "uint256",
							"name": "_event_date",
							"type": "uint256"
						},
						{
							"internalType": "uint256",
							"name": "_ticket_price",
							"type": "uint256"
						},
						{
							"internalType": "uint256",
							"name": "_ticket_count",
							"type": "uint256"
						}
					],
					"name": "create_event",
					"outputs": [],
					"stateMutability": "payable",
					"type": "function"
				},
				{
					"inputs": [
						{
							"internalType": "uint256",
							"name": "",
							"type": "uint256"
						}
					],
					"name": "events",
					"outputs": [
						{
							"internalType": "address payable",
							"name": "organizer",
							"type": "address"
						},
						{
							"internalType": "string",
							"name": "event_name",
							"type": "string"
						},
						{
							"internalType": "uint256",
							"name": "event_date",
							"type": "uint256"
						},
						{
							"internalType": "uint256",
							"name": "ticket_price",
							"type": "uint256"
						},
						{
							"internalType": "uint256",
							"name": "ticket_count",
							"type": "uint256"
						}
					],
					"stateMutability": "view",
					"type": "function"
				},
				{
					"inputs": [
						{
							"internalType": "address",
							"name": "",
							"type": "address"
						},
						{
							"internalType": "uint256",
							"name": "",
							"type": "uint256"
						}
					],
					"name": "tickets",
					"outputs": [
						{
							"internalType": "uint256",
							"name": "",
							"type": "uint256"
						}
					],
					"stateMutability": "view",
					"type": "function"
				}
			],
			"devdoc": {
				"kind": "dev",
				"methods": {},
				"version": 1
			},
			"evm": {
				"assembly": "    /* \"Projects/02_Event_Management.sol\":75:2463  contract EventManagement {\r... */\n  mstore(0x40, 0x80)\n    /* \"Projects/02_Event_Management.sol\":425:494  constructor() {\r... */\n  callvalue\n  dup1\n  iszero\n  tag_1\n  jumpi\n  0x00\n  dup1\n  revert\ntag_1:\n  pop\n    /* \"Projects/02_Event_Management.sol\":475:485  msg.sender */\n  caller\n    /* \"Projects/02_Event_Management.sol\":450:464  owner_contract */\n  0x00\n  dup1\n    /* \"Projects/02_Event_Management.sol\":450:486  owner_contract = payable(msg.sender) */\n  0x0100\n  exp\n  dup2\n  sload\n  dup2\n  0xffffffffffffffffffffffffffffffffffffffff\n  mul\n  not\n  and\n  swap1\n  dup4\n  0xffffffffffffffffffffffffffffffffffffffff\n  and\n  mul\n  or\n  swap1\n  sstore\n  pop\n    /* \"Projects/02_Event_Management.sol\":75:2463  contract EventManagement {\r... */\n  dataSize(sub_0)\n  dup1\n  dataOffset(sub_0)\n  0x00\n  codecopy\n  0x00\n  return\nstop\n\nsub_0: assembly {\n        /* \"Projects/02_Event_Management.sol\":75:2463  contract EventManagement {\r... */\n      mstore(0x40, 0x80)\n      jumpi(tag_1, lt(calldatasize, 0x04))\n      shr(0xe0, calldataload(0x00))\n      dup1\n      0x0b791430\n      eq\n      tag_2\n      jumpi\n      dup1\n      0xc71e7edc\n      eq\n      tag_3\n      jumpi\n      dup1\n      0xdae7a13c\n      eq\n      tag_4\n      jumpi\n      dup1\n      0xee3bf803\n      eq\n      tag_5\n      jumpi\n    tag_1:\n      0x00\n      dup1\n      revert\n        /* \"Projects/02_Event_Management.sol\":330:351  Event[] public events */\n    tag_2:\n      callvalue\n      dup1\n      iszero\n      tag_6\n      jumpi\n      0x00\n      dup1\n      revert\n    tag_6:\n      pop\n      tag_7\n      0x04\n      dup1\n      calldatasize\n      sub\n      dup2\n      add\n      swap1\n      tag_8\n      swap2\n      swap1\n      tag_9\n      jump\t// in\n    tag_8:\n      tag_10\n      jump\t// in\n    tag_7:\n      mload(0x40)\n      tag_11\n      swap6\n      swap5\n      swap4\n      swap3\n      swap2\n      swap1\n      tag_12\n      jump\t// in\n    tag_11:\n      mload(0x40)\n      dup1\n      swap2\n      sub\n      swap1\n      return\n        /* \"Projects/02_Event_Management.sol\":1572:2458  function buy_ticket(uint _event_index, uint _ticket_quantity) public payable {\r... */\n    tag_3:\n      tag_13\n      0x04\n      dup1\n      calldatasize\n      sub\n      dup2\n      add\n      swap1\n      tag_14\n      swap2\n      swap1\n      tag_15\n      jump\t// in\n    tag_14:\n      tag_16\n      jump\t// in\n    tag_13:\n      stop\n        /* \"Projects/02_Event_Management.sol\":358:414  mapping(address => mapping(uint => uint)) public tickets */\n    tag_4:\n      callvalue\n      dup1\n      iszero\n      tag_17\n      jumpi\n      0x00\n      dup1\n      revert\n    tag_17:\n      pop\n      tag_18\n      0x04\n      dup1\n      calldatasize\n      sub\n      dup2\n      add\n      swap1\n      tag_19\n      swap2\n      swap1\n      tag_20\n      jump\t// in\n    tag_19:\n      tag_21\n      jump\t// in\n    tag_18:\n      mload(0x40)\n      tag_22\n      swap2\n      swap1\n      tag_23\n      jump\t// in\n    tag_22:\n      mload(0x40)\n      dup1\n      swap2\n      sub\n      swap1\n      return\n        /* \"Projects/02_Event_Management.sol\":529:1538  function create_event(string memory _event_name, uint _event_date, uint _ticket_price, uint _ticket_count) public payable {\r... */\n    tag_5:\n      tag_24\n      0x04\n      dup1\n      calldatasize\n      sub\n      dup2\n      add\n      swap1\n      tag_25\n      swap2\n      swap1\n      tag_26\n      jump\t// in\n    tag_25:\n      tag_27\n      jump\t// in\n    tag_24:\n      stop\n        /* \"Projects/02_Event_Management.sol\":330:351  Event[] public events */\n    tag_10:\n      0x01\n      dup2\n      dup2\n      sload\n      dup2\n      lt\n      tag_28\n      jumpi\n      0x00\n      dup1\n      revert\n    tag_28:\n      swap1\n      0x00\n      mstore\n      keccak256(0x00, 0x20)\n      swap1\n      0x05\n      mul\n      add\n      0x00\n      swap2\n      pop\n      swap1\n      pop\n      dup1\n      0x00\n      add\n      0x00\n      swap1\n      sload\n      swap1\n      0x0100\n      exp\n      swap1\n      div\n      0xffffffffffffffffffffffffffffffffffffffff\n      and\n      swap1\n      dup1\n      0x01\n      add\n      dup1\n      sload\n      tag_30\n      swap1\n      tag_31\n      jump\t// in\n    tag_30:\n      dup1\n      0x1f\n      add\n      0x20\n      dup1\n      swap2\n      div\n      mul\n      0x20\n      add\n      mload(0x40)\n      swap1\n      dup2\n      add\n      0x40\n      mstore\n      dup1\n      swap3\n      swap2\n      swap1\n      dup2\n      dup2\n      mstore\n      0x20\n      add\n      dup3\n      dup1\n      sload\n      tag_32\n      swap1\n      tag_31\n      jump\t// in\n    tag_32:\n      dup1\n      iszero\n      tag_33\n      jumpi\n      dup1\n      0x1f\n      lt\n      tag_34\n      jumpi\n      0x0100\n      dup1\n      dup4\n      sload\n      div\n      mul\n      dup4\n      mstore\n      swap2\n      0x20\n      add\n      swap2\n      jump(tag_33)\n    tag_34:\n      dup3\n      add\n      swap2\n      swap1\n      0x00\n      mstore\n      keccak256(0x00, 0x20)\n      swap1\n    tag_35:\n      dup2\n      sload\n      dup2\n      mstore\n      swap1\n      0x01\n      add\n      swap1\n      0x20\n      add\n      dup1\n      dup4\n      gt\n      tag_35\n      jumpi\n      dup3\n      swap1\n      sub\n      0x1f\n      and\n      dup3\n      add\n      swap2\n    tag_33:\n      pop\n      pop\n      pop\n      pop\n      pop\n      swap1\n      dup1\n      0x02\n      add\n      sload\n      swap1\n      dup1\n      0x03\n      add\n      sload\n      swap1\n      dup1\n      0x04\n      add\n      sload\n      swap1\n      pop\n      dup6\n      jump\t// out\n        /* \"Projects/02_Event_Management.sol\":1572:2458  function buy_ticket(uint _event_index, uint _ticket_quantity) public payable {\r... */\n    tag_16:\n        /* \"Projects/02_Event_Management.sol\":1720:1726  events */\n      0x01\n        /* \"Projects/02_Event_Management.sol\":1720:1733  events.length */\n      dup1\n      sload\n      swap1\n      pop\n        /* \"Projects/02_Event_Management.sol\":1705:1717  _event_index */\n      dup3\n        /* \"Projects/02_Event_Management.sol\":1705:1733  _event_index < events.length */\n      lt\n        /* \"Projects/02_Event_Management.sol\":1697:1762  require(_event_index < events.length, \"No events on this index.\") */\n      tag_37\n      jumpi\n      mload(0x40)\n      0x08c379a000000000000000000000000000000000000000000000000000000000\n      dup2\n      mstore\n      0x04\n      add\n      tag_38\n      swap1\n      tag_39\n      jump\t// in\n    tag_38:\n      mload(0x40)\n      dup1\n      swap2\n      sub\n      swap1\n      revert\n    tag_37:\n        /* \"Projects/02_Event_Management.sol\":1815:1830  block.timestamp */\n      timestamp\n        /* \"Projects/02_Event_Management.sol\":1781:1787  events */\n      0x01\n        /* \"Projects/02_Event_Management.sol\":1788:1800  _event_index */\n      dup4\n        /* \"Projects/02_Event_Management.sol\":1781:1801  events[_event_index] */\n      dup2\n      sload\n      dup2\n      lt\n      tag_40\n      jumpi\n      tag_41\n      tag_42\n      jump\t// in\n    tag_41:\n    tag_40:\n      swap1\n      0x00\n      mstore\n      keccak256(0x00, 0x20)\n      swap1\n      0x05\n      mul\n      add\n        /* \"Projects/02_Event_Management.sol\":1781:1812  events[_event_index].event_date */\n      0x02\n      add\n      sload\n        /* \"Projects/02_Event_Management.sol\":1781:1830  events[_event_index].event_date > block.timestamp */\n      gt\n        /* \"Projects/02_Event_Management.sol\":1773:1866  require(events[_event_index].event_date > block.timestamp, \"Sorry this show already finshed\") */\n      tag_44\n      jumpi\n      mload(0x40)\n      0x08c379a000000000000000000000000000000000000000000000000000000000\n      dup2\n      mstore\n      0x04\n      add\n      tag_45\n      swap1\n      tag_46\n      jump\t// in\n    tag_45:\n      mload(0x40)\n      dup1\n      swap2\n      sub\n      swap1\n      revert\n    tag_44:\n        /* \"Projects/02_Event_Management.sol\":1905:1906  0 */\n      0x00\n        /* \"Projects/02_Event_Management.sol\":1885:1901  _ticket_quantity */\n      dup2\n        /* \"Projects/02_Event_Management.sol\":1885:1906  _ticket_quantity != 0 */\n      eq\n      iszero\n        /* \"Projects/02_Event_Management.sol\":1877:1937  require(_ticket_quantity != 0, \"Please select some tickets\") */\n      tag_47\n      jumpi\n      mload(0x40)\n      0x08c379a000000000000000000000000000000000000000000000000000000000\n      dup2\n      mstore\n      0x04\n      add\n      tag_48\n      swap1\n      tag_49\n      jump\t// in\n    tag_48:\n      mload(0x40)\n      dup1\n      swap2\n      sub\n      swap1\n      revert\n    tag_47:\n        /* \"Projects/02_Event_Management.sol\":1976:1982  events */\n      0x01\n        /* \"Projects/02_Event_Management.sol\":1983:1995  _event_index */\n      dup3\n        /* \"Projects/02_Event_Management.sol\":1976:1996  events[_event_index] */\n      dup2\n      sload\n      dup2\n      lt\n      tag_50\n      jumpi\n      tag_51\n      tag_42\n      jump\t// in\n    tag_51:\n    tag_50:\n      swap1\n      0x00\n      mstore\n      keccak256(0x00, 0x20)\n      swap1\n      0x05\n      mul\n      add\n        /* \"Projects/02_Event_Management.sol\":1976:2009  events[_event_index].ticket_count */\n      0x04\n      add\n      sload\n        /* \"Projects/02_Event_Management.sol\":1956:1972  _ticket_quantity */\n      dup2\n        /* \"Projects/02_Event_Management.sol\":1956:2009  _ticket_quantity <= events[_event_index].ticket_count */\n      gt\n      iszero\n        /* \"Projects/02_Event_Management.sol\":1948:2054  require(_ticket_quantity <= events[_event_index].ticket_count, \"Sorry no more ticket left for this event\") */\n      tag_53\n      jumpi\n      mload(0x40)\n      0x08c379a000000000000000000000000000000000000000000000000000000000\n      dup2\n      mstore\n      0x04\n      add\n      tag_54\n      swap1\n      tag_55\n      jump\t// in\n    tag_54:\n      mload(0x40)\n      dup1\n      swap2\n      sub\n      swap1\n      revert\n    tag_53:\n        /* \"Projects/02_Event_Management.sol\":2122:2138  _ticket_quantity */\n      dup1\n        /* \"Projects/02_Event_Management.sol\":2086:2092  events */\n      0x01\n        /* \"Projects/02_Event_Management.sol\":2093:2105  _event_index */\n      dup4\n        /* \"Projects/02_Event_Management.sol\":2086:2106  events[_event_index] */\n      dup2\n      sload\n      dup2\n      lt\n      tag_56\n      jumpi\n      tag_57\n      tag_42\n      jump\t// in\n    tag_57:\n    tag_56:\n      swap1\n      0x00\n      mstore\n      keccak256(0x00, 0x20)\n      swap1\n      0x05\n      mul\n      add\n        /* \"Projects/02_Event_Management.sol\":2086:2119  events[_event_index].ticket_price */\n      0x03\n      add\n      sload\n        /* \"Projects/02_Event_Management.sol\":2086:2138  events[_event_index].ticket_price * _ticket_quantity */\n      tag_59\n      swap2\n      swap1\n      tag_60\n      jump\t// in\n    tag_59:\n        /* \"Projects/02_Event_Management.sol\":2073:2082  msg.value */\n      callvalue\n        /* \"Projects/02_Event_Management.sol\":2073:2138  msg.value == events[_event_index].ticket_price * _ticket_quantity */\n      eq\n        /* \"Projects/02_Event_Management.sol\":2065:2179  require(msg.value == events[_event_index].ticket_price * _ticket_quantity, \"Transact sufficient fund for tickets\") */\n      tag_61\n      jumpi\n      mload(0x40)\n      0x08c379a000000000000000000000000000000000000000000000000000000000\n      dup2\n      mstore\n      0x04\n      add\n      tag_62\n      swap1\n      tag_63\n      jump\t// in\n    tag_62:\n      mload(0x40)\n      dup1\n      swap2\n      sub\n      swap1\n      revert\n    tag_61:\n        /* \"Projects/02_Event_Management.sol\":2301:2317  _ticket_quantity */\n      dup1\n        /* \"Projects/02_Event_Management.sol\":2265:2272  tickets */\n      0x02\n        /* \"Projects/02_Event_Management.sol\":2265:2284  tickets[msg.sender] */\n      0x00\n        /* \"Projects/02_Event_Management.sol\":2273:2283  msg.sender */\n      caller\n        /* \"Projects/02_Event_Management.sol\":2265:2284  tickets[msg.sender] */\n      0xffffffffffffffffffffffffffffffffffffffff\n      and\n      0xffffffffffffffffffffffffffffffffffffffff\n      and\n      dup2\n      mstore\n      0x20\n      add\n      swap1\n      dup2\n      mstore\n      0x20\n      add\n      0x00\n      keccak256\n        /* \"Projects/02_Event_Management.sol\":2265:2298  tickets[msg.sender][_event_index] */\n      0x00\n        /* \"Projects/02_Event_Management.sol\":2285:2297  _event_index */\n      dup5\n        /* \"Projects/02_Event_Management.sol\":2265:2298  tickets[msg.sender][_event_index] */\n      dup2\n      mstore\n      0x20\n      add\n      swap1\n      dup2\n      mstore\n      0x20\n      add\n      0x00\n      keccak256\n        /* \"Projects/02_Event_Management.sol\":2265:2317  tickets[msg.sender][_event_index] = _ticket_quantity */\n      dup2\n      swap1\n      sstore\n      pop\n        /* \"Projects/02_Event_Management.sol\":2336:2342  events */\n      0x01\n        /* \"Projects/02_Event_Management.sol\":2343:2355  _event_index */\n      dup3\n        /* \"Projects/02_Event_Management.sol\":2336:2356  events[_event_index] */\n      dup2\n      sload\n      dup2\n      lt\n      tag_64\n      jumpi\n      tag_65\n      tag_42\n      jump\t// in\n    tag_65:\n    tag_64:\n      swap1\n      0x00\n      mstore\n      keccak256(0x00, 0x20)\n      swap1\n      0x05\n      mul\n      add\n        /* \"Projects/02_Event_Management.sol\":2336:2366  events[_event_index].organizer */\n      0x00\n      add\n      0x00\n      swap1\n      sload\n      swap1\n      0x0100\n      exp\n      swap1\n      div\n      0xffffffffffffffffffffffffffffffffffffffff\n      and\n        /* \"Projects/02_Event_Management.sol\":2328:2376  payable(events[_event_index].organizer).transfer */\n      0xffffffffffffffffffffffffffffffffffffffff\n      and\n        /* \"Projects/02_Event_Management.sol\":2328:2387  payable(events[_event_index].organizer).transfer(msg.value) */\n      0x08fc\n        /* \"Projects/02_Event_Management.sol\":2377:2386  msg.value */\n      callvalue\n        /* \"Projects/02_Event_Management.sol\":2328:2387  payable(events[_event_index].organizer).transfer(msg.value) */\n      swap1\n      dup2\n      iszero\n      mul\n      swap1\n      mload(0x40)\n      0x00\n      mload(0x40)\n      dup1\n      dup4\n      sub\n      dup2\n      dup6\n      dup9\n      dup9\n      call\n      swap4\n      pop\n      pop\n      pop\n      pop\n      iszero\n      dup1\n      iszero\n      tag_68\n      jumpi\n      returndatasize\n      0x00\n      dup1\n      returndatacopy\n      revert(0x00, returndatasize)\n    tag_68:\n      pop\n        /* \"Projects/02_Event_Management.sol\":1572:2458  function buy_ticket(uint _event_index, uint _ticket_quantity) public payable {\r... */\n      pop\n      pop\n      jump\t// out\n        /* \"Projects/02_Event_Management.sol\":358:414  mapping(address => mapping(uint => uint)) public tickets */\n    tag_21:\n      mstore(0x20, 0x02)\n      dup2\n      0x00\n      mstore\n      mstore(0x20, keccak256(0x00, 0x40))\n      dup1\n      0x00\n      mstore\n      keccak256(0x00, 0x40)\n      0x00\n      swap2\n      pop\n      swap2\n      pop\n      pop\n      sload\n      dup2\n      jump\t// out\n        /* \"Projects/02_Event_Management.sol\":529:1538  function create_event(string memory _event_name, uint _event_date, uint _ticket_price, uint _ticket_count) public payable {\r... */\n    tag_27:\n        /* \"Projects/02_Event_Management.sol\":725:739  owner_contract */\n      0x00\n      dup1\n      sload\n      swap1\n      0x0100\n      exp\n      swap1\n      div\n      0xffffffffffffffffffffffffffffffffffffffff\n      and\n        /* \"Projects/02_Event_Management.sol\":711:739  msg.sender != owner_contract */\n      0xffffffffffffffffffffffffffffffffffffffff\n      and\n        /* \"Projects/02_Event_Management.sol\":711:721  msg.sender */\n      caller\n        /* \"Projects/02_Event_Management.sol\":711:739  msg.sender != owner_contract */\n      0xffffffffffffffffffffffffffffffffffffffff\n      and\n      eq\n      iszero\n        /* \"Projects/02_Event_Management.sol\":711:767  msg.sender != owner_contract && msg.sender != address(0) */\n      dup1\n      iszero\n      tag_70\n      jumpi\n      pop\n        /* \"Projects/02_Event_Management.sol\":765:766  0 */\n      0x00\n        /* \"Projects/02_Event_Management.sol\":743:767  msg.sender != address(0) */\n      0xffffffffffffffffffffffffffffffffffffffff\n      and\n        /* \"Projects/02_Event_Management.sol\":743:753  msg.sender */\n      caller\n        /* \"Projects/02_Event_Management.sol\":743:767  msg.sender != address(0) */\n      0xffffffffffffffffffffffffffffffffffffffff\n      and\n      eq\n      iszero\n        /* \"Projects/02_Event_Management.sol\":711:767  msg.sender != owner_contract && msg.sender != address(0) */\n    tag_70:\n        /* \"Projects/02_Event_Management.sol\":703:822  require(msg.sender != owner_contract && msg.sender != address(0), \"Enter a valid address or owner can't host an event\") */\n      tag_71\n      jumpi\n      mload(0x40)\n      0x08c379a000000000000000000000000000000000000000000000000000000000\n      dup2\n      mstore\n      0x04\n      add\n      tag_72\n      swap1\n      tag_73\n      jump\t// in\n    tag_72:\n      mload(0x40)\n      dup1\n      swap2\n      sub\n      swap1\n      revert\n    tag_71:\n        /* \"Projects/02_Event_Management.sol\":856:857  0 */\n      0x00\n        /* \"Projects/02_Event_Management.sol\":841:852  _event_date */\n      dup4\n        /* \"Projects/02_Event_Management.sol\":841:857  _event_date != 0 */\n      eq\n      iszero\n        /* \"Projects/02_Event_Management.sol\":841:890  _event_date != 0 && _event_date > block.timestamp */\n      dup1\n      iszero\n      tag_74\n      jumpi\n      pop\n        /* \"Projects/02_Event_Management.sol\":875:890  block.timestamp */\n      timestamp\n        /* \"Projects/02_Event_Management.sol\":861:872  _event_date */\n      dup4\n        /* \"Projects/02_Event_Management.sol\":861:890  _event_date > block.timestamp */\n      gt\n        /* \"Projects/02_Event_Management.sol\":841:890  _event_date != 0 && _event_date > block.timestamp */\n    tag_74:\n        /* \"Projects/02_Event_Management.sol\":833:930  require(_event_date != 0 && _event_date > block.timestamp, \"Please enter a valid date in future\") */\n      tag_75\n      jumpi\n      mload(0x40)\n      0x08c379a000000000000000000000000000000000000000000000000000000000\n      dup2\n      mstore\n      0x04\n      add\n      tag_76\n      swap1\n      tag_77\n      jump\t// in\n    tag_76:\n      mload(0x40)\n      dup1\n      swap2\n      sub\n      swap1\n      revert\n    tag_75:\n        /* \"Projects/02_Event_Management.sol\":965:966  0 */\n      0x00\n        /* \"Projects/02_Event_Management.sol\":949:962  _ticket_count */\n      dup2\n        /* \"Projects/02_Event_Management.sol\":949:966  _ticket_count > 0 */\n      gt\n        /* \"Projects/02_Event_Management.sol\":941:997  require(_ticket_count > 0, \"Please create some tickets\") */\n      tag_78\n      jumpi\n      mload(0x40)\n      0x08c379a000000000000000000000000000000000000000000000000000000000\n      dup2\n      mstore\n      0x04\n      add\n      tag_79\n      swap1\n      tag_80\n      jump\t// in\n    tag_79:\n      mload(0x40)\n      dup1\n      swap2\n      sub\n      swap1\n      revert\n    tag_78:\n        /* \"Projects/02_Event_Management.sol\":1092:1093  0 */\n      0x00\n        /* \"Projects/02_Event_Management.sol\":1075:1088  _ticket_price */\n      dup3\n        /* \"Projects/02_Event_Management.sol\":1075:1093  _ticket_price != 0 */\n      eq\n        /* \"Projects/02_Event_Management.sol\":1071:1208  if (_ticket_price != 0) {\r... */\n      tag_81\n      jumpi\n        /* \"Projects/02_Event_Management.sol\":1131:1139  1000 wei */\n      0x03e8\n        /* \"Projects/02_Event_Management.sol\":1118:1127  msg.value */\n      callvalue\n        /* \"Projects/02_Event_Management.sol\":1118:1139  msg.value == 1000 wei */\n      eq\n        /* \"Projects/02_Event_Management.sol\":1110:1196  require(msg.value == 1000 wei, \"Please pay sufficient fund for organizing your event\") */\n      tag_82\n      jumpi\n      mload(0x40)\n      0x08c379a000000000000000000000000000000000000000000000000000000000\n      dup2\n      mstore\n      0x04\n      add\n      tag_83\n      swap1\n      tag_84\n      jump\t// in\n    tag_83:\n      mload(0x40)\n      dup1\n      swap2\n      sub\n      swap1\n      revert\n    tag_82:\n        /* \"Projects/02_Event_Management.sol\":1071:1208  if (_ticket_price != 0) {\r... */\n    tag_81:\n        /* \"Projects/02_Event_Management.sol\":1282:1304  Event memory new_event */\n      0x00\n        /* \"Projects/02_Event_Management.sol\":1307:1385  Event(payable(msg.sender),_event_name,_event_date,_ticket_price,_ticket_count) */\n      mload(0x40)\n      dup1\n      0xa0\n      add\n      0x40\n      mstore\n      dup1\n        /* \"Projects/02_Event_Management.sol\":1321:1331  msg.sender */\n      caller\n        /* \"Projects/02_Event_Management.sol\":1307:1385  Event(payable(msg.sender),_event_name,_event_date,_ticket_price,_ticket_count) */\n      0xffffffffffffffffffffffffffffffffffffffff\n      and\n      dup2\n      mstore\n      0x20\n      add\n        /* \"Projects/02_Event_Management.sol\":1333:1344  _event_name */\n      dup7\n        /* \"Projects/02_Event_Management.sol\":1307:1385  Event(payable(msg.sender),_event_name,_event_date,_ticket_price,_ticket_count) */\n      dup2\n      mstore\n      0x20\n      add\n        /* \"Projects/02_Event_Management.sol\":1345:1356  _event_date */\n      dup6\n        /* \"Projects/02_Event_Management.sol\":1307:1385  Event(payable(msg.sender),_event_name,_event_date,_ticket_price,_ticket_count) */\n      dup2\n      mstore\n      0x20\n      add\n        /* \"Projects/02_Event_Management.sol\":1357:1370  _ticket_price */\n      dup5\n        /* \"Projects/02_Event_Management.sol\":1307:1385  Event(payable(msg.sender),_event_name,_event_date,_ticket_price,_ticket_count) */\n      dup2\n      mstore\n      0x20\n      add\n        /* \"Projects/02_Event_Management.sol\":1371:1384  _ticket_count */\n      dup4\n        /* \"Projects/02_Event_Management.sol\":1307:1385  Event(payable(msg.sender),_event_name,_event_date,_ticket_price,_ticket_count) */\n      dup2\n      mstore\n      pop\n        /* \"Projects/02_Event_Management.sol\":1282:1385  Event memory new_event = Event(payable(msg.sender),_event_name,_event_date,_ticket_price,_ticket_count) */\n      swap1\n      pop\n        /* \"Projects/02_Event_Management.sol\":1396:1402  events */\n      0x01\n        /* \"Projects/02_Event_Management.sol\":1408:1417  new_event */\n      dup2\n        /* \"Projects/02_Event_Management.sol\":1396:1418  events.push(new_event) */\n      swap1\n      dup1\n      0x01\n      dup2\n      sload\n      add\n      dup1\n      dup3\n      sstore\n      dup1\n      swap2\n      pop\n      pop\n      0x01\n      swap1\n      sub\n      swap1\n      0x00\n      mstore\n      keccak256(0x00, 0x20)\n      swap1\n      0x05\n      mul\n      add\n      0x00\n      swap1\n      swap2\n      swap1\n      swap2\n      swap1\n      swap2\n      pop\n      0x00\n      dup3\n      add\n      mload\n      dup2\n      0x00\n      add\n      exp(0x0100, 0x00)\n      dup2\n      sload\n      dup2\n      0xffffffffffffffffffffffffffffffffffffffff\n      mul\n      not\n      and\n      swap1\n      dup4\n      0xffffffffffffffffffffffffffffffffffffffff\n      and\n      mul\n      or\n      swap1\n      sstore\n      pop\n      0x20\n      dup3\n      add\n      mload\n      dup2\n      0x01\n      add\n      swap1\n      dup1\n      mload\n      swap1\n      0x20\n      add\n      swap1\n      tag_86\n      swap3\n      swap2\n      swap1\n      tag_87\n      jump\t// in\n    tag_86:\n      pop\n      0x40\n      dup3\n      add\n      mload\n      dup2\n      0x02\n      add\n      sstore\n      0x60\n      dup3\n      add\n      mload\n      dup2\n      0x03\n      add\n      sstore\n      0x80\n      dup3\n      add\n      mload\n      dup2\n      0x04\n      add\n      sstore\n      pop\n      pop\n        /* \"Projects/02_Event_Management.sol\":1496:1510  owner_contract */\n      0x00\n      dup1\n      sload\n      swap1\n      0x0100\n      exp\n      swap1\n      div\n      0xffffffffffffffffffffffffffffffffffffffff\n      and\n        /* \"Projects/02_Event_Management.sol\":1496:1519  owner_contract.transfer */\n      0xffffffffffffffffffffffffffffffffffffffff\n      and\n        /* \"Projects/02_Event_Management.sol\":1496:1530  owner_contract.transfer(msg.value) */\n      0x08fc\n        /* \"Projects/02_Event_Management.sol\":1520:1529  msg.value */\n      callvalue\n        /* \"Projects/02_Event_Management.sol\":1496:1530  owner_contract.transfer(msg.value) */\n      swap1\n      dup2\n      iszero\n      mul\n      swap1\n      mload(0x40)\n      0x00\n      mload(0x40)\n      dup1\n      dup4\n      sub\n      dup2\n      dup6\n      dup9\n      dup9\n      call\n      swap4\n      pop\n      pop\n      pop\n      pop\n      iszero\n      dup1\n      iszero\n      tag_89\n      jumpi\n      returndatasize\n      0x00\n      dup1\n      returndatacopy\n      revert(0x00, returndatasize)\n    tag_89:\n      pop\n        /* \"Projects/02_Event_Management.sol\":651:1538  {\r... */\n      pop\n        /* \"Projects/02_Event_Management.sol\":529:1538  function create_event(string memory _event_name, uint _event_date, uint _ticket_price, uint _ticket_count) public payable {\r... */\n      pop\n      pop\n      pop\n      pop\n      jump\t// out\n    tag_87:\n      dup3\n      dup1\n      sload\n      tag_90\n      swap1\n      tag_31\n      jump\t// in\n    tag_90:\n      swap1\n      0x00\n      mstore\n      keccak256(0x00, 0x20)\n      swap1\n      0x1f\n      add\n      0x20\n      swap1\n      div\n      dup2\n      add\n      swap3\n      dup3\n      tag_92\n      jumpi\n      0x00\n      dup6\n      sstore\n      jump(tag_91)\n    tag_92:\n      dup3\n      0x1f\n      lt\n      tag_93\n      jumpi\n      dup1\n      mload\n      not(0xff)\n      and\n      dup4\n      dup1\n      add\n      or\n      dup6\n      sstore\n      jump(tag_91)\n    tag_93:\n      dup3\n      dup1\n      add\n      0x01\n      add\n      dup6\n      sstore\n      dup3\n      iszero\n      tag_91\n      jumpi\n      swap2\n      dup3\n      add\n    tag_94:\n      dup3\n      dup2\n      gt\n      iszero\n      tag_95\n      jumpi\n      dup3\n      mload\n      dup3\n      sstore\n      swap2\n      0x20\n      add\n      swap2\n      swap1\n      0x01\n      add\n      swap1\n      jump(tag_94)\n    tag_95:\n    tag_91:\n      pop\n      swap1\n      pop\n      tag_96\n      swap2\n      swap1\n      tag_97\n      jump\t// in\n    tag_96:\n      pop\n      swap1\n      jump\t// out\n    tag_97:\n    tag_98:\n      dup1\n      dup3\n      gt\n      iszero\n      tag_99\n      jumpi\n      0x00\n      dup2\n      0x00\n      swap1\n      sstore\n      pop\n      0x01\n      add\n      jump(tag_98)\n    tag_99:\n      pop\n      swap1\n      jump\t// out\n        /* \"#utility.yul\":7:419   */\n    tag_101:\n        /* \"#utility.yul\":85:90   */\n      0x00\n        /* \"#utility.yul\":110:176   */\n      tag_103\n        /* \"#utility.yul\":126:175   */\n      tag_104\n        /* \"#utility.yul\":168:174   */\n      dup5\n        /* \"#utility.yul\":126:175   */\n      tag_105\n      jump\t// in\n    tag_104:\n        /* \"#utility.yul\":110:176   */\n      tag_106\n      jump\t// in\n    tag_103:\n        /* \"#utility.yul\":101:176   */\n      swap1\n      pop\n        /* \"#utility.yul\":199:205   */\n      dup3\n        /* \"#utility.yul\":192:197   */\n      dup2\n        /* \"#utility.yul\":185:206   */\n      mstore\n        /* \"#utility.yul\":237:241   */\n      0x20\n        /* \"#utility.yul\":230:235   */\n      dup2\n        /* \"#utility.yul\":226:242   */\n      add\n        /* \"#utility.yul\":275:278   */\n      dup5\n        /* \"#utility.yul\":266:272   */\n      dup5\n        /* \"#utility.yul\":261:264   */\n      dup5\n        /* \"#utility.yul\":257:273   */\n      add\n        /* \"#utility.yul\":254:279   */\n      gt\n        /* \"#utility.yul\":251:363   */\n      iszero\n      tag_107\n      jumpi\n        /* \"#utility.yul\":282:361   */\n      tag_108\n      tag_109\n      jump\t// in\n    tag_108:\n        /* \"#utility.yul\":251:363   */\n    tag_107:\n        /* \"#utility.yul\":372:413   */\n      tag_110\n        /* \"#utility.yul\":406:412   */\n      dup5\n        /* \"#utility.yul\":401:404   */\n      dup3\n        /* \"#utility.yul\":396:399   */\n      dup6\n        /* \"#utility.yul\":372:413   */\n      tag_111\n      jump\t// in\n    tag_110:\n        /* \"#utility.yul\":91:419   */\n      pop\n        /* \"#utility.yul\":7:419   */\n      swap4\n      swap3\n      pop\n      pop\n      pop\n      jump\t// out\n        /* \"#utility.yul\":425:564   */\n    tag_112:\n        /* \"#utility.yul\":471:476   */\n      0x00\n        /* \"#utility.yul\":509:515   */\n      dup2\n        /* \"#utility.yul\":496:516   */\n      calldataload\n        /* \"#utility.yul\":487:516   */\n      swap1\n      pop\n        /* \"#utility.yul\":525:558   */\n      tag_114\n        /* \"#utility.yul\":552:557   */\n      dup2\n        /* \"#utility.yul\":525:558   */\n      tag_115\n      jump\t// in\n    tag_114:\n        /* \"#utility.yul\":425:564   */\n      swap3\n      swap2\n      pop\n      pop\n      jump\t// out\n        /* \"#utility.yul\":584:924   */\n    tag_116:\n        /* \"#utility.yul\":640:645   */\n      0x00\n        /* \"#utility.yul\":689:692   */\n      dup3\n        /* \"#utility.yul\":682:686   */\n      0x1f\n        /* \"#utility.yul\":674:680   */\n      dup4\n        /* \"#utility.yul\":670:687   */\n      add\n        /* \"#utility.yul\":666:693   */\n      slt\n        /* \"#utility.yul\":656:778   */\n      tag_118\n      jumpi\n        /* \"#utility.yul\":697:776   */\n      tag_119\n      tag_120\n      jump\t// in\n    tag_119:\n        /* \"#utility.yul\":656:778   */\n    tag_118:\n        /* \"#utility.yul\":814:820   */\n      dup2\n        /* \"#utility.yul\":801:821   */\n      calldataload\n        /* \"#utility.yul\":839:918   */\n      tag_121\n        /* \"#utility.yul\":914:917   */\n      dup5\n        /* \"#utility.yul\":906:912   */\n      dup3\n        /* \"#utility.yul\":899:903   */\n      0x20\n        /* \"#utility.yul\":891:897   */\n      dup7\n        /* \"#utility.yul\":887:904   */\n      add\n        /* \"#utility.yul\":839:918   */\n      tag_101\n      jump\t// in\n    tag_121:\n        /* \"#utility.yul\":830:918   */\n      swap2\n      pop\n        /* \"#utility.yul\":646:924   */\n      pop\n        /* \"#utility.yul\":584:924   */\n      swap3\n      swap2\n      pop\n      pop\n      jump\t// out\n        /* \"#utility.yul\":930:1069   */\n    tag_122:\n        /* \"#utility.yul\":976:981   */\n      0x00\n        /* \"#utility.yul\":1014:1020   */\n      dup2\n        /* \"#utility.yul\":1001:1021   */\n      calldataload\n        /* \"#utility.yul\":992:1021   */\n      swap1\n      pop\n        /* \"#utility.yul\":1030:1063   */\n      tag_124\n        /* \"#utility.yul\":1057:1062   */\n      dup2\n        /* \"#utility.yul\":1030:1063   */\n      tag_125\n      jump\t// in\n    tag_124:\n        /* \"#utility.yul\":930:1069   */\n      swap3\n      swap2\n      pop\n      pop\n      jump\t// out\n        /* \"#utility.yul\":1075:1549   */\n    tag_20:\n        /* \"#utility.yul\":1143:1149   */\n      0x00\n        /* \"#utility.yul\":1151:1157   */\n      dup1\n        /* \"#utility.yul\":1200:1202   */\n      0x40\n        /* \"#utility.yul\":1188:1197   */\n      dup4\n        /* \"#utility.yul\":1179:1186   */\n      dup6\n        /* \"#utility.yul\":1175:1198   */\n      sub\n        /* \"#utility.yul\":1171:1203   */\n      slt\n        /* \"#utility.yul\":1168:1287   */\n      iszero\n      tag_127\n      jumpi\n        /* \"#utility.yul\":1206:1285   */\n      tag_128\n      tag_129\n      jump\t// in\n    tag_128:\n        /* \"#utility.yul\":1168:1287   */\n    tag_127:\n        /* \"#utility.yul\":1326:1327   */\n      0x00\n        /* \"#utility.yul\":1351:1404   */\n      tag_130\n        /* \"#utility.yul\":1396:1403   */\n      dup6\n        /* \"#utility.yul\":1387:1393   */\n      dup3\n        /* \"#utility.yul\":1376:1385   */\n      dup7\n        /* \"#utility.yul\":1372:1394   */\n      add\n        /* \"#utility.yul\":1351:1404   */\n      tag_112\n      jump\t// in\n    tag_130:\n        /* \"#utility.yul\":1341:1404   */\n      swap3\n      pop\n        /* \"#utility.yul\":1297:1414   */\n      pop\n        /* \"#utility.yul\":1453:1455   */\n      0x20\n        /* \"#utility.yul\":1479:1532   */\n      tag_131\n        /* \"#utility.yul\":1524:1531   */\n      dup6\n        /* \"#utility.yul\":1515:1521   */\n      dup3\n        /* \"#utility.yul\":1504:1513   */\n      dup7\n        /* \"#utility.yul\":1500:1522   */\n      add\n        /* \"#utility.yul\":1479:1532   */\n      tag_122\n      jump\t// in\n    tag_131:\n        /* \"#utility.yul\":1469:1532   */\n      swap2\n      pop\n        /* \"#utility.yul\":1424:1542   */\n      pop\n        /* \"#utility.yul\":1075:1549   */\n      swap3\n      pop\n      swap3\n      swap1\n      pop\n      jump\t// out\n        /* \"#utility.yul\":1555:2500   */\n    tag_26:\n        /* \"#utility.yul\":1651:1657   */\n      0x00\n        /* \"#utility.yul\":1659:1665   */\n      dup1\n        /* \"#utility.yul\":1667:1673   */\n      0x00\n        /* \"#utility.yul\":1675:1681   */\n      dup1\n        /* \"#utility.yul\":1724:1727   */\n      0x80\n        /* \"#utility.yul\":1712:1721   */\n      dup6\n        /* \"#utility.yul\":1703:1710   */\n      dup8\n        /* \"#utility.yul\":1699:1722   */\n      sub\n        /* \"#utility.yul\":1695:1728   */\n      slt\n        /* \"#utility.yul\":1692:1812   */\n      iszero\n      tag_133\n      jumpi\n        /* \"#utility.yul\":1731:1810   */\n      tag_134\n      tag_129\n      jump\t// in\n    tag_134:\n        /* \"#utility.yul\":1692:1812   */\n    tag_133:\n        /* \"#utility.yul\":1879:1880   */\n      0x00\n        /* \"#utility.yul\":1868:1877   */\n      dup6\n        /* \"#utility.yul\":1864:1881   */\n      add\n        /* \"#utility.yul\":1851:1882   */\n      calldataload\n        /* \"#utility.yul\":1909:1927   */\n      0xffffffffffffffff\n        /* \"#utility.yul\":1901:1907   */\n      dup2\n        /* \"#utility.yul\":1898:1928   */\n      gt\n        /* \"#utility.yul\":1895:2012   */\n      iszero\n      tag_135\n      jumpi\n        /* \"#utility.yul\":1931:2010   */\n      tag_136\n      tag_137\n      jump\t// in\n    tag_136:\n        /* \"#utility.yul\":1895:2012   */\n    tag_135:\n        /* \"#utility.yul\":2036:2099   */\n      tag_138\n        /* \"#utility.yul\":2091:2098   */\n      dup8\n        /* \"#utility.yul\":2082:2088   */\n      dup3\n        /* \"#utility.yul\":2071:2080   */\n      dup9\n        /* \"#utility.yul\":2067:2089   */\n      add\n        /* \"#utility.yul\":2036:2099   */\n      tag_116\n      jump\t// in\n    tag_138:\n        /* \"#utility.yul\":2026:2099   */\n      swap5\n      pop\n        /* \"#utility.yul\":1822:2109   */\n      pop\n        /* \"#utility.yul\":2148:2150   */\n      0x20\n        /* \"#utility.yul\":2174:2227   */\n      tag_139\n        /* \"#utility.yul\":2219:2226   */\n      dup8\n        /* \"#utility.yul\":2210:2216   */\n      dup3\n        /* \"#utility.yul\":2199:2208   */\n      dup9\n        /* \"#utility.yul\":2195:2217   */\n      add\n        /* \"#utility.yul\":2174:2227   */\n      tag_122\n      jump\t// in\n    tag_139:\n        /* \"#utility.yul\":2164:2227   */\n      swap4\n      pop\n        /* \"#utility.yul\":2119:2237   */\n      pop\n        /* \"#utility.yul\":2276:2278   */\n      0x40\n        /* \"#utility.yul\":2302:2355   */\n      tag_140\n        /* \"#utility.yul\":2347:2354   */\n      dup8\n        /* \"#utility.yul\":2338:2344   */\n      dup3\n        /* \"#utility.yul\":2327:2336   */\n      dup9\n        /* \"#utility.yul\":2323:2345   */\n      add\n        /* \"#utility.yul\":2302:2355   */\n      tag_122\n      jump\t// in\n    tag_140:\n        /* \"#utility.yul\":2292:2355   */\n      swap3\n      pop\n        /* \"#utility.yul\":2247:2365   */\n      pop\n        /* \"#utility.yul\":2404:2406   */\n      0x60\n        /* \"#utility.yul\":2430:2483   */\n      tag_141\n        /* \"#utility.yul\":2475:2482   */\n      dup8\n        /* \"#utility.yul\":2466:2472   */\n      dup3\n        /* \"#utility.yul\":2455:2464   */\n      dup9\n        /* \"#utility.yul\":2451:2473   */\n      add\n        /* \"#utility.yul\":2430:2483   */\n      tag_122\n      jump\t// in\n    tag_141:\n        /* \"#utility.yul\":2420:2483   */\n      swap2\n      pop\n        /* \"#utility.yul\":2375:2493   */\n      pop\n        /* \"#utility.yul\":1555:2500   */\n      swap3\n      swap6\n      swap2\n      swap5\n      pop\n      swap3\n      pop\n      jump\t// out\n        /* \"#utility.yul\":2506:2835   */\n    tag_9:\n        /* \"#utility.yul\":2565:2571   */\n      0x00\n        /* \"#utility.yul\":2614:2616   */\n      0x20\n        /* \"#utility.yul\":2602:2611   */\n      dup3\n        /* \"#utility.yul\":2593:2600   */\n      dup5\n        /* \"#utility.yul\":2589:2612   */\n      sub\n        /* \"#utility.yul\":2585:2617   */\n      slt\n        /* \"#utility.yul\":2582:2701   */\n      iszero\n      tag_143\n      jumpi\n        /* \"#utility.yul\":2620:2699   */\n      tag_144\n      tag_129\n      jump\t// in\n    tag_144:\n        /* \"#utility.yul\":2582:2701   */\n    tag_143:\n        /* \"#utility.yul\":2740:2741   */\n      0x00\n        /* \"#utility.yul\":2765:2818   */\n      tag_145\n        /* \"#utility.yul\":2810:2817   */\n      dup5\n        /* \"#utility.yul\":2801:2807   */\n      dup3\n        /* \"#utility.yul\":2790:2799   */\n      dup6\n        /* \"#utility.yul\":2786:2808   */\n      add\n        /* \"#utility.yul\":2765:2818   */\n      tag_122\n      jump\t// in\n    tag_145:\n        /* \"#utility.yul\":2755:2818   */\n      swap2\n      pop\n        /* \"#utility.yul\":2711:2828   */\n      pop\n        /* \"#utility.yul\":2506:2835   */\n      swap3\n      swap2\n      pop\n      pop\n      jump\t// out\n        /* \"#utility.yul\":2841:3315   */\n    tag_15:\n        /* \"#utility.yul\":2909:2915   */\n      0x00\n        /* \"#utility.yul\":2917:2923   */\n      dup1\n        /* \"#utility.yul\":2966:2968   */\n      0x40\n        /* \"#utility.yul\":2954:2963   */\n      dup4\n        /* \"#utility.yul\":2945:2952   */\n      dup6\n        /* \"#utility.yul\":2941:2964   */\n      sub\n        /* \"#utility.yul\":2937:2969   */\n      slt\n        /* \"#utility.yul\":2934:3053   */\n      iszero\n      tag_147\n      jumpi\n        /* \"#utility.yul\":2972:3051   */\n      tag_148\n      tag_129\n      jump\t// in\n    tag_148:\n        /* \"#utility.yul\":2934:3053   */\n    tag_147:\n        /* \"#utility.yul\":3092:3093   */\n      0x00\n        /* \"#utility.yul\":3117:3170   */\n      tag_149\n        /* \"#utility.yul\":3162:3169   */\n      dup6\n        /* \"#utility.yul\":3153:3159   */\n      dup3\n        /* \"#utility.yul\":3142:3151   */\n      dup7\n        /* \"#utility.yul\":3138:3160   */\n      add\n        /* \"#utility.yul\":3117:3170   */\n      tag_122\n      jump\t// in\n    tag_149:\n        /* \"#utility.yul\":3107:3170   */\n      swap3\n      pop\n        /* \"#utility.yul\":3063:3180   */\n      pop\n        /* \"#utility.yul\":3219:3221   */\n      0x20\n        /* \"#utility.yul\":3245:3298   */\n      tag_150\n        /* \"#utility.yul\":3290:3297   */\n      dup6\n        /* \"#utility.yul\":3281:3287   */\n      dup3\n        /* \"#utility.yul\":3270:3279   */\n      dup7\n        /* \"#utility.yul\":3266:3288   */\n      add\n        /* \"#utility.yul\":3245:3298   */\n      tag_122\n      jump\t// in\n    tag_150:\n        /* \"#utility.yul\":3235:3298   */\n      swap2\n      pop\n        /* \"#utility.yul\":3190:3308   */\n      pop\n        /* \"#utility.yul\":2841:3315   */\n      swap3\n      pop\n      swap3\n      swap1\n      pop\n      jump\t// out\n        /* \"#utility.yul\":3321:3463   */\n    tag_151:\n        /* \"#utility.yul\":3424:3456   */\n      tag_153\n        /* \"#utility.yul\":3450:3455   */\n      dup2\n        /* \"#utility.yul\":3424:3456   */\n      tag_154\n      jump\t// in\n    tag_153:\n        /* \"#utility.yul\":3419:3422   */\n      dup3\n        /* \"#utility.yul\":3412:3457   */\n      mstore\n        /* \"#utility.yul\":3321:3463   */\n      pop\n      pop\n      jump\t// out\n        /* \"#utility.yul\":3469:3833   */\n    tag_155:\n        /* \"#utility.yul\":3557:3560   */\n      0x00\n        /* \"#utility.yul\":3585:3624   */\n      tag_157\n        /* \"#utility.yul\":3618:3623   */\n      dup3\n        /* \"#utility.yul\":3585:3624   */\n      tag_158\n      jump\t// in\n    tag_157:\n        /* \"#utility.yul\":3640:3711   */\n      tag_159\n        /* \"#utility.yul\":3704:3710   */\n      dup2\n        /* \"#utility.yul\":3699:3702   */\n      dup6\n        /* \"#utility.yul\":3640:3711   */\n      tag_160\n      jump\t// in\n    tag_159:\n        /* \"#utility.yul\":3633:3711   */\n      swap4\n      pop\n        /* \"#utility.yul\":3720:3772   */\n      tag_161\n        /* \"#utility.yul\":3765:3771   */\n      dup2\n        /* \"#utility.yul\":3760:3763   */\n      dup6\n        /* \"#utility.yul\":3753:3757   */\n      0x20\n        /* \"#utility.yul\":3746:3751   */\n      dup7\n        /* \"#utility.yul\":3742:3758   */\n      add\n        /* \"#utility.yul\":3720:3772   */\n      tag_162\n      jump\t// in\n    tag_161:\n        /* \"#utility.yul\":3797:3826   */\n      tag_163\n        /* \"#utility.yul\":3819:3825   */\n      dup2\n        /* \"#utility.yul\":3797:3826   */\n      tag_164\n      jump\t// in\n    tag_163:\n        /* \"#utility.yul\":3792:3795   */\n      dup5\n        /* \"#utility.yul\":3788:3827   */\n      add\n        /* \"#utility.yul\":3781:3827   */\n      swap2\n      pop\n        /* \"#utility.yul\":3561:3833   */\n      pop\n        /* \"#utility.yul\":3469:3833   */\n      swap3\n      swap2\n      pop\n      pop\n      jump\t// out\n        /* \"#utility.yul\":3839:4205   */\n    tag_165:\n        /* \"#utility.yul\":3981:3984   */\n      0x00\n        /* \"#utility.yul\":4002:4069   */\n      tag_167\n        /* \"#utility.yul\":4066:4068   */\n      0x34\n        /* \"#utility.yul\":4061:4064   */\n      dup4\n        /* \"#utility.yul\":4002:4069   */\n      tag_160\n      jump\t// in\n    tag_167:\n        /* \"#utility.yul\":3995:4069   */\n      swap2\n      pop\n        /* \"#utility.yul\":4078:4171   */\n      tag_168\n        /* \"#utility.yul\":4167:4170   */\n      dup3\n        /* \"#utility.yul\":4078:4171   */\n      tag_169\n      jump\t// in\n    tag_168:\n        /* \"#utility.yul\":4196:4198   */\n      0x40\n        /* \"#utility.yul\":4191:4194   */\n      dup3\n        /* \"#utility.yul\":4187:4199   */\n      add\n        /* \"#utility.yul\":4180:4199   */\n      swap1\n      pop\n        /* \"#utility.yul\":3839:4205   */\n      swap2\n      swap1\n      pop\n      jump\t// out\n        /* \"#utility.yul\":4211:4577   */\n    tag_170:\n        /* \"#utility.yul\":4353:4356   */\n      0x00\n        /* \"#utility.yul\":4374:4441   */\n      tag_172\n        /* \"#utility.yul\":4438:4440   */\n      0x1a\n        /* \"#utility.yul\":4433:4436   */\n      dup4\n        /* \"#utility.yul\":4374:4441   */\n      tag_160\n      jump\t// in\n    tag_172:\n        /* \"#utility.yul\":4367:4441   */\n      swap2\n      pop\n        /* \"#utility.yul\":4450:4543   */\n      tag_173\n        /* \"#utility.yul\":4539:4542   */\n      dup3\n        /* \"#utility.yul\":4450:4543   */\n      tag_174\n      jump\t// in\n    tag_173:\n        /* \"#utility.yul\":4568:4570   */\n      0x20\n        /* \"#utility.yul\":4563:4566   */\n      dup3\n        /* \"#utility.yul\":4559:4571   */\n      add\n        /* \"#utility.yul\":4552:4571   */\n      swap1\n      pop\n        /* \"#utility.yul\":4211:4577   */\n      swap2\n      swap1\n      pop\n      jump\t// out\n        /* \"#utility.yul\":4583:4949   */\n    tag_175:\n        /* \"#utility.yul\":4725:4728   */\n      0x00\n        /* \"#utility.yul\":4746:4813   */\n      tag_177\n        /* \"#utility.yul\":4810:4812   */\n      0x23\n        /* \"#utility.yul\":4805:4808   */\n      dup4\n        /* \"#utility.yul\":4746:4813   */\n      tag_160\n      jump\t// in\n    tag_177:\n        /* \"#utility.yul\":4739:4813   */\n      swap2\n      pop\n        /* \"#utility.yul\":4822:4915   */\n      tag_178\n        /* \"#utility.yul\":4911:4914   */\n      dup3\n        /* \"#utility.yul\":4822:4915   */\n      tag_179\n      jump\t// in\n    tag_178:\n        /* \"#utility.yul\":4940:4942   */\n      0x40\n        /* \"#utility.yul\":4935:4938   */\n      dup3\n        /* \"#utility.yul\":4931:4943   */\n      add\n        /* \"#utility.yul\":4924:4943   */\n      swap1\n      pop\n        /* \"#utility.yul\":4583:4949   */\n      swap2\n      swap1\n      pop\n      jump\t// out\n        /* \"#utility.yul\":4955:5321   */\n    tag_180:\n        /* \"#utility.yul\":5097:5100   */\n      0x00\n        /* \"#utility.yul\":5118:5185   */\n      tag_182\n        /* \"#utility.yul\":5182:5184   */\n      0x18\n        /* \"#utility.yul\":5177:5180   */\n      dup4\n        /* \"#utility.yul\":5118:5185   */\n      tag_160\n      jump\t// in\n    tag_182:\n        /* \"#utility.yul\":5111:5185   */\n      swap2\n      pop\n        /* \"#utility.yul\":5194:5287   */\n      tag_183\n        /* \"#utility.yul\":5283:5286   */\n      dup3\n        /* \"#utility.yul\":5194:5287   */\n      tag_184\n      jump\t// in\n    tag_183:\n        /* \"#utility.yul\":5312:5314   */\n      0x20\n        /* \"#utility.yul\":5307:5310   */\n      dup3\n        /* \"#utility.yul\":5303:5315   */\n      add\n        /* \"#utility.yul\":5296:5315   */\n      swap1\n      pop\n        /* \"#utility.yul\":4955:5321   */\n      swap2\n      swap1\n      pop\n      jump\t// out\n        /* \"#utility.yul\":5327:5693   */\n    tag_185:\n        /* \"#utility.yul\":5469:5472   */\n      0x00\n        /* \"#utility.yul\":5490:5557   */\n      tag_187\n        /* \"#utility.yul\":5554:5556   */\n      0x32\n        /* \"#utility.yul\":5549:5552   */\n      dup4\n        /* \"#utility.yul\":5490:5557   */\n      tag_160\n      jump\t// in\n    tag_187:\n        /* \"#utility.yul\":5483:5557   */\n      swap2\n      pop\n        /* \"#utility.yul\":5566:5659   */\n      tag_188\n        /* \"#utility.yul\":5655:5658   */\n      dup3\n        /* \"#utility.yul\":5566:5659   */\n      tag_189\n      jump\t// in\n    tag_188:\n        /* \"#utility.yul\":5684:5686   */\n      0x40\n        /* \"#utility.yul\":5679:5682   */\n      dup3\n        /* \"#utility.yul\":5675:5687   */\n      add\n        /* \"#utility.yul\":5668:5687   */\n      swap1\n      pop\n        /* \"#utility.yul\":5327:5693   */\n      swap2\n      swap1\n      pop\n      jump\t// out\n        /* \"#utility.yul\":5699:6065   */\n    tag_190:\n        /* \"#utility.yul\":5841:5844   */\n      0x00\n        /* \"#utility.yul\":5862:5929   */\n      tag_192\n        /* \"#utility.yul\":5926:5928   */\n      0x24\n        /* \"#utility.yul\":5921:5924   */\n      dup4\n        /* \"#utility.yul\":5862:5929   */\n      tag_160\n      jump\t// in\n    tag_192:\n        /* \"#utility.yul\":5855:5929   */\n      swap2\n      pop\n        /* \"#utility.yul\":5938:6031   */\n      tag_193\n        /* \"#utility.yul\":6027:6030   */\n      dup3\n        /* \"#utility.yul\":5938:6031   */\n      tag_194\n      jump\t// in\n    tag_193:\n        /* \"#utility.yul\":6056:6058   */\n      0x40\n        /* \"#utility.yul\":6051:6054   */\n      dup3\n        /* \"#utility.yul\":6047:6059   */\n      add\n        /* \"#utility.yul\":6040:6059   */\n      swap1\n      pop\n        /* \"#utility.yul\":5699:6065   */\n      swap2\n      swap1\n      pop\n      jump\t// out\n        /* \"#utility.yul\":6071:6437   */\n    tag_195:\n        /* \"#utility.yul\":6213:6216   */\n      0x00\n        /* \"#utility.yul\":6234:6301   */\n      tag_197\n        /* \"#utility.yul\":6298:6300   */\n      0x1a\n        /* \"#utility.yul\":6293:6296   */\n      dup4\n        /* \"#utility.yul\":6234:6301   */\n      tag_160\n      jump\t// in\n    tag_197:\n        /* \"#utility.yul\":6227:6301   */\n      swap2\n      pop\n        /* \"#utility.yul\":6310:6403   */\n      tag_198\n        /* \"#utility.yul\":6399:6402   */\n      dup3\n        /* \"#utility.yul\":6310:6403   */\n      tag_199\n      jump\t// in\n    tag_198:\n        /* \"#utility.yul\":6428:6430   */\n      0x20\n        /* \"#utility.yul\":6423:6426   */\n      dup3\n        /* \"#utility.yul\":6419:6431   */\n      add\n        /* \"#utility.yul\":6412:6431   */\n      swap1\n      pop\n        /* \"#utility.yul\":6071:6437   */\n      swap2\n      swap1\n      pop\n      jump\t// out\n        /* \"#utility.yul\":6443:6809   */\n    tag_200:\n        /* \"#utility.yul\":6585:6588   */\n      0x00\n        /* \"#utility.yul\":6606:6673   */\n      tag_202\n        /* \"#utility.yul\":6670:6672   */\n      0x1f\n        /* \"#utility.yul\":6665:6668   */\n      dup4\n        /* \"#utility.yul\":6606:6673   */\n      tag_160\n      jump\t// in\n    tag_202:\n        /* \"#utility.yul\":6599:6673   */\n      swap2\n      pop\n        /* \"#utility.yul\":6682:6775   */\n      tag_203\n        /* \"#utility.yul\":6771:6774   */\n      dup3\n        /* \"#utility.yul\":6682:6775   */\n      tag_204\n      jump\t// in\n    tag_203:\n        /* \"#utility.yul\":6800:6802   */\n      0x20\n        /* \"#utility.yul\":6795:6798   */\n      dup3\n        /* \"#utility.yul\":6791:6803   */\n      add\n        /* \"#utility.yul\":6784:6803   */\n      swap1\n      pop\n        /* \"#utility.yul\":6443:6809   */\n      swap2\n      swap1\n      pop\n      jump\t// out\n        /* \"#utility.yul\":6815:7181   */\n    tag_205:\n        /* \"#utility.yul\":6957:6960   */\n      0x00\n        /* \"#utility.yul\":6978:7045   */\n      tag_207\n        /* \"#utility.yul\":7042:7044   */\n      0x28\n        /* \"#utility.yul\":7037:7040   */\n      dup4\n        /* \"#utility.yul\":6978:7045   */\n      tag_160\n      jump\t// in\n    tag_207:\n        /* \"#utility.yul\":6971:7045   */\n      swap2\n      pop\n        /* \"#utility.yul\":7054:7147   */\n      tag_208\n        /* \"#utility.yul\":7143:7146   */\n      dup3\n        /* \"#utility.yul\":7054:7147   */\n      tag_209\n      jump\t// in\n    tag_208:\n        /* \"#utility.yul\":7172:7174   */\n      0x40\n        /* \"#utility.yul\":7167:7170   */\n      dup3\n        /* \"#utility.yul\":7163:7175   */\n      add\n        /* \"#utility.yul\":7156:7175   */\n      swap1\n      pop\n        /* \"#utility.yul\":6815:7181   */\n      swap2\n      swap1\n      pop\n      jump\t// out\n        /* \"#utility.yul\":7187:7305   */\n    tag_210:\n        /* \"#utility.yul\":7274:7298   */\n      tag_212\n        /* \"#utility.yul\":7292:7297   */\n      dup2\n        /* \"#utility.yul\":7274:7298   */\n      tag_213\n      jump\t// in\n    tag_212:\n        /* \"#utility.yul\":7269:7272   */\n      dup3\n        /* \"#utility.yul\":7262:7299   */\n      mstore\n        /* \"#utility.yul\":7187:7305   */\n      pop\n      pop\n      jump\t// out\n        /* \"#utility.yul\":7311:8098   */\n    tag_12:\n        /* \"#utility.yul\":7552:7556   */\n      0x00\n        /* \"#utility.yul\":7590:7593   */\n      0xa0\n        /* \"#utility.yul\":7579:7588   */\n      dup3\n        /* \"#utility.yul\":7575:7594   */\n      add\n        /* \"#utility.yul\":7567:7594   */\n      swap1\n      pop\n        /* \"#utility.yul\":7604:7691   */\n      tag_215\n        /* \"#utility.yul\":7688:7689   */\n      0x00\n        /* \"#utility.yul\":7677:7686   */\n      dup4\n        /* \"#utility.yul\":7673:7690   */\n      add\n        /* \"#utility.yul\":7664:7670   */\n      dup9\n        /* \"#utility.yul\":7604:7691   */\n      tag_151\n      jump\t// in\n    tag_215:\n        /* \"#utility.yul\":7738:7747   */\n      dup2\n        /* \"#utility.yul\":7732:7736   */\n      dup2\n        /* \"#utility.yul\":7728:7748   */\n      sub\n        /* \"#utility.yul\":7723:7725   */\n      0x20\n        /* \"#utility.yul\":7712:7721   */\n      dup4\n        /* \"#utility.yul\":7708:7726   */\n      add\n        /* \"#utility.yul\":7701:7749   */\n      mstore\n        /* \"#utility.yul\":7766:7844   */\n      tag_216\n        /* \"#utility.yul\":7839:7843   */\n      dup2\n        /* \"#utility.yul\":7830:7836   */\n      dup8\n        /* \"#utility.yul\":7766:7844   */\n      tag_155\n      jump\t// in\n    tag_216:\n        /* \"#utility.yul\":7758:7844   */\n      swap1\n      pop\n        /* \"#utility.yul\":7854:7926   */\n      tag_217\n        /* \"#utility.yul\":7922:7924   */\n      0x40\n        /* \"#utility.yul\":7911:7920   */\n      dup4\n        /* \"#utility.yul\":7907:7925   */\n      add\n        /* \"#utility.yul\":7898:7904   */\n      dup7\n        /* \"#utility.yul\":7854:7926   */\n      tag_210\n      jump\t// in\n    tag_217:\n        /* \"#utility.yul\":7936:8008   */\n      tag_218\n        /* \"#utility.yul\":8004:8006   */\n      0x60\n        /* \"#utility.yul\":7993:8002   */\n      dup4\n        /* \"#utility.yul\":7989:8007   */\n      add\n        /* \"#utility.yul\":7980:7986   */\n      dup6\n        /* \"#utility.yul\":7936:8008   */\n      tag_210\n      jump\t// in\n    tag_218:\n        /* \"#utility.yul\":8018:8091   */\n      tag_219\n        /* \"#utility.yul\":8086:8089   */\n      0x80\n        /* \"#utility.yul\":8075:8084   */\n      dup4\n        /* \"#utility.yul\":8071:8090   */\n      add\n        /* \"#utility.yul\":8062:8068   */\n      dup5\n        /* \"#utility.yul\":8018:8091   */\n      tag_210\n      jump\t// in\n    tag_219:\n        /* \"#utility.yul\":7311:8098   */\n      swap7\n      swap6\n      pop\n      pop\n      pop\n      pop\n      pop\n      pop\n      jump\t// out\n        /* \"#utility.yul\":8104:8523   */\n    tag_84:\n        /* \"#utility.yul\":8270:8274   */\n      0x00\n        /* \"#utility.yul\":8308:8310   */\n      0x20\n        /* \"#utility.yul\":8297:8306   */\n      dup3\n        /* \"#utility.yul\":8293:8311   */\n      add\n        /* \"#utility.yul\":8285:8311   */\n      swap1\n      pop\n        /* \"#utility.yul\":8357:8366   */\n      dup2\n        /* \"#utility.yul\":8351:8355   */\n      dup2\n        /* \"#utility.yul\":8347:8367   */\n      sub\n        /* \"#utility.yul\":8343:8344   */\n      0x00\n        /* \"#utility.yul\":8332:8341   */\n      dup4\n        /* \"#utility.yul\":8328:8345   */\n      add\n        /* \"#utility.yul\":8321:8368   */\n      mstore\n        /* \"#utility.yul\":8385:8516   */\n      tag_221\n        /* \"#utility.yul\":8511:8515   */\n      dup2\n        /* \"#utility.yul\":8385:8516   */\n      tag_165\n      jump\t// in\n    tag_221:\n        /* \"#utility.yul\":8377:8516   */\n      swap1\n      pop\n        /* \"#utility.yul\":8104:8523   */\n      swap2\n      swap1\n      pop\n      jump\t// out\n        /* \"#utility.yul\":8529:8948   */\n    tag_80:\n        /* \"#utility.yul\":8695:8699   */\n      0x00\n        /* \"#utility.yul\":8733:8735   */\n      0x20\n        /* \"#utility.yul\":8722:8731   */\n      dup3\n        /* \"#utility.yul\":8718:8736   */\n      add\n        /* \"#utility.yul\":8710:8736   */\n      swap1\n      pop\n        /* \"#utility.yul\":8782:8791   */\n      dup2\n        /* \"#utility.yul\":8776:8780   */\n      dup2\n        /* \"#utility.yul\":8772:8792   */\n      sub\n        /* \"#utility.yul\":8768:8769   */\n      0x00\n        /* \"#utility.yul\":8757:8766   */\n      dup4\n        /* \"#utility.yul\":8753:8770   */\n      add\n        /* \"#utility.yul\":8746:8793   */\n      mstore\n        /* \"#utility.yul\":8810:8941   */\n      tag_223\n        /* \"#utility.yul\":8936:8940   */\n      dup2\n        /* \"#utility.yul\":8810:8941   */\n      tag_170\n      jump\t// in\n    tag_223:\n        /* \"#utility.yul\":8802:8941   */\n      swap1\n      pop\n        /* \"#utility.yul\":8529:8948   */\n      swap2\n      swap1\n      pop\n      jump\t// out\n        /* \"#utility.yul\":8954:9373   */\n    tag_77:\n        /* \"#utility.yul\":9120:9124   */\n      0x00\n        /* \"#utility.yul\":9158:9160   */\n      0x20\n        /* \"#utility.yul\":9147:9156   */\n      dup3\n        /* \"#utility.yul\":9143:9161   */\n      add\n        /* \"#utility.yul\":9135:9161   */\n      swap1\n      pop\n        /* \"#utility.yul\":9207:9216   */\n      dup2\n        /* \"#utility.yul\":9201:9205   */\n      dup2\n        /* \"#utility.yul\":9197:9217   */\n      sub\n        /* \"#utility.yul\":9193:9194   */\n      0x00\n        /* \"#utility.yul\":9182:9191   */\n      dup4\n        /* \"#utility.yul\":9178:9195   */\n      add\n        /* \"#utility.yul\":9171:9218   */\n      mstore\n        /* \"#utility.yul\":9235:9366   */\n      tag_225\n        /* \"#utility.yul\":9361:9365   */\n      dup2\n        /* \"#utility.yul\":9235:9366   */\n      tag_175\n      jump\t// in\n    tag_225:\n        /* \"#utility.yul\":9227:9366   */\n      swap1\n      pop\n        /* \"#utility.yul\":8954:9373   */\n      swap2\n      swap1\n      pop\n      jump\t// out\n        /* \"#utility.yul\":9379:9798   */\n    tag_39:\n        /* \"#utility.yul\":9545:9549   */\n      0x00\n        /* \"#utility.yul\":9583:9585   */\n      0x20\n        /* \"#utility.yul\":9572:9581   */\n      dup3\n        /* \"#utility.yul\":9568:9586   */\n      add\n        /* \"#utility.yul\":9560:9586   */\n      swap1\n      pop\n        /* \"#utility.yul\":9632:9641   */\n      dup2\n        /* \"#utility.yul\":9626:9630   */\n      dup2\n        /* \"#utility.yul\":9622:9642   */\n      sub\n        /* \"#utility.yul\":9618:9619   */\n      0x00\n        /* \"#utility.yul\":9607:9616   */\n      dup4\n        /* \"#utility.yul\":9603:9620   */\n      add\n        /* \"#utility.yul\":9596:9643   */\n      mstore\n        /* \"#utility.yul\":9660:9791   */\n      tag_227\n        /* \"#utility.yul\":9786:9790   */\n      dup2\n        /* \"#utility.yul\":9660:9791   */\n      tag_180\n      jump\t// in\n    tag_227:\n        /* \"#utility.yul\":9652:9791   */\n      swap1\n      pop\n        /* \"#utility.yul\":9379:9798   */\n      swap2\n      swap1\n      pop\n      jump\t// out\n        /* \"#utility.yul\":9804:10223   */\n    tag_73:\n        /* \"#utility.yul\":9970:9974   */\n      0x00\n        /* \"#utility.yul\":10008:10010   */\n      0x20\n        /* \"#utility.yul\":9997:10006   */\n      dup3\n        /* \"#utility.yul\":9993:10011   */\n      add\n        /* \"#utility.yul\":9985:10011   */\n      swap1\n      pop\n        /* \"#utility.yul\":10057:10066   */\n      dup2\n        /* \"#utility.yul\":10051:10055   */\n      dup2\n        /* \"#utility.yul\":10047:10067   */\n      sub\n        /* \"#utility.yul\":10043:10044   */\n      0x00\n        /* \"#utility.yul\":10032:10041   */\n      dup4\n        /* \"#utility.yul\":10028:10045   */\n      add\n        /* \"#utility.yul\":10021:10068   */\n      mstore\n        /* \"#utility.yul\":10085:10216   */\n      tag_229\n        /* \"#utility.yul\":10211:10215   */\n      dup2\n        /* \"#utility.yul\":10085:10216   */\n      tag_185\n      jump\t// in\n    tag_229:\n        /* \"#utility.yul\":10077:10216   */\n      swap1\n      pop\n        /* \"#utility.yul\":9804:10223   */\n      swap2\n      swap1\n      pop\n      jump\t// out\n        /* \"#utility.yul\":10229:10648   */\n    tag_63:\n        /* \"#utility.yul\":10395:10399   */\n      0x00\n        /* \"#utility.yul\":10433:10435   */\n      0x20\n        /* \"#utility.yul\":10422:10431   */\n      dup3\n        /* \"#utility.yul\":10418:10436   */\n      add\n        /* \"#utility.yul\":10410:10436   */\n      swap1\n      pop\n        /* \"#utility.yul\":10482:10491   */\n      dup2\n        /* \"#utility.yul\":10476:10480   */\n      dup2\n        /* \"#utility.yul\":10472:10492   */\n      sub\n        /* \"#utility.yul\":10468:10469   */\n      0x00\n        /* \"#utility.yul\":10457:10466   */\n      dup4\n        /* \"#utility.yul\":10453:10470   */\n      add\n        /* \"#utility.yul\":10446:10493   */\n      mstore\n        /* \"#utility.yul\":10510:10641   */\n      tag_231\n        /* \"#utility.yul\":10636:10640   */\n      dup2\n        /* \"#utility.yul\":10510:10641   */\n      tag_190\n      jump\t// in\n    tag_231:\n        /* \"#utility.yul\":10502:10641   */\n      swap1\n      pop\n        /* \"#utility.yul\":10229:10648   */\n      swap2\n      swap1\n      pop\n      jump\t// out\n        /* \"#utility.yul\":10654:11073   */\n    tag_49:\n        /* \"#utility.yul\":10820:10824   */\n      0x00\n        /* \"#utility.yul\":10858:10860   */\n      0x20\n        /* \"#utility.yul\":10847:10856   */\n      dup3\n        /* \"#utility.yul\":10843:10861   */\n      add\n        /* \"#utility.yul\":10835:10861   */\n      swap1\n      pop\n        /* \"#utility.yul\":10907:10916   */\n      dup2\n        /* \"#utility.yul\":10901:10905   */\n      dup2\n        /* \"#utility.yul\":10897:10917   */\n      sub\n        /* \"#utility.yul\":10893:10894   */\n      0x00\n        /* \"#utility.yul\":10882:10891   */\n      dup4\n        /* \"#utility.yul\":10878:10895   */\n      add\n        /* \"#utility.yul\":10871:10918   */\n      mstore\n        /* \"#utility.yul\":10935:11066   */\n      tag_233\n        /* \"#utility.yul\":11061:11065   */\n      dup2\n        /* \"#utility.yul\":10935:11066   */\n      tag_195\n      jump\t// in\n    tag_233:\n        /* \"#utility.yul\":10927:11066   */\n      swap1\n      pop\n        /* \"#utility.yul\":10654:11073   */\n      swap2\n      swap1\n      pop\n      jump\t// out\n        /* \"#utility.yul\":11079:11498   */\n    tag_46:\n        /* \"#utility.yul\":11245:11249   */\n      0x00\n        /* \"#utility.yul\":11283:11285   */\n      0x20\n        /* \"#utility.yul\":11272:11281   */\n      dup3\n        /* \"#utility.yul\":11268:11286   */\n      add\n        /* \"#utility.yul\":11260:11286   */\n      swap1\n      pop\n        /* \"#utility.yul\":11332:11341   */\n      dup2\n        /* \"#utility.yul\":11326:11330   */\n      dup2\n        /* \"#utility.yul\":11322:11342   */\n      sub\n        /* \"#utility.yul\":11318:11319   */\n      0x00\n        /* \"#utility.yul\":11307:11316   */\n      dup4\n        /* \"#utility.yul\":11303:11320   */\n      add\n        /* \"#utility.yul\":11296:11343   */\n      mstore\n        /* \"#utility.yul\":11360:11491   */\n      tag_235\n        /* \"#utility.yul\":11486:11490   */\n      dup2\n        /* \"#utility.yul\":11360:11491   */\n      tag_200\n      jump\t// in\n    tag_235:\n        /* \"#utility.yul\":11352:11491   */\n      swap1\n      pop\n        /* \"#utility.yul\":11079:11498   */\n      swap2\n      swap1\n      pop\n      jump\t// out\n        /* \"#utility.yul\":11504:11923   */\n    tag_55:\n        /* \"#utility.yul\":11670:11674   */\n      0x00\n        /* \"#utility.yul\":11708:11710   */\n      0x20\n        /* \"#utility.yul\":11697:11706   */\n      dup3\n        /* \"#utility.yul\":11693:11711   */\n      add\n        /* \"#utility.yul\":11685:11711   */\n      swap1\n      pop\n        /* \"#utility.yul\":11757:11766   */\n      dup2\n        /* \"#utility.yul\":11751:11755   */\n      dup2\n        /* \"#utility.yul\":11747:11767   */\n      sub\n        /* \"#utility.yul\":11743:11744   */\n      0x00\n        /* \"#utility.yul\":11732:11741   */\n      dup4\n        /* \"#utility.yul\":11728:11745   */\n      add\n        /* \"#utility.yul\":11721:11768   */\n      mstore\n        /* \"#utility.yul\":11785:11916   */\n      tag_237\n        /* \"#utility.yul\":11911:11915   */\n      dup2\n        /* \"#utility.yul\":11785:11916   */\n      tag_205\n      jump\t// in\n    tag_237:\n        /* \"#utility.yul\":11777:11916   */\n      swap1\n      pop\n        /* \"#utility.yul\":11504:11923   */\n      swap2\n      swap1\n      pop\n      jump\t// out\n        /* \"#utility.yul\":11929:12151   */\n    tag_23:\n        /* \"#utility.yul\":12022:12026   */\n      0x00\n        /* \"#utility.yul\":12060:12062   */\n      0x20\n        /* \"#utility.yul\":12049:12058   */\n      dup3\n        /* \"#utility.yul\":12045:12063   */\n      add\n        /* \"#utility.yul\":12037:12063   */\n      swap1\n      pop\n        /* \"#utility.yul\":12073:12144   */\n      tag_239\n        /* \"#utility.yul\":12141:12142   */\n      0x00\n        /* \"#utility.yul\":12130:12139   */\n      dup4\n        /* \"#utility.yul\":12126:12143   */\n      add\n        /* \"#utility.yul\":12117:12123   */\n      dup5\n        /* \"#utility.yul\":12073:12144   */\n      tag_210\n      jump\t// in\n    tag_239:\n        /* \"#utility.yul\":11929:12151   */\n      swap3\n      swap2\n      pop\n      pop\n      jump\t// out\n        /* \"#utility.yul\":12157:12286   */\n    tag_106:\n        /* \"#utility.yul\":12191:12197   */\n      0x00\n        /* \"#utility.yul\":12218:12238   */\n      tag_241\n      tag_242\n      jump\t// in\n    tag_241:\n        /* \"#utility.yul\":12208:12238   */\n      swap1\n      pop\n        /* \"#utility.yul\":12247:12280   */\n      tag_243\n        /* \"#utility.yul\":12275:12279   */\n      dup3\n        /* \"#utility.yul\":12267:12273   */\n      dup3\n        /* \"#utility.yul\":12247:12280   */\n      tag_244\n      jump\t// in\n    tag_243:\n        /* \"#utility.yul\":12157:12286   */\n      swap2\n      swap1\n      pop\n      jump\t// out\n        /* \"#utility.yul\":12292:12367   */\n    tag_242:\n        /* \"#utility.yul\":12325:12331   */\n      0x00\n        /* \"#utility.yul\":12358:12360   */\n      0x40\n        /* \"#utility.yul\":12352:12361   */\n      mload\n        /* \"#utility.yul\":12342:12361   */\n      swap1\n      pop\n        /* \"#utility.yul\":12292:12367   */\n      swap1\n      jump\t// out\n        /* \"#utility.yul\":12373:12681   */\n    tag_105:\n        /* \"#utility.yul\":12435:12439   */\n      0x00\n        /* \"#utility.yul\":12525:12543   */\n      0xffffffffffffffff\n        /* \"#utility.yul\":12517:12523   */\n      dup3\n        /* \"#utility.yul\":12514:12544   */\n      gt\n        /* \"#utility.yul\":12511:12567   */\n      iszero\n      tag_247\n      jumpi\n        /* \"#utility.yul\":12547:12565   */\n      tag_248\n      tag_249\n      jump\t// in\n    tag_248:\n        /* \"#utility.yul\":12511:12567   */\n    tag_247:\n        /* \"#utility.yul\":12585:12614   */\n      tag_250\n        /* \"#utility.yul\":12607:12613   */\n      dup3\n        /* \"#utility.yul\":12585:12614   */\n      tag_164\n      jump\t// in\n    tag_250:\n        /* \"#utility.yul\":12577:12614   */\n      swap1\n      pop\n        /* \"#utility.yul\":12669:12673   */\n      0x20\n        /* \"#utility.yul\":12663:12667   */\n      dup2\n        /* \"#utility.yul\":12659:12674   */\n      add\n        /* \"#utility.yul\":12651:12674   */\n      swap1\n      pop\n        /* \"#utility.yul\":12373:12681   */\n      swap2\n      swap1\n      pop\n      jump\t// out\n        /* \"#utility.yul\":12687:12786   */\n    tag_158:\n        /* \"#utility.yul\":12739:12745   */\n      0x00\n        /* \"#utility.yul\":12773:12778   */\n      dup2\n        /* \"#utility.yul\":12767:12779   */\n      mload\n        /* \"#utility.yul\":12757:12779   */\n      swap1\n      pop\n        /* \"#utility.yul\":12687:12786   */\n      swap2\n      swap1\n      pop\n      jump\t// out\n        /* \"#utility.yul\":12792:12961   */\n    tag_160:\n        /* \"#utility.yul\":12876:12887   */\n      0x00\n        /* \"#utility.yul\":12910:12916   */\n      dup3\n        /* \"#utility.yul\":12905:12908   */\n      dup3\n        /* \"#utility.yul\":12898:12917   */\n      mstore\n        /* \"#utility.yul\":12950:12954   */\n      0x20\n        /* \"#utility.yul\":12945:12948   */\n      dup3\n        /* \"#utility.yul\":12941:12955   */\n      add\n        /* \"#utility.yul\":12926:12955   */\n      swap1\n      pop\n        /* \"#utility.yul\":12792:12961   */\n      swap3\n      swap2\n      pop\n      pop\n      jump\t// out\n        /* \"#utility.yul\":12967:13315   */\n    tag_60:\n        /* \"#utility.yul\":13007:13014   */\n      0x00\n        /* \"#utility.yul\":13030:13050   */\n      tag_254\n        /* \"#utility.yul\":13048:13049   */\n      dup3\n        /* \"#utility.yul\":13030:13050   */\n      tag_213\n      jump\t// in\n    tag_254:\n        /* \"#utility.yul\":13025:13050   */\n      swap2\n      pop\n        /* \"#utility.yul\":13064:13084   */\n      tag_255\n        /* \"#utility.yul\":13082:13083   */\n      dup4\n        /* \"#utility.yul\":13064:13084   */\n      tag_213\n      jump\t// in\n    tag_255:\n        /* \"#utility.yul\":13059:13084   */\n      swap3\n      pop\n        /* \"#utility.yul\":13252:13253   */\n      dup2\n        /* \"#utility.yul\":13184:13250   */\n      0xffffffffffffffffffffffffffffffffffffffffffffffffffffffffffffffff\n        /* \"#utility.yul\":13180:13254   */\n      div\n        /* \"#utility.yul\":13177:13178   */\n      dup4\n        /* \"#utility.yul\":13174:13255   */\n      gt\n        /* \"#utility.yul\":13169:13170   */\n      dup3\n        /* \"#utility.yul\":13162:13171   */\n      iszero\n        /* \"#utility.yul\":13155:13172   */\n      iszero\n        /* \"#utility.yul\":13151:13256   */\n      and\n        /* \"#utility.yul\":13148:13279   */\n      iszero\n      tag_256\n      jumpi\n        /* \"#utility.yul\":13259:13277   */\n      tag_257\n      tag_258\n      jump\t// in\n    tag_257:\n        /* \"#utility.yul\":13148:13279   */\n    tag_256:\n        /* \"#utility.yul\":13307:13308   */\n      dup3\n        /* \"#utility.yul\":13304:13305   */\n      dup3\n        /* \"#utility.yul\":13300:13309   */\n      mul\n        /* \"#utility.yul\":13289:13309   */\n      swap1\n      pop\n        /* \"#utility.yul\":12967:13315   */\n      swap3\n      swap2\n      pop\n      pop\n      jump\t// out\n        /* \"#utility.yul\":13321:13417   */\n    tag_259:\n        /* \"#utility.yul\":13358:13365   */\n      0x00\n        /* \"#utility.yul\":13387:13411   */\n      tag_261\n        /* \"#utility.yul\":13405:13410   */\n      dup3\n        /* \"#utility.yul\":13387:13411   */\n      tag_262\n      jump\t// in\n    tag_261:\n        /* \"#utility.yul\":13376:13411   */\n      swap1\n      pop\n        /* \"#utility.yul\":13321:13417   */\n      swap2\n      swap1\n      pop\n      jump\t// out\n        /* \"#utility.yul\":13423:13527   */\n    tag_154:\n        /* \"#utility.yul\":13468:13475   */\n      0x00\n        /* \"#utility.yul\":13497:13521   */\n      tag_264\n        /* \"#utility.yul\":13515:13520   */\n      dup3\n        /* \"#utility.yul\":13497:13521   */\n      tag_262\n      jump\t// in\n    tag_264:\n        /* \"#utility.yul\":13486:13521   */\n      swap1\n      pop\n        /* \"#utility.yul\":13423:13527   */\n      swap2\n      swap1\n      pop\n      jump\t// out\n        /* \"#utility.yul\":13533:13659   */\n    tag_262:\n        /* \"#utility.yul\":13570:13577   */\n      0x00\n        /* \"#utility.yul\":13610:13652   */\n      0xffffffffffffffffffffffffffffffffffffffff\n        /* \"#utility.yul\":13603:13608   */\n      dup3\n        /* \"#utility.yul\":13599:13653   */\n      and\n        /* \"#utility.yul\":13588:13653   */\n      swap1\n      pop\n        /* \"#utility.yul\":13533:13659   */\n      swap2\n      swap1\n      pop\n      jump\t// out\n        /* \"#utility.yul\":13665:13742   */\n    tag_213:\n        /* \"#utility.yul\":13702:13709   */\n      0x00\n        /* \"#utility.yul\":13731:13736   */\n      dup2\n        /* \"#utility.yul\":13720:13736   */\n      swap1\n      pop\n        /* \"#utility.yul\":13665:13742   */\n      swap2\n      swap1\n      pop\n      jump\t// out\n        /* \"#utility.yul\":13748:13902   */\n    tag_111:\n        /* \"#utility.yul\":13832:13838   */\n      dup3\n        /* \"#utility.yul\":13827:13830   */\n      dup2\n        /* \"#utility.yul\":13822:13825   */\n      dup4\n        /* \"#utility.yul\":13809:13839   */\n      calldatacopy\n        /* \"#utility.yul\":13894:13895   */\n      0x00\n        /* \"#utility.yul\":13885:13891   */\n      dup4\n        /* \"#utility.yul\":13880:13883   */\n      dup4\n        /* \"#utility.yul\":13876:13892   */\n      add\n        /* \"#utility.yul\":13869:13896   */\n      mstore\n        /* \"#utility.yul\":13748:13902   */\n      pop\n      pop\n      pop\n      jump\t// out\n        /* \"#utility.yul\":13908:14215   */\n    tag_162:\n        /* \"#utility.yul\":13976:13977   */\n      0x00\n        /* \"#utility.yul\":13986:14099   */\n    tag_269:\n        /* \"#utility.yul\":14000:14006   */\n      dup4\n        /* \"#utility.yul\":13997:13998   */\n      dup2\n        /* \"#utility.yul\":13994:14007   */\n      lt\n        /* \"#utility.yul\":13986:14099   */\n      iszero\n      tag_271\n      jumpi\n        /* \"#utility.yul\":14085:14086   */\n      dup1\n        /* \"#utility.yul\":14080:14083   */\n      dup3\n        /* \"#utility.yul\":14076:14087   */\n      add\n        /* \"#utility.yul\":14070:14088   */\n      mload\n        /* \"#utility.yul\":14066:14067   */\n      dup2\n        /* \"#utility.yul\":14061:14064   */\n      dup5\n        /* \"#utility.yul\":14057:14068   */\n      add\n        /* \"#utility.yul\":14050:14089   */\n      mstore\n        /* \"#utility.yul\":14022:14024   */\n      0x20\n        /* \"#utility.yul\":14019:14020   */\n      dup2\n        /* \"#utility.yul\":14015:14025   */\n      add\n        /* \"#utility.yul\":14010:14025   */\n      swap1\n      pop\n        /* \"#utility.yul\":13986:14099   */\n      jump(tag_269)\n    tag_271:\n        /* \"#utility.yul\":14117:14123   */\n      dup4\n        /* \"#utility.yul\":14114:14115   */\n      dup2\n        /* \"#utility.yul\":14111:14124   */\n      gt\n        /* \"#utility.yul\":14108:14209   */\n      iszero\n      tag_272\n      jumpi\n        /* \"#utility.yul\":14197:14198   */\n      0x00\n        /* \"#utility.yul\":14188:14194   */\n      dup5\n        /* \"#utility.yul\":14183:14186   */\n      dup5\n        /* \"#utility.yul\":14179:14195   */\n      add\n        /* \"#utility.yul\":14172:14199   */\n      mstore\n        /* \"#utility.yul\":14108:14209   */\n    tag_272:\n        /* \"#utility.yul\":13957:14215   */\n      pop\n        /* \"#utility.yul\":13908:14215   */\n      pop\n      pop\n      pop\n      jump\t// out\n        /* \"#utility.yul\":14221:14541   */\n    tag_31:\n        /* \"#utility.yul\":14265:14271   */\n      0x00\n        /* \"#utility.yul\":14302:14303   */\n      0x02\n        /* \"#utility.yul\":14296:14300   */\n      dup3\n        /* \"#utility.yul\":14292:14304   */\n      div\n        /* \"#utility.yul\":14282:14304   */\n      swap1\n      pop\n        /* \"#utility.yul\":14349:14350   */\n      0x01\n        /* \"#utility.yul\":14343:14347   */\n      dup3\n        /* \"#utility.yul\":14339:14351   */\n      and\n        /* \"#utility.yul\":14370:14388   */\n      dup1\n        /* \"#utility.yul\":14360:14441   */\n      tag_274\n      jumpi\n        /* \"#utility.yul\":14426:14430   */\n      0x7f\n        /* \"#utility.yul\":14418:14424   */\n      dup3\n        /* \"#utility.yul\":14414:14431   */\n      and\n        /* \"#utility.yul\":14404:14431   */\n      swap2\n      pop\n        /* \"#utility.yul\":14360:14441   */\n    tag_274:\n        /* \"#utility.yul\":14488:14490   */\n      0x20\n        /* \"#utility.yul\":14480:14486   */\n      dup3\n        /* \"#utility.yul\":14477:14491   */\n      lt\n        /* \"#utility.yul\":14457:14475   */\n      dup2\n        /* \"#utility.yul\":14454:14492   */\n      eq\n        /* \"#utility.yul\":14451:14535   */\n      iszero\n      tag_275\n      jumpi\n        /* \"#utility.yul\":14507:14525   */\n      tag_276\n      tag_277\n      jump\t// in\n    tag_276:\n        /* \"#utility.yul\":14451:14535   */\n    tag_275:\n        /* \"#utility.yul\":14272:14541   */\n      pop\n        /* \"#utility.yul\":14221:14541   */\n      swap2\n      swap1\n      pop\n      jump\t// out\n        /* \"#utility.yul\":14547:14828   */\n    tag_244:\n        /* \"#utility.yul\":14630:14657   */\n      tag_279\n        /* \"#utility.yul\":14652:14656   */\n      dup3\n        /* \"#utility.yul\":14630:14657   */\n      tag_164\n      jump\t// in\n    tag_279:\n        /* \"#utility.yul\":14622:14628   */\n      dup2\n        /* \"#utility.yul\":14618:14658   */\n      add\n        /* \"#utility.yul\":14760:14766   */\n      dup2\n        /* \"#utility.yul\":14748:14758   */\n      dup2\n        /* \"#utility.yul\":14745:14767   */\n      lt\n        /* \"#utility.yul\":14724:14742   */\n      0xffffffffffffffff\n        /* \"#utility.yul\":14712:14722   */\n      dup3\n        /* \"#utility.yul\":14709:14743   */\n      gt\n        /* \"#utility.yul\":14706:14768   */\n      or\n        /* \"#utility.yul\":14703:14791   */\n      iszero\n      tag_280\n      jumpi\n        /* \"#utility.yul\":14771:14789   */\n      tag_281\n      tag_249\n      jump\t// in\n    tag_281:\n        /* \"#utility.yul\":14703:14791   */\n    tag_280:\n        /* \"#utility.yul\":14811:14821   */\n      dup1\n        /* \"#utility.yul\":14807:14809   */\n      0x40\n        /* \"#utility.yul\":14800:14822   */\n      mstore\n        /* \"#utility.yul\":14590:14828   */\n      pop\n        /* \"#utility.yul\":14547:14828   */\n      pop\n      pop\n      jump\t// out\n        /* \"#utility.yul\":14834:15014   */\n    tag_258:\n        /* \"#utility.yul\":14882:14959   */\n      0x4e487b7100000000000000000000000000000000000000000000000000000000\n        /* \"#utility.yul\":14879:14880   */\n      0x00\n        /* \"#utility.yul\":14872:14960   */\n      mstore\n        /* \"#utility.yul\":14979:14983   */\n      0x11\n        /* \"#utility.yul\":14976:14977   */\n      0x04\n        /* \"#utility.yul\":14969:14984   */\n      mstore\n        /* \"#utility.yul\":15003:15007   */\n      0x24\n        /* \"#utility.yul\":15000:15001   */\n      0x00\n        /* \"#utility.yul\":14993:15008   */\n      revert\n        /* \"#utility.yul\":15020:15200   */\n    tag_277:\n        /* \"#utility.yul\":15068:15145   */\n      0x4e487b7100000000000000000000000000000000000000000000000000000000\n        /* \"#utility.yul\":15065:15066   */\n      0x00\n        /* \"#utility.yul\":15058:15146   */\n      mstore\n        /* \"#utility.yul\":15165:15169   */\n      0x22\n        /* \"#utility.yul\":15162:15163   */\n      0x04\n        /* \"#utility.yul\":15155:15170   */\n      mstore\n        /* \"#utility.yul\":15189:15193   */\n      0x24\n        /* \"#utility.yul\":15186:15187   */\n      0x00\n        /* \"#utility.yul\":15179:15194   */\n      revert\n        /* \"#utility.yul\":15206:15386   */\n    tag_42:\n        /* \"#utility.yul\":15254:15331   */\n      0x4e487b7100000000000000000000000000000000000000000000000000000000\n        /* \"#utility.yul\":15251:15252   */\n      0x00\n        /* \"#utility.yul\":15244:15332   */\n      mstore\n        /* \"#utility.yul\":15351:15355   */\n      0x32\n        /* \"#utility.yul\":15348:15349   */\n      0x04\n        /* \"#utility.yul\":15341:15356   */\n      mstore\n        /* \"#utility.yul\":15375:15379   */\n      0x24\n        /* \"#utility.yul\":15372:15373   */\n      0x00\n        /* \"#utility.yul\":15365:15380   */\n      revert\n        /* \"#utility.yul\":15392:15572   */\n    tag_249:\n        /* \"#utility.yul\":15440:15517   */\n      0x4e487b7100000000000000000000000000000000000000000000000000000000\n        /* \"#utility.yul\":15437:15438   */\n      0x00\n        /* \"#utility.yul\":15430:15518   */\n      mstore\n        /* \"#utility.yul\":15537:15541   */\n      0x41\n        /* \"#utility.yul\":15534:15535   */\n      0x04\n        /* \"#utility.yul\":15527:15542   */\n      mstore\n        /* \"#utility.yul\":15561:15565   */\n      0x24\n        /* \"#utility.yul\":15558:15559   */\n      0x00\n        /* \"#utility.yul\":15551:15566   */\n      revert\n        /* \"#utility.yul\":15578:15695   */\n    tag_120:\n        /* \"#utility.yul\":15687:15688   */\n      0x00\n        /* \"#utility.yul\":15684:15685   */\n      dup1\n        /* \"#utility.yul\":15677:15689   */\n      revert\n        /* \"#utility.yul\":15701:15818   */\n    tag_109:\n        /* \"#utility.yul\":15810:15811   */\n      0x00\n        /* \"#utility.yul\":15807:15808   */\n      dup1\n        /* \"#utility.yul\":15800:15812   */\n      revert\n        /* \"#utility.yul\":15824:15941   */\n    tag_137:\n        /* \"#utility.yul\":15933:15934   */\n      0x00\n        /* \"#utility.yul\":15930:15931   */\n      dup1\n        /* \"#utility.yul\":15923:15935   */\n      revert\n        /* \"#utility.yul\":15947:16064   */\n    tag_129:\n        /* \"#utility.yul\":16056:16057   */\n      0x00\n        /* \"#utility.yul\":16053:16054   */\n      dup1\n        /* \"#utility.yul\":16046:16058   */\n      revert\n        /* \"#utility.yul\":16070:16172   */\n    tag_164:\n        /* \"#utility.yul\":16111:16117   */\n      0x00\n        /* \"#utility.yul\":16162:16164   */\n      0x1f\n        /* \"#utility.yul\":16158:16165   */\n      not\n        /* \"#utility.yul\":16153:16155   */\n      0x1f\n        /* \"#utility.yul\":16146:16151   */\n      dup4\n        /* \"#utility.yul\":16142:16156   */\n      add\n        /* \"#utility.yul\":16138:16166   */\n      and\n        /* \"#utility.yul\":16128:16166   */\n      swap1\n      pop\n        /* \"#utility.yul\":16070:16172   */\n      swap2\n      swap1\n      pop\n      jump\t// out\n        /* \"#utility.yul\":16178:16417   */\n    tag_169:\n        /* \"#utility.yul\":16318:16352   */\n      0x506c65617365207061792073756666696369656e742066756e6420666f72206f\n        /* \"#utility.yul\":16314:16315   */\n      0x00\n        /* \"#utility.yul\":16306:16312   */\n      dup3\n        /* \"#utility.yul\":16302:16316   */\n      add\n        /* \"#utility.yul\":16295:16353   */\n      mstore\n        /* \"#utility.yul\":16387:16409   */\n      0x7267616e697a696e6720796f7572206576656e74000000000000000000000000\n        /* \"#utility.yul\":16382:16384   */\n      0x20\n        /* \"#utility.yul\":16374:16380   */\n      dup3\n        /* \"#utility.yul\":16370:16385   */\n      add\n        /* \"#utility.yul\":16363:16410   */\n      mstore\n        /* \"#utility.yul\":16178:16417   */\n      pop\n      jump\t// out\n        /* \"#utility.yul\":16423:16599   */\n    tag_174:\n        /* \"#utility.yul\":16563:16591   */\n      0x506c656173652063726561746520736f6d65207469636b657473000000000000\n        /* \"#utility.yul\":16559:16560   */\n      0x00\n        /* \"#utility.yul\":16551:16557   */\n      dup3\n        /* \"#utility.yul\":16547:16561   */\n      add\n        /* \"#utility.yul\":16540:16592   */\n      mstore\n        /* \"#utility.yul\":16423:16599   */\n      pop\n      jump\t// out\n        /* \"#utility.yul\":16605:16827   */\n    tag_179:\n        /* \"#utility.yul\":16745:16779   */\n      0x506c6561736520656e74657220612076616c6964206461746520696e20667574\n        /* \"#utility.yul\":16741:16742   */\n      0x00\n        /* \"#utility.yul\":16733:16739   */\n      dup3\n        /* \"#utility.yul\":16729:16743   */\n      add\n        /* \"#utility.yul\":16722:16780   */\n      mstore\n        /* \"#utility.yul\":16814:16819   */\n      0x7572650000000000000000000000000000000000000000000000000000000000\n        /* \"#utility.yul\":16809:16811   */\n      0x20\n        /* \"#utility.yul\":16801:16807   */\n      dup3\n        /* \"#utility.yul\":16797:16812   */\n      add\n        /* \"#utility.yul\":16790:16820   */\n      mstore\n        /* \"#utility.yul\":16605:16827   */\n      pop\n      jump\t// out\n        /* \"#utility.yul\":16833:17007   */\n    tag_184:\n        /* \"#utility.yul\":16973:16999   */\n      0x4e6f206576656e7473206f6e207468697320696e6465782e0000000000000000\n        /* \"#utility.yul\":16969:16970   */\n      0x00\n        /* \"#utility.yul\":16961:16967   */\n      dup3\n        /* \"#utility.yul\":16957:16971   */\n      add\n        /* \"#utility.yul\":16950:17000   */\n      mstore\n        /* \"#utility.yul\":16833:17007   */\n      pop\n      jump\t// out\n        /* \"#utility.yul\":17013:17250   */\n    tag_189:\n        /* \"#utility.yul\":17153:17187   */\n      0x456e74657220612076616c69642061646472657373206f72206f776e65722063\n        /* \"#utility.yul\":17149:17150   */\n      0x00\n        /* \"#utility.yul\":17141:17147   */\n      dup3\n        /* \"#utility.yul\":17137:17151   */\n      add\n        /* \"#utility.yul\":17130:17188   */\n      mstore\n        /* \"#utility.yul\":17222:17242   */\n      0x616e277420686f737420616e206576656e740000000000000000000000000000\n        /* \"#utility.yul\":17217:17219   */\n      0x20\n        /* \"#utility.yul\":17209:17215   */\n      dup3\n        /* \"#utility.yul\":17205:17220   */\n      add\n        /* \"#utility.yul\":17198:17243   */\n      mstore\n        /* \"#utility.yul\":17013:17250   */\n      pop\n      jump\t// out\n        /* \"#utility.yul\":17256:17479   */\n    tag_194:\n        /* \"#utility.yul\":17396:17430   */\n      0x5472616e736163742073756666696369656e742066756e6420666f7220746963\n        /* \"#utility.yul\":17392:17393   */\n      0x00\n        /* \"#utility.yul\":17384:17390   */\n      dup3\n        /* \"#utility.yul\":17380:17394   */\n      add\n        /* \"#utility.yul\":17373:17431   */\n      mstore\n        /* \"#utility.yul\":17465:17471   */\n      0x6b65747300000000000000000000000000000000000000000000000000000000\n        /* \"#utility.yul\":17460:17462   */\n      0x20\n        /* \"#utility.yul\":17452:17458   */\n      dup3\n        /* \"#utility.yul\":17448:17463   */\n      add\n        /* \"#utility.yul\":17441:17472   */\n      mstore\n        /* \"#utility.yul\":17256:17479   */\n      pop\n      jump\t// out\n        /* \"#utility.yul\":17485:17661   */\n    tag_199:\n        /* \"#utility.yul\":17625:17653   */\n      0x506c656173652073656c65637420736f6d65207469636b657473000000000000\n        /* \"#utility.yul\":17621:17622   */\n      0x00\n        /* \"#utility.yul\":17613:17619   */\n      dup3\n        /* \"#utility.yul\":17609:17623   */\n      add\n        /* \"#utility.yul\":17602:17654   */\n      mstore\n        /* \"#utility.yul\":17485:17661   */\n      pop\n      jump\t// out\n        /* \"#utility.yul\":17667:17848   */\n    tag_204:\n        /* \"#utility.yul\":17807:17840   */\n      0x536f72727920746869732073686f7720616c72656164792066696e7368656400\n        /* \"#utility.yul\":17803:17804   */\n      0x00\n        /* \"#utility.yul\":17795:17801   */\n      dup3\n        /* \"#utility.yul\":17791:17805   */\n      add\n        /* \"#utility.yul\":17784:17841   */\n      mstore\n        /* \"#utility.yul\":17667:17848   */\n      pop\n      jump\t// out\n        /* \"#utility.yul\":17854:18081   */\n    tag_209:\n        /* \"#utility.yul\":17994:18028   */\n      0x536f727279206e6f206d6f7265207469636b6574206c65667420666f72207468\n        /* \"#utility.yul\":17990:17991   */\n      0x00\n        /* \"#utility.yul\":17982:17988   */\n      dup3\n        /* \"#utility.yul\":17978:17992   */\n      add\n        /* \"#utility.yul\":17971:18029   */\n      mstore\n        /* \"#utility.yul\":18063:18073   */\n      0x6973206576656e74000000000000000000000000000000000000000000000000\n        /* \"#utility.yul\":18058:18060   */\n      0x20\n        /* \"#utility.yul\":18050:18056   */\n      dup3\n        /* \"#utility.yul\":18046:18061   */\n      add\n        /* \"#utility.yul\":18039:18074   */\n      mstore\n        /* \"#utility.yul\":17854:18081   */\n      pop\n      jump\t// out\n        /* \"#utility.yul\":18087:18209   */\n    tag_115:\n        /* \"#utility.yul\":18160:18184   */\n      tag_301\n        /* \"#utility.yul\":18178:18183   */\n      dup2\n        /* \"#utility.yul\":18160:18184   */\n      tag_259\n      jump\t// in\n    tag_301:\n        /* \"#utility.yul\":18153:18158   */\n      dup2\n        /* \"#utility.yul\":18150:18185   */\n      eq\n        /* \"#utility.yul\":18140:18203   */\n      tag_302\n      jumpi\n        /* \"#utility.yul\":18199:18200   */\n      0x00\n        /* \"#utility.yul\":18196:18197   */\n      dup1\n        /* \"#utility.yul\":18189:18201   */\n      revert\n        /* \"#utility.yul\":18140:18203   */\n    tag_302:\n        /* \"#utility.yul\":18087:18209   */\n      pop\n      jump\t// out\n        /* \"#utility.yul\":18215:18337   */\n    tag_125:\n        /* \"#utility.yul\":18288:18312   */\n      tag_304\n        /* \"#utility.yul\":18306:18311   */\n      dup2\n        /* \"#utility.yul\":18288:18312   */\n      tag_213\n      jump\t// in\n    tag_304:\n        /* \"#utility.yul\":18281:18286   */\n      dup2\n        /* \"#utility.yul\":18278:18313   */\n      eq\n        /* \"#utility.yul\":18268:18331   */\n      tag_305\n      jumpi\n        /* \"#utility.yul\":18327:18328   */\n      0x00\n        /* \"#utility.yul\":18324:18325   */\n      dup1\n        /* \"#utility.yul\":18317:18329   */\n      revert\n        /* \"#utility.yul\":18268:18331   */\n    tag_305:\n        /* \"#utility.yul\":18215:18337   */\n      pop\n      jump\t// out\n\n    auxdata: 0xa26469706673582212202748cda06d4eeb94999b4bbac447544496a1a184f200c0844f14b678016e4ef964736f6c63430008070033\n}\n",
				"bytecode": {
					"linkReferences": {},
					"object": "608060405234801561001057600080fd5b50336000806101000a81548173ffffffffffffffffffffffffffffffffffffffff021916908373ffffffffffffffffffffffffffffffffffffffff16021790555061128b806100606000396000f3fe60806040526004361061003f5760003560e01c80630b79143014610044578063c71e7edc14610085578063dae7a13c146100a1578063ee3bf803146100de575b600080fd5b34801561005057600080fd5b5061006b600480360381019061006691906109c4565b6100fa565b60405161007c959493929190610bc3565b60405180910390f35b61009f600480360381019061009a91906109f1565b6101e8565b005b3480156100ad57600080fd5b506100c860048036038101906100c39190610901565b610499565b6040516100d59190610d3d565b60405180910390f35b6100f860048036038101906100f39190610941565b6104be565b005b6001818154811061010a57600080fd5b90600052602060002090600502016000915090508060000160009054906101000a900473ffffffffffffffffffffffffffffffffffffffff169080600101805461015390610eb4565b80601f016020809104026020016040519081016040528092919081815260200182805461017f90610eb4565b80156101cc5780601f106101a1576101008083540402835291602001916101cc565b820191906000526020600020905b8154815290600101906020018083116101af57829003601f168201915b5050505050908060020154908060030154908060040154905085565b600180549050821061022f576040517f08c379a000000000000000000000000000000000000000000000000000000000815260040161022690610c7d565b60405180910390fd5b426001838154811061024457610243610f75565b5b90600052602060002090600502016002015411610296576040517f08c379a000000000000000000000000000000000000000000000000000000000815260040161028d90610cfd565b60405180910390fd5b60008114156102da576040517f08c379a00000000000000000000000000000000000000000000000000000000081526004016102d190610cdd565b60405180910390fd5b600182815481106102ee576102ed610f75565b5b906000526020600020906005020160040154811115610342576040517f08c379a000000000000000000000000000000000000000000000000000000000815260040161033990610d1d565b60405180910390fd5b806001838154811061035757610356610f75565b5b9060005260206000209060050201600301546103739190610dca565b34146103b4576040517f08c379a00000000000000000000000000000000000000000000000000000000081526004016103ab90610cbd565b60405180910390fd5b80600260003373ffffffffffffffffffffffffffffffffffffffff1673ffffffffffffffffffffffffffffffffffffffff1681526020019081526020016000206000848152602001908152602001600020819055506001828154811061041d5761041c610f75565b5b906000526020600020906005020160000160009054906101000a900473ffffffffffffffffffffffffffffffffffffffff1673ffffffffffffffffffffffffffffffffffffffff166108fc349081150290604051600060405180830381858888f19350505050158015610494573d6000803e3d6000fd5b505050565b6002602052816000526040600020602052806000526040600020600091509150505481565b60008054906101000a900473ffffffffffffffffffffffffffffffffffffffff1673ffffffffffffffffffffffffffffffffffffffff163373ffffffffffffffffffffffffffffffffffffffff16141580156105475750600073ffffffffffffffffffffffffffffffffffffffff163373ffffffffffffffffffffffffffffffffffffffff1614155b610586576040517f08c379a000000000000000000000000000000000000000000000000000000000815260040161057d90610c9d565b60405180910390fd5b6000831415801561059657504283115b6105d5576040517f08c379a00000000000000000000000000000000000000000000000000000000081526004016105cc90610c5d565b60405180910390fd5b60008111610618576040517f08c379a000000000000000000000000000000000000000000000000000000000815260040161060f90610c3d565b60405180910390fd5b60008214610665576103e83414610664576040517f08c379a000000000000000000000000000000000000000000000000000000000815260040161065b90610c1d565b60405180910390fd5b5b60006040518060a001604052803373ffffffffffffffffffffffffffffffffffffffff168152602001868152602001858152602001848152602001838152509050600181908060018154018082558091505060019003906000526020600020906005020160009091909190915060008201518160000160006101000a81548173ffffffffffffffffffffffffffffffffffffffff021916908373ffffffffffffffffffffffffffffffffffffffff16021790555060208201518160010190805190602001906107359291906107c4565b50604082015181600201556060820151816003015560808201518160040155505060008054906101000a900473ffffffffffffffffffffffffffffffffffffffff1673ffffffffffffffffffffffffffffffffffffffff166108fc349081150290604051600060405180830381858888f193505050501580156107bc573d6000803e3d6000fd5b505050505050565b8280546107d090610eb4565b90600052602060002090601f0160209004810192826107f25760008555610839565b82601f1061080b57805160ff1916838001178555610839565b82800160010185558215610839579182015b8281111561083857825182559160200191906001019061081d565b5b509050610846919061084a565b5090565b5b8082111561086357600081600090555060010161084b565b5090565b600061087a61087584610d7d565b610d58565b90508281526020810184848401111561089657610895610fd8565b5b6108a1848285610e72565b509392505050565b6000813590506108b881611227565b92915050565b600082601f8301126108d3576108d2610fd3565b5b81356108e3848260208601610867565b91505092915050565b6000813590506108fb8161123e565b92915050565b6000806040838503121561091857610917610fe2565b5b6000610926858286016108a9565b9250506020610937858286016108ec565b9150509250929050565b6000806000806080858703121561095b5761095a610fe2565b5b600085013567ffffffffffffffff81111561097957610978610fdd565b5b610985878288016108be565b9450506020610996878288016108ec565b93505060406109a7878288016108ec565b92505060606109b8878288016108ec565b91505092959194509250565b6000602082840312156109da576109d9610fe2565b5b60006109e8848285016108ec565b91505092915050565b60008060408385031215610a0857610a07610fe2565b5b6000610a16858286016108ec565b9250506020610a27858286016108ec565b9150509250929050565b610a3a81610e36565b82525050565b6000610a4b82610dae565b610a558185610db9565b9350610a65818560208601610e81565b610a6e81610fe7565b840191505092915050565b6000610a86603483610db9565b9150610a9182610ff8565b604082019050919050565b6000610aa9601a83610db9565b9150610ab482611047565b602082019050919050565b6000610acc602383610db9565b9150610ad782611070565b604082019050919050565b6000610aef601883610db9565b9150610afa826110bf565b602082019050919050565b6000610b12603283610db9565b9150610b1d826110e8565b604082019050919050565b6000610b35602483610db9565b9150610b4082611137565b604082019050919050565b6000610b58601a83610db9565b9150610b6382611186565b602082019050919050565b6000610b7b601f83610db9565b9150610b86826111af565b602082019050919050565b6000610b9e602883610db9565b9150610ba9826111d8565b604082019050919050565b610bbd81610e68565b82525050565b600060a082019050610bd86000830188610a31565b8181036020830152610bea8187610a40565b9050610bf96040830186610bb4565b610c066060830185610bb4565b610c136080830184610bb4565b9695505050505050565b60006020820190508181036000830152610c3681610a79565b9050919050565b60006020820190508181036000830152610c5681610a9c565b9050919050565b60006020820190508181036000830152610c7681610abf565b9050919050565b60006020820190508181036000830152610c9681610ae2565b9050919050565b60006020820190508181036000830152610cb681610b05565b9050919050565b60006020820190508181036000830152610cd681610b28565b9050919050565b60006020820190508181036000830152610cf681610b4b565b9050919050565b60006020820190508181036000830152610d1681610b6e565b9050919050565b60006020820190508181036000830152610d3681610b91565b9050919050565b6000602082019050610d526000830184610bb4565b92915050565b6000610d62610d73565b9050610d6e8282610ee6565b919050565b6000604051905090565b600067ffffffffffffffff821115610d9857610d97610fa4565b5b610da182610fe7565b9050602081019050919050565b600081519050919050565b600082825260208201905092915050565b6000610dd582610e68565b9150610de083610e68565b9250817fffffffffffffffffffffffffffffffffffffffffffffffffffffffffffffffff0483118215151615610e1957610e18610f17565b5b828202905092915050565b6000610e2f82610e48565b9050919050565b6000610e4182610e48565b9050919050565b600073ffffffffffffffffffffffffffffffffffffffff82169050919050565b6000819050919050565b82818337600083830152505050565b60005b83811015610e9f578082015181840152602081019050610e84565b83811115610eae576000848401525b50505050565b60006002820490506001821680610ecc57607f821691505b60208210811415610ee057610edf610f46565b5b50919050565b610eef82610fe7565b810181811067ffffffffffffffff82111715610f0e57610f0d610fa4565b5b80604052505050565b7f4e487b7100000000000000000000000000000000000000000000000000000000600052601160045260246000fd5b7f4e487b7100000000000000000000000000000000000000000000000000000000600052602260045260246000fd5b7f4e487b7100000000000000000000000000000000000000000000000000000000600052603260045260246000fd5b7f4e487b7100000000000000000000000000000000000000000000000000000000600052604160045260246000fd5b600080fd5b600080fd5b600080fd5b600080fd5b6000601f19601f8301169050919050565b7f506c65617365207061792073756666696369656e742066756e6420666f72206f60008201527f7267616e697a696e6720796f7572206576656e74000000000000000000000000602082015250565b7f506c656173652063726561746520736f6d65207469636b657473000000000000600082015250565b7f506c6561736520656e74657220612076616c6964206461746520696e2066757460008201527f7572650000000000000000000000000000000000000000000000000000000000602082015250565b7f4e6f206576656e7473206f6e207468697320696e6465782e0000000000000000600082015250565b7f456e74657220612076616c69642061646472657373206f72206f776e6572206360008201527f616e277420686f737420616e206576656e740000000000000000000000000000602082015250565b7f5472616e736163742073756666696369656e742066756e6420666f722074696360008201527f6b65747300000000000000000000000000000000000000000000000000000000602082015250565b7f506c656173652073656c65637420736f6d65207469636b657473000000000000600082015250565b7f536f72727920746869732073686f7720616c72656164792066696e7368656400600082015250565b7f536f727279206e6f206d6f7265207469636b6574206c65667420666f7220746860008201527f6973206576656e74000000000000000000000000000000000000000000000000602082015250565b61123081610e24565b811461123b57600080fd5b50565b61124781610e68565b811461125257600080fd5b5056fea26469706673582212202748cda06d4eeb94999b4bbac447544496a1a184f200c0844f14b678016e4ef964736f6c63430008070033",
					"opcodes": "PUSH1 0x80 PUSH1 0x40 MSTORE CALLVALUE DUP1 ISZERO PUSH2 0x10 JUMPI PUSH1 0x0 DUP1 REVERT JUMPDEST POP CALLER PUSH1 0x0 DUP1 PUSH2 0x100 EXP DUP2 SLOAD DUP2 PUSH20 0xFFFFFFFFFFFFFFFFFFFFFFFFFFFFFFFFFFFFFFFF MUL NOT AND SWAP1 DUP4 PUSH20 0xFFFFFFFFFFFFFFFFFFFFFFFFFFFFFFFFFFFFFFFF AND MUL OR SWAP1 SSTORE POP PUSH2 0x128B DUP1 PUSH2 0x60 PUSH1 0x0 CODECOPY PUSH1 0x0 RETURN INVALID PUSH1 0x80 PUSH1 0x40 MSTORE PUSH1 0x4 CALLDATASIZE LT PUSH2 0x3F JUMPI PUSH1 0x0 CALLDATALOAD PUSH1 0xE0 SHR DUP1 PUSH4 0xB791430 EQ PUSH2 0x44 JUMPI DUP1 PUSH4 0xC71E7EDC EQ PUSH2 0x85 JUMPI DUP1 PUSH4 0xDAE7A13C EQ PUSH2 0xA1 JUMPI DUP1 PUSH4 0xEE3BF803 EQ PUSH2 0xDE JUMPI JUMPDEST PUSH1 0x0 DUP1 REVERT JUMPDEST CALLVALUE DUP1 ISZERO PUSH2 0x50 JUMPI PUSH1 0x0 DUP1 REVERT JUMPDEST POP PUSH2 0x6B PUSH1 0x4 DUP1 CALLDATASIZE SUB DUP2 ADD SWAP1 PUSH2 0x66 SWAP2 SWAP1 PUSH2 0x9C4 JUMP JUMPDEST PUSH2 0xFA JUMP JUMPDEST PUSH1 0x40 MLOAD PUSH2 0x7C SWAP6 SWAP5 SWAP4 SWAP3 SWAP2 SWAP1 PUSH2 0xBC3 JUMP JUMPDEST PUSH1 0x40 MLOAD DUP1 SWAP2 SUB SWAP1 RETURN JUMPDEST PUSH2 0x9F PUSH1 0x4 DUP1 CALLDATASIZE SUB DUP2 ADD SWAP1 PUSH2 0x9A SWAP2 SWAP1 PUSH2 0x9F1 JUMP JUMPDEST PUSH2 0x1E8 JUMP JUMPDEST STOP JUMPDEST CALLVALUE DUP1 ISZERO PUSH2 0xAD JUMPI PUSH1 0x0 DUP1 REVERT JUMPDEST POP PUSH2 0xC8 PUSH1 0x4 DUP1 CALLDATASIZE SUB DUP2 ADD SWAP1 PUSH2 0xC3 SWAP2 SWAP1 PUSH2 0x901 JUMP JUMPDEST PUSH2 0x499 JUMP JUMPDEST PUSH1 0x40 MLOAD PUSH2 0xD5 SWAP2 SWAP1 PUSH2 0xD3D JUMP JUMPDEST PUSH1 0x40 MLOAD DUP1 SWAP2 SUB SWAP1 RETURN JUMPDEST PUSH2 0xF8 PUSH1 0x4 DUP1 CALLDATASIZE SUB DUP2 ADD SWAP1 PUSH2 0xF3 SWAP2 SWAP1 PUSH2 0x941 JUMP JUMPDEST PUSH2 0x4BE JUMP JUMPDEST STOP JUMPDEST PUSH1 0x1 DUP2 DUP2 SLOAD DUP2 LT PUSH2 0x10A JUMPI PUSH1 0x0 DUP1 REVERT JUMPDEST SWAP1 PUSH1 0x0 MSTORE PUSH1 0x20 PUSH1 0x0 KECCAK256 SWAP1 PUSH1 0x5 MUL ADD PUSH1 0x0 SWAP2 POP SWAP1 POP DUP1 PUSH1 0x0 ADD PUSH1 0x0 SWAP1 SLOAD SWAP1 PUSH2 0x100 EXP SWAP1 DIV PUSH20 0xFFFFFFFFFFFFFFFFFFFFFFFFFFFFFFFFFFFFFFFF AND SWAP1 DUP1 PUSH1 0x1 ADD DUP1 SLOAD PUSH2 0x153 SWAP1 PUSH2 0xEB4 JUMP JUMPDEST DUP1 PUSH1 0x1F ADD PUSH1 0x20 DUP1 SWAP2 DIV MUL PUSH1 0x20 ADD PUSH1 0x40 MLOAD SWAP1 DUP2 ADD PUSH1 0x40 MSTORE DUP1 SWAP3 SWAP2 SWAP1 DUP2 DUP2 MSTORE PUSH1 0x20 ADD DUP3 DUP1 SLOAD PUSH2 0x17F SWAP1 PUSH2 0xEB4 JUMP JUMPDEST DUP1 ISZERO PUSH2 0x1CC JUMPI DUP1 PUSH1 0x1F LT PUSH2 0x1A1 JUMPI PUSH2 0x100 DUP1 DUP4 SLOAD DIV MUL DUP4 MSTORE SWAP2 PUSH1 0x20 ADD SWAP2 PUSH2 0x1CC JUMP JUMPDEST DUP3 ADD SWAP2 SWAP1 PUSH1 0x0 MSTORE PUSH1 0x20 PUSH1 0x0 KECCAK256 SWAP1 JUMPDEST DUP2 SLOAD DUP2 MSTORE SWAP1 PUSH1 0x1 ADD SWAP1 PUSH1 0x20 ADD DUP1 DUP4 GT PUSH2 0x1AF JUMPI DUP3 SWAP1 SUB PUSH1 0x1F AND DUP3 ADD SWAP2 JUMPDEST POP POP POP POP POP SWAP1 DUP1 PUSH1 0x2 ADD SLOAD SWAP1 DUP1 PUSH1 0x3 ADD SLOAD SWAP1 DUP1 PUSH1 0x4 ADD SLOAD SWAP1 POP DUP6 JUMP JUMPDEST PUSH1 0x1 DUP1 SLOAD SWAP1 POP DUP3 LT PUSH2 0x22F JUMPI PUSH1 0x40 MLOAD PUSH32 0x8C379A000000000000000000000000000000000000000000000000000000000 DUP2 MSTORE PUSH1 0x4 ADD PUSH2 0x226 SWAP1 PUSH2 0xC7D JUMP JUMPDEST PUSH1 0x40 MLOAD DUP1 SWAP2 SUB SWAP1 REVERT JUMPDEST TIMESTAMP PUSH1 0x1 DUP4 DUP2 SLOAD DUP2 LT PUSH2 0x244 JUMPI PUSH2 0x243 PUSH2 0xF75 JUMP JUMPDEST JUMPDEST SWAP1 PUSH1 0x0 MSTORE PUSH1 0x20 PUSH1 0x0 KECCAK256 SWAP1 PUSH1 0x5 MUL ADD PUSH1 0x2 ADD SLOAD GT PUSH2 0x296 JUMPI PUSH1 0x40 MLOAD PUSH32 0x8C379A000000000000000000000000000000000000000000000000000000000 DUP2 MSTORE PUSH1 0x4 ADD PUSH2 0x28D SWAP1 PUSH2 0xCFD JUMP JUMPDEST PUSH1 0x40 MLOAD DUP1 SWAP2 SUB SWAP1 REVERT JUMPDEST PUSH1 0x0 DUP2 EQ ISZERO PUSH2 0x2DA JUMPI PUSH1 0x40 MLOAD PUSH32 0x8C379A000000000000000000000000000000000000000000000000000000000 DUP2 MSTORE PUSH1 0x4 ADD PUSH2 0x2D1 SWAP1 PUSH2 0xCDD JUMP JUMPDEST PUSH1 0x40 MLOAD DUP1 SWAP2 SUB SWAP1 REVERT JUMPDEST PUSH1 0x1 DUP3 DUP2 SLOAD DUP2 LT PUSH2 0x2EE JUMPI PUSH2 0x2ED PUSH2 0xF75 JUMP JUMPDEST JUMPDEST SWAP1 PUSH1 0x0 MSTORE PUSH1 0x20 PUSH1 0x0 KECCAK256 SWAP1 PUSH1 0x5 MUL ADD PUSH1 0x4 ADD SLOAD DUP2 GT ISZERO PUSH2 0x342 JUMPI PUSH1 0x40 MLOAD PUSH32 0x8C379A000000000000000000000000000000000000000000000000000000000 DUP2 MSTORE PUSH1 0x4 ADD PUSH2 0x339 SWAP1 PUSH2 0xD1D JUMP JUMPDEST PUSH1 0x40 MLOAD DUP1 SWAP2 SUB SWAP1 REVERT JUMPDEST DUP1 PUSH1 0x1 DUP4 DUP2 SLOAD DUP2 LT PUSH2 0x357 JUMPI PUSH2 0x356 PUSH2 0xF75 JUMP JUMPDEST JUMPDEST SWAP1 PUSH1 0x0 MSTORE PUSH1 0x20 PUSH1 0x0 KECCAK256 SWAP1 PUSH1 0x5 MUL ADD PUSH1 0x3 ADD SLOAD PUSH2 0x373 SWAP2 SWAP1 PUSH2 0xDCA JUMP JUMPDEST CALLVALUE EQ PUSH2 0x3B4 JUMPI PUSH1 0x40 MLOAD PUSH32 0x8C379A000000000000000000000000000000000000000000000000000000000 DUP2 MSTORE PUSH1 0x4 ADD PUSH2 0x3AB SWAP1 PUSH2 0xCBD JUMP JUMPDEST PUSH1 0x40 MLOAD DUP1 SWAP2 SUB SWAP1 REVERT JUMPDEST DUP1 PUSH1 0x2 PUSH1 0x0 CALLER PUSH20 0xFFFFFFFFFFFFFFFFFFFFFFFFFFFFFFFFFFFFFFFF AND PUSH20 0xFFFFFFFFFFFFFFFFFFFFFFFFFFFFFFFFFFFFFFFF AND DUP2 MSTORE PUSH1 0x20 ADD SWAP1 DUP2 MSTORE PUSH1 0x20 ADD PUSH1 0x0 KECCAK256 PUSH1 0x0 DUP5 DUP2 MSTORE PUSH1 0x20 ADD SWAP1 DUP2 MSTORE PUSH1 0x20 ADD PUSH1 0x0 KECCAK256 DUP2 SWAP1 SSTORE POP PUSH1 0x1 DUP3 DUP2 SLOAD DUP2 LT PUSH2 0x41D JUMPI PUSH2 0x41C PUSH2 0xF75 JUMP JUMPDEST JUMPDEST SWAP1 PUSH1 0x0 MSTORE PUSH1 0x20 PUSH1 0x0 KECCAK256 SWAP1 PUSH1 0x5 MUL ADD PUSH1 0x0 ADD PUSH1 0x0 SWAP1 SLOAD SWAP1 PUSH2 0x100 EXP SWAP1 DIV PUSH20 0xFFFFFFFFFFFFFFFFFFFFFFFFFFFFFFFFFFFFFFFF AND PUSH20 0xFFFFFFFFFFFFFFFFFFFFFFFFFFFFFFFFFFFFFFFF AND PUSH2 0x8FC CALLVALUE SWAP1 DUP2 ISZERO MUL SWAP1 PUSH1 0x40 MLOAD PUSH1 0x0 PUSH1 0x40 MLOAD DUP1 DUP4 SUB DUP2 DUP6 DUP9 DUP9 CALL SWAP4 POP POP POP POP ISZERO DUP1 ISZERO PUSH2 0x494 JUMPI RETURNDATASIZE PUSH1 0x0 DUP1 RETURNDATACOPY RETURNDATASIZE PUSH1 0x0 REVERT JUMPDEST POP POP POP JUMP JUMPDEST PUSH1 0x2 PUSH1 0x20 MSTORE DUP2 PUSH1 0x0 MSTORE PUSH1 0x40 PUSH1 0x0 KECCAK256 PUSH1 0x20 MSTORE DUP1 PUSH1 0x0 MSTORE PUSH1 0x40 PUSH1 0x0 KECCAK256 PUSH1 0x0 SWAP2 POP SWAP2 POP POP SLOAD DUP2 JUMP JUMPDEST PUSH1 0x0 DUP1 SLOAD SWAP1 PUSH2 0x100 EXP SWAP1 DIV PUSH20 0xFFFFFFFFFFFFFFFFFFFFFFFFFFFFFFFFFFFFFFFF AND PUSH20 0xFFFFFFFFFFFFFFFFFFFFFFFFFFFFFFFFFFFFFFFF AND CALLER PUSH20 0xFFFFFFFFFFFFFFFFFFFFFFFFFFFFFFFFFFFFFFFF AND EQ ISZERO DUP1 ISZERO PUSH2 0x547 JUMPI POP PUSH1 0x0 PUSH20 0xFFFFFFFFFFFFFFFFFFFFFFFFFFFFFFFFFFFFFFFF AND CALLER PUSH20 0xFFFFFFFFFFFFFFFFFFFFFFFFFFFFFFFFFFFFFFFF AND EQ ISZERO JUMPDEST PUSH2 0x586 JUMPI PUSH1 0x40 MLOAD PUSH32 0x8C379A000000000000000000000000000000000000000000000000000000000 DUP2 MSTORE PUSH1 0x4 ADD PUSH2 0x57D SWAP1 PUSH2 0xC9D JUMP JUMPDEST PUSH1 0x40 MLOAD DUP1 SWAP2 SUB SWAP1 REVERT JUMPDEST PUSH1 0x0 DUP4 EQ ISZERO DUP1 ISZERO PUSH2 0x596 JUMPI POP TIMESTAMP DUP4 GT JUMPDEST PUSH2 0x5D5 JUMPI PUSH1 0x40 MLOAD PUSH32 0x8C379A000000000000000000000000000000000000000000000000000000000 DUP2 MSTORE PUSH1 0x4 ADD PUSH2 0x5CC SWAP1 PUSH2 0xC5D JUMP JUMPDEST PUSH1 0x40 MLOAD DUP1 SWAP2 SUB SWAP1 REVERT JUMPDEST PUSH1 0x0 DUP2 GT PUSH2 0x618 JUMPI PUSH1 0x40 MLOAD PUSH32 0x8C379A000000000000000000000000000000000000000000000000000000000 DUP2 MSTORE PUSH1 0x4 ADD PUSH2 0x60F SWAP1 PUSH2 0xC3D JUMP JUMPDEST PUSH1 0x40 MLOAD DUP1 SWAP2 SUB SWAP1 REVERT JUMPDEST PUSH1 0x0 DUP3 EQ PUSH2 0x665 JUMPI PUSH2 0x3E8 CALLVALUE EQ PUSH2 0x664 JUMPI PUSH1 0x40 MLOAD PUSH32 0x8C379A000000000000000000000000000000000000000000000000000000000 DUP2 MSTORE PUSH1 0x4 ADD PUSH2 0x65B SWAP1 PUSH2 0xC1D JUMP JUMPDEST PUSH1 0x40 MLOAD DUP1 SWAP2 SUB SWAP1 REVERT JUMPDEST JUMPDEST PUSH1 0x0 PUSH1 0x40 MLOAD DUP1 PUSH1 0xA0 ADD PUSH1 0x40 MSTORE DUP1 CALLER PUSH20 0xFFFFFFFFFFFFFFFFFFFFFFFFFFFFFFFFFFFFFFFF AND DUP2 MSTORE PUSH1 0x20 ADD DUP7 DUP2 MSTORE PUSH1 0x20 ADD DUP6 DUP2 MSTORE PUSH1 0x20 ADD DUP5 DUP2 MSTORE PUSH1 0x20 ADD DUP4 DUP2 MSTORE POP SWAP1 POP PUSH1 0x1 DUP2 SWAP1 DUP1 PUSH1 0x1 DUP2 SLOAD ADD DUP1 DUP3 SSTORE DUP1 SWAP2 POP POP PUSH1 0x1 SWAP1 SUB SWAP1 PUSH1 0x0 MSTORE PUSH1 0x20 PUSH1 0x0 KECCAK256 SWAP1 PUSH1 0x5 MUL ADD PUSH1 0x0 SWAP1 SWAP2 SWAP1 SWAP2 SWAP1 SWAP2 POP PUSH1 0x0 DUP3 ADD MLOAD DUP2 PUSH1 0x0 ADD PUSH1 0x0 PUSH2 0x100 EXP DUP2 SLOAD DUP2 PUSH20 0xFFFFFFFFFFFFFFFFFFFFFFFFFFFFFFFFFFFFFFFF MUL NOT AND SWAP1 DUP4 PUSH20 0xFFFFFFFFFFFFFFFFFFFFFFFFFFFFFFFFFFFFFFFF AND MUL OR SWAP1 SSTORE POP PUSH1 0x20 DUP3 ADD MLOAD DUP2 PUSH1 0x1 ADD SWAP1 DUP1 MLOAD SWAP1 PUSH1 0x20 ADD SWAP1 PUSH2 0x735 SWAP3 SWAP2 SWAP1 PUSH2 0x7C4 JUMP JUMPDEST POP PUSH1 0x40 DUP3 ADD MLOAD DUP2 PUSH1 0x2 ADD SSTORE PUSH1 0x60 DUP3 ADD MLOAD DUP2 PUSH1 0x3 ADD SSTORE PUSH1 0x80 DUP3 ADD MLOAD DUP2 PUSH1 0x4 ADD SSTORE POP POP PUSH1 0x0 DUP1 SLOAD SWAP1 PUSH2 0x100 EXP SWAP1 DIV PUSH20 0xFFFFFFFFFFFFFFFFFFFFFFFFFFFFFFFFFFFFFFFF AND PUSH20 0xFFFFFFFFFFFFFFFFFFFFFFFFFFFFFFFFFFFFFFFF AND PUSH2 0x8FC CALLVALUE SWAP1 DUP2 ISZERO MUL SWAP1 PUSH1 0x40 MLOAD PUSH1 0x0 PUSH1 0x40 MLOAD DUP1 DUP4 SUB DUP2 DUP6 DUP9 DUP9 CALL SWAP4 POP POP POP POP ISZERO DUP1 ISZERO PUSH2 0x7BC JUMPI RETURNDATASIZE PUSH1 0x0 DUP1 RETURNDATACOPY RETURNDATASIZE PUSH1 0x0 REVERT JUMPDEST POP POP POP POP POP POP JUMP JUMPDEST DUP3 DUP1 SLOAD PUSH2 0x7D0 SWAP1 PUSH2 0xEB4 JUMP JUMPDEST SWAP1 PUSH1 0x0 MSTORE PUSH1 0x20 PUSH1 0x0 KECCAK256 SWAP1 PUSH1 0x1F ADD PUSH1 0x20 SWAP1 DIV DUP2 ADD SWAP3 DUP3 PUSH2 0x7F2 JUMPI PUSH1 0x0 DUP6 SSTORE PUSH2 0x839 JUMP JUMPDEST DUP3 PUSH1 0x1F LT PUSH2 0x80B JUMPI DUP1 MLOAD PUSH1 0xFF NOT AND DUP4 DUP1 ADD OR DUP6 SSTORE PUSH2 0x839 JUMP JUMPDEST DUP3 DUP1 ADD PUSH1 0x1 ADD DUP6 SSTORE DUP3 ISZERO PUSH2 0x839 JUMPI SWAP2 DUP3 ADD JUMPDEST DUP3 DUP2 GT ISZERO PUSH2 0x838 JUMPI DUP3 MLOAD DUP3 SSTORE SWAP2 PUSH1 0x20 ADD SWAP2 SWAP1 PUSH1 0x1 ADD SWAP1 PUSH2 0x81D JUMP JUMPDEST JUMPDEST POP SWAP1 POP PUSH2 0x846 SWAP2 SWAP1 PUSH2 0x84A JUMP JUMPDEST POP SWAP1 JUMP JUMPDEST JUMPDEST DUP1 DUP3 GT ISZERO PUSH2 0x863 JUMPI PUSH1 0x0 DUP2 PUSH1 0x0 SWAP1 SSTORE POP PUSH1 0x1 ADD PUSH2 0x84B JUMP JUMPDEST POP SWAP1 JUMP JUMPDEST PUSH1 0x0 PUSH2 0x87A PUSH2 0x875 DUP5 PUSH2 0xD7D JUMP JUMPDEST PUSH2 0xD58 JUMP JUMPDEST SWAP1 POP DUP3 DUP2 MSTORE PUSH1 0x20 DUP2 ADD DUP5 DUP5 DUP5 ADD GT ISZERO PUSH2 0x896 JUMPI PUSH2 0x895 PUSH2 0xFD8 JUMP JUMPDEST JUMPDEST PUSH2 0x8A1 DUP5 DUP3 DUP6 PUSH2 0xE72 JUMP JUMPDEST POP SWAP4 SWAP3 POP POP POP JUMP JUMPDEST PUSH1 0x0 DUP2 CALLDATALOAD SWAP1 POP PUSH2 0x8B8 DUP2 PUSH2 0x1227 JUMP JUMPDEST SWAP3 SWAP2 POP POP JUMP JUMPDEST PUSH1 0x0 DUP3 PUSH1 0x1F DUP4 ADD SLT PUSH2 0x8D3 JUMPI PUSH2 0x8D2 PUSH2 0xFD3 JUMP JUMPDEST JUMPDEST DUP2 CALLDATALOAD PUSH2 0x8E3 DUP5 DUP3 PUSH1 0x20 DUP7 ADD PUSH2 0x867 JUMP JUMPDEST SWAP2 POP POP SWAP3 SWAP2 POP POP JUMP JUMPDEST PUSH1 0x0 DUP2 CALLDATALOAD SWAP1 POP PUSH2 0x8FB DUP2 PUSH2 0x123E JUMP JUMPDEST SWAP3 SWAP2 POP POP JUMP JUMPDEST PUSH1 0x0 DUP1 PUSH1 0x40 DUP4 DUP6 SUB SLT ISZERO PUSH2 0x918 JUMPI PUSH2 0x917 PUSH2 0xFE2 JUMP JUMPDEST JUMPDEST PUSH1 0x0 PUSH2 0x926 DUP6 DUP3 DUP7 ADD PUSH2 0x8A9 JUMP JUMPDEST SWAP3 POP POP PUSH1 0x20 PUSH2 0x937 DUP6 DUP3 DUP7 ADD PUSH2 0x8EC JUMP JUMPDEST SWAP2 POP POP SWAP3 POP SWAP3 SWAP1 POP JUMP JUMPDEST PUSH1 0x0 DUP1 PUSH1 0x0 DUP1 PUSH1 0x80 DUP6 DUP8 SUB SLT ISZERO PUSH2 0x95B JUMPI PUSH2 0x95A PUSH2 0xFE2 JUMP JUMPDEST JUMPDEST PUSH1 0x0 DUP6 ADD CALLDATALOAD PUSH8 0xFFFFFFFFFFFFFFFF DUP2 GT ISZERO PUSH2 0x979 JUMPI PUSH2 0x978 PUSH2 0xFDD JUMP JUMPDEST JUMPDEST PUSH2 0x985 DUP8 DUP3 DUP9 ADD PUSH2 0x8BE JUMP JUMPDEST SWAP5 POP POP PUSH1 0x20 PUSH2 0x996 DUP8 DUP3 DUP9 ADD PUSH2 0x8EC JUMP JUMPDEST SWAP4 POP POP PUSH1 0x40 PUSH2 0x9A7 DUP8 DUP3 DUP9 ADD PUSH2 0x8EC JUMP JUMPDEST SWAP3 POP POP PUSH1 0x60 PUSH2 0x9B8 DUP8 DUP3 DUP9 ADD PUSH2 0x8EC JUMP JUMPDEST SWAP2 POP POP SWAP3 SWAP6 SWAP2 SWAP5 POP SWAP3 POP JUMP JUMPDEST PUSH1 0x0 PUSH1 0x20 DUP3 DUP5 SUB SLT ISZERO PUSH2 0x9DA JUMPI PUSH2 0x9D9 PUSH2 0xFE2 JUMP JUMPDEST JUMPDEST PUSH1 0x0 PUSH2 0x9E8 DUP5 DUP3 DUP6 ADD PUSH2 0x8EC JUMP JUMPDEST SWAP2 POP POP SWAP3 SWAP2 POP POP JUMP JUMPDEST PUSH1 0x0 DUP1 PUSH1 0x40 DUP4 DUP6 SUB SLT ISZERO PUSH2 0xA08 JUMPI PUSH2 0xA07 PUSH2 0xFE2 JUMP JUMPDEST JUMPDEST PUSH1 0x0 PUSH2 0xA16 DUP6 DUP3 DUP7 ADD PUSH2 0x8EC JUMP JUMPDEST SWAP3 POP POP PUSH1 0x20 PUSH2 0xA27 DUP6 DUP3 DUP7 ADD PUSH2 0x8EC JUMP JUMPDEST SWAP2 POP POP SWAP3 POP SWAP3 SWAP1 POP JUMP JUMPDEST PUSH2 0xA3A DUP2 PUSH2 0xE36 JUMP JUMPDEST DUP3 MSTORE POP POP JUMP JUMPDEST PUSH1 0x0 PUSH2 0xA4B DUP3 PUSH2 0xDAE JUMP JUMPDEST PUSH2 0xA55 DUP2 DUP6 PUSH2 0xDB9 JUMP JUMPDEST SWAP4 POP PUSH2 0xA65 DUP2 DUP6 PUSH1 0x20 DUP7 ADD PUSH2 0xE81 JUMP JUMPDEST PUSH2 0xA6E DUP2 PUSH2 0xFE7 JUMP JUMPDEST DUP5 ADD SWAP2 POP POP SWAP3 SWAP2 POP POP JUMP JUMPDEST PUSH1 0x0 PUSH2 0xA86 PUSH1 0x34 DUP4 PUSH2 0xDB9 JUMP JUMPDEST SWAP2 POP PUSH2 0xA91 DUP3 PUSH2 0xFF8 JUMP JUMPDEST PUSH1 0x40 DUP3 ADD SWAP1 POP SWAP2 SWAP1 POP JUMP JUMPDEST PUSH1 0x0 PUSH2 0xAA9 PUSH1 0x1A DUP4 PUSH2 0xDB9 JUMP JUMPDEST SWAP2 POP PUSH2 0xAB4 DUP3 PUSH2 0x1047 JUMP JUMPDEST PUSH1 0x20 DUP3 ADD SWAP1 POP SWAP2 SWAP1 POP JUMP JUMPDEST PUSH1 0x0 PUSH2 0xACC PUSH1 0x23 DUP4 PUSH2 0xDB9 JUMP JUMPDEST SWAP2 POP PUSH2 0xAD7 DUP3 PUSH2 0x1070 JUMP JUMPDEST PUSH1 0x40 DUP3 ADD SWAP1 POP SWAP2 SWAP1 POP JUMP JUMPDEST PUSH1 0x0 PUSH2 0xAEF PUSH1 0x18 DUP4 PUSH2 0xDB9 JUMP JUMPDEST SWAP2 POP PUSH2 0xAFA DUP3 PUSH2 0x10BF JUMP JUMPDEST PUSH1 0x20 DUP3 ADD SWAP1 POP SWAP2 SWAP1 POP JUMP JUMPDEST PUSH1 0x0 PUSH2 0xB12 PUSH1 0x32 DUP4 PUSH2 0xDB9 JUMP JUMPDEST SWAP2 POP PUSH2 0xB1D DUP3 PUSH2 0x10E8 JUMP JUMPDEST PUSH1 0x40 DUP3 ADD SWAP1 POP SWAP2 SWAP1 POP JUMP JUMPDEST PUSH1 0x0 PUSH2 0xB35 PUSH1 0x24 DUP4 PUSH2 0xDB9 JUMP JUMPDEST SWAP2 POP PUSH2 0xB40 DUP3 PUSH2 0x1137 JUMP JUMPDEST PUSH1 0x40 DUP3 ADD SWAP1 POP SWAP2 SWAP1 POP JUMP JUMPDEST PUSH1 0x0 PUSH2 0xB58 PUSH1 0x1A DUP4 PUSH2 0xDB9 JUMP JUMPDEST SWAP2 POP PUSH2 0xB63 DUP3 PUSH2 0x1186 JUMP JUMPDEST PUSH1 0x20 DUP3 ADD SWAP1 POP SWAP2 SWAP1 POP JUMP JUMPDEST PUSH1 0x0 PUSH2 0xB7B PUSH1 0x1F DUP4 PUSH2 0xDB9 JUMP JUMPDEST SWAP2 POP PUSH2 0xB86 DUP3 PUSH2 0x11AF JUMP JUMPDEST PUSH1 0x20 DUP3 ADD SWAP1 POP SWAP2 SWAP1 POP JUMP JUMPDEST PUSH1 0x0 PUSH2 0xB9E PUSH1 0x28 DUP4 PUSH2 0xDB9 JUMP JUMPDEST SWAP2 POP PUSH2 0xBA9 DUP3 PUSH2 0x11D8 JUMP JUMPDEST PUSH1 0x40 DUP3 ADD SWAP1 POP SWAP2 SWAP1 POP JUMP JUMPDEST PUSH2 0xBBD DUP2 PUSH2 0xE68 JUMP JUMPDEST DUP3 MSTORE POP POP JUMP JUMPDEST PUSH1 0x0 PUSH1 0xA0 DUP3 ADD SWAP1 POP PUSH2 0xBD8 PUSH1 0x0 DUP4 ADD DUP9 PUSH2 0xA31 JUMP JUMPDEST DUP2 DUP2 SUB PUSH1 0x20 DUP4 ADD MSTORE PUSH2 0xBEA DUP2 DUP8 PUSH2 0xA40 JUMP JUMPDEST SWAP1 POP PUSH2 0xBF9 PUSH1 0x40 DUP4 ADD DUP7 PUSH2 0xBB4 JUMP JUMPDEST PUSH2 0xC06 PUSH1 0x60 DUP4 ADD DUP6 PUSH2 0xBB4 JUMP JUMPDEST PUSH2 0xC13 PUSH1 0x80 DUP4 ADD DUP5 PUSH2 0xBB4 JUMP JUMPDEST SWAP7 SWAP6 POP POP POP POP POP POP JUMP JUMPDEST PUSH1 0x0 PUSH1 0x20 DUP3 ADD SWAP1 POP DUP2 DUP2 SUB PUSH1 0x0 DUP4 ADD MSTORE PUSH2 0xC36 DUP2 PUSH2 0xA79 JUMP JUMPDEST SWAP1 POP SWAP2 SWAP1 POP JUMP JUMPDEST PUSH1 0x0 PUSH1 0x20 DUP3 ADD SWAP1 POP DUP2 DUP2 SUB PUSH1 0x0 DUP4 ADD MSTORE PUSH2 0xC56 DUP2 PUSH2 0xA9C JUMP JUMPDEST SWAP1 POP SWAP2 SWAP1 POP JUMP JUMPDEST PUSH1 0x0 PUSH1 0x20 DUP3 ADD SWAP1 POP DUP2 DUP2 SUB PUSH1 0x0 DUP4 ADD MSTORE PUSH2 0xC76 DUP2 PUSH2 0xABF JUMP JUMPDEST SWAP1 POP SWAP2 SWAP1 POP JUMP JUMPDEST PUSH1 0x0 PUSH1 0x20 DUP3 ADD SWAP1 POP DUP2 DUP2 SUB PUSH1 0x0 DUP4 ADD MSTORE PUSH2 0xC96 DUP2 PUSH2 0xAE2 JUMP JUMPDEST SWAP1 POP SWAP2 SWAP1 POP JUMP JUMPDEST PUSH1 0x0 PUSH1 0x20 DUP3 ADD SWAP1 POP DUP2 DUP2 SUB PUSH1 0x0 DUP4 ADD MSTORE PUSH2 0xCB6 DUP2 PUSH2 0xB05 JUMP JUMPDEST SWAP1 POP SWAP2 SWAP1 POP JUMP JUMPDEST PUSH1 0x0 PUSH1 0x20 DUP3 ADD SWAP1 POP DUP2 DUP2 SUB PUSH1 0x0 DUP4 ADD MSTORE PUSH2 0xCD6 DUP2 PUSH2 0xB28 JUMP JUMPDEST SWAP1 POP SWAP2 SWAP1 POP JUMP JUMPDEST PUSH1 0x0 PUSH1 0x20 DUP3 ADD SWAP1 POP DUP2 DUP2 SUB PUSH1 0x0 DUP4 ADD MSTORE PUSH2 0xCF6 DUP2 PUSH2 0xB4B JUMP JUMPDEST SWAP1 POP SWAP2 SWAP1 POP JUMP JUMPDEST PUSH1 0x0 PUSH1 0x20 DUP3 ADD SWAP1 POP DUP2 DUP2 SUB PUSH1 0x0 DUP4 ADD MSTORE PUSH2 0xD16 DUP2 PUSH2 0xB6E JUMP JUMPDEST SWAP1 POP SWAP2 SWAP1 POP JUMP JUMPDEST PUSH1 0x0 PUSH1 0x20 DUP3 ADD SWAP1 POP DUP2 DUP2 SUB PUSH1 0x0 DUP4 ADD MSTORE PUSH2 0xD36 DUP2 PUSH2 0xB91 JUMP JUMPDEST SWAP1 POP SWAP2 SWAP1 POP JUMP JUMPDEST PUSH1 0x0 PUSH1 0x20 DUP3 ADD SWAP1 POP PUSH2 0xD52 PUSH1 0x0 DUP4 ADD DUP5 PUSH2 0xBB4 JUMP JUMPDEST SWAP3 SWAP2 POP POP JUMP JUMPDEST PUSH1 0x0 PUSH2 0xD62 PUSH2 0xD73 JUMP JUMPDEST SWAP1 POP PUSH2 0xD6E DUP3 DUP3 PUSH2 0xEE6 JUMP JUMPDEST SWAP2 SWAP1 POP JUMP JUMPDEST PUSH1 0x0 PUSH1 0x40 MLOAD SWAP1 POP SWAP1 JUMP JUMPDEST PUSH1 0x0 PUSH8 0xFFFFFFFFFFFFFFFF DUP3 GT ISZERO PUSH2 0xD98 JUMPI PUSH2 0xD97 PUSH2 0xFA4 JUMP JUMPDEST JUMPDEST PUSH2 0xDA1 DUP3 PUSH2 0xFE7 JUMP JUMPDEST SWAP1 POP PUSH1 0x20 DUP2 ADD SWAP1 POP SWAP2 SWAP1 POP JUMP JUMPDEST PUSH1 0x0 DUP2 MLOAD SWAP1 POP SWAP2 SWAP1 POP JUMP JUMPDEST PUSH1 0x0 DUP3 DUP3 MSTORE PUSH1 0x20 DUP3 ADD SWAP1 POP SWAP3 SWAP2 POP POP JUMP JUMPDEST PUSH1 0x0 PUSH2 0xDD5 DUP3 PUSH2 0xE68 JUMP JUMPDEST SWAP2 POP PUSH2 0xDE0 DUP4 PUSH2 0xE68 JUMP JUMPDEST SWAP3 POP DUP2 PUSH32 0xFFFFFFFFFFFFFFFFFFFFFFFFFFFFFFFFFFFFFFFFFFFFFFFFFFFFFFFFFFFFFFFF DIV DUP4 GT DUP3 ISZERO ISZERO AND ISZERO PUSH2 0xE19 JUMPI PUSH2 0xE18 PUSH2 0xF17 JUMP JUMPDEST JUMPDEST DUP3 DUP3 MUL SWAP1 POP SWAP3 SWAP2 POP POP JUMP JUMPDEST PUSH1 0x0 PUSH2 0xE2F DUP3 PUSH2 0xE48 JUMP JUMPDEST SWAP1 POP SWAP2 SWAP1 POP JUMP JUMPDEST PUSH1 0x0 PUSH2 0xE41 DUP3 PUSH2 0xE48 JUMP JUMPDEST SWAP1 POP SWAP2 SWAP1 POP JUMP JUMPDEST PUSH1 0x0 PUSH20 0xFFFFFFFFFFFFFFFFFFFFFFFFFFFFFFFFFFFFFFFF DUP3 AND SWAP1 POP SWAP2 SWAP1 POP JUMP JUMPDEST PUSH1 0x0 DUP2 SWAP1 POP SWAP2 SWAP1 POP JUMP JUMPDEST DUP3 DUP2 DUP4 CALLDATACOPY PUSH1 0x0 DUP4 DUP4 ADD MSTORE POP POP POP JUMP JUMPDEST PUSH1 0x0 JUMPDEST DUP4 DUP2 LT ISZERO PUSH2 0xE9F JUMPI DUP1 DUP3 ADD MLOAD DUP2 DUP5 ADD MSTORE PUSH1 0x20 DUP2 ADD SWAP1 POP PUSH2 0xE84 JUMP JUMPDEST DUP4 DUP2 GT ISZERO PUSH2 0xEAE JUMPI PUSH1 0x0 DUP5 DUP5 ADD MSTORE JUMPDEST POP POP POP POP JUMP JUMPDEST PUSH1 0x0 PUSH1 0x2 DUP3 DIV SWAP1 POP PUSH1 0x1 DUP3 AND DUP1 PUSH2 0xECC JUMPI PUSH1 0x7F DUP3 AND SWAP2 POP JUMPDEST PUSH1 0x20 DUP3 LT DUP2 EQ ISZERO PUSH2 0xEE0 JUMPI PUSH2 0xEDF PUSH2 0xF46 JUMP JUMPDEST JUMPDEST POP SWAP2 SWAP1 POP JUMP JUMPDEST PUSH2 0xEEF DUP3 PUSH2 0xFE7 JUMP JUMPDEST DUP2 ADD DUP2 DUP2 LT PUSH8 0xFFFFFFFFFFFFFFFF DUP3 GT OR ISZERO PUSH2 0xF0E JUMPI PUSH2 0xF0D PUSH2 0xFA4 JUMP JUMPDEST JUMPDEST DUP1 PUSH1 0x40 MSTORE POP POP POP JUMP JUMPDEST PUSH32 0x4E487B7100000000000000000000000000000000000000000000000000000000 PUSH1 0x0 MSTORE PUSH1 0x11 PUSH1 0x4 MSTORE PUSH1 0x24 PUSH1 0x0 REVERT JUMPDEST PUSH32 0x4E487B7100000000000000000000000000000000000000000000000000000000 PUSH1 0x0 MSTORE PUSH1 0x22 PUSH1 0x4 MSTORE PUSH1 0x24 PUSH1 0x0 REVERT JUMPDEST PUSH32 0x4E487B7100000000000000000000000000000000000000000000000000000000 PUSH1 0x0 MSTORE PUSH1 0x32 PUSH1 0x4 MSTORE PUSH1 0x24 PUSH1 0x0 REVERT JUMPDEST PUSH32 0x4E487B7100000000000000000000000000000000000000000000000000000000 PUSH1 0x0 MSTORE PUSH1 0x41 PUSH1 0x4 MSTORE PUSH1 0x24 PUSH1 0x0 REVERT JUMPDEST PUSH1 0x0 DUP1 REVERT JUMPDEST PUSH1 0x0 DUP1 REVERT JUMPDEST PUSH1 0x0 DUP1 REVERT JUMPDEST PUSH1 0x0 DUP1 REVERT JUMPDEST PUSH1 0x0 PUSH1 0x1F NOT PUSH1 0x1F DUP4 ADD AND SWAP1 POP SWAP2 SWAP1 POP JUMP JUMPDEST PUSH32 0x506C65617365207061792073756666696369656E742066756E6420666F72206F PUSH1 0x0 DUP3 ADD MSTORE PUSH32 0x7267616E697A696E6720796F7572206576656E74000000000000000000000000 PUSH1 0x20 DUP3 ADD MSTORE POP JUMP JUMPDEST PUSH32 0x506C656173652063726561746520736F6D65207469636B657473000000000000 PUSH1 0x0 DUP3 ADD MSTORE POP JUMP JUMPDEST PUSH32 0x506C6561736520656E74657220612076616C6964206461746520696E20667574 PUSH1 0x0 DUP3 ADD MSTORE PUSH32 0x7572650000000000000000000000000000000000000000000000000000000000 PUSH1 0x20 DUP3 ADD MSTORE POP JUMP JUMPDEST PUSH32 0x4E6F206576656E7473206F6E207468697320696E6465782E0000000000000000 PUSH1 0x0 DUP3 ADD MSTORE POP JUMP JUMPDEST PUSH32 0x456E74657220612076616C69642061646472657373206F72206F776E65722063 PUSH1 0x0 DUP3 ADD MSTORE PUSH32 0x616E277420686F737420616E206576656E740000000000000000000000000000 PUSH1 0x20 DUP3 ADD MSTORE POP JUMP JUMPDEST PUSH32 0x5472616E736163742073756666696369656E742066756E6420666F7220746963 PUSH1 0x0 DUP3 ADD MSTORE PUSH32 0x6B65747300000000000000000000000000000000000000000000000000000000 PUSH1 0x20 DUP3 ADD MSTORE POP JUMP JUMPDEST PUSH32 0x506C656173652073656C65637420736F6D65207469636B657473000000000000 PUSH1 0x0 DUP3 ADD MSTORE POP JUMP JUMPDEST PUSH32 0x536F72727920746869732073686F7720616C72656164792066696E7368656400 PUSH1 0x0 DUP3 ADD MSTORE POP JUMP JUMPDEST PUSH32 0x536F727279206E6F206D6F7265207469636B6574206C65667420666F72207468 PUSH1 0x0 DUP3 ADD MSTORE PUSH32 0x6973206576656E74000000000000000000000000000000000000000000000000 PUSH1 0x20 DUP3 ADD MSTORE POP JUMP JUMPDEST PUSH2 0x1230 DUP2 PUSH2 0xE24 JUMP JUMPDEST DUP2 EQ PUSH2 0x123B JUMPI PUSH1 0x0 DUP1 REVERT JUMPDEST POP JUMP JUMPDEST PUSH2 0x1247 DUP2 PUSH2 0xE68 JUMP JUMPDEST DUP2 EQ PUSH2 0x1252 JUMPI PUSH1 0x0 DUP1 REVERT JUMPDEST POP JUMP INVALID LOG2 PUSH5 0x6970667358 0x22 SLT KECCAK256 0x27 BASEFEE 0xCD LOG0 PUSH14 0x4EEB94999B4BBAC447544496A1A1 DUP5 CALLCODE STOP 0xC0 DUP5 0x4F EQ 0xB6 PUSH25 0x16E4EF964736F6C6343000807003300000000000000000000 "
				},
				"gasEstimates": {
					"creation": {
						"codeDepositCost": "949400",
						"executionCost": "25254",
						"totalCost": "974654"
					},
					"external": {
						"buy_ticket(uint256,uint256)": "infinite",
						"create_event(string,uint256,uint256,uint256)": "infinite",
						"events(uint256)": "infinite",
						"tickets(address,uint256)": "infinite"
					}
				},
				"methodIdentifiers": {
					"buy_ticket(uint256,uint256)": "c71e7edc",
					"create_event(string,uint256,uint256,uint256)": "ee3bf803",
					"events(uint256)": "0b791430",
					"tickets(address,uint256)": "dae7a13c"
				}
			},
			"storageLayout": {
				"storage": [
					{
						"astId": 14,
						"contract": "Projects/02_Event_Management.sol:EventManagement",
						"label": "owner_contract",
						"offset": 0,
						"slot": "0",
						"type": "t_address_payable"
					},
					{
						"astId": 18,
						"contract": "Projects/02_Event_Management.sol:EventManagement",
						"label": "events",
						"offset": 0,
						"slot": "1",
						"type": "t_array(t_struct(Event)12_storage)dyn_storage"
					},
					{
						"astId": 24,
						"contract": "Projects/02_Event_Management.sol:EventManagement",
						"label": "tickets",
						"offset": 0,
						"slot": "2",
						"type": "t_mapping(t_address,t_mapping(t_uint256,t_uint256))"
					}
				],
				"types": {
					"t_address": {
						"encoding": "inplace",
						"label": "address",
						"numberOfBytes": "20"
					},
					"t_address_payable": {
						"encoding": "inplace",
						"label": "address payable",
						"numberOfBytes": "20"
					},
					"t_array(t_struct(Event)12_storage)dyn_storage": {
						"base": "t_struct(Event)12_storage",
						"encoding": "dynamic_array",
						"label": "struct EventManagement.Event[]",
						"numberOfBytes": "32"
					},
					"t_mapping(t_address,t_mapping(t_uint256,t_uint256))": {
						"encoding": "mapping",
						"key": "t_address",
						"label": "mapping(address => mapping(uint256 => uint256))",
						"numberOfBytes": "32",
						"value": "t_mapping(t_uint256,t_uint256)"
					},
					"t_mapping(t_uint256,t_uint256)": {
						"encoding": "mapping",
						"key": "t_uint256",
						"label": "mapping(uint256 => uint256)",
						"numberOfBytes": "32",
						"value": "t_uint256"
					},
					"t_string_storage": {
						"encoding": "bytes",
						"label": "string",
						"numberOfBytes": "32"
					},
					"t_struct(Event)12_storage": {
						"encoding": "inplace",
						"label": "struct EventManagement.Event",
						"members": [
							{
								"astId": 3,
								"contract": "Projects/02_Event_Management.sol:EventManagement",
								"label": "organizer",
								"offset": 0,
								"slot": "0",
								"type": "t_address_payable"
							},
							{
								"astId": 5,
								"contract": "Projects/02_Event_Management.sol:EventManagement",
								"label": "event_name",
								"offset": 0,
								"slot": "1",
								"type": "t_string_storage"
							},
							{
								"astId": 7,
								"contract": "Projects/02_Event_Management.sol:EventManagement",
								"label": "event_date",
								"offset": 0,
								"slot": "2",
								"type": "t_uint256"
							},
							{
								"astId": 9,
								"contract": "Projects/02_Event_Management.sol:EventManagement",
								"label": "ticket_price",
								"offset": 0,
								"slot": "3",
								"type": "t_uint256"
							},
							{
								"astId": 11,
								"contract": "Projects/02_Event_Management.sol:EventManagement",
								"label": "ticket_count",
								"offset": 0,
								"slot": "4",
								"type": "t_uint256"
							}
						],
						"numberOfBytes": "160"
					},
					"t_uint256": {
						"encoding": "inplace",
						"label": "uint256",
						"numberOfBytes": "32"
					}
				}
			},
			"userdoc": {
				"kind": "user",
				"methods": {},
				"version": 1
			}
		}
	}
}