{
	"Projects/02_Event_Management.sol": {
		"EventManagement": {
			"abi": [
				{
					"inputs": [],
					"stateMutability": "nonpayable",
					"type": "constructor"
				},
				{
					"inputs": [
						{
							"internalType": "uint256",
							"name": "_event_index",
							"type": "uint256"
						},
						{
							"internalType": "uint256",
							"name": "_ticket_quantity",
							"type": "uint256"
						}
					],
					"name": "buy_ticket",
					"outputs": [],
					"stateMutability": "payable",
					"type": "function"
				},
				{
					"inputs": [
						{
							"internalType": "string",
							"name": "_event_name",
							"type": "string"
						},
						{
							"internalType": "uint256",
							"name": "_event_date",
							"type": "uint256"
						},
						{
							"internalType": "uint256",
							"name": "_ticket_price",
							"type": "uint256"
						},
						{
							"internalType": "uint256",
							"name": "_ticket_count",
							"type": "uint256"
						}
					],
					"name": "create_event",
					"outputs": [],
					"stateMutability": "payable",
					"type": "function"
				},
				{
					"inputs": [
						{
							"internalType": "uint256",
							"name": "",
							"type": "uint256"
						}
					],
					"name": "events",
					"outputs": [
						{
							"internalType": "address payable",
							"name": "organizer",
							"type": "address"
						},
						{
							"internalType": "string",
							"name": "event_name",
							"type": "string"
						},
						{
							"internalType": "uint256",
							"name": "event_date",
							"type": "uint256"
						},
						{
							"internalType": "uint256",
							"name": "ticket_price",
							"type": "uint256"
						},
						{
							"internalType": "uint256",
							"name": "ticket_count",
							"type": "uint256"
						}
					],
					"stateMutability": "view",
					"type": "function"
				},
				{
					"inputs": [
						{
							"internalType": "address",
							"name": "_receiver",
							"type": "address"
						},
						{
							"internalType": "uint256",
							"name": "_event_index",
							"type": "uint256"
						},
						{
							"internalType": "uint256",
							"name": "_ticket_quantity",
							"type": "uint256"
						}
					],
					"name": "send_ticket",
					"outputs": [],
					"stateMutability": "nonpayable",
					"type": "function"
				},
				{
					"inputs": [
						{
							"internalType": "address",
							"name": "",
							"type": "address"
						},
						{
							"internalType": "uint256",
							"name": "",
							"type": "uint256"
						}
					],
					"name": "tickets",
					"outputs": [
						{
							"internalType": "uint256",
							"name": "",
							"type": "uint256"
						}
					],
					"stateMutability": "view",
					"type": "function"
				}
			],
			"devdoc": {
				"kind": "dev",
				"methods": {},
				"version": 1
			},
			"evm": {
				"assembly": "    /* \"Projects/02_Event_Management.sol\":75:2981  contract EventManagement {\r... */\n  mstore(0x40, 0x80)\n    /* \"Projects/02_Event_Management.sol\":425:494  constructor() {\r... */\n  callvalue\n  dup1\n  iszero\n  tag_1\n  jumpi\n  0x00\n  dup1\n  revert\ntag_1:\n  pop\n    /* \"Projects/02_Event_Management.sol\":475:485  msg.sender */\n  caller\n    /* \"Projects/02_Event_Management.sol\":450:464  owner_contract */\n  0x00\n  dup1\n    /* \"Projects/02_Event_Management.sol\":450:486  owner_contract = payable(msg.sender) */\n  0x0100\n  exp\n  dup2\n  sload\n  dup2\n  0xffffffffffffffffffffffffffffffffffffffff\n  mul\n  not\n  and\n  swap1\n  dup4\n  0xffffffffffffffffffffffffffffffffffffffff\n  and\n  mul\n  or\n  swap1\n  sstore\n  pop\n    /* \"Projects/02_Event_Management.sol\":75:2981  contract EventManagement {\r... */\n  dataSize(sub_0)\n  dup1\n  dataOffset(sub_0)\n  0x00\n  codecopy\n  0x00\n  return\nstop\n\nsub_0: assembly {\n        /* \"Projects/02_Event_Management.sol\":75:2981  contract EventManagement {\r... */\n      mstore(0x40, 0x80)\n      jumpi(tag_1, lt(calldatasize, 0x04))\n      shr(0xe0, calldataload(0x00))\n      dup1\n      0x0b791430\n      eq\n      tag_2\n      jumpi\n      dup1\n      0x1ea547ed\n      eq\n      tag_3\n      jumpi\n      dup1\n      0xc71e7edc\n      eq\n      tag_4\n      jumpi\n      dup1\n      0xdae7a13c\n      eq\n      tag_5\n      jumpi\n      dup1\n      0xee3bf803\n      eq\n      tag_6\n      jumpi\n    tag_1:\n      0x00\n      dup1\n      revert\n        /* \"Projects/02_Event_Management.sol\":330:351  Event[] public events */\n    tag_2:\n      callvalue\n      dup1\n      iszero\n      tag_7\n      jumpi\n      0x00\n      dup1\n      revert\n    tag_7:\n      pop\n      tag_8\n      0x04\n      dup1\n      calldatasize\n      sub\n      dup2\n      add\n      swap1\n      tag_9\n      swap2\n      swap1\n      tag_10\n      jump\t// in\n    tag_9:\n      tag_11\n      jump\t// in\n    tag_8:\n      mload(0x40)\n      tag_12\n      swap6\n      swap5\n      swap4\n      swap3\n      swap2\n      swap1\n      tag_13\n      jump\t// in\n    tag_12:\n      mload(0x40)\n      dup1\n      swap2\n      sub\n      swap1\n      return\n        /* \"Projects/02_Event_Management.sol\":2506:2976  function send_ticket(address _receiver, uint _event_index, uint _ticket_quantity) public {\r... */\n    tag_3:\n      callvalue\n      dup1\n      iszero\n      tag_14\n      jumpi\n      0x00\n      dup1\n      revert\n    tag_14:\n      pop\n      tag_15\n      0x04\n      dup1\n      calldatasize\n      sub\n      dup2\n      add\n      swap1\n      tag_16\n      swap2\n      swap1\n      tag_17\n      jump\t// in\n    tag_16:\n      tag_18\n      jump\t// in\n    tag_15:\n      stop\n        /* \"Projects/02_Event_Management.sol\":1578:2464  function buy_ticket(uint _event_index, uint _ticket_quantity) public payable {\r... */\n    tag_4:\n      tag_19\n      0x04\n      dup1\n      calldatasize\n      sub\n      dup2\n      add\n      swap1\n      tag_20\n      swap2\n      swap1\n      tag_21\n      jump\t// in\n    tag_20:\n      tag_22\n      jump\t// in\n    tag_19:\n      stop\n        /* \"Projects/02_Event_Management.sol\":358:414  mapping(address => mapping(uint => uint)) public tickets */\n    tag_5:\n      callvalue\n      dup1\n      iszero\n      tag_23\n      jumpi\n      0x00\n      dup1\n      revert\n    tag_23:\n      pop\n      tag_24\n      0x04\n      dup1\n      calldatasize\n      sub\n      dup2\n      add\n      swap1\n      tag_25\n      swap2\n      swap1\n      tag_26\n      jump\t// in\n    tag_25:\n      tag_27\n      jump\t// in\n    tag_24:\n      mload(0x40)\n      tag_28\n      swap2\n      swap1\n      tag_29\n      jump\t// in\n    tag_28:\n      mload(0x40)\n      dup1\n      swap2\n      sub\n      swap1\n      return\n        /* \"Projects/02_Event_Management.sol\":529:1538  function create_event(string memory _event_name, uint _event_date, uint _ticket_price, uint _ticket_count) public payable {\r... */\n    tag_6:\n      tag_30\n      0x04\n      dup1\n      calldatasize\n      sub\n      dup2\n      add\n      swap1\n      tag_31\n      swap2\n      swap1\n      tag_32\n      jump\t// in\n    tag_31:\n      tag_33\n      jump\t// in\n    tag_30:\n      stop\n        /* \"Projects/02_Event_Management.sol\":330:351  Event[] public events */\n    tag_11:\n      0x01\n      dup2\n      dup2\n      sload\n      dup2\n      lt\n      tag_34\n      jumpi\n      0x00\n      dup1\n      revert\n    tag_34:\n      swap1\n      0x00\n      mstore\n      keccak256(0x00, 0x20)\n      swap1\n      0x05\n      mul\n      add\n      0x00\n      swap2\n      pop\n      swap1\n      pop\n      dup1\n      0x00\n      add\n      0x00\n      swap1\n      sload\n      swap1\n      0x0100\n      exp\n      swap1\n      div\n      0xffffffffffffffffffffffffffffffffffffffff\n      and\n      swap1\n      dup1\n      0x01\n      add\n      dup1\n      sload\n      tag_36\n      swap1\n      tag_37\n      jump\t// in\n    tag_36:\n      dup1\n      0x1f\n      add\n      0x20\n      dup1\n      swap2\n      div\n      mul\n      0x20\n      add\n      mload(0x40)\n      swap1\n      dup2\n      add\n      0x40\n      mstore\n      dup1\n      swap3\n      swap2\n      swap1\n      dup2\n      dup2\n      mstore\n      0x20\n      add\n      dup3\n      dup1\n      sload\n      tag_38\n      swap1\n      tag_37\n      jump\t// in\n    tag_38:\n      dup1\n      iszero\n      tag_39\n      jumpi\n      dup1\n      0x1f\n      lt\n      tag_40\n      jumpi\n      0x0100\n      dup1\n      dup4\n      sload\n      div\n      mul\n      dup4\n      mstore\n      swap2\n      0x20\n      add\n      swap2\n      jump(tag_39)\n    tag_40:\n      dup3\n      add\n      swap2\n      swap1\n      0x00\n      mstore\n      keccak256(0x00, 0x20)\n      swap1\n    tag_41:\n      dup2\n      sload\n      dup2\n      mstore\n      swap1\n      0x01\n      add\n      swap1\n      0x20\n      add\n      dup1\n      dup4\n      gt\n      tag_41\n      jumpi\n      dup3\n      swap1\n      sub\n      0x1f\n      and\n      dup3\n      add\n      swap2\n    tag_39:\n      pop\n      pop\n      pop\n      pop\n      pop\n      swap1\n      dup1\n      0x02\n      add\n      sload\n      swap1\n      dup1\n      0x03\n      add\n      sload\n      swap1\n      dup1\n      0x04\n      add\n      sload\n      swap1\n      pop\n      dup6\n      jump\t// out\n        /* \"Projects/02_Event_Management.sol\":2506:2976  function send_ticket(address _receiver, uint _event_index, uint _ticket_quantity) public {\r... */\n    tag_18:\n        /* \"Projects/02_Event_Management.sol\":2635:2636  0 */\n      0x00\n        /* \"Projects/02_Event_Management.sol\":2614:2637  _receiver != address(0) */\n      0xffffffffffffffffffffffffffffffffffffffff\n      and\n        /* \"Projects/02_Event_Management.sol\":2614:2623  _receiver */\n      dup4\n        /* \"Projects/02_Event_Management.sol\":2614:2637  _receiver != address(0) */\n      0xffffffffffffffffffffffffffffffffffffffff\n      and\n      eq\n      iszero\n        /* \"Projects/02_Event_Management.sol\":2606:2682  require(_receiver != address(0), \"Please enter a valid address of receiver\") */\n      tag_43\n      jumpi\n      mload(0x40)\n      0x08c379a000000000000000000000000000000000000000000000000000000000\n      dup2\n      mstore\n      0x04\n      add\n      tag_44\n      swap1\n      tag_45\n      jump\t// in\n    tag_44:\n      mload(0x40)\n      dup1\n      swap2\n      sub\n      swap1\n      revert\n    tag_43:\n        /* \"Projects/02_Event_Management.sol\":2738:2754  _ticket_quantity */\n      dup1\n        /* \"Projects/02_Event_Management.sol\":2701:2708  tickets */\n      0x02\n        /* \"Projects/02_Event_Management.sol\":2701:2720  tickets[msg.sender] */\n      0x00\n        /* \"Projects/02_Event_Management.sol\":2709:2719  msg.sender */\n      caller\n        /* \"Projects/02_Event_Management.sol\":2701:2720  tickets[msg.sender] */\n      0xffffffffffffffffffffffffffffffffffffffff\n      and\n      0xffffffffffffffffffffffffffffffffffffffff\n      and\n      dup2\n      mstore\n      0x20\n      add\n      swap1\n      dup2\n      mstore\n      0x20\n      add\n      0x00\n      keccak256\n        /* \"Projects/02_Event_Management.sol\":2701:2734  tickets[msg.sender][_event_index] */\n      0x00\n        /* \"Projects/02_Event_Management.sol\":2721:2733  _event_index */\n      dup5\n        /* \"Projects/02_Event_Management.sol\":2701:2734  tickets[msg.sender][_event_index] */\n      dup2\n      mstore\n      0x20\n      add\n      swap1\n      dup2\n      mstore\n      0x20\n      add\n      0x00\n      keccak256\n      sload\n        /* \"Projects/02_Event_Management.sol\":2701:2754  tickets[msg.sender][_event_index] >= _ticket_quantity */\n      lt\n      iszero\n        /* \"Projects/02_Event_Management.sol\":2693:2810  require(tickets[msg.sender][_event_index] >= _ticket_quantity, \"You don't have enought ticket of this event to send\") */\n      tag_46\n      jumpi\n      mload(0x40)\n      0x08c379a000000000000000000000000000000000000000000000000000000000\n      dup2\n      mstore\n      0x04\n      add\n      tag_47\n      swap1\n      tag_48\n      jump\t// in\n    tag_47:\n      mload(0x40)\n      dup1\n      swap2\n      sub\n      swap1\n      revert\n    tag_46:\n        /* \"Projects/02_Event_Management.sol\":2889:2905  _ticket_quantity */\n      dup1\n        /* \"Projects/02_Event_Management.sol\":2852:2859  tickets */\n      0x02\n        /* \"Projects/02_Event_Management.sol\":2852:2871  tickets[msg.sender] */\n      0x00\n        /* \"Projects/02_Event_Management.sol\":2860:2870  msg.sender */\n      caller\n        /* \"Projects/02_Event_Management.sol\":2852:2871  tickets[msg.sender] */\n      0xffffffffffffffffffffffffffffffffffffffff\n      and\n      0xffffffffffffffffffffffffffffffffffffffff\n      and\n      dup2\n      mstore\n      0x20\n      add\n      swap1\n      dup2\n      mstore\n      0x20\n      add\n      0x00\n      keccak256\n        /* \"Projects/02_Event_Management.sol\":2852:2885  tickets[msg.sender][_event_index] */\n      0x00\n        /* \"Projects/02_Event_Management.sol\":2872:2884  _event_index */\n      dup5\n        /* \"Projects/02_Event_Management.sol\":2852:2885  tickets[msg.sender][_event_index] */\n      dup2\n      mstore\n      0x20\n      add\n      swap1\n      dup2\n      mstore\n      0x20\n      add\n      0x00\n      keccak256\n      0x00\n        /* \"Projects/02_Event_Management.sol\":2852:2905  tickets[msg.sender][_event_index] -= _ticket_quantity */\n      dup3\n      dup3\n      sload\n      tag_49\n      swap2\n      swap1\n      tag_50\n      jump\t// in\n    tag_49:\n      swap3\n      pop\n      pop\n      dup2\n      swap1\n      sstore\n      pop\n        /* \"Projects/02_Event_Management.sol\":2952:2968  _ticket_quantity */\n      dup1\n        /* \"Projects/02_Event_Management.sol\":2916:2923  tickets */\n      0x02\n        /* \"Projects/02_Event_Management.sol\":2916:2934  tickets[_receiver] */\n      0x00\n        /* \"Projects/02_Event_Management.sol\":2924:2933  _receiver */\n      dup6\n        /* \"Projects/02_Event_Management.sol\":2916:2934  tickets[_receiver] */\n      0xffffffffffffffffffffffffffffffffffffffff\n      and\n      0xffffffffffffffffffffffffffffffffffffffff\n      and\n      dup2\n      mstore\n      0x20\n      add\n      swap1\n      dup2\n      mstore\n      0x20\n      add\n      0x00\n      keccak256\n        /* \"Projects/02_Event_Management.sol\":2916:2948  tickets[_receiver][_event_index] */\n      0x00\n        /* \"Projects/02_Event_Management.sol\":2935:2947  _event_index */\n      dup5\n        /* \"Projects/02_Event_Management.sol\":2916:2948  tickets[_receiver][_event_index] */\n      dup2\n      mstore\n      0x20\n      add\n      swap1\n      dup2\n      mstore\n      0x20\n      add\n      0x00\n      keccak256\n      0x00\n        /* \"Projects/02_Event_Management.sol\":2916:2968  tickets[_receiver][_event_index] += _ticket_quantity */\n      dup3\n      dup3\n      sload\n      tag_51\n      swap2\n      swap1\n      tag_52\n      jump\t// in\n    tag_51:\n      swap3\n      pop\n      pop\n      dup2\n      swap1\n      sstore\n      pop\n        /* \"Projects/02_Event_Management.sol\":2506:2976  function send_ticket(address _receiver, uint _event_index, uint _ticket_quantity) public {\r... */\n      pop\n      pop\n      pop\n      jump\t// out\n        /* \"Projects/02_Event_Management.sol\":1578:2464  function buy_ticket(uint _event_index, uint _ticket_quantity) public payable {\r... */\n    tag_22:\n        /* \"Projects/02_Event_Management.sol\":1726:1732  events */\n      0x01\n        /* \"Projects/02_Event_Management.sol\":1726:1739  events.length */\n      dup1\n      sload\n      swap1\n      pop\n        /* \"Projects/02_Event_Management.sol\":1711:1723  _event_index */\n      dup3\n        /* \"Projects/02_Event_Management.sol\":1711:1739  _event_index < events.length */\n      lt\n        /* \"Projects/02_Event_Management.sol\":1703:1768  require(_event_index < events.length, \"No events on this index.\") */\n      tag_54\n      jumpi\n      mload(0x40)\n      0x08c379a000000000000000000000000000000000000000000000000000000000\n      dup2\n      mstore\n      0x04\n      add\n      tag_55\n      swap1\n      tag_56\n      jump\t// in\n    tag_55:\n      mload(0x40)\n      dup1\n      swap2\n      sub\n      swap1\n      revert\n    tag_54:\n        /* \"Projects/02_Event_Management.sol\":1821:1836  block.timestamp */\n      timestamp\n        /* \"Projects/02_Event_Management.sol\":1787:1793  events */\n      0x01\n        /* \"Projects/02_Event_Management.sol\":1794:1806  _event_index */\n      dup4\n        /* \"Projects/02_Event_Management.sol\":1787:1807  events[_event_index] */\n      dup2\n      sload\n      dup2\n      lt\n      tag_57\n      jumpi\n      tag_58\n      tag_59\n      jump\t// in\n    tag_58:\n    tag_57:\n      swap1\n      0x00\n      mstore\n      keccak256(0x00, 0x20)\n      swap1\n      0x05\n      mul\n      add\n        /* \"Projects/02_Event_Management.sol\":1787:1818  events[_event_index].event_date */\n      0x02\n      add\n      sload\n        /* \"Projects/02_Event_Management.sol\":1787:1836  events[_event_index].event_date > block.timestamp */\n      gt\n        /* \"Projects/02_Event_Management.sol\":1779:1872  require(events[_event_index].event_date > block.timestamp, \"Sorry this show already finshed\") */\n      tag_61\n      jumpi\n      mload(0x40)\n      0x08c379a000000000000000000000000000000000000000000000000000000000\n      dup2\n      mstore\n      0x04\n      add\n      tag_62\n      swap1\n      tag_63\n      jump\t// in\n    tag_62:\n      mload(0x40)\n      dup1\n      swap2\n      sub\n      swap1\n      revert\n    tag_61:\n        /* \"Projects/02_Event_Management.sol\":1911:1912  0 */\n      0x00\n        /* \"Projects/02_Event_Management.sol\":1891:1907  _ticket_quantity */\n      dup2\n        /* \"Projects/02_Event_Management.sol\":1891:1912  _ticket_quantity != 0 */\n      eq\n      iszero\n        /* \"Projects/02_Event_Management.sol\":1883:1943  require(_ticket_quantity != 0, \"Please select some tickets\") */\n      tag_64\n      jumpi\n      mload(0x40)\n      0x08c379a000000000000000000000000000000000000000000000000000000000\n      dup2\n      mstore\n      0x04\n      add\n      tag_65\n      swap1\n      tag_66\n      jump\t// in\n    tag_65:\n      mload(0x40)\n      dup1\n      swap2\n      sub\n      swap1\n      revert\n    tag_64:\n        /* \"Projects/02_Event_Management.sol\":1982:1988  events */\n      0x01\n        /* \"Projects/02_Event_Management.sol\":1989:2001  _event_index */\n      dup3\n        /* \"Projects/02_Event_Management.sol\":1982:2002  events[_event_index] */\n      dup2\n      sload\n      dup2\n      lt\n      tag_67\n      jumpi\n      tag_68\n      tag_59\n      jump\t// in\n    tag_68:\n    tag_67:\n      swap1\n      0x00\n      mstore\n      keccak256(0x00, 0x20)\n      swap1\n      0x05\n      mul\n      add\n        /* \"Projects/02_Event_Management.sol\":1982:2015  events[_event_index].ticket_count */\n      0x04\n      add\n      sload\n        /* \"Projects/02_Event_Management.sol\":1962:1978  _ticket_quantity */\n      dup2\n        /* \"Projects/02_Event_Management.sol\":1962:2015  _ticket_quantity <= events[_event_index].ticket_count */\n      gt\n      iszero\n        /* \"Projects/02_Event_Management.sol\":1954:2060  require(_ticket_quantity <= events[_event_index].ticket_count, \"Sorry no more ticket left for this event\") */\n      tag_70\n      jumpi\n      mload(0x40)\n      0x08c379a000000000000000000000000000000000000000000000000000000000\n      dup2\n      mstore\n      0x04\n      add\n      tag_71\n      swap1\n      tag_72\n      jump\t// in\n    tag_71:\n      mload(0x40)\n      dup1\n      swap2\n      sub\n      swap1\n      revert\n    tag_70:\n        /* \"Projects/02_Event_Management.sol\":2128:2144  _ticket_quantity */\n      dup1\n        /* \"Projects/02_Event_Management.sol\":2092:2098  events */\n      0x01\n        /* \"Projects/02_Event_Management.sol\":2099:2111  _event_index */\n      dup4\n        /* \"Projects/02_Event_Management.sol\":2092:2112  events[_event_index] */\n      dup2\n      sload\n      dup2\n      lt\n      tag_73\n      jumpi\n      tag_74\n      tag_59\n      jump\t// in\n    tag_74:\n    tag_73:\n      swap1\n      0x00\n      mstore\n      keccak256(0x00, 0x20)\n      swap1\n      0x05\n      mul\n      add\n        /* \"Projects/02_Event_Management.sol\":2092:2125  events[_event_index].ticket_price */\n      0x03\n      add\n      sload\n        /* \"Projects/02_Event_Management.sol\":2092:2144  events[_event_index].ticket_price * _ticket_quantity */\n      tag_76\n      swap2\n      swap1\n      tag_77\n      jump\t// in\n    tag_76:\n        /* \"Projects/02_Event_Management.sol\":2079:2088  msg.value */\n      callvalue\n        /* \"Projects/02_Event_Management.sol\":2079:2144  msg.value == events[_event_index].ticket_price * _ticket_quantity */\n      eq\n        /* \"Projects/02_Event_Management.sol\":2071:2185  require(msg.value == events[_event_index].ticket_price * _ticket_quantity, \"Transact sufficient fund for tickets\") */\n      tag_78\n      jumpi\n      mload(0x40)\n      0x08c379a000000000000000000000000000000000000000000000000000000000\n      dup2\n      mstore\n      0x04\n      add\n      tag_79\n      swap1\n      tag_80\n      jump\t// in\n    tag_79:\n      mload(0x40)\n      dup1\n      swap2\n      sub\n      swap1\n      revert\n    tag_78:\n        /* \"Projects/02_Event_Management.sol\":2307:2323  _ticket_quantity */\n      dup1\n        /* \"Projects/02_Event_Management.sol\":2271:2278  tickets */\n      0x02\n        /* \"Projects/02_Event_Management.sol\":2271:2290  tickets[msg.sender] */\n      0x00\n        /* \"Projects/02_Event_Management.sol\":2279:2289  msg.sender */\n      caller\n        /* \"Projects/02_Event_Management.sol\":2271:2290  tickets[msg.sender] */\n      0xffffffffffffffffffffffffffffffffffffffff\n      and\n      0xffffffffffffffffffffffffffffffffffffffff\n      and\n      dup2\n      mstore\n      0x20\n      add\n      swap1\n      dup2\n      mstore\n      0x20\n      add\n      0x00\n      keccak256\n        /* \"Projects/02_Event_Management.sol\":2271:2304  tickets[msg.sender][_event_index] */\n      0x00\n        /* \"Projects/02_Event_Management.sol\":2291:2303  _event_index */\n      dup5\n        /* \"Projects/02_Event_Management.sol\":2271:2304  tickets[msg.sender][_event_index] */\n      dup2\n      mstore\n      0x20\n      add\n      swap1\n      dup2\n      mstore\n      0x20\n      add\n      0x00\n      keccak256\n        /* \"Projects/02_Event_Management.sol\":2271:2323  tickets[msg.sender][_event_index] = _ticket_quantity */\n      dup2\n      swap1\n      sstore\n      pop\n        /* \"Projects/02_Event_Management.sol\":2342:2348  events */\n      0x01\n        /* \"Projects/02_Event_Management.sol\":2349:2361  _event_index */\n      dup3\n        /* \"Projects/02_Event_Management.sol\":2342:2362  events[_event_index] */\n      dup2\n      sload\n      dup2\n      lt\n      tag_81\n      jumpi\n      tag_82\n      tag_59\n      jump\t// in\n    tag_82:\n    tag_81:\n      swap1\n      0x00\n      mstore\n      keccak256(0x00, 0x20)\n      swap1\n      0x05\n      mul\n      add\n        /* \"Projects/02_Event_Management.sol\":2342:2372  events[_event_index].organizer */\n      0x00\n      add\n      0x00\n      swap1\n      sload\n      swap1\n      0x0100\n      exp\n      swap1\n      div\n      0xffffffffffffffffffffffffffffffffffffffff\n      and\n        /* \"Projects/02_Event_Management.sol\":2334:2382  payable(events[_event_index].organizer).transfer */\n      0xffffffffffffffffffffffffffffffffffffffff\n      and\n        /* \"Projects/02_Event_Management.sol\":2334:2393  payable(events[_event_index].organizer).transfer(msg.value) */\n      0x08fc\n        /* \"Projects/02_Event_Management.sol\":2383:2392  msg.value */\n      callvalue\n        /* \"Projects/02_Event_Management.sol\":2334:2393  payable(events[_event_index].organizer).transfer(msg.value) */\n      swap1\n      dup2\n      iszero\n      mul\n      swap1\n      mload(0x40)\n      0x00\n      mload(0x40)\n      dup1\n      dup4\n      sub\n      dup2\n      dup6\n      dup9\n      dup9\n      call\n      swap4\n      pop\n      pop\n      pop\n      pop\n      iszero\n      dup1\n      iszero\n      tag_85\n      jumpi\n      returndatasize\n      0x00\n      dup1\n      returndatacopy\n      revert(0x00, returndatasize)\n    tag_85:\n      pop\n        /* \"Projects/02_Event_Management.sol\":1578:2464  function buy_ticket(uint _event_index, uint _ticket_quantity) public payable {\r... */\n      pop\n      pop\n      jump\t// out\n        /* \"Projects/02_Event_Management.sol\":358:414  mapping(address => mapping(uint => uint)) public tickets */\n    tag_27:\n      mstore(0x20, 0x02)\n      dup2\n      0x00\n      mstore\n      mstore(0x20, keccak256(0x00, 0x40))\n      dup1\n      0x00\n      mstore\n      keccak256(0x00, 0x40)\n      0x00\n      swap2\n      pop\n      swap2\n      pop\n      pop\n      sload\n      dup2\n      jump\t// out\n        /* \"Projects/02_Event_Management.sol\":529:1538  function create_event(string memory _event_name, uint _event_date, uint _ticket_price, uint _ticket_count) public payable {\r... */\n    tag_33:\n        /* \"Projects/02_Event_Management.sol\":725:739  owner_contract */\n      0x00\n      dup1\n      sload\n      swap1\n      0x0100\n      exp\n      swap1\n      div\n      0xffffffffffffffffffffffffffffffffffffffff\n      and\n        /* \"Projects/02_Event_Management.sol\":711:739  msg.sender != owner_contract */\n      0xffffffffffffffffffffffffffffffffffffffff\n      and\n        /* \"Projects/02_Event_Management.sol\":711:721  msg.sender */\n      caller\n        /* \"Projects/02_Event_Management.sol\":711:739  msg.sender != owner_contract */\n      0xffffffffffffffffffffffffffffffffffffffff\n      and\n      eq\n      iszero\n        /* \"Projects/02_Event_Management.sol\":711:767  msg.sender != owner_contract && msg.sender != address(0) */\n      dup1\n      iszero\n      tag_87\n      jumpi\n      pop\n        /* \"Projects/02_Event_Management.sol\":765:766  0 */\n      0x00\n        /* \"Projects/02_Event_Management.sol\":743:767  msg.sender != address(0) */\n      0xffffffffffffffffffffffffffffffffffffffff\n      and\n        /* \"Projects/02_Event_Management.sol\":743:753  msg.sender */\n      caller\n        /* \"Projects/02_Event_Management.sol\":743:767  msg.sender != address(0) */\n      0xffffffffffffffffffffffffffffffffffffffff\n      and\n      eq\n      iszero\n        /* \"Projects/02_Event_Management.sol\":711:767  msg.sender != owner_contract && msg.sender != address(0) */\n    tag_87:\n        /* \"Projects/02_Event_Management.sol\":703:822  require(msg.sender != owner_contract && msg.sender != address(0), \"Enter a valid address or owner can't host an event\") */\n      tag_88\n      jumpi\n      mload(0x40)\n      0x08c379a000000000000000000000000000000000000000000000000000000000\n      dup2\n      mstore\n      0x04\n      add\n      tag_89\n      swap1\n      tag_90\n      jump\t// in\n    tag_89:\n      mload(0x40)\n      dup1\n      swap2\n      sub\n      swap1\n      revert\n    tag_88:\n        /* \"Projects/02_Event_Management.sol\":856:857  0 */\n      0x00\n        /* \"Projects/02_Event_Management.sol\":841:852  _event_date */\n      dup4\n        /* \"Projects/02_Event_Management.sol\":841:857  _event_date != 0 */\n      eq\n      iszero\n        /* \"Projects/02_Event_Management.sol\":841:890  _event_date != 0 && _event_date > block.timestamp */\n      dup1\n      iszero\n      tag_91\n      jumpi\n      pop\n        /* \"Projects/02_Event_Management.sol\":875:890  block.timestamp */\n      timestamp\n        /* \"Projects/02_Event_Management.sol\":861:872  _event_date */\n      dup4\n        /* \"Projects/02_Event_Management.sol\":861:890  _event_date > block.timestamp */\n      gt\n        /* \"Projects/02_Event_Management.sol\":841:890  _event_date != 0 && _event_date > block.timestamp */\n    tag_91:\n        /* \"Projects/02_Event_Management.sol\":833:930  require(_event_date != 0 && _event_date > block.timestamp, \"Please enter a valid date in future\") */\n      tag_92\n      jumpi\n      mload(0x40)\n      0x08c379a000000000000000000000000000000000000000000000000000000000\n      dup2\n      mstore\n      0x04\n      add\n      tag_93\n      swap1\n      tag_94\n      jump\t// in\n    tag_93:\n      mload(0x40)\n      dup1\n      swap2\n      sub\n      swap1\n      revert\n    tag_92:\n        /* \"Projects/02_Event_Management.sol\":965:966  0 */\n      0x00\n        /* \"Projects/02_Event_Management.sol\":949:962  _ticket_count */\n      dup2\n        /* \"Projects/02_Event_Management.sol\":949:966  _ticket_count > 0 */\n      gt\n        /* \"Projects/02_Event_Management.sol\":941:997  require(_ticket_count > 0, \"Please create some tickets\") */\n      tag_95\n      jumpi\n      mload(0x40)\n      0x08c379a000000000000000000000000000000000000000000000000000000000\n      dup2\n      mstore\n      0x04\n      add\n      tag_96\n      swap1\n      tag_97\n      jump\t// in\n    tag_96:\n      mload(0x40)\n      dup1\n      swap2\n      sub\n      swap1\n      revert\n    tag_95:\n        /* \"Projects/02_Event_Management.sol\":1092:1093  0 */\n      0x00\n        /* \"Projects/02_Event_Management.sol\":1075:1088  _ticket_price */\n      dup3\n        /* \"Projects/02_Event_Management.sol\":1075:1093  _ticket_price != 0 */\n      eq\n        /* \"Projects/02_Event_Management.sol\":1071:1208  if (_ticket_price != 0) {\r... */\n      tag_98\n      jumpi\n        /* \"Projects/02_Event_Management.sol\":1131:1139  1000 wei */\n      0x03e8\n        /* \"Projects/02_Event_Management.sol\":1118:1127  msg.value */\n      callvalue\n        /* \"Projects/02_Event_Management.sol\":1118:1139  msg.value == 1000 wei */\n      eq\n        /* \"Projects/02_Event_Management.sol\":1110:1196  require(msg.value == 1000 wei, \"Please pay sufficient fund for organizing your event\") */\n      tag_99\n      jumpi\n      mload(0x40)\n      0x08c379a000000000000000000000000000000000000000000000000000000000\n      dup2\n      mstore\n      0x04\n      add\n      tag_100\n      swap1\n      tag_101\n      jump\t// in\n    tag_100:\n      mload(0x40)\n      dup1\n      swap2\n      sub\n      swap1\n      revert\n    tag_99:\n        /* \"Projects/02_Event_Management.sol\":1071:1208  if (_ticket_price != 0) {\r... */\n    tag_98:\n        /* \"Projects/02_Event_Management.sol\":1282:1304  Event memory new_event */\n      0x00\n        /* \"Projects/02_Event_Management.sol\":1307:1385  Event(payable(msg.sender),_event_name,_event_date,_ticket_price,_ticket_count) */\n      mload(0x40)\n      dup1\n      0xa0\n      add\n      0x40\n      mstore\n      dup1\n        /* \"Projects/02_Event_Management.sol\":1321:1331  msg.sender */\n      caller\n        /* \"Projects/02_Event_Management.sol\":1307:1385  Event(payable(msg.sender),_event_name,_event_date,_ticket_price,_ticket_count) */\n      0xffffffffffffffffffffffffffffffffffffffff\n      and\n      dup2\n      mstore\n      0x20\n      add\n        /* \"Projects/02_Event_Management.sol\":1333:1344  _event_name */\n      dup7\n        /* \"Projects/02_Event_Management.sol\":1307:1385  Event(payable(msg.sender),_event_name,_event_date,_ticket_price,_ticket_count) */\n      dup2\n      mstore\n      0x20\n      add\n        /* \"Projects/02_Event_Management.sol\":1345:1356  _event_date */\n      dup6\n        /* \"Projects/02_Event_Management.sol\":1307:1385  Event(payable(msg.sender),_event_name,_event_date,_ticket_price,_ticket_count) */\n      dup2\n      mstore\n      0x20\n      add\n        /* \"Projects/02_Event_Management.sol\":1357:1370  _ticket_price */\n      dup5\n        /* \"Projects/02_Event_Management.sol\":1307:1385  Event(payable(msg.sender),_event_name,_event_date,_ticket_price,_ticket_count) */\n      dup2\n      mstore\n      0x20\n      add\n        /* \"Projects/02_Event_Management.sol\":1371:1384  _ticket_count */\n      dup4\n        /* \"Projects/02_Event_Management.sol\":1307:1385  Event(payable(msg.sender),_event_name,_event_date,_ticket_price,_ticket_count) */\n      dup2\n      mstore\n      pop\n        /* \"Projects/02_Event_Management.sol\":1282:1385  Event memory new_event = Event(payable(msg.sender),_event_name,_event_date,_ticket_price,_ticket_count) */\n      swap1\n      pop\n        /* \"Projects/02_Event_Management.sol\":1396:1402  events */\n      0x01\n        /* \"Projects/02_Event_Management.sol\":1408:1417  new_event */\n      dup2\n        /* \"Projects/02_Event_Management.sol\":1396:1418  events.push(new_event) */\n      swap1\n      dup1\n      0x01\n      dup2\n      sload\n      add\n      dup1\n      dup3\n      sstore\n      dup1\n      swap2\n      pop\n      pop\n      0x01\n      swap1\n      sub\n      swap1\n      0x00\n      mstore\n      keccak256(0x00, 0x20)\n      swap1\n      0x05\n      mul\n      add\n      0x00\n      swap1\n      swap2\n      swap1\n      swap2\n      swap1\n      swap2\n      pop\n      0x00\n      dup3\n      add\n      mload\n      dup2\n      0x00\n      add\n      exp(0x0100, 0x00)\n      dup2\n      sload\n      dup2\n      0xffffffffffffffffffffffffffffffffffffffff\n      mul\n      not\n      and\n      swap1\n      dup4\n      0xffffffffffffffffffffffffffffffffffffffff\n      and\n      mul\n      or\n      swap1\n      sstore\n      pop\n      0x20\n      dup3\n      add\n      mload\n      dup2\n      0x01\n      add\n      swap1\n      dup1\n      mload\n      swap1\n      0x20\n      add\n      swap1\n      tag_103\n      swap3\n      swap2\n      swap1\n      tag_104\n      jump\t// in\n    tag_103:\n      pop\n      0x40\n      dup3\n      add\n      mload\n      dup2\n      0x02\n      add\n      sstore\n      0x60\n      dup3\n      add\n      mload\n      dup2\n      0x03\n      add\n      sstore\n      0x80\n      dup3\n      add\n      mload\n      dup2\n      0x04\n      add\n      sstore\n      pop\n      pop\n        /* \"Projects/02_Event_Management.sol\":1496:1510  owner_contract */\n      0x00\n      dup1\n      sload\n      swap1\n      0x0100\n      exp\n      swap1\n      div\n      0xffffffffffffffffffffffffffffffffffffffff\n      and\n        /* \"Projects/02_Event_Management.sol\":1496:1519  owner_contract.transfer */\n      0xffffffffffffffffffffffffffffffffffffffff\n      and\n        /* \"Projects/02_Event_Management.sol\":1496:1530  owner_contract.transfer(msg.value) */\n      0x08fc\n        /* \"Projects/02_Event_Management.sol\":1520:1529  msg.value */\n      callvalue\n        /* \"Projects/02_Event_Management.sol\":1496:1530  owner_contract.transfer(msg.value) */\n      swap1\n      dup2\n      iszero\n      mul\n      swap1\n      mload(0x40)\n      0x00\n      mload(0x40)\n      dup1\n      dup4\n      sub\n      dup2\n      dup6\n      dup9\n      dup9\n      call\n      swap4\n      pop\n      pop\n      pop\n      pop\n      iszero\n      dup1\n      iszero\n      tag_106\n      jumpi\n      returndatasize\n      0x00\n      dup1\n      returndatacopy\n      revert(0x00, returndatasize)\n    tag_106:\n      pop\n        /* \"Projects/02_Event_Management.sol\":651:1538  {\r... */\n      pop\n        /* \"Projects/02_Event_Management.sol\":529:1538  function create_event(string memory _event_name, uint _event_date, uint _ticket_price, uint _ticket_count) public payable {\r... */\n      pop\n      pop\n      pop\n      pop\n      jump\t// out\n    tag_104:\n      dup3\n      dup1\n      sload\n      tag_107\n      swap1\n      tag_37\n      jump\t// in\n    tag_107:\n      swap1\n      0x00\n      mstore\n      keccak256(0x00, 0x20)\n      swap1\n      0x1f\n      add\n      0x20\n      swap1\n      div\n      dup2\n      add\n      swap3\n      dup3\n      tag_109\n      jumpi\n      0x00\n      dup6\n      sstore\n      jump(tag_108)\n    tag_109:\n      dup3\n      0x1f\n      lt\n      tag_110\n      jumpi\n      dup1\n      mload\n      not(0xff)\n      and\n      dup4\n      dup1\n      add\n      or\n      dup6\n      sstore\n      jump(tag_108)\n    tag_110:\n      dup3\n      dup1\n      add\n      0x01\n      add\n      dup6\n      sstore\n      dup3\n      iszero\n      tag_108\n      jumpi\n      swap2\n      dup3\n      add\n    tag_111:\n      dup3\n      dup2\n      gt\n      iszero\n      tag_112\n      jumpi\n      dup3\n      mload\n      dup3\n      sstore\n      swap2\n      0x20\n      add\n      swap2\n      swap1\n      0x01\n      add\n      swap1\n      jump(tag_111)\n    tag_112:\n    tag_108:\n      pop\n      swap1\n      pop\n      tag_113\n      swap2\n      swap1\n      tag_114\n      jump\t// in\n    tag_113:\n      pop\n      swap1\n      jump\t// out\n    tag_114:\n    tag_115:\n      dup1\n      dup3\n      gt\n      iszero\n      tag_116\n      jumpi\n      0x00\n      dup2\n      0x00\n      swap1\n      sstore\n      pop\n      0x01\n      add\n      jump(tag_115)\n    tag_116:\n      pop\n      swap1\n      jump\t// out\n        /* \"#utility.yul\":7:419   */\n    tag_118:\n        /* \"#utility.yul\":85:90   */\n      0x00\n        /* \"#utility.yul\":110:176   */\n      tag_120\n        /* \"#utility.yul\":126:175   */\n      tag_121\n        /* \"#utility.yul\":168:174   */\n      dup5\n        /* \"#utility.yul\":126:175   */\n      tag_122\n      jump\t// in\n    tag_121:\n        /* \"#utility.yul\":110:176   */\n      tag_123\n      jump\t// in\n    tag_120:\n        /* \"#utility.yul\":101:176   */\n      swap1\n      pop\n        /* \"#utility.yul\":199:205   */\n      dup3\n        /* \"#utility.yul\":192:197   */\n      dup2\n        /* \"#utility.yul\":185:206   */\n      mstore\n        /* \"#utility.yul\":237:241   */\n      0x20\n        /* \"#utility.yul\":230:235   */\n      dup2\n        /* \"#utility.yul\":226:242   */\n      add\n        /* \"#utility.yul\":275:278   */\n      dup5\n        /* \"#utility.yul\":266:272   */\n      dup5\n        /* \"#utility.yul\":261:264   */\n      dup5\n        /* \"#utility.yul\":257:273   */\n      add\n        /* \"#utility.yul\":254:279   */\n      gt\n        /* \"#utility.yul\":251:363   */\n      iszero\n      tag_124\n      jumpi\n        /* \"#utility.yul\":282:361   */\n      tag_125\n      tag_126\n      jump\t// in\n    tag_125:\n        /* \"#utility.yul\":251:363   */\n    tag_124:\n        /* \"#utility.yul\":372:413   */\n      tag_127\n        /* \"#utility.yul\":406:412   */\n      dup5\n        /* \"#utility.yul\":401:404   */\n      dup3\n        /* \"#utility.yul\":396:399   */\n      dup6\n        /* \"#utility.yul\":372:413   */\n      tag_128\n      jump\t// in\n    tag_127:\n        /* \"#utility.yul\":91:419   */\n      pop\n        /* \"#utility.yul\":7:419   */\n      swap4\n      swap3\n      pop\n      pop\n      pop\n      jump\t// out\n        /* \"#utility.yul\":425:564   */\n    tag_129:\n        /* \"#utility.yul\":471:476   */\n      0x00\n        /* \"#utility.yul\":509:515   */\n      dup2\n        /* \"#utility.yul\":496:516   */\n      calldataload\n        /* \"#utility.yul\":487:516   */\n      swap1\n      pop\n        /* \"#utility.yul\":525:558   */\n      tag_131\n        /* \"#utility.yul\":552:557   */\n      dup2\n        /* \"#utility.yul\":525:558   */\n      tag_132\n      jump\t// in\n    tag_131:\n        /* \"#utility.yul\":425:564   */\n      swap3\n      swap2\n      pop\n      pop\n      jump\t// out\n        /* \"#utility.yul\":584:924   */\n    tag_133:\n        /* \"#utility.yul\":640:645   */\n      0x00\n        /* \"#utility.yul\":689:692   */\n      dup3\n        /* \"#utility.yul\":682:686   */\n      0x1f\n        /* \"#utility.yul\":674:680   */\n      dup4\n        /* \"#utility.yul\":670:687   */\n      add\n        /* \"#utility.yul\":666:693   */\n      slt\n        /* \"#utility.yul\":656:778   */\n      tag_135\n      jumpi\n        /* \"#utility.yul\":697:776   */\n      tag_136\n      tag_137\n      jump\t// in\n    tag_136:\n        /* \"#utility.yul\":656:778   */\n    tag_135:\n        /* \"#utility.yul\":814:820   */\n      dup2\n        /* \"#utility.yul\":801:821   */\n      calldataload\n        /* \"#utility.yul\":839:918   */\n      tag_138\n        /* \"#utility.yul\":914:917   */\n      dup5\n        /* \"#utility.yul\":906:912   */\n      dup3\n        /* \"#utility.yul\":899:903   */\n      0x20\n        /* \"#utility.yul\":891:897   */\n      dup7\n        /* \"#utility.yul\":887:904   */\n      add\n        /* \"#utility.yul\":839:918   */\n      tag_118\n      jump\t// in\n    tag_138:\n        /* \"#utility.yul\":830:918   */\n      swap2\n      pop\n        /* \"#utility.yul\":646:924   */\n      pop\n        /* \"#utility.yul\":584:924   */\n      swap3\n      swap2\n      pop\n      pop\n      jump\t// out\n        /* \"#utility.yul\":930:1069   */\n    tag_139:\n        /* \"#utility.yul\":976:981   */\n      0x00\n        /* \"#utility.yul\":1014:1020   */\n      dup2\n        /* \"#utility.yul\":1001:1021   */\n      calldataload\n        /* \"#utility.yul\":992:1021   */\n      swap1\n      pop\n        /* \"#utility.yul\":1030:1063   */\n      tag_141\n        /* \"#utility.yul\":1057:1062   */\n      dup2\n        /* \"#utility.yul\":1030:1063   */\n      tag_142\n      jump\t// in\n    tag_141:\n        /* \"#utility.yul\":930:1069   */\n      swap3\n      swap2\n      pop\n      pop\n      jump\t// out\n        /* \"#utility.yul\":1075:1549   */\n    tag_26:\n        /* \"#utility.yul\":1143:1149   */\n      0x00\n        /* \"#utility.yul\":1151:1157   */\n      dup1\n        /* \"#utility.yul\":1200:1202   */\n      0x40\n        /* \"#utility.yul\":1188:1197   */\n      dup4\n        /* \"#utility.yul\":1179:1186   */\n      dup6\n        /* \"#utility.yul\":1175:1198   */\n      sub\n        /* \"#utility.yul\":1171:1203   */\n      slt\n        /* \"#utility.yul\":1168:1287   */\n      iszero\n      tag_144\n      jumpi\n        /* \"#utility.yul\":1206:1285   */\n      tag_145\n      tag_146\n      jump\t// in\n    tag_145:\n        /* \"#utility.yul\":1168:1287   */\n    tag_144:\n        /* \"#utility.yul\":1326:1327   */\n      0x00\n        /* \"#utility.yul\":1351:1404   */\n      tag_147\n        /* \"#utility.yul\":1396:1403   */\n      dup6\n        /* \"#utility.yul\":1387:1393   */\n      dup3\n        /* \"#utility.yul\":1376:1385   */\n      dup7\n        /* \"#utility.yul\":1372:1394   */\n      add\n        /* \"#utility.yul\":1351:1404   */\n      tag_129\n      jump\t// in\n    tag_147:\n        /* \"#utility.yul\":1341:1404   */\n      swap3\n      pop\n        /* \"#utility.yul\":1297:1414   */\n      pop\n        /* \"#utility.yul\":1453:1455   */\n      0x20\n        /* \"#utility.yul\":1479:1532   */\n      tag_148\n        /* \"#utility.yul\":1524:1531   */\n      dup6\n        /* \"#utility.yul\":1515:1521   */\n      dup3\n        /* \"#utility.yul\":1504:1513   */\n      dup7\n        /* \"#utility.yul\":1500:1522   */\n      add\n        /* \"#utility.yul\":1479:1532   */\n      tag_139\n      jump\t// in\n    tag_148:\n        /* \"#utility.yul\":1469:1532   */\n      swap2\n      pop\n        /* \"#utility.yul\":1424:1542   */\n      pop\n        /* \"#utility.yul\":1075:1549   */\n      swap3\n      pop\n      swap3\n      swap1\n      pop\n      jump\t// out\n        /* \"#utility.yul\":1555:2174   */\n    tag_17:\n        /* \"#utility.yul\":1632:1638   */\n      0x00\n        /* \"#utility.yul\":1640:1646   */\n      dup1\n        /* \"#utility.yul\":1648:1654   */\n      0x00\n        /* \"#utility.yul\":1697:1699   */\n      0x60\n        /* \"#utility.yul\":1685:1694   */\n      dup5\n        /* \"#utility.yul\":1676:1683   */\n      dup7\n        /* \"#utility.yul\":1672:1695   */\n      sub\n        /* \"#utility.yul\":1668:1700   */\n      slt\n        /* \"#utility.yul\":1665:1784   */\n      iszero\n      tag_150\n      jumpi\n        /* \"#utility.yul\":1703:1782   */\n      tag_151\n      tag_146\n      jump\t// in\n    tag_151:\n        /* \"#utility.yul\":1665:1784   */\n    tag_150:\n        /* \"#utility.yul\":1823:1824   */\n      0x00\n        /* \"#utility.yul\":1848:1901   */\n      tag_152\n        /* \"#utility.yul\":1893:1900   */\n      dup7\n        /* \"#utility.yul\":1884:1890   */\n      dup3\n        /* \"#utility.yul\":1873:1882   */\n      dup8\n        /* \"#utility.yul\":1869:1891   */\n      add\n        /* \"#utility.yul\":1848:1901   */\n      tag_129\n      jump\t// in\n    tag_152:\n        /* \"#utility.yul\":1838:1901   */\n      swap4\n      pop\n        /* \"#utility.yul\":1794:1911   */\n      pop\n        /* \"#utility.yul\":1950:1952   */\n      0x20\n        /* \"#utility.yul\":1976:2029   */\n      tag_153\n        /* \"#utility.yul\":2021:2028   */\n      dup7\n        /* \"#utility.yul\":2012:2018   */\n      dup3\n        /* \"#utility.yul\":2001:2010   */\n      dup8\n        /* \"#utility.yul\":1997:2019   */\n      add\n        /* \"#utility.yul\":1976:2029   */\n      tag_139\n      jump\t// in\n    tag_153:\n        /* \"#utility.yul\":1966:2029   */\n      swap3\n      pop\n        /* \"#utility.yul\":1921:2039   */\n      pop\n        /* \"#utility.yul\":2078:2080   */\n      0x40\n        /* \"#utility.yul\":2104:2157   */\n      tag_154\n        /* \"#utility.yul\":2149:2156   */\n      dup7\n        /* \"#utility.yul\":2140:2146   */\n      dup3\n        /* \"#utility.yul\":2129:2138   */\n      dup8\n        /* \"#utility.yul\":2125:2147   */\n      add\n        /* \"#utility.yul\":2104:2157   */\n      tag_139\n      jump\t// in\n    tag_154:\n        /* \"#utility.yul\":2094:2157   */\n      swap2\n      pop\n        /* \"#utility.yul\":2049:2167   */\n      pop\n        /* \"#utility.yul\":1555:2174   */\n      swap3\n      pop\n      swap3\n      pop\n      swap3\n      jump\t// out\n        /* \"#utility.yul\":2180:3125   */\n    tag_32:\n        /* \"#utility.yul\":2276:2282   */\n      0x00\n        /* \"#utility.yul\":2284:2290   */\n      dup1\n        /* \"#utility.yul\":2292:2298   */\n      0x00\n        /* \"#utility.yul\":2300:2306   */\n      dup1\n        /* \"#utility.yul\":2349:2352   */\n      0x80\n        /* \"#utility.yul\":2337:2346   */\n      dup6\n        /* \"#utility.yul\":2328:2335   */\n      dup8\n        /* \"#utility.yul\":2324:2347   */\n      sub\n        /* \"#utility.yul\":2320:2353   */\n      slt\n        /* \"#utility.yul\":2317:2437   */\n      iszero\n      tag_156\n      jumpi\n        /* \"#utility.yul\":2356:2435   */\n      tag_157\n      tag_146\n      jump\t// in\n    tag_157:\n        /* \"#utility.yul\":2317:2437   */\n    tag_156:\n        /* \"#utility.yul\":2504:2505   */\n      0x00\n        /* \"#utility.yul\":2493:2502   */\n      dup6\n        /* \"#utility.yul\":2489:2506   */\n      add\n        /* \"#utility.yul\":2476:2507   */\n      calldataload\n        /* \"#utility.yul\":2534:2552   */\n      0xffffffffffffffff\n        /* \"#utility.yul\":2526:2532   */\n      dup2\n        /* \"#utility.yul\":2523:2553   */\n      gt\n        /* \"#utility.yul\":2520:2637   */\n      iszero\n      tag_158\n      jumpi\n        /* \"#utility.yul\":2556:2635   */\n      tag_159\n      tag_160\n      jump\t// in\n    tag_159:\n        /* \"#utility.yul\":2520:2637   */\n    tag_158:\n        /* \"#utility.yul\":2661:2724   */\n      tag_161\n        /* \"#utility.yul\":2716:2723   */\n      dup8\n        /* \"#utility.yul\":2707:2713   */\n      dup3\n        /* \"#utility.yul\":2696:2705   */\n      dup9\n        /* \"#utility.yul\":2692:2714   */\n      add\n        /* \"#utility.yul\":2661:2724   */\n      tag_133\n      jump\t// in\n    tag_161:\n        /* \"#utility.yul\":2651:2724   */\n      swap5\n      pop\n        /* \"#utility.yul\":2447:2734   */\n      pop\n        /* \"#utility.yul\":2773:2775   */\n      0x20\n        /* \"#utility.yul\":2799:2852   */\n      tag_162\n        /* \"#utility.yul\":2844:2851   */\n      dup8\n        /* \"#utility.yul\":2835:2841   */\n      dup3\n        /* \"#utility.yul\":2824:2833   */\n      dup9\n        /* \"#utility.yul\":2820:2842   */\n      add\n        /* \"#utility.yul\":2799:2852   */\n      tag_139\n      jump\t// in\n    tag_162:\n        /* \"#utility.yul\":2789:2852   */\n      swap4\n      pop\n        /* \"#utility.yul\":2744:2862   */\n      pop\n        /* \"#utility.yul\":2901:2903   */\n      0x40\n        /* \"#utility.yul\":2927:2980   */\n      tag_163\n        /* \"#utility.yul\":2972:2979   */\n      dup8\n        /* \"#utility.yul\":2963:2969   */\n      dup3\n        /* \"#utility.yul\":2952:2961   */\n      dup9\n        /* \"#utility.yul\":2948:2970   */\n      add\n        /* \"#utility.yul\":2927:2980   */\n      tag_139\n      jump\t// in\n    tag_163:\n        /* \"#utility.yul\":2917:2980   */\n      swap3\n      pop\n        /* \"#utility.yul\":2872:2990   */\n      pop\n        /* \"#utility.yul\":3029:3031   */\n      0x60\n        /* \"#utility.yul\":3055:3108   */\n      tag_164\n        /* \"#utility.yul\":3100:3107   */\n      dup8\n        /* \"#utility.yul\":3091:3097   */\n      dup3\n        /* \"#utility.yul\":3080:3089   */\n      dup9\n        /* \"#utility.yul\":3076:3098   */\n      add\n        /* \"#utility.yul\":3055:3108   */\n      tag_139\n      jump\t// in\n    tag_164:\n        /* \"#utility.yul\":3045:3108   */\n      swap2\n      pop\n        /* \"#utility.yul\":3000:3118   */\n      pop\n        /* \"#utility.yul\":2180:3125   */\n      swap3\n      swap6\n      swap2\n      swap5\n      pop\n      swap3\n      pop\n      jump\t// out\n        /* \"#utility.yul\":3131:3460   */\n    tag_10:\n        /* \"#utility.yul\":3190:3196   */\n      0x00\n        /* \"#utility.yul\":3239:3241   */\n      0x20\n        /* \"#utility.yul\":3227:3236   */\n      dup3\n        /* \"#utility.yul\":3218:3225   */\n      dup5\n        /* \"#utility.yul\":3214:3237   */\n      sub\n        /* \"#utility.yul\":3210:3242   */\n      slt\n        /* \"#utility.yul\":3207:3326   */\n      iszero\n      tag_166\n      jumpi\n        /* \"#utility.yul\":3245:3324   */\n      tag_167\n      tag_146\n      jump\t// in\n    tag_167:\n        /* \"#utility.yul\":3207:3326   */\n    tag_166:\n        /* \"#utility.yul\":3365:3366   */\n      0x00\n        /* \"#utility.yul\":3390:3443   */\n      tag_168\n        /* \"#utility.yul\":3435:3442   */\n      dup5\n        /* \"#utility.yul\":3426:3432   */\n      dup3\n        /* \"#utility.yul\":3415:3424   */\n      dup6\n        /* \"#utility.yul\":3411:3433   */\n      add\n        /* \"#utility.yul\":3390:3443   */\n      tag_139\n      jump\t// in\n    tag_168:\n        /* \"#utility.yul\":3380:3443   */\n      swap2\n      pop\n        /* \"#utility.yul\":3336:3453   */\n      pop\n        /* \"#utility.yul\":3131:3460   */\n      swap3\n      swap2\n      pop\n      pop\n      jump\t// out\n        /* \"#utility.yul\":3466:3940   */\n    tag_21:\n        /* \"#utility.yul\":3534:3540   */\n      0x00\n        /* \"#utility.yul\":3542:3548   */\n      dup1\n        /* \"#utility.yul\":3591:3593   */\n      0x40\n        /* \"#utility.yul\":3579:3588   */\n      dup4\n        /* \"#utility.yul\":3570:3577   */\n      dup6\n        /* \"#utility.yul\":3566:3589   */\n      sub\n        /* \"#utility.yul\":3562:3594   */\n      slt\n        /* \"#utility.yul\":3559:3678   */\n      iszero\n      tag_170\n      jumpi\n        /* \"#utility.yul\":3597:3676   */\n      tag_171\n      tag_146\n      jump\t// in\n    tag_171:\n        /* \"#utility.yul\":3559:3678   */\n    tag_170:\n        /* \"#utility.yul\":3717:3718   */\n      0x00\n        /* \"#utility.yul\":3742:3795   */\n      tag_172\n        /* \"#utility.yul\":3787:3794   */\n      dup6\n        /* \"#utility.yul\":3778:3784   */\n      dup3\n        /* \"#utility.yul\":3767:3776   */\n      dup7\n        /* \"#utility.yul\":3763:3785   */\n      add\n        /* \"#utility.yul\":3742:3795   */\n      tag_139\n      jump\t// in\n    tag_172:\n        /* \"#utility.yul\":3732:3795   */\n      swap3\n      pop\n        /* \"#utility.yul\":3688:3805   */\n      pop\n        /* \"#utility.yul\":3844:3846   */\n      0x20\n        /* \"#utility.yul\":3870:3923   */\n      tag_173\n        /* \"#utility.yul\":3915:3922   */\n      dup6\n        /* \"#utility.yul\":3906:3912   */\n      dup3\n        /* \"#utility.yul\":3895:3904   */\n      dup7\n        /* \"#utility.yul\":3891:3913   */\n      add\n        /* \"#utility.yul\":3870:3923   */\n      tag_139\n      jump\t// in\n    tag_173:\n        /* \"#utility.yul\":3860:3923   */\n      swap2\n      pop\n        /* \"#utility.yul\":3815:3933   */\n      pop\n        /* \"#utility.yul\":3466:3940   */\n      swap3\n      pop\n      swap3\n      swap1\n      pop\n      jump\t// out\n        /* \"#utility.yul\":3946:4088   */\n    tag_174:\n        /* \"#utility.yul\":4049:4081   */\n      tag_176\n        /* \"#utility.yul\":4075:4080   */\n      dup2\n        /* \"#utility.yul\":4049:4081   */\n      tag_177\n      jump\t// in\n    tag_176:\n        /* \"#utility.yul\":4044:4047   */\n      dup3\n        /* \"#utility.yul\":4037:4082   */\n      mstore\n        /* \"#utility.yul\":3946:4088   */\n      pop\n      pop\n      jump\t// out\n        /* \"#utility.yul\":4094:4458   */\n    tag_178:\n        /* \"#utility.yul\":4182:4185   */\n      0x00\n        /* \"#utility.yul\":4210:4249   */\n      tag_180\n        /* \"#utility.yul\":4243:4248   */\n      dup3\n        /* \"#utility.yul\":4210:4249   */\n      tag_181\n      jump\t// in\n    tag_180:\n        /* \"#utility.yul\":4265:4336   */\n      tag_182\n        /* \"#utility.yul\":4329:4335   */\n      dup2\n        /* \"#utility.yul\":4324:4327   */\n      dup6\n        /* \"#utility.yul\":4265:4336   */\n      tag_183\n      jump\t// in\n    tag_182:\n        /* \"#utility.yul\":4258:4336   */\n      swap4\n      pop\n        /* \"#utility.yul\":4345:4397   */\n      tag_184\n        /* \"#utility.yul\":4390:4396   */\n      dup2\n        /* \"#utility.yul\":4385:4388   */\n      dup6\n        /* \"#utility.yul\":4378:4382   */\n      0x20\n        /* \"#utility.yul\":4371:4376   */\n      dup7\n        /* \"#utility.yul\":4367:4383   */\n      add\n        /* \"#utility.yul\":4345:4397   */\n      tag_185\n      jump\t// in\n    tag_184:\n        /* \"#utility.yul\":4422:4451   */\n      tag_186\n        /* \"#utility.yul\":4444:4450   */\n      dup2\n        /* \"#utility.yul\":4422:4451   */\n      tag_187\n      jump\t// in\n    tag_186:\n        /* \"#utility.yul\":4417:4420   */\n      dup5\n        /* \"#utility.yul\":4413:4452   */\n      add\n        /* \"#utility.yul\":4406:4452   */\n      swap2\n      pop\n        /* \"#utility.yul\":4186:4458   */\n      pop\n        /* \"#utility.yul\":4094:4458   */\n      swap3\n      swap2\n      pop\n      pop\n      jump\t// out\n        /* \"#utility.yul\":4464:4830   */\n    tag_188:\n        /* \"#utility.yul\":4606:4609   */\n      0x00\n        /* \"#utility.yul\":4627:4694   */\n      tag_190\n        /* \"#utility.yul\":4691:4693   */\n      0x34\n        /* \"#utility.yul\":4686:4689   */\n      dup4\n        /* \"#utility.yul\":4627:4694   */\n      tag_183\n      jump\t// in\n    tag_190:\n        /* \"#utility.yul\":4620:4694   */\n      swap2\n      pop\n        /* \"#utility.yul\":4703:4796   */\n      tag_191\n        /* \"#utility.yul\":4792:4795   */\n      dup3\n        /* \"#utility.yul\":4703:4796   */\n      tag_192\n      jump\t// in\n    tag_191:\n        /* \"#utility.yul\":4821:4823   */\n      0x40\n        /* \"#utility.yul\":4816:4819   */\n      dup3\n        /* \"#utility.yul\":4812:4824   */\n      add\n        /* \"#utility.yul\":4805:4824   */\n      swap1\n      pop\n        /* \"#utility.yul\":4464:4830   */\n      swap2\n      swap1\n      pop\n      jump\t// out\n        /* \"#utility.yul\":4836:5202   */\n    tag_193:\n        /* \"#utility.yul\":4978:4981   */\n      0x00\n        /* \"#utility.yul\":4999:5066   */\n      tag_195\n        /* \"#utility.yul\":5063:5065   */\n      0x1a\n        /* \"#utility.yul\":5058:5061   */\n      dup4\n        /* \"#utility.yul\":4999:5066   */\n      tag_183\n      jump\t// in\n    tag_195:\n        /* \"#utility.yul\":4992:5066   */\n      swap2\n      pop\n        /* \"#utility.yul\":5075:5168   */\n      tag_196\n        /* \"#utility.yul\":5164:5167   */\n      dup3\n        /* \"#utility.yul\":5075:5168   */\n      tag_197\n      jump\t// in\n    tag_196:\n        /* \"#utility.yul\":5193:5195   */\n      0x20\n        /* \"#utility.yul\":5188:5191   */\n      dup3\n        /* \"#utility.yul\":5184:5196   */\n      add\n        /* \"#utility.yul\":5177:5196   */\n      swap1\n      pop\n        /* \"#utility.yul\":4836:5202   */\n      swap2\n      swap1\n      pop\n      jump\t// out\n        /* \"#utility.yul\":5208:5574   */\n    tag_198:\n        /* \"#utility.yul\":5350:5353   */\n      0x00\n        /* \"#utility.yul\":5371:5438   */\n      tag_200\n        /* \"#utility.yul\":5435:5437   */\n      0x23\n        /* \"#utility.yul\":5430:5433   */\n      dup4\n        /* \"#utility.yul\":5371:5438   */\n      tag_183\n      jump\t// in\n    tag_200:\n        /* \"#utility.yul\":5364:5438   */\n      swap2\n      pop\n        /* \"#utility.yul\":5447:5540   */\n      tag_201\n        /* \"#utility.yul\":5536:5539   */\n      dup3\n        /* \"#utility.yul\":5447:5540   */\n      tag_202\n      jump\t// in\n    tag_201:\n        /* \"#utility.yul\":5565:5567   */\n      0x40\n        /* \"#utility.yul\":5560:5563   */\n      dup3\n        /* \"#utility.yul\":5556:5568   */\n      add\n        /* \"#utility.yul\":5549:5568   */\n      swap1\n      pop\n        /* \"#utility.yul\":5208:5574   */\n      swap2\n      swap1\n      pop\n      jump\t// out\n        /* \"#utility.yul\":5580:5946   */\n    tag_203:\n        /* \"#utility.yul\":5722:5725   */\n      0x00\n        /* \"#utility.yul\":5743:5810   */\n      tag_205\n        /* \"#utility.yul\":5807:5809   */\n      0x18\n        /* \"#utility.yul\":5802:5805   */\n      dup4\n        /* \"#utility.yul\":5743:5810   */\n      tag_183\n      jump\t// in\n    tag_205:\n        /* \"#utility.yul\":5736:5810   */\n      swap2\n      pop\n        /* \"#utility.yul\":5819:5912   */\n      tag_206\n        /* \"#utility.yul\":5908:5911   */\n      dup3\n        /* \"#utility.yul\":5819:5912   */\n      tag_207\n      jump\t// in\n    tag_206:\n        /* \"#utility.yul\":5937:5939   */\n      0x20\n        /* \"#utility.yul\":5932:5935   */\n      dup3\n        /* \"#utility.yul\":5928:5940   */\n      add\n        /* \"#utility.yul\":5921:5940   */\n      swap1\n      pop\n        /* \"#utility.yul\":5580:5946   */\n      swap2\n      swap1\n      pop\n      jump\t// out\n        /* \"#utility.yul\":5952:6318   */\n    tag_208:\n        /* \"#utility.yul\":6094:6097   */\n      0x00\n        /* \"#utility.yul\":6115:6182   */\n      tag_210\n        /* \"#utility.yul\":6179:6181   */\n      0x32\n        /* \"#utility.yul\":6174:6177   */\n      dup4\n        /* \"#utility.yul\":6115:6182   */\n      tag_183\n      jump\t// in\n    tag_210:\n        /* \"#utility.yul\":6108:6182   */\n      swap2\n      pop\n        /* \"#utility.yul\":6191:6284   */\n      tag_211\n        /* \"#utility.yul\":6280:6283   */\n      dup3\n        /* \"#utility.yul\":6191:6284   */\n      tag_212\n      jump\t// in\n    tag_211:\n        /* \"#utility.yul\":6309:6311   */\n      0x40\n        /* \"#utility.yul\":6304:6307   */\n      dup3\n        /* \"#utility.yul\":6300:6312   */\n      add\n        /* \"#utility.yul\":6293:6312   */\n      swap1\n      pop\n        /* \"#utility.yul\":5952:6318   */\n      swap2\n      swap1\n      pop\n      jump\t// out\n        /* \"#utility.yul\":6324:6690   */\n    tag_213:\n        /* \"#utility.yul\":6466:6469   */\n      0x00\n        /* \"#utility.yul\":6487:6554   */\n      tag_215\n        /* \"#utility.yul\":6551:6553   */\n      0x24\n        /* \"#utility.yul\":6546:6549   */\n      dup4\n        /* \"#utility.yul\":6487:6554   */\n      tag_183\n      jump\t// in\n    tag_215:\n        /* \"#utility.yul\":6480:6554   */\n      swap2\n      pop\n        /* \"#utility.yul\":6563:6656   */\n      tag_216\n        /* \"#utility.yul\":6652:6655   */\n      dup3\n        /* \"#utility.yul\":6563:6656   */\n      tag_217\n      jump\t// in\n    tag_216:\n        /* \"#utility.yul\":6681:6683   */\n      0x40\n        /* \"#utility.yul\":6676:6679   */\n      dup3\n        /* \"#utility.yul\":6672:6684   */\n      add\n        /* \"#utility.yul\":6665:6684   */\n      swap1\n      pop\n        /* \"#utility.yul\":6324:6690   */\n      swap2\n      swap1\n      pop\n      jump\t// out\n        /* \"#utility.yul\":6696:7062   */\n    tag_218:\n        /* \"#utility.yul\":6838:6841   */\n      0x00\n        /* \"#utility.yul\":6859:6926   */\n      tag_220\n        /* \"#utility.yul\":6923:6925   */\n      0x1a\n        /* \"#utility.yul\":6918:6921   */\n      dup4\n        /* \"#utility.yul\":6859:6926   */\n      tag_183\n      jump\t// in\n    tag_220:\n        /* \"#utility.yul\":6852:6926   */\n      swap2\n      pop\n        /* \"#utility.yul\":6935:7028   */\n      tag_221\n        /* \"#utility.yul\":7024:7027   */\n      dup3\n        /* \"#utility.yul\":6935:7028   */\n      tag_222\n      jump\t// in\n    tag_221:\n        /* \"#utility.yul\":7053:7055   */\n      0x20\n        /* \"#utility.yul\":7048:7051   */\n      dup3\n        /* \"#utility.yul\":7044:7056   */\n      add\n        /* \"#utility.yul\":7037:7056   */\n      swap1\n      pop\n        /* \"#utility.yul\":6696:7062   */\n      swap2\n      swap1\n      pop\n      jump\t// out\n        /* \"#utility.yul\":7068:7434   */\n    tag_223:\n        /* \"#utility.yul\":7210:7213   */\n      0x00\n        /* \"#utility.yul\":7231:7298   */\n      tag_225\n        /* \"#utility.yul\":7295:7297   */\n      0x28\n        /* \"#utility.yul\":7290:7293   */\n      dup4\n        /* \"#utility.yul\":7231:7298   */\n      tag_183\n      jump\t// in\n    tag_225:\n        /* \"#utility.yul\":7224:7298   */\n      swap2\n      pop\n        /* \"#utility.yul\":7307:7400   */\n      tag_226\n        /* \"#utility.yul\":7396:7399   */\n      dup3\n        /* \"#utility.yul\":7307:7400   */\n      tag_227\n      jump\t// in\n    tag_226:\n        /* \"#utility.yul\":7425:7427   */\n      0x40\n        /* \"#utility.yul\":7420:7423   */\n      dup3\n        /* \"#utility.yul\":7416:7428   */\n      add\n        /* \"#utility.yul\":7409:7428   */\n      swap1\n      pop\n        /* \"#utility.yul\":7068:7434   */\n      swap2\n      swap1\n      pop\n      jump\t// out\n        /* \"#utility.yul\":7440:7806   */\n    tag_228:\n        /* \"#utility.yul\":7582:7585   */\n      0x00\n        /* \"#utility.yul\":7603:7670   */\n      tag_230\n        /* \"#utility.yul\":7667:7669   */\n      0x1f\n        /* \"#utility.yul\":7662:7665   */\n      dup4\n        /* \"#utility.yul\":7603:7670   */\n      tag_183\n      jump\t// in\n    tag_230:\n        /* \"#utility.yul\":7596:7670   */\n      swap2\n      pop\n        /* \"#utility.yul\":7679:7772   */\n      tag_231\n        /* \"#utility.yul\":7768:7771   */\n      dup3\n        /* \"#utility.yul\":7679:7772   */\n      tag_232\n      jump\t// in\n    tag_231:\n        /* \"#utility.yul\":7797:7799   */\n      0x20\n        /* \"#utility.yul\":7792:7795   */\n      dup3\n        /* \"#utility.yul\":7788:7800   */\n      add\n        /* \"#utility.yul\":7781:7800   */\n      swap1\n      pop\n        /* \"#utility.yul\":7440:7806   */\n      swap2\n      swap1\n      pop\n      jump\t// out\n        /* \"#utility.yul\":7812:8178   */\n    tag_233:\n        /* \"#utility.yul\":7954:7957   */\n      0x00\n        /* \"#utility.yul\":7975:8042   */\n      tag_235\n        /* \"#utility.yul\":8039:8041   */\n      0x33\n        /* \"#utility.yul\":8034:8037   */\n      dup4\n        /* \"#utility.yul\":7975:8042   */\n      tag_183\n      jump\t// in\n    tag_235:\n        /* \"#utility.yul\":7968:8042   */\n      swap2\n      pop\n        /* \"#utility.yul\":8051:8144   */\n      tag_236\n        /* \"#utility.yul\":8140:8143   */\n      dup3\n        /* \"#utility.yul\":8051:8144   */\n      tag_237\n      jump\t// in\n    tag_236:\n        /* \"#utility.yul\":8169:8171   */\n      0x40\n        /* \"#utility.yul\":8164:8167   */\n      dup3\n        /* \"#utility.yul\":8160:8172   */\n      add\n        /* \"#utility.yul\":8153:8172   */\n      swap1\n      pop\n        /* \"#utility.yul\":7812:8178   */\n      swap2\n      swap1\n      pop\n      jump\t// out\n        /* \"#utility.yul\":8184:8550   */\n    tag_238:\n        /* \"#utility.yul\":8326:8329   */\n      0x00\n        /* \"#utility.yul\":8347:8414   */\n      tag_240\n        /* \"#utility.yul\":8411:8413   */\n      0x28\n        /* \"#utility.yul\":8406:8409   */\n      dup4\n        /* \"#utility.yul\":8347:8414   */\n      tag_183\n      jump\t// in\n    tag_240:\n        /* \"#utility.yul\":8340:8414   */\n      swap2\n      pop\n        /* \"#utility.yul\":8423:8516   */\n      tag_241\n        /* \"#utility.yul\":8512:8515   */\n      dup3\n        /* \"#utility.yul\":8423:8516   */\n      tag_242\n      jump\t// in\n    tag_241:\n        /* \"#utility.yul\":8541:8543   */\n      0x40\n        /* \"#utility.yul\":8536:8539   */\n      dup3\n        /* \"#utility.yul\":8532:8544   */\n      add\n        /* \"#utility.yul\":8525:8544   */\n      swap1\n      pop\n        /* \"#utility.yul\":8184:8550   */\n      swap2\n      swap1\n      pop\n      jump\t// out\n        /* \"#utility.yul\":8556:8674   */\n    tag_243:\n        /* \"#utility.yul\":8643:8667   */\n      tag_245\n        /* \"#utility.yul\":8661:8666   */\n      dup2\n        /* \"#utility.yul\":8643:8667   */\n      tag_246\n      jump\t// in\n    tag_245:\n        /* \"#utility.yul\":8638:8641   */\n      dup3\n        /* \"#utility.yul\":8631:8668   */\n      mstore\n        /* \"#utility.yul\":8556:8674   */\n      pop\n      pop\n      jump\t// out\n        /* \"#utility.yul\":8680:9467   */\n    tag_13:\n        /* \"#utility.yul\":8921:8925   */\n      0x00\n        /* \"#utility.yul\":8959:8962   */\n      0xa0\n        /* \"#utility.yul\":8948:8957   */\n      dup3\n        /* \"#utility.yul\":8944:8963   */\n      add\n        /* \"#utility.yul\":8936:8963   */\n      swap1\n      pop\n        /* \"#utility.yul\":8973:9060   */\n      tag_248\n        /* \"#utility.yul\":9057:9058   */\n      0x00\n        /* \"#utility.yul\":9046:9055   */\n      dup4\n        /* \"#utility.yul\":9042:9059   */\n      add\n        /* \"#utility.yul\":9033:9039   */\n      dup9\n        /* \"#utility.yul\":8973:9060   */\n      tag_174\n      jump\t// in\n    tag_248:\n        /* \"#utility.yul\":9107:9116   */\n      dup2\n        /* \"#utility.yul\":9101:9105   */\n      dup2\n        /* \"#utility.yul\":9097:9117   */\n      sub\n        /* \"#utility.yul\":9092:9094   */\n      0x20\n        /* \"#utility.yul\":9081:9090   */\n      dup4\n        /* \"#utility.yul\":9077:9095   */\n      add\n        /* \"#utility.yul\":9070:9118   */\n      mstore\n        /* \"#utility.yul\":9135:9213   */\n      tag_249\n        /* \"#utility.yul\":9208:9212   */\n      dup2\n        /* \"#utility.yul\":9199:9205   */\n      dup8\n        /* \"#utility.yul\":9135:9213   */\n      tag_178\n      jump\t// in\n    tag_249:\n        /* \"#utility.yul\":9127:9213   */\n      swap1\n      pop\n        /* \"#utility.yul\":9223:9295   */\n      tag_250\n        /* \"#utility.yul\":9291:9293   */\n      0x40\n        /* \"#utility.yul\":9280:9289   */\n      dup4\n        /* \"#utility.yul\":9276:9294   */\n      add\n        /* \"#utility.yul\":9267:9273   */\n      dup7\n        /* \"#utility.yul\":9223:9295   */\n      tag_243\n      jump\t// in\n    tag_250:\n        /* \"#utility.yul\":9305:9377   */\n      tag_251\n        /* \"#utility.yul\":9373:9375   */\n      0x60\n        /* \"#utility.yul\":9362:9371   */\n      dup4\n        /* \"#utility.yul\":9358:9376   */\n      add\n        /* \"#utility.yul\":9349:9355   */\n      dup6\n        /* \"#utility.yul\":9305:9377   */\n      tag_243\n      jump\t// in\n    tag_251:\n        /* \"#utility.yul\":9387:9460   */\n      tag_252\n        /* \"#utility.yul\":9455:9458   */\n      0x80\n        /* \"#utility.yul\":9444:9453   */\n      dup4\n        /* \"#utility.yul\":9440:9459   */\n      add\n        /* \"#utility.yul\":9431:9437   */\n      dup5\n        /* \"#utility.yul\":9387:9460   */\n      tag_243\n      jump\t// in\n    tag_252:\n        /* \"#utility.yul\":8680:9467   */\n      swap7\n      swap6\n      pop\n      pop\n      pop\n      pop\n      pop\n      pop\n      jump\t// out\n        /* \"#utility.yul\":9473:9892   */\n    tag_101:\n        /* \"#utility.yul\":9639:9643   */\n      0x00\n        /* \"#utility.yul\":9677:9679   */\n      0x20\n        /* \"#utility.yul\":9666:9675   */\n      dup3\n        /* \"#utility.yul\":9662:9680   */\n      add\n        /* \"#utility.yul\":9654:9680   */\n      swap1\n      pop\n        /* \"#utility.yul\":9726:9735   */\n      dup2\n        /* \"#utility.yul\":9720:9724   */\n      dup2\n        /* \"#utility.yul\":9716:9736   */\n      sub\n        /* \"#utility.yul\":9712:9713   */\n      0x00\n        /* \"#utility.yul\":9701:9710   */\n      dup4\n        /* \"#utility.yul\":9697:9714   */\n      add\n        /* \"#utility.yul\":9690:9737   */\n      mstore\n        /* \"#utility.yul\":9754:9885   */\n      tag_254\n        /* \"#utility.yul\":9880:9884   */\n      dup2\n        /* \"#utility.yul\":9754:9885   */\n      tag_188\n      jump\t// in\n    tag_254:\n        /* \"#utility.yul\":9746:9885   */\n      swap1\n      pop\n        /* \"#utility.yul\":9473:9892   */\n      swap2\n      swap1\n      pop\n      jump\t// out\n        /* \"#utility.yul\":9898:10317   */\n    tag_97:\n        /* \"#utility.yul\":10064:10068   */\n      0x00\n        /* \"#utility.yul\":10102:10104   */\n      0x20\n        /* \"#utility.yul\":10091:10100   */\n      dup3\n        /* \"#utility.yul\":10087:10105   */\n      add\n        /* \"#utility.yul\":10079:10105   */\n      swap1\n      pop\n        /* \"#utility.yul\":10151:10160   */\n      dup2\n        /* \"#utility.yul\":10145:10149   */\n      dup2\n        /* \"#utility.yul\":10141:10161   */\n      sub\n        /* \"#utility.yul\":10137:10138   */\n      0x00\n        /* \"#utility.yul\":10126:10135   */\n      dup4\n        /* \"#utility.yul\":10122:10139   */\n      add\n        /* \"#utility.yul\":10115:10162   */\n      mstore\n        /* \"#utility.yul\":10179:10310   */\n      tag_256\n        /* \"#utility.yul\":10305:10309   */\n      dup2\n        /* \"#utility.yul\":10179:10310   */\n      tag_193\n      jump\t// in\n    tag_256:\n        /* \"#utility.yul\":10171:10310   */\n      swap1\n      pop\n        /* \"#utility.yul\":9898:10317   */\n      swap2\n      swap1\n      pop\n      jump\t// out\n        /* \"#utility.yul\":10323:10742   */\n    tag_94:\n        /* \"#utility.yul\":10489:10493   */\n      0x00\n        /* \"#utility.yul\":10527:10529   */\n      0x20\n        /* \"#utility.yul\":10516:10525   */\n      dup3\n        /* \"#utility.yul\":10512:10530   */\n      add\n        /* \"#utility.yul\":10504:10530   */\n      swap1\n      pop\n        /* \"#utility.yul\":10576:10585   */\n      dup2\n        /* \"#utility.yul\":10570:10574   */\n      dup2\n        /* \"#utility.yul\":10566:10586   */\n      sub\n        /* \"#utility.yul\":10562:10563   */\n      0x00\n        /* \"#utility.yul\":10551:10560   */\n      dup4\n        /* \"#utility.yul\":10547:10564   */\n      add\n        /* \"#utility.yul\":10540:10587   */\n      mstore\n        /* \"#utility.yul\":10604:10735   */\n      tag_258\n        /* \"#utility.yul\":10730:10734   */\n      dup2\n        /* \"#utility.yul\":10604:10735   */\n      tag_198\n      jump\t// in\n    tag_258:\n        /* \"#utility.yul\":10596:10735   */\n      swap1\n      pop\n        /* \"#utility.yul\":10323:10742   */\n      swap2\n      swap1\n      pop\n      jump\t// out\n        /* \"#utility.yul\":10748:11167   */\n    tag_56:\n        /* \"#utility.yul\":10914:10918   */\n      0x00\n        /* \"#utility.yul\":10952:10954   */\n      0x20\n        /* \"#utility.yul\":10941:10950   */\n      dup3\n        /* \"#utility.yul\":10937:10955   */\n      add\n        /* \"#utility.yul\":10929:10955   */\n      swap1\n      pop\n        /* \"#utility.yul\":11001:11010   */\n      dup2\n        /* \"#utility.yul\":10995:10999   */\n      dup2\n        /* \"#utility.yul\":10991:11011   */\n      sub\n        /* \"#utility.yul\":10987:10988   */\n      0x00\n        /* \"#utility.yul\":10976:10985   */\n      dup4\n        /* \"#utility.yul\":10972:10989   */\n      add\n        /* \"#utility.yul\":10965:11012   */\n      mstore\n        /* \"#utility.yul\":11029:11160   */\n      tag_260\n        /* \"#utility.yul\":11155:11159   */\n      dup2\n        /* \"#utility.yul\":11029:11160   */\n      tag_203\n      jump\t// in\n    tag_260:\n        /* \"#utility.yul\":11021:11160   */\n      swap1\n      pop\n        /* \"#utility.yul\":10748:11167   */\n      swap2\n      swap1\n      pop\n      jump\t// out\n        /* \"#utility.yul\":11173:11592   */\n    tag_90:\n        /* \"#utility.yul\":11339:11343   */\n      0x00\n        /* \"#utility.yul\":11377:11379   */\n      0x20\n        /* \"#utility.yul\":11366:11375   */\n      dup3\n        /* \"#utility.yul\":11362:11380   */\n      add\n        /* \"#utility.yul\":11354:11380   */\n      swap1\n      pop\n        /* \"#utility.yul\":11426:11435   */\n      dup2\n        /* \"#utility.yul\":11420:11424   */\n      dup2\n        /* \"#utility.yul\":11416:11436   */\n      sub\n        /* \"#utility.yul\":11412:11413   */\n      0x00\n        /* \"#utility.yul\":11401:11410   */\n      dup4\n        /* \"#utility.yul\":11397:11414   */\n      add\n        /* \"#utility.yul\":11390:11437   */\n      mstore\n        /* \"#utility.yul\":11454:11585   */\n      tag_262\n        /* \"#utility.yul\":11580:11584   */\n      dup2\n        /* \"#utility.yul\":11454:11585   */\n      tag_208\n      jump\t// in\n    tag_262:\n        /* \"#utility.yul\":11446:11585   */\n      swap1\n      pop\n        /* \"#utility.yul\":11173:11592   */\n      swap2\n      swap1\n      pop\n      jump\t// out\n        /* \"#utility.yul\":11598:12017   */\n    tag_80:\n        /* \"#utility.yul\":11764:11768   */\n      0x00\n        /* \"#utility.yul\":11802:11804   */\n      0x20\n        /* \"#utility.yul\":11791:11800   */\n      dup3\n        /* \"#utility.yul\":11787:11805   */\n      add\n        /* \"#utility.yul\":11779:11805   */\n      swap1\n      pop\n        /* \"#utility.yul\":11851:11860   */\n      dup2\n        /* \"#utility.yul\":11845:11849   */\n      dup2\n        /* \"#utility.yul\":11841:11861   */\n      sub\n        /* \"#utility.yul\":11837:11838   */\n      0x00\n        /* \"#utility.yul\":11826:11835   */\n      dup4\n        /* \"#utility.yul\":11822:11839   */\n      add\n        /* \"#utility.yul\":11815:11862   */\n      mstore\n        /* \"#utility.yul\":11879:12010   */\n      tag_264\n        /* \"#utility.yul\":12005:12009   */\n      dup2\n        /* \"#utility.yul\":11879:12010   */\n      tag_213\n      jump\t// in\n    tag_264:\n        /* \"#utility.yul\":11871:12010   */\n      swap1\n      pop\n        /* \"#utility.yul\":11598:12017   */\n      swap2\n      swap1\n      pop\n      jump\t// out\n        /* \"#utility.yul\":12023:12442   */\n    tag_66:\n        /* \"#utility.yul\":12189:12193   */\n      0x00\n        /* \"#utility.yul\":12227:12229   */\n      0x20\n        /* \"#utility.yul\":12216:12225   */\n      dup3\n        /* \"#utility.yul\":12212:12230   */\n      add\n        /* \"#utility.yul\":12204:12230   */\n      swap1\n      pop\n        /* \"#utility.yul\":12276:12285   */\n      dup2\n        /* \"#utility.yul\":12270:12274   */\n      dup2\n        /* \"#utility.yul\":12266:12286   */\n      sub\n        /* \"#utility.yul\":12262:12263   */\n      0x00\n        /* \"#utility.yul\":12251:12260   */\n      dup4\n        /* \"#utility.yul\":12247:12264   */\n      add\n        /* \"#utility.yul\":12240:12287   */\n      mstore\n        /* \"#utility.yul\":12304:12435   */\n      tag_266\n        /* \"#utility.yul\":12430:12434   */\n      dup2\n        /* \"#utility.yul\":12304:12435   */\n      tag_218\n      jump\t// in\n    tag_266:\n        /* \"#utility.yul\":12296:12435   */\n      swap1\n      pop\n        /* \"#utility.yul\":12023:12442   */\n      swap2\n      swap1\n      pop\n      jump\t// out\n        /* \"#utility.yul\":12448:12867   */\n    tag_45:\n        /* \"#utility.yul\":12614:12618   */\n      0x00\n        /* \"#utility.yul\":12652:12654   */\n      0x20\n        /* \"#utility.yul\":12641:12650   */\n      dup3\n        /* \"#utility.yul\":12637:12655   */\n      add\n        /* \"#utility.yul\":12629:12655   */\n      swap1\n      pop\n        /* \"#utility.yul\":12701:12710   */\n      dup2\n        /* \"#utility.yul\":12695:12699   */\n      dup2\n        /* \"#utility.yul\":12691:12711   */\n      sub\n        /* \"#utility.yul\":12687:12688   */\n      0x00\n        /* \"#utility.yul\":12676:12685   */\n      dup4\n        /* \"#utility.yul\":12672:12689   */\n      add\n        /* \"#utility.yul\":12665:12712   */\n      mstore\n        /* \"#utility.yul\":12729:12860   */\n      tag_268\n        /* \"#utility.yul\":12855:12859   */\n      dup2\n        /* \"#utility.yul\":12729:12860   */\n      tag_223\n      jump\t// in\n    tag_268:\n        /* \"#utility.yul\":12721:12860   */\n      swap1\n      pop\n        /* \"#utility.yul\":12448:12867   */\n      swap2\n      swap1\n      pop\n      jump\t// out\n        /* \"#utility.yul\":12873:13292   */\n    tag_63:\n        /* \"#utility.yul\":13039:13043   */\n      0x00\n        /* \"#utility.yul\":13077:13079   */\n      0x20\n        /* \"#utility.yul\":13066:13075   */\n      dup3\n        /* \"#utility.yul\":13062:13080   */\n      add\n        /* \"#utility.yul\":13054:13080   */\n      swap1\n      pop\n        /* \"#utility.yul\":13126:13135   */\n      dup2\n        /* \"#utility.yul\":13120:13124   */\n      dup2\n        /* \"#utility.yul\":13116:13136   */\n      sub\n        /* \"#utility.yul\":13112:13113   */\n      0x00\n        /* \"#utility.yul\":13101:13110   */\n      dup4\n        /* \"#utility.yul\":13097:13114   */\n      add\n        /* \"#utility.yul\":13090:13137   */\n      mstore\n        /* \"#utility.yul\":13154:13285   */\n      tag_270\n        /* \"#utility.yul\":13280:13284   */\n      dup2\n        /* \"#utility.yul\":13154:13285   */\n      tag_228\n      jump\t// in\n    tag_270:\n        /* \"#utility.yul\":13146:13285   */\n      swap1\n      pop\n        /* \"#utility.yul\":12873:13292   */\n      swap2\n      swap1\n      pop\n      jump\t// out\n        /* \"#utility.yul\":13298:13717   */\n    tag_48:\n        /* \"#utility.yul\":13464:13468   */\n      0x00\n        /* \"#utility.yul\":13502:13504   */\n      0x20\n        /* \"#utility.yul\":13491:13500   */\n      dup3\n        /* \"#utility.yul\":13487:13505   */\n      add\n        /* \"#utility.yul\":13479:13505   */\n      swap1\n      pop\n        /* \"#utility.yul\":13551:13560   */\n      dup2\n        /* \"#utility.yul\":13545:13549   */\n      dup2\n        /* \"#utility.yul\":13541:13561   */\n      sub\n        /* \"#utility.yul\":13537:13538   */\n      0x00\n        /* \"#utility.yul\":13526:13535   */\n      dup4\n        /* \"#utility.yul\":13522:13539   */\n      add\n        /* \"#utility.yul\":13515:13562   */\n      mstore\n        /* \"#utility.yul\":13579:13710   */\n      tag_272\n        /* \"#utility.yul\":13705:13709   */\n      dup2\n        /* \"#utility.yul\":13579:13710   */\n      tag_233\n      jump\t// in\n    tag_272:\n        /* \"#utility.yul\":13571:13710   */\n      swap1\n      pop\n        /* \"#utility.yul\":13298:13717   */\n      swap2\n      swap1\n      pop\n      jump\t// out\n        /* \"#utility.yul\":13723:14142   */\n    tag_72:\n        /* \"#utility.yul\":13889:13893   */\n      0x00\n        /* \"#utility.yul\":13927:13929   */\n      0x20\n        /* \"#utility.yul\":13916:13925   */\n      dup3\n        /* \"#utility.yul\":13912:13930   */\n      add\n        /* \"#utility.yul\":13904:13930   */\n      swap1\n      pop\n        /* \"#utility.yul\":13976:13985   */\n      dup2\n        /* \"#utility.yul\":13970:13974   */\n      dup2\n        /* \"#utility.yul\":13966:13986   */\n      sub\n        /* \"#utility.yul\":13962:13963   */\n      0x00\n        /* \"#utility.yul\":13951:13960   */\n      dup4\n        /* \"#utility.yul\":13947:13964   */\n      add\n        /* \"#utility.yul\":13940:13987   */\n      mstore\n        /* \"#utility.yul\":14004:14135   */\n      tag_274\n        /* \"#utility.yul\":14130:14134   */\n      dup2\n        /* \"#utility.yul\":14004:14135   */\n      tag_238\n      jump\t// in\n    tag_274:\n        /* \"#utility.yul\":13996:14135   */\n      swap1\n      pop\n        /* \"#utility.yul\":13723:14142   */\n      swap2\n      swap1\n      pop\n      jump\t// out\n        /* \"#utility.yul\":14148:14370   */\n    tag_29:\n        /* \"#utility.yul\":14241:14245   */\n      0x00\n        /* \"#utility.yul\":14279:14281   */\n      0x20\n        /* \"#utility.yul\":14268:14277   */\n      dup3\n        /* \"#utility.yul\":14264:14282   */\n      add\n        /* \"#utility.yul\":14256:14282   */\n      swap1\n      pop\n        /* \"#utility.yul\":14292:14363   */\n      tag_276\n        /* \"#utility.yul\":14360:14361   */\n      0x00\n        /* \"#utility.yul\":14349:14358   */\n      dup4\n        /* \"#utility.yul\":14345:14362   */\n      add\n        /* \"#utility.yul\":14336:14342   */\n      dup5\n        /* \"#utility.yul\":14292:14363   */\n      tag_243\n      jump\t// in\n    tag_276:\n        /* \"#utility.yul\":14148:14370   */\n      swap3\n      swap2\n      pop\n      pop\n      jump\t// out\n        /* \"#utility.yul\":14376:14505   */\n    tag_123:\n        /* \"#utility.yul\":14410:14416   */\n      0x00\n        /* \"#utility.yul\":14437:14457   */\n      tag_278\n      tag_279\n      jump\t// in\n    tag_278:\n        /* \"#utility.yul\":14427:14457   */\n      swap1\n      pop\n        /* \"#utility.yul\":14466:14499   */\n      tag_280\n        /* \"#utility.yul\":14494:14498   */\n      dup3\n        /* \"#utility.yul\":14486:14492   */\n      dup3\n        /* \"#utility.yul\":14466:14499   */\n      tag_281\n      jump\t// in\n    tag_280:\n        /* \"#utility.yul\":14376:14505   */\n      swap2\n      swap1\n      pop\n      jump\t// out\n        /* \"#utility.yul\":14511:14586   */\n    tag_279:\n        /* \"#utility.yul\":14544:14550   */\n      0x00\n        /* \"#utility.yul\":14577:14579   */\n      0x40\n        /* \"#utility.yul\":14571:14580   */\n      mload\n        /* \"#utility.yul\":14561:14580   */\n      swap1\n      pop\n        /* \"#utility.yul\":14511:14586   */\n      swap1\n      jump\t// out\n        /* \"#utility.yul\":14592:14900   */\n    tag_122:\n        /* \"#utility.yul\":14654:14658   */\n      0x00\n        /* \"#utility.yul\":14744:14762   */\n      0xffffffffffffffff\n        /* \"#utility.yul\":14736:14742   */\n      dup3\n        /* \"#utility.yul\":14733:14763   */\n      gt\n        /* \"#utility.yul\":14730:14786   */\n      iszero\n      tag_284\n      jumpi\n        /* \"#utility.yul\":14766:14784   */\n      tag_285\n      tag_286\n      jump\t// in\n    tag_285:\n        /* \"#utility.yul\":14730:14786   */\n    tag_284:\n        /* \"#utility.yul\":14804:14833   */\n      tag_287\n        /* \"#utility.yul\":14826:14832   */\n      dup3\n        /* \"#utility.yul\":14804:14833   */\n      tag_187\n      jump\t// in\n    tag_287:\n        /* \"#utility.yul\":14796:14833   */\n      swap1\n      pop\n        /* \"#utility.yul\":14888:14892   */\n      0x20\n        /* \"#utility.yul\":14882:14886   */\n      dup2\n        /* \"#utility.yul\":14878:14893   */\n      add\n        /* \"#utility.yul\":14870:14893   */\n      swap1\n      pop\n        /* \"#utility.yul\":14592:14900   */\n      swap2\n      swap1\n      pop\n      jump\t// out\n        /* \"#utility.yul\":14906:15005   */\n    tag_181:\n        /* \"#utility.yul\":14958:14964   */\n      0x00\n        /* \"#utility.yul\":14992:14997   */\n      dup2\n        /* \"#utility.yul\":14986:14998   */\n      mload\n        /* \"#utility.yul\":14976:14998   */\n      swap1\n      pop\n        /* \"#utility.yul\":14906:15005   */\n      swap2\n      swap1\n      pop\n      jump\t// out\n        /* \"#utility.yul\":15011:15180   */\n    tag_183:\n        /* \"#utility.yul\":15095:15106   */\n      0x00\n        /* \"#utility.yul\":15129:15135   */\n      dup3\n        /* \"#utility.yul\":15124:15127   */\n      dup3\n        /* \"#utility.yul\":15117:15136   */\n      mstore\n        /* \"#utility.yul\":15169:15173   */\n      0x20\n        /* \"#utility.yul\":15164:15167   */\n      dup3\n        /* \"#utility.yul\":15160:15174   */\n      add\n        /* \"#utility.yul\":15145:15174   */\n      swap1\n      pop\n        /* \"#utility.yul\":15011:15180   */\n      swap3\n      swap2\n      pop\n      pop\n      jump\t// out\n        /* \"#utility.yul\":15186:15491   */\n    tag_52:\n        /* \"#utility.yul\":15226:15229   */\n      0x00\n        /* \"#utility.yul\":15245:15265   */\n      tag_291\n        /* \"#utility.yul\":15263:15264   */\n      dup3\n        /* \"#utility.yul\":15245:15265   */\n      tag_246\n      jump\t// in\n    tag_291:\n        /* \"#utility.yul\":15240:15265   */\n      swap2\n      pop\n        /* \"#utility.yul\":15279:15299   */\n      tag_292\n        /* \"#utility.yul\":15297:15298   */\n      dup4\n        /* \"#utility.yul\":15279:15299   */\n      tag_246\n      jump\t// in\n    tag_292:\n        /* \"#utility.yul\":15274:15299   */\n      swap3\n      pop\n        /* \"#utility.yul\":15433:15434   */\n      dup3\n        /* \"#utility.yul\":15365:15431   */\n      0xffffffffffffffffffffffffffffffffffffffffffffffffffffffffffffffff\n        /* \"#utility.yul\":15361:15435   */\n      sub\n        /* \"#utility.yul\":15358:15359   */\n      dup3\n        /* \"#utility.yul\":15355:15436   */\n      gt\n        /* \"#utility.yul\":15352:15459   */\n      iszero\n      tag_293\n      jumpi\n        /* \"#utility.yul\":15439:15457   */\n      tag_294\n      tag_295\n      jump\t// in\n    tag_294:\n        /* \"#utility.yul\":15352:15459   */\n    tag_293:\n        /* \"#utility.yul\":15483:15484   */\n      dup3\n        /* \"#utility.yul\":15480:15481   */\n      dup3\n        /* \"#utility.yul\":15476:15485   */\n      add\n        /* \"#utility.yul\":15469:15485   */\n      swap1\n      pop\n        /* \"#utility.yul\":15186:15491   */\n      swap3\n      swap2\n      pop\n      pop\n      jump\t// out\n        /* \"#utility.yul\":15497:15845   */\n    tag_77:\n        /* \"#utility.yul\":15537:15544   */\n      0x00\n        /* \"#utility.yul\":15560:15580   */\n      tag_297\n        /* \"#utility.yul\":15578:15579   */\n      dup3\n        /* \"#utility.yul\":15560:15580   */\n      tag_246\n      jump\t// in\n    tag_297:\n        /* \"#utility.yul\":15555:15580   */\n      swap2\n      pop\n        /* \"#utility.yul\":15594:15614   */\n      tag_298\n        /* \"#utility.yul\":15612:15613   */\n      dup4\n        /* \"#utility.yul\":15594:15614   */\n      tag_246\n      jump\t// in\n    tag_298:\n        /* \"#utility.yul\":15589:15614   */\n      swap3\n      pop\n        /* \"#utility.yul\":15782:15783   */\n      dup2\n        /* \"#utility.yul\":15714:15780   */\n      0xffffffffffffffffffffffffffffffffffffffffffffffffffffffffffffffff\n        /* \"#utility.yul\":15710:15784   */\n      div\n        /* \"#utility.yul\":15707:15708   */\n      dup4\n        /* \"#utility.yul\":15704:15785   */\n      gt\n        /* \"#utility.yul\":15699:15700   */\n      dup3\n        /* \"#utility.yul\":15692:15701   */\n      iszero\n        /* \"#utility.yul\":15685:15702   */\n      iszero\n        /* \"#utility.yul\":15681:15786   */\n      and\n        /* \"#utility.yul\":15678:15809   */\n      iszero\n      tag_299\n      jumpi\n        /* \"#utility.yul\":15789:15807   */\n      tag_300\n      tag_295\n      jump\t// in\n    tag_300:\n        /* \"#utility.yul\":15678:15809   */\n    tag_299:\n        /* \"#utility.yul\":15837:15838   */\n      dup3\n        /* \"#utility.yul\":15834:15835   */\n      dup3\n        /* \"#utility.yul\":15830:15839   */\n      mul\n        /* \"#utility.yul\":15819:15839   */\n      swap1\n      pop\n        /* \"#utility.yul\":15497:15845   */\n      swap3\n      swap2\n      pop\n      pop\n      jump\t// out\n        /* \"#utility.yul\":15851:16042   */\n    tag_50:\n        /* \"#utility.yul\":15891:15895   */\n      0x00\n        /* \"#utility.yul\":15911:15931   */\n      tag_302\n        /* \"#utility.yul\":15929:15930   */\n      dup3\n        /* \"#utility.yul\":15911:15931   */\n      tag_246\n      jump\t// in\n    tag_302:\n        /* \"#utility.yul\":15906:15931   */\n      swap2\n      pop\n        /* \"#utility.yul\":15945:15965   */\n      tag_303\n        /* \"#utility.yul\":15963:15964   */\n      dup4\n        /* \"#utility.yul\":15945:15965   */\n      tag_246\n      jump\t// in\n    tag_303:\n        /* \"#utility.yul\":15940:15965   */\n      swap3\n      pop\n        /* \"#utility.yul\":15984:15985   */\n      dup3\n        /* \"#utility.yul\":15981:15982   */\n      dup3\n        /* \"#utility.yul\":15978:15986   */\n      lt\n        /* \"#utility.yul\":15975:16009   */\n      iszero\n      tag_304\n      jumpi\n        /* \"#utility.yul\":15989:16007   */\n      tag_305\n      tag_295\n      jump\t// in\n    tag_305:\n        /* \"#utility.yul\":15975:16009   */\n    tag_304:\n        /* \"#utility.yul\":16034:16035   */\n      dup3\n        /* \"#utility.yul\":16031:16032   */\n      dup3\n        /* \"#utility.yul\":16027:16036   */\n      sub\n        /* \"#utility.yul\":16019:16036   */\n      swap1\n      pop\n        /* \"#utility.yul\":15851:16042   */\n      swap3\n      swap2\n      pop\n      pop\n      jump\t// out\n        /* \"#utility.yul\":16048:16144   */\n    tag_306:\n        /* \"#utility.yul\":16085:16092   */\n      0x00\n        /* \"#utility.yul\":16114:16138   */\n      tag_308\n        /* \"#utility.yul\":16132:16137   */\n      dup3\n        /* \"#utility.yul\":16114:16138   */\n      tag_309\n      jump\t// in\n    tag_308:\n        /* \"#utility.yul\":16103:16138   */\n      swap1\n      pop\n        /* \"#utility.yul\":16048:16144   */\n      swap2\n      swap1\n      pop\n      jump\t// out\n        /* \"#utility.yul\":16150:16254   */\n    tag_177:\n        /* \"#utility.yul\":16195:16202   */\n      0x00\n        /* \"#utility.yul\":16224:16248   */\n      tag_311\n        /* \"#utility.yul\":16242:16247   */\n      dup3\n        /* \"#utility.yul\":16224:16248   */\n      tag_309\n      jump\t// in\n    tag_311:\n        /* \"#utility.yul\":16213:16248   */\n      swap1\n      pop\n        /* \"#utility.yul\":16150:16254   */\n      swap2\n      swap1\n      pop\n      jump\t// out\n        /* \"#utility.yul\":16260:16386   */\n    tag_309:\n        /* \"#utility.yul\":16297:16304   */\n      0x00\n        /* \"#utility.yul\":16337:16379   */\n      0xffffffffffffffffffffffffffffffffffffffff\n        /* \"#utility.yul\":16330:16335   */\n      dup3\n        /* \"#utility.yul\":16326:16380   */\n      and\n        /* \"#utility.yul\":16315:16380   */\n      swap1\n      pop\n        /* \"#utility.yul\":16260:16386   */\n      swap2\n      swap1\n      pop\n      jump\t// out\n        /* \"#utility.yul\":16392:16469   */\n    tag_246:\n        /* \"#utility.yul\":16429:16436   */\n      0x00\n        /* \"#utility.yul\":16458:16463   */\n      dup2\n        /* \"#utility.yul\":16447:16463   */\n      swap1\n      pop\n        /* \"#utility.yul\":16392:16469   */\n      swap2\n      swap1\n      pop\n      jump\t// out\n        /* \"#utility.yul\":16475:16629   */\n    tag_128:\n        /* \"#utility.yul\":16559:16565   */\n      dup3\n        /* \"#utility.yul\":16554:16557   */\n      dup2\n        /* \"#utility.yul\":16549:16552   */\n      dup4\n        /* \"#utility.yul\":16536:16566   */\n      calldatacopy\n        /* \"#utility.yul\":16621:16622   */\n      0x00\n        /* \"#utility.yul\":16612:16618   */\n      dup4\n        /* \"#utility.yul\":16607:16610   */\n      dup4\n        /* \"#utility.yul\":16603:16619   */\n      add\n        /* \"#utility.yul\":16596:16623   */\n      mstore\n        /* \"#utility.yul\":16475:16629   */\n      pop\n      pop\n      pop\n      jump\t// out\n        /* \"#utility.yul\":16635:16942   */\n    tag_185:\n        /* \"#utility.yul\":16703:16704   */\n      0x00\n        /* \"#utility.yul\":16713:16826   */\n    tag_316:\n        /* \"#utility.yul\":16727:16733   */\n      dup4\n        /* \"#utility.yul\":16724:16725   */\n      dup2\n        /* \"#utility.yul\":16721:16734   */\n      lt\n        /* \"#utility.yul\":16713:16826   */\n      iszero\n      tag_318\n      jumpi\n        /* \"#utility.yul\":16812:16813   */\n      dup1\n        /* \"#utility.yul\":16807:16810   */\n      dup3\n        /* \"#utility.yul\":16803:16814   */\n      add\n        /* \"#utility.yul\":16797:16815   */\n      mload\n        /* \"#utility.yul\":16793:16794   */\n      dup2\n        /* \"#utility.yul\":16788:16791   */\n      dup5\n        /* \"#utility.yul\":16784:16795   */\n      add\n        /* \"#utility.yul\":16777:16816   */\n      mstore\n        /* \"#utility.yul\":16749:16751   */\n      0x20\n        /* \"#utility.yul\":16746:16747   */\n      dup2\n        /* \"#utility.yul\":16742:16752   */\n      add\n        /* \"#utility.yul\":16737:16752   */\n      swap1\n      pop\n        /* \"#utility.yul\":16713:16826   */\n      jump(tag_316)\n    tag_318:\n        /* \"#utility.yul\":16844:16850   */\n      dup4\n        /* \"#utility.yul\":16841:16842   */\n      dup2\n        /* \"#utility.yul\":16838:16851   */\n      gt\n        /* \"#utility.yul\":16835:16936   */\n      iszero\n      tag_319\n      jumpi\n        /* \"#utility.yul\":16924:16925   */\n      0x00\n        /* \"#utility.yul\":16915:16921   */\n      dup5\n        /* \"#utility.yul\":16910:16913   */\n      dup5\n        /* \"#utility.yul\":16906:16922   */\n      add\n        /* \"#utility.yul\":16899:16926   */\n      mstore\n        /* \"#utility.yul\":16835:16936   */\n    tag_319:\n        /* \"#utility.yul\":16684:16942   */\n      pop\n        /* \"#utility.yul\":16635:16942   */\n      pop\n      pop\n      pop\n      jump\t// out\n        /* \"#utility.yul\":16948:17268   */\n    tag_37:\n        /* \"#utility.yul\":16992:16998   */\n      0x00\n        /* \"#utility.yul\":17029:17030   */\n      0x02\n        /* \"#utility.yul\":17023:17027   */\n      dup3\n        /* \"#utility.yul\":17019:17031   */\n      div\n        /* \"#utility.yul\":17009:17031   */\n      swap1\n      pop\n        /* \"#utility.yul\":17076:17077   */\n      0x01\n        /* \"#utility.yul\":17070:17074   */\n      dup3\n        /* \"#utility.yul\":17066:17078   */\n      and\n        /* \"#utility.yul\":17097:17115   */\n      dup1\n        /* \"#utility.yul\":17087:17168   */\n      tag_321\n      jumpi\n        /* \"#utility.yul\":17153:17157   */\n      0x7f\n        /* \"#utility.yul\":17145:17151   */\n      dup3\n        /* \"#utility.yul\":17141:17158   */\n      and\n        /* \"#utility.yul\":17131:17158   */\n      swap2\n      pop\n        /* \"#utility.yul\":17087:17168   */\n    tag_321:\n        /* \"#utility.yul\":17215:17217   */\n      0x20\n        /* \"#utility.yul\":17207:17213   */\n      dup3\n        /* \"#utility.yul\":17204:17218   */\n      lt\n        /* \"#utility.yul\":17184:17202   */\n      dup2\n        /* \"#utility.yul\":17181:17219   */\n      eq\n        /* \"#utility.yul\":17178:17262   */\n      iszero\n      tag_322\n      jumpi\n        /* \"#utility.yul\":17234:17252   */\n      tag_323\n      tag_324\n      jump\t// in\n    tag_323:\n        /* \"#utility.yul\":17178:17262   */\n    tag_322:\n        /* \"#utility.yul\":16999:17268   */\n      pop\n        /* \"#utility.yul\":16948:17268   */\n      swap2\n      swap1\n      pop\n      jump\t// out\n        /* \"#utility.yul\":17274:17555   */\n    tag_281:\n        /* \"#utility.yul\":17357:17384   */\n      tag_326\n        /* \"#utility.yul\":17379:17383   */\n      dup3\n        /* \"#utility.yul\":17357:17384   */\n      tag_187\n      jump\t// in\n    tag_326:\n        /* \"#utility.yul\":17349:17355   */\n      dup2\n        /* \"#utility.yul\":17345:17385   */\n      add\n        /* \"#utility.yul\":17487:17493   */\n      dup2\n        /* \"#utility.yul\":17475:17485   */\n      dup2\n        /* \"#utility.yul\":17472:17494   */\n      lt\n        /* \"#utility.yul\":17451:17469   */\n      0xffffffffffffffff\n        /* \"#utility.yul\":17439:17449   */\n      dup3\n        /* \"#utility.yul\":17436:17470   */\n      gt\n        /* \"#utility.yul\":17433:17495   */\n      or\n        /* \"#utility.yul\":17430:17518   */\n      iszero\n      tag_327\n      jumpi\n        /* \"#utility.yul\":17498:17516   */\n      tag_328\n      tag_286\n      jump\t// in\n    tag_328:\n        /* \"#utility.yul\":17430:17518   */\n    tag_327:\n        /* \"#utility.yul\":17538:17548   */\n      dup1\n        /* \"#utility.yul\":17534:17536   */\n      0x40\n        /* \"#utility.yul\":17527:17549   */\n      mstore\n        /* \"#utility.yul\":17317:17555   */\n      pop\n        /* \"#utility.yul\":17274:17555   */\n      pop\n      pop\n      jump\t// out\n        /* \"#utility.yul\":17561:17741   */\n    tag_295:\n        /* \"#utility.yul\":17609:17686   */\n      0x4e487b7100000000000000000000000000000000000000000000000000000000\n        /* \"#utility.yul\":17606:17607   */\n      0x00\n        /* \"#utility.yul\":17599:17687   */\n      mstore\n        /* \"#utility.yul\":17706:17710   */\n      0x11\n        /* \"#utility.yul\":17703:17704   */\n      0x04\n        /* \"#utility.yul\":17696:17711   */\n      mstore\n        /* \"#utility.yul\":17730:17734   */\n      0x24\n        /* \"#utility.yul\":17727:17728   */\n      0x00\n        /* \"#utility.yul\":17720:17735   */\n      revert\n        /* \"#utility.yul\":17747:17927   */\n    tag_324:\n        /* \"#utility.yul\":17795:17872   */\n      0x4e487b7100000000000000000000000000000000000000000000000000000000\n        /* \"#utility.yul\":17792:17793   */\n      0x00\n        /* \"#utility.yul\":17785:17873   */\n      mstore\n        /* \"#utility.yul\":17892:17896   */\n      0x22\n        /* \"#utility.yul\":17889:17890   */\n      0x04\n        /* \"#utility.yul\":17882:17897   */\n      mstore\n        /* \"#utility.yul\":17916:17920   */\n      0x24\n        /* \"#utility.yul\":17913:17914   */\n      0x00\n        /* \"#utility.yul\":17906:17921   */\n      revert\n        /* \"#utility.yul\":17933:18113   */\n    tag_59:\n        /* \"#utility.yul\":17981:18058   */\n      0x4e487b7100000000000000000000000000000000000000000000000000000000\n        /* \"#utility.yul\":17978:17979   */\n      0x00\n        /* \"#utility.yul\":17971:18059   */\n      mstore\n        /* \"#utility.yul\":18078:18082   */\n      0x32\n        /* \"#utility.yul\":18075:18076   */\n      0x04\n        /* \"#utility.yul\":18068:18083   */\n      mstore\n        /* \"#utility.yul\":18102:18106   */\n      0x24\n        /* \"#utility.yul\":18099:18100   */\n      0x00\n        /* \"#utility.yul\":18092:18107   */\n      revert\n        /* \"#utility.yul\":18119:18299   */\n    tag_286:\n        /* \"#utility.yul\":18167:18244   */\n      0x4e487b7100000000000000000000000000000000000000000000000000000000\n        /* \"#utility.yul\":18164:18165   */\n      0x00\n        /* \"#utility.yul\":18157:18245   */\n      mstore\n        /* \"#utility.yul\":18264:18268   */\n      0x41\n        /* \"#utility.yul\":18261:18262   */\n      0x04\n        /* \"#utility.yul\":18254:18269   */\n      mstore\n        /* \"#utility.yul\":18288:18292   */\n      0x24\n        /* \"#utility.yul\":18285:18286   */\n      0x00\n        /* \"#utility.yul\":18278:18293   */\n      revert\n        /* \"#utility.yul\":18305:18422   */\n    tag_137:\n        /* \"#utility.yul\":18414:18415   */\n      0x00\n        /* \"#utility.yul\":18411:18412   */\n      dup1\n        /* \"#utility.yul\":18404:18416   */\n      revert\n        /* \"#utility.yul\":18428:18545   */\n    tag_126:\n        /* \"#utility.yul\":18537:18538   */\n      0x00\n        /* \"#utility.yul\":18534:18535   */\n      dup1\n        /* \"#utility.yul\":18527:18539   */\n      revert\n        /* \"#utility.yul\":18551:18668   */\n    tag_160:\n        /* \"#utility.yul\":18660:18661   */\n      0x00\n        /* \"#utility.yul\":18657:18658   */\n      dup1\n        /* \"#utility.yul\":18650:18662   */\n      revert\n        /* \"#utility.yul\":18674:18791   */\n    tag_146:\n        /* \"#utility.yul\":18783:18784   */\n      0x00\n        /* \"#utility.yul\":18780:18781   */\n      dup1\n        /* \"#utility.yul\":18773:18785   */\n      revert\n        /* \"#utility.yul\":18797:18899   */\n    tag_187:\n        /* \"#utility.yul\":18838:18844   */\n      0x00\n        /* \"#utility.yul\":18889:18891   */\n      0x1f\n        /* \"#utility.yul\":18885:18892   */\n      not\n        /* \"#utility.yul\":18880:18882   */\n      0x1f\n        /* \"#utility.yul\":18873:18878   */\n      dup4\n        /* \"#utility.yul\":18869:18883   */\n      add\n        /* \"#utility.yul\":18865:18893   */\n      and\n        /* \"#utility.yul\":18855:18893   */\n      swap1\n      pop\n        /* \"#utility.yul\":18797:18899   */\n      swap2\n      swap1\n      pop\n      jump\t// out\n        /* \"#utility.yul\":18905:19144   */\n    tag_192:\n        /* \"#utility.yul\":19045:19079   */\n      0x506c65617365207061792073756666696369656e742066756e6420666f72206f\n        /* \"#utility.yul\":19041:19042   */\n      0x00\n        /* \"#utility.yul\":19033:19039   */\n      dup3\n        /* \"#utility.yul\":19029:19043   */\n      add\n        /* \"#utility.yul\":19022:19080   */\n      mstore\n        /* \"#utility.yul\":19114:19136   */\n      0x7267616e697a696e6720796f7572206576656e74000000000000000000000000\n        /* \"#utility.yul\":19109:19111   */\n      0x20\n        /* \"#utility.yul\":19101:19107   */\n      dup3\n        /* \"#utility.yul\":19097:19112   */\n      add\n        /* \"#utility.yul\":19090:19137   */\n      mstore\n        /* \"#utility.yul\":18905:19144   */\n      pop\n      jump\t// out\n        /* \"#utility.yul\":19150:19326   */\n    tag_197:\n        /* \"#utility.yul\":19290:19318   */\n      0x506c656173652063726561746520736f6d65207469636b657473000000000000\n        /* \"#utility.yul\":19286:19287   */\n      0x00\n        /* \"#utility.yul\":19278:19284   */\n      dup3\n        /* \"#utility.yul\":19274:19288   */\n      add\n        /* \"#utility.yul\":19267:19319   */\n      mstore\n        /* \"#utility.yul\":19150:19326   */\n      pop\n      jump\t// out\n        /* \"#utility.yul\":19332:19554   */\n    tag_202:\n        /* \"#utility.yul\":19472:19506   */\n      0x506c6561736520656e74657220612076616c6964206461746520696e20667574\n        /* \"#utility.yul\":19468:19469   */\n      0x00\n        /* \"#utility.yul\":19460:19466   */\n      dup3\n        /* \"#utility.yul\":19456:19470   */\n      add\n        /* \"#utility.yul\":19449:19507   */\n      mstore\n        /* \"#utility.yul\":19541:19546   */\n      0x7572650000000000000000000000000000000000000000000000000000000000\n        /* \"#utility.yul\":19536:19538   */\n      0x20\n        /* \"#utility.yul\":19528:19534   */\n      dup3\n        /* \"#utility.yul\":19524:19539   */\n      add\n        /* \"#utility.yul\":19517:19547   */\n      mstore\n        /* \"#utility.yul\":19332:19554   */\n      pop\n      jump\t// out\n        /* \"#utility.yul\":19560:19734   */\n    tag_207:\n        /* \"#utility.yul\":19700:19726   */\n      0x4e6f206576656e7473206f6e207468697320696e6465782e0000000000000000\n        /* \"#utility.yul\":19696:19697   */\n      0x00\n        /* \"#utility.yul\":19688:19694   */\n      dup3\n        /* \"#utility.yul\":19684:19698   */\n      add\n        /* \"#utility.yul\":19677:19727   */\n      mstore\n        /* \"#utility.yul\":19560:19734   */\n      pop\n      jump\t// out\n        /* \"#utility.yul\":19740:19977   */\n    tag_212:\n        /* \"#utility.yul\":19880:19914   */\n      0x456e74657220612076616c69642061646472657373206f72206f776e65722063\n        /* \"#utility.yul\":19876:19877   */\n      0x00\n        /* \"#utility.yul\":19868:19874   */\n      dup3\n        /* \"#utility.yul\":19864:19878   */\n      add\n        /* \"#utility.yul\":19857:19915   */\n      mstore\n        /* \"#utility.yul\":19949:19969   */\n      0x616e277420686f737420616e206576656e740000000000000000000000000000\n        /* \"#utility.yul\":19944:19946   */\n      0x20\n        /* \"#utility.yul\":19936:19942   */\n      dup3\n        /* \"#utility.yul\":19932:19947   */\n      add\n        /* \"#utility.yul\":19925:19970   */\n      mstore\n        /* \"#utility.yul\":19740:19977   */\n      pop\n      jump\t// out\n        /* \"#utility.yul\":19983:20206   */\n    tag_217:\n        /* \"#utility.yul\":20123:20157   */\n      0x5472616e736163742073756666696369656e742066756e6420666f7220746963\n        /* \"#utility.yul\":20119:20120   */\n      0x00\n        /* \"#utility.yul\":20111:20117   */\n      dup3\n        /* \"#utility.yul\":20107:20121   */\n      add\n        /* \"#utility.yul\":20100:20158   */\n      mstore\n        /* \"#utility.yul\":20192:20198   */\n      0x6b65747300000000000000000000000000000000000000000000000000000000\n        /* \"#utility.yul\":20187:20189   */\n      0x20\n        /* \"#utility.yul\":20179:20185   */\n      dup3\n        /* \"#utility.yul\":20175:20190   */\n      add\n        /* \"#utility.yul\":20168:20199   */\n      mstore\n        /* \"#utility.yul\":19983:20206   */\n      pop\n      jump\t// out\n        /* \"#utility.yul\":20212:20388   */\n    tag_222:\n        /* \"#utility.yul\":20352:20380   */\n      0x506c656173652073656c65637420736f6d65207469636b657473000000000000\n        /* \"#utility.yul\":20348:20349   */\n      0x00\n        /* \"#utility.yul\":20340:20346   */\n      dup3\n        /* \"#utility.yul\":20336:20350   */\n      add\n        /* \"#utility.yul\":20329:20381   */\n      mstore\n        /* \"#utility.yul\":20212:20388   */\n      pop\n      jump\t// out\n        /* \"#utility.yul\":20394:20621   */\n    tag_227:\n        /* \"#utility.yul\":20534:20568   */\n      0x506c6561736520656e74657220612076616c69642061646472657373206f6620\n        /* \"#utility.yul\":20530:20531   */\n      0x00\n        /* \"#utility.yul\":20522:20528   */\n      dup3\n        /* \"#utility.yul\":20518:20532   */\n      add\n        /* \"#utility.yul\":20511:20569   */\n      mstore\n        /* \"#utility.yul\":20603:20613   */\n      0x7265636569766572000000000000000000000000000000000000000000000000\n        /* \"#utility.yul\":20598:20600   */\n      0x20\n        /* \"#utility.yul\":20590:20596   */\n      dup3\n        /* \"#utility.yul\":20586:20601   */\n      add\n        /* \"#utility.yul\":20579:20614   */\n      mstore\n        /* \"#utility.yul\":20394:20621   */\n      pop\n      jump\t// out\n        /* \"#utility.yul\":20627:20808   */\n    tag_232:\n        /* \"#utility.yul\":20767:20800   */\n      0x536f72727920746869732073686f7720616c72656164792066696e7368656400\n        /* \"#utility.yul\":20763:20764   */\n      0x00\n        /* \"#utility.yul\":20755:20761   */\n      dup3\n        /* \"#utility.yul\":20751:20765   */\n      add\n        /* \"#utility.yul\":20744:20801   */\n      mstore\n        /* \"#utility.yul\":20627:20808   */\n      pop\n      jump\t// out\n        /* \"#utility.yul\":20814:21052   */\n    tag_237:\n        /* \"#utility.yul\":20954:20988   */\n      0x596f7520646f6e2774206861766520656e6f75676874207469636b6574206f66\n        /* \"#utility.yul\":20950:20951   */\n      0x00\n        /* \"#utility.yul\":20942:20948   */\n      dup3\n        /* \"#utility.yul\":20938:20952   */\n      add\n        /* \"#utility.yul\":20931:20989   */\n      mstore\n        /* \"#utility.yul\":21023:21044   */\n      0x2074686973206576656e7420746f2073656e6400000000000000000000000000\n        /* \"#utility.yul\":21018:21020   */\n      0x20\n        /* \"#utility.yul\":21010:21016   */\n      dup3\n        /* \"#utility.yul\":21006:21021   */\n      add\n        /* \"#utility.yul\":20999:21045   */\n      mstore\n        /* \"#utility.yul\":20814:21052   */\n      pop\n      jump\t// out\n        /* \"#utility.yul\":21058:21285   */\n    tag_242:\n        /* \"#utility.yul\":21198:21232   */\n      0x536f727279206e6f206d6f7265207469636b6574206c65667420666f72207468\n        /* \"#utility.yul\":21194:21195   */\n      0x00\n        /* \"#utility.yul\":21186:21192   */\n      dup3\n        /* \"#utility.yul\":21182:21196   */\n      add\n        /* \"#utility.yul\":21175:21233   */\n      mstore\n        /* \"#utility.yul\":21267:21277   */\n      0x6973206576656e74000000000000000000000000000000000000000000000000\n        /* \"#utility.yul\":21262:21264   */\n      0x20\n        /* \"#utility.yul\":21254:21260   */\n      dup3\n        /* \"#utility.yul\":21250:21265   */\n      add\n        /* \"#utility.yul\":21243:21278   */\n      mstore\n        /* \"#utility.yul\":21058:21285   */\n      pop\n      jump\t// out\n        /* \"#utility.yul\":21291:21413   */\n    tag_132:\n        /* \"#utility.yul\":21364:21388   */\n      tag_350\n        /* \"#utility.yul\":21382:21387   */\n      dup2\n        /* \"#utility.yul\":21364:21388   */\n      tag_306\n      jump\t// in\n    tag_350:\n        /* \"#utility.yul\":21357:21362   */\n      dup2\n        /* \"#utility.yul\":21354:21389   */\n      eq\n        /* \"#utility.yul\":21344:21407   */\n      tag_351\n      jumpi\n        /* \"#utility.yul\":21403:21404   */\n      0x00\n        /* \"#utility.yul\":21400:21401   */\n      dup1\n        /* \"#utility.yul\":21393:21405   */\n      revert\n        /* \"#utility.yul\":21344:21407   */\n    tag_351:\n        /* \"#utility.yul\":21291:21413   */\n      pop\n      jump\t// out\n        /* \"#utility.yul\":21419:21541   */\n    tag_142:\n        /* \"#utility.yul\":21492:21516   */\n      tag_353\n        /* \"#utility.yul\":21510:21515   */\n      dup2\n        /* \"#utility.yul\":21492:21516   */\n      tag_246\n      jump\t// in\n    tag_353:\n        /* \"#utility.yul\":21485:21490   */\n      dup2\n        /* \"#utility.yul\":21482:21517   */\n      eq\n        /* \"#utility.yul\":21472:21535   */\n      tag_354\n      jumpi\n        /* \"#utility.yul\":21531:21532   */\n      0x00\n        /* \"#utility.yul\":21528:21529   */\n      dup1\n        /* \"#utility.yul\":21521:21533   */\n      revert\n        /* \"#utility.yul\":21472:21535   */\n    tag_354:\n        /* \"#utility.yul\":21419:21541   */\n      pop\n      jump\t// out\n\n    auxdata: 0xa2646970667358221220903a8ef6a9930f7153a42896fac4547b1f648135e8be3b5355cd9e30ac6757fe64736f6c63430008070033\n}\n",
				"bytecode": {
					"linkReferences": {},
					"object": "608060405234801561001057600080fd5b50336000806101000a81548173ffffffffffffffffffffffffffffffffffffffff021916908373ffffffffffffffffffffffffffffffffffffffff160217905550611696806100606000396000f3fe60806040526004361061004a5760003560e01c80630b7914301461004f5780631ea547ed14610090578063c71e7edc146100b9578063dae7a13c146100d5578063ee3bf80314610112575b600080fd5b34801561005b57600080fd5b5061007660048036038101906100719190610c21565b61012e565b604051610087959493929190610e66565b60405180910390f35b34801561009c57600080fd5b506100b760048036038101906100b29190610b4b565b61021c565b005b6100d360048036038101906100ce9190610c4e565b6103f2565b005b3480156100e157600080fd5b506100fc60048036038101906100f79190610b0b565b6106a3565b6040516101099190611020565b60405180910390f35b61012c60048036038101906101279190610b9e565b6106c8565b005b6001818154811061013e57600080fd5b90600052602060002090600502016000915090508060000160009054906101000a900473ffffffffffffffffffffffffffffffffffffffff169080600101805461018790611221565b80601f01602080910402602001604051908101604052809291908181526020018280546101b390611221565b80156102005780601f106101d557610100808354040283529160200191610200565b820191906000526020600020905b8154815290600101906020018083116101e357829003601f168201915b5050505050908060020154908060030154908060040154905085565b600073ffffffffffffffffffffffffffffffffffffffff168373ffffffffffffffffffffffffffffffffffffffff16141561028c576040517f08c379a000000000000000000000000000000000000000000000000000000000815260040161028390610fa0565b60405180910390fd5b80600260003373ffffffffffffffffffffffffffffffffffffffff1673ffffffffffffffffffffffffffffffffffffffff168152602001908152602001600020600084815260200190815260200160002054101561031f576040517f08c379a000000000000000000000000000000000000000000000000000000000815260040161031690610fe0565b60405180910390fd5b80600260003373ffffffffffffffffffffffffffffffffffffffff1673ffffffffffffffffffffffffffffffffffffffff1681526020019081526020016000206000848152602001908152602001600020600082825461037f919061115d565b9250508190555080600260008573ffffffffffffffffffffffffffffffffffffffff1673ffffffffffffffffffffffffffffffffffffffff168152602001908152602001600020600084815260200190815260200160002060008282546103e691906110ad565b92505081905550505050565b6001805490508210610439576040517f08c379a000000000000000000000000000000000000000000000000000000000815260040161043090610f20565b60405180910390fd5b426001838154811061044e5761044d6112e2565b5b906000526020600020906005020160020154116104a0576040517f08c379a000000000000000000000000000000000000000000000000000000000815260040161049790610fc0565b60405180910390fd5b60008114156104e4576040517f08c379a00000000000000000000000000000000000000000000000000000000081526004016104db90610f80565b60405180910390fd5b600182815481106104f8576104f76112e2565b5b90600052602060002090600502016004015481111561054c576040517f08c379a000000000000000000000000000000000000000000000000000000000815260040161054390611000565b60405180910390fd5b8060018381548110610561576105606112e2565b5b90600052602060002090600502016003015461057d9190611103565b34146105be576040517f08c379a00000000000000000000000000000000000000000000000000000000081526004016105b590610f60565b60405180910390fd5b80600260003373ffffffffffffffffffffffffffffffffffffffff1673ffffffffffffffffffffffffffffffffffffffff16815260200190815260200160002060008481526020019081526020016000208190555060018281548110610627576106266112e2565b5b906000526020600020906005020160000160009054906101000a900473ffffffffffffffffffffffffffffffffffffffff1673ffffffffffffffffffffffffffffffffffffffff166108fc349081150290604051600060405180830381858888f1935050505015801561069e573d6000803e3d6000fd5b505050565b6002602052816000526040600020602052806000526040600020600091509150505481565b60008054906101000a900473ffffffffffffffffffffffffffffffffffffffff1673ffffffffffffffffffffffffffffffffffffffff163373ffffffffffffffffffffffffffffffffffffffff16141580156107515750600073ffffffffffffffffffffffffffffffffffffffff163373ffffffffffffffffffffffffffffffffffffffff1614155b610790576040517f08c379a000000000000000000000000000000000000000000000000000000000815260040161078790610f40565b60405180910390fd5b600083141580156107a057504283115b6107df576040517f08c379a00000000000000000000000000000000000000000000000000000000081526004016107d690610f00565b60405180910390fd5b60008111610822576040517f08c379a000000000000000000000000000000000000000000000000000000000815260040161081990610ee0565b60405180910390fd5b6000821461086f576103e8341461086e576040517f08c379a000000000000000000000000000000000000000000000000000000000815260040161086590610ec0565b60405180910390fd5b5b60006040518060a001604052803373ffffffffffffffffffffffffffffffffffffffff168152602001868152602001858152602001848152602001838152509050600181908060018154018082558091505060019003906000526020600020906005020160009091909190915060008201518160000160006101000a81548173ffffffffffffffffffffffffffffffffffffffff021916908373ffffffffffffffffffffffffffffffffffffffff160217905550602082015181600101908051906020019061093f9291906109ce565b50604082015181600201556060820151816003015560808201518160040155505060008054906101000a900473ffffffffffffffffffffffffffffffffffffffff1673ffffffffffffffffffffffffffffffffffffffff166108fc349081150290604051600060405180830381858888f193505050501580156109c6573d6000803e3d6000fd5b505050505050565b8280546109da90611221565b90600052602060002090601f0160209004810192826109fc5760008555610a43565b82601f10610a1557805160ff1916838001178555610a43565b82800160010185558215610a43579182015b82811115610a42578251825591602001919060010190610a27565b5b509050610a509190610a54565b5090565b5b80821115610a6d576000816000905550600101610a55565b5090565b6000610a84610a7f84611060565b61103b565b905082815260208101848484011115610aa057610a9f611345565b5b610aab8482856111df565b509392505050565b600081359050610ac281611632565b92915050565b600082601f830112610add57610adc611340565b5b8135610aed848260208601610a71565b91505092915050565b600081359050610b0581611649565b92915050565b60008060408385031215610b2257610b2161134f565b5b6000610b3085828601610ab3565b9250506020610b4185828601610af6565b9150509250929050565b600080600060608486031215610b6457610b6361134f565b5b6000610b7286828701610ab3565b9350506020610b8386828701610af6565b9250506040610b9486828701610af6565b9150509250925092565b60008060008060808587031215610bb857610bb761134f565b5b600085013567ffffffffffffffff811115610bd657610bd561134a565b5b610be287828801610ac8565b9450506020610bf387828801610af6565b9350506040610c0487828801610af6565b9250506060610c1587828801610af6565b91505092959194509250565b600060208284031215610c3757610c3661134f565b5b6000610c4584828501610af6565b91505092915050565b60008060408385031215610c6557610c6461134f565b5b6000610c7385828601610af6565b9250506020610c8485828601610af6565b9150509250929050565b610c97816111a3565b82525050565b6000610ca882611091565b610cb2818561109c565b9350610cc28185602086016111ee565b610ccb81611354565b840191505092915050565b6000610ce360348361109c565b9150610cee82611365565b604082019050919050565b6000610d06601a8361109c565b9150610d11826113b4565b602082019050919050565b6000610d2960238361109c565b9150610d34826113dd565b604082019050919050565b6000610d4c60188361109c565b9150610d578261142c565b602082019050919050565b6000610d6f60328361109c565b9150610d7a82611455565b604082019050919050565b6000610d9260248361109c565b9150610d9d826114a4565b604082019050919050565b6000610db5601a8361109c565b9150610dc0826114f3565b602082019050919050565b6000610dd860288361109c565b9150610de38261151c565b604082019050919050565b6000610dfb601f8361109c565b9150610e068261156b565b602082019050919050565b6000610e1e60338361109c565b9150610e2982611594565b604082019050919050565b6000610e4160288361109c565b9150610e4c826115e3565b604082019050919050565b610e60816111d5565b82525050565b600060a082019050610e7b6000830188610c8e565b8181036020830152610e8d8187610c9d565b9050610e9c6040830186610e57565b610ea96060830185610e57565b610eb66080830184610e57565b9695505050505050565b60006020820190508181036000830152610ed981610cd6565b9050919050565b60006020820190508181036000830152610ef981610cf9565b9050919050565b60006020820190508181036000830152610f1981610d1c565b9050919050565b60006020820190508181036000830152610f3981610d3f565b9050919050565b60006020820190508181036000830152610f5981610d62565b9050919050565b60006020820190508181036000830152610f7981610d85565b9050919050565b60006020820190508181036000830152610f9981610da8565b9050919050565b60006020820190508181036000830152610fb981610dcb565b9050919050565b60006020820190508181036000830152610fd981610dee565b9050919050565b60006020820190508181036000830152610ff981610e11565b9050919050565b6000602082019050818103600083015261101981610e34565b9050919050565b60006020820190506110356000830184610e57565b92915050565b6000611045611056565b90506110518282611253565b919050565b6000604051905090565b600067ffffffffffffffff82111561107b5761107a611311565b5b61108482611354565b9050602081019050919050565b600081519050919050565b600082825260208201905092915050565b60006110b8826111d5565b91506110c3836111d5565b9250827fffffffffffffffffffffffffffffffffffffffffffffffffffffffffffffffff038211156110f8576110f7611284565b5b828201905092915050565b600061110e826111d5565b9150611119836111d5565b9250817fffffffffffffffffffffffffffffffffffffffffffffffffffffffffffffffff048311821515161561115257611151611284565b5b828202905092915050565b6000611168826111d5565b9150611173836111d5565b92508282101561118657611185611284565b5b828203905092915050565b600061119c826111b5565b9050919050565b60006111ae826111b5565b9050919050565b600073ffffffffffffffffffffffffffffffffffffffff82169050919050565b6000819050919050565b82818337600083830152505050565b60005b8381101561120c5780820151818401526020810190506111f1565b8381111561121b576000848401525b50505050565b6000600282049050600182168061123957607f821691505b6020821081141561124d5761124c6112b3565b5b50919050565b61125c82611354565b810181811067ffffffffffffffff8211171561127b5761127a611311565b5b80604052505050565b7f4e487b7100000000000000000000000000000000000000000000000000000000600052601160045260246000fd5b7f4e487b7100000000000000000000000000000000000000000000000000000000600052602260045260246000fd5b7f4e487b7100000000000000000000000000000000000000000000000000000000600052603260045260246000fd5b7f4e487b7100000000000000000000000000000000000000000000000000000000600052604160045260246000fd5b600080fd5b600080fd5b600080fd5b600080fd5b6000601f19601f8301169050919050565b7f506c65617365207061792073756666696369656e742066756e6420666f72206f60008201527f7267616e697a696e6720796f7572206576656e74000000000000000000000000602082015250565b7f506c656173652063726561746520736f6d65207469636b657473000000000000600082015250565b7f506c6561736520656e74657220612076616c6964206461746520696e2066757460008201527f7572650000000000000000000000000000000000000000000000000000000000602082015250565b7f4e6f206576656e7473206f6e207468697320696e6465782e0000000000000000600082015250565b7f456e74657220612076616c69642061646472657373206f72206f776e6572206360008201527f616e277420686f737420616e206576656e740000000000000000000000000000602082015250565b7f5472616e736163742073756666696369656e742066756e6420666f722074696360008201527f6b65747300000000000000000000000000000000000000000000000000000000602082015250565b7f506c656173652073656c65637420736f6d65207469636b657473000000000000600082015250565b7f506c6561736520656e74657220612076616c69642061646472657373206f662060008201527f7265636569766572000000000000000000000000000000000000000000000000602082015250565b7f536f72727920746869732073686f7720616c72656164792066696e7368656400600082015250565b7f596f7520646f6e2774206861766520656e6f75676874207469636b6574206f6660008201527f2074686973206576656e7420746f2073656e6400000000000000000000000000602082015250565b7f536f727279206e6f206d6f7265207469636b6574206c65667420666f7220746860008201527f6973206576656e74000000000000000000000000000000000000000000000000602082015250565b61163b81611191565b811461164657600080fd5b50565b611652816111d5565b811461165d57600080fd5b5056fea2646970667358221220903a8ef6a9930f7153a42896fac4547b1f648135e8be3b5355cd9e30ac6757fe64736f6c63430008070033",
					"opcodes": "PUSH1 0x80 PUSH1 0x40 MSTORE CALLVALUE DUP1 ISZERO PUSH2 0x10 JUMPI PUSH1 0x0 DUP1 REVERT JUMPDEST POP CALLER PUSH1 0x0 DUP1 PUSH2 0x100 EXP DUP2 SLOAD DUP2 PUSH20 0xFFFFFFFFFFFFFFFFFFFFFFFFFFFFFFFFFFFFFFFF MUL NOT AND SWAP1 DUP4 PUSH20 0xFFFFFFFFFFFFFFFFFFFFFFFFFFFFFFFFFFFFFFFF AND MUL OR SWAP1 SSTORE POP PUSH2 0x1696 DUP1 PUSH2 0x60 PUSH1 0x0 CODECOPY PUSH1 0x0 RETURN INVALID PUSH1 0x80 PUSH1 0x40 MSTORE PUSH1 0x4 CALLDATASIZE LT PUSH2 0x4A JUMPI PUSH1 0x0 CALLDATALOAD PUSH1 0xE0 SHR DUP1 PUSH4 0xB791430 EQ PUSH2 0x4F JUMPI DUP1 PUSH4 0x1EA547ED EQ PUSH2 0x90 JUMPI DUP1 PUSH4 0xC71E7EDC EQ PUSH2 0xB9 JUMPI DUP1 PUSH4 0xDAE7A13C EQ PUSH2 0xD5 JUMPI DUP1 PUSH4 0xEE3BF803 EQ PUSH2 0x112 JUMPI JUMPDEST PUSH1 0x0 DUP1 REVERT JUMPDEST CALLVALUE DUP1 ISZERO PUSH2 0x5B JUMPI PUSH1 0x0 DUP1 REVERT JUMPDEST POP PUSH2 0x76 PUSH1 0x4 DUP1 CALLDATASIZE SUB DUP2 ADD SWAP1 PUSH2 0x71 SWAP2 SWAP1 PUSH2 0xC21 JUMP JUMPDEST PUSH2 0x12E JUMP JUMPDEST PUSH1 0x40 MLOAD PUSH2 0x87 SWAP6 SWAP5 SWAP4 SWAP3 SWAP2 SWAP1 PUSH2 0xE66 JUMP JUMPDEST PUSH1 0x40 MLOAD DUP1 SWAP2 SUB SWAP1 RETURN JUMPDEST CALLVALUE DUP1 ISZERO PUSH2 0x9C JUMPI PUSH1 0x0 DUP1 REVERT JUMPDEST POP PUSH2 0xB7 PUSH1 0x4 DUP1 CALLDATASIZE SUB DUP2 ADD SWAP1 PUSH2 0xB2 SWAP2 SWAP1 PUSH2 0xB4B JUMP JUMPDEST PUSH2 0x21C JUMP JUMPDEST STOP JUMPDEST PUSH2 0xD3 PUSH1 0x4 DUP1 CALLDATASIZE SUB DUP2 ADD SWAP1 PUSH2 0xCE SWAP2 SWAP1 PUSH2 0xC4E JUMP JUMPDEST PUSH2 0x3F2 JUMP JUMPDEST STOP JUMPDEST CALLVALUE DUP1 ISZERO PUSH2 0xE1 JUMPI PUSH1 0x0 DUP1 REVERT JUMPDEST POP PUSH2 0xFC PUSH1 0x4 DUP1 CALLDATASIZE SUB DUP2 ADD SWAP1 PUSH2 0xF7 SWAP2 SWAP1 PUSH2 0xB0B JUMP JUMPDEST PUSH2 0x6A3 JUMP JUMPDEST PUSH1 0x40 MLOAD PUSH2 0x109 SWAP2 SWAP1 PUSH2 0x1020 JUMP JUMPDEST PUSH1 0x40 MLOAD DUP1 SWAP2 SUB SWAP1 RETURN JUMPDEST PUSH2 0x12C PUSH1 0x4 DUP1 CALLDATASIZE SUB DUP2 ADD SWAP1 PUSH2 0x127 SWAP2 SWAP1 PUSH2 0xB9E JUMP JUMPDEST PUSH2 0x6C8 JUMP JUMPDEST STOP JUMPDEST PUSH1 0x1 DUP2 DUP2 SLOAD DUP2 LT PUSH2 0x13E JUMPI PUSH1 0x0 DUP1 REVERT JUMPDEST SWAP1 PUSH1 0x0 MSTORE PUSH1 0x20 PUSH1 0x0 KECCAK256 SWAP1 PUSH1 0x5 MUL ADD PUSH1 0x0 SWAP2 POP SWAP1 POP DUP1 PUSH1 0x0 ADD PUSH1 0x0 SWAP1 SLOAD SWAP1 PUSH2 0x100 EXP SWAP1 DIV PUSH20 0xFFFFFFFFFFFFFFFFFFFFFFFFFFFFFFFFFFFFFFFF AND SWAP1 DUP1 PUSH1 0x1 ADD DUP1 SLOAD PUSH2 0x187 SWAP1 PUSH2 0x1221 JUMP JUMPDEST DUP1 PUSH1 0x1F ADD PUSH1 0x20 DUP1 SWAP2 DIV MUL PUSH1 0x20 ADD PUSH1 0x40 MLOAD SWAP1 DUP2 ADD PUSH1 0x40 MSTORE DUP1 SWAP3 SWAP2 SWAP1 DUP2 DUP2 MSTORE PUSH1 0x20 ADD DUP3 DUP1 SLOAD PUSH2 0x1B3 SWAP1 PUSH2 0x1221 JUMP JUMPDEST DUP1 ISZERO PUSH2 0x200 JUMPI DUP1 PUSH1 0x1F LT PUSH2 0x1D5 JUMPI PUSH2 0x100 DUP1 DUP4 SLOAD DIV MUL DUP4 MSTORE SWAP2 PUSH1 0x20 ADD SWAP2 PUSH2 0x200 JUMP JUMPDEST DUP3 ADD SWAP2 SWAP1 PUSH1 0x0 MSTORE PUSH1 0x20 PUSH1 0x0 KECCAK256 SWAP1 JUMPDEST DUP2 SLOAD DUP2 MSTORE SWAP1 PUSH1 0x1 ADD SWAP1 PUSH1 0x20 ADD DUP1 DUP4 GT PUSH2 0x1E3 JUMPI DUP3 SWAP1 SUB PUSH1 0x1F AND DUP3 ADD SWAP2 JUMPDEST POP POP POP POP POP SWAP1 DUP1 PUSH1 0x2 ADD SLOAD SWAP1 DUP1 PUSH1 0x3 ADD SLOAD SWAP1 DUP1 PUSH1 0x4 ADD SLOAD SWAP1 POP DUP6 JUMP JUMPDEST PUSH1 0x0 PUSH20 0xFFFFFFFFFFFFFFFFFFFFFFFFFFFFFFFFFFFFFFFF AND DUP4 PUSH20 0xFFFFFFFFFFFFFFFFFFFFFFFFFFFFFFFFFFFFFFFF AND EQ ISZERO PUSH2 0x28C JUMPI PUSH1 0x40 MLOAD PUSH32 0x8C379A000000000000000000000000000000000000000000000000000000000 DUP2 MSTORE PUSH1 0x4 ADD PUSH2 0x283 SWAP1 PUSH2 0xFA0 JUMP JUMPDEST PUSH1 0x40 MLOAD DUP1 SWAP2 SUB SWAP1 REVERT JUMPDEST DUP1 PUSH1 0x2 PUSH1 0x0 CALLER PUSH20 0xFFFFFFFFFFFFFFFFFFFFFFFFFFFFFFFFFFFFFFFF AND PUSH20 0xFFFFFFFFFFFFFFFFFFFFFFFFFFFFFFFFFFFFFFFF AND DUP2 MSTORE PUSH1 0x20 ADD SWAP1 DUP2 MSTORE PUSH1 0x20 ADD PUSH1 0x0 KECCAK256 PUSH1 0x0 DUP5 DUP2 MSTORE PUSH1 0x20 ADD SWAP1 DUP2 MSTORE PUSH1 0x20 ADD PUSH1 0x0 KECCAK256 SLOAD LT ISZERO PUSH2 0x31F JUMPI PUSH1 0x40 MLOAD PUSH32 0x8C379A000000000000000000000000000000000000000000000000000000000 DUP2 MSTORE PUSH1 0x4 ADD PUSH2 0x316 SWAP1 PUSH2 0xFE0 JUMP JUMPDEST PUSH1 0x40 MLOAD DUP1 SWAP2 SUB SWAP1 REVERT JUMPDEST DUP1 PUSH1 0x2 PUSH1 0x0 CALLER PUSH20 0xFFFFFFFFFFFFFFFFFFFFFFFFFFFFFFFFFFFFFFFF AND PUSH20 0xFFFFFFFFFFFFFFFFFFFFFFFFFFFFFFFFFFFFFFFF AND DUP2 MSTORE PUSH1 0x20 ADD SWAP1 DUP2 MSTORE PUSH1 0x20 ADD PUSH1 0x0 KECCAK256 PUSH1 0x0 DUP5 DUP2 MSTORE PUSH1 0x20 ADD SWAP1 DUP2 MSTORE PUSH1 0x20 ADD PUSH1 0x0 KECCAK256 PUSH1 0x0 DUP3 DUP3 SLOAD PUSH2 0x37F SWAP2 SWAP1 PUSH2 0x115D JUMP JUMPDEST SWAP3 POP POP DUP2 SWAP1 SSTORE POP DUP1 PUSH1 0x2 PUSH1 0x0 DUP6 PUSH20 0xFFFFFFFFFFFFFFFFFFFFFFFFFFFFFFFFFFFFFFFF AND PUSH20 0xFFFFFFFFFFFFFFFFFFFFFFFFFFFFFFFFFFFFFFFF AND DUP2 MSTORE PUSH1 0x20 ADD SWAP1 DUP2 MSTORE PUSH1 0x20 ADD PUSH1 0x0 KECCAK256 PUSH1 0x0 DUP5 DUP2 MSTORE PUSH1 0x20 ADD SWAP1 DUP2 MSTORE PUSH1 0x20 ADD PUSH1 0x0 KECCAK256 PUSH1 0x0 DUP3 DUP3 SLOAD PUSH2 0x3E6 SWAP2 SWAP1 PUSH2 0x10AD JUMP JUMPDEST SWAP3 POP POP DUP2 SWAP1 SSTORE POP POP POP POP JUMP JUMPDEST PUSH1 0x1 DUP1 SLOAD SWAP1 POP DUP3 LT PUSH2 0x439 JUMPI PUSH1 0x40 MLOAD PUSH32 0x8C379A000000000000000000000000000000000000000000000000000000000 DUP2 MSTORE PUSH1 0x4 ADD PUSH2 0x430 SWAP1 PUSH2 0xF20 JUMP JUMPDEST PUSH1 0x40 MLOAD DUP1 SWAP2 SUB SWAP1 REVERT JUMPDEST TIMESTAMP PUSH1 0x1 DUP4 DUP2 SLOAD DUP2 LT PUSH2 0x44E JUMPI PUSH2 0x44D PUSH2 0x12E2 JUMP JUMPDEST JUMPDEST SWAP1 PUSH1 0x0 MSTORE PUSH1 0x20 PUSH1 0x0 KECCAK256 SWAP1 PUSH1 0x5 MUL ADD PUSH1 0x2 ADD SLOAD GT PUSH2 0x4A0 JUMPI PUSH1 0x40 MLOAD PUSH32 0x8C379A000000000000000000000000000000000000000000000000000000000 DUP2 MSTORE PUSH1 0x4 ADD PUSH2 0x497 SWAP1 PUSH2 0xFC0 JUMP JUMPDEST PUSH1 0x40 MLOAD DUP1 SWAP2 SUB SWAP1 REVERT JUMPDEST PUSH1 0x0 DUP2 EQ ISZERO PUSH2 0x4E4 JUMPI PUSH1 0x40 MLOAD PUSH32 0x8C379A000000000000000000000000000000000000000000000000000000000 DUP2 MSTORE PUSH1 0x4 ADD PUSH2 0x4DB SWAP1 PUSH2 0xF80 JUMP JUMPDEST PUSH1 0x40 MLOAD DUP1 SWAP2 SUB SWAP1 REVERT JUMPDEST PUSH1 0x1 DUP3 DUP2 SLOAD DUP2 LT PUSH2 0x4F8 JUMPI PUSH2 0x4F7 PUSH2 0x12E2 JUMP JUMPDEST JUMPDEST SWAP1 PUSH1 0x0 MSTORE PUSH1 0x20 PUSH1 0x0 KECCAK256 SWAP1 PUSH1 0x5 MUL ADD PUSH1 0x4 ADD SLOAD DUP2 GT ISZERO PUSH2 0x54C JUMPI PUSH1 0x40 MLOAD PUSH32 0x8C379A000000000000000000000000000000000000000000000000000000000 DUP2 MSTORE PUSH1 0x4 ADD PUSH2 0x543 SWAP1 PUSH2 0x1000 JUMP JUMPDEST PUSH1 0x40 MLOAD DUP1 SWAP2 SUB SWAP1 REVERT JUMPDEST DUP1 PUSH1 0x1 DUP4 DUP2 SLOAD DUP2 LT PUSH2 0x561 JUMPI PUSH2 0x560 PUSH2 0x12E2 JUMP JUMPDEST JUMPDEST SWAP1 PUSH1 0x0 MSTORE PUSH1 0x20 PUSH1 0x0 KECCAK256 SWAP1 PUSH1 0x5 MUL ADD PUSH1 0x3 ADD SLOAD PUSH2 0x57D SWAP2 SWAP1 PUSH2 0x1103 JUMP JUMPDEST CALLVALUE EQ PUSH2 0x5BE JUMPI PUSH1 0x40 MLOAD PUSH32 0x8C379A000000000000000000000000000000000000000000000000000000000 DUP2 MSTORE PUSH1 0x4 ADD PUSH2 0x5B5 SWAP1 PUSH2 0xF60 JUMP JUMPDEST PUSH1 0x40 MLOAD DUP1 SWAP2 SUB SWAP1 REVERT JUMPDEST DUP1 PUSH1 0x2 PUSH1 0x0 CALLER PUSH20 0xFFFFFFFFFFFFFFFFFFFFFFFFFFFFFFFFFFFFFFFF AND PUSH20 0xFFFFFFFFFFFFFFFFFFFFFFFFFFFFFFFFFFFFFFFF AND DUP2 MSTORE PUSH1 0x20 ADD SWAP1 DUP2 MSTORE PUSH1 0x20 ADD PUSH1 0x0 KECCAK256 PUSH1 0x0 DUP5 DUP2 MSTORE PUSH1 0x20 ADD SWAP1 DUP2 MSTORE PUSH1 0x20 ADD PUSH1 0x0 KECCAK256 DUP2 SWAP1 SSTORE POP PUSH1 0x1 DUP3 DUP2 SLOAD DUP2 LT PUSH2 0x627 JUMPI PUSH2 0x626 PUSH2 0x12E2 JUMP JUMPDEST JUMPDEST SWAP1 PUSH1 0x0 MSTORE PUSH1 0x20 PUSH1 0x0 KECCAK256 SWAP1 PUSH1 0x5 MUL ADD PUSH1 0x0 ADD PUSH1 0x0 SWAP1 SLOAD SWAP1 PUSH2 0x100 EXP SWAP1 DIV PUSH20 0xFFFFFFFFFFFFFFFFFFFFFFFFFFFFFFFFFFFFFFFF AND PUSH20 0xFFFFFFFFFFFFFFFFFFFFFFFFFFFFFFFFFFFFFFFF AND PUSH2 0x8FC CALLVALUE SWAP1 DUP2 ISZERO MUL SWAP1 PUSH1 0x40 MLOAD PUSH1 0x0 PUSH1 0x40 MLOAD DUP1 DUP4 SUB DUP2 DUP6 DUP9 DUP9 CALL SWAP4 POP POP POP POP ISZERO DUP1 ISZERO PUSH2 0x69E JUMPI RETURNDATASIZE PUSH1 0x0 DUP1 RETURNDATACOPY RETURNDATASIZE PUSH1 0x0 REVERT JUMPDEST POP POP POP JUMP JUMPDEST PUSH1 0x2 PUSH1 0x20 MSTORE DUP2 PUSH1 0x0 MSTORE PUSH1 0x40 PUSH1 0x0 KECCAK256 PUSH1 0x20 MSTORE DUP1 PUSH1 0x0 MSTORE PUSH1 0x40 PUSH1 0x0 KECCAK256 PUSH1 0x0 SWAP2 POP SWAP2 POP POP SLOAD DUP2 JUMP JUMPDEST PUSH1 0x0 DUP1 SLOAD SWAP1 PUSH2 0x100 EXP SWAP1 DIV PUSH20 0xFFFFFFFFFFFFFFFFFFFFFFFFFFFFFFFFFFFFFFFF AND PUSH20 0xFFFFFFFFFFFFFFFFFFFFFFFFFFFFFFFFFFFFFFFF AND CALLER PUSH20 0xFFFFFFFFFFFFFFFFFFFFFFFFFFFFFFFFFFFFFFFF AND EQ ISZERO DUP1 ISZERO PUSH2 0x751 JUMPI POP PUSH1 0x0 PUSH20 0xFFFFFFFFFFFFFFFFFFFFFFFFFFFFFFFFFFFFFFFF AND CALLER PUSH20 0xFFFFFFFFFFFFFFFFFFFFFFFFFFFFFFFFFFFFFFFF AND EQ ISZERO JUMPDEST PUSH2 0x790 JUMPI PUSH1 0x40 MLOAD PUSH32 0x8C379A000000000000000000000000000000000000000000000000000000000 DUP2 MSTORE PUSH1 0x4 ADD PUSH2 0x787 SWAP1 PUSH2 0xF40 JUMP JUMPDEST PUSH1 0x40 MLOAD DUP1 SWAP2 SUB SWAP1 REVERT JUMPDEST PUSH1 0x0 DUP4 EQ ISZERO DUP1 ISZERO PUSH2 0x7A0 JUMPI POP TIMESTAMP DUP4 GT JUMPDEST PUSH2 0x7DF JUMPI PUSH1 0x40 MLOAD PUSH32 0x8C379A000000000000000000000000000000000000000000000000000000000 DUP2 MSTORE PUSH1 0x4 ADD PUSH2 0x7D6 SWAP1 PUSH2 0xF00 JUMP JUMPDEST PUSH1 0x40 MLOAD DUP1 SWAP2 SUB SWAP1 REVERT JUMPDEST PUSH1 0x0 DUP2 GT PUSH2 0x822 JUMPI PUSH1 0x40 MLOAD PUSH32 0x8C379A000000000000000000000000000000000000000000000000000000000 DUP2 MSTORE PUSH1 0x4 ADD PUSH2 0x819 SWAP1 PUSH2 0xEE0 JUMP JUMPDEST PUSH1 0x40 MLOAD DUP1 SWAP2 SUB SWAP1 REVERT JUMPDEST PUSH1 0x0 DUP3 EQ PUSH2 0x86F JUMPI PUSH2 0x3E8 CALLVALUE EQ PUSH2 0x86E JUMPI PUSH1 0x40 MLOAD PUSH32 0x8C379A000000000000000000000000000000000000000000000000000000000 DUP2 MSTORE PUSH1 0x4 ADD PUSH2 0x865 SWAP1 PUSH2 0xEC0 JUMP JUMPDEST PUSH1 0x40 MLOAD DUP1 SWAP2 SUB SWAP1 REVERT JUMPDEST JUMPDEST PUSH1 0x0 PUSH1 0x40 MLOAD DUP1 PUSH1 0xA0 ADD PUSH1 0x40 MSTORE DUP1 CALLER PUSH20 0xFFFFFFFFFFFFFFFFFFFFFFFFFFFFFFFFFFFFFFFF AND DUP2 MSTORE PUSH1 0x20 ADD DUP7 DUP2 MSTORE PUSH1 0x20 ADD DUP6 DUP2 MSTORE PUSH1 0x20 ADD DUP5 DUP2 MSTORE PUSH1 0x20 ADD DUP4 DUP2 MSTORE POP SWAP1 POP PUSH1 0x1 DUP2 SWAP1 DUP1 PUSH1 0x1 DUP2 SLOAD ADD DUP1 DUP3 SSTORE DUP1 SWAP2 POP POP PUSH1 0x1 SWAP1 SUB SWAP1 PUSH1 0x0 MSTORE PUSH1 0x20 PUSH1 0x0 KECCAK256 SWAP1 PUSH1 0x5 MUL ADD PUSH1 0x0 SWAP1 SWAP2 SWAP1 SWAP2 SWAP1 SWAP2 POP PUSH1 0x0 DUP3 ADD MLOAD DUP2 PUSH1 0x0 ADD PUSH1 0x0 PUSH2 0x100 EXP DUP2 SLOAD DUP2 PUSH20 0xFFFFFFFFFFFFFFFFFFFFFFFFFFFFFFFFFFFFFFFF MUL NOT AND SWAP1 DUP4 PUSH20 0xFFFFFFFFFFFFFFFFFFFFFFFFFFFFFFFFFFFFFFFF AND MUL OR SWAP1 SSTORE POP PUSH1 0x20 DUP3 ADD MLOAD DUP2 PUSH1 0x1 ADD SWAP1 DUP1 MLOAD SWAP1 PUSH1 0x20 ADD SWAP1 PUSH2 0x93F SWAP3 SWAP2 SWAP1 PUSH2 0x9CE JUMP JUMPDEST POP PUSH1 0x40 DUP3 ADD MLOAD DUP2 PUSH1 0x2 ADD SSTORE PUSH1 0x60 DUP3 ADD MLOAD DUP2 PUSH1 0x3 ADD SSTORE PUSH1 0x80 DUP3 ADD MLOAD DUP2 PUSH1 0x4 ADD SSTORE POP POP PUSH1 0x0 DUP1 SLOAD SWAP1 PUSH2 0x100 EXP SWAP1 DIV PUSH20 0xFFFFFFFFFFFFFFFFFFFFFFFFFFFFFFFFFFFFFFFF AND PUSH20 0xFFFFFFFFFFFFFFFFFFFFFFFFFFFFFFFFFFFFFFFF AND PUSH2 0x8FC CALLVALUE SWAP1 DUP2 ISZERO MUL SWAP1 PUSH1 0x40 MLOAD PUSH1 0x0 PUSH1 0x40 MLOAD DUP1 DUP4 SUB DUP2 DUP6 DUP9 DUP9 CALL SWAP4 POP POP POP POP ISZERO DUP1 ISZERO PUSH2 0x9C6 JUMPI RETURNDATASIZE PUSH1 0x0 DUP1 RETURNDATACOPY RETURNDATASIZE PUSH1 0x0 REVERT JUMPDEST POP POP POP POP POP POP JUMP JUMPDEST DUP3 DUP1 SLOAD PUSH2 0x9DA SWAP1 PUSH2 0x1221 JUMP JUMPDEST SWAP1 PUSH1 0x0 MSTORE PUSH1 0x20 PUSH1 0x0 KECCAK256 SWAP1 PUSH1 0x1F ADD PUSH1 0x20 SWAP1 DIV DUP2 ADD SWAP3 DUP3 PUSH2 0x9FC JUMPI PUSH1 0x0 DUP6 SSTORE PUSH2 0xA43 JUMP JUMPDEST DUP3 PUSH1 0x1F LT PUSH2 0xA15 JUMPI DUP1 MLOAD PUSH1 0xFF NOT AND DUP4 DUP1 ADD OR DUP6 SSTORE PUSH2 0xA43 JUMP JUMPDEST DUP3 DUP1 ADD PUSH1 0x1 ADD DUP6 SSTORE DUP3 ISZERO PUSH2 0xA43 JUMPI SWAP2 DUP3 ADD JUMPDEST DUP3 DUP2 GT ISZERO PUSH2 0xA42 JUMPI DUP3 MLOAD DUP3 SSTORE SWAP2 PUSH1 0x20 ADD SWAP2 SWAP1 PUSH1 0x1 ADD SWAP1 PUSH2 0xA27 JUMP JUMPDEST JUMPDEST POP SWAP1 POP PUSH2 0xA50 SWAP2 SWAP1 PUSH2 0xA54 JUMP JUMPDEST POP SWAP1 JUMP JUMPDEST JUMPDEST DUP1 DUP3 GT ISZERO PUSH2 0xA6D JUMPI PUSH1 0x0 DUP2 PUSH1 0x0 SWAP1 SSTORE POP PUSH1 0x1 ADD PUSH2 0xA55 JUMP JUMPDEST POP SWAP1 JUMP JUMPDEST PUSH1 0x0 PUSH2 0xA84 PUSH2 0xA7F DUP5 PUSH2 0x1060 JUMP JUMPDEST PUSH2 0x103B JUMP JUMPDEST SWAP1 POP DUP3 DUP2 MSTORE PUSH1 0x20 DUP2 ADD DUP5 DUP5 DUP5 ADD GT ISZERO PUSH2 0xAA0 JUMPI PUSH2 0xA9F PUSH2 0x1345 JUMP JUMPDEST JUMPDEST PUSH2 0xAAB DUP5 DUP3 DUP6 PUSH2 0x11DF JUMP JUMPDEST POP SWAP4 SWAP3 POP POP POP JUMP JUMPDEST PUSH1 0x0 DUP2 CALLDATALOAD SWAP1 POP PUSH2 0xAC2 DUP2 PUSH2 0x1632 JUMP JUMPDEST SWAP3 SWAP2 POP POP JUMP JUMPDEST PUSH1 0x0 DUP3 PUSH1 0x1F DUP4 ADD SLT PUSH2 0xADD JUMPI PUSH2 0xADC PUSH2 0x1340 JUMP JUMPDEST JUMPDEST DUP2 CALLDATALOAD PUSH2 0xAED DUP5 DUP3 PUSH1 0x20 DUP7 ADD PUSH2 0xA71 JUMP JUMPDEST SWAP2 POP POP SWAP3 SWAP2 POP POP JUMP JUMPDEST PUSH1 0x0 DUP2 CALLDATALOAD SWAP1 POP PUSH2 0xB05 DUP2 PUSH2 0x1649 JUMP JUMPDEST SWAP3 SWAP2 POP POP JUMP JUMPDEST PUSH1 0x0 DUP1 PUSH1 0x40 DUP4 DUP6 SUB SLT ISZERO PUSH2 0xB22 JUMPI PUSH2 0xB21 PUSH2 0x134F JUMP JUMPDEST JUMPDEST PUSH1 0x0 PUSH2 0xB30 DUP6 DUP3 DUP7 ADD PUSH2 0xAB3 JUMP JUMPDEST SWAP3 POP POP PUSH1 0x20 PUSH2 0xB41 DUP6 DUP3 DUP7 ADD PUSH2 0xAF6 JUMP JUMPDEST SWAP2 POP POP SWAP3 POP SWAP3 SWAP1 POP JUMP JUMPDEST PUSH1 0x0 DUP1 PUSH1 0x0 PUSH1 0x60 DUP5 DUP7 SUB SLT ISZERO PUSH2 0xB64 JUMPI PUSH2 0xB63 PUSH2 0x134F JUMP JUMPDEST JUMPDEST PUSH1 0x0 PUSH2 0xB72 DUP7 DUP3 DUP8 ADD PUSH2 0xAB3 JUMP JUMPDEST SWAP4 POP POP PUSH1 0x20 PUSH2 0xB83 DUP7 DUP3 DUP8 ADD PUSH2 0xAF6 JUMP JUMPDEST SWAP3 POP POP PUSH1 0x40 PUSH2 0xB94 DUP7 DUP3 DUP8 ADD PUSH2 0xAF6 JUMP JUMPDEST SWAP2 POP POP SWAP3 POP SWAP3 POP SWAP3 JUMP JUMPDEST PUSH1 0x0 DUP1 PUSH1 0x0 DUP1 PUSH1 0x80 DUP6 DUP8 SUB SLT ISZERO PUSH2 0xBB8 JUMPI PUSH2 0xBB7 PUSH2 0x134F JUMP JUMPDEST JUMPDEST PUSH1 0x0 DUP6 ADD CALLDATALOAD PUSH8 0xFFFFFFFFFFFFFFFF DUP2 GT ISZERO PUSH2 0xBD6 JUMPI PUSH2 0xBD5 PUSH2 0x134A JUMP JUMPDEST JUMPDEST PUSH2 0xBE2 DUP8 DUP3 DUP9 ADD PUSH2 0xAC8 JUMP JUMPDEST SWAP5 POP POP PUSH1 0x20 PUSH2 0xBF3 DUP8 DUP3 DUP9 ADD PUSH2 0xAF6 JUMP JUMPDEST SWAP4 POP POP PUSH1 0x40 PUSH2 0xC04 DUP8 DUP3 DUP9 ADD PUSH2 0xAF6 JUMP JUMPDEST SWAP3 POP POP PUSH1 0x60 PUSH2 0xC15 DUP8 DUP3 DUP9 ADD PUSH2 0xAF6 JUMP JUMPDEST SWAP2 POP POP SWAP3 SWAP6 SWAP2 SWAP5 POP SWAP3 POP JUMP JUMPDEST PUSH1 0x0 PUSH1 0x20 DUP3 DUP5 SUB SLT ISZERO PUSH2 0xC37 JUMPI PUSH2 0xC36 PUSH2 0x134F JUMP JUMPDEST JUMPDEST PUSH1 0x0 PUSH2 0xC45 DUP5 DUP3 DUP6 ADD PUSH2 0xAF6 JUMP JUMPDEST SWAP2 POP POP SWAP3 SWAP2 POP POP JUMP JUMPDEST PUSH1 0x0 DUP1 PUSH1 0x40 DUP4 DUP6 SUB SLT ISZERO PUSH2 0xC65 JUMPI PUSH2 0xC64 PUSH2 0x134F JUMP JUMPDEST JUMPDEST PUSH1 0x0 PUSH2 0xC73 DUP6 DUP3 DUP7 ADD PUSH2 0xAF6 JUMP JUMPDEST SWAP3 POP POP PUSH1 0x20 PUSH2 0xC84 DUP6 DUP3 DUP7 ADD PUSH2 0xAF6 JUMP JUMPDEST SWAP2 POP POP SWAP3 POP SWAP3 SWAP1 POP JUMP JUMPDEST PUSH2 0xC97 DUP2 PUSH2 0x11A3 JUMP JUMPDEST DUP3 MSTORE POP POP JUMP JUMPDEST PUSH1 0x0 PUSH2 0xCA8 DUP3 PUSH2 0x1091 JUMP JUMPDEST PUSH2 0xCB2 DUP2 DUP6 PUSH2 0x109C JUMP JUMPDEST SWAP4 POP PUSH2 0xCC2 DUP2 DUP6 PUSH1 0x20 DUP7 ADD PUSH2 0x11EE JUMP JUMPDEST PUSH2 0xCCB DUP2 PUSH2 0x1354 JUMP JUMPDEST DUP5 ADD SWAP2 POP POP SWAP3 SWAP2 POP POP JUMP JUMPDEST PUSH1 0x0 PUSH2 0xCE3 PUSH1 0x34 DUP4 PUSH2 0x109C JUMP JUMPDEST SWAP2 POP PUSH2 0xCEE DUP3 PUSH2 0x1365 JUMP JUMPDEST PUSH1 0x40 DUP3 ADD SWAP1 POP SWAP2 SWAP1 POP JUMP JUMPDEST PUSH1 0x0 PUSH2 0xD06 PUSH1 0x1A DUP4 PUSH2 0x109C JUMP JUMPDEST SWAP2 POP PUSH2 0xD11 DUP3 PUSH2 0x13B4 JUMP JUMPDEST PUSH1 0x20 DUP3 ADD SWAP1 POP SWAP2 SWAP1 POP JUMP JUMPDEST PUSH1 0x0 PUSH2 0xD29 PUSH1 0x23 DUP4 PUSH2 0x109C JUMP JUMPDEST SWAP2 POP PUSH2 0xD34 DUP3 PUSH2 0x13DD JUMP JUMPDEST PUSH1 0x40 DUP3 ADD SWAP1 POP SWAP2 SWAP1 POP JUMP JUMPDEST PUSH1 0x0 PUSH2 0xD4C PUSH1 0x18 DUP4 PUSH2 0x109C JUMP JUMPDEST SWAP2 POP PUSH2 0xD57 DUP3 PUSH2 0x142C JUMP JUMPDEST PUSH1 0x20 DUP3 ADD SWAP1 POP SWAP2 SWAP1 POP JUMP JUMPDEST PUSH1 0x0 PUSH2 0xD6F PUSH1 0x32 DUP4 PUSH2 0x109C JUMP JUMPDEST SWAP2 POP PUSH2 0xD7A DUP3 PUSH2 0x1455 JUMP JUMPDEST PUSH1 0x40 DUP3 ADD SWAP1 POP SWAP2 SWAP1 POP JUMP JUMPDEST PUSH1 0x0 PUSH2 0xD92 PUSH1 0x24 DUP4 PUSH2 0x109C JUMP JUMPDEST SWAP2 POP PUSH2 0xD9D DUP3 PUSH2 0x14A4 JUMP JUMPDEST PUSH1 0x40 DUP3 ADD SWAP1 POP SWAP2 SWAP1 POP JUMP JUMPDEST PUSH1 0x0 PUSH2 0xDB5 PUSH1 0x1A DUP4 PUSH2 0x109C JUMP JUMPDEST SWAP2 POP PUSH2 0xDC0 DUP3 PUSH2 0x14F3 JUMP JUMPDEST PUSH1 0x20 DUP3 ADD SWAP1 POP SWAP2 SWAP1 POP JUMP JUMPDEST PUSH1 0x0 PUSH2 0xDD8 PUSH1 0x28 DUP4 PUSH2 0x109C JUMP JUMPDEST SWAP2 POP PUSH2 0xDE3 DUP3 PUSH2 0x151C JUMP JUMPDEST PUSH1 0x40 DUP3 ADD SWAP1 POP SWAP2 SWAP1 POP JUMP JUMPDEST PUSH1 0x0 PUSH2 0xDFB PUSH1 0x1F DUP4 PUSH2 0x109C JUMP JUMPDEST SWAP2 POP PUSH2 0xE06 DUP3 PUSH2 0x156B JUMP JUMPDEST PUSH1 0x20 DUP3 ADD SWAP1 POP SWAP2 SWAP1 POP JUMP JUMPDEST PUSH1 0x0 PUSH2 0xE1E PUSH1 0x33 DUP4 PUSH2 0x109C JUMP JUMPDEST SWAP2 POP PUSH2 0xE29 DUP3 PUSH2 0x1594 JUMP JUMPDEST PUSH1 0x40 DUP3 ADD SWAP1 POP SWAP2 SWAP1 POP JUMP JUMPDEST PUSH1 0x0 PUSH2 0xE41 PUSH1 0x28 DUP4 PUSH2 0x109C JUMP JUMPDEST SWAP2 POP PUSH2 0xE4C DUP3 PUSH2 0x15E3 JUMP JUMPDEST PUSH1 0x40 DUP3 ADD SWAP1 POP SWAP2 SWAP1 POP JUMP JUMPDEST PUSH2 0xE60 DUP2 PUSH2 0x11D5 JUMP JUMPDEST DUP3 MSTORE POP POP JUMP JUMPDEST PUSH1 0x0 PUSH1 0xA0 DUP3 ADD SWAP1 POP PUSH2 0xE7B PUSH1 0x0 DUP4 ADD DUP9 PUSH2 0xC8E JUMP JUMPDEST DUP2 DUP2 SUB PUSH1 0x20 DUP4 ADD MSTORE PUSH2 0xE8D DUP2 DUP8 PUSH2 0xC9D JUMP JUMPDEST SWAP1 POP PUSH2 0xE9C PUSH1 0x40 DUP4 ADD DUP7 PUSH2 0xE57 JUMP JUMPDEST PUSH2 0xEA9 PUSH1 0x60 DUP4 ADD DUP6 PUSH2 0xE57 JUMP JUMPDEST PUSH2 0xEB6 PUSH1 0x80 DUP4 ADD DUP5 PUSH2 0xE57 JUMP JUMPDEST SWAP7 SWAP6 POP POP POP POP POP POP JUMP JUMPDEST PUSH1 0x0 PUSH1 0x20 DUP3 ADD SWAP1 POP DUP2 DUP2 SUB PUSH1 0x0 DUP4 ADD MSTORE PUSH2 0xED9 DUP2 PUSH2 0xCD6 JUMP JUMPDEST SWAP1 POP SWAP2 SWAP1 POP JUMP JUMPDEST PUSH1 0x0 PUSH1 0x20 DUP3 ADD SWAP1 POP DUP2 DUP2 SUB PUSH1 0x0 DUP4 ADD MSTORE PUSH2 0xEF9 DUP2 PUSH2 0xCF9 JUMP JUMPDEST SWAP1 POP SWAP2 SWAP1 POP JUMP JUMPDEST PUSH1 0x0 PUSH1 0x20 DUP3 ADD SWAP1 POP DUP2 DUP2 SUB PUSH1 0x0 DUP4 ADD MSTORE PUSH2 0xF19 DUP2 PUSH2 0xD1C JUMP JUMPDEST SWAP1 POP SWAP2 SWAP1 POP JUMP JUMPDEST PUSH1 0x0 PUSH1 0x20 DUP3 ADD SWAP1 POP DUP2 DUP2 SUB PUSH1 0x0 DUP4 ADD MSTORE PUSH2 0xF39 DUP2 PUSH2 0xD3F JUMP JUMPDEST SWAP1 POP SWAP2 SWAP1 POP JUMP JUMPDEST PUSH1 0x0 PUSH1 0x20 DUP3 ADD SWAP1 POP DUP2 DUP2 SUB PUSH1 0x0 DUP4 ADD MSTORE PUSH2 0xF59 DUP2 PUSH2 0xD62 JUMP JUMPDEST SWAP1 POP SWAP2 SWAP1 POP JUMP JUMPDEST PUSH1 0x0 PUSH1 0x20 DUP3 ADD SWAP1 POP DUP2 DUP2 SUB PUSH1 0x0 DUP4 ADD MSTORE PUSH2 0xF79 DUP2 PUSH2 0xD85 JUMP JUMPDEST SWAP1 POP SWAP2 SWAP1 POP JUMP JUMPDEST PUSH1 0x0 PUSH1 0x20 DUP3 ADD SWAP1 POP DUP2 DUP2 SUB PUSH1 0x0 DUP4 ADD MSTORE PUSH2 0xF99 DUP2 PUSH2 0xDA8 JUMP JUMPDEST SWAP1 POP SWAP2 SWAP1 POP JUMP JUMPDEST PUSH1 0x0 PUSH1 0x20 DUP3 ADD SWAP1 POP DUP2 DUP2 SUB PUSH1 0x0 DUP4 ADD MSTORE PUSH2 0xFB9 DUP2 PUSH2 0xDCB JUMP JUMPDEST SWAP1 POP SWAP2 SWAP1 POP JUMP JUMPDEST PUSH1 0x0 PUSH1 0x20 DUP3 ADD SWAP1 POP DUP2 DUP2 SUB PUSH1 0x0 DUP4 ADD MSTORE PUSH2 0xFD9 DUP2 PUSH2 0xDEE JUMP JUMPDEST SWAP1 POP SWAP2 SWAP1 POP JUMP JUMPDEST PUSH1 0x0 PUSH1 0x20 DUP3 ADD SWAP1 POP DUP2 DUP2 SUB PUSH1 0x0 DUP4 ADD MSTORE PUSH2 0xFF9 DUP2 PUSH2 0xE11 JUMP JUMPDEST SWAP1 POP SWAP2 SWAP1 POP JUMP JUMPDEST PUSH1 0x0 PUSH1 0x20 DUP3 ADD SWAP1 POP DUP2 DUP2 SUB PUSH1 0x0 DUP4 ADD MSTORE PUSH2 0x1019 DUP2 PUSH2 0xE34 JUMP JUMPDEST SWAP1 POP SWAP2 SWAP1 POP JUMP JUMPDEST PUSH1 0x0 PUSH1 0x20 DUP3 ADD SWAP1 POP PUSH2 0x1035 PUSH1 0x0 DUP4 ADD DUP5 PUSH2 0xE57 JUMP JUMPDEST SWAP3 SWAP2 POP POP JUMP JUMPDEST PUSH1 0x0 PUSH2 0x1045 PUSH2 0x1056 JUMP JUMPDEST SWAP1 POP PUSH2 0x1051 DUP3 DUP3 PUSH2 0x1253 JUMP JUMPDEST SWAP2 SWAP1 POP JUMP JUMPDEST PUSH1 0x0 PUSH1 0x40 MLOAD SWAP1 POP SWAP1 JUMP JUMPDEST PUSH1 0x0 PUSH8 0xFFFFFFFFFFFFFFFF DUP3 GT ISZERO PUSH2 0x107B JUMPI PUSH2 0x107A PUSH2 0x1311 JUMP JUMPDEST JUMPDEST PUSH2 0x1084 DUP3 PUSH2 0x1354 JUMP JUMPDEST SWAP1 POP PUSH1 0x20 DUP2 ADD SWAP1 POP SWAP2 SWAP1 POP JUMP JUMPDEST PUSH1 0x0 DUP2 MLOAD SWAP1 POP SWAP2 SWAP1 POP JUMP JUMPDEST PUSH1 0x0 DUP3 DUP3 MSTORE PUSH1 0x20 DUP3 ADD SWAP1 POP SWAP3 SWAP2 POP POP JUMP JUMPDEST PUSH1 0x0 PUSH2 0x10B8 DUP3 PUSH2 0x11D5 JUMP JUMPDEST SWAP2 POP PUSH2 0x10C3 DUP4 PUSH2 0x11D5 JUMP JUMPDEST SWAP3 POP DUP3 PUSH32 0xFFFFFFFFFFFFFFFFFFFFFFFFFFFFFFFFFFFFFFFFFFFFFFFFFFFFFFFFFFFFFFFF SUB DUP3 GT ISZERO PUSH2 0x10F8 JUMPI PUSH2 0x10F7 PUSH2 0x1284 JUMP JUMPDEST JUMPDEST DUP3 DUP3 ADD SWAP1 POP SWAP3 SWAP2 POP POP JUMP JUMPDEST PUSH1 0x0 PUSH2 0x110E DUP3 PUSH2 0x11D5 JUMP JUMPDEST SWAP2 POP PUSH2 0x1119 DUP4 PUSH2 0x11D5 JUMP JUMPDEST SWAP3 POP DUP2 PUSH32 0xFFFFFFFFFFFFFFFFFFFFFFFFFFFFFFFFFFFFFFFFFFFFFFFFFFFFFFFFFFFFFFFF DIV DUP4 GT DUP3 ISZERO ISZERO AND ISZERO PUSH2 0x1152 JUMPI PUSH2 0x1151 PUSH2 0x1284 JUMP JUMPDEST JUMPDEST DUP3 DUP3 MUL SWAP1 POP SWAP3 SWAP2 POP POP JUMP JUMPDEST PUSH1 0x0 PUSH2 0x1168 DUP3 PUSH2 0x11D5 JUMP JUMPDEST SWAP2 POP PUSH2 0x1173 DUP4 PUSH2 0x11D5 JUMP JUMPDEST SWAP3 POP DUP3 DUP3 LT ISZERO PUSH2 0x1186 JUMPI PUSH2 0x1185 PUSH2 0x1284 JUMP JUMPDEST JUMPDEST DUP3 DUP3 SUB SWAP1 POP SWAP3 SWAP2 POP POP JUMP JUMPDEST PUSH1 0x0 PUSH2 0x119C DUP3 PUSH2 0x11B5 JUMP JUMPDEST SWAP1 POP SWAP2 SWAP1 POP JUMP JUMPDEST PUSH1 0x0 PUSH2 0x11AE DUP3 PUSH2 0x11B5 JUMP JUMPDEST SWAP1 POP SWAP2 SWAP1 POP JUMP JUMPDEST PUSH1 0x0 PUSH20 0xFFFFFFFFFFFFFFFFFFFFFFFFFFFFFFFFFFFFFFFF DUP3 AND SWAP1 POP SWAP2 SWAP1 POP JUMP JUMPDEST PUSH1 0x0 DUP2 SWAP1 POP SWAP2 SWAP1 POP JUMP JUMPDEST DUP3 DUP2 DUP4 CALLDATACOPY PUSH1 0x0 DUP4 DUP4 ADD MSTORE POP POP POP JUMP JUMPDEST PUSH1 0x0 JUMPDEST DUP4 DUP2 LT ISZERO PUSH2 0x120C JUMPI DUP1 DUP3 ADD MLOAD DUP2 DUP5 ADD MSTORE PUSH1 0x20 DUP2 ADD SWAP1 POP PUSH2 0x11F1 JUMP JUMPDEST DUP4 DUP2 GT ISZERO PUSH2 0x121B JUMPI PUSH1 0x0 DUP5 DUP5 ADD MSTORE JUMPDEST POP POP POP POP JUMP JUMPDEST PUSH1 0x0 PUSH1 0x2 DUP3 DIV SWAP1 POP PUSH1 0x1 DUP3 AND DUP1 PUSH2 0x1239 JUMPI PUSH1 0x7F DUP3 AND SWAP2 POP JUMPDEST PUSH1 0x20 DUP3 LT DUP2 EQ ISZERO PUSH2 0x124D JUMPI PUSH2 0x124C PUSH2 0x12B3 JUMP JUMPDEST JUMPDEST POP SWAP2 SWAP1 POP JUMP JUMPDEST PUSH2 0x125C DUP3 PUSH2 0x1354 JUMP JUMPDEST DUP2 ADD DUP2 DUP2 LT PUSH8 0xFFFFFFFFFFFFFFFF DUP3 GT OR ISZERO PUSH2 0x127B JUMPI PUSH2 0x127A PUSH2 0x1311 JUMP JUMPDEST JUMPDEST DUP1 PUSH1 0x40 MSTORE POP POP POP JUMP JUMPDEST PUSH32 0x4E487B7100000000000000000000000000000000000000000000000000000000 PUSH1 0x0 MSTORE PUSH1 0x11 PUSH1 0x4 MSTORE PUSH1 0x24 PUSH1 0x0 REVERT JUMPDEST PUSH32 0x4E487B7100000000000000000000000000000000000000000000000000000000 PUSH1 0x0 MSTORE PUSH1 0x22 PUSH1 0x4 MSTORE PUSH1 0x24 PUSH1 0x0 REVERT JUMPDEST PUSH32 0x4E487B7100000000000000000000000000000000000000000000000000000000 PUSH1 0x0 MSTORE PUSH1 0x32 PUSH1 0x4 MSTORE PUSH1 0x24 PUSH1 0x0 REVERT JUMPDEST PUSH32 0x4E487B7100000000000000000000000000000000000000000000000000000000 PUSH1 0x0 MSTORE PUSH1 0x41 PUSH1 0x4 MSTORE PUSH1 0x24 PUSH1 0x0 REVERT JUMPDEST PUSH1 0x0 DUP1 REVERT JUMPDEST PUSH1 0x0 DUP1 REVERT JUMPDEST PUSH1 0x0 DUP1 REVERT JUMPDEST PUSH1 0x0 DUP1 REVERT JUMPDEST PUSH1 0x0 PUSH1 0x1F NOT PUSH1 0x1F DUP4 ADD AND SWAP1 POP SWAP2 SWAP1 POP JUMP JUMPDEST PUSH32 0x506C65617365207061792073756666696369656E742066756E6420666F72206F PUSH1 0x0 DUP3 ADD MSTORE PUSH32 0x7267616E697A696E6720796F7572206576656E74000000000000000000000000 PUSH1 0x20 DUP3 ADD MSTORE POP JUMP JUMPDEST PUSH32 0x506C656173652063726561746520736F6D65207469636B657473000000000000 PUSH1 0x0 DUP3 ADD MSTORE POP JUMP JUMPDEST PUSH32 0x506C6561736520656E74657220612076616C6964206461746520696E20667574 PUSH1 0x0 DUP3 ADD MSTORE PUSH32 0x7572650000000000000000000000000000000000000000000000000000000000 PUSH1 0x20 DUP3 ADD MSTORE POP JUMP JUMPDEST PUSH32 0x4E6F206576656E7473206F6E207468697320696E6465782E0000000000000000 PUSH1 0x0 DUP3 ADD MSTORE POP JUMP JUMPDEST PUSH32 0x456E74657220612076616C69642061646472657373206F72206F776E65722063 PUSH1 0x0 DUP3 ADD MSTORE PUSH32 0x616E277420686F737420616E206576656E740000000000000000000000000000 PUSH1 0x20 DUP3 ADD MSTORE POP JUMP JUMPDEST PUSH32 0x5472616E736163742073756666696369656E742066756E6420666F7220746963 PUSH1 0x0 DUP3 ADD MSTORE PUSH32 0x6B65747300000000000000000000000000000000000000000000000000000000 PUSH1 0x20 DUP3 ADD MSTORE POP JUMP JUMPDEST PUSH32 0x506C656173652073656C65637420736F6D65207469636B657473000000000000 PUSH1 0x0 DUP3 ADD MSTORE POP JUMP JUMPDEST PUSH32 0x506C6561736520656E74657220612076616C69642061646472657373206F6620 PUSH1 0x0 DUP3 ADD MSTORE PUSH32 0x7265636569766572000000000000000000000000000000000000000000000000 PUSH1 0x20 DUP3 ADD MSTORE POP JUMP JUMPDEST PUSH32 0x536F72727920746869732073686F7720616C72656164792066696E7368656400 PUSH1 0x0 DUP3 ADD MSTORE POP JUMP JUMPDEST PUSH32 0x596F7520646F6E2774206861766520656E6F75676874207469636B6574206F66 PUSH1 0x0 DUP3 ADD MSTORE PUSH32 0x2074686973206576656E7420746F2073656E6400000000000000000000000000 PUSH1 0x20 DUP3 ADD MSTORE POP JUMP JUMPDEST PUSH32 0x536F727279206E6F206D6F7265207469636B6574206C65667420666F72207468 PUSH1 0x0 DUP3 ADD MSTORE PUSH32 0x6973206576656E74000000000000000000000000000000000000000000000000 PUSH1 0x20 DUP3 ADD MSTORE POP JUMP JUMPDEST PUSH2 0x163B DUP2 PUSH2 0x1191 JUMP JUMPDEST DUP2 EQ PUSH2 0x1646 JUMPI PUSH1 0x0 DUP1 REVERT JUMPDEST POP JUMP JUMPDEST PUSH2 0x1652 DUP2 PUSH2 0x11D5 JUMP JUMPDEST DUP2 EQ PUSH2 0x165D JUMPI PUSH1 0x0 DUP1 REVERT JUMPDEST POP JUMP INVALID LOG2 PUSH5 0x6970667358 0x22 SLT KECCAK256 SWAP1 GASPRICE DUP15 0xF6 0xA9 SWAP4 0xF PUSH18 0x53A42896FAC4547B1F648135E8BE3B5355CD SWAP15 ADDRESS 0xAC PUSH8 0x57FE64736F6C6343 STOP ADDMOD SMOD STOP CALLER "
				},
				"gasEstimates": {
					"creation": {
						"codeDepositCost": "1156400",
						"executionCost": "25466",
						"totalCost": "1181866"
					},
					"external": {
						"buy_ticket(uint256,uint256)": "infinite",
						"create_event(string,uint256,uint256,uint256)": "infinite",
						"events(uint256)": "infinite",
						"send_ticket(address,uint256,uint256)": "infinite",
						"tickets(address,uint256)": "infinite"
					}
				},
				"methodIdentifiers": {
					"buy_ticket(uint256,uint256)": "c71e7edc",
					"create_event(string,uint256,uint256,uint256)": "ee3bf803",
					"events(uint256)": "0b791430",
					"send_ticket(address,uint256,uint256)": "1ea547ed",
					"tickets(address,uint256)": "dae7a13c"
				}
			},
			"storageLayout": {
				"storage": [
					{
						"astId": 14,
						"contract": "Projects/02_Event_Management.sol:EventManagement",
						"label": "owner_contract",
						"offset": 0,
						"slot": "0",
						"type": "t_address_payable"
					},
					{
						"astId": 18,
						"contract": "Projects/02_Event_Management.sol:EventManagement",
						"label": "events",
						"offset": 0,
						"slot": "1",
						"type": "t_array(t_struct(Event)12_storage)dyn_storage"
					},
					{
						"astId": 24,
						"contract": "Projects/02_Event_Management.sol:EventManagement",
						"label": "tickets",
						"offset": 0,
						"slot": "2",
						"type": "t_mapping(t_address,t_mapping(t_uint256,t_uint256))"
					}
				],
				"types": {
					"t_address": {
						"encoding": "inplace",
						"label": "address",
						"numberOfBytes": "20"
					},
					"t_address_payable": {
						"encoding": "inplace",
						"label": "address payable",
						"numberOfBytes": "20"
					},
					"t_array(t_struct(Event)12_storage)dyn_storage": {
						"base": "t_struct(Event)12_storage",
						"encoding": "dynamic_array",
						"label": "struct EventManagement.Event[]",
						"numberOfBytes": "32"
					},
					"t_mapping(t_address,t_mapping(t_uint256,t_uint256))": {
						"encoding": "mapping",
						"key": "t_address",
						"label": "mapping(address => mapping(uint256 => uint256))",
						"numberOfBytes": "32",
						"value": "t_mapping(t_uint256,t_uint256)"
					},
					"t_mapping(t_uint256,t_uint256)": {
						"encoding": "mapping",
						"key": "t_uint256",
						"label": "mapping(uint256 => uint256)",
						"numberOfBytes": "32",
						"value": "t_uint256"
					},
					"t_string_storage": {
						"encoding": "bytes",
						"label": "string",
						"numberOfBytes": "32"
					},
					"t_struct(Event)12_storage": {
						"encoding": "inplace",
						"label": "struct EventManagement.Event",
						"members": [
							{
								"astId": 3,
								"contract": "Projects/02_Event_Management.sol:EventManagement",
								"label": "organizer",
								"offset": 0,
								"slot": "0",
								"type": "t_address_payable"
							},
							{
								"astId": 5,
								"contract": "Projects/02_Event_Management.sol:EventManagement",
								"label": "event_name",
								"offset": 0,
								"slot": "1",
								"type": "t_string_storage"
							},
							{
								"astId": 7,
								"contract": "Projects/02_Event_Management.sol:EventManagement",
								"label": "event_date",
								"offset": 0,
								"slot": "2",
								"type": "t_uint256"
							},
							{
								"astId": 9,
								"contract": "Projects/02_Event_Management.sol:EventManagement",
								"label": "ticket_price",
								"offset": 0,
								"slot": "3",
								"type": "t_uint256"
							},
							{
								"astId": 11,
								"contract": "Projects/02_Event_Management.sol:EventManagement",
								"label": "ticket_count",
								"offset": 0,
								"slot": "4",
								"type": "t_uint256"
							}
						],
						"numberOfBytes": "160"
					},
					"t_uint256": {
						"encoding": "inplace",
						"label": "uint256",
						"numberOfBytes": "32"
					}
				}
			},
			"userdoc": {
				"kind": "user",
				"methods": {},
				"version": 1
			}
		}
	}
}