{
	"Projects/01_Lottery.sol": {
		"Lottery": {
			"abi": [
				{
					"inputs": [],
					"stateMutability": "nonpayable",
					"type": "constructor"
				},
				{
					"inputs": [],
					"name": "buy_lottery",
					"outputs": [],
					"stateMutability": "payable",
					"type": "function"
				},
				{
					"inputs": [],
					"name": "manager",
					"outputs": [
						{
							"internalType": "address",
							"name": "",
							"type": "address"
						}
					],
					"stateMutability": "view",
					"type": "function"
				},
				{
					"inputs": [
						{
							"internalType": "uint256",
							"name": "",
							"type": "uint256"
						}
					],
					"name": "participants",
					"outputs": [
						{
							"internalType": "address",
							"name": "",
							"type": "address"
						}
					],
					"stateMutability": "view",
					"type": "function"
				},
				{
					"inputs": [],
					"name": "random_number_generator",
					"outputs": [
						{
							"internalType": "uint256",
							"name": "",
							"type": "uint256"
						}
					],
					"stateMutability": "view",
					"type": "function"
				},
				{
					"inputs": [],
					"name": "select_winner",
					"outputs": [
						{
							"internalType": "address",
							"name": "",
							"type": "address"
						}
					],
					"stateMutability": "view",
					"type": "function"
				},
				{
					"inputs": [],
					"name": "show_balance",
					"outputs": [
						{
							"internalType": "uint256",
							"name": "",
							"type": "uint256"
						}
					],
					"stateMutability": "view",
					"type": "function"
				}
			],
			"devdoc": {
				"kind": "dev",
				"methods": {},
				"version": 1
			},
			"evm": {
				"assembly": "    /* \"Projects/01_Lottery.sol\":75:809  contract Lottery {\r... */\n  mstore(0x40, 0x80)\n    /* \"Projects/01_Lottery.sol\":166:219  constructor() {\r... */\n  callvalue\n  dup1\n  iszero\n  tag_1\n  jumpi\n  0x00\n  dup1\n  revert\ntag_1:\n  pop\n    /* \"Projects/01_Lottery.sol\":201:211  msg.sender */\n  caller\n    /* \"Projects/01_Lottery.sol\":191:198  manager */\n  0x00\n  dup1\n    /* \"Projects/01_Lottery.sol\":191:211  manager = msg.sender */\n  0x0100\n  exp\n  dup2\n  sload\n  dup2\n  0xffffffffffffffffffffffffffffffffffffffff\n  mul\n  not\n  and\n  swap1\n  dup4\n  0xffffffffffffffffffffffffffffffffffffffff\n  and\n  mul\n  or\n  swap1\n  sstore\n  pop\n    /* \"Projects/01_Lottery.sol\":75:809  contract Lottery {\r... */\n  dataSize(sub_0)\n  dup1\n  dataOffset(sub_0)\n  0x00\n  codecopy\n  0x00\n  return\nstop\n\nsub_0: assembly {\n        /* \"Projects/01_Lottery.sol\":75:809  contract Lottery {\r... */\n      mstore(0x40, 0x80)\n      jumpi(tag_1, lt(calldatasize, 0x04))\n      shr(0xe0, calldataload(0x00))\n      dup1\n      0x1bef21d6\n      eq\n      tag_2\n      jumpi\n      dup1\n      0x35c1d349\n      eq\n      tag_3\n      jumpi\n      dup1\n      0x481c6a75\n      eq\n      tag_4\n      jumpi\n      dup1\n      0x8c200df4\n      eq\n      tag_5\n      jumpi\n      dup1\n      0x946d0149\n      eq\n      tag_6\n      jumpi\n      dup1\n      0xe8e11e16\n      eq\n      tag_7\n      jumpi\n    tag_1:\n      0x00\n      dup1\n      revert\n        /* \"Projects/01_Lottery.sol\":734:806  function select_winner() public view returns(address) {\r... */\n    tag_2:\n      callvalue\n      dup1\n      iszero\n      tag_8\n      jumpi\n      0x00\n      dup1\n      revert\n    tag_8:\n      pop\n      tag_9\n      tag_10\n      jump\t// in\n    tag_9:\n      mload(0x40)\n      tag_11\n      swap2\n      swap1\n      tag_12\n      jump\t// in\n    tag_11:\n      mload(0x40)\n      dup1\n      swap2\n      sub\n      swap1\n      return\n        /* \"Projects/01_Lottery.sol\":128:157  address[] public participants */\n    tag_3:\n      callvalue\n      dup1\n      iszero\n      tag_13\n      jumpi\n      0x00\n      dup1\n      revert\n    tag_13:\n      pop\n      tag_14\n      0x04\n      dup1\n      calldatasize\n      sub\n      dup2\n      add\n      swap1\n      tag_15\n      swap2\n      swap1\n      tag_16\n      jump\t// in\n    tag_15:\n      tag_17\n      jump\t// in\n    tag_14:\n      mload(0x40)\n      tag_18\n      swap2\n      swap1\n      tag_12\n      jump\t// in\n    tag_18:\n      mload(0x40)\n      dup1\n      swap2\n      sub\n      swap1\n      return\n        /* \"Projects/01_Lottery.sol\":99:121  address public manager */\n    tag_4:\n      callvalue\n      dup1\n      iszero\n      tag_19\n      jumpi\n      0x00\n      dup1\n      revert\n    tag_19:\n      pop\n      tag_20\n      tag_21\n      jump\t// in\n    tag_20:\n      mload(0x40)\n      tag_22\n      swap2\n      swap1\n      tag_12\n      jump\t// in\n    tag_22:\n      mload(0x40)\n      dup1\n      swap2\n      sub\n      swap1\n      return\n        /* \"Projects/01_Lottery.sol\":556:726  function random_number_generator() public view returns(uint) {\r... */\n    tag_5:\n      callvalue\n      dup1\n      iszero\n      tag_23\n      jumpi\n      0x00\n      dup1\n      revert\n    tag_23:\n      pop\n      tag_24\n      tag_25\n      jump\t// in\n    tag_24:\n      mload(0x40)\n      tag_26\n      swap2\n      swap1\n      tag_27\n      jump\t// in\n    tag_26:\n      mload(0x40)\n      dup1\n      swap2\n      sub\n      swap1\n      return\n        /* \"Projects/01_Lottery.sol\":411:548  function show_balance() public view returns(uint){\r... */\n    tag_6:\n      callvalue\n      dup1\n      iszero\n      tag_28\n      jumpi\n      0x00\n      dup1\n      revert\n    tag_28:\n      pop\n      tag_29\n      tag_30\n      jump\t// in\n    tag_29:\n      mload(0x40)\n      tag_31\n      swap2\n      swap1\n      tag_27\n      jump\t// in\n    tag_31:\n      mload(0x40)\n      dup1\n      swap2\n      sub\n      swap1\n      return\n        /* \"Projects/01_Lottery.sol\":227:403  function buy_lottery() payable public {\r... */\n    tag_7:\n      tag_32\n      tag_33\n      jump\t// in\n    tag_32:\n      stop\n        /* \"Projects/01_Lottery.sol\":734:806  function select_winner() public view returns(address) {\r... */\n    tag_10:\n        /* \"Projects/01_Lottery.sol\":779:786  address */\n      0x00\n        /* \"Projects/01_Lottery.sol\":734:806  function select_winner() public view returns(address) {\r... */\n      swap1\n      jump\t// out\n        /* \"Projects/01_Lottery.sol\":128:157  address[] public participants */\n    tag_17:\n      0x01\n      dup2\n      dup2\n      sload\n      dup2\n      lt\n      tag_35\n      jumpi\n      0x00\n      dup1\n      revert\n    tag_35:\n      swap1\n      0x00\n      mstore\n      keccak256(0x00, 0x20)\n      add\n      0x00\n      swap2\n      pop\n      sload\n      swap1\n      0x0100\n      exp\n      swap1\n      div\n      0xffffffffffffffffffffffffffffffffffffffff\n      and\n      dup2\n      jump\t// out\n        /* \"Projects/01_Lottery.sol\":99:121  address public manager */\n    tag_21:\n      0x00\n      dup1\n      sload\n      swap1\n      0x0100\n      exp\n      swap1\n      div\n      0xffffffffffffffffffffffffffffffffffffffff\n      and\n      dup2\n      jump\t// out\n        /* \"Projects/01_Lottery.sol\":556:726  function random_number_generator() public view returns(uint) {\r... */\n    tag_25:\n        /* \"Projects/01_Lottery.sol\":611:615  uint */\n      0x00\n        /* \"Projects/01_Lottery.sol\":667:682  block.timestamp */\n      timestamp\n        /* \"Projects/01_Lottery.sol\":684:694  msg.sender */\n      caller\n        /* \"Projects/01_Lottery.sol\":696:708  participants */\n      0x01\n        /* \"Projects/01_Lottery.sol\":696:715  participants.length */\n      dup1\n      sload\n      swap1\n      pop\n        /* \"Projects/01_Lottery.sol\":650:716  abi.encodePacked(block.timestamp, msg.sender, participants.length) */\n      add(0x20, mload(0x40))\n      tag_38\n      swap4\n      swap3\n      swap2\n      swap1\n      tag_39\n      jump\t// in\n    tag_38:\n      mload(0x40)\n      0x20\n      dup2\n      dup4\n      sub\n      sub\n      dup2\n      mstore\n      swap1\n      0x40\n      mstore\n        /* \"Projects/01_Lottery.sol\":640:717  keccak256(abi.encodePacked(block.timestamp, msg.sender, participants.length)) */\n      dup1\n      mload\n      swap1\n      0x20\n      add\n      keccak256\n        /* \"Projects/01_Lottery.sol\":635:718  uint(keccak256(abi.encodePacked(block.timestamp, msg.sender, participants.length))) */\n      0x00\n      shr\n        /* \"Projects/01_Lottery.sol\":628:718  return uint(keccak256(abi.encodePacked(block.timestamp, msg.sender, participants.length))) */\n      swap1\n      pop\n        /* \"Projects/01_Lottery.sol\":556:726  function random_number_generator() public view returns(uint) {\r... */\n      swap1\n      jump\t// out\n        /* \"Projects/01_Lottery.sol\":411:548  function show_balance() public view returns(uint){\r... */\n    tag_30:\n        /* \"Projects/01_Lottery.sol\":455:459  uint */\n      0x00\n        /* \"Projects/01_Lottery.sol\":493:500  manager */\n      dup1\n      0x00\n      swap1\n      sload\n      swap1\n      0x0100\n      exp\n      swap1\n      div\n      0xffffffffffffffffffffffffffffffffffffffff\n      and\n        /* \"Projects/01_Lottery.sol\":479:500  msg.sender == manager */\n      0xffffffffffffffffffffffffffffffffffffffff\n      and\n        /* \"Projects/01_Lottery.sol\":479:489  msg.sender */\n      caller\n        /* \"Projects/01_Lottery.sol\":479:500  msg.sender == manager */\n      0xffffffffffffffffffffffffffffffffffffffff\n      and\n      eq\n        /* \"Projects/01_Lottery.sol\":471:501  require(msg.sender == manager) */\n      tag_41\n      jumpi\n      0x00\n      dup1\n      revert\n    tag_41:\n        /* \"Projects/01_Lottery.sol\":519:540  address(this).balance */\n      selfbalance\n        /* \"Projects/01_Lottery.sol\":512:540  return address(this).balance */\n      swap1\n      pop\n        /* \"Projects/01_Lottery.sol\":411:548  function show_balance() public view returns(uint){\r... */\n      swap1\n      jump\t// out\n        /* \"Projects/01_Lottery.sol\":227:403  function buy_lottery() payable public {\r... */\n    tag_33:\n        /* \"Projects/01_Lottery.sol\":298:305  manager */\n      0x00\n      dup1\n      sload\n      swap1\n      0x0100\n      exp\n      swap1\n      div\n      0xffffffffffffffffffffffffffffffffffffffff\n      and\n        /* \"Projects/01_Lottery.sol\":284:305  msg.sender != manager */\n      0xffffffffffffffffffffffffffffffffffffffff\n      and\n        /* \"Projects/01_Lottery.sol\":284:294  msg.sender */\n      caller\n        /* \"Projects/01_Lottery.sol\":284:305  msg.sender != manager */\n      0xffffffffffffffffffffffffffffffffffffffff\n      and\n      eq\n      iszero\n        /* \"Projects/01_Lottery.sol\":276:306  require(msg.sender != manager) */\n      tag_43\n      jumpi\n      0x00\n      dup1\n      revert\n    tag_43:\n        /* \"Projects/01_Lottery.sol\":338:345  1 ether */\n      0x0de0b6b3a7640000\n        /* \"Projects/01_Lottery.sol\":325:334  msg.value */\n      callvalue\n        /* \"Projects/01_Lottery.sol\":325:345  msg.value == 1 ether */\n      eq\n        /* \"Projects/01_Lottery.sol\":317:346  require(msg.value == 1 ether) */\n      tag_44\n      jumpi\n      0x00\n      dup1\n      revert\n    tag_44:\n        /* \"Projects/01_Lottery.sol\":357:369  participants */\n      0x01\n        /* \"Projects/01_Lottery.sol\":383:393  msg.sender */\n      caller\n        /* \"Projects/01_Lottery.sol\":357:395  participants.push(payable(msg.sender)) */\n      swap1\n      dup1\n      0x01\n      dup2\n      sload\n      add\n      dup1\n      dup3\n      sstore\n      dup1\n      swap2\n      pop\n      pop\n      0x01\n      swap1\n      sub\n      swap1\n      0x00\n      mstore\n      keccak256(0x00, 0x20)\n      add\n      0x00\n      swap1\n      swap2\n      swap1\n      swap2\n      swap1\n      swap2\n      0x0100\n      exp\n      dup2\n      sload\n      dup2\n      0xffffffffffffffffffffffffffffffffffffffff\n      mul\n      not\n      and\n      swap1\n      dup4\n      0xffffffffffffffffffffffffffffffffffffffff\n      and\n      mul\n      or\n      swap1\n      sstore\n      pop\n        /* \"Projects/01_Lottery.sol\":227:403  function buy_lottery() payable public {\r... */\n      jump\t// out\n        /* \"#utility.yul\":7:146   */\n    tag_47:\n        /* \"#utility.yul\":53:58   */\n      0x00\n        /* \"#utility.yul\":91:97   */\n      dup2\n        /* \"#utility.yul\":78:98   */\n      calldataload\n        /* \"#utility.yul\":69:98   */\n      swap1\n      pop\n        /* \"#utility.yul\":107:140   */\n      tag_49\n        /* \"#utility.yul\":134:139   */\n      dup2\n        /* \"#utility.yul\":107:140   */\n      tag_50\n      jump\t// in\n    tag_49:\n        /* \"#utility.yul\":7:146   */\n      swap3\n      swap2\n      pop\n      pop\n      jump\t// out\n        /* \"#utility.yul\":152:481   */\n    tag_16:\n        /* \"#utility.yul\":211:217   */\n      0x00\n        /* \"#utility.yul\":260:262   */\n      0x20\n        /* \"#utility.yul\":248:257   */\n      dup3\n        /* \"#utility.yul\":239:246   */\n      dup5\n        /* \"#utility.yul\":235:258   */\n      sub\n        /* \"#utility.yul\":231:263   */\n      slt\n        /* \"#utility.yul\":228:347   */\n      iszero\n      tag_52\n      jumpi\n        /* \"#utility.yul\":266:345   */\n      tag_53\n      tag_54\n      jump\t// in\n    tag_53:\n        /* \"#utility.yul\":228:347   */\n    tag_52:\n        /* \"#utility.yul\":386:387   */\n      0x00\n        /* \"#utility.yul\":411:464   */\n      tag_55\n        /* \"#utility.yul\":456:463   */\n      dup5\n        /* \"#utility.yul\":447:453   */\n      dup3\n        /* \"#utility.yul\":436:445   */\n      dup6\n        /* \"#utility.yul\":432:454   */\n      add\n        /* \"#utility.yul\":411:464   */\n      tag_47\n      jump\t// in\n    tag_55:\n        /* \"#utility.yul\":401:464   */\n      swap2\n      pop\n        /* \"#utility.yul\":357:474   */\n      pop\n        /* \"#utility.yul\":152:481   */\n      swap3\n      swap2\n      pop\n      pop\n      jump\t// out\n        /* \"#utility.yul\":487:605   */\n    tag_56:\n        /* \"#utility.yul\":574:598   */\n      tag_58\n        /* \"#utility.yul\":592:597   */\n      dup2\n        /* \"#utility.yul\":574:598   */\n      tag_59\n      jump\t// in\n    tag_58:\n        /* \"#utility.yul\":569:572   */\n      dup3\n        /* \"#utility.yul\":562:599   */\n      mstore\n        /* \"#utility.yul\":487:605   */\n      pop\n      pop\n      jump\t// out\n        /* \"#utility.yul\":611:768   */\n    tag_60:\n        /* \"#utility.yul\":716:761   */\n      tag_62\n        /* \"#utility.yul\":736:760   */\n      tag_63\n        /* \"#utility.yul\":754:759   */\n      dup3\n        /* \"#utility.yul\":736:760   */\n      tag_59\n      jump\t// in\n    tag_63:\n        /* \"#utility.yul\":716:761   */\n      tag_64\n      jump\t// in\n    tag_62:\n        /* \"#utility.yul\":711:714   */\n      dup3\n        /* \"#utility.yul\":704:762   */\n      mstore\n        /* \"#utility.yul\":611:768   */\n      pop\n      pop\n      jump\t// out\n        /* \"#utility.yul\":774:892   */\n    tag_65:\n        /* \"#utility.yul\":861:885   */\n      tag_67\n        /* \"#utility.yul\":879:884   */\n      dup2\n        /* \"#utility.yul\":861:885   */\n      tag_68\n      jump\t// in\n    tag_67:\n        /* \"#utility.yul\":856:859   */\n      dup3\n        /* \"#utility.yul\":849:886   */\n      mstore\n        /* \"#utility.yul\":774:892   */\n      pop\n      pop\n      jump\t// out\n        /* \"#utility.yul\":898:1055   */\n    tag_69:\n        /* \"#utility.yul\":1003:1048   */\n      tag_71\n        /* \"#utility.yul\":1023:1047   */\n      tag_72\n        /* \"#utility.yul\":1041:1046   */\n      dup3\n        /* \"#utility.yul\":1023:1047   */\n      tag_68\n      jump\t// in\n    tag_72:\n        /* \"#utility.yul\":1003:1048   */\n      tag_73\n      jump\t// in\n    tag_71:\n        /* \"#utility.yul\":998:1001   */\n      dup3\n        /* \"#utility.yul\":991:1049   */\n      mstore\n        /* \"#utility.yul\":898:1055   */\n      pop\n      pop\n      jump\t// out\n        /* \"#utility.yul\":1061:1599   */\n    tag_39:\n        /* \"#utility.yul\":1229:1232   */\n      0x00\n        /* \"#utility.yul\":1244:1319   */\n      tag_75\n        /* \"#utility.yul\":1315:1318   */\n      dup3\n        /* \"#utility.yul\":1306:1312   */\n      dup7\n        /* \"#utility.yul\":1244:1319   */\n      tag_69\n      jump\t// in\n    tag_75:\n        /* \"#utility.yul\":1344:1346   */\n      0x20\n        /* \"#utility.yul\":1339:1342   */\n      dup3\n        /* \"#utility.yul\":1335:1347   */\n      add\n        /* \"#utility.yul\":1328:1347   */\n      swap2\n      pop\n        /* \"#utility.yul\":1357:1432   */\n      tag_76\n        /* \"#utility.yul\":1428:1431   */\n      dup3\n        /* \"#utility.yul\":1419:1425   */\n      dup6\n        /* \"#utility.yul\":1357:1432   */\n      tag_60\n      jump\t// in\n    tag_76:\n        /* \"#utility.yul\":1457:1459   */\n      0x14\n        /* \"#utility.yul\":1452:1455   */\n      dup3\n        /* \"#utility.yul\":1448:1460   */\n      add\n        /* \"#utility.yul\":1441:1460   */\n      swap2\n      pop\n        /* \"#utility.yul\":1470:1545   */\n      tag_77\n        /* \"#utility.yul\":1541:1544   */\n      dup3\n        /* \"#utility.yul\":1532:1538   */\n      dup5\n        /* \"#utility.yul\":1470:1545   */\n      tag_69\n      jump\t// in\n    tag_77:\n        /* \"#utility.yul\":1570:1572   */\n      0x20\n        /* \"#utility.yul\":1565:1568   */\n      dup3\n        /* \"#utility.yul\":1561:1573   */\n      add\n        /* \"#utility.yul\":1554:1573   */\n      swap2\n      pop\n        /* \"#utility.yul\":1590:1593   */\n      dup2\n        /* \"#utility.yul\":1583:1593   */\n      swap1\n      pop\n        /* \"#utility.yul\":1061:1599   */\n      swap5\n      swap4\n      pop\n      pop\n      pop\n      pop\n      jump\t// out\n        /* \"#utility.yul\":1605:1827   */\n    tag_12:\n        /* \"#utility.yul\":1698:1702   */\n      0x00\n        /* \"#utility.yul\":1736:1738   */\n      0x20\n        /* \"#utility.yul\":1725:1734   */\n      dup3\n        /* \"#utility.yul\":1721:1739   */\n      add\n        /* \"#utility.yul\":1713:1739   */\n      swap1\n      pop\n        /* \"#utility.yul\":1749:1820   */\n      tag_79\n        /* \"#utility.yul\":1817:1818   */\n      0x00\n        /* \"#utility.yul\":1806:1815   */\n      dup4\n        /* \"#utility.yul\":1802:1819   */\n      add\n        /* \"#utility.yul\":1793:1799   */\n      dup5\n        /* \"#utility.yul\":1749:1820   */\n      tag_56\n      jump\t// in\n    tag_79:\n        /* \"#utility.yul\":1605:1827   */\n      swap3\n      swap2\n      pop\n      pop\n      jump\t// out\n        /* \"#utility.yul\":1833:2055   */\n    tag_27:\n        /* \"#utility.yul\":1926:1930   */\n      0x00\n        /* \"#utility.yul\":1964:1966   */\n      0x20\n        /* \"#utility.yul\":1953:1962   */\n      dup3\n        /* \"#utility.yul\":1949:1967   */\n      add\n        /* \"#utility.yul\":1941:1967   */\n      swap1\n      pop\n        /* \"#utility.yul\":1977:2048   */\n      tag_81\n        /* \"#utility.yul\":2045:2046   */\n      0x00\n        /* \"#utility.yul\":2034:2043   */\n      dup4\n        /* \"#utility.yul\":2030:2047   */\n      add\n        /* \"#utility.yul\":2021:2027   */\n      dup5\n        /* \"#utility.yul\":1977:2048   */\n      tag_65\n      jump\t// in\n    tag_81:\n        /* \"#utility.yul\":1833:2055   */\n      swap3\n      swap2\n      pop\n      pop\n      jump\t// out\n        /* \"#utility.yul\":2142:2238   */\n    tag_59:\n        /* \"#utility.yul\":2179:2186   */\n      0x00\n        /* \"#utility.yul\":2208:2232   */\n      tag_85\n        /* \"#utility.yul\":2226:2231   */\n      dup3\n        /* \"#utility.yul\":2208:2232   */\n      tag_86\n      jump\t// in\n    tag_85:\n        /* \"#utility.yul\":2197:2232   */\n      swap1\n      pop\n        /* \"#utility.yul\":2142:2238   */\n      swap2\n      swap1\n      pop\n      jump\t// out\n        /* \"#utility.yul\":2244:2370   */\n    tag_86:\n        /* \"#utility.yul\":2281:2288   */\n      0x00\n        /* \"#utility.yul\":2321:2363   */\n      0xffffffffffffffffffffffffffffffffffffffff\n        /* \"#utility.yul\":2314:2319   */\n      dup3\n        /* \"#utility.yul\":2310:2364   */\n      and\n        /* \"#utility.yul\":2299:2364   */\n      swap1\n      pop\n        /* \"#utility.yul\":2244:2370   */\n      swap2\n      swap1\n      pop\n      jump\t// out\n        /* \"#utility.yul\":2376:2453   */\n    tag_68:\n        /* \"#utility.yul\":2413:2420   */\n      0x00\n        /* \"#utility.yul\":2442:2447   */\n      dup2\n        /* \"#utility.yul\":2431:2447   */\n      swap1\n      pop\n        /* \"#utility.yul\":2376:2453   */\n      swap2\n      swap1\n      pop\n      jump\t// out\n        /* \"#utility.yul\":2459:2559   */\n    tag_64:\n        /* \"#utility.yul\":2498:2505   */\n      0x00\n        /* \"#utility.yul\":2527:2553   */\n      tag_90\n        /* \"#utility.yul\":2547:2552   */\n      dup3\n        /* \"#utility.yul\":2527:2553   */\n      tag_91\n      jump\t// in\n    tag_90:\n        /* \"#utility.yul\":2516:2553   */\n      swap1\n      pop\n        /* \"#utility.yul\":2459:2559   */\n      swap2\n      swap1\n      pop\n      jump\t// out\n        /* \"#utility.yul\":2565:2659   */\n    tag_91:\n        /* \"#utility.yul\":2604:2611   */\n      0x00\n        /* \"#utility.yul\":2633:2653   */\n      tag_93\n        /* \"#utility.yul\":2647:2652   */\n      dup3\n        /* \"#utility.yul\":2633:2653   */\n      tag_94\n      jump\t// in\n    tag_93:\n        /* \"#utility.yul\":2622:2653   */\n      swap1\n      pop\n        /* \"#utility.yul\":2565:2659   */\n      swap2\n      swap1\n      pop\n      jump\t// out\n        /* \"#utility.yul\":2665:2744   */\n    tag_73:\n        /* \"#utility.yul\":2704:2711   */\n      0x00\n        /* \"#utility.yul\":2733:2738   */\n      dup2\n        /* \"#utility.yul\":2722:2738   */\n      swap1\n      pop\n        /* \"#utility.yul\":2665:2744   */\n      swap2\n      swap1\n      pop\n      jump\t// out\n        /* \"#utility.yul\":2873:2990   */\n    tag_54:\n        /* \"#utility.yul\":2982:2983   */\n      0x00\n        /* \"#utility.yul\":2979:2980   */\n      dup1\n        /* \"#utility.yul\":2972:2984   */\n      revert\n        /* \"#utility.yul\":2996:3090   */\n    tag_94:\n        /* \"#utility.yul\":3029:3037   */\n      0x00\n        /* \"#utility.yul\":3077:3082   */\n      dup2\n        /* \"#utility.yul\":3073:3075   */\n      0x60\n        /* \"#utility.yul\":3069:3083   */\n      shl\n        /* \"#utility.yul\":3048:3083   */\n      swap1\n      pop\n        /* \"#utility.yul\":2996:3090   */\n      swap2\n      swap1\n      pop\n      jump\t// out\n        /* \"#utility.yul\":3096:3218   */\n    tag_50:\n        /* \"#utility.yul\":3169:3193   */\n      tag_101\n        /* \"#utility.yul\":3187:3192   */\n      dup2\n        /* \"#utility.yul\":3169:3193   */\n      tag_68\n      jump\t// in\n    tag_101:\n        /* \"#utility.yul\":3162:3167   */\n      dup2\n        /* \"#utility.yul\":3159:3194   */\n      eq\n        /* \"#utility.yul\":3149:3212   */\n      tag_102\n      jumpi\n        /* \"#utility.yul\":3208:3209   */\n      0x00\n        /* \"#utility.yul\":3205:3206   */\n      dup1\n        /* \"#utility.yul\":3198:3210   */\n      revert\n        /* \"#utility.yul\":3149:3212   */\n    tag_102:\n        /* \"#utility.yul\":3096:3218   */\n      pop\n      jump\t// out\n\n    auxdata: 0xa2646970667358221220a9a81baf56291fd620b14e6763cafd9da4aa08c3e7f17cd2349143e42b427ab764736f6c63430008070033\n}\n",
				"bytecode": {
					"linkReferences": {},
					"object": "608060405234801561001057600080fd5b50336000806101000a81548173ffffffffffffffffffffffffffffffffffffffff021916908373ffffffffffffffffffffffffffffffffffffffff1602179055506104ec806100606000396000f3fe6080604052600436106100555760003560e01c80631bef21d61461005a57806335c1d34914610085578063481c6a75146100c25780638c200df4146100ed578063946d014914610118578063e8e11e1614610143575b600080fd5b34801561006657600080fd5b5061006f61014d565b60405161007c91906103ed565b60405180910390f35b34801561009157600080fd5b506100ac60048036038101906100a79190610337565b610152565b6040516100b991906103ed565b60405180910390f35b3480156100ce57600080fd5b506100d7610191565b6040516100e491906103ed565b60405180910390f35b3480156100f957600080fd5b506101026101b5565b60405161010f9190610408565b60405180910390f35b34801561012457600080fd5b5061012d6101ef565b60405161013a9190610408565b60405180910390f35b61014b610250565b005b600090565b6001818154811061016257600080fd5b906000526020600020016000915054906101000a900473ffffffffffffffffffffffffffffffffffffffff1681565b60008054906101000a900473ffffffffffffffffffffffffffffffffffffffff1681565b600042336001805490506040516020016101d1939291906103b0565b6040516020818303038152906040528051906020012060001c905090565b60008060009054906101000a900473ffffffffffffffffffffffffffffffffffffffff1673ffffffffffffffffffffffffffffffffffffffff163373ffffffffffffffffffffffffffffffffffffffff161461024a57600080fd5b47905090565b60008054906101000a900473ffffffffffffffffffffffffffffffffffffffff1673ffffffffffffffffffffffffffffffffffffffff163373ffffffffffffffffffffffffffffffffffffffff1614156102a957600080fd5b670de0b6b3a764000034146102bd57600080fd5b6001339080600181540180825580915050600190039060005260206000200160009091909190916101000a81548173ffffffffffffffffffffffffffffffffffffffff021916908373ffffffffffffffffffffffffffffffffffffffff160217905550565b6000813590506103318161049f565b92915050565b60006020828403121561034d5761034c61048d565b5b600061035b84828501610322565b91505092915050565b61036d81610423565b82525050565b61038461037f82610423565b61045f565b82525050565b61039381610455565b82525050565b6103aa6103a582610455565b610483565b82525050565b60006103bc8286610399565b6020820191506103cc8285610373565b6014820191506103dc8284610399565b602082019150819050949350505050565b60006020820190506104026000830184610364565b92915050565b600060208201905061041d600083018461038a565b92915050565b600061042e82610435565b9050919050565b600073ffffffffffffffffffffffffffffffffffffffff82169050919050565b6000819050919050565b600061046a82610471565b9050919050565b600061047c82610492565b9050919050565b6000819050919050565b600080fd5b60008160601b9050919050565b6104a881610455565b81146104b357600080fd5b5056fea2646970667358221220a9a81baf56291fd620b14e6763cafd9da4aa08c3e7f17cd2349143e42b427ab764736f6c63430008070033",
					"opcodes": "PUSH1 0x80 PUSH1 0x40 MSTORE CALLVALUE DUP1 ISZERO PUSH2 0x10 JUMPI PUSH1 0x0 DUP1 REVERT JUMPDEST POP CALLER PUSH1 0x0 DUP1 PUSH2 0x100 EXP DUP2 SLOAD DUP2 PUSH20 0xFFFFFFFFFFFFFFFFFFFFFFFFFFFFFFFFFFFFFFFF MUL NOT AND SWAP1 DUP4 PUSH20 0xFFFFFFFFFFFFFFFFFFFFFFFFFFFFFFFFFFFFFFFF AND MUL OR SWAP1 SSTORE POP PUSH2 0x4EC DUP1 PUSH2 0x60 PUSH1 0x0 CODECOPY PUSH1 0x0 RETURN INVALID PUSH1 0x80 PUSH1 0x40 MSTORE PUSH1 0x4 CALLDATASIZE LT PUSH2 0x55 JUMPI PUSH1 0x0 CALLDATALOAD PUSH1 0xE0 SHR DUP1 PUSH4 0x1BEF21D6 EQ PUSH2 0x5A JUMPI DUP1 PUSH4 0x35C1D349 EQ PUSH2 0x85 JUMPI DUP1 PUSH4 0x481C6A75 EQ PUSH2 0xC2 JUMPI DUP1 PUSH4 0x8C200DF4 EQ PUSH2 0xED JUMPI DUP1 PUSH4 0x946D0149 EQ PUSH2 0x118 JUMPI DUP1 PUSH4 0xE8E11E16 EQ PUSH2 0x143 JUMPI JUMPDEST PUSH1 0x0 DUP1 REVERT JUMPDEST CALLVALUE DUP1 ISZERO PUSH2 0x66 JUMPI PUSH1 0x0 DUP1 REVERT JUMPDEST POP PUSH2 0x6F PUSH2 0x14D JUMP JUMPDEST PUSH1 0x40 MLOAD PUSH2 0x7C SWAP2 SWAP1 PUSH2 0x3ED JUMP JUMPDEST PUSH1 0x40 MLOAD DUP1 SWAP2 SUB SWAP1 RETURN JUMPDEST CALLVALUE DUP1 ISZERO PUSH2 0x91 JUMPI PUSH1 0x0 DUP1 REVERT JUMPDEST POP PUSH2 0xAC PUSH1 0x4 DUP1 CALLDATASIZE SUB DUP2 ADD SWAP1 PUSH2 0xA7 SWAP2 SWAP1 PUSH2 0x337 JUMP JUMPDEST PUSH2 0x152 JUMP JUMPDEST PUSH1 0x40 MLOAD PUSH2 0xB9 SWAP2 SWAP1 PUSH2 0x3ED JUMP JUMPDEST PUSH1 0x40 MLOAD DUP1 SWAP2 SUB SWAP1 RETURN JUMPDEST CALLVALUE DUP1 ISZERO PUSH2 0xCE JUMPI PUSH1 0x0 DUP1 REVERT JUMPDEST POP PUSH2 0xD7 PUSH2 0x191 JUMP JUMPDEST PUSH1 0x40 MLOAD PUSH2 0xE4 SWAP2 SWAP1 PUSH2 0x3ED JUMP JUMPDEST PUSH1 0x40 MLOAD DUP1 SWAP2 SUB SWAP1 RETURN JUMPDEST CALLVALUE DUP1 ISZERO PUSH2 0xF9 JUMPI PUSH1 0x0 DUP1 REVERT JUMPDEST POP PUSH2 0x102 PUSH2 0x1B5 JUMP JUMPDEST PUSH1 0x40 MLOAD PUSH2 0x10F SWAP2 SWAP1 PUSH2 0x408 JUMP JUMPDEST PUSH1 0x40 MLOAD DUP1 SWAP2 SUB SWAP1 RETURN JUMPDEST CALLVALUE DUP1 ISZERO PUSH2 0x124 JUMPI PUSH1 0x0 DUP1 REVERT JUMPDEST POP PUSH2 0x12D PUSH2 0x1EF JUMP JUMPDEST PUSH1 0x40 MLOAD PUSH2 0x13A SWAP2 SWAP1 PUSH2 0x408 JUMP JUMPDEST PUSH1 0x40 MLOAD DUP1 SWAP2 SUB SWAP1 RETURN JUMPDEST PUSH2 0x14B PUSH2 0x250 JUMP JUMPDEST STOP JUMPDEST PUSH1 0x0 SWAP1 JUMP JUMPDEST PUSH1 0x1 DUP2 DUP2 SLOAD DUP2 LT PUSH2 0x162 JUMPI PUSH1 0x0 DUP1 REVERT JUMPDEST SWAP1 PUSH1 0x0 MSTORE PUSH1 0x20 PUSH1 0x0 KECCAK256 ADD PUSH1 0x0 SWAP2 POP SLOAD SWAP1 PUSH2 0x100 EXP SWAP1 DIV PUSH20 0xFFFFFFFFFFFFFFFFFFFFFFFFFFFFFFFFFFFFFFFF AND DUP2 JUMP JUMPDEST PUSH1 0x0 DUP1 SLOAD SWAP1 PUSH2 0x100 EXP SWAP1 DIV PUSH20 0xFFFFFFFFFFFFFFFFFFFFFFFFFFFFFFFFFFFFFFFF AND DUP2 JUMP JUMPDEST PUSH1 0x0 TIMESTAMP CALLER PUSH1 0x1 DUP1 SLOAD SWAP1 POP PUSH1 0x40 MLOAD PUSH1 0x20 ADD PUSH2 0x1D1 SWAP4 SWAP3 SWAP2 SWAP1 PUSH2 0x3B0 JUMP JUMPDEST PUSH1 0x40 MLOAD PUSH1 0x20 DUP2 DUP4 SUB SUB DUP2 MSTORE SWAP1 PUSH1 0x40 MSTORE DUP1 MLOAD SWAP1 PUSH1 0x20 ADD KECCAK256 PUSH1 0x0 SHR SWAP1 POP SWAP1 JUMP JUMPDEST PUSH1 0x0 DUP1 PUSH1 0x0 SWAP1 SLOAD SWAP1 PUSH2 0x100 EXP SWAP1 DIV PUSH20 0xFFFFFFFFFFFFFFFFFFFFFFFFFFFFFFFFFFFFFFFF AND PUSH20 0xFFFFFFFFFFFFFFFFFFFFFFFFFFFFFFFFFFFFFFFF AND CALLER PUSH20 0xFFFFFFFFFFFFFFFFFFFFFFFFFFFFFFFFFFFFFFFF AND EQ PUSH2 0x24A JUMPI PUSH1 0x0 DUP1 REVERT JUMPDEST SELFBALANCE SWAP1 POP SWAP1 JUMP JUMPDEST PUSH1 0x0 DUP1 SLOAD SWAP1 PUSH2 0x100 EXP SWAP1 DIV PUSH20 0xFFFFFFFFFFFFFFFFFFFFFFFFFFFFFFFFFFFFFFFF AND PUSH20 0xFFFFFFFFFFFFFFFFFFFFFFFFFFFFFFFFFFFFFFFF AND CALLER PUSH20 0xFFFFFFFFFFFFFFFFFFFFFFFFFFFFFFFFFFFFFFFF AND EQ ISZERO PUSH2 0x2A9 JUMPI PUSH1 0x0 DUP1 REVERT JUMPDEST PUSH8 0xDE0B6B3A7640000 CALLVALUE EQ PUSH2 0x2BD JUMPI PUSH1 0x0 DUP1 REVERT JUMPDEST PUSH1 0x1 CALLER SWAP1 DUP1 PUSH1 0x1 DUP2 SLOAD ADD DUP1 DUP3 SSTORE DUP1 SWAP2 POP POP PUSH1 0x1 SWAP1 SUB SWAP1 PUSH1 0x0 MSTORE PUSH1 0x20 PUSH1 0x0 KECCAK256 ADD PUSH1 0x0 SWAP1 SWAP2 SWAP1 SWAP2 SWAP1 SWAP2 PUSH2 0x100 EXP DUP2 SLOAD DUP2 PUSH20 0xFFFFFFFFFFFFFFFFFFFFFFFFFFFFFFFFFFFFFFFF MUL NOT AND SWAP1 DUP4 PUSH20 0xFFFFFFFFFFFFFFFFFFFFFFFFFFFFFFFFFFFFFFFF AND MUL OR SWAP1 SSTORE POP JUMP JUMPDEST PUSH1 0x0 DUP2 CALLDATALOAD SWAP1 POP PUSH2 0x331 DUP2 PUSH2 0x49F JUMP JUMPDEST SWAP3 SWAP2 POP POP JUMP JUMPDEST PUSH1 0x0 PUSH1 0x20 DUP3 DUP5 SUB SLT ISZERO PUSH2 0x34D JUMPI PUSH2 0x34C PUSH2 0x48D JUMP JUMPDEST JUMPDEST PUSH1 0x0 PUSH2 0x35B DUP5 DUP3 DUP6 ADD PUSH2 0x322 JUMP JUMPDEST SWAP2 POP POP SWAP3 SWAP2 POP POP JUMP JUMPDEST PUSH2 0x36D DUP2 PUSH2 0x423 JUMP JUMPDEST DUP3 MSTORE POP POP JUMP JUMPDEST PUSH2 0x384 PUSH2 0x37F DUP3 PUSH2 0x423 JUMP JUMPDEST PUSH2 0x45F JUMP JUMPDEST DUP3 MSTORE POP POP JUMP JUMPDEST PUSH2 0x393 DUP2 PUSH2 0x455 JUMP JUMPDEST DUP3 MSTORE POP POP JUMP JUMPDEST PUSH2 0x3AA PUSH2 0x3A5 DUP3 PUSH2 0x455 JUMP JUMPDEST PUSH2 0x483 JUMP JUMPDEST DUP3 MSTORE POP POP JUMP JUMPDEST PUSH1 0x0 PUSH2 0x3BC DUP3 DUP7 PUSH2 0x399 JUMP JUMPDEST PUSH1 0x20 DUP3 ADD SWAP2 POP PUSH2 0x3CC DUP3 DUP6 PUSH2 0x373 JUMP JUMPDEST PUSH1 0x14 DUP3 ADD SWAP2 POP PUSH2 0x3DC DUP3 DUP5 PUSH2 0x399 JUMP JUMPDEST PUSH1 0x20 DUP3 ADD SWAP2 POP DUP2 SWAP1 POP SWAP5 SWAP4 POP POP POP POP JUMP JUMPDEST PUSH1 0x0 PUSH1 0x20 DUP3 ADD SWAP1 POP PUSH2 0x402 PUSH1 0x0 DUP4 ADD DUP5 PUSH2 0x364 JUMP JUMPDEST SWAP3 SWAP2 POP POP JUMP JUMPDEST PUSH1 0x0 PUSH1 0x20 DUP3 ADD SWAP1 POP PUSH2 0x41D PUSH1 0x0 DUP4 ADD DUP5 PUSH2 0x38A JUMP JUMPDEST SWAP3 SWAP2 POP POP JUMP JUMPDEST PUSH1 0x0 PUSH2 0x42E DUP3 PUSH2 0x435 JUMP JUMPDEST SWAP1 POP SWAP2 SWAP1 POP JUMP JUMPDEST PUSH1 0x0 PUSH20 0xFFFFFFFFFFFFFFFFFFFFFFFFFFFFFFFFFFFFFFFF DUP3 AND SWAP1 POP SWAP2 SWAP1 POP JUMP JUMPDEST PUSH1 0x0 DUP2 SWAP1 POP SWAP2 SWAP1 POP JUMP JUMPDEST PUSH1 0x0 PUSH2 0x46A DUP3 PUSH2 0x471 JUMP JUMPDEST SWAP1 POP SWAP2 SWAP1 POP JUMP JUMPDEST PUSH1 0x0 PUSH2 0x47C DUP3 PUSH2 0x492 JUMP JUMPDEST SWAP1 POP SWAP2 SWAP1 POP JUMP JUMPDEST PUSH1 0x0 DUP2 SWAP1 POP SWAP2 SWAP1 POP JUMP JUMPDEST PUSH1 0x0 DUP1 REVERT JUMPDEST PUSH1 0x0 DUP2 PUSH1 0x60 SHL SWAP1 POP SWAP2 SWAP1 POP JUMP JUMPDEST PUSH2 0x4A8 DUP2 PUSH2 0x455 JUMP JUMPDEST DUP2 EQ PUSH2 0x4B3 JUMPI PUSH1 0x0 DUP1 REVERT JUMPDEST POP JUMP INVALID LOG2 PUSH5 0x6970667358 0x22 SLT KECCAK256 0xA9 0xA8 SHL 0xAF JUMP 0x29 0x1F 0xD6 KECCAK256 0xB1 0x4E PUSH8 0x63CAFD9DA4AA08C3 0xE7 CALL PUSH29 0xD2349143E42B427AB764736F6C63430008070033000000000000000000 "
				},
				"gasEstimates": {
					"creation": {
						"codeDepositCost": "252000",
						"executionCost": "24560",
						"totalCost": "276560"
					},
					"external": {
						"buy_lottery()": "50978",
						"manager()": "2533",
						"participants(uint256)": "4956",
						"random_number_generator()": "infinite",
						"select_winner()": "356",
						"show_balance()": "2575"
					}
				},
				"methodIdentifiers": {
					"buy_lottery()": "e8e11e16",
					"manager()": "481c6a75",
					"participants(uint256)": "35c1d349",
					"random_number_generator()": "8c200df4",
					"select_winner()": "1bef21d6",
					"show_balance()": "946d0149"
				}
			},
			"storageLayout": {
				"storage": [
					{
						"astId": 3,
						"contract": "Projects/01_Lottery.sol:Lottery",
						"label": "manager",
						"offset": 0,
						"slot": "0",
						"type": "t_address"
					},
					{
						"astId": 6,
						"contract": "Projects/01_Lottery.sol:Lottery",
						"label": "participants",
						"offset": 0,
						"slot": "1",
						"type": "t_array(t_address)dyn_storage"
					}
				],
				"types": {
					"t_address": {
						"encoding": "inplace",
						"label": "address",
						"numberOfBytes": "20"
					},
					"t_array(t_address)dyn_storage": {
						"base": "t_address",
						"encoding": "dynamic_array",
						"label": "address[]",
						"numberOfBytes": "32"
					}
				}
			},
			"userdoc": {
				"kind": "user",
				"methods": {},
				"version": 1
			}
		}
	}
}