{
	"Projects/01_Lottery.sol": {
		"Lottery": {
			"abi": [
				{
					"inputs": [],
					"stateMutability": "nonpayable",
					"type": "constructor"
				},
				{
					"inputs": [],
					"name": "buy_lottery",
					"outputs": [],
					"stateMutability": "payable",
					"type": "function"
				},
				{
					"inputs": [
						{
							"internalType": "uint256",
							"name": "",
							"type": "uint256"
						}
					],
					"name": "participants",
					"outputs": [
						{
							"internalType": "address",
							"name": "",
							"type": "address"
						}
					],
					"stateMutability": "view",
					"type": "function"
				},
				{
					"inputs": [],
					"name": "show_balance",
					"outputs": [
						{
							"internalType": "uint256",
							"name": "",
							"type": "uint256"
						}
					],
					"stateMutability": "view",
					"type": "function"
				}
			],
			"devdoc": {
				"kind": "dev",
				"methods": {},
				"version": 1
			},
			"evm": {
				"assembly": "    /* \"Projects/01_Lottery.sol\":75:544  contract Lottery {\r... */\n  mstore(0x40, 0x80)\n    /* \"Projects/01_Lottery.sol\":159:212  constructor() {\r... */\n  callvalue\n  dup1\n  iszero\n  tag_1\n  jumpi\n  0x00\n  dup1\n  revert\ntag_1:\n  pop\n    /* \"Projects/01_Lottery.sol\":194:204  msg.sender */\n  caller\n    /* \"Projects/01_Lottery.sol\":184:191  manager */\n  0x00\n  dup1\n    /* \"Projects/01_Lottery.sol\":184:204  manager = msg.sender */\n  0x0100\n  exp\n  dup2\n  sload\n  dup2\n  0xffffffffffffffffffffffffffffffffffffffff\n  mul\n  not\n  and\n  swap1\n  dup4\n  0xffffffffffffffffffffffffffffffffffffffff\n  and\n  mul\n  or\n  swap1\n  sstore\n  pop\n    /* \"Projects/01_Lottery.sol\":75:544  contract Lottery {\r... */\n  dataSize(sub_0)\n  dup1\n  dataOffset(sub_0)\n  0x00\n  codecopy\n  0x00\n  return\nstop\n\nsub_0: assembly {\n        /* \"Projects/01_Lottery.sol\":75:544  contract Lottery {\r... */\n      mstore(0x40, 0x80)\n      jumpi(tag_1, lt(calldatasize, 0x04))\n      shr(0xe0, calldataload(0x00))\n      dup1\n      0x35c1d349\n      eq\n      tag_2\n      jumpi\n      dup1\n      0x946d0149\n      eq\n      tag_3\n      jumpi\n      dup1\n      0xe8e11e16\n      eq\n      tag_4\n      jumpi\n    tag_1:\n      0x00\n      dup1\n      revert\n        /* \"Projects/01_Lottery.sol\":121:150  address[] public participants */\n    tag_2:\n      callvalue\n      dup1\n      iszero\n      tag_5\n      jumpi\n      0x00\n      dup1\n      revert\n    tag_5:\n      pop\n      tag_6\n      0x04\n      dup1\n      calldatasize\n      sub\n      dup2\n      add\n      swap1\n      tag_7\n      swap2\n      swap1\n      tag_8\n      jump\t// in\n    tag_7:\n      tag_9\n      jump\t// in\n    tag_6:\n      mload(0x40)\n      tag_10\n      swap2\n      swap1\n      tag_11\n      jump\t// in\n    tag_10:\n      mload(0x40)\n      dup1\n      swap2\n      sub\n      swap1\n      return\n        /* \"Projects/01_Lottery.sol\":404:541  function show_balance() public view returns(uint){\r... */\n    tag_3:\n      callvalue\n      dup1\n      iszero\n      tag_12\n      jumpi\n      0x00\n      dup1\n      revert\n    tag_12:\n      pop\n      tag_13\n      tag_14\n      jump\t// in\n    tag_13:\n      mload(0x40)\n      tag_15\n      swap2\n      swap1\n      tag_16\n      jump\t// in\n    tag_15:\n      mload(0x40)\n      dup1\n      swap2\n      sub\n      swap1\n      return\n        /* \"Projects/01_Lottery.sol\":220:396  function buy_lottery() payable public {\r... */\n    tag_4:\n      tag_17\n      tag_18\n      jump\t// in\n    tag_17:\n      stop\n        /* \"Projects/01_Lottery.sol\":121:150  address[] public participants */\n    tag_9:\n      0x01\n      dup2\n      dup2\n      sload\n      dup2\n      lt\n      tag_19\n      jumpi\n      0x00\n      dup1\n      revert\n    tag_19:\n      swap1\n      0x00\n      mstore\n      keccak256(0x00, 0x20)\n      add\n      0x00\n      swap2\n      pop\n      sload\n      swap1\n      0x0100\n      exp\n      swap1\n      div\n      0xffffffffffffffffffffffffffffffffffffffff\n      and\n      dup2\n      jump\t// out\n        /* \"Projects/01_Lottery.sol\":404:541  function show_balance() public view returns(uint){\r... */\n    tag_14:\n        /* \"Projects/01_Lottery.sol\":448:452  uint */\n      0x00\n        /* \"Projects/01_Lottery.sol\":486:493  manager */\n      dup1\n      0x00\n      swap1\n      sload\n      swap1\n      0x0100\n      exp\n      swap1\n      div\n      0xffffffffffffffffffffffffffffffffffffffff\n      and\n        /* \"Projects/01_Lottery.sol\":472:493  msg.sender == manager */\n      0xffffffffffffffffffffffffffffffffffffffff\n      and\n        /* \"Projects/01_Lottery.sol\":472:482  msg.sender */\n      caller\n        /* \"Projects/01_Lottery.sol\":472:493  msg.sender == manager */\n      0xffffffffffffffffffffffffffffffffffffffff\n      and\n      eq\n        /* \"Projects/01_Lottery.sol\":464:494  require(msg.sender == manager) */\n      tag_22\n      jumpi\n      0x00\n      dup1\n      revert\n    tag_22:\n        /* \"Projects/01_Lottery.sol\":512:533  address(this).balance */\n      selfbalance\n        /* \"Projects/01_Lottery.sol\":505:533  return address(this).balance */\n      swap1\n      pop\n        /* \"Projects/01_Lottery.sol\":404:541  function show_balance() public view returns(uint){\r... */\n      swap1\n      jump\t// out\n        /* \"Projects/01_Lottery.sol\":220:396  function buy_lottery() payable public {\r... */\n    tag_18:\n        /* \"Projects/01_Lottery.sol\":291:298  manager */\n      0x00\n      dup1\n      sload\n      swap1\n      0x0100\n      exp\n      swap1\n      div\n      0xffffffffffffffffffffffffffffffffffffffff\n      and\n        /* \"Projects/01_Lottery.sol\":277:298  msg.sender != manager */\n      0xffffffffffffffffffffffffffffffffffffffff\n      and\n        /* \"Projects/01_Lottery.sol\":277:287  msg.sender */\n      caller\n        /* \"Projects/01_Lottery.sol\":277:298  msg.sender != manager */\n      0xffffffffffffffffffffffffffffffffffffffff\n      and\n      eq\n      iszero\n        /* \"Projects/01_Lottery.sol\":269:299  require(msg.sender != manager) */\n      tag_24\n      jumpi\n      0x00\n      dup1\n      revert\n    tag_24:\n        /* \"Projects/01_Lottery.sol\":331:338  1 ether */\n      0x0de0b6b3a7640000\n        /* \"Projects/01_Lottery.sol\":318:327  msg.value */\n      callvalue\n        /* \"Projects/01_Lottery.sol\":318:338  msg.value == 1 ether */\n      eq\n        /* \"Projects/01_Lottery.sol\":310:339  require(msg.value == 1 ether) */\n      tag_25\n      jumpi\n      0x00\n      dup1\n      revert\n    tag_25:\n        /* \"Projects/01_Lottery.sol\":350:362  participants */\n      0x01\n        /* \"Projects/01_Lottery.sol\":376:386  msg.sender */\n      caller\n        /* \"Projects/01_Lottery.sol\":350:388  participants.push(payable(msg.sender)) */\n      swap1\n      dup1\n      0x01\n      dup2\n      sload\n      add\n      dup1\n      dup3\n      sstore\n      dup1\n      swap2\n      pop\n      pop\n      0x01\n      swap1\n      sub\n      swap1\n      0x00\n      mstore\n      keccak256(0x00, 0x20)\n      add\n      0x00\n      swap1\n      swap2\n      swap1\n      swap2\n      swap1\n      swap2\n      0x0100\n      exp\n      dup2\n      sload\n      dup2\n      0xffffffffffffffffffffffffffffffffffffffff\n      mul\n      not\n      and\n      swap1\n      dup4\n      0xffffffffffffffffffffffffffffffffffffffff\n      and\n      mul\n      or\n      swap1\n      sstore\n      pop\n        /* \"Projects/01_Lottery.sol\":220:396  function buy_lottery() payable public {\r... */\n      jump\t// out\n        /* \"#utility.yul\":7:146   */\n    tag_28:\n        /* \"#utility.yul\":53:58   */\n      0x00\n        /* \"#utility.yul\":91:97   */\n      dup2\n        /* \"#utility.yul\":78:98   */\n      calldataload\n        /* \"#utility.yul\":69:98   */\n      swap1\n      pop\n        /* \"#utility.yul\":107:140   */\n      tag_30\n        /* \"#utility.yul\":134:139   */\n      dup2\n        /* \"#utility.yul\":107:140   */\n      tag_31\n      jump\t// in\n    tag_30:\n        /* \"#utility.yul\":7:146   */\n      swap3\n      swap2\n      pop\n      pop\n      jump\t// out\n        /* \"#utility.yul\":152:481   */\n    tag_8:\n        /* \"#utility.yul\":211:217   */\n      0x00\n        /* \"#utility.yul\":260:262   */\n      0x20\n        /* \"#utility.yul\":248:257   */\n      dup3\n        /* \"#utility.yul\":239:246   */\n      dup5\n        /* \"#utility.yul\":235:258   */\n      sub\n        /* \"#utility.yul\":231:263   */\n      slt\n        /* \"#utility.yul\":228:347   */\n      iszero\n      tag_33\n      jumpi\n        /* \"#utility.yul\":266:345   */\n      tag_34\n      tag_35\n      jump\t// in\n    tag_34:\n        /* \"#utility.yul\":228:347   */\n    tag_33:\n        /* \"#utility.yul\":386:387   */\n      0x00\n        /* \"#utility.yul\":411:464   */\n      tag_36\n        /* \"#utility.yul\":456:463   */\n      dup5\n        /* \"#utility.yul\":447:453   */\n      dup3\n        /* \"#utility.yul\":436:445   */\n      dup6\n        /* \"#utility.yul\":432:454   */\n      add\n        /* \"#utility.yul\":411:464   */\n      tag_28\n      jump\t// in\n    tag_36:\n        /* \"#utility.yul\":401:464   */\n      swap2\n      pop\n        /* \"#utility.yul\":357:474   */\n      pop\n        /* \"#utility.yul\":152:481   */\n      swap3\n      swap2\n      pop\n      pop\n      jump\t// out\n        /* \"#utility.yul\":487:605   */\n    tag_37:\n        /* \"#utility.yul\":574:598   */\n      tag_39\n        /* \"#utility.yul\":592:597   */\n      dup2\n        /* \"#utility.yul\":574:598   */\n      tag_40\n      jump\t// in\n    tag_39:\n        /* \"#utility.yul\":569:572   */\n      dup3\n        /* \"#utility.yul\":562:599   */\n      mstore\n        /* \"#utility.yul\":487:605   */\n      pop\n      pop\n      jump\t// out\n        /* \"#utility.yul\":611:729   */\n    tag_41:\n        /* \"#utility.yul\":698:722   */\n      tag_43\n        /* \"#utility.yul\":716:721   */\n      dup2\n        /* \"#utility.yul\":698:722   */\n      tag_44\n      jump\t// in\n    tag_43:\n        /* \"#utility.yul\":693:696   */\n      dup3\n        /* \"#utility.yul\":686:723   */\n      mstore\n        /* \"#utility.yul\":611:729   */\n      pop\n      pop\n      jump\t// out\n        /* \"#utility.yul\":735:957   */\n    tag_11:\n        /* \"#utility.yul\":828:832   */\n      0x00\n        /* \"#utility.yul\":866:868   */\n      0x20\n        /* \"#utility.yul\":855:864   */\n      dup3\n        /* \"#utility.yul\":851:869   */\n      add\n        /* \"#utility.yul\":843:869   */\n      swap1\n      pop\n        /* \"#utility.yul\":879:950   */\n      tag_46\n        /* \"#utility.yul\":947:948   */\n      0x00\n        /* \"#utility.yul\":936:945   */\n      dup4\n        /* \"#utility.yul\":932:949   */\n      add\n        /* \"#utility.yul\":923:929   */\n      dup5\n        /* \"#utility.yul\":879:950   */\n      tag_37\n      jump\t// in\n    tag_46:\n        /* \"#utility.yul\":735:957   */\n      swap3\n      swap2\n      pop\n      pop\n      jump\t// out\n        /* \"#utility.yul\":963:1185   */\n    tag_16:\n        /* \"#utility.yul\":1056:1060   */\n      0x00\n        /* \"#utility.yul\":1094:1096   */\n      0x20\n        /* \"#utility.yul\":1083:1092   */\n      dup3\n        /* \"#utility.yul\":1079:1097   */\n      add\n        /* \"#utility.yul\":1071:1097   */\n      swap1\n      pop\n        /* \"#utility.yul\":1107:1178   */\n      tag_48\n        /* \"#utility.yul\":1175:1176   */\n      0x00\n        /* \"#utility.yul\":1164:1173   */\n      dup4\n        /* \"#utility.yul\":1160:1177   */\n      add\n        /* \"#utility.yul\":1151:1157   */\n      dup5\n        /* \"#utility.yul\":1107:1178   */\n      tag_41\n      jump\t// in\n    tag_48:\n        /* \"#utility.yul\":963:1185   */\n      swap3\n      swap2\n      pop\n      pop\n      jump\t// out\n        /* \"#utility.yul\":1272:1368   */\n    tag_40:\n        /* \"#utility.yul\":1309:1316   */\n      0x00\n        /* \"#utility.yul\":1338:1362   */\n      tag_52\n        /* \"#utility.yul\":1356:1361   */\n      dup3\n        /* \"#utility.yul\":1338:1362   */\n      tag_53\n      jump\t// in\n    tag_52:\n        /* \"#utility.yul\":1327:1362   */\n      swap1\n      pop\n        /* \"#utility.yul\":1272:1368   */\n      swap2\n      swap1\n      pop\n      jump\t// out\n        /* \"#utility.yul\":1374:1500   */\n    tag_53:\n        /* \"#utility.yul\":1411:1418   */\n      0x00\n        /* \"#utility.yul\":1451:1493   */\n      0xffffffffffffffffffffffffffffffffffffffff\n        /* \"#utility.yul\":1444:1449   */\n      dup3\n        /* \"#utility.yul\":1440:1494   */\n      and\n        /* \"#utility.yul\":1429:1494   */\n      swap1\n      pop\n        /* \"#utility.yul\":1374:1500   */\n      swap2\n      swap1\n      pop\n      jump\t// out\n        /* \"#utility.yul\":1506:1583   */\n    tag_44:\n        /* \"#utility.yul\":1543:1550   */\n      0x00\n        /* \"#utility.yul\":1572:1577   */\n      dup2\n        /* \"#utility.yul\":1561:1577   */\n      swap1\n      pop\n        /* \"#utility.yul\":1506:1583   */\n      swap2\n      swap1\n      pop\n      jump\t// out\n        /* \"#utility.yul\":1712:1829   */\n    tag_35:\n        /* \"#utility.yul\":1821:1822   */\n      0x00\n        /* \"#utility.yul\":1818:1819   */\n      dup1\n        /* \"#utility.yul\":1811:1823   */\n      revert\n        /* \"#utility.yul\":1835:1957   */\n    tag_31:\n        /* \"#utility.yul\":1908:1932   */\n      tag_60\n        /* \"#utility.yul\":1926:1931   */\n      dup2\n        /* \"#utility.yul\":1908:1932   */\n      tag_44\n      jump\t// in\n    tag_60:\n        /* \"#utility.yul\":1901:1906   */\n      dup2\n        /* \"#utility.yul\":1898:1933   */\n      eq\n        /* \"#utility.yul\":1888:1951   */\n      tag_61\n      jumpi\n        /* \"#utility.yul\":1947:1948   */\n      0x00\n        /* \"#utility.yul\":1944:1945   */\n      dup1\n        /* \"#utility.yul\":1937:1949   */\n      revert\n        /* \"#utility.yul\":1888:1951   */\n    tag_61:\n        /* \"#utility.yul\":1835:1957   */\n      pop\n      jump\t// out\n\n    auxdata: 0xa2646970667358221220cbedb1d9f6776c8e0ba207611d7459e7c1dd320c6d88cf7d966a61ad3706e2b464736f6c63430008070033\n}\n",
				"bytecode": {
					"linkReferences": {},
					"object": "608060405234801561001057600080fd5b50336000806101000a81548173ffffffffffffffffffffffffffffffffffffffff021916908373ffffffffffffffffffffffffffffffffffffffff160217905550610341806100606000396000f3fe6080604052600436106100345760003560e01c806335c1d34914610039578063946d014914610076578063e8e11e16146100a1575b600080fd5b34801561004557600080fd5b50610060600480360381019061005b9190610232565b6100ab565b60405161006d919061027d565b60405180910390f35b34801561008257600080fd5b5061008b6100ea565b6040516100989190610298565b60405180910390f35b6100a961014b565b005b600181815481106100bb57600080fd5b906000526020600020016000915054906101000a900473ffffffffffffffffffffffffffffffffffffffff1681565b60008060009054906101000a900473ffffffffffffffffffffffffffffffffffffffff1673ffffffffffffffffffffffffffffffffffffffff163373ffffffffffffffffffffffffffffffffffffffff161461014557600080fd5b47905090565b60008054906101000a900473ffffffffffffffffffffffffffffffffffffffff1673ffffffffffffffffffffffffffffffffffffffff163373ffffffffffffffffffffffffffffffffffffffff1614156101a457600080fd5b670de0b6b3a764000034146101b857600080fd5b6001339080600181540180825580915050600190039060005260206000200160009091909190916101000a81548173ffffffffffffffffffffffffffffffffffffffff021916908373ffffffffffffffffffffffffffffffffffffffff160217905550565b60008135905061022c816102f4565b92915050565b600060208284031215610248576102476102ef565b5b60006102568482850161021d565b91505092915050565b610268816102b3565b82525050565b610277816102e5565b82525050565b6000602082019050610292600083018461025f565b92915050565b60006020820190506102ad600083018461026e565b92915050565b60006102be826102c5565b9050919050565b600073ffffffffffffffffffffffffffffffffffffffff82169050919050565b6000819050919050565b600080fd5b6102fd816102e5565b811461030857600080fd5b5056fea2646970667358221220cbedb1d9f6776c8e0ba207611d7459e7c1dd320c6d88cf7d966a61ad3706e2b464736f6c63430008070033",
					"opcodes": "PUSH1 0x80 PUSH1 0x40 MSTORE CALLVALUE DUP1 ISZERO PUSH2 0x10 JUMPI PUSH1 0x0 DUP1 REVERT JUMPDEST POP CALLER PUSH1 0x0 DUP1 PUSH2 0x100 EXP DUP2 SLOAD DUP2 PUSH20 0xFFFFFFFFFFFFFFFFFFFFFFFFFFFFFFFFFFFFFFFF MUL NOT AND SWAP1 DUP4 PUSH20 0xFFFFFFFFFFFFFFFFFFFFFFFFFFFFFFFFFFFFFFFF AND MUL OR SWAP1 SSTORE POP PUSH2 0x341 DUP1 PUSH2 0x60 PUSH1 0x0 CODECOPY PUSH1 0x0 RETURN INVALID PUSH1 0x80 PUSH1 0x40 MSTORE PUSH1 0x4 CALLDATASIZE LT PUSH2 0x34 JUMPI PUSH1 0x0 CALLDATALOAD PUSH1 0xE0 SHR DUP1 PUSH4 0x35C1D349 EQ PUSH2 0x39 JUMPI DUP1 PUSH4 0x946D0149 EQ PUSH2 0x76 JUMPI DUP1 PUSH4 0xE8E11E16 EQ PUSH2 0xA1 JUMPI JUMPDEST PUSH1 0x0 DUP1 REVERT JUMPDEST CALLVALUE DUP1 ISZERO PUSH2 0x45 JUMPI PUSH1 0x0 DUP1 REVERT JUMPDEST POP PUSH2 0x60 PUSH1 0x4 DUP1 CALLDATASIZE SUB DUP2 ADD SWAP1 PUSH2 0x5B SWAP2 SWAP1 PUSH2 0x232 JUMP JUMPDEST PUSH2 0xAB JUMP JUMPDEST PUSH1 0x40 MLOAD PUSH2 0x6D SWAP2 SWAP1 PUSH2 0x27D JUMP JUMPDEST PUSH1 0x40 MLOAD DUP1 SWAP2 SUB SWAP1 RETURN JUMPDEST CALLVALUE DUP1 ISZERO PUSH2 0x82 JUMPI PUSH1 0x0 DUP1 REVERT JUMPDEST POP PUSH2 0x8B PUSH2 0xEA JUMP JUMPDEST PUSH1 0x40 MLOAD PUSH2 0x98 SWAP2 SWAP1 PUSH2 0x298 JUMP JUMPDEST PUSH1 0x40 MLOAD DUP1 SWAP2 SUB SWAP1 RETURN JUMPDEST PUSH2 0xA9 PUSH2 0x14B JUMP JUMPDEST STOP JUMPDEST PUSH1 0x1 DUP2 DUP2 SLOAD DUP2 LT PUSH2 0xBB JUMPI PUSH1 0x0 DUP1 REVERT JUMPDEST SWAP1 PUSH1 0x0 MSTORE PUSH1 0x20 PUSH1 0x0 KECCAK256 ADD PUSH1 0x0 SWAP2 POP SLOAD SWAP1 PUSH2 0x100 EXP SWAP1 DIV PUSH20 0xFFFFFFFFFFFFFFFFFFFFFFFFFFFFFFFFFFFFFFFF AND DUP2 JUMP JUMPDEST PUSH1 0x0 DUP1 PUSH1 0x0 SWAP1 SLOAD SWAP1 PUSH2 0x100 EXP SWAP1 DIV PUSH20 0xFFFFFFFFFFFFFFFFFFFFFFFFFFFFFFFFFFFFFFFF AND PUSH20 0xFFFFFFFFFFFFFFFFFFFFFFFFFFFFFFFFFFFFFFFF AND CALLER PUSH20 0xFFFFFFFFFFFFFFFFFFFFFFFFFFFFFFFFFFFFFFFF AND EQ PUSH2 0x145 JUMPI PUSH1 0x0 DUP1 REVERT JUMPDEST SELFBALANCE SWAP1 POP SWAP1 JUMP JUMPDEST PUSH1 0x0 DUP1 SLOAD SWAP1 PUSH2 0x100 EXP SWAP1 DIV PUSH20 0xFFFFFFFFFFFFFFFFFFFFFFFFFFFFFFFFFFFFFFFF AND PUSH20 0xFFFFFFFFFFFFFFFFFFFFFFFFFFFFFFFFFFFFFFFF AND CALLER PUSH20 0xFFFFFFFFFFFFFFFFFFFFFFFFFFFFFFFFFFFFFFFF AND EQ ISZERO PUSH2 0x1A4 JUMPI PUSH1 0x0 DUP1 REVERT JUMPDEST PUSH8 0xDE0B6B3A7640000 CALLVALUE EQ PUSH2 0x1B8 JUMPI PUSH1 0x0 DUP1 REVERT JUMPDEST PUSH1 0x1 CALLER SWAP1 DUP1 PUSH1 0x1 DUP2 SLOAD ADD DUP1 DUP3 SSTORE DUP1 SWAP2 POP POP PUSH1 0x1 SWAP1 SUB SWAP1 PUSH1 0x0 MSTORE PUSH1 0x20 PUSH1 0x0 KECCAK256 ADD PUSH1 0x0 SWAP1 SWAP2 SWAP1 SWAP2 SWAP1 SWAP2 PUSH2 0x100 EXP DUP2 SLOAD DUP2 PUSH20 0xFFFFFFFFFFFFFFFFFFFFFFFFFFFFFFFFFFFFFFFF MUL NOT AND SWAP1 DUP4 PUSH20 0xFFFFFFFFFFFFFFFFFFFFFFFFFFFFFFFFFFFFFFFF AND MUL OR SWAP1 SSTORE POP JUMP JUMPDEST PUSH1 0x0 DUP2 CALLDATALOAD SWAP1 POP PUSH2 0x22C DUP2 PUSH2 0x2F4 JUMP JUMPDEST SWAP3 SWAP2 POP POP JUMP JUMPDEST PUSH1 0x0 PUSH1 0x20 DUP3 DUP5 SUB SLT ISZERO PUSH2 0x248 JUMPI PUSH2 0x247 PUSH2 0x2EF JUMP JUMPDEST JUMPDEST PUSH1 0x0 PUSH2 0x256 DUP5 DUP3 DUP6 ADD PUSH2 0x21D JUMP JUMPDEST SWAP2 POP POP SWAP3 SWAP2 POP POP JUMP JUMPDEST PUSH2 0x268 DUP2 PUSH2 0x2B3 JUMP JUMPDEST DUP3 MSTORE POP POP JUMP JUMPDEST PUSH2 0x277 DUP2 PUSH2 0x2E5 JUMP JUMPDEST DUP3 MSTORE POP POP JUMP JUMPDEST PUSH1 0x0 PUSH1 0x20 DUP3 ADD SWAP1 POP PUSH2 0x292 PUSH1 0x0 DUP4 ADD DUP5 PUSH2 0x25F JUMP JUMPDEST SWAP3 SWAP2 POP POP JUMP JUMPDEST PUSH1 0x0 PUSH1 0x20 DUP3 ADD SWAP1 POP PUSH2 0x2AD PUSH1 0x0 DUP4 ADD DUP5 PUSH2 0x26E JUMP JUMPDEST SWAP3 SWAP2 POP POP JUMP JUMPDEST PUSH1 0x0 PUSH2 0x2BE DUP3 PUSH2 0x2C5 JUMP JUMPDEST SWAP1 POP SWAP2 SWAP1 POP JUMP JUMPDEST PUSH1 0x0 PUSH20 0xFFFFFFFFFFFFFFFFFFFFFFFFFFFFFFFFFFFFFFFF DUP3 AND SWAP1 POP SWAP2 SWAP1 POP JUMP JUMPDEST PUSH1 0x0 DUP2 SWAP1 POP SWAP2 SWAP1 POP JUMP JUMPDEST PUSH1 0x0 DUP1 REVERT JUMPDEST PUSH2 0x2FD DUP2 PUSH2 0x2E5 JUMP JUMPDEST DUP2 EQ PUSH2 0x308 JUMPI PUSH1 0x0 DUP1 REVERT JUMPDEST POP JUMP INVALID LOG2 PUSH5 0x6970667358 0x22 SLT KECCAK256 0xCB 0xED 0xB1 0xD9 0xF6 PUSH24 0x6C8E0BA207611D7459E7C1DD320C6D88CF7D966A61AD3706 0xE2 0xB4 PUSH5 0x736F6C6343 STOP ADDMOD SMOD STOP CALLER "
				},
				"gasEstimates": {
					"creation": {
						"codeDepositCost": "166600",
						"executionCost": "24480",
						"totalCost": "191080"
					},
					"external": {
						"buy_lottery()": "50912",
						"participants(uint256)": "4934",
						"show_balance()": "2509"
					}
				},
				"methodIdentifiers": {
					"buy_lottery()": "e8e11e16",
					"participants(uint256)": "35c1d349",
					"show_balance()": "946d0149"
				}
			},
			"storageLayout": {
				"storage": [
					{
						"astId": 3,
						"contract": "Projects/01_Lottery.sol:Lottery",
						"label": "manager",
						"offset": 0,
						"slot": "0",
						"type": "t_address"
					},
					{
						"astId": 6,
						"contract": "Projects/01_Lottery.sol:Lottery",
						"label": "participants",
						"offset": 0,
						"slot": "1",
						"type": "t_array(t_address)dyn_storage"
					}
				],
				"types": {
					"t_address": {
						"encoding": "inplace",
						"label": "address",
						"numberOfBytes": "20"
					},
					"t_array(t_address)dyn_storage": {
						"base": "t_address",
						"encoding": "dynamic_array",
						"label": "address[]",
						"numberOfBytes": "32"
					}
				}
			},
			"userdoc": {
				"kind": "user",
				"methods": {},
				"version": 1
			}
		}
	}
}