{
	"Projects/02_Event_Management.sol": {
		"EventManagement": {
			"abi": [
				{
					"inputs": [],
					"stateMutability": "nonpayable",
					"type": "constructor"
				},
				{
					"inputs": [
						{
							"internalType": "string",
							"name": "_event_name",
							"type": "string"
						},
						{
							"internalType": "uint256",
							"name": "_event_date",
							"type": "uint256"
						},
						{
							"internalType": "uint256",
							"name": "_ticket_price",
							"type": "uint256"
						},
						{
							"internalType": "uint256",
							"name": "_ticket_count",
							"type": "uint256"
						}
					],
					"name": "create_event",
					"outputs": [],
					"stateMutability": "nonpayable",
					"type": "function"
				},
				{
					"inputs": [
						{
							"internalType": "uint256",
							"name": "",
							"type": "uint256"
						}
					],
					"name": "events",
					"outputs": [
						{
							"internalType": "address",
							"name": "organizer",
							"type": "address"
						},
						{
							"internalType": "string",
							"name": "event_name",
							"type": "string"
						},
						{
							"internalType": "uint256",
							"name": "event_date",
							"type": "uint256"
						},
						{
							"internalType": "uint256",
							"name": "ticket_price",
							"type": "uint256"
						},
						{
							"internalType": "uint256",
							"name": "ticket_count",
							"type": "uint256"
						}
					],
					"stateMutability": "view",
					"type": "function"
				}
			],
			"devdoc": {
				"kind": "dev",
				"methods": {},
				"version": 1
			},
			"evm": {
				"assembly": "    /* \"Projects/02_Event_Management.sol\":75:871  contract EventManagement {\r... */\n  mstore(0x40, 0x80)\n    /* \"Projects/02_Event_Management.sol\":346:406  constructor() {\r... */\n  callvalue\n  dup1\n  iszero\n  tag_1\n  jumpi\n  0x00\n  dup1\n  revert\ntag_1:\n  pop\n    /* \"Projects/02_Event_Management.sol\":388:398  msg.sender */\n  caller\n    /* \"Projects/02_Event_Management.sol\":371:385  owner_contract */\n  0x00\n  dup1\n    /* \"Projects/02_Event_Management.sol\":371:398  owner_contract = msg.sender */\n  0x0100\n  exp\n  dup2\n  sload\n  dup2\n  0xffffffffffffffffffffffffffffffffffffffff\n  mul\n  not\n  and\n  swap1\n  dup4\n  0xffffffffffffffffffffffffffffffffffffffff\n  and\n  mul\n  or\n  swap1\n  sstore\n  pop\n    /* \"Projects/02_Event_Management.sol\":75:871  contract EventManagement {\r... */\n  dataSize(sub_0)\n  dup1\n  dataOffset(sub_0)\n  0x00\n  codecopy\n  0x00\n  return\nstop\n\nsub_0: assembly {\n        /* \"Projects/02_Event_Management.sol\":75:871  contract EventManagement {\r... */\n      mstore(0x40, 0x80)\n      callvalue\n      dup1\n      iszero\n      tag_1\n      jumpi\n      0x00\n      dup1\n      revert\n    tag_1:\n      pop\n      jumpi(tag_2, lt(calldatasize, 0x04))\n      shr(0xe0, calldataload(0x00))\n      dup1\n      0x0b791430\n      eq\n      tag_3\n      jumpi\n      dup1\n      0xee3bf803\n      eq\n      tag_4\n      jumpi\n    tag_2:\n      0x00\n      dup1\n      revert\n        /* \"Projects/02_Event_Management.sol\":314:335  Event[] public events */\n    tag_3:\n      tag_5\n      0x04\n      dup1\n      calldatasize\n      sub\n      dup2\n      add\n      swap1\n      tag_6\n      swap2\n      swap1\n      tag_7\n      jump\t// in\n    tag_6:\n      tag_8\n      jump\t// in\n    tag_5:\n      mload(0x40)\n      tag_9\n      swap6\n      swap5\n      swap4\n      swap3\n      swap2\n      swap1\n      tag_10\n      jump\t// in\n    tag_9:\n      mload(0x40)\n      dup1\n      swap2\n      sub\n      swap1\n      return\n        /* \"Projects/02_Event_Management.sol\":420:868  function create_event(string memory _event_name, uint _event_date, uint _ticket_price, uint _ticket_count) public {\r... */\n    tag_4:\n      tag_11\n      0x04\n      dup1\n      calldatasize\n      sub\n      dup2\n      add\n      swap1\n      tag_12\n      swap2\n      swap1\n      tag_13\n      jump\t// in\n    tag_12:\n      tag_14\n      jump\t// in\n    tag_11:\n      stop\n        /* \"Projects/02_Event_Management.sol\":314:335  Event[] public events */\n    tag_8:\n      0x01\n      dup2\n      dup2\n      sload\n      dup2\n      lt\n      tag_15\n      jumpi\n      0x00\n      dup1\n      revert\n    tag_15:\n      swap1\n      0x00\n      mstore\n      keccak256(0x00, 0x20)\n      swap1\n      0x05\n      mul\n      add\n      0x00\n      swap2\n      pop\n      swap1\n      pop\n      dup1\n      0x00\n      add\n      0x00\n      swap1\n      sload\n      swap1\n      0x0100\n      exp\n      swap1\n      div\n      0xffffffffffffffffffffffffffffffffffffffff\n      and\n      swap1\n      dup1\n      0x01\n      add\n      dup1\n      sload\n      tag_17\n      swap1\n      tag_18\n      jump\t// in\n    tag_17:\n      dup1\n      0x1f\n      add\n      0x20\n      dup1\n      swap2\n      div\n      mul\n      0x20\n      add\n      mload(0x40)\n      swap1\n      dup2\n      add\n      0x40\n      mstore\n      dup1\n      swap3\n      swap2\n      swap1\n      dup2\n      dup2\n      mstore\n      0x20\n      add\n      dup3\n      dup1\n      sload\n      tag_19\n      swap1\n      tag_18\n      jump\t// in\n    tag_19:\n      dup1\n      iszero\n      tag_20\n      jumpi\n      dup1\n      0x1f\n      lt\n      tag_21\n      jumpi\n      0x0100\n      dup1\n      dup4\n      sload\n      div\n      mul\n      dup4\n      mstore\n      swap2\n      0x20\n      add\n      swap2\n      jump(tag_20)\n    tag_21:\n      dup3\n      add\n      swap2\n      swap1\n      0x00\n      mstore\n      keccak256(0x00, 0x20)\n      swap1\n    tag_22:\n      dup2\n      sload\n      dup2\n      mstore\n      swap1\n      0x01\n      add\n      swap1\n      0x20\n      add\n      dup1\n      dup4\n      gt\n      tag_22\n      jumpi\n      dup3\n      swap1\n      sub\n      0x1f\n      and\n      dup3\n      add\n      swap2\n    tag_20:\n      pop\n      pop\n      pop\n      pop\n      pop\n      swap1\n      dup1\n      0x02\n      add\n      sload\n      swap1\n      dup1\n      0x03\n      add\n      sload\n      swap1\n      dup1\n      0x04\n      add\n      sload\n      swap1\n      pop\n      dup6\n      jump\t// out\n        /* \"Projects/02_Event_Management.sol\":420:868  function create_event(string memory _event_name, uint _event_date, uint _ticket_price, uint _ticket_count) public {\r... */\n    tag_14:\n        /* \"Projects/02_Event_Management.sol\":567:581  owner_contract */\n      0x00\n      dup1\n      sload\n      swap1\n      0x0100\n      exp\n      swap1\n      div\n      0xffffffffffffffffffffffffffffffffffffffff\n      and\n        /* \"Projects/02_Event_Management.sol\":553:581  msg.sender != owner_contract */\n      0xffffffffffffffffffffffffffffffffffffffff\n      and\n        /* \"Projects/02_Event_Management.sol\":553:563  msg.sender */\n      caller\n        /* \"Projects/02_Event_Management.sol\":553:581  msg.sender != owner_contract */\n      0xffffffffffffffffffffffffffffffffffffffff\n      and\n      eq\n      iszero\n        /* \"Projects/02_Event_Management.sol\":553:609  msg.sender != owner_contract && msg.sender != address(0) */\n      dup1\n      iszero\n      tag_24\n      jumpi\n      pop\n        /* \"Projects/02_Event_Management.sol\":607:608  0 */\n      0x00\n        /* \"Projects/02_Event_Management.sol\":585:609  msg.sender != address(0) */\n      0xffffffffffffffffffffffffffffffffffffffff\n      and\n        /* \"Projects/02_Event_Management.sol\":585:595  msg.sender */\n      caller\n        /* \"Projects/02_Event_Management.sol\":585:609  msg.sender != address(0) */\n      0xffffffffffffffffffffffffffffffffffffffff\n      and\n      eq\n      iszero\n        /* \"Projects/02_Event_Management.sol\":553:609  msg.sender != owner_contract && msg.sender != address(0) */\n    tag_24:\n        /* \"Projects/02_Event_Management.sol\":545:614  require(msg.sender != owner_contract && msg.sender != address(0), \"\") */\n      tag_25\n      jumpi\n      mload(0x40)\n      0x08c379a000000000000000000000000000000000000000000000000000000000\n      dup2\n      mstore\n      0x04\n      add\n      tag_26\n      swap1\n      tag_27\n      jump\t// in\n    tag_26:\n      mload(0x40)\n      dup1\n      swap2\n      sub\n      swap1\n      revert\n    tag_25:\n        /* \"Projects/02_Event_Management.sol\":648:649  0 */\n      0x00\n        /* \"Projects/02_Event_Management.sol\":633:644  _event_date */\n      dup4\n        /* \"Projects/02_Event_Management.sol\":633:649  _event_date != 0 */\n      eq\n      iszero\n        /* \"Projects/02_Event_Management.sol\":633:682  _event_date != 0 && _event_date > block.timestamp */\n      dup1\n      iszero\n      tag_28\n      jumpi\n      pop\n        /* \"Projects/02_Event_Management.sol\":667:682  block.timestamp */\n      timestamp\n        /* \"Projects/02_Event_Management.sol\":653:664  _event_date */\n      dup4\n        /* \"Projects/02_Event_Management.sol\":653:682  _event_date > block.timestamp */\n      gt\n        /* \"Projects/02_Event_Management.sol\":633:682  _event_date != 0 && _event_date > block.timestamp */\n    tag_28:\n        /* \"Projects/02_Event_Management.sol\":625:683  require(_event_date != 0 && _event_date > block.timestamp) */\n      tag_29\n      jumpi\n      0x00\n      dup1\n      revert\n    tag_29:\n        /* \"Projects/02_Event_Management.sol\":718:719  0 */\n      0x00\n        /* \"Projects/02_Event_Management.sol\":702:715  _ticket_count */\n      dup2\n        /* \"Projects/02_Event_Management.sol\":702:719  _ticket_count > 0 */\n      gt\n        /* \"Projects/02_Event_Management.sol\":694:720  require(_ticket_count > 0) */\n      tag_30\n      jumpi\n      0x00\n      dup1\n      revert\n    tag_30:\n        /* \"Projects/02_Event_Management.sol\":733:755  Event memory new_event */\n      0x00\n        /* \"Projects/02_Event_Management.sol\":758:827  Event(msg.sender,_event_name,_event_date,_ticket_price,_ticket_count) */\n      mload(0x40)\n      dup1\n      0xa0\n      add\n      0x40\n      mstore\n      dup1\n        /* \"Projects/02_Event_Management.sol\":764:774  msg.sender */\n      caller\n        /* \"Projects/02_Event_Management.sol\":758:827  Event(msg.sender,_event_name,_event_date,_ticket_price,_ticket_count) */\n      0xffffffffffffffffffffffffffffffffffffffff\n      and\n      dup2\n      mstore\n      0x20\n      add\n        /* \"Projects/02_Event_Management.sol\":775:786  _event_name */\n      dup7\n        /* \"Projects/02_Event_Management.sol\":758:827  Event(msg.sender,_event_name,_event_date,_ticket_price,_ticket_count) */\n      dup2\n      mstore\n      0x20\n      add\n        /* \"Projects/02_Event_Management.sol\":787:798  _event_date */\n      dup6\n        /* \"Projects/02_Event_Management.sol\":758:827  Event(msg.sender,_event_name,_event_date,_ticket_price,_ticket_count) */\n      dup2\n      mstore\n      0x20\n      add\n        /* \"Projects/02_Event_Management.sol\":799:812  _ticket_price */\n      dup5\n        /* \"Projects/02_Event_Management.sol\":758:827  Event(msg.sender,_event_name,_event_date,_ticket_price,_ticket_count) */\n      dup2\n      mstore\n      0x20\n      add\n        /* \"Projects/02_Event_Management.sol\":813:826  _ticket_count */\n      dup4\n        /* \"Projects/02_Event_Management.sol\":758:827  Event(msg.sender,_event_name,_event_date,_ticket_price,_ticket_count) */\n      dup2\n      mstore\n      pop\n        /* \"Projects/02_Event_Management.sol\":733:827  Event memory new_event = Event(msg.sender,_event_name,_event_date,_ticket_price,_ticket_count) */\n      swap1\n      pop\n        /* \"Projects/02_Event_Management.sol\":838:844  events */\n      0x01\n        /* \"Projects/02_Event_Management.sol\":850:859  new_event */\n      dup2\n        /* \"Projects/02_Event_Management.sol\":838:860  events.push(new_event) */\n      swap1\n      dup1\n      0x01\n      dup2\n      sload\n      add\n      dup1\n      dup3\n      sstore\n      dup1\n      swap2\n      pop\n      pop\n      0x01\n      swap1\n      sub\n      swap1\n      0x00\n      mstore\n      keccak256(0x00, 0x20)\n      swap1\n      0x05\n      mul\n      add\n      0x00\n      swap1\n      swap2\n      swap1\n      swap2\n      swap1\n      swap2\n      pop\n      0x00\n      dup3\n      add\n      mload\n      dup2\n      0x00\n      add\n      exp(0x0100, 0x00)\n      dup2\n      sload\n      dup2\n      0xffffffffffffffffffffffffffffffffffffffff\n      mul\n      not\n      and\n      swap1\n      dup4\n      0xffffffffffffffffffffffffffffffffffffffff\n      and\n      mul\n      or\n      swap1\n      sstore\n      pop\n      0x20\n      dup3\n      add\n      mload\n      dup2\n      0x01\n      add\n      swap1\n      dup1\n      mload\n      swap1\n      0x20\n      add\n      swap1\n      tag_32\n      swap3\n      swap2\n      swap1\n      tag_33\n      jump\t// in\n    tag_32:\n      pop\n      0x40\n      dup3\n      add\n      mload\n      dup2\n      0x02\n      add\n      sstore\n      0x60\n      dup3\n      add\n      mload\n      dup2\n      0x03\n      add\n      sstore\n      0x80\n      dup3\n      add\n      mload\n      dup2\n      0x04\n      add\n      sstore\n      pop\n      pop\n        /* \"Projects/02_Event_Management.sol\":534:868  {\r... */\n      pop\n        /* \"Projects/02_Event_Management.sol\":420:868  function create_event(string memory _event_name, uint _event_date, uint _ticket_price, uint _ticket_count) public {\r... */\n      pop\n      pop\n      pop\n      pop\n      jump\t// out\n    tag_33:\n      dup3\n      dup1\n      sload\n      tag_34\n      swap1\n      tag_18\n      jump\t// in\n    tag_34:\n      swap1\n      0x00\n      mstore\n      keccak256(0x00, 0x20)\n      swap1\n      0x1f\n      add\n      0x20\n      swap1\n      div\n      dup2\n      add\n      swap3\n      dup3\n      tag_36\n      jumpi\n      0x00\n      dup6\n      sstore\n      jump(tag_35)\n    tag_36:\n      dup3\n      0x1f\n      lt\n      tag_37\n      jumpi\n      dup1\n      mload\n      not(0xff)\n      and\n      dup4\n      dup1\n      add\n      or\n      dup6\n      sstore\n      jump(tag_35)\n    tag_37:\n      dup3\n      dup1\n      add\n      0x01\n      add\n      dup6\n      sstore\n      dup3\n      iszero\n      tag_35\n      jumpi\n      swap2\n      dup3\n      add\n    tag_38:\n      dup3\n      dup2\n      gt\n      iszero\n      tag_39\n      jumpi\n      dup3\n      mload\n      dup3\n      sstore\n      swap2\n      0x20\n      add\n      swap2\n      swap1\n      0x01\n      add\n      swap1\n      jump(tag_38)\n    tag_39:\n    tag_35:\n      pop\n      swap1\n      pop\n      tag_40\n      swap2\n      swap1\n      tag_41\n      jump\t// in\n    tag_40:\n      pop\n      swap1\n      jump\t// out\n    tag_41:\n    tag_42:\n      dup1\n      dup3\n      gt\n      iszero\n      tag_43\n      jumpi\n      0x00\n      dup2\n      0x00\n      swap1\n      sstore\n      pop\n      0x01\n      add\n      jump(tag_42)\n    tag_43:\n      pop\n      swap1\n      jump\t// out\n        /* \"#utility.yul\":7:419   */\n    tag_45:\n        /* \"#utility.yul\":85:90   */\n      0x00\n        /* \"#utility.yul\":110:176   */\n      tag_47\n        /* \"#utility.yul\":126:175   */\n      tag_48\n        /* \"#utility.yul\":168:174   */\n      dup5\n        /* \"#utility.yul\":126:175   */\n      tag_49\n      jump\t// in\n    tag_48:\n        /* \"#utility.yul\":110:176   */\n      tag_50\n      jump\t// in\n    tag_47:\n        /* \"#utility.yul\":101:176   */\n      swap1\n      pop\n        /* \"#utility.yul\":199:205   */\n      dup3\n        /* \"#utility.yul\":192:197   */\n      dup2\n        /* \"#utility.yul\":185:206   */\n      mstore\n        /* \"#utility.yul\":237:241   */\n      0x20\n        /* \"#utility.yul\":230:235   */\n      dup2\n        /* \"#utility.yul\":226:242   */\n      add\n        /* \"#utility.yul\":275:278   */\n      dup5\n        /* \"#utility.yul\":266:272   */\n      dup5\n        /* \"#utility.yul\":261:264   */\n      dup5\n        /* \"#utility.yul\":257:273   */\n      add\n        /* \"#utility.yul\":254:279   */\n      gt\n        /* \"#utility.yul\":251:363   */\n      iszero\n      tag_51\n      jumpi\n        /* \"#utility.yul\":282:361   */\n      tag_52\n      tag_53\n      jump\t// in\n    tag_52:\n        /* \"#utility.yul\":251:363   */\n    tag_51:\n        /* \"#utility.yul\":372:413   */\n      tag_54\n        /* \"#utility.yul\":406:412   */\n      dup5\n        /* \"#utility.yul\":401:404   */\n      dup3\n        /* \"#utility.yul\":396:399   */\n      dup6\n        /* \"#utility.yul\":372:413   */\n      tag_55\n      jump\t// in\n    tag_54:\n        /* \"#utility.yul\":91:419   */\n      pop\n        /* \"#utility.yul\":7:419   */\n      swap4\n      swap3\n      pop\n      pop\n      pop\n      jump\t// out\n        /* \"#utility.yul\":439:779   */\n    tag_56:\n        /* \"#utility.yul\":495:500   */\n      0x00\n        /* \"#utility.yul\":544:547   */\n      dup3\n        /* \"#utility.yul\":537:541   */\n      0x1f\n        /* \"#utility.yul\":529:535   */\n      dup4\n        /* \"#utility.yul\":525:542   */\n      add\n        /* \"#utility.yul\":521:548   */\n      slt\n        /* \"#utility.yul\":511:633   */\n      tag_58\n      jumpi\n        /* \"#utility.yul\":552:631   */\n      tag_59\n      tag_60\n      jump\t// in\n    tag_59:\n        /* \"#utility.yul\":511:633   */\n    tag_58:\n        /* \"#utility.yul\":669:675   */\n      dup2\n        /* \"#utility.yul\":656:676   */\n      calldataload\n        /* \"#utility.yul\":694:773   */\n      tag_61\n        /* \"#utility.yul\":769:772   */\n      dup5\n        /* \"#utility.yul\":761:767   */\n      dup3\n        /* \"#utility.yul\":754:758   */\n      0x20\n        /* \"#utility.yul\":746:752   */\n      dup7\n        /* \"#utility.yul\":742:759   */\n      add\n        /* \"#utility.yul\":694:773   */\n      tag_45\n      jump\t// in\n    tag_61:\n        /* \"#utility.yul\":685:773   */\n      swap2\n      pop\n        /* \"#utility.yul\":501:779   */\n      pop\n        /* \"#utility.yul\":439:779   */\n      swap3\n      swap2\n      pop\n      pop\n      jump\t// out\n        /* \"#utility.yul\":785:924   */\n    tag_62:\n        /* \"#utility.yul\":831:836   */\n      0x00\n        /* \"#utility.yul\":869:875   */\n      dup2\n        /* \"#utility.yul\":856:876   */\n      calldataload\n        /* \"#utility.yul\":847:876   */\n      swap1\n      pop\n        /* \"#utility.yul\":885:918   */\n      tag_64\n        /* \"#utility.yul\":912:917   */\n      dup2\n        /* \"#utility.yul\":885:918   */\n      tag_65\n      jump\t// in\n    tag_64:\n        /* \"#utility.yul\":785:924   */\n      swap3\n      swap2\n      pop\n      pop\n      jump\t// out\n        /* \"#utility.yul\":930:1875   */\n    tag_13:\n        /* \"#utility.yul\":1026:1032   */\n      0x00\n        /* \"#utility.yul\":1034:1040   */\n      dup1\n        /* \"#utility.yul\":1042:1048   */\n      0x00\n        /* \"#utility.yul\":1050:1056   */\n      dup1\n        /* \"#utility.yul\":1099:1102   */\n      0x80\n        /* \"#utility.yul\":1087:1096   */\n      dup6\n        /* \"#utility.yul\":1078:1085   */\n      dup8\n        /* \"#utility.yul\":1074:1097   */\n      sub\n        /* \"#utility.yul\":1070:1103   */\n      slt\n        /* \"#utility.yul\":1067:1187   */\n      iszero\n      tag_67\n      jumpi\n        /* \"#utility.yul\":1106:1185   */\n      tag_68\n      tag_69\n      jump\t// in\n    tag_68:\n        /* \"#utility.yul\":1067:1187   */\n    tag_67:\n        /* \"#utility.yul\":1254:1255   */\n      0x00\n        /* \"#utility.yul\":1243:1252   */\n      dup6\n        /* \"#utility.yul\":1239:1256   */\n      add\n        /* \"#utility.yul\":1226:1257   */\n      calldataload\n        /* \"#utility.yul\":1284:1302   */\n      0xffffffffffffffff\n        /* \"#utility.yul\":1276:1282   */\n      dup2\n        /* \"#utility.yul\":1273:1303   */\n      gt\n        /* \"#utility.yul\":1270:1387   */\n      iszero\n      tag_70\n      jumpi\n        /* \"#utility.yul\":1306:1385   */\n      tag_71\n      tag_72\n      jump\t// in\n    tag_71:\n        /* \"#utility.yul\":1270:1387   */\n    tag_70:\n        /* \"#utility.yul\":1411:1474   */\n      tag_73\n        /* \"#utility.yul\":1466:1473   */\n      dup8\n        /* \"#utility.yul\":1457:1463   */\n      dup3\n        /* \"#utility.yul\":1446:1455   */\n      dup9\n        /* \"#utility.yul\":1442:1464   */\n      add\n        /* \"#utility.yul\":1411:1474   */\n      tag_56\n      jump\t// in\n    tag_73:\n        /* \"#utility.yul\":1401:1474   */\n      swap5\n      pop\n        /* \"#utility.yul\":1197:1484   */\n      pop\n        /* \"#utility.yul\":1523:1525   */\n      0x20\n        /* \"#utility.yul\":1549:1602   */\n      tag_74\n        /* \"#utility.yul\":1594:1601   */\n      dup8\n        /* \"#utility.yul\":1585:1591   */\n      dup3\n        /* \"#utility.yul\":1574:1583   */\n      dup9\n        /* \"#utility.yul\":1570:1592   */\n      add\n        /* \"#utility.yul\":1549:1602   */\n      tag_62\n      jump\t// in\n    tag_74:\n        /* \"#utility.yul\":1539:1602   */\n      swap4\n      pop\n        /* \"#utility.yul\":1494:1612   */\n      pop\n        /* \"#utility.yul\":1651:1653   */\n      0x40\n        /* \"#utility.yul\":1677:1730   */\n      tag_75\n        /* \"#utility.yul\":1722:1729   */\n      dup8\n        /* \"#utility.yul\":1713:1719   */\n      dup3\n        /* \"#utility.yul\":1702:1711   */\n      dup9\n        /* \"#utility.yul\":1698:1720   */\n      add\n        /* \"#utility.yul\":1677:1730   */\n      tag_62\n      jump\t// in\n    tag_75:\n        /* \"#utility.yul\":1667:1730   */\n      swap3\n      pop\n        /* \"#utility.yul\":1622:1740   */\n      pop\n        /* \"#utility.yul\":1779:1781   */\n      0x60\n        /* \"#utility.yul\":1805:1858   */\n      tag_76\n        /* \"#utility.yul\":1850:1857   */\n      dup8\n        /* \"#utility.yul\":1841:1847   */\n      dup3\n        /* \"#utility.yul\":1830:1839   */\n      dup9\n        /* \"#utility.yul\":1826:1848   */\n      add\n        /* \"#utility.yul\":1805:1858   */\n      tag_62\n      jump\t// in\n    tag_76:\n        /* \"#utility.yul\":1795:1858   */\n      swap2\n      pop\n        /* \"#utility.yul\":1750:1868   */\n      pop\n        /* \"#utility.yul\":930:1875   */\n      swap3\n      swap6\n      swap2\n      swap5\n      pop\n      swap3\n      pop\n      jump\t// out\n        /* \"#utility.yul\":1881:2210   */\n    tag_7:\n        /* \"#utility.yul\":1940:1946   */\n      0x00\n        /* \"#utility.yul\":1989:1991   */\n      0x20\n        /* \"#utility.yul\":1977:1986   */\n      dup3\n        /* \"#utility.yul\":1968:1975   */\n      dup5\n        /* \"#utility.yul\":1964:1987   */\n      sub\n        /* \"#utility.yul\":1960:1992   */\n      slt\n        /* \"#utility.yul\":1957:2076   */\n      iszero\n      tag_78\n      jumpi\n        /* \"#utility.yul\":1995:2074   */\n      tag_79\n      tag_69\n      jump\t// in\n    tag_79:\n        /* \"#utility.yul\":1957:2076   */\n    tag_78:\n        /* \"#utility.yul\":2115:2116   */\n      0x00\n        /* \"#utility.yul\":2140:2193   */\n      tag_80\n        /* \"#utility.yul\":2185:2192   */\n      dup5\n        /* \"#utility.yul\":2176:2182   */\n      dup3\n        /* \"#utility.yul\":2165:2174   */\n      dup6\n        /* \"#utility.yul\":2161:2183   */\n      add\n        /* \"#utility.yul\":2140:2193   */\n      tag_62\n      jump\t// in\n    tag_80:\n        /* \"#utility.yul\":2130:2193   */\n      swap2\n      pop\n        /* \"#utility.yul\":2086:2203   */\n      pop\n        /* \"#utility.yul\":1881:2210   */\n      swap3\n      swap2\n      pop\n      pop\n      jump\t// out\n        /* \"#utility.yul\":2216:2334   */\n    tag_81:\n        /* \"#utility.yul\":2303:2327   */\n      tag_83\n        /* \"#utility.yul\":2321:2326   */\n      dup2\n        /* \"#utility.yul\":2303:2327   */\n      tag_84\n      jump\t// in\n    tag_83:\n        /* \"#utility.yul\":2298:2301   */\n      dup3\n        /* \"#utility.yul\":2291:2328   */\n      mstore\n        /* \"#utility.yul\":2216:2334   */\n      pop\n      pop\n      jump\t// out\n        /* \"#utility.yul\":2340:2704   */\n    tag_85:\n        /* \"#utility.yul\":2428:2431   */\n      0x00\n        /* \"#utility.yul\":2456:2495   */\n      tag_87\n        /* \"#utility.yul\":2489:2494   */\n      dup3\n        /* \"#utility.yul\":2456:2495   */\n      tag_88\n      jump\t// in\n    tag_87:\n        /* \"#utility.yul\":2511:2582   */\n      tag_89\n        /* \"#utility.yul\":2575:2581   */\n      dup2\n        /* \"#utility.yul\":2570:2573   */\n      dup6\n        /* \"#utility.yul\":2511:2582   */\n      tag_90\n      jump\t// in\n    tag_89:\n        /* \"#utility.yul\":2504:2582   */\n      swap4\n      pop\n        /* \"#utility.yul\":2591:2643   */\n      tag_91\n        /* \"#utility.yul\":2636:2642   */\n      dup2\n        /* \"#utility.yul\":2631:2634   */\n      dup6\n        /* \"#utility.yul\":2624:2628   */\n      0x20\n        /* \"#utility.yul\":2617:2622   */\n      dup7\n        /* \"#utility.yul\":2613:2629   */\n      add\n        /* \"#utility.yul\":2591:2643   */\n      tag_92\n      jump\t// in\n    tag_91:\n        /* \"#utility.yul\":2668:2697   */\n      tag_93\n        /* \"#utility.yul\":2690:2696   */\n      dup2\n        /* \"#utility.yul\":2668:2697   */\n      tag_94\n      jump\t// in\n    tag_93:\n        /* \"#utility.yul\":2663:2666   */\n      dup5\n        /* \"#utility.yul\":2659:2698   */\n      add\n        /* \"#utility.yul\":2652:2698   */\n      swap2\n      pop\n        /* \"#utility.yul\":2432:2704   */\n      pop\n        /* \"#utility.yul\":2340:2704   */\n      swap3\n      swap2\n      pop\n      pop\n      jump\t// out\n        /* \"#utility.yul\":2710:3074   */\n    tag_95:\n        /* \"#utility.yul\":2852:2855   */\n      0x00\n        /* \"#utility.yul\":2873:2939   */\n      tag_97\n        /* \"#utility.yul\":2937:2938   */\n      0x00\n        /* \"#utility.yul\":2932:2935   */\n      dup4\n        /* \"#utility.yul\":2873:2939   */\n      tag_90\n      jump\t// in\n    tag_97:\n        /* \"#utility.yul\":2866:2939   */\n      swap2\n      pop\n        /* \"#utility.yul\":2948:3041   */\n      tag_98\n        /* \"#utility.yul\":3037:3040   */\n      dup3\n        /* \"#utility.yul\":2948:3041   */\n      tag_99\n      jump\t// in\n    tag_98:\n        /* \"#utility.yul\":3066:3067   */\n      0x00\n        /* \"#utility.yul\":3061:3064   */\n      dup3\n        /* \"#utility.yul\":3057:3068   */\n      add\n        /* \"#utility.yul\":3050:3068   */\n      swap1\n      pop\n        /* \"#utility.yul\":2710:3074   */\n      swap2\n      swap1\n      pop\n      jump\t// out\n        /* \"#utility.yul\":3080:3198   */\n    tag_100:\n        /* \"#utility.yul\":3167:3191   */\n      tag_102\n        /* \"#utility.yul\":3185:3190   */\n      dup2\n        /* \"#utility.yul\":3167:3191   */\n      tag_103\n      jump\t// in\n    tag_102:\n        /* \"#utility.yul\":3162:3165   */\n      dup3\n        /* \"#utility.yul\":3155:3192   */\n      mstore\n        /* \"#utility.yul\":3080:3198   */\n      pop\n      pop\n      jump\t// out\n        /* \"#utility.yul\":3204:3959   */\n    tag_10:\n        /* \"#utility.yul\":3429:3433   */\n      0x00\n        /* \"#utility.yul\":3467:3470   */\n      0xa0\n        /* \"#utility.yul\":3456:3465   */\n      dup3\n        /* \"#utility.yul\":3452:3471   */\n      add\n        /* \"#utility.yul\":3444:3471   */\n      swap1\n      pop\n        /* \"#utility.yul\":3481:3552   */\n      tag_105\n        /* \"#utility.yul\":3549:3550   */\n      0x00\n        /* \"#utility.yul\":3538:3547   */\n      dup4\n        /* \"#utility.yul\":3534:3551   */\n      add\n        /* \"#utility.yul\":3525:3531   */\n      dup9\n        /* \"#utility.yul\":3481:3552   */\n      tag_81\n      jump\t// in\n    tag_105:\n        /* \"#utility.yul\":3599:3608   */\n      dup2\n        /* \"#utility.yul\":3593:3597   */\n      dup2\n        /* \"#utility.yul\":3589:3609   */\n      sub\n        /* \"#utility.yul\":3584:3586   */\n      0x20\n        /* \"#utility.yul\":3573:3582   */\n      dup4\n        /* \"#utility.yul\":3569:3587   */\n      add\n        /* \"#utility.yul\":3562:3610   */\n      mstore\n        /* \"#utility.yul\":3627:3705   */\n      tag_106\n        /* \"#utility.yul\":3700:3704   */\n      dup2\n        /* \"#utility.yul\":3691:3697   */\n      dup8\n        /* \"#utility.yul\":3627:3705   */\n      tag_85\n      jump\t// in\n    tag_106:\n        /* \"#utility.yul\":3619:3705   */\n      swap1\n      pop\n        /* \"#utility.yul\":3715:3787   */\n      tag_107\n        /* \"#utility.yul\":3783:3785   */\n      0x40\n        /* \"#utility.yul\":3772:3781   */\n      dup4\n        /* \"#utility.yul\":3768:3786   */\n      add\n        /* \"#utility.yul\":3759:3765   */\n      dup7\n        /* \"#utility.yul\":3715:3787   */\n      tag_100\n      jump\t// in\n    tag_107:\n        /* \"#utility.yul\":3797:3869   */\n      tag_108\n        /* \"#utility.yul\":3865:3867   */\n      0x60\n        /* \"#utility.yul\":3854:3863   */\n      dup4\n        /* \"#utility.yul\":3850:3868   */\n      add\n        /* \"#utility.yul\":3841:3847   */\n      dup6\n        /* \"#utility.yul\":3797:3869   */\n      tag_100\n      jump\t// in\n    tag_108:\n        /* \"#utility.yul\":3879:3952   */\n      tag_109\n        /* \"#utility.yul\":3947:3950   */\n      0x80\n        /* \"#utility.yul\":3936:3945   */\n      dup4\n        /* \"#utility.yul\":3932:3951   */\n      add\n        /* \"#utility.yul\":3923:3929   */\n      dup5\n        /* \"#utility.yul\":3879:3952   */\n      tag_100\n      jump\t// in\n    tag_109:\n        /* \"#utility.yul\":3204:3959   */\n      swap7\n      swap6\n      pop\n      pop\n      pop\n      pop\n      pop\n      pop\n      jump\t// out\n        /* \"#utility.yul\":3965:4384   */\n    tag_27:\n        /* \"#utility.yul\":4131:4135   */\n      0x00\n        /* \"#utility.yul\":4169:4171   */\n      0x20\n        /* \"#utility.yul\":4158:4167   */\n      dup3\n        /* \"#utility.yul\":4154:4172   */\n      add\n        /* \"#utility.yul\":4146:4172   */\n      swap1\n      pop\n        /* \"#utility.yul\":4218:4227   */\n      dup2\n        /* \"#utility.yul\":4212:4216   */\n      dup2\n        /* \"#utility.yul\":4208:4228   */\n      sub\n        /* \"#utility.yul\":4204:4205   */\n      0x00\n        /* \"#utility.yul\":4193:4202   */\n      dup4\n        /* \"#utility.yul\":4189:4206   */\n      add\n        /* \"#utility.yul\":4182:4229   */\n      mstore\n        /* \"#utility.yul\":4246:4377   */\n      tag_111\n        /* \"#utility.yul\":4372:4376   */\n      dup2\n        /* \"#utility.yul\":4246:4377   */\n      tag_95\n      jump\t// in\n    tag_111:\n        /* \"#utility.yul\":4238:4377   */\n      swap1\n      pop\n        /* \"#utility.yul\":3965:4384   */\n      swap2\n      swap1\n      pop\n      jump\t// out\n        /* \"#utility.yul\":4390:4519   */\n    tag_50:\n        /* \"#utility.yul\":4424:4430   */\n      0x00\n        /* \"#utility.yul\":4451:4471   */\n      tag_113\n      tag_114\n      jump\t// in\n    tag_113:\n        /* \"#utility.yul\":4441:4471   */\n      swap1\n      pop\n        /* \"#utility.yul\":4480:4513   */\n      tag_115\n        /* \"#utility.yul\":4508:4512   */\n      dup3\n        /* \"#utility.yul\":4500:4506   */\n      dup3\n        /* \"#utility.yul\":4480:4513   */\n      tag_116\n      jump\t// in\n    tag_115:\n        /* \"#utility.yul\":4390:4519   */\n      swap2\n      swap1\n      pop\n      jump\t// out\n        /* \"#utility.yul\":4525:4600   */\n    tag_114:\n        /* \"#utility.yul\":4558:4564   */\n      0x00\n        /* \"#utility.yul\":4591:4593   */\n      0x40\n        /* \"#utility.yul\":4585:4594   */\n      mload\n        /* \"#utility.yul\":4575:4594   */\n      swap1\n      pop\n        /* \"#utility.yul\":4525:4600   */\n      swap1\n      jump\t// out\n        /* \"#utility.yul\":4606:4914   */\n    tag_49:\n        /* \"#utility.yul\":4668:4672   */\n      0x00\n        /* \"#utility.yul\":4758:4776   */\n      0xffffffffffffffff\n        /* \"#utility.yul\":4750:4756   */\n      dup3\n        /* \"#utility.yul\":4747:4777   */\n      gt\n        /* \"#utility.yul\":4744:4800   */\n      iszero\n      tag_119\n      jumpi\n        /* \"#utility.yul\":4780:4798   */\n      tag_120\n      tag_121\n      jump\t// in\n    tag_120:\n        /* \"#utility.yul\":4744:4800   */\n    tag_119:\n        /* \"#utility.yul\":4818:4847   */\n      tag_122\n        /* \"#utility.yul\":4840:4846   */\n      dup3\n        /* \"#utility.yul\":4818:4847   */\n      tag_94\n      jump\t// in\n    tag_122:\n        /* \"#utility.yul\":4810:4847   */\n      swap1\n      pop\n        /* \"#utility.yul\":4902:4906   */\n      0x20\n        /* \"#utility.yul\":4896:4900   */\n      dup2\n        /* \"#utility.yul\":4892:4907   */\n      add\n        /* \"#utility.yul\":4884:4907   */\n      swap1\n      pop\n        /* \"#utility.yul\":4606:4914   */\n      swap2\n      swap1\n      pop\n      jump\t// out\n        /* \"#utility.yul\":4920:5019   */\n    tag_88:\n        /* \"#utility.yul\":4972:4978   */\n      0x00\n        /* \"#utility.yul\":5006:5011   */\n      dup2\n        /* \"#utility.yul\":5000:5012   */\n      mload\n        /* \"#utility.yul\":4990:5012   */\n      swap1\n      pop\n        /* \"#utility.yul\":4920:5019   */\n      swap2\n      swap1\n      pop\n      jump\t// out\n        /* \"#utility.yul\":5025:5194   */\n    tag_90:\n        /* \"#utility.yul\":5109:5120   */\n      0x00\n        /* \"#utility.yul\":5143:5149   */\n      dup3\n        /* \"#utility.yul\":5138:5141   */\n      dup3\n        /* \"#utility.yul\":5131:5150   */\n      mstore\n        /* \"#utility.yul\":5183:5187   */\n      0x20\n        /* \"#utility.yul\":5178:5181   */\n      dup3\n        /* \"#utility.yul\":5174:5188   */\n      add\n        /* \"#utility.yul\":5159:5188   */\n      swap1\n      pop\n        /* \"#utility.yul\":5025:5194   */\n      swap3\n      swap2\n      pop\n      pop\n      jump\t// out\n        /* \"#utility.yul\":5200:5296   */\n    tag_84:\n        /* \"#utility.yul\":5237:5244   */\n      0x00\n        /* \"#utility.yul\":5266:5290   */\n      tag_126\n        /* \"#utility.yul\":5284:5289   */\n      dup3\n        /* \"#utility.yul\":5266:5290   */\n      tag_127\n      jump\t// in\n    tag_126:\n        /* \"#utility.yul\":5255:5290   */\n      swap1\n      pop\n        /* \"#utility.yul\":5200:5296   */\n      swap2\n      swap1\n      pop\n      jump\t// out\n        /* \"#utility.yul\":5302:5428   */\n    tag_127:\n        /* \"#utility.yul\":5339:5346   */\n      0x00\n        /* \"#utility.yul\":5379:5421   */\n      0xffffffffffffffffffffffffffffffffffffffff\n        /* \"#utility.yul\":5372:5377   */\n      dup3\n        /* \"#utility.yul\":5368:5422   */\n      and\n        /* \"#utility.yul\":5357:5422   */\n      swap1\n      pop\n        /* \"#utility.yul\":5302:5428   */\n      swap2\n      swap1\n      pop\n      jump\t// out\n        /* \"#utility.yul\":5434:5511   */\n    tag_103:\n        /* \"#utility.yul\":5471:5478   */\n      0x00\n        /* \"#utility.yul\":5500:5505   */\n      dup2\n        /* \"#utility.yul\":5489:5505   */\n      swap1\n      pop\n        /* \"#utility.yul\":5434:5511   */\n      swap2\n      swap1\n      pop\n      jump\t// out\n        /* \"#utility.yul\":5517:5671   */\n    tag_55:\n        /* \"#utility.yul\":5601:5607   */\n      dup3\n        /* \"#utility.yul\":5596:5599   */\n      dup2\n        /* \"#utility.yul\":5591:5594   */\n      dup4\n        /* \"#utility.yul\":5578:5608   */\n      calldatacopy\n        /* \"#utility.yul\":5663:5664   */\n      0x00\n        /* \"#utility.yul\":5654:5660   */\n      dup4\n        /* \"#utility.yul\":5649:5652   */\n      dup4\n        /* \"#utility.yul\":5645:5661   */\n      add\n        /* \"#utility.yul\":5638:5665   */\n      mstore\n        /* \"#utility.yul\":5517:5671   */\n      pop\n      pop\n      pop\n      jump\t// out\n        /* \"#utility.yul\":5677:5984   */\n    tag_92:\n        /* \"#utility.yul\":5745:5746   */\n      0x00\n        /* \"#utility.yul\":5755:5868   */\n    tag_132:\n        /* \"#utility.yul\":5769:5775   */\n      dup4\n        /* \"#utility.yul\":5766:5767   */\n      dup2\n        /* \"#utility.yul\":5763:5776   */\n      lt\n        /* \"#utility.yul\":5755:5868   */\n      iszero\n      tag_134\n      jumpi\n        /* \"#utility.yul\":5854:5855   */\n      dup1\n        /* \"#utility.yul\":5849:5852   */\n      dup3\n        /* \"#utility.yul\":5845:5856   */\n      add\n        /* \"#utility.yul\":5839:5857   */\n      mload\n        /* \"#utility.yul\":5835:5836   */\n      dup2\n        /* \"#utility.yul\":5830:5833   */\n      dup5\n        /* \"#utility.yul\":5826:5837   */\n      add\n        /* \"#utility.yul\":5819:5858   */\n      mstore\n        /* \"#utility.yul\":5791:5793   */\n      0x20\n        /* \"#utility.yul\":5788:5789   */\n      dup2\n        /* \"#utility.yul\":5784:5794   */\n      add\n        /* \"#utility.yul\":5779:5794   */\n      swap1\n      pop\n        /* \"#utility.yul\":5755:5868   */\n      jump(tag_132)\n    tag_134:\n        /* \"#utility.yul\":5886:5892   */\n      dup4\n        /* \"#utility.yul\":5883:5884   */\n      dup2\n        /* \"#utility.yul\":5880:5893   */\n      gt\n        /* \"#utility.yul\":5877:5978   */\n      iszero\n      tag_135\n      jumpi\n        /* \"#utility.yul\":5966:5967   */\n      0x00\n        /* \"#utility.yul\":5957:5963   */\n      dup5\n        /* \"#utility.yul\":5952:5955   */\n      dup5\n        /* \"#utility.yul\":5948:5964   */\n      add\n        /* \"#utility.yul\":5941:5968   */\n      mstore\n        /* \"#utility.yul\":5877:5978   */\n    tag_135:\n        /* \"#utility.yul\":5726:5984   */\n      pop\n        /* \"#utility.yul\":5677:5984   */\n      pop\n      pop\n      pop\n      jump\t// out\n        /* \"#utility.yul\":5990:6310   */\n    tag_18:\n        /* \"#utility.yul\":6034:6040   */\n      0x00\n        /* \"#utility.yul\":6071:6072   */\n      0x02\n        /* \"#utility.yul\":6065:6069   */\n      dup3\n        /* \"#utility.yul\":6061:6073   */\n      div\n        /* \"#utility.yul\":6051:6073   */\n      swap1\n      pop\n        /* \"#utility.yul\":6118:6119   */\n      0x01\n        /* \"#utility.yul\":6112:6116   */\n      dup3\n        /* \"#utility.yul\":6108:6120   */\n      and\n        /* \"#utility.yul\":6139:6157   */\n      dup1\n        /* \"#utility.yul\":6129:6210   */\n      tag_137\n      jumpi\n        /* \"#utility.yul\":6195:6199   */\n      0x7f\n        /* \"#utility.yul\":6187:6193   */\n      dup3\n        /* \"#utility.yul\":6183:6200   */\n      and\n        /* \"#utility.yul\":6173:6200   */\n      swap2\n      pop\n        /* \"#utility.yul\":6129:6210   */\n    tag_137:\n        /* \"#utility.yul\":6257:6259   */\n      0x20\n        /* \"#utility.yul\":6249:6255   */\n      dup3\n        /* \"#utility.yul\":6246:6260   */\n      lt\n        /* \"#utility.yul\":6226:6244   */\n      dup2\n        /* \"#utility.yul\":6223:6261   */\n      eq\n        /* \"#utility.yul\":6220:6304   */\n      iszero\n      tag_138\n      jumpi\n        /* \"#utility.yul\":6276:6294   */\n      tag_139\n      tag_140\n      jump\t// in\n    tag_139:\n        /* \"#utility.yul\":6220:6304   */\n    tag_138:\n        /* \"#utility.yul\":6041:6310   */\n      pop\n        /* \"#utility.yul\":5990:6310   */\n      swap2\n      swap1\n      pop\n      jump\t// out\n        /* \"#utility.yul\":6316:6597   */\n    tag_116:\n        /* \"#utility.yul\":6399:6426   */\n      tag_142\n        /* \"#utility.yul\":6421:6425   */\n      dup3\n        /* \"#utility.yul\":6399:6426   */\n      tag_94\n      jump\t// in\n    tag_142:\n        /* \"#utility.yul\":6391:6397   */\n      dup2\n        /* \"#utility.yul\":6387:6427   */\n      add\n        /* \"#utility.yul\":6529:6535   */\n      dup2\n        /* \"#utility.yul\":6517:6527   */\n      dup2\n        /* \"#utility.yul\":6514:6536   */\n      lt\n        /* \"#utility.yul\":6493:6511   */\n      0xffffffffffffffff\n        /* \"#utility.yul\":6481:6491   */\n      dup3\n        /* \"#utility.yul\":6478:6512   */\n      gt\n        /* \"#utility.yul\":6475:6537   */\n      or\n        /* \"#utility.yul\":6472:6560   */\n      iszero\n      tag_143\n      jumpi\n        /* \"#utility.yul\":6540:6558   */\n      tag_144\n      tag_121\n      jump\t// in\n    tag_144:\n        /* \"#utility.yul\":6472:6560   */\n    tag_143:\n        /* \"#utility.yul\":6580:6590   */\n      dup1\n        /* \"#utility.yul\":6576:6578   */\n      0x40\n        /* \"#utility.yul\":6569:6591   */\n      mstore\n        /* \"#utility.yul\":6359:6597   */\n      pop\n        /* \"#utility.yul\":6316:6597   */\n      pop\n      pop\n      jump\t// out\n        /* \"#utility.yul\":6603:6783   */\n    tag_140:\n        /* \"#utility.yul\":6651:6728   */\n      0x4e487b7100000000000000000000000000000000000000000000000000000000\n        /* \"#utility.yul\":6648:6649   */\n      0x00\n        /* \"#utility.yul\":6641:6729   */\n      mstore\n        /* \"#utility.yul\":6748:6752   */\n      0x22\n        /* \"#utility.yul\":6745:6746   */\n      0x04\n        /* \"#utility.yul\":6738:6753   */\n      mstore\n        /* \"#utility.yul\":6772:6776   */\n      0x24\n        /* \"#utility.yul\":6769:6770   */\n      0x00\n        /* \"#utility.yul\":6762:6777   */\n      revert\n        /* \"#utility.yul\":6789:6969   */\n    tag_121:\n        /* \"#utility.yul\":6837:6914   */\n      0x4e487b7100000000000000000000000000000000000000000000000000000000\n        /* \"#utility.yul\":6834:6835   */\n      0x00\n        /* \"#utility.yul\":6827:6915   */\n      mstore\n        /* \"#utility.yul\":6934:6938   */\n      0x41\n        /* \"#utility.yul\":6931:6932   */\n      0x04\n        /* \"#utility.yul\":6924:6939   */\n      mstore\n        /* \"#utility.yul\":6958:6962   */\n      0x24\n        /* \"#utility.yul\":6955:6956   */\n      0x00\n        /* \"#utility.yul\":6948:6963   */\n      revert\n        /* \"#utility.yul\":6975:7092   */\n    tag_60:\n        /* \"#utility.yul\":7084:7085   */\n      0x00\n        /* \"#utility.yul\":7081:7082   */\n      dup1\n        /* \"#utility.yul\":7074:7086   */\n      revert\n        /* \"#utility.yul\":7098:7215   */\n    tag_53:\n        /* \"#utility.yul\":7207:7208   */\n      0x00\n        /* \"#utility.yul\":7204:7205   */\n      dup1\n        /* \"#utility.yul\":7197:7209   */\n      revert\n        /* \"#utility.yul\":7221:7338   */\n    tag_72:\n        /* \"#utility.yul\":7330:7331   */\n      0x00\n        /* \"#utility.yul\":7327:7328   */\n      dup1\n        /* \"#utility.yul\":7320:7332   */\n      revert\n        /* \"#utility.yul\":7344:7461   */\n    tag_69:\n        /* \"#utility.yul\":7453:7454   */\n      0x00\n        /* \"#utility.yul\":7450:7451   */\n      dup1\n        /* \"#utility.yul\":7443:7455   */\n      revert\n        /* \"#utility.yul\":7467:7569   */\n    tag_94:\n        /* \"#utility.yul\":7508:7514   */\n      0x00\n        /* \"#utility.yul\":7559:7561   */\n      0x1f\n        /* \"#utility.yul\":7555:7562   */\n      not\n        /* \"#utility.yul\":7550:7552   */\n      0x1f\n        /* \"#utility.yul\":7543:7548   */\n      dup4\n        /* \"#utility.yul\":7539:7553   */\n      add\n        /* \"#utility.yul\":7535:7563   */\n      and\n        /* \"#utility.yul\":7525:7563   */\n      swap1\n      pop\n        /* \"#utility.yul\":7467:7569   */\n      swap2\n      swap1\n      pop\n      jump\t// out\n        /* \"#utility.yul\":7575:7689   */\n    tag_99:\n      pop\n      jump\t// out\n        /* \"#utility.yul\":7695:7817   */\n    tag_65:\n        /* \"#utility.yul\":7768:7792   */\n      tag_154\n        /* \"#utility.yul\":7786:7791   */\n      dup2\n        /* \"#utility.yul\":7768:7792   */\n      tag_103\n      jump\t// in\n    tag_154:\n        /* \"#utility.yul\":7761:7766   */\n      dup2\n        /* \"#utility.yul\":7758:7793   */\n      eq\n        /* \"#utility.yul\":7748:7811   */\n      tag_155\n      jumpi\n        /* \"#utility.yul\":7807:7808   */\n      0x00\n        /* \"#utility.yul\":7804:7805   */\n      dup1\n        /* \"#utility.yul\":7797:7809   */\n      revert\n        /* \"#utility.yul\":7748:7811   */\n    tag_155:\n        /* \"#utility.yul\":7695:7817   */\n      pop\n      jump\t// out\n\n    auxdata: 0xa264697066735822122013e7212e37f557e6e6ca30166c45758a66fa1dd9fcf2bc9b6ef0a31749de170564736f6c63430008070033\n}\n",
				"bytecode": {
					"linkReferences": {},
					"object": "608060405234801561001057600080fd5b50336000806101000a81548173ffffffffffffffffffffffffffffffffffffffff021916908373ffffffffffffffffffffffffffffffffffffffff160217905550610851806100606000396000f3fe608060405234801561001057600080fd5b50600436106100365760003560e01c80630b7914301461003b578063ee3bf8031461006f575b600080fd5b6100556004803603810190610050919061050a565b61008b565b6040516100669594939291906105b1565b60405180910390f35b61008960048036038101906100849190610487565b610179565b005b6001818154811061009b57600080fd5b90600052602060002090600502016000915090508060000160009054906101000a900473ffffffffffffffffffffffffffffffffffffffff16908060010180546100e49061071b565b80601f01602080910402602001604051908101604052809291908181526020018280546101109061071b565b801561015d5780601f106101325761010080835404028352916020019161015d565b820191906000526020600020905b81548152906001019060200180831161014057829003601f168201915b5050505050908060020154908060030154908060040154905085565b60008054906101000a900473ffffffffffffffffffffffffffffffffffffffff1673ffffffffffffffffffffffffffffffffffffffff163373ffffffffffffffffffffffffffffffffffffffff16141580156102025750600073ffffffffffffffffffffffffffffffffffffffff163373ffffffffffffffffffffffffffffffffffffffff1614155b610241576040517f08c379a00000000000000000000000000000000000000000000000000000000081526004016102389061060b565b60405180910390fd5b6000831415801561025157504283115b61025a57600080fd5b6000811161026757600080fd5b60006040518060a001604052803373ffffffffffffffffffffffffffffffffffffffff168152602001868152602001858152602001848152602001838152509050600181908060018154018082558091505060019003906000526020600020906005020160009091909190915060008201518160000160006101000a81548173ffffffffffffffffffffffffffffffffffffffff021916908373ffffffffffffffffffffffffffffffffffffffff160217905550602082015181600101908051906020019061033792919061035f565b5060408201518160020155606082015181600301556080820151816004015550505050505050565b82805461036b9061071b565b90600052602060002090601f01602090048101928261038d57600085556103d4565b82601f106103a657805160ff19168380011785556103d4565b828001600101855582156103d4579182015b828111156103d35782518255916020019190600101906103b8565b5b5090506103e191906103e5565b5090565b5b808211156103fe5760008160009055506001016103e6565b5090565b600061041561041084610650565b61062b565b905082815260208101848484011115610431576104306107e1565b5b61043c8482856106d9565b509392505050565b600082601f830112610459576104586107dc565b5b8135610469848260208601610402565b91505092915050565b60008135905061048181610804565b92915050565b600080600080608085870312156104a1576104a06107eb565b5b600085013567ffffffffffffffff8111156104bf576104be6107e6565b5b6104cb87828801610444565b94505060206104dc87828801610472565b93505060406104ed87828801610472565b92505060606104fe87828801610472565b91505092959194509250565b6000602082840312156105205761051f6107eb565b5b600061052e84828501610472565b91505092915050565b6105408161069d565b82525050565b600061055182610681565b61055b818561068c565b935061056b8185602086016106e8565b610574816107f0565b840191505092915050565b600061058c60008361068c565b915061059782610801565b600082019050919050565b6105ab816106cf565b82525050565b600060a0820190506105c66000830188610537565b81810360208301526105d88187610546565b90506105e760408301866105a2565b6105f460608301856105a2565b61060160808301846105a2565b9695505050505050565b600060208201905081810360008301526106248161057f565b9050919050565b6000610635610646565b9050610641828261074d565b919050565b6000604051905090565b600067ffffffffffffffff82111561066b5761066a6107ad565b5b610674826107f0565b9050602081019050919050565b600081519050919050565b600082825260208201905092915050565b60006106a8826106af565b9050919050565b600073ffffffffffffffffffffffffffffffffffffffff82169050919050565b6000819050919050565b82818337600083830152505050565b60005b838110156107065780820151818401526020810190506106eb565b83811115610715576000848401525b50505050565b6000600282049050600182168061073357607f821691505b602082108114156107475761074661077e565b5b50919050565b610756826107f0565b810181811067ffffffffffffffff82111715610775576107746107ad565b5b80604052505050565b7f4e487b7100000000000000000000000000000000000000000000000000000000600052602260045260246000fd5b7f4e487b7100000000000000000000000000000000000000000000000000000000600052604160045260246000fd5b600080fd5b600080fd5b600080fd5b600080fd5b6000601f19601f8301169050919050565b50565b61080d816106cf565b811461081857600080fd5b5056fea264697066735822122013e7212e37f557e6e6ca30166c45758a66fa1dd9fcf2bc9b6ef0a31749de170564736f6c63430008070033",
					"opcodes": "PUSH1 0x80 PUSH1 0x40 MSTORE CALLVALUE DUP1 ISZERO PUSH2 0x10 JUMPI PUSH1 0x0 DUP1 REVERT JUMPDEST POP CALLER PUSH1 0x0 DUP1 PUSH2 0x100 EXP DUP2 SLOAD DUP2 PUSH20 0xFFFFFFFFFFFFFFFFFFFFFFFFFFFFFFFFFFFFFFFF MUL NOT AND SWAP1 DUP4 PUSH20 0xFFFFFFFFFFFFFFFFFFFFFFFFFFFFFFFFFFFFFFFF AND MUL OR SWAP1 SSTORE POP PUSH2 0x851 DUP1 PUSH2 0x60 PUSH1 0x0 CODECOPY PUSH1 0x0 RETURN INVALID PUSH1 0x80 PUSH1 0x40 MSTORE CALLVALUE DUP1 ISZERO PUSH2 0x10 JUMPI PUSH1 0x0 DUP1 REVERT JUMPDEST POP PUSH1 0x4 CALLDATASIZE LT PUSH2 0x36 JUMPI PUSH1 0x0 CALLDATALOAD PUSH1 0xE0 SHR DUP1 PUSH4 0xB791430 EQ PUSH2 0x3B JUMPI DUP1 PUSH4 0xEE3BF803 EQ PUSH2 0x6F JUMPI JUMPDEST PUSH1 0x0 DUP1 REVERT JUMPDEST PUSH2 0x55 PUSH1 0x4 DUP1 CALLDATASIZE SUB DUP2 ADD SWAP1 PUSH2 0x50 SWAP2 SWAP1 PUSH2 0x50A JUMP JUMPDEST PUSH2 0x8B JUMP JUMPDEST PUSH1 0x40 MLOAD PUSH2 0x66 SWAP6 SWAP5 SWAP4 SWAP3 SWAP2 SWAP1 PUSH2 0x5B1 JUMP JUMPDEST PUSH1 0x40 MLOAD DUP1 SWAP2 SUB SWAP1 RETURN JUMPDEST PUSH2 0x89 PUSH1 0x4 DUP1 CALLDATASIZE SUB DUP2 ADD SWAP1 PUSH2 0x84 SWAP2 SWAP1 PUSH2 0x487 JUMP JUMPDEST PUSH2 0x179 JUMP JUMPDEST STOP JUMPDEST PUSH1 0x1 DUP2 DUP2 SLOAD DUP2 LT PUSH2 0x9B JUMPI PUSH1 0x0 DUP1 REVERT JUMPDEST SWAP1 PUSH1 0x0 MSTORE PUSH1 0x20 PUSH1 0x0 KECCAK256 SWAP1 PUSH1 0x5 MUL ADD PUSH1 0x0 SWAP2 POP SWAP1 POP DUP1 PUSH1 0x0 ADD PUSH1 0x0 SWAP1 SLOAD SWAP1 PUSH2 0x100 EXP SWAP1 DIV PUSH20 0xFFFFFFFFFFFFFFFFFFFFFFFFFFFFFFFFFFFFFFFF AND SWAP1 DUP1 PUSH1 0x1 ADD DUP1 SLOAD PUSH2 0xE4 SWAP1 PUSH2 0x71B JUMP JUMPDEST DUP1 PUSH1 0x1F ADD PUSH1 0x20 DUP1 SWAP2 DIV MUL PUSH1 0x20 ADD PUSH1 0x40 MLOAD SWAP1 DUP2 ADD PUSH1 0x40 MSTORE DUP1 SWAP3 SWAP2 SWAP1 DUP2 DUP2 MSTORE PUSH1 0x20 ADD DUP3 DUP1 SLOAD PUSH2 0x110 SWAP1 PUSH2 0x71B JUMP JUMPDEST DUP1 ISZERO PUSH2 0x15D JUMPI DUP1 PUSH1 0x1F LT PUSH2 0x132 JUMPI PUSH2 0x100 DUP1 DUP4 SLOAD DIV MUL DUP4 MSTORE SWAP2 PUSH1 0x20 ADD SWAP2 PUSH2 0x15D JUMP JUMPDEST DUP3 ADD SWAP2 SWAP1 PUSH1 0x0 MSTORE PUSH1 0x20 PUSH1 0x0 KECCAK256 SWAP1 JUMPDEST DUP2 SLOAD DUP2 MSTORE SWAP1 PUSH1 0x1 ADD SWAP1 PUSH1 0x20 ADD DUP1 DUP4 GT PUSH2 0x140 JUMPI DUP3 SWAP1 SUB PUSH1 0x1F AND DUP3 ADD SWAP2 JUMPDEST POP POP POP POP POP SWAP1 DUP1 PUSH1 0x2 ADD SLOAD SWAP1 DUP1 PUSH1 0x3 ADD SLOAD SWAP1 DUP1 PUSH1 0x4 ADD SLOAD SWAP1 POP DUP6 JUMP JUMPDEST PUSH1 0x0 DUP1 SLOAD SWAP1 PUSH2 0x100 EXP SWAP1 DIV PUSH20 0xFFFFFFFFFFFFFFFFFFFFFFFFFFFFFFFFFFFFFFFF AND PUSH20 0xFFFFFFFFFFFFFFFFFFFFFFFFFFFFFFFFFFFFFFFF AND CALLER PUSH20 0xFFFFFFFFFFFFFFFFFFFFFFFFFFFFFFFFFFFFFFFF AND EQ ISZERO DUP1 ISZERO PUSH2 0x202 JUMPI POP PUSH1 0x0 PUSH20 0xFFFFFFFFFFFFFFFFFFFFFFFFFFFFFFFFFFFFFFFF AND CALLER PUSH20 0xFFFFFFFFFFFFFFFFFFFFFFFFFFFFFFFFFFFFFFFF AND EQ ISZERO JUMPDEST PUSH2 0x241 JUMPI PUSH1 0x40 MLOAD PUSH32 0x8C379A000000000000000000000000000000000000000000000000000000000 DUP2 MSTORE PUSH1 0x4 ADD PUSH2 0x238 SWAP1 PUSH2 0x60B JUMP JUMPDEST PUSH1 0x40 MLOAD DUP1 SWAP2 SUB SWAP1 REVERT JUMPDEST PUSH1 0x0 DUP4 EQ ISZERO DUP1 ISZERO PUSH2 0x251 JUMPI POP TIMESTAMP DUP4 GT JUMPDEST PUSH2 0x25A JUMPI PUSH1 0x0 DUP1 REVERT JUMPDEST PUSH1 0x0 DUP2 GT PUSH2 0x267 JUMPI PUSH1 0x0 DUP1 REVERT JUMPDEST PUSH1 0x0 PUSH1 0x40 MLOAD DUP1 PUSH1 0xA0 ADD PUSH1 0x40 MSTORE DUP1 CALLER PUSH20 0xFFFFFFFFFFFFFFFFFFFFFFFFFFFFFFFFFFFFFFFF AND DUP2 MSTORE PUSH1 0x20 ADD DUP7 DUP2 MSTORE PUSH1 0x20 ADD DUP6 DUP2 MSTORE PUSH1 0x20 ADD DUP5 DUP2 MSTORE PUSH1 0x20 ADD DUP4 DUP2 MSTORE POP SWAP1 POP PUSH1 0x1 DUP2 SWAP1 DUP1 PUSH1 0x1 DUP2 SLOAD ADD DUP1 DUP3 SSTORE DUP1 SWAP2 POP POP PUSH1 0x1 SWAP1 SUB SWAP1 PUSH1 0x0 MSTORE PUSH1 0x20 PUSH1 0x0 KECCAK256 SWAP1 PUSH1 0x5 MUL ADD PUSH1 0x0 SWAP1 SWAP2 SWAP1 SWAP2 SWAP1 SWAP2 POP PUSH1 0x0 DUP3 ADD MLOAD DUP2 PUSH1 0x0 ADD PUSH1 0x0 PUSH2 0x100 EXP DUP2 SLOAD DUP2 PUSH20 0xFFFFFFFFFFFFFFFFFFFFFFFFFFFFFFFFFFFFFFFF MUL NOT AND SWAP1 DUP4 PUSH20 0xFFFFFFFFFFFFFFFFFFFFFFFFFFFFFFFFFFFFFFFF AND MUL OR SWAP1 SSTORE POP PUSH1 0x20 DUP3 ADD MLOAD DUP2 PUSH1 0x1 ADD SWAP1 DUP1 MLOAD SWAP1 PUSH1 0x20 ADD SWAP1 PUSH2 0x337 SWAP3 SWAP2 SWAP1 PUSH2 0x35F JUMP JUMPDEST POP PUSH1 0x40 DUP3 ADD MLOAD DUP2 PUSH1 0x2 ADD SSTORE PUSH1 0x60 DUP3 ADD MLOAD DUP2 PUSH1 0x3 ADD SSTORE PUSH1 0x80 DUP3 ADD MLOAD DUP2 PUSH1 0x4 ADD SSTORE POP POP POP POP POP POP POP JUMP JUMPDEST DUP3 DUP1 SLOAD PUSH2 0x36B SWAP1 PUSH2 0x71B JUMP JUMPDEST SWAP1 PUSH1 0x0 MSTORE PUSH1 0x20 PUSH1 0x0 KECCAK256 SWAP1 PUSH1 0x1F ADD PUSH1 0x20 SWAP1 DIV DUP2 ADD SWAP3 DUP3 PUSH2 0x38D JUMPI PUSH1 0x0 DUP6 SSTORE PUSH2 0x3D4 JUMP JUMPDEST DUP3 PUSH1 0x1F LT PUSH2 0x3A6 JUMPI DUP1 MLOAD PUSH1 0xFF NOT AND DUP4 DUP1 ADD OR DUP6 SSTORE PUSH2 0x3D4 JUMP JUMPDEST DUP3 DUP1 ADD PUSH1 0x1 ADD DUP6 SSTORE DUP3 ISZERO PUSH2 0x3D4 JUMPI SWAP2 DUP3 ADD JUMPDEST DUP3 DUP2 GT ISZERO PUSH2 0x3D3 JUMPI DUP3 MLOAD DUP3 SSTORE SWAP2 PUSH1 0x20 ADD SWAP2 SWAP1 PUSH1 0x1 ADD SWAP1 PUSH2 0x3B8 JUMP JUMPDEST JUMPDEST POP SWAP1 POP PUSH2 0x3E1 SWAP2 SWAP1 PUSH2 0x3E5 JUMP JUMPDEST POP SWAP1 JUMP JUMPDEST JUMPDEST DUP1 DUP3 GT ISZERO PUSH2 0x3FE JUMPI PUSH1 0x0 DUP2 PUSH1 0x0 SWAP1 SSTORE POP PUSH1 0x1 ADD PUSH2 0x3E6 JUMP JUMPDEST POP SWAP1 JUMP JUMPDEST PUSH1 0x0 PUSH2 0x415 PUSH2 0x410 DUP5 PUSH2 0x650 JUMP JUMPDEST PUSH2 0x62B JUMP JUMPDEST SWAP1 POP DUP3 DUP2 MSTORE PUSH1 0x20 DUP2 ADD DUP5 DUP5 DUP5 ADD GT ISZERO PUSH2 0x431 JUMPI PUSH2 0x430 PUSH2 0x7E1 JUMP JUMPDEST JUMPDEST PUSH2 0x43C DUP5 DUP3 DUP6 PUSH2 0x6D9 JUMP JUMPDEST POP SWAP4 SWAP3 POP POP POP JUMP JUMPDEST PUSH1 0x0 DUP3 PUSH1 0x1F DUP4 ADD SLT PUSH2 0x459 JUMPI PUSH2 0x458 PUSH2 0x7DC JUMP JUMPDEST JUMPDEST DUP2 CALLDATALOAD PUSH2 0x469 DUP5 DUP3 PUSH1 0x20 DUP7 ADD PUSH2 0x402 JUMP JUMPDEST SWAP2 POP POP SWAP3 SWAP2 POP POP JUMP JUMPDEST PUSH1 0x0 DUP2 CALLDATALOAD SWAP1 POP PUSH2 0x481 DUP2 PUSH2 0x804 JUMP JUMPDEST SWAP3 SWAP2 POP POP JUMP JUMPDEST PUSH1 0x0 DUP1 PUSH1 0x0 DUP1 PUSH1 0x80 DUP6 DUP8 SUB SLT ISZERO PUSH2 0x4A1 JUMPI PUSH2 0x4A0 PUSH2 0x7EB JUMP JUMPDEST JUMPDEST PUSH1 0x0 DUP6 ADD CALLDATALOAD PUSH8 0xFFFFFFFFFFFFFFFF DUP2 GT ISZERO PUSH2 0x4BF JUMPI PUSH2 0x4BE PUSH2 0x7E6 JUMP JUMPDEST JUMPDEST PUSH2 0x4CB DUP8 DUP3 DUP9 ADD PUSH2 0x444 JUMP JUMPDEST SWAP5 POP POP PUSH1 0x20 PUSH2 0x4DC DUP8 DUP3 DUP9 ADD PUSH2 0x472 JUMP JUMPDEST SWAP4 POP POP PUSH1 0x40 PUSH2 0x4ED DUP8 DUP3 DUP9 ADD PUSH2 0x472 JUMP JUMPDEST SWAP3 POP POP PUSH1 0x60 PUSH2 0x4FE DUP8 DUP3 DUP9 ADD PUSH2 0x472 JUMP JUMPDEST SWAP2 POP POP SWAP3 SWAP6 SWAP2 SWAP5 POP SWAP3 POP JUMP JUMPDEST PUSH1 0x0 PUSH1 0x20 DUP3 DUP5 SUB SLT ISZERO PUSH2 0x520 JUMPI PUSH2 0x51F PUSH2 0x7EB JUMP JUMPDEST JUMPDEST PUSH1 0x0 PUSH2 0x52E DUP5 DUP3 DUP6 ADD PUSH2 0x472 JUMP JUMPDEST SWAP2 POP POP SWAP3 SWAP2 POP POP JUMP JUMPDEST PUSH2 0x540 DUP2 PUSH2 0x69D JUMP JUMPDEST DUP3 MSTORE POP POP JUMP JUMPDEST PUSH1 0x0 PUSH2 0x551 DUP3 PUSH2 0x681 JUMP JUMPDEST PUSH2 0x55B DUP2 DUP6 PUSH2 0x68C JUMP JUMPDEST SWAP4 POP PUSH2 0x56B DUP2 DUP6 PUSH1 0x20 DUP7 ADD PUSH2 0x6E8 JUMP JUMPDEST PUSH2 0x574 DUP2 PUSH2 0x7F0 JUMP JUMPDEST DUP5 ADD SWAP2 POP POP SWAP3 SWAP2 POP POP JUMP JUMPDEST PUSH1 0x0 PUSH2 0x58C PUSH1 0x0 DUP4 PUSH2 0x68C JUMP JUMPDEST SWAP2 POP PUSH2 0x597 DUP3 PUSH2 0x801 JUMP JUMPDEST PUSH1 0x0 DUP3 ADD SWAP1 POP SWAP2 SWAP1 POP JUMP JUMPDEST PUSH2 0x5AB DUP2 PUSH2 0x6CF JUMP JUMPDEST DUP3 MSTORE POP POP JUMP JUMPDEST PUSH1 0x0 PUSH1 0xA0 DUP3 ADD SWAP1 POP PUSH2 0x5C6 PUSH1 0x0 DUP4 ADD DUP9 PUSH2 0x537 JUMP JUMPDEST DUP2 DUP2 SUB PUSH1 0x20 DUP4 ADD MSTORE PUSH2 0x5D8 DUP2 DUP8 PUSH2 0x546 JUMP JUMPDEST SWAP1 POP PUSH2 0x5E7 PUSH1 0x40 DUP4 ADD DUP7 PUSH2 0x5A2 JUMP JUMPDEST PUSH2 0x5F4 PUSH1 0x60 DUP4 ADD DUP6 PUSH2 0x5A2 JUMP JUMPDEST PUSH2 0x601 PUSH1 0x80 DUP4 ADD DUP5 PUSH2 0x5A2 JUMP JUMPDEST SWAP7 SWAP6 POP POP POP POP POP POP JUMP JUMPDEST PUSH1 0x0 PUSH1 0x20 DUP3 ADD SWAP1 POP DUP2 DUP2 SUB PUSH1 0x0 DUP4 ADD MSTORE PUSH2 0x624 DUP2 PUSH2 0x57F JUMP JUMPDEST SWAP1 POP SWAP2 SWAP1 POP JUMP JUMPDEST PUSH1 0x0 PUSH2 0x635 PUSH2 0x646 JUMP JUMPDEST SWAP1 POP PUSH2 0x641 DUP3 DUP3 PUSH2 0x74D JUMP JUMPDEST SWAP2 SWAP1 POP JUMP JUMPDEST PUSH1 0x0 PUSH1 0x40 MLOAD SWAP1 POP SWAP1 JUMP JUMPDEST PUSH1 0x0 PUSH8 0xFFFFFFFFFFFFFFFF DUP3 GT ISZERO PUSH2 0x66B JUMPI PUSH2 0x66A PUSH2 0x7AD JUMP JUMPDEST JUMPDEST PUSH2 0x674 DUP3 PUSH2 0x7F0 JUMP JUMPDEST SWAP1 POP PUSH1 0x20 DUP2 ADD SWAP1 POP SWAP2 SWAP1 POP JUMP JUMPDEST PUSH1 0x0 DUP2 MLOAD SWAP1 POP SWAP2 SWAP1 POP JUMP JUMPDEST PUSH1 0x0 DUP3 DUP3 MSTORE PUSH1 0x20 DUP3 ADD SWAP1 POP SWAP3 SWAP2 POP POP JUMP JUMPDEST PUSH1 0x0 PUSH2 0x6A8 DUP3 PUSH2 0x6AF JUMP JUMPDEST SWAP1 POP SWAP2 SWAP1 POP JUMP JUMPDEST PUSH1 0x0 PUSH20 0xFFFFFFFFFFFFFFFFFFFFFFFFFFFFFFFFFFFFFFFF DUP3 AND SWAP1 POP SWAP2 SWAP1 POP JUMP JUMPDEST PUSH1 0x0 DUP2 SWAP1 POP SWAP2 SWAP1 POP JUMP JUMPDEST DUP3 DUP2 DUP4 CALLDATACOPY PUSH1 0x0 DUP4 DUP4 ADD MSTORE POP POP POP JUMP JUMPDEST PUSH1 0x0 JUMPDEST DUP4 DUP2 LT ISZERO PUSH2 0x706 JUMPI DUP1 DUP3 ADD MLOAD DUP2 DUP5 ADD MSTORE PUSH1 0x20 DUP2 ADD SWAP1 POP PUSH2 0x6EB JUMP JUMPDEST DUP4 DUP2 GT ISZERO PUSH2 0x715 JUMPI PUSH1 0x0 DUP5 DUP5 ADD MSTORE JUMPDEST POP POP POP POP JUMP JUMPDEST PUSH1 0x0 PUSH1 0x2 DUP3 DIV SWAP1 POP PUSH1 0x1 DUP3 AND DUP1 PUSH2 0x733 JUMPI PUSH1 0x7F DUP3 AND SWAP2 POP JUMPDEST PUSH1 0x20 DUP3 LT DUP2 EQ ISZERO PUSH2 0x747 JUMPI PUSH2 0x746 PUSH2 0x77E JUMP JUMPDEST JUMPDEST POP SWAP2 SWAP1 POP JUMP JUMPDEST PUSH2 0x756 DUP3 PUSH2 0x7F0 JUMP JUMPDEST DUP2 ADD DUP2 DUP2 LT PUSH8 0xFFFFFFFFFFFFFFFF DUP3 GT OR ISZERO PUSH2 0x775 JUMPI PUSH2 0x774 PUSH2 0x7AD JUMP JUMPDEST JUMPDEST DUP1 PUSH1 0x40 MSTORE POP POP POP JUMP JUMPDEST PUSH32 0x4E487B7100000000000000000000000000000000000000000000000000000000 PUSH1 0x0 MSTORE PUSH1 0x22 PUSH1 0x4 MSTORE PUSH1 0x24 PUSH1 0x0 REVERT JUMPDEST PUSH32 0x4E487B7100000000000000000000000000000000000000000000000000000000 PUSH1 0x0 MSTORE PUSH1 0x41 PUSH1 0x4 MSTORE PUSH1 0x24 PUSH1 0x0 REVERT JUMPDEST PUSH1 0x0 DUP1 REVERT JUMPDEST PUSH1 0x0 DUP1 REVERT JUMPDEST PUSH1 0x0 DUP1 REVERT JUMPDEST PUSH1 0x0 DUP1 REVERT JUMPDEST PUSH1 0x0 PUSH1 0x1F NOT PUSH1 0x1F DUP4 ADD AND SWAP1 POP SWAP2 SWAP1 POP JUMP JUMPDEST POP JUMP JUMPDEST PUSH2 0x80D DUP2 PUSH2 0x6CF JUMP JUMPDEST DUP2 EQ PUSH2 0x818 JUMPI PUSH1 0x0 DUP1 REVERT JUMPDEST POP JUMP INVALID LOG2 PUSH5 0x6970667358 0x22 SLT KECCAK256 SGT 0xE7 0x21 0x2E CALLDATACOPY CREATE2 JUMPI 0xE6 0xE6 0xCA ADDRESS AND PUSH13 0x45758A66FA1DD9FCF2BC9B6EF0 LOG3 OR 0x49 0xDE OR SDIV PUSH5 0x736F6C6343 STOP ADDMOD SMOD STOP CALLER "
				},
				"gasEstimates": {
					"creation": {
						"codeDepositCost": "425800",
						"executionCost": "24727",
						"totalCost": "450527"
					},
					"external": {
						"create_event(string,uint256,uint256,uint256)": "infinite",
						"events(uint256)": "infinite"
					}
				},
				"methodIdentifiers": {
					"create_event(string,uint256,uint256,uint256)": "ee3bf803",
					"events(uint256)": "0b791430"
				}
			},
			"storageLayout": {
				"storage": [
					{
						"astId": 14,
						"contract": "Projects/02_Event_Management.sol:EventManagement",
						"label": "owner_contract",
						"offset": 0,
						"slot": "0",
						"type": "t_address"
					},
					{
						"astId": 18,
						"contract": "Projects/02_Event_Management.sol:EventManagement",
						"label": "events",
						"offset": 0,
						"slot": "1",
						"type": "t_array(t_struct(Event)12_storage)dyn_storage"
					}
				],
				"types": {
					"t_address": {
						"encoding": "inplace",
						"label": "address",
						"numberOfBytes": "20"
					},
					"t_array(t_struct(Event)12_storage)dyn_storage": {
						"base": "t_struct(Event)12_storage",
						"encoding": "dynamic_array",
						"label": "struct EventManagement.Event[]",
						"numberOfBytes": "32"
					},
					"t_string_storage": {
						"encoding": "bytes",
						"label": "string",
						"numberOfBytes": "32"
					},
					"t_struct(Event)12_storage": {
						"encoding": "inplace",
						"label": "struct EventManagement.Event",
						"members": [
							{
								"astId": 3,
								"contract": "Projects/02_Event_Management.sol:EventManagement",
								"label": "organizer",
								"offset": 0,
								"slot": "0",
								"type": "t_address"
							},
							{
								"astId": 5,
								"contract": "Projects/02_Event_Management.sol:EventManagement",
								"label": "event_name",
								"offset": 0,
								"slot": "1",
								"type": "t_string_storage"
							},
							{
								"astId": 7,
								"contract": "Projects/02_Event_Management.sol:EventManagement",
								"label": "event_date",
								"offset": 0,
								"slot": "2",
								"type": "t_uint256"
							},
							{
								"astId": 9,
								"contract": "Projects/02_Event_Management.sol:EventManagement",
								"label": "ticket_price",
								"offset": 0,
								"slot": "3",
								"type": "t_uint256"
							},
							{
								"astId": 11,
								"contract": "Projects/02_Event_Management.sol:EventManagement",
								"label": "ticket_count",
								"offset": 0,
								"slot": "4",
								"type": "t_uint256"
							}
						],
						"numberOfBytes": "160"
					},
					"t_uint256": {
						"encoding": "inplace",
						"label": "uint256",
						"numberOfBytes": "32"
					}
				}
			},
			"userdoc": {
				"kind": "user",
				"methods": {},
				"version": 1
			}
		}
	}
}