{
	"data": {
		"bytecode": {
			"linkReferences": {},
			"object": "608060405234801561001057600080fd5b50336000806101000a81548173ffffffffffffffffffffffffffffffffffffffff021916908373ffffffffffffffffffffffffffffffffffffffff1602179055506116d2806100606000396000f3fe60806040526004361061004a5760003560e01c80630b7914301461004f5780631ea547ed14610090578063c71e7edc146100b9578063dae7a13c146100d5578063ee3bf80314610112575b600080fd5b34801561005b57600080fd5b5061007660048036038101906100719190610c5d565b61012e565b604051610087959493929190610ea2565b60405180910390f35b34801561009c57600080fd5b506100b760048036038101906100b29190610b87565b61021c565b005b6100d360048036038101906100ce9190610c8a565b6103f2565b005b3480156100e157600080fd5b506100fc60048036038101906100f79190610b47565b6106df565b604051610109919061105c565b60405180910390f35b61012c60048036038101906101279190610bda565b610704565b005b6001818154811061013e57600080fd5b90600052602060002090600502016000915090508060000160009054906101000a900473ffffffffffffffffffffffffffffffffffffffff16908060010180546101879061125d565b80601f01602080910402602001604051908101604052809291908181526020018280546101b39061125d565b80156102005780601f106101d557610100808354040283529160200191610200565b820191906000526020600020905b8154815290600101906020018083116101e357829003601f168201915b5050505050908060020154908060030154908060040154905085565b600073ffffffffffffffffffffffffffffffffffffffff168373ffffffffffffffffffffffffffffffffffffffff16141561028c576040517f08c379a000000000000000000000000000000000000000000000000000000000815260040161028390610fdc565b60405180910390fd5b80600260003373ffffffffffffffffffffffffffffffffffffffff1673ffffffffffffffffffffffffffffffffffffffff168152602001908152602001600020600084815260200190815260200160002054101561031f576040517f08c379a00000000000000000000000000000000000000000000000000000000081526004016103169061101c565b60405180910390fd5b80600260003373ffffffffffffffffffffffffffffffffffffffff1673ffffffffffffffffffffffffffffffffffffffff1681526020019081526020016000206000848152602001908152602001600020600082825461037f9190611199565b9250508190555080600260008573ffffffffffffffffffffffffffffffffffffffff1673ffffffffffffffffffffffffffffffffffffffff168152602001908152602001600020600084815260200190815260200160002060008282546103e691906110e9565b92505081905550505050565b6001805490508210610439576040517f08c379a000000000000000000000000000000000000000000000000000000000815260040161043090610f5c565b60405180910390fd5b426001838154811061044e5761044d61131e565b5b906000526020600020906005020160020154116104a0576040517f08c379a000000000000000000000000000000000000000000000000000000000815260040161049790610ffc565b60405180910390fd5b60008114156104e4576040517f08c379a00000000000000000000000000000000000000000000000000000000081526004016104db90610fbc565b60405180910390fd5b600182815481106104f8576104f761131e565b5b90600052602060002090600502016004015481111561054c576040517f08c379a00000000000000000000000000000000000000000000000000000000081526004016105439061103c565b60405180910390fd5b80600183815481106105615761056061131e565b5b90600052602060002090600502016003015461057d919061113f565b34146105be576040517f08c379a00000000000000000000000000000000000000000000000000000000081526004016105b590610f9c565b60405180910390fd5b80600260003373ffffffffffffffffffffffffffffffffffffffff1673ffffffffffffffffffffffffffffffffffffffff16815260200190815260200160002060008481526020019081526020016000208190555080600183815481106106285761062761131e565b5b906000526020600020906005020160040160008282546106489190611199565b92505081905550600182815481106106635761066261131e565b5b906000526020600020906005020160000160009054906101000a900473ffffffffffffffffffffffffffffffffffffffff1673ffffffffffffffffffffffffffffffffffffffff166108fc349081150290604051600060405180830381858888f193505050501580156106da573d6000803e3d6000fd5b505050565b6002602052816000526040600020602052806000526040600020600091509150505481565b60008054906101000a900473ffffffffffffffffffffffffffffffffffffffff1673ffffffffffffffffffffffffffffffffffffffff163373ffffffffffffffffffffffffffffffffffffffff161415801561078d5750600073ffffffffffffffffffffffffffffffffffffffff163373ffffffffffffffffffffffffffffffffffffffff1614155b6107cc576040517f08c379a00000000000000000000000000000000000000000000000000000000081526004016107c390610f7c565b60405180910390fd5b600083141580156107dc57504283115b61081b576040517f08c379a000000000000000000000000000000000000000000000000000000000815260040161081290610f3c565b60405180910390fd5b6000811161085e576040517f08c379a000000000000000000000000000000000000000000000000000000000815260040161085590610f1c565b60405180910390fd5b600082146108ab576103e834146108aa576040517f08c379a00000000000000000000000000000000000000000000000000000000081526004016108a190610efc565b60405180910390fd5b5b60006040518060a001604052803373ffffffffffffffffffffffffffffffffffffffff168152602001868152602001858152602001848152602001838152509050600181908060018154018082558091505060019003906000526020600020906005020160009091909190915060008201518160000160006101000a81548173ffffffffffffffffffffffffffffffffffffffff021916908373ffffffffffffffffffffffffffffffffffffffff160217905550602082015181600101908051906020019061097b929190610a0a565b50604082015181600201556060820151816003015560808201518160040155505060008054906101000a900473ffffffffffffffffffffffffffffffffffffffff1673ffffffffffffffffffffffffffffffffffffffff166108fc349081150290604051600060405180830381858888f19350505050158015610a02573d6000803e3d6000fd5b505050505050565b828054610a169061125d565b90600052602060002090601f016020900481019282610a385760008555610a7f565b82601f10610a5157805160ff1916838001178555610a7f565b82800160010185558215610a7f579182015b82811115610a7e578251825591602001919060010190610a63565b5b509050610a8c9190610a90565b5090565b5b80821115610aa9576000816000905550600101610a91565b5090565b6000610ac0610abb8461109c565b611077565b905082815260208101848484011115610adc57610adb611381565b5b610ae784828561121b565b509392505050565b600081359050610afe8161166e565b92915050565b600082601f830112610b1957610b1861137c565b5b8135610b29848260208601610aad565b91505092915050565b600081359050610b4181611685565b92915050565b60008060408385031215610b5e57610b5d61138b565b5b6000610b6c85828601610aef565b9250506020610b7d85828601610b32565b9150509250929050565b600080600060608486031215610ba057610b9f61138b565b5b6000610bae86828701610aef565b9350506020610bbf86828701610b32565b9250506040610bd086828701610b32565b9150509250925092565b60008060008060808587031215610bf457610bf361138b565b5b600085013567ffffffffffffffff811115610c1257610c11611386565b5b610c1e87828801610b04565b9450506020610c2f87828801610b32565b9350506040610c4087828801610b32565b9250506060610c5187828801610b32565b91505092959194509250565b600060208284031215610c7357610c7261138b565b5b6000610c8184828501610b32565b91505092915050565b60008060408385031215610ca157610ca061138b565b5b6000610caf85828601610b32565b9250506020610cc085828601610b32565b9150509250929050565b610cd3816111df565b82525050565b6000610ce4826110cd565b610cee81856110d8565b9350610cfe81856020860161122a565b610d0781611390565b840191505092915050565b6000610d1f6034836110d8565b9150610d2a826113a1565b604082019050919050565b6000610d42601a836110d8565b9150610d4d826113f0565b602082019050919050565b6000610d656023836110d8565b9150610d7082611419565b604082019050919050565b6000610d886018836110d8565b9150610d9382611468565b602082019050919050565b6000610dab6032836110d8565b9150610db682611491565b604082019050919050565b6000610dce6024836110d8565b9150610dd9826114e0565b604082019050919050565b6000610df1601a836110d8565b9150610dfc8261152f565b602082019050919050565b6000610e146028836110d8565b9150610e1f82611558565b604082019050919050565b6000610e37601f836110d8565b9150610e42826115a7565b602082019050919050565b6000610e5a6033836110d8565b9150610e65826115d0565b604082019050919050565b6000610e7d6028836110d8565b9150610e888261161f565b604082019050919050565b610e9c81611211565b82525050565b600060a082019050610eb76000830188610cca565b8181036020830152610ec98187610cd9565b9050610ed86040830186610e93565b610ee56060830185610e93565b610ef26080830184610e93565b9695505050505050565b60006020820190508181036000830152610f1581610d12565b9050919050565b60006020820190508181036000830152610f3581610d35565b9050919050565b60006020820190508181036000830152610f5581610d58565b9050919050565b60006020820190508181036000830152610f7581610d7b565b9050919050565b60006020820190508181036000830152610f9581610d9e565b9050919050565b60006020820190508181036000830152610fb581610dc1565b9050919050565b60006020820190508181036000830152610fd581610de4565b9050919050565b60006020820190508181036000830152610ff581610e07565b9050919050565b6000602082019050818103600083015261101581610e2a565b9050919050565b6000602082019050818103600083015261103581610e4d565b9050919050565b6000602082019050818103600083015261105581610e70565b9050919050565b60006020820190506110716000830184610e93565b92915050565b6000611081611092565b905061108d828261128f565b919050565b6000604051905090565b600067ffffffffffffffff8211156110b7576110b661134d565b5b6110c082611390565b9050602081019050919050565b600081519050919050565b600082825260208201905092915050565b60006110f482611211565b91506110ff83611211565b9250827fffffffffffffffffffffffffffffffffffffffffffffffffffffffffffffffff03821115611134576111336112c0565b5b828201905092915050565b600061114a82611211565b915061115583611211565b9250817fffffffffffffffffffffffffffffffffffffffffffffffffffffffffffffffff048311821515161561118e5761118d6112c0565b5b828202905092915050565b60006111a482611211565b91506111af83611211565b9250828210156111c2576111c16112c0565b5b828203905092915050565b60006111d8826111f1565b9050919050565b60006111ea826111f1565b9050919050565b600073ffffffffffffffffffffffffffffffffffffffff82169050919050565b6000819050919050565b82818337600083830152505050565b60005b8381101561124857808201518184015260208101905061122d565b83811115611257576000848401525b50505050565b6000600282049050600182168061127557607f821691505b60208210811415611289576112886112ef565b5b50919050565b61129882611390565b810181811067ffffffffffffffff821117156112b7576112b661134d565b5b80604052505050565b7f4e487b7100000000000000000000000000000000000000000000000000000000600052601160045260246000fd5b7f4e487b7100000000000000000000000000000000000000000000000000000000600052602260045260246000fd5b7f4e487b7100000000000000000000000000000000000000000000000000000000600052603260045260246000fd5b7f4e487b7100000000000000000000000000000000000000000000000000000000600052604160045260246000fd5b600080fd5b600080fd5b600080fd5b600080fd5b6000601f19601f8301169050919050565b7f506c65617365207061792073756666696369656e742066756e6420666f72206f60008201527f7267616e697a696e6720796f7572206576656e74000000000000000000000000602082015250565b7f506c656173652063726561746520736f6d65207469636b657473000000000000600082015250565b7f506c6561736520656e74657220612076616c6964206461746520696e2066757460008201527f7572650000000000000000000000000000000000000000000000000000000000602082015250565b7f4e6f206576656e7473206f6e207468697320696e6465782e0000000000000000600082015250565b7f456e74657220612076616c69642061646472657373206f72206f776e6572206360008201527f616e277420686f737420616e206576656e740000000000000000000000000000602082015250565b7f5472616e736163742073756666696369656e742066756e6420666f722074696360008201527f6b65747300000000000000000000000000000000000000000000000000000000602082015250565b7f506c656173652073656c65637420736f6d65207469636b657473000000000000600082015250565b7f506c6561736520656e74657220612076616c69642061646472657373206f662060008201527f7265636569766572000000000000000000000000000000000000000000000000602082015250565b7f536f72727920746869732073686f7720616c72656164792066696e7368656400600082015250565b7f596f7520646f6e2774206861766520656e6f75676874207469636b6574206f6660008201527f2074686973206576656e7420746f2073656e6400000000000000000000000000602082015250565b7f536f727279206e6f206d6f7265207469636b6574206c65667420666f7220746860008201527f6973206576656e74000000000000000000000000000000000000000000000000602082015250565b611677816111cd565b811461168257600080fd5b50565b61168e81611211565b811461169957600080fd5b5056fea2646970667358221220e64ec9cfd95946f0b986f8604b41eda02dd0bf76536d3a9cc6438a46a66a2f8a64736f6c63430008070033",
			"opcodes": "PUSH1 0x80 PUSH1 0x40 MSTORE CALLVALUE DUP1 ISZERO PUSH2 0x10 JUMPI PUSH1 0x0 DUP1 REVERT JUMPDEST POP CALLER PUSH1 0x0 DUP1 PUSH2 0x100 EXP DUP2 SLOAD DUP2 PUSH20 0xFFFFFFFFFFFFFFFFFFFFFFFFFFFFFFFFFFFFFFFF MUL NOT AND SWAP1 DUP4 PUSH20 0xFFFFFFFFFFFFFFFFFFFFFFFFFFFFFFFFFFFFFFFF AND MUL OR SWAP1 SSTORE POP PUSH2 0x16D2 DUP1 PUSH2 0x60 PUSH1 0x0 CODECOPY PUSH1 0x0 RETURN INVALID PUSH1 0x80 PUSH1 0x40 MSTORE PUSH1 0x4 CALLDATASIZE LT PUSH2 0x4A JUMPI PUSH1 0x0 CALLDATALOAD PUSH1 0xE0 SHR DUP1 PUSH4 0xB791430 EQ PUSH2 0x4F JUMPI DUP1 PUSH4 0x1EA547ED EQ PUSH2 0x90 JUMPI DUP1 PUSH4 0xC71E7EDC EQ PUSH2 0xB9 JUMPI DUP1 PUSH4 0xDAE7A13C EQ PUSH2 0xD5 JUMPI DUP1 PUSH4 0xEE3BF803 EQ PUSH2 0x112 JUMPI JUMPDEST PUSH1 0x0 DUP1 REVERT JUMPDEST CALLVALUE DUP1 ISZERO PUSH2 0x5B JUMPI PUSH1 0x0 DUP1 REVERT JUMPDEST POP PUSH2 0x76 PUSH1 0x4 DUP1 CALLDATASIZE SUB DUP2 ADD SWAP1 PUSH2 0x71 SWAP2 SWAP1 PUSH2 0xC5D JUMP JUMPDEST PUSH2 0x12E JUMP JUMPDEST PUSH1 0x40 MLOAD PUSH2 0x87 SWAP6 SWAP5 SWAP4 SWAP3 SWAP2 SWAP1 PUSH2 0xEA2 JUMP JUMPDEST PUSH1 0x40 MLOAD DUP1 SWAP2 SUB SWAP1 RETURN JUMPDEST CALLVALUE DUP1 ISZERO PUSH2 0x9C JUMPI PUSH1 0x0 DUP1 REVERT JUMPDEST POP PUSH2 0xB7 PUSH1 0x4 DUP1 CALLDATASIZE SUB DUP2 ADD SWAP1 PUSH2 0xB2 SWAP2 SWAP1 PUSH2 0xB87 JUMP JUMPDEST PUSH2 0x21C JUMP JUMPDEST STOP JUMPDEST PUSH2 0xD3 PUSH1 0x4 DUP1 CALLDATASIZE SUB DUP2 ADD SWAP1 PUSH2 0xCE SWAP2 SWAP1 PUSH2 0xC8A JUMP JUMPDEST PUSH2 0x3F2 JUMP JUMPDEST STOP JUMPDEST CALLVALUE DUP1 ISZERO PUSH2 0xE1 JUMPI PUSH1 0x0 DUP1 REVERT JUMPDEST POP PUSH2 0xFC PUSH1 0x4 DUP1 CALLDATASIZE SUB DUP2 ADD SWAP1 PUSH2 0xF7 SWAP2 SWAP1 PUSH2 0xB47 JUMP JUMPDEST PUSH2 0x6DF JUMP JUMPDEST PUSH1 0x40 MLOAD PUSH2 0x109 SWAP2 SWAP1 PUSH2 0x105C JUMP JUMPDEST PUSH1 0x40 MLOAD DUP1 SWAP2 SUB SWAP1 RETURN JUMPDEST PUSH2 0x12C PUSH1 0x4 DUP1 CALLDATASIZE SUB DUP2 ADD SWAP1 PUSH2 0x127 SWAP2 SWAP1 PUSH2 0xBDA JUMP JUMPDEST PUSH2 0x704 JUMP JUMPDEST STOP JUMPDEST PUSH1 0x1 DUP2 DUP2 SLOAD DUP2 LT PUSH2 0x13E JUMPI PUSH1 0x0 DUP1 REVERT JUMPDEST SWAP1 PUSH1 0x0 MSTORE PUSH1 0x20 PUSH1 0x0 KECCAK256 SWAP1 PUSH1 0x5 MUL ADD PUSH1 0x0 SWAP2 POP SWAP1 POP DUP1 PUSH1 0x0 ADD PUSH1 0x0 SWAP1 SLOAD SWAP1 PUSH2 0x100 EXP SWAP1 DIV PUSH20 0xFFFFFFFFFFFFFFFFFFFFFFFFFFFFFFFFFFFFFFFF AND SWAP1 DUP1 PUSH1 0x1 ADD DUP1 SLOAD PUSH2 0x187 SWAP1 PUSH2 0x125D JUMP JUMPDEST DUP1 PUSH1 0x1F ADD PUSH1 0x20 DUP1 SWAP2 DIV MUL PUSH1 0x20 ADD PUSH1 0x40 MLOAD SWAP1 DUP2 ADD PUSH1 0x40 MSTORE DUP1 SWAP3 SWAP2 SWAP1 DUP2 DUP2 MSTORE PUSH1 0x20 ADD DUP3 DUP1 SLOAD PUSH2 0x1B3 SWAP1 PUSH2 0x125D JUMP JUMPDEST DUP1 ISZERO PUSH2 0x200 JUMPI DUP1 PUSH1 0x1F LT PUSH2 0x1D5 JUMPI PUSH2 0x100 DUP1 DUP4 SLOAD DIV MUL DUP4 MSTORE SWAP2 PUSH1 0x20 ADD SWAP2 PUSH2 0x200 JUMP JUMPDEST DUP3 ADD SWAP2 SWAP1 PUSH1 0x0 MSTORE PUSH1 0x20 PUSH1 0x0 KECCAK256 SWAP1 JUMPDEST DUP2 SLOAD DUP2 MSTORE SWAP1 PUSH1 0x1 ADD SWAP1 PUSH1 0x20 ADD DUP1 DUP4 GT PUSH2 0x1E3 JUMPI DUP3 SWAP1 SUB PUSH1 0x1F AND DUP3 ADD SWAP2 JUMPDEST POP POP POP POP POP SWAP1 DUP1 PUSH1 0x2 ADD SLOAD SWAP1 DUP1 PUSH1 0x3 ADD SLOAD SWAP1 DUP1 PUSH1 0x4 ADD SLOAD SWAP1 POP DUP6 JUMP JUMPDEST PUSH1 0x0 PUSH20 0xFFFFFFFFFFFFFFFFFFFFFFFFFFFFFFFFFFFFFFFF AND DUP4 PUSH20 0xFFFFFFFFFFFFFFFFFFFFFFFFFFFFFFFFFFFFFFFF AND EQ ISZERO PUSH2 0x28C JUMPI PUSH1 0x40 MLOAD PUSH32 0x8C379A000000000000000000000000000000000000000000000000000000000 DUP2 MSTORE PUSH1 0x4 ADD PUSH2 0x283 SWAP1 PUSH2 0xFDC JUMP JUMPDEST PUSH1 0x40 MLOAD DUP1 SWAP2 SUB SWAP1 REVERT JUMPDEST DUP1 PUSH1 0x2 PUSH1 0x0 CALLER PUSH20 0xFFFFFFFFFFFFFFFFFFFFFFFFFFFFFFFFFFFFFFFF AND PUSH20 0xFFFFFFFFFFFFFFFFFFFFFFFFFFFFFFFFFFFFFFFF AND DUP2 MSTORE PUSH1 0x20 ADD SWAP1 DUP2 MSTORE PUSH1 0x20 ADD PUSH1 0x0 KECCAK256 PUSH1 0x0 DUP5 DUP2 MSTORE PUSH1 0x20 ADD SWAP1 DUP2 MSTORE PUSH1 0x20 ADD PUSH1 0x0 KECCAK256 SLOAD LT ISZERO PUSH2 0x31F JUMPI PUSH1 0x40 MLOAD PUSH32 0x8C379A000000000000000000000000000000000000000000000000000000000 DUP2 MSTORE PUSH1 0x4 ADD PUSH2 0x316 SWAP1 PUSH2 0x101C JUMP JUMPDEST PUSH1 0x40 MLOAD DUP1 SWAP2 SUB SWAP1 REVERT JUMPDEST DUP1 PUSH1 0x2 PUSH1 0x0 CALLER PUSH20 0xFFFFFFFFFFFFFFFFFFFFFFFFFFFFFFFFFFFFFFFF AND PUSH20 0xFFFFFFFFFFFFFFFFFFFFFFFFFFFFFFFFFFFFFFFF AND DUP2 MSTORE PUSH1 0x20 ADD SWAP1 DUP2 MSTORE PUSH1 0x20 ADD PUSH1 0x0 KECCAK256 PUSH1 0x0 DUP5 DUP2 MSTORE PUSH1 0x20 ADD SWAP1 DUP2 MSTORE PUSH1 0x20 ADD PUSH1 0x0 KECCAK256 PUSH1 0x0 DUP3 DUP3 SLOAD PUSH2 0x37F SWAP2 SWAP1 PUSH2 0x1199 JUMP JUMPDEST SWAP3 POP POP DUP2 SWAP1 SSTORE POP DUP1 PUSH1 0x2 PUSH1 0x0 DUP6 PUSH20 0xFFFFFFFFFFFFFFFFFFFFFFFFFFFFFFFFFFFFFFFF AND PUSH20 0xFFFFFFFFFFFFFFFFFFFFFFFFFFFFFFFFFFFFFFFF AND DUP2 MSTORE PUSH1 0x20 ADD SWAP1 DUP2 MSTORE PUSH1 0x20 ADD PUSH1 0x0 KECCAK256 PUSH1 0x0 DUP5 DUP2 MSTORE PUSH1 0x20 ADD SWAP1 DUP2 MSTORE PUSH1 0x20 ADD PUSH1 0x0 KECCAK256 PUSH1 0x0 DUP3 DUP3 SLOAD PUSH2 0x3E6 SWAP2 SWAP1 PUSH2 0x10E9 JUMP JUMPDEST SWAP3 POP POP DUP2 SWAP1 SSTORE POP POP POP POP JUMP JUMPDEST PUSH1 0x1 DUP1 SLOAD SWAP1 POP DUP3 LT PUSH2 0x439 JUMPI PUSH1 0x40 MLOAD PUSH32 0x8C379A000000000000000000000000000000000000000000000000000000000 DUP2 MSTORE PUSH1 0x4 ADD PUSH2 0x430 SWAP1 PUSH2 0xF5C JUMP JUMPDEST PUSH1 0x40 MLOAD DUP1 SWAP2 SUB SWAP1 REVERT JUMPDEST TIMESTAMP PUSH1 0x1 DUP4 DUP2 SLOAD DUP2 LT PUSH2 0x44E JUMPI PUSH2 0x44D PUSH2 0x131E JUMP JUMPDEST JUMPDEST SWAP1 PUSH1 0x0 MSTORE PUSH1 0x20 PUSH1 0x0 KECCAK256 SWAP1 PUSH1 0x5 MUL ADD PUSH1 0x2 ADD SLOAD GT PUSH2 0x4A0 JUMPI PUSH1 0x40 MLOAD PUSH32 0x8C379A000000000000000000000000000000000000000000000000000000000 DUP2 MSTORE PUSH1 0x4 ADD PUSH2 0x497 SWAP1 PUSH2 0xFFC JUMP JUMPDEST PUSH1 0x40 MLOAD DUP1 SWAP2 SUB SWAP1 REVERT JUMPDEST PUSH1 0x0 DUP2 EQ ISZERO PUSH2 0x4E4 JUMPI PUSH1 0x40 MLOAD PUSH32 0x8C379A000000000000000000000000000000000000000000000000000000000 DUP2 MSTORE PUSH1 0x4 ADD PUSH2 0x4DB SWAP1 PUSH2 0xFBC JUMP JUMPDEST PUSH1 0x40 MLOAD DUP1 SWAP2 SUB SWAP1 REVERT JUMPDEST PUSH1 0x1 DUP3 DUP2 SLOAD DUP2 LT PUSH2 0x4F8 JUMPI PUSH2 0x4F7 PUSH2 0x131E JUMP JUMPDEST JUMPDEST SWAP1 PUSH1 0x0 MSTORE PUSH1 0x20 PUSH1 0x0 KECCAK256 SWAP1 PUSH1 0x5 MUL ADD PUSH1 0x4 ADD SLOAD DUP2 GT ISZERO PUSH2 0x54C JUMPI PUSH1 0x40 MLOAD PUSH32 0x8C379A000000000000000000000000000000000000000000000000000000000 DUP2 MSTORE PUSH1 0x4 ADD PUSH2 0x543 SWAP1 PUSH2 0x103C JUMP JUMPDEST PUSH1 0x40 MLOAD DUP1 SWAP2 SUB SWAP1 REVERT JUMPDEST DUP1 PUSH1 0x1 DUP4 DUP2 SLOAD DUP2 LT PUSH2 0x561 JUMPI PUSH2 0x560 PUSH2 0x131E JUMP JUMPDEST JUMPDEST SWAP1 PUSH1 0x0 MSTORE PUSH1 0x20 PUSH1 0x0 KECCAK256 SWAP1 PUSH1 0x5 MUL ADD PUSH1 0x3 ADD SLOAD PUSH2 0x57D SWAP2 SWAP1 PUSH2 0x113F JUMP JUMPDEST CALLVALUE EQ PUSH2 0x5BE JUMPI PUSH1 0x40 MLOAD PUSH32 0x8C379A000000000000000000000000000000000000000000000000000000000 DUP2 MSTORE PUSH1 0x4 ADD PUSH2 0x5B5 SWAP1 PUSH2 0xF9C JUMP JUMPDEST PUSH1 0x40 MLOAD DUP1 SWAP2 SUB SWAP1 REVERT JUMPDEST DUP1 PUSH1 0x2 PUSH1 0x0 CALLER PUSH20 0xFFFFFFFFFFFFFFFFFFFFFFFFFFFFFFFFFFFFFFFF AND PUSH20 0xFFFFFFFFFFFFFFFFFFFFFFFFFFFFFFFFFFFFFFFF AND DUP2 MSTORE PUSH1 0x20 ADD SWAP1 DUP2 MSTORE PUSH1 0x20 ADD PUSH1 0x0 KECCAK256 PUSH1 0x0 DUP5 DUP2 MSTORE PUSH1 0x20 ADD SWAP1 DUP2 MSTORE PUSH1 0x20 ADD PUSH1 0x0 KECCAK256 DUP2 SWAP1 SSTORE POP DUP1 PUSH1 0x1 DUP4 DUP2 SLOAD DUP2 LT PUSH2 0x628 JUMPI PUSH2 0x627 PUSH2 0x131E JUMP JUMPDEST JUMPDEST SWAP1 PUSH1 0x0 MSTORE PUSH1 0x20 PUSH1 0x0 KECCAK256 SWAP1 PUSH1 0x5 MUL ADD PUSH1 0x4 ADD PUSH1 0x0 DUP3 DUP3 SLOAD PUSH2 0x648 SWAP2 SWAP1 PUSH2 0x1199 JUMP JUMPDEST SWAP3 POP POP DUP2 SWAP1 SSTORE POP PUSH1 0x1 DUP3 DUP2 SLOAD DUP2 LT PUSH2 0x663 JUMPI PUSH2 0x662 PUSH2 0x131E JUMP JUMPDEST JUMPDEST SWAP1 PUSH1 0x0 MSTORE PUSH1 0x20 PUSH1 0x0 KECCAK256 SWAP1 PUSH1 0x5 MUL ADD PUSH1 0x0 ADD PUSH1 0x0 SWAP1 SLOAD SWAP1 PUSH2 0x100 EXP SWAP1 DIV PUSH20 0xFFFFFFFFFFFFFFFFFFFFFFFFFFFFFFFFFFFFFFFF AND PUSH20 0xFFFFFFFFFFFFFFFFFFFFFFFFFFFFFFFFFFFFFFFF AND PUSH2 0x8FC CALLVALUE SWAP1 DUP2 ISZERO MUL SWAP1 PUSH1 0x40 MLOAD PUSH1 0x0 PUSH1 0x40 MLOAD DUP1 DUP4 SUB DUP2 DUP6 DUP9 DUP9 CALL SWAP4 POP POP POP POP ISZERO DUP1 ISZERO PUSH2 0x6DA JUMPI RETURNDATASIZE PUSH1 0x0 DUP1 RETURNDATACOPY RETURNDATASIZE PUSH1 0x0 REVERT JUMPDEST POP POP POP JUMP JUMPDEST PUSH1 0x2 PUSH1 0x20 MSTORE DUP2 PUSH1 0x0 MSTORE PUSH1 0x40 PUSH1 0x0 KECCAK256 PUSH1 0x20 MSTORE DUP1 PUSH1 0x0 MSTORE PUSH1 0x40 PUSH1 0x0 KECCAK256 PUSH1 0x0 SWAP2 POP SWAP2 POP POP SLOAD DUP2 JUMP JUMPDEST PUSH1 0x0 DUP1 SLOAD SWAP1 PUSH2 0x100 EXP SWAP1 DIV PUSH20 0xFFFFFFFFFFFFFFFFFFFFFFFFFFFFFFFFFFFFFFFF AND PUSH20 0xFFFFFFFFFFFFFFFFFFFFFFFFFFFFFFFFFFFFFFFF AND CALLER PUSH20 0xFFFFFFFFFFFFFFFFFFFFFFFFFFFFFFFFFFFFFFFF AND EQ ISZERO DUP1 ISZERO PUSH2 0x78D JUMPI POP PUSH1 0x0 PUSH20 0xFFFFFFFFFFFFFFFFFFFFFFFFFFFFFFFFFFFFFFFF AND CALLER PUSH20 0xFFFFFFFFFFFFFFFFFFFFFFFFFFFFFFFFFFFFFFFF AND EQ ISZERO JUMPDEST PUSH2 0x7CC JUMPI PUSH1 0x40 MLOAD PUSH32 0x8C379A000000000000000000000000000000000000000000000000000000000 DUP2 MSTORE PUSH1 0x4 ADD PUSH2 0x7C3 SWAP1 PUSH2 0xF7C JUMP JUMPDEST PUSH1 0x40 MLOAD DUP1 SWAP2 SUB SWAP1 REVERT JUMPDEST PUSH1 0x0 DUP4 EQ ISZERO DUP1 ISZERO PUSH2 0x7DC JUMPI POP TIMESTAMP DUP4 GT JUMPDEST PUSH2 0x81B JUMPI PUSH1 0x40 MLOAD PUSH32 0x8C379A000000000000000000000000000000000000000000000000000000000 DUP2 MSTORE PUSH1 0x4 ADD PUSH2 0x812 SWAP1 PUSH2 0xF3C JUMP JUMPDEST PUSH1 0x40 MLOAD DUP1 SWAP2 SUB SWAP1 REVERT JUMPDEST PUSH1 0x0 DUP2 GT PUSH2 0x85E JUMPI PUSH1 0x40 MLOAD PUSH32 0x8C379A000000000000000000000000000000000000000000000000000000000 DUP2 MSTORE PUSH1 0x4 ADD PUSH2 0x855 SWAP1 PUSH2 0xF1C JUMP JUMPDEST PUSH1 0x40 MLOAD DUP1 SWAP2 SUB SWAP1 REVERT JUMPDEST PUSH1 0x0 DUP3 EQ PUSH2 0x8AB JUMPI PUSH2 0x3E8 CALLVALUE EQ PUSH2 0x8AA JUMPI PUSH1 0x40 MLOAD PUSH32 0x8C379A000000000000000000000000000000000000000000000000000000000 DUP2 MSTORE PUSH1 0x4 ADD PUSH2 0x8A1 SWAP1 PUSH2 0xEFC JUMP JUMPDEST PUSH1 0x40 MLOAD DUP1 SWAP2 SUB SWAP1 REVERT JUMPDEST JUMPDEST PUSH1 0x0 PUSH1 0x40 MLOAD DUP1 PUSH1 0xA0 ADD PUSH1 0x40 MSTORE DUP1 CALLER PUSH20 0xFFFFFFFFFFFFFFFFFFFFFFFFFFFFFFFFFFFFFFFF AND DUP2 MSTORE PUSH1 0x20 ADD DUP7 DUP2 MSTORE PUSH1 0x20 ADD DUP6 DUP2 MSTORE PUSH1 0x20 ADD DUP5 DUP2 MSTORE PUSH1 0x20 ADD DUP4 DUP2 MSTORE POP SWAP1 POP PUSH1 0x1 DUP2 SWAP1 DUP1 PUSH1 0x1 DUP2 SLOAD ADD DUP1 DUP3 SSTORE DUP1 SWAP2 POP POP PUSH1 0x1 SWAP1 SUB SWAP1 PUSH1 0x0 MSTORE PUSH1 0x20 PUSH1 0x0 KECCAK256 SWAP1 PUSH1 0x5 MUL ADD PUSH1 0x0 SWAP1 SWAP2 SWAP1 SWAP2 SWAP1 SWAP2 POP PUSH1 0x0 DUP3 ADD MLOAD DUP2 PUSH1 0x0 ADD PUSH1 0x0 PUSH2 0x100 EXP DUP2 SLOAD DUP2 PUSH20 0xFFFFFFFFFFFFFFFFFFFFFFFFFFFFFFFFFFFFFFFF MUL NOT AND SWAP1 DUP4 PUSH20 0xFFFFFFFFFFFFFFFFFFFFFFFFFFFFFFFFFFFFFFFF AND MUL OR SWAP1 SSTORE POP PUSH1 0x20 DUP3 ADD MLOAD DUP2 PUSH1 0x1 ADD SWAP1 DUP1 MLOAD SWAP1 PUSH1 0x20 ADD SWAP1 PUSH2 0x97B SWAP3 SWAP2 SWAP1 PUSH2 0xA0A JUMP JUMPDEST POP PUSH1 0x40 DUP3 ADD MLOAD DUP2 PUSH1 0x2 ADD SSTORE PUSH1 0x60 DUP3 ADD MLOAD DUP2 PUSH1 0x3 ADD SSTORE PUSH1 0x80 DUP3 ADD MLOAD DUP2 PUSH1 0x4 ADD SSTORE POP POP PUSH1 0x0 DUP1 SLOAD SWAP1 PUSH2 0x100 EXP SWAP1 DIV PUSH20 0xFFFFFFFFFFFFFFFFFFFFFFFFFFFFFFFFFFFFFFFF AND PUSH20 0xFFFFFFFFFFFFFFFFFFFFFFFFFFFFFFFFFFFFFFFF AND PUSH2 0x8FC CALLVALUE SWAP1 DUP2 ISZERO MUL SWAP1 PUSH1 0x40 MLOAD PUSH1 0x0 PUSH1 0x40 MLOAD DUP1 DUP4 SUB DUP2 DUP6 DUP9 DUP9 CALL SWAP4 POP POP POP POP ISZERO DUP1 ISZERO PUSH2 0xA02 JUMPI RETURNDATASIZE PUSH1 0x0 DUP1 RETURNDATACOPY RETURNDATASIZE PUSH1 0x0 REVERT JUMPDEST POP POP POP POP POP POP JUMP JUMPDEST DUP3 DUP1 SLOAD PUSH2 0xA16 SWAP1 PUSH2 0x125D JUMP JUMPDEST SWAP1 PUSH1 0x0 MSTORE PUSH1 0x20 PUSH1 0x0 KECCAK256 SWAP1 PUSH1 0x1F ADD PUSH1 0x20 SWAP1 DIV DUP2 ADD SWAP3 DUP3 PUSH2 0xA38 JUMPI PUSH1 0x0 DUP6 SSTORE PUSH2 0xA7F JUMP JUMPDEST DUP3 PUSH1 0x1F LT PUSH2 0xA51 JUMPI DUP1 MLOAD PUSH1 0xFF NOT AND DUP4 DUP1 ADD OR DUP6 SSTORE PUSH2 0xA7F JUMP JUMPDEST DUP3 DUP1 ADD PUSH1 0x1 ADD DUP6 SSTORE DUP3 ISZERO PUSH2 0xA7F JUMPI SWAP2 DUP3 ADD JUMPDEST DUP3 DUP2 GT ISZERO PUSH2 0xA7E JUMPI DUP3 MLOAD DUP3 SSTORE SWAP2 PUSH1 0x20 ADD SWAP2 SWAP1 PUSH1 0x1 ADD SWAP1 PUSH2 0xA63 JUMP JUMPDEST JUMPDEST POP SWAP1 POP PUSH2 0xA8C SWAP2 SWAP1 PUSH2 0xA90 JUMP JUMPDEST POP SWAP1 JUMP JUMPDEST JUMPDEST DUP1 DUP3 GT ISZERO PUSH2 0xAA9 JUMPI PUSH1 0x0 DUP2 PUSH1 0x0 SWAP1 SSTORE POP PUSH1 0x1 ADD PUSH2 0xA91 JUMP JUMPDEST POP SWAP1 JUMP JUMPDEST PUSH1 0x0 PUSH2 0xAC0 PUSH2 0xABB DUP5 PUSH2 0x109C JUMP JUMPDEST PUSH2 0x1077 JUMP JUMPDEST SWAP1 POP DUP3 DUP2 MSTORE PUSH1 0x20 DUP2 ADD DUP5 DUP5 DUP5 ADD GT ISZERO PUSH2 0xADC JUMPI PUSH2 0xADB PUSH2 0x1381 JUMP JUMPDEST JUMPDEST PUSH2 0xAE7 DUP5 DUP3 DUP6 PUSH2 0x121B JUMP JUMPDEST POP SWAP4 SWAP3 POP POP POP JUMP JUMPDEST PUSH1 0x0 DUP2 CALLDATALOAD SWAP1 POP PUSH2 0xAFE DUP2 PUSH2 0x166E JUMP JUMPDEST SWAP3 SWAP2 POP POP JUMP JUMPDEST PUSH1 0x0 DUP3 PUSH1 0x1F DUP4 ADD SLT PUSH2 0xB19 JUMPI PUSH2 0xB18 PUSH2 0x137C JUMP JUMPDEST JUMPDEST DUP2 CALLDATALOAD PUSH2 0xB29 DUP5 DUP3 PUSH1 0x20 DUP7 ADD PUSH2 0xAAD JUMP JUMPDEST SWAP2 POP POP SWAP3 SWAP2 POP POP JUMP JUMPDEST PUSH1 0x0 DUP2 CALLDATALOAD SWAP1 POP PUSH2 0xB41 DUP2 PUSH2 0x1685 JUMP JUMPDEST SWAP3 SWAP2 POP POP JUMP JUMPDEST PUSH1 0x0 DUP1 PUSH1 0x40 DUP4 DUP6 SUB SLT ISZERO PUSH2 0xB5E JUMPI PUSH2 0xB5D PUSH2 0x138B JUMP JUMPDEST JUMPDEST PUSH1 0x0 PUSH2 0xB6C DUP6 DUP3 DUP7 ADD PUSH2 0xAEF JUMP JUMPDEST SWAP3 POP POP PUSH1 0x20 PUSH2 0xB7D DUP6 DUP3 DUP7 ADD PUSH2 0xB32 JUMP JUMPDEST SWAP2 POP POP SWAP3 POP SWAP3 SWAP1 POP JUMP JUMPDEST PUSH1 0x0 DUP1 PUSH1 0x0 PUSH1 0x60 DUP5 DUP7 SUB SLT ISZERO PUSH2 0xBA0 JUMPI PUSH2 0xB9F PUSH2 0x138B JUMP JUMPDEST JUMPDEST PUSH1 0x0 PUSH2 0xBAE DUP7 DUP3 DUP8 ADD PUSH2 0xAEF JUMP JUMPDEST SWAP4 POP POP PUSH1 0x20 PUSH2 0xBBF DUP7 DUP3 DUP8 ADD PUSH2 0xB32 JUMP JUMPDEST SWAP3 POP POP PUSH1 0x40 PUSH2 0xBD0 DUP7 DUP3 DUP8 ADD PUSH2 0xB32 JUMP JUMPDEST SWAP2 POP POP SWAP3 POP SWAP3 POP SWAP3 JUMP JUMPDEST PUSH1 0x0 DUP1 PUSH1 0x0 DUP1 PUSH1 0x80 DUP6 DUP8 SUB SLT ISZERO PUSH2 0xBF4 JUMPI PUSH2 0xBF3 PUSH2 0x138B JUMP JUMPDEST JUMPDEST PUSH1 0x0 DUP6 ADD CALLDATALOAD PUSH8 0xFFFFFFFFFFFFFFFF DUP2 GT ISZERO PUSH2 0xC12 JUMPI PUSH2 0xC11 PUSH2 0x1386 JUMP JUMPDEST JUMPDEST PUSH2 0xC1E DUP8 DUP3 DUP9 ADD PUSH2 0xB04 JUMP JUMPDEST SWAP5 POP POP PUSH1 0x20 PUSH2 0xC2F DUP8 DUP3 DUP9 ADD PUSH2 0xB32 JUMP JUMPDEST SWAP4 POP POP PUSH1 0x40 PUSH2 0xC40 DUP8 DUP3 DUP9 ADD PUSH2 0xB32 JUMP JUMPDEST SWAP3 POP POP PUSH1 0x60 PUSH2 0xC51 DUP8 DUP3 DUP9 ADD PUSH2 0xB32 JUMP JUMPDEST SWAP2 POP POP SWAP3 SWAP6 SWAP2 SWAP5 POP SWAP3 POP JUMP JUMPDEST PUSH1 0x0 PUSH1 0x20 DUP3 DUP5 SUB SLT ISZERO PUSH2 0xC73 JUMPI PUSH2 0xC72 PUSH2 0x138B JUMP JUMPDEST JUMPDEST PUSH1 0x0 PUSH2 0xC81 DUP5 DUP3 DUP6 ADD PUSH2 0xB32 JUMP JUMPDEST SWAP2 POP POP SWAP3 SWAP2 POP POP JUMP JUMPDEST PUSH1 0x0 DUP1 PUSH1 0x40 DUP4 DUP6 SUB SLT ISZERO PUSH2 0xCA1 JUMPI PUSH2 0xCA0 PUSH2 0x138B JUMP JUMPDEST JUMPDEST PUSH1 0x0 PUSH2 0xCAF DUP6 DUP3 DUP7 ADD PUSH2 0xB32 JUMP JUMPDEST SWAP3 POP POP PUSH1 0x20 PUSH2 0xCC0 DUP6 DUP3 DUP7 ADD PUSH2 0xB32 JUMP JUMPDEST SWAP2 POP POP SWAP3 POP SWAP3 SWAP1 POP JUMP JUMPDEST PUSH2 0xCD3 DUP2 PUSH2 0x11DF JUMP JUMPDEST DUP3 MSTORE POP POP JUMP JUMPDEST PUSH1 0x0 PUSH2 0xCE4 DUP3 PUSH2 0x10CD JUMP JUMPDEST PUSH2 0xCEE DUP2 DUP6 PUSH2 0x10D8 JUMP JUMPDEST SWAP4 POP PUSH2 0xCFE DUP2 DUP6 PUSH1 0x20 DUP7 ADD PUSH2 0x122A JUMP JUMPDEST PUSH2 0xD07 DUP2 PUSH2 0x1390 JUMP JUMPDEST DUP5 ADD SWAP2 POP POP SWAP3 SWAP2 POP POP JUMP JUMPDEST PUSH1 0x0 PUSH2 0xD1F PUSH1 0x34 DUP4 PUSH2 0x10D8 JUMP JUMPDEST SWAP2 POP PUSH2 0xD2A DUP3 PUSH2 0x13A1 JUMP JUMPDEST PUSH1 0x40 DUP3 ADD SWAP1 POP SWAP2 SWAP1 POP JUMP JUMPDEST PUSH1 0x0 PUSH2 0xD42 PUSH1 0x1A DUP4 PUSH2 0x10D8 JUMP JUMPDEST SWAP2 POP PUSH2 0xD4D DUP3 PUSH2 0x13F0 JUMP JUMPDEST PUSH1 0x20 DUP3 ADD SWAP1 POP SWAP2 SWAP1 POP JUMP JUMPDEST PUSH1 0x0 PUSH2 0xD65 PUSH1 0x23 DUP4 PUSH2 0x10D8 JUMP JUMPDEST SWAP2 POP PUSH2 0xD70 DUP3 PUSH2 0x1419 JUMP JUMPDEST PUSH1 0x40 DUP3 ADD SWAP1 POP SWAP2 SWAP1 POP JUMP JUMPDEST PUSH1 0x0 PUSH2 0xD88 PUSH1 0x18 DUP4 PUSH2 0x10D8 JUMP JUMPDEST SWAP2 POP PUSH2 0xD93 DUP3 PUSH2 0x1468 JUMP JUMPDEST PUSH1 0x20 DUP3 ADD SWAP1 POP SWAP2 SWAP1 POP JUMP JUMPDEST PUSH1 0x0 PUSH2 0xDAB PUSH1 0x32 DUP4 PUSH2 0x10D8 JUMP JUMPDEST SWAP2 POP PUSH2 0xDB6 DUP3 PUSH2 0x1491 JUMP JUMPDEST PUSH1 0x40 DUP3 ADD SWAP1 POP SWAP2 SWAP1 POP JUMP JUMPDEST PUSH1 0x0 PUSH2 0xDCE PUSH1 0x24 DUP4 PUSH2 0x10D8 JUMP JUMPDEST SWAP2 POP PUSH2 0xDD9 DUP3 PUSH2 0x14E0 JUMP JUMPDEST PUSH1 0x40 DUP3 ADD SWAP1 POP SWAP2 SWAP1 POP JUMP JUMPDEST PUSH1 0x0 PUSH2 0xDF1 PUSH1 0x1A DUP4 PUSH2 0x10D8 JUMP JUMPDEST SWAP2 POP PUSH2 0xDFC DUP3 PUSH2 0x152F JUMP JUMPDEST PUSH1 0x20 DUP3 ADD SWAP1 POP SWAP2 SWAP1 POP JUMP JUMPDEST PUSH1 0x0 PUSH2 0xE14 PUSH1 0x28 DUP4 PUSH2 0x10D8 JUMP JUMPDEST SWAP2 POP PUSH2 0xE1F DUP3 PUSH2 0x1558 JUMP JUMPDEST PUSH1 0x40 DUP3 ADD SWAP1 POP SWAP2 SWAP1 POP JUMP JUMPDEST PUSH1 0x0 PUSH2 0xE37 PUSH1 0x1F DUP4 PUSH2 0x10D8 JUMP JUMPDEST SWAP2 POP PUSH2 0xE42 DUP3 PUSH2 0x15A7 JUMP JUMPDEST PUSH1 0x20 DUP3 ADD SWAP1 POP SWAP2 SWAP1 POP JUMP JUMPDEST PUSH1 0x0 PUSH2 0xE5A PUSH1 0x33 DUP4 PUSH2 0x10D8 JUMP JUMPDEST SWAP2 POP PUSH2 0xE65 DUP3 PUSH2 0x15D0 JUMP JUMPDEST PUSH1 0x40 DUP3 ADD SWAP1 POP SWAP2 SWAP1 POP JUMP JUMPDEST PUSH1 0x0 PUSH2 0xE7D PUSH1 0x28 DUP4 PUSH2 0x10D8 JUMP JUMPDEST SWAP2 POP PUSH2 0xE88 DUP3 PUSH2 0x161F JUMP JUMPDEST PUSH1 0x40 DUP3 ADD SWAP1 POP SWAP2 SWAP1 POP JUMP JUMPDEST PUSH2 0xE9C DUP2 PUSH2 0x1211 JUMP JUMPDEST DUP3 MSTORE POP POP JUMP JUMPDEST PUSH1 0x0 PUSH1 0xA0 DUP3 ADD SWAP1 POP PUSH2 0xEB7 PUSH1 0x0 DUP4 ADD DUP9 PUSH2 0xCCA JUMP JUMPDEST DUP2 DUP2 SUB PUSH1 0x20 DUP4 ADD MSTORE PUSH2 0xEC9 DUP2 DUP8 PUSH2 0xCD9 JUMP JUMPDEST SWAP1 POP PUSH2 0xED8 PUSH1 0x40 DUP4 ADD DUP7 PUSH2 0xE93 JUMP JUMPDEST PUSH2 0xEE5 PUSH1 0x60 DUP4 ADD DUP6 PUSH2 0xE93 JUMP JUMPDEST PUSH2 0xEF2 PUSH1 0x80 DUP4 ADD DUP5 PUSH2 0xE93 JUMP JUMPDEST SWAP7 SWAP6 POP POP POP POP POP POP JUMP JUMPDEST PUSH1 0x0 PUSH1 0x20 DUP3 ADD SWAP1 POP DUP2 DUP2 SUB PUSH1 0x0 DUP4 ADD MSTORE PUSH2 0xF15 DUP2 PUSH2 0xD12 JUMP JUMPDEST SWAP1 POP SWAP2 SWAP1 POP JUMP JUMPDEST PUSH1 0x0 PUSH1 0x20 DUP3 ADD SWAP1 POP DUP2 DUP2 SUB PUSH1 0x0 DUP4 ADD MSTORE PUSH2 0xF35 DUP2 PUSH2 0xD35 JUMP JUMPDEST SWAP1 POP SWAP2 SWAP1 POP JUMP JUMPDEST PUSH1 0x0 PUSH1 0x20 DUP3 ADD SWAP1 POP DUP2 DUP2 SUB PUSH1 0x0 DUP4 ADD MSTORE PUSH2 0xF55 DUP2 PUSH2 0xD58 JUMP JUMPDEST SWAP1 POP SWAP2 SWAP1 POP JUMP JUMPDEST PUSH1 0x0 PUSH1 0x20 DUP3 ADD SWAP1 POP DUP2 DUP2 SUB PUSH1 0x0 DUP4 ADD MSTORE PUSH2 0xF75 DUP2 PUSH2 0xD7B JUMP JUMPDEST SWAP1 POP SWAP2 SWAP1 POP JUMP JUMPDEST PUSH1 0x0 PUSH1 0x20 DUP3 ADD SWAP1 POP DUP2 DUP2 SUB PUSH1 0x0 DUP4 ADD MSTORE PUSH2 0xF95 DUP2 PUSH2 0xD9E JUMP JUMPDEST SWAP1 POP SWAP2 SWAP1 POP JUMP JUMPDEST PUSH1 0x0 PUSH1 0x20 DUP3 ADD SWAP1 POP DUP2 DUP2 SUB PUSH1 0x0 DUP4 ADD MSTORE PUSH2 0xFB5 DUP2 PUSH2 0xDC1 JUMP JUMPDEST SWAP1 POP SWAP2 SWAP1 POP JUMP JUMPDEST PUSH1 0x0 PUSH1 0x20 DUP3 ADD SWAP1 POP DUP2 DUP2 SUB PUSH1 0x0 DUP4 ADD MSTORE PUSH2 0xFD5 DUP2 PUSH2 0xDE4 JUMP JUMPDEST SWAP1 POP SWAP2 SWAP1 POP JUMP JUMPDEST PUSH1 0x0 PUSH1 0x20 DUP3 ADD SWAP1 POP DUP2 DUP2 SUB PUSH1 0x0 DUP4 ADD MSTORE PUSH2 0xFF5 DUP2 PUSH2 0xE07 JUMP JUMPDEST SWAP1 POP SWAP2 SWAP1 POP JUMP JUMPDEST PUSH1 0x0 PUSH1 0x20 DUP3 ADD SWAP1 POP DUP2 DUP2 SUB PUSH1 0x0 DUP4 ADD MSTORE PUSH2 0x1015 DUP2 PUSH2 0xE2A JUMP JUMPDEST SWAP1 POP SWAP2 SWAP1 POP JUMP JUMPDEST PUSH1 0x0 PUSH1 0x20 DUP3 ADD SWAP1 POP DUP2 DUP2 SUB PUSH1 0x0 DUP4 ADD MSTORE PUSH2 0x1035 DUP2 PUSH2 0xE4D JUMP JUMPDEST SWAP1 POP SWAP2 SWAP1 POP JUMP JUMPDEST PUSH1 0x0 PUSH1 0x20 DUP3 ADD SWAP1 POP DUP2 DUP2 SUB PUSH1 0x0 DUP4 ADD MSTORE PUSH2 0x1055 DUP2 PUSH2 0xE70 JUMP JUMPDEST SWAP1 POP SWAP2 SWAP1 POP JUMP JUMPDEST PUSH1 0x0 PUSH1 0x20 DUP3 ADD SWAP1 POP PUSH2 0x1071 PUSH1 0x0 DUP4 ADD DUP5 PUSH2 0xE93 JUMP JUMPDEST SWAP3 SWAP2 POP POP JUMP JUMPDEST PUSH1 0x0 PUSH2 0x1081 PUSH2 0x1092 JUMP JUMPDEST SWAP1 POP PUSH2 0x108D DUP3 DUP3 PUSH2 0x128F JUMP JUMPDEST SWAP2 SWAP1 POP JUMP JUMPDEST PUSH1 0x0 PUSH1 0x40 MLOAD SWAP1 POP SWAP1 JUMP JUMPDEST PUSH1 0x0 PUSH8 0xFFFFFFFFFFFFFFFF DUP3 GT ISZERO PUSH2 0x10B7 JUMPI PUSH2 0x10B6 PUSH2 0x134D JUMP JUMPDEST JUMPDEST PUSH2 0x10C0 DUP3 PUSH2 0x1390 JUMP JUMPDEST SWAP1 POP PUSH1 0x20 DUP2 ADD SWAP1 POP SWAP2 SWAP1 POP JUMP JUMPDEST PUSH1 0x0 DUP2 MLOAD SWAP1 POP SWAP2 SWAP1 POP JUMP JUMPDEST PUSH1 0x0 DUP3 DUP3 MSTORE PUSH1 0x20 DUP3 ADD SWAP1 POP SWAP3 SWAP2 POP POP JUMP JUMPDEST PUSH1 0x0 PUSH2 0x10F4 DUP3 PUSH2 0x1211 JUMP JUMPDEST SWAP2 POP PUSH2 0x10FF DUP4 PUSH2 0x1211 JUMP JUMPDEST SWAP3 POP DUP3 PUSH32 0xFFFFFFFFFFFFFFFFFFFFFFFFFFFFFFFFFFFFFFFFFFFFFFFFFFFFFFFFFFFFFFFF SUB DUP3 GT ISZERO PUSH2 0x1134 JUMPI PUSH2 0x1133 PUSH2 0x12C0 JUMP JUMPDEST JUMPDEST DUP3 DUP3 ADD SWAP1 POP SWAP3 SWAP2 POP POP JUMP JUMPDEST PUSH1 0x0 PUSH2 0x114A DUP3 PUSH2 0x1211 JUMP JUMPDEST SWAP2 POP PUSH2 0x1155 DUP4 PUSH2 0x1211 JUMP JUMPDEST SWAP3 POP DUP2 PUSH32 0xFFFFFFFFFFFFFFFFFFFFFFFFFFFFFFFFFFFFFFFFFFFFFFFFFFFFFFFFFFFFFFFF DIV DUP4 GT DUP3 ISZERO ISZERO AND ISZERO PUSH2 0x118E JUMPI PUSH2 0x118D PUSH2 0x12C0 JUMP JUMPDEST JUMPDEST DUP3 DUP3 MUL SWAP1 POP SWAP3 SWAP2 POP POP JUMP JUMPDEST PUSH1 0x0 PUSH2 0x11A4 DUP3 PUSH2 0x1211 JUMP JUMPDEST SWAP2 POP PUSH2 0x11AF DUP4 PUSH2 0x1211 JUMP JUMPDEST SWAP3 POP DUP3 DUP3 LT ISZERO PUSH2 0x11C2 JUMPI PUSH2 0x11C1 PUSH2 0x12C0 JUMP JUMPDEST JUMPDEST DUP3 DUP3 SUB SWAP1 POP SWAP3 SWAP2 POP POP JUMP JUMPDEST PUSH1 0x0 PUSH2 0x11D8 DUP3 PUSH2 0x11F1 JUMP JUMPDEST SWAP1 POP SWAP2 SWAP1 POP JUMP JUMPDEST PUSH1 0x0 PUSH2 0x11EA DUP3 PUSH2 0x11F1 JUMP JUMPDEST SWAP1 POP SWAP2 SWAP1 POP JUMP JUMPDEST PUSH1 0x0 PUSH20 0xFFFFFFFFFFFFFFFFFFFFFFFFFFFFFFFFFFFFFFFF DUP3 AND SWAP1 POP SWAP2 SWAP1 POP JUMP JUMPDEST PUSH1 0x0 DUP2 SWAP1 POP SWAP2 SWAP1 POP JUMP JUMPDEST DUP3 DUP2 DUP4 CALLDATACOPY PUSH1 0x0 DUP4 DUP4 ADD MSTORE POP POP POP JUMP JUMPDEST PUSH1 0x0 JUMPDEST DUP4 DUP2 LT ISZERO PUSH2 0x1248 JUMPI DUP1 DUP3 ADD MLOAD DUP2 DUP5 ADD MSTORE PUSH1 0x20 DUP2 ADD SWAP1 POP PUSH2 0x122D JUMP JUMPDEST DUP4 DUP2 GT ISZERO PUSH2 0x1257 JUMPI PUSH1 0x0 DUP5 DUP5 ADD MSTORE JUMPDEST POP POP POP POP JUMP JUMPDEST PUSH1 0x0 PUSH1 0x2 DUP3 DIV SWAP1 POP PUSH1 0x1 DUP3 AND DUP1 PUSH2 0x1275 JUMPI PUSH1 0x7F DUP3 AND SWAP2 POP JUMPDEST PUSH1 0x20 DUP3 LT DUP2 EQ ISZERO PUSH2 0x1289 JUMPI PUSH2 0x1288 PUSH2 0x12EF JUMP JUMPDEST JUMPDEST POP SWAP2 SWAP1 POP JUMP JUMPDEST PUSH2 0x1298 DUP3 PUSH2 0x1390 JUMP JUMPDEST DUP2 ADD DUP2 DUP2 LT PUSH8 0xFFFFFFFFFFFFFFFF DUP3 GT OR ISZERO PUSH2 0x12B7 JUMPI PUSH2 0x12B6 PUSH2 0x134D JUMP JUMPDEST JUMPDEST DUP1 PUSH1 0x40 MSTORE POP POP POP JUMP JUMPDEST PUSH32 0x4E487B7100000000000000000000000000000000000000000000000000000000 PUSH1 0x0 MSTORE PUSH1 0x11 PUSH1 0x4 MSTORE PUSH1 0x24 PUSH1 0x0 REVERT JUMPDEST PUSH32 0x4E487B7100000000000000000000000000000000000000000000000000000000 PUSH1 0x0 MSTORE PUSH1 0x22 PUSH1 0x4 MSTORE PUSH1 0x24 PUSH1 0x0 REVERT JUMPDEST PUSH32 0x4E487B7100000000000000000000000000000000000000000000000000000000 PUSH1 0x0 MSTORE PUSH1 0x32 PUSH1 0x4 MSTORE PUSH1 0x24 PUSH1 0x0 REVERT JUMPDEST PUSH32 0x4E487B7100000000000000000000000000000000000000000000000000000000 PUSH1 0x0 MSTORE PUSH1 0x41 PUSH1 0x4 MSTORE PUSH1 0x24 PUSH1 0x0 REVERT JUMPDEST PUSH1 0x0 DUP1 REVERT JUMPDEST PUSH1 0x0 DUP1 REVERT JUMPDEST PUSH1 0x0 DUP1 REVERT JUMPDEST PUSH1 0x0 DUP1 REVERT JUMPDEST PUSH1 0x0 PUSH1 0x1F NOT PUSH1 0x1F DUP4 ADD AND SWAP1 POP SWAP2 SWAP1 POP JUMP JUMPDEST PUSH32 0x506C65617365207061792073756666696369656E742066756E6420666F72206F PUSH1 0x0 DUP3 ADD MSTORE PUSH32 0x7267616E697A696E6720796F7572206576656E74000000000000000000000000 PUSH1 0x20 DUP3 ADD MSTORE POP JUMP JUMPDEST PUSH32 0x506C656173652063726561746520736F6D65207469636B657473000000000000 PUSH1 0x0 DUP3 ADD MSTORE POP JUMP JUMPDEST PUSH32 0x506C6561736520656E74657220612076616C6964206461746520696E20667574 PUSH1 0x0 DUP3 ADD MSTORE PUSH32 0x7572650000000000000000000000000000000000000000000000000000000000 PUSH1 0x20 DUP3 ADD MSTORE POP JUMP JUMPDEST PUSH32 0x4E6F206576656E7473206F6E207468697320696E6465782E0000000000000000 PUSH1 0x0 DUP3 ADD MSTORE POP JUMP JUMPDEST PUSH32 0x456E74657220612076616C69642061646472657373206F72206F776E65722063 PUSH1 0x0 DUP3 ADD MSTORE PUSH32 0x616E277420686F737420616E206576656E740000000000000000000000000000 PUSH1 0x20 DUP3 ADD MSTORE POP JUMP JUMPDEST PUSH32 0x5472616E736163742073756666696369656E742066756E6420666F7220746963 PUSH1 0x0 DUP3 ADD MSTORE PUSH32 0x6B65747300000000000000000000000000000000000000000000000000000000 PUSH1 0x20 DUP3 ADD MSTORE POP JUMP JUMPDEST PUSH32 0x506C656173652073656C65637420736F6D65207469636B657473000000000000 PUSH1 0x0 DUP3 ADD MSTORE POP JUMP JUMPDEST PUSH32 0x506C6561736520656E74657220612076616C69642061646472657373206F6620 PUSH1 0x0 DUP3 ADD MSTORE PUSH32 0x7265636569766572000000000000000000000000000000000000000000000000 PUSH1 0x20 DUP3 ADD MSTORE POP JUMP JUMPDEST PUSH32 0x536F72727920746869732073686F7720616C72656164792066696E7368656400 PUSH1 0x0 DUP3 ADD MSTORE POP JUMP JUMPDEST PUSH32 0x596F7520646F6E2774206861766520656E6F75676874207469636B6574206F66 PUSH1 0x0 DUP3 ADD MSTORE PUSH32 0x2074686973206576656E7420746F2073656E6400000000000000000000000000 PUSH1 0x20 DUP3 ADD MSTORE POP JUMP JUMPDEST PUSH32 0x536F727279206E6F206D6F7265207469636B6574206C65667420666F72207468 PUSH1 0x0 DUP3 ADD MSTORE PUSH32 0x6973206576656E74000000000000000000000000000000000000000000000000 PUSH1 0x20 DUP3 ADD MSTORE POP JUMP JUMPDEST PUSH2 0x1677 DUP2 PUSH2 0x11CD JUMP JUMPDEST DUP2 EQ PUSH2 0x1682 JUMPI PUSH1 0x0 DUP1 REVERT JUMPDEST POP JUMP JUMPDEST PUSH2 0x168E DUP2 PUSH2 0x1211 JUMP JUMPDEST DUP2 EQ PUSH2 0x1699 JUMPI PUSH1 0x0 DUP1 REVERT JUMPDEST POP JUMP INVALID LOG2 PUSH5 0x6970667358 0x22 SLT KECCAK256 0xE6 0x4E 0xC9 0xCF 0xD9 MSIZE CHAINID CREATE 0xB9 DUP7 0xF8 PUSH1 0x4B COINBASE 0xED LOG0 0x2D 0xD0 0xBF PUSH23 0x536D3A9CC6438A46A66A2F8A64736F6C63430008070033 "
		},
		"gasEstimates": {
			"creation": {
				"codeDepositCost": "1168400",
				"executionCost": "25480",
				"totalCost": "1193880"
			},
			"external": {
				"buy_ticket(uint256,uint256)": "infinite",
				"create_event(string,uint256,uint256,uint256)": "infinite",
				"events(uint256)": "infinite",
				"send_ticket(address,uint256,uint256)": "infinite",
				"tickets(address,uint256)": "infinite"
			}
		},
		"methodIdentifiers": {
			"buy_ticket(uint256,uint256)": "c71e7edc",
			"create_event(string,uint256,uint256,uint256)": "ee3bf803",
			"events(uint256)": "0b791430",
			"send_ticket(address,uint256,uint256)": "1ea547ed",
			"tickets(address,uint256)": "dae7a13c"
		}
	},
	"abi": [
		{
			"inputs": [],
			"stateMutability": "nonpayable",
			"type": "constructor"
		},
		{
			"inputs": [
				{
					"internalType": "uint256",
					"name": "_event_index",
					"type": "uint256"
				},
				{
					"internalType": "uint256",
					"name": "_ticket_quantity",
					"type": "uint256"
				}
			],
			"name": "buy_ticket",
			"outputs": [],
			"stateMutability": "payable",
			"type": "function"
		},
		{
			"inputs": [
				{
					"internalType": "string",
					"name": "_event_name",
					"type": "string"
				},
				{
					"internalType": "uint256",
					"name": "_event_date",
					"type": "uint256"
				},
				{
					"internalType": "uint256",
					"name": "_ticket_price",
					"type": "uint256"
				},
				{
					"internalType": "uint256",
					"name": "_ticket_count",
					"type": "uint256"
				}
			],
			"name": "create_event",
			"outputs": [],
			"stateMutability": "payable",
			"type": "function"
		},
		{
			"inputs": [
				{
					"internalType": "uint256",
					"name": "",
					"type": "uint256"
				}
			],
			"name": "events",
			"outputs": [
				{
					"internalType": "address payable",
					"name": "organizer",
					"type": "address"
				},
				{
					"internalType": "string",
					"name": "event_name",
					"type": "string"
				},
				{
					"internalType": "uint256",
					"name": "event_date",
					"type": "uint256"
				},
				{
					"internalType": "uint256",
					"name": "ticket_price",
					"type": "uint256"
				},
				{
					"internalType": "uint256",
					"name": "ticket_count",
					"type": "uint256"
				}
			],
			"stateMutability": "view",
			"type": "function"
		},
		{
			"inputs": [
				{
					"internalType": "address",
					"name": "_receiver",
					"type": "address"
				},
				{
					"internalType": "uint256",
					"name": "_event_index",
					"type": "uint256"
				},
				{
					"internalType": "uint256",
					"name": "_ticket_quantity",
					"type": "uint256"
				}
			],
			"name": "send_ticket",
			"outputs": [],
			"stateMutability": "nonpayable",
			"type": "function"
		},
		{
			"inputs": [
				{
					"internalType": "address",
					"name": "",
					"type": "address"
				},
				{
					"internalType": "uint256",
					"name": "",
					"type": "uint256"
				}
			],
			"name": "tickets",
			"outputs": [
				{
					"internalType": "uint256",
					"name": "",
					"type": "uint256"
				}
			],
			"stateMutability": "view",
			"type": "function"
		}
	]
}