{
	"Learning_Concepts/18_payable_function.sol": {
		"Pay": {
			"abi": [
				{
					"inputs": [],
					"name": "contract_balance",
					"outputs": [
						{
							"internalType": "uint256",
							"name": "",
							"type": "uint256"
						}
					],
					"stateMutability": "view",
					"type": "function"
				},
				{
					"inputs": [],
					"name": "get_ether",
					"outputs": [],
					"stateMutability": "payable",
					"type": "function"
				},
				{
					"inputs": [],
					"name": "show_balance",
					"outputs": [
						{
							"internalType": "uint256",
							"name": "",
							"type": "uint256"
						}
					],
					"stateMutability": "view",
					"type": "function"
				}
			],
			"devdoc": {
				"kind": "dev",
				"methods": {},
				"version": 1
			},
			"evm": {
				"assembly": "    /* \"Learning_Concepts/18_payable_function.sol\":75:365  contract Pay {\r... */\n  mstore(0x40, 0x80)\n    /* \"Learning_Concepts/18_payable_function.sol\":184:205  address(this).balance */\n  selfbalance\n    /* \"Learning_Concepts/18_payable_function.sol\":153:205  uint public contract_balance = address(this).balance */\n  0x00\n  sstore\n    /* \"Learning_Concepts/18_payable_function.sol\":75:365  contract Pay {\r... */\n  callvalue\n  dup1\n  iszero\n  tag_1\n  jumpi\n  0x00\n  dup1\n  revert\ntag_1:\n  pop\n  dataSize(sub_0)\n  dup1\n  dataOffset(sub_0)\n  0x00\n  codecopy\n  0x00\n  return\nstop\n\nsub_0: assembly {\n        /* \"Learning_Concepts/18_payable_function.sol\":75:365  contract Pay {\r... */\n      mstore(0x40, 0x80)\n      jumpi(tag_1, lt(calldatasize, 0x04))\n      shr(0xe0, calldataload(0x00))\n      dup1\n      0x057440d3\n      eq\n      tag_2\n      jumpi\n      dup1\n      0x946d0149\n      eq\n      tag_3\n      jumpi\n      dup1\n      0xfe5782cf\n      eq\n      tag_4\n      jumpi\n    tag_1:\n      0x00\n      dup1\n      revert\n        /* \"Learning_Concepts/18_payable_function.sol\":153:205  uint public contract_balance = address(this).balance */\n    tag_2:\n      callvalue\n      dup1\n      iszero\n      tag_5\n      jumpi\n      0x00\n      dup1\n      revert\n    tag_5:\n      pop\n      tag_6\n      tag_7\n      jump\t// in\n    tag_6:\n      mload(0x40)\n      tag_8\n      swap2\n      swap1\n      tag_9\n      jump\t// in\n    tag_8:\n      mload(0x40)\n      dup1\n      swap2\n      sub\n      swap1\n      return\n        /* \"Learning_Concepts/18_payable_function.sol\":213:310  function show_balance() public view returns(uint) {\r... */\n    tag_3:\n      callvalue\n      dup1\n      iszero\n      tag_10\n      jumpi\n      0x00\n      dup1\n      revert\n    tag_10:\n      pop\n      tag_11\n      tag_12\n      jump\t// in\n    tag_11:\n      mload(0x40)\n      tag_13\n      swap2\n      swap1\n      tag_9\n      jump\t// in\n    tag_13:\n      mload(0x40)\n      dup1\n      swap2\n      sub\n      swap1\n      return\n        /* \"Learning_Concepts/18_payable_function.sol\":316:354  function get_ether() public payable {} */\n    tag_4:\n      tag_14\n      tag_15\n      jump\t// in\n    tag_14:\n      stop\n        /* \"Learning_Concepts/18_payable_function.sol\":153:205  uint public contract_balance = address(this).balance */\n    tag_7:\n      sload(0x00)\n      dup2\n      jump\t// out\n        /* \"Learning_Concepts/18_payable_function.sol\":213:310  function show_balance() public view returns(uint) {\r... */\n    tag_12:\n        /* \"Learning_Concepts/18_payable_function.sol\":257:261  uint */\n      0x00\n        /* \"Learning_Concepts/18_payable_function.sol\":281:302  address(this).balance */\n      selfbalance\n        /* \"Learning_Concepts/18_payable_function.sol\":274:302  return address(this).balance */\n      swap1\n      pop\n        /* \"Learning_Concepts/18_payable_function.sol\":213:310  function show_balance() public view returns(uint) {\r... */\n      swap1\n      jump\t// out\n        /* \"Learning_Concepts/18_payable_function.sol\":316:354  function get_ether() public payable {} */\n    tag_15:\n      jump\t// out\n        /* \"#utility.yul\":7:125   */\n    tag_19:\n        /* \"#utility.yul\":94:118   */\n      tag_21\n        /* \"#utility.yul\":112:117   */\n      dup2\n        /* \"#utility.yul\":94:118   */\n      tag_22\n      jump\t// in\n    tag_21:\n        /* \"#utility.yul\":89:92   */\n      dup3\n        /* \"#utility.yul\":82:119   */\n      mstore\n        /* \"#utility.yul\":7:125   */\n      pop\n      pop\n      jump\t// out\n        /* \"#utility.yul\":131:353   */\n    tag_9:\n        /* \"#utility.yul\":224:228   */\n      0x00\n        /* \"#utility.yul\":262:264   */\n      0x20\n        /* \"#utility.yul\":251:260   */\n      dup3\n        /* \"#utility.yul\":247:265   */\n      add\n        /* \"#utility.yul\":239:265   */\n      swap1\n      pop\n        /* \"#utility.yul\":275:346   */\n      tag_24\n        /* \"#utility.yul\":343:344   */\n      0x00\n        /* \"#utility.yul\":332:341   */\n      dup4\n        /* \"#utility.yul\":328:345   */\n      add\n        /* \"#utility.yul\":319:325   */\n      dup5\n        /* \"#utility.yul\":275:346   */\n      tag_19\n      jump\t// in\n    tag_24:\n        /* \"#utility.yul\":131:353   */\n      swap3\n      swap2\n      pop\n      pop\n      jump\t// out\n        /* \"#utility.yul\":359:436   */\n    tag_22:\n        /* \"#utility.yul\":396:403   */\n      0x00\n        /* \"#utility.yul\":425:430   */\n      dup2\n        /* \"#utility.yul\":414:430   */\n      swap1\n      pop\n        /* \"#utility.yul\":359:436   */\n      swap2\n      swap1\n      pop\n      jump\t// out\n\n    auxdata: 0xa26469706673582212200d8fe757759e55da7345a4cf0488cdbe656a5cdee11f6cece57fba0cd1de7a2364736f6c63430008070033\n}\n",
				"bytecode": {
					"linkReferences": {},
					"object": "60806040524760005534801561001457600080fd5b5060ff806100236000396000f3fe60806040526004361060305760003560e01c8063057440d3146035578063946d014914605b578063fe5782cf146081575b600080fd5b348015604057600080fd5b5060476089565b6040516052919060a6565b60405180910390f35b348015606657600080fd5b50606d608f565b6040516078919060a6565b60405180910390f35b60876097565b005b60005481565b600047905090565b565b60a08160bf565b82525050565b600060208201905060b960008301846099565b92915050565b600081905091905056fea26469706673582212200d8fe757759e55da7345a4cf0488cdbe656a5cdee11f6cece57fba0cd1de7a2364736f6c63430008070033",
					"opcodes": "PUSH1 0x80 PUSH1 0x40 MSTORE SELFBALANCE PUSH1 0x0 SSTORE CALLVALUE DUP1 ISZERO PUSH2 0x14 JUMPI PUSH1 0x0 DUP1 REVERT JUMPDEST POP PUSH1 0xFF DUP1 PUSH2 0x23 PUSH1 0x0 CODECOPY PUSH1 0x0 RETURN INVALID PUSH1 0x80 PUSH1 0x40 MSTORE PUSH1 0x4 CALLDATASIZE LT PUSH1 0x30 JUMPI PUSH1 0x0 CALLDATALOAD PUSH1 0xE0 SHR DUP1 PUSH4 0x57440D3 EQ PUSH1 0x35 JUMPI DUP1 PUSH4 0x946D0149 EQ PUSH1 0x5B JUMPI DUP1 PUSH4 0xFE5782CF EQ PUSH1 0x81 JUMPI JUMPDEST PUSH1 0x0 DUP1 REVERT JUMPDEST CALLVALUE DUP1 ISZERO PUSH1 0x40 JUMPI PUSH1 0x0 DUP1 REVERT JUMPDEST POP PUSH1 0x47 PUSH1 0x89 JUMP JUMPDEST PUSH1 0x40 MLOAD PUSH1 0x52 SWAP2 SWAP1 PUSH1 0xA6 JUMP JUMPDEST PUSH1 0x40 MLOAD DUP1 SWAP2 SUB SWAP1 RETURN JUMPDEST CALLVALUE DUP1 ISZERO PUSH1 0x66 JUMPI PUSH1 0x0 DUP1 REVERT JUMPDEST POP PUSH1 0x6D PUSH1 0x8F JUMP JUMPDEST PUSH1 0x40 MLOAD PUSH1 0x78 SWAP2 SWAP1 PUSH1 0xA6 JUMP JUMPDEST PUSH1 0x40 MLOAD DUP1 SWAP2 SUB SWAP1 RETURN JUMPDEST PUSH1 0x87 PUSH1 0x97 JUMP JUMPDEST STOP JUMPDEST PUSH1 0x0 SLOAD DUP2 JUMP JUMPDEST PUSH1 0x0 SELFBALANCE SWAP1 POP SWAP1 JUMP JUMPDEST JUMP JUMPDEST PUSH1 0xA0 DUP2 PUSH1 0xBF JUMP JUMPDEST DUP3 MSTORE POP POP JUMP JUMPDEST PUSH1 0x0 PUSH1 0x20 DUP3 ADD SWAP1 POP PUSH1 0xB9 PUSH1 0x0 DUP4 ADD DUP5 PUSH1 0x99 JUMP JUMPDEST SWAP3 SWAP2 POP POP JUMP JUMPDEST PUSH1 0x0 DUP2 SWAP1 POP SWAP2 SWAP1 POP JUMP INVALID LOG2 PUSH5 0x6970667358 0x22 SLT KECCAK256 0xD DUP16 0xE7 JUMPI PUSH22 0x9E55DA7345A4CF0488CDBE656A5CDEE11F6CECE57FBA 0xC 0xD1 0xDE PUSH27 0x2364736F6C63430008070033000000000000000000000000000000 "
				},
				"gasEstimates": {
					"creation": {
						"codeDepositCost": "51000",
						"executionCost": "22207",
						"totalCost": "73207"
					},
					"external": {
						"contract_balance()": "2407",
						"get_ether()": "142",
						"show_balance()": "339"
					}
				},
				"methodIdentifiers": {
					"contract_balance()": "057440d3",
					"get_ether()": "fe5782cf",
					"show_balance()": "946d0149"
				}
			},
			"storageLayout": {
				"storage": [
					{
						"astId": 8,
						"contract": "Learning_Concepts/18_payable_function.sol:Pay",
						"label": "contract_balance",
						"offset": 0,
						"slot": "0",
						"type": "t_uint256"
					}
				],
				"types": {
					"t_uint256": {
						"encoding": "inplace",
						"label": "uint256",
						"numberOfBytes": "32"
					}
				}
			},
			"userdoc": {
				"kind": "user",
				"methods": {},
				"version": 1
			}
		}
	}
}