{
	"Learning_Concepts/15_enum.sol": {
		"Lottery": {
			"abi": [
				{
					"inputs": [],
					"name": "lottery_result",
					"outputs": [],
					"stateMutability": "nonpayable",
					"type": "function"
				}
			],
			"devdoc": {
				"kind": "dev",
				"methods": {},
				"version": 1
			},
			"evm": {
				"assembly": "    /* \"Learning_Concepts/15_enum.sol\":75:335  contract Lottery {\r... */\n  mstore(0x40, 0x80)\n    /* \"Learning_Concepts/15_enum.sol\":121:124  100 */\n  0x64\n    /* \"Learning_Concepts/15_enum.sol\":99:124  uint lottery_amount = 100 */\n  0x00\n  sstore\n    /* \"Learning_Concepts/15_enum.sol\":145:146  0 */\n  0x00\n    /* \"Learning_Concepts/15_enum.sol\":131:146  uint user_1 = 0 */\n  0x01\n  sstore\n    /* \"Learning_Concepts/15_enum.sol\":75:335  contract Lottery {\r... */\n  callvalue\n  dup1\n  iszero\n  tag_1\n  jumpi\n  0x00\n  dup1\n  revert\ntag_1:\n  pop\n  dataSize(sub_0)\n  dup1\n  dataOffset(sub_0)\n  0x00\n  codecopy\n  0x00\n  return\nstop\n\nsub_0: assembly {\n        /* \"Learning_Concepts/15_enum.sol\":75:335  contract Lottery {\r... */\n      mstore(0x40, 0x80)\n      callvalue\n      dup1\n      iszero\n      tag_1\n      jumpi\n      0x00\n      dup1\n      revert\n    tag_1:\n      pop\n      jumpi(tag_2, lt(calldatasize, 0x04))\n      shr(0xe0, calldataload(0x00))\n      dup1\n      0x10cb4c7c\n      eq\n      tag_3\n      jumpi\n    tag_2:\n      0x00\n      dup1\n      revert\n        /* \"Learning_Concepts/15_enum.sol\":155:332  function lottery_result() public {\r... */\n    tag_3:\n      tag_4\n      tag_5\n      jump\t// in\n    tag_4:\n      stop\n    tag_5:\n        /* \"Learning_Concepts/15_enum.sol\":213:214  0 */\n      0x00\n        /* \"Learning_Concepts/15_enum.sol\":203:209  user_1 */\n      sload(0x01)\n        /* \"Learning_Concepts/15_enum.sol\":203:214  user_1 == 0 */\n      eq\n        /* \"Learning_Concepts/15_enum.sol\":199:324  if (user_1 == 0) {\r... */\n      iszero\n      tag_7\n      jumpi\n        /* \"Learning_Concepts/15_enum.sol\":276:277  0 */\n      0x00\n        /* \"Learning_Concepts/15_enum.sol\":259:273  lottery_amount */\n      dup1\n        /* \"Learning_Concepts/15_enum.sol\":259:277  lottery_amount = 0 */\n      dup2\n      swap1\n      sstore\n      pop\n        /* \"Learning_Concepts/15_enum.sol\":199:324  if (user_1 == 0) {\r... */\n    tag_7:\n        /* \"Learning_Concepts/15_enum.sol\":155:332  function lottery_result() public {\r... */\n      jump\t// out\n\n    auxdata: 0xa26469706673582212207e41d3cbf0b137cfe134eb84fdb650f2b5476afda14e6e08bf405258fd238b9064736f6c63430008070033\n}\n",
				"bytecode": {
					"linkReferences": {},
					"object": "608060405260646000556000600155348015601957600080fd5b50607f806100286000396000f3fe6080604052348015600f57600080fd5b506004361060285760003560e01c806310cb4c7c14602d575b600080fd5b60336035565b005b60006001541415604757600080819055505b56fea26469706673582212207e41d3cbf0b137cfe134eb84fdb650f2b5476afda14e6e08bf405258fd238b9064736f6c63430008070033",
					"opcodes": "PUSH1 0x80 PUSH1 0x40 MSTORE PUSH1 0x64 PUSH1 0x0 SSTORE PUSH1 0x0 PUSH1 0x1 SSTORE CALLVALUE DUP1 ISZERO PUSH1 0x19 JUMPI PUSH1 0x0 DUP1 REVERT JUMPDEST POP PUSH1 0x7F DUP1 PUSH2 0x28 PUSH1 0x0 CODECOPY PUSH1 0x0 RETURN INVALID PUSH1 0x80 PUSH1 0x40 MSTORE CALLVALUE DUP1 ISZERO PUSH1 0xF JUMPI PUSH1 0x0 DUP1 REVERT JUMPDEST POP PUSH1 0x4 CALLDATASIZE LT PUSH1 0x28 JUMPI PUSH1 0x0 CALLDATALOAD PUSH1 0xE0 SHR DUP1 PUSH4 0x10CB4C7C EQ PUSH1 0x2D JUMPI JUMPDEST PUSH1 0x0 DUP1 REVERT JUMPDEST PUSH1 0x33 PUSH1 0x35 JUMP JUMPDEST STOP JUMPDEST PUSH1 0x0 PUSH1 0x1 SLOAD EQ ISZERO PUSH1 0x47 JUMPI PUSH1 0x0 DUP1 DUP2 SWAP1 SSTORE POP JUMPDEST JUMP INVALID LOG2 PUSH5 0x6970667358 0x22 SLT KECCAK256 PUSH31 0x41D3CBF0B137CFE134EB84FDB650F2B5476AFDA14E6E08BF405258FD238B90 PUSH5 0x736F6C6343 STOP ADDMOD SMOD STOP CALLER "
				},
				"gasEstimates": {
					"creation": {
						"codeDepositCost": "25400",
						"executionCost": "27187",
						"totalCost": "52587"
					},
					"external": {
						"lottery_result()": "7262"
					}
				},
				"methodIdentifiers": {
					"lottery_result()": "10cb4c7c"
				}
			},
			"storageLayout": {
				"storage": [
					{
						"astId": 4,
						"contract": "Learning_Concepts/15_enum.sol:Lottery",
						"label": "lottery_amount",
						"offset": 0,
						"slot": "0",
						"type": "t_uint256"
					},
					{
						"astId": 7,
						"contract": "Learning_Concepts/15_enum.sol:Lottery",
						"label": "user_1",
						"offset": 0,
						"slot": "1",
						"type": "t_uint256"
					}
				],
				"types": {
					"t_uint256": {
						"encoding": "inplace",
						"label": "uint256",
						"numberOfBytes": "32"
					}
				}
			},
			"userdoc": {
				"kind": "user",
				"methods": {},
				"version": 1
			}
		}
	}
}