{
	"Learning_Concepts/08_dynamic_size_array.sol": {
		"DynArr": {
			"abi": [
				{
					"constant": false,
					"inputs": [
						{
							"name": "index",
							"type": "uint256"
						},
						{
							"name": "element",
							"type": "uint256"
						}
					],
					"name": "set_element",
					"outputs": [],
					"payable": false,
					"stateMutability": "nonpayable",
					"type": "function"
				},
				{
					"constant": true,
					"inputs": [],
					"name": "length",
					"outputs": [
						{
							"name": "",
							"type": "uint256"
						}
					],
					"payable": false,
					"stateMutability": "view",
					"type": "function"
				},
				{
					"constant": true,
					"inputs": [
						{
							"name": "",
							"type": "uint256"
						}
					],
					"name": "arr",
					"outputs": [
						{
							"name": "",
							"type": "uint256"
						}
					],
					"payable": false,
					"stateMutability": "view",
					"type": "function"
				},
				{
					"constant": false,
					"inputs": [
						{
							"name": "element",
							"type": "uint256"
						}
					],
					"name": "push",
					"outputs": [],
					"payable": false,
					"stateMutability": "nonpayable",
					"type": "function"
				},
				{
					"constant": false,
					"inputs": [],
					"name": "pop",
					"outputs": [],
					"payable": false,
					"stateMutability": "nonpayable",
					"type": "function"
				}
			],
			"devdoc": {
				"methods": {}
			},
			"evm": {
				"assembly": "    /* \"Learning_Concepts/08_dynamic_size_array.sol\":75:459  contract DynArr {\r... */\n  mstore(0x40, 0x80)\n    /* \"Learning_Concepts/08_dynamic_size_array.sol\":100:127  uint[] public arr = [1,2,3] */\n  0x60\n  mload(0x40)\n  swap1\n  dup2\n  add\n  0x40\n  mstore\n  dup1\n    /* \"Learning_Concepts/08_dynamic_size_array.sol\":121:122  1 */\n  0x1\n    /* \"Learning_Concepts/08_dynamic_size_array.sol\":100:127  uint[] public arr = [1,2,3] */\n  0xff\n  and\n  dup2\n  mstore\n  0x20\n  add\n    /* \"Learning_Concepts/08_dynamic_size_array.sol\":123:124  2 */\n  0x2\n    /* \"Learning_Concepts/08_dynamic_size_array.sol\":100:127  uint[] public arr = [1,2,3] */\n  0xff\n  and\n  dup2\n  mstore\n  0x20\n  add\n    /* \"Learning_Concepts/08_dynamic_size_array.sol\":125:126  3 */\n  0x3\n    /* \"Learning_Concepts/08_dynamic_size_array.sol\":100:127  uint[] public arr = [1,2,3] */\n  0xff\n  and\n  dup2\n  mstore\n  pop\n  0x0\n  swap1\n  0x3\n  tag_1\n  swap3\n  swap2\n  swap1\n  jump\t// in(tag_2)\ntag_1:\n  pop\n    /* \"Learning_Concepts/08_dynamic_size_array.sol\":75:459  contract DynArr {\r... */\n  callvalue\n    /* \"--CODEGEN--\":8:17   */\n  dup1\n    /* \"--CODEGEN--\":5:7   */\n  iszero\n  tag_3\n  jumpi\n    /* \"--CODEGEN--\":30:31   */\n  0x0\n    /* \"--CODEGEN--\":27:28   */\n  dup1\n    /* \"--CODEGEN--\":20:32   */\n  revert\n    /* \"--CODEGEN--\":5:7   */\ntag_3:\n    /* \"Learning_Concepts/08_dynamic_size_array.sol\":75:459  contract DynArr {\r... */\n  pop\n  jump(tag_4)\ntag_2:\n  dup3\n  dup1\n  sload\n  dup3\n  dup3\n  sstore\n  swap1\n  0x0\n  mstore\n  keccak256(0x0, 0x20)\n  swap1\n  dup2\n  add\n  swap3\n  dup3\n  iszero\n  tag_5\n  jumpi\n  swap2\n  0x20\n  mul\n  dup3\n  add\ntag_6:\n  dup3\n  dup2\n  gt\n  iszero\n  tag_7\n  jumpi\n  dup3\n  mload\n  dup3\n  swap1\n  0xff\n  and\n  swap1\n  sstore\n  swap2\n  0x20\n  add\n  swap2\n  swap1\n  0x1\n  add\n  swap1\n  jump(tag_6)\ntag_7:\ntag_5:\n  pop\n  swap1\n  pop\n  tag_8\n  swap2\n  swap1\n  jump\t// in(tag_9)\ntag_8:\n  pop\n  swap1\n  jump\t// out\ntag_9:\n  tag_10\n  swap2\n  swap1\ntag_11:\n  dup1\n  dup3\n  gt\n  iszero\n  tag_12\n  jumpi\n  0x0\n  dup2\n  0x0\n  swap1\n  sstore\n  pop\n  0x1\n  add\n  jump(tag_11)\ntag_12:\n  pop\n  swap1\n  jump\ntag_10:\n  swap1\n  jump\t// out\ntag_4:\n  dataSize(sub_0)\n  dup1\n  dataOffset(sub_0)\n  0x0\n  codecopy\n  0x0\n  return\nstop\n\nsub_0: assembly {\n        /* \"Learning_Concepts/08_dynamic_size_array.sol\":75:459  contract DynArr {\r... */\n      mstore(0x40, 0x80)\n      jumpi(tag_1, lt(calldatasize, 0x4))\n      calldataload(0x0)\n      0x100000000000000000000000000000000000000000000000000000000\n      swap1\n      div\n      0xffffffff\n      and\n      dup1\n      0x726665b\n      eq\n      tag_2\n      jumpi\n      dup1\n      0x1f7b6d32\n      eq\n      tag_3\n      jumpi\n      dup1\n      0x71e5ee5f\n      eq\n      tag_4\n      jumpi\n      dup1\n      0x959ac484\n      eq\n      tag_5\n      jumpi\n      dup1\n      0xa4ece52c\n      eq\n      tag_6\n      jumpi\n    tag_1:\n      0x0\n      dup1\n      revert\n        /* \"Learning_Concepts/08_dynamic_size_array.sol\":136:229  function set_element(uint index, uint element) public {\r... */\n    tag_2:\n      callvalue\n        /* \"--CODEGEN--\":8:17   */\n      dup1\n        /* \"--CODEGEN--\":5:7   */\n      iszero\n      tag_7\n      jumpi\n        /* \"--CODEGEN--\":30:31   */\n      0x0\n        /* \"--CODEGEN--\":27:28   */\n      dup1\n        /* \"--CODEGEN--\":20:32   */\n      revert\n        /* \"--CODEGEN--\":5:7   */\n    tag_7:\n        /* \"Learning_Concepts/08_dynamic_size_array.sol\":136:229  function set_element(uint index, uint element) public {\r... */\n      pop\n      tag_8\n      0x4\n      dup1\n      calldatasize\n      sub\n        /* \"--CODEGEN--\":13:15   */\n      0x40\n        /* \"--CODEGEN--\":8:11   */\n      dup2\n        /* \"--CODEGEN--\":5:16   */\n      lt\n        /* \"--CODEGEN--\":2:4   */\n      iszero\n      tag_9\n      jumpi\n        /* \"--CODEGEN--\":29:30   */\n      0x0\n        /* \"--CODEGEN--\":26:27   */\n      dup1\n        /* \"--CODEGEN--\":19:31   */\n      revert\n        /* \"--CODEGEN--\":2:4   */\n    tag_9:\n        /* \"Learning_Concepts/08_dynamic_size_array.sol\":136:229  function set_element(uint index, uint element) public {\r... */\n      dup2\n      add\n      swap1\n      dup1\n      dup1\n      calldataload\n      swap1\n      0x20\n      add\n      swap1\n      swap3\n      swap2\n      swap1\n      dup1\n      calldataload\n      swap1\n      0x20\n      add\n      swap1\n      swap3\n      swap2\n      swap1\n      pop\n      pop\n      pop\n      jump(tag_10)\n    tag_8:\n      stop\n        /* \"Learning_Concepts/08_dynamic_size_array.sol\":237:317  function length() public view returns(uint) {\r... */\n    tag_3:\n      callvalue\n        /* \"--CODEGEN--\":8:17   */\n      dup1\n        /* \"--CODEGEN--\":5:7   */\n      iszero\n      tag_11\n      jumpi\n        /* \"--CODEGEN--\":30:31   */\n      0x0\n        /* \"--CODEGEN--\":27:28   */\n      dup1\n        /* \"--CODEGEN--\":20:32   */\n      revert\n        /* \"--CODEGEN--\":5:7   */\n    tag_11:\n        /* \"Learning_Concepts/08_dynamic_size_array.sol\":237:317  function length() public view returns(uint) {\r... */\n      pop\n      tag_12\n      jump(tag_13)\n    tag_12:\n      mload(0x40)\n      dup1\n      dup3\n      dup2\n      mstore\n      0x20\n      add\n      swap2\n      pop\n      pop\n      mload(0x40)\n      dup1\n      swap2\n      sub\n      swap1\n      return\n        /* \"Learning_Concepts/08_dynamic_size_array.sol\":100:127  uint[] public arr = [1,2,3] */\n    tag_4:\n      callvalue\n        /* \"--CODEGEN--\":8:17   */\n      dup1\n        /* \"--CODEGEN--\":5:7   */\n      iszero\n      tag_14\n      jumpi\n        /* \"--CODEGEN--\":30:31   */\n      0x0\n        /* \"--CODEGEN--\":27:28   */\n      dup1\n        /* \"--CODEGEN--\":20:32   */\n      revert\n        /* \"--CODEGEN--\":5:7   */\n    tag_14:\n        /* \"Learning_Concepts/08_dynamic_size_array.sol\":100:127  uint[] public arr = [1,2,3] */\n      pop\n      tag_15\n      0x4\n      dup1\n      calldatasize\n      sub\n        /* \"--CODEGEN--\":13:15   */\n      0x20\n        /* \"--CODEGEN--\":8:11   */\n      dup2\n        /* \"--CODEGEN--\":5:16   */\n      lt\n        /* \"--CODEGEN--\":2:4   */\n      iszero\n      tag_16\n      jumpi\n        /* \"--CODEGEN--\":29:30   */\n      0x0\n        /* \"--CODEGEN--\":26:27   */\n      dup1\n        /* \"--CODEGEN--\":19:31   */\n      revert\n        /* \"--CODEGEN--\":2:4   */\n    tag_16:\n        /* \"Learning_Concepts/08_dynamic_size_array.sol\":100:127  uint[] public arr = [1,2,3] */\n      dup2\n      add\n      swap1\n      dup1\n      dup1\n      calldataload\n      swap1\n      0x20\n      add\n      swap1\n      swap3\n      swap2\n      swap1\n      pop\n      pop\n      pop\n      jump(tag_17)\n    tag_15:\n      mload(0x40)\n      dup1\n      dup3\n      dup2\n      mstore\n      0x20\n      add\n      swap2\n      pop\n      pop\n      mload(0x40)\n      dup1\n      swap2\n      sub\n      swap1\n      return\n        /* \"Learning_Concepts/08_dynamic_size_array.sol\":325:396  function push(uint element) public {\r... */\n    tag_5:\n      callvalue\n        /* \"--CODEGEN--\":8:17   */\n      dup1\n        /* \"--CODEGEN--\":5:7   */\n      iszero\n      tag_18\n      jumpi\n        /* \"--CODEGEN--\":30:31   */\n      0x0\n        /* \"--CODEGEN--\":27:28   */\n      dup1\n        /* \"--CODEGEN--\":20:32   */\n      revert\n        /* \"--CODEGEN--\":5:7   */\n    tag_18:\n        /* \"Learning_Concepts/08_dynamic_size_array.sol\":325:396  function push(uint element) public {\r... */\n      pop\n      tag_19\n      0x4\n      dup1\n      calldatasize\n      sub\n        /* \"--CODEGEN--\":13:15   */\n      0x20\n        /* \"--CODEGEN--\":8:11   */\n      dup2\n        /* \"--CODEGEN--\":5:16   */\n      lt\n        /* \"--CODEGEN--\":2:4   */\n      iszero\n      tag_20\n      jumpi\n        /* \"--CODEGEN--\":29:30   */\n      0x0\n        /* \"--CODEGEN--\":26:27   */\n      dup1\n        /* \"--CODEGEN--\":19:31   */\n      revert\n        /* \"--CODEGEN--\":2:4   */\n    tag_20:\n        /* \"Learning_Concepts/08_dynamic_size_array.sol\":325:396  function push(uint element) public {\r... */\n      dup2\n      add\n      swap1\n      dup1\n      dup1\n      calldataload\n      swap1\n      0x20\n      add\n      swap1\n      swap3\n      swap2\n      swap1\n      pop\n      pop\n      pop\n      jump(tag_21)\n    tag_19:\n      stop\n        /* \"Learning_Concepts/08_dynamic_size_array.sol\":404:454  function pop() public {\r... */\n    tag_6:\n      callvalue\n        /* \"--CODEGEN--\":8:17   */\n      dup1\n        /* \"--CODEGEN--\":5:7   */\n      iszero\n      tag_22\n      jumpi\n        /* \"--CODEGEN--\":30:31   */\n      0x0\n        /* \"--CODEGEN--\":27:28   */\n      dup1\n        /* \"--CODEGEN--\":20:32   */\n      revert\n        /* \"--CODEGEN--\":5:7   */\n    tag_22:\n        /* \"Learning_Concepts/08_dynamic_size_array.sol\":404:454  function pop() public {\r... */\n      pop\n      tag_23\n      jump(tag_24)\n    tag_23:\n      stop\n        /* \"Learning_Concepts/08_dynamic_size_array.sol\":136:229  function set_element(uint index, uint element) public {\r... */\n    tag_10:\n        /* \"Learning_Concepts/08_dynamic_size_array.sol\":214:221  element */\n      dup1\n        /* \"Learning_Concepts/08_dynamic_size_array.sol\":201:204  arr */\n      0x0\n        /* \"Learning_Concepts/08_dynamic_size_array.sol\":205:210  index */\n      dup4\n        /* \"Learning_Concepts/08_dynamic_size_array.sol\":201:211  arr[index] */\n      dup2\n      sload\n      dup2\n      lt\n      iszero\n      iszero\n      tag_26\n      jumpi\n      invalid\n    tag_26:\n      swap1\n      0x0\n      mstore\n      keccak256(0x0, 0x20)\n      add\n        /* \"Learning_Concepts/08_dynamic_size_array.sol\":201:221  arr[index] = element */\n      dup2\n      swap1\n      sstore\n      pop\n        /* \"Learning_Concepts/08_dynamic_size_array.sol\":136:229  function set_element(uint index, uint element) public {\r... */\n      pop\n      pop\n      jump\t// out\n        /* \"Learning_Concepts/08_dynamic_size_array.sol\":237:317  function length() public view returns(uint) {\r... */\n    tag_13:\n        /* \"Learning_Concepts/08_dynamic_size_array.sol\":275:279  uint */\n      0x0\n        /* \"Learning_Concepts/08_dynamic_size_array.sol\":299:302  arr */\n      dup1\n        /* \"Learning_Concepts/08_dynamic_size_array.sol\":299:309  arr.length */\n      dup1\n      sload\n      swap1\n      pop\n        /* \"Learning_Concepts/08_dynamic_size_array.sol\":292:309  return arr.length */\n      swap1\n      pop\n        /* \"Learning_Concepts/08_dynamic_size_array.sol\":237:317  function length() public view returns(uint) {\r... */\n      swap1\n      jump\t// out\n        /* \"Learning_Concepts/08_dynamic_size_array.sol\":100:127  uint[] public arr = [1,2,3] */\n    tag_17:\n      0x0\n      dup2\n      dup2\n      sload\n      dup2\n      lt\n      iszero\n      iszero\n      tag_29\n      jumpi\n      invalid\n    tag_29:\n      swap1\n      0x0\n      mstore\n      keccak256(0x0, 0x20)\n      add\n      0x0\n      swap2\n      pop\n      swap1\n      pop\n      sload\n      dup2\n      jump\t// out\n        /* \"Learning_Concepts/08_dynamic_size_array.sol\":325:396  function push(uint element) public {\r... */\n    tag_21:\n        /* \"Learning_Concepts/08_dynamic_size_array.sol\":371:374  arr */\n      0x0\n        /* \"Learning_Concepts/08_dynamic_size_array.sol\":380:387  element */\n      dup2\n        /* \"Learning_Concepts/08_dynamic_size_array.sol\":371:388  arr.push(element) */\n      swap1\n      dup1\n        /* \"--CODEGEN--\":39:40   */\n      0x1\n        /* \"--CODEGEN--\":33:36   */\n      dup2\n        /* \"--CODEGEN--\":27:37   */\n      sload\n        /* \"--CODEGEN--\":23:41   */\n      add\n        /* \"--CODEGEN--\":57:67   */\n      dup1\n        /* \"--CODEGEN--\":52:55   */\n      dup3\n        /* \"--CODEGEN--\":45:68   */\n      sstore\n        /* \"--CODEGEN--\":79:89   */\n      dup1\n        /* \"--CODEGEN--\":72:89   */\n      swap2\n      pop\n        /* \"--CODEGEN--\":0:93   */\n      pop\n        /* \"Learning_Concepts/08_dynamic_size_array.sol\":371:388  arr.push(element) */\n      swap1\n      0x1\n      dup3\n      sub\n      swap1\n      0x0\n      mstore\n      keccak256(0x0, 0x20)\n      add\n      0x0\n      swap1\n      swap2\n      swap3\n      swap1\n      swap2\n      swap1\n      swap2\n      pop\n      sstore\n      pop\n        /* \"Learning_Concepts/08_dynamic_size_array.sol\":325:396  function push(uint element) public {\r... */\n      pop\n      jump\t// out\n        /* \"Learning_Concepts/08_dynamic_size_array.sol\":404:454  function pop() public {\r... */\n    tag_24:\n        /* \"Learning_Concepts/08_dynamic_size_array.sol\":437:440  arr */\n      0x0\n        /* \"Learning_Concepts/08_dynamic_size_array.sol\":437:446  arr.pop() */\n      dup1\n      sload\n      dup1\n      iszero\n      iszero\n      tag_34\n      jumpi\n      invalid\n    tag_34:\n      0x1\n      swap1\n      sub\n      dup2\n      dup2\n      swap1\n      0x0\n      mstore\n      keccak256(0x0, 0x20)\n      add\n      0x0\n      swap1\n      sstore\n      swap1\n      sstore\n        /* \"Learning_Concepts/08_dynamic_size_array.sol\":404:454  function pop() public {\r... */\n      jump\t// out\n\n    auxdata: 0xa165627a7a723058208c2b71fb3e2eeffd29481430be525e0b7f0998be614c28dd0321e4a8981b11750029\n}\n",
				"bytecode": {
					"linkReferences": {},
					"object": "6080604052606060405190810160405280600160ff168152602001600260ff168152602001600360ff16815250600090600361003c92919061004f565b5034801561004957600080fd5b506100c6565b828054828255906000526020600020908101928215610090579160200282015b8281111561008f578251829060ff1690559160200191906001019061006f565b5b50905061009d91906100a1565b5090565b6100c391905b808211156100bf5760008160009055506001016100a7565b5090565b90565b610254806100d56000396000f3fe60806040526004361061006d576000357c0100000000000000000000000000000000000000000000000000000000900463ffffffff1680630726665b146100725780631f7b6d32146100b757806371e5ee5f146100e2578063959ac48414610131578063a4ece52c1461016c575b600080fd5b34801561007e57600080fd5b506100b56004803603604081101561009557600080fd5b810190808035906020019092919080359060200190929190505050610183565b005b3480156100c357600080fd5b506100cc6101a5565b6040518082815260200191505060405180910390f35b3480156100ee57600080fd5b5061011b6004803603602081101561010557600080fd5b81019080803590602001909291905050506101b1565b6040518082815260200191505060405180910390f35b34801561013d57600080fd5b5061016a6004803603602081101561015457600080fd5b81019080803590602001909291905050506101d4565b005b34801561017857600080fd5b50610181610203565b005b8060008381548110151561019357fe5b90600052602060002001819055505050565b60008080549050905090565b6000818154811015156101c057fe5b906000526020600020016000915090505481565b600081908060018154018082558091505090600182039060005260206000200160009091929091909150555050565b6000805480151561021057fe5b6001900381819060005260206000200160009055905556fea165627a7a723058208c2b71fb3e2eeffd29481430be525e0b7f0998be614c28dd0321e4a8981b11750029",
					"opcodes": "PUSH1 0x80 PUSH1 0x40 MSTORE PUSH1 0x60 PUSH1 0x40 MLOAD SWAP1 DUP2 ADD PUSH1 0x40 MSTORE DUP1 PUSH1 0x1 PUSH1 0xFF AND DUP2 MSTORE PUSH1 0x20 ADD PUSH1 0x2 PUSH1 0xFF AND DUP2 MSTORE PUSH1 0x20 ADD PUSH1 0x3 PUSH1 0xFF AND DUP2 MSTORE POP PUSH1 0x0 SWAP1 PUSH1 0x3 PUSH2 0x3C SWAP3 SWAP2 SWAP1 PUSH2 0x4F JUMP JUMPDEST POP CALLVALUE DUP1 ISZERO PUSH2 0x49 JUMPI PUSH1 0x0 DUP1 REVERT JUMPDEST POP PUSH2 0xC6 JUMP JUMPDEST DUP3 DUP1 SLOAD DUP3 DUP3 SSTORE SWAP1 PUSH1 0x0 MSTORE PUSH1 0x20 PUSH1 0x0 KECCAK256 SWAP1 DUP2 ADD SWAP3 DUP3 ISZERO PUSH2 0x90 JUMPI SWAP2 PUSH1 0x20 MUL DUP3 ADD JUMPDEST DUP3 DUP2 GT ISZERO PUSH2 0x8F JUMPI DUP3 MLOAD DUP3 SWAP1 PUSH1 0xFF AND SWAP1 SSTORE SWAP2 PUSH1 0x20 ADD SWAP2 SWAP1 PUSH1 0x1 ADD SWAP1 PUSH2 0x6F JUMP JUMPDEST JUMPDEST POP SWAP1 POP PUSH2 0x9D SWAP2 SWAP1 PUSH2 0xA1 JUMP JUMPDEST POP SWAP1 JUMP JUMPDEST PUSH2 0xC3 SWAP2 SWAP1 JUMPDEST DUP1 DUP3 GT ISZERO PUSH2 0xBF JUMPI PUSH1 0x0 DUP2 PUSH1 0x0 SWAP1 SSTORE POP PUSH1 0x1 ADD PUSH2 0xA7 JUMP JUMPDEST POP SWAP1 JUMP JUMPDEST SWAP1 JUMP JUMPDEST PUSH2 0x254 DUP1 PUSH2 0xD5 PUSH1 0x0 CODECOPY PUSH1 0x0 RETURN INVALID PUSH1 0x80 PUSH1 0x40 MSTORE PUSH1 0x4 CALLDATASIZE LT PUSH2 0x6D JUMPI PUSH1 0x0 CALLDATALOAD PUSH29 0x100000000000000000000000000000000000000000000000000000000 SWAP1 DIV PUSH4 0xFFFFFFFF AND DUP1 PUSH4 0x726665B EQ PUSH2 0x72 JUMPI DUP1 PUSH4 0x1F7B6D32 EQ PUSH2 0xB7 JUMPI DUP1 PUSH4 0x71E5EE5F EQ PUSH2 0xE2 JUMPI DUP1 PUSH4 0x959AC484 EQ PUSH2 0x131 JUMPI DUP1 PUSH4 0xA4ECE52C EQ PUSH2 0x16C JUMPI JUMPDEST PUSH1 0x0 DUP1 REVERT JUMPDEST CALLVALUE DUP1 ISZERO PUSH2 0x7E JUMPI PUSH1 0x0 DUP1 REVERT JUMPDEST POP PUSH2 0xB5 PUSH1 0x4 DUP1 CALLDATASIZE SUB PUSH1 0x40 DUP2 LT ISZERO PUSH2 0x95 JUMPI PUSH1 0x0 DUP1 REVERT JUMPDEST DUP2 ADD SWAP1 DUP1 DUP1 CALLDATALOAD SWAP1 PUSH1 0x20 ADD SWAP1 SWAP3 SWAP2 SWAP1 DUP1 CALLDATALOAD SWAP1 PUSH1 0x20 ADD SWAP1 SWAP3 SWAP2 SWAP1 POP POP POP PUSH2 0x183 JUMP JUMPDEST STOP JUMPDEST CALLVALUE DUP1 ISZERO PUSH2 0xC3 JUMPI PUSH1 0x0 DUP1 REVERT JUMPDEST POP PUSH2 0xCC PUSH2 0x1A5 JUMP JUMPDEST PUSH1 0x40 MLOAD DUP1 DUP3 DUP2 MSTORE PUSH1 0x20 ADD SWAP2 POP POP PUSH1 0x40 MLOAD DUP1 SWAP2 SUB SWAP1 RETURN JUMPDEST CALLVALUE DUP1 ISZERO PUSH2 0xEE JUMPI PUSH1 0x0 DUP1 REVERT JUMPDEST POP PUSH2 0x11B PUSH1 0x4 DUP1 CALLDATASIZE SUB PUSH1 0x20 DUP2 LT ISZERO PUSH2 0x105 JUMPI PUSH1 0x0 DUP1 REVERT JUMPDEST DUP2 ADD SWAP1 DUP1 DUP1 CALLDATALOAD SWAP1 PUSH1 0x20 ADD SWAP1 SWAP3 SWAP2 SWAP1 POP POP POP PUSH2 0x1B1 JUMP JUMPDEST PUSH1 0x40 MLOAD DUP1 DUP3 DUP2 MSTORE PUSH1 0x20 ADD SWAP2 POP POP PUSH1 0x40 MLOAD DUP1 SWAP2 SUB SWAP1 RETURN JUMPDEST CALLVALUE DUP1 ISZERO PUSH2 0x13D JUMPI PUSH1 0x0 DUP1 REVERT JUMPDEST POP PUSH2 0x16A PUSH1 0x4 DUP1 CALLDATASIZE SUB PUSH1 0x20 DUP2 LT ISZERO PUSH2 0x154 JUMPI PUSH1 0x0 DUP1 REVERT JUMPDEST DUP2 ADD SWAP1 DUP1 DUP1 CALLDATALOAD SWAP1 PUSH1 0x20 ADD SWAP1 SWAP3 SWAP2 SWAP1 POP POP POP PUSH2 0x1D4 JUMP JUMPDEST STOP JUMPDEST CALLVALUE DUP1 ISZERO PUSH2 0x178 JUMPI PUSH1 0x0 DUP1 REVERT JUMPDEST POP PUSH2 0x181 PUSH2 0x203 JUMP JUMPDEST STOP JUMPDEST DUP1 PUSH1 0x0 DUP4 DUP2 SLOAD DUP2 LT ISZERO ISZERO PUSH2 0x193 JUMPI INVALID JUMPDEST SWAP1 PUSH1 0x0 MSTORE PUSH1 0x20 PUSH1 0x0 KECCAK256 ADD DUP2 SWAP1 SSTORE POP POP POP JUMP JUMPDEST PUSH1 0x0 DUP1 DUP1 SLOAD SWAP1 POP SWAP1 POP SWAP1 JUMP JUMPDEST PUSH1 0x0 DUP2 DUP2 SLOAD DUP2 LT ISZERO ISZERO PUSH2 0x1C0 JUMPI INVALID JUMPDEST SWAP1 PUSH1 0x0 MSTORE PUSH1 0x20 PUSH1 0x0 KECCAK256 ADD PUSH1 0x0 SWAP2 POP SWAP1 POP SLOAD DUP2 JUMP JUMPDEST PUSH1 0x0 DUP2 SWAP1 DUP1 PUSH1 0x1 DUP2 SLOAD ADD DUP1 DUP3 SSTORE DUP1 SWAP2 POP POP SWAP1 PUSH1 0x1 DUP3 SUB SWAP1 PUSH1 0x0 MSTORE PUSH1 0x20 PUSH1 0x0 KECCAK256 ADD PUSH1 0x0 SWAP1 SWAP2 SWAP3 SWAP1 SWAP2 SWAP1 SWAP2 POP SSTORE POP POP JUMP JUMPDEST PUSH1 0x0 DUP1 SLOAD DUP1 ISZERO ISZERO PUSH2 0x210 JUMPI INVALID JUMPDEST PUSH1 0x1 SWAP1 SUB DUP2 DUP2 SWAP1 PUSH1 0x0 MSTORE PUSH1 0x20 PUSH1 0x0 KECCAK256 ADD PUSH1 0x0 SWAP1 SSTORE SWAP1 SSTORE JUMP INVALID LOG1 PUSH6 0x627A7A723058 KECCAK256 DUP13 0x2b PUSH18 0xFB3E2EEFFD29481430BE525E0B7F0998BE61 0x4c 0x28 0xdd SUB 0x21 0xe4 0xa8 SWAP9 SHL GT PUSH22 0x290000000000000000000000000000000000000000 "
				},
				"gasEstimates": {
					"creation": {
						"codeDepositCost": "119200",
						"executionCost": "infinite",
						"totalCost": "infinite"
					},
					"external": {
						"arr(uint256)": "819",
						"length()": "432",
						"pop()": "25528",
						"push(uint256)": "40614",
						"set_element(uint256,uint256)": "20546"
					}
				},
				"methodIdentifiers": {
					"arr(uint256)": "71e5ee5f",
					"length()": "1f7b6d32",
					"pop()": "a4ece52c",
					"push(uint256)": "959ac484",
					"set_element(uint256,uint256)": "0726665b"
				}
			},
			"userdoc": {
				"methods": {}
			}
		}
	}
}