{
	"Learning_Concepts/19_visibility_specifier.sol": {
		"A": {
			"abi": [
				{
					"inputs": [],
					"name": "f1",
					"outputs": [
						{
							"internalType": "uint256",
							"name": "",
							"type": "uint256"
						}
					],
					"stateMutability": "pure",
					"type": "function"
				},
				{
					"inputs": [],
					"name": "f4",
					"outputs": [
						{
							"internalType": "uint256",
							"name": "",
							"type": "uint256"
						}
					],
					"stateMutability": "pure",
					"type": "function"
				}
			],
			"devdoc": {
				"kind": "dev",
				"methods": {},
				"version": 1
			},
			"evm": {
				"assembly": "    /* \"Learning_Concepts/19_visibility_specifier.sol\":75:545  contract A {\r... */\n  mstore(0x40, 0x80)\n    /* \"Learning_Concepts/19_visibility_specifier.sol\":436:440  f1() */\n  tag_1\n    /* \"Learning_Concepts/19_visibility_specifier.sol\":436:438  f1 */\n  shl(0x20, tag_2)\n    /* \"Learning_Concepts/19_visibility_specifier.sol\":436:440  f1() */\n  0x20\n  shr\n  jump\t// in\ntag_1:\n    /* \"Learning_Concepts/19_visibility_specifier.sol\":427:440  uint a = f1() */\n  0x00\n  sstore\n    /* \"Learning_Concepts/19_visibility_specifier.sol\":464:468  f2() */\n  tag_3\n    /* \"Learning_Concepts/19_visibility_specifier.sol\":464:466  f2 */\n  shl(0x20, tag_4)\n    /* \"Learning_Concepts/19_visibility_specifier.sol\":464:468  f2() */\n  0x20\n  shr\n  jump\t// in\ntag_3:\n    /* \"Learning_Concepts/19_visibility_specifier.sol\":455:468  uint b = f2() */\n  0x01\n  sstore\n    /* \"Learning_Concepts/19_visibility_specifier.sol\":492:496  f3() */\n  tag_5\n    /* \"Learning_Concepts/19_visibility_specifier.sol\":492:494  f3 */\n  shl(0x20, tag_6)\n    /* \"Learning_Concepts/19_visibility_specifier.sol\":492:496  f3() */\n  0x20\n  shr\n  jump\t// in\ntag_5:\n    /* \"Learning_Concepts/19_visibility_specifier.sol\":483:496  uint c = f3() */\n  0x02\n  sstore\n    /* \"Learning_Concepts/19_visibility_specifier.sol\":75:545  contract A {\r... */\n  callvalue\n  dup1\n  iszero\n  tag_7\n  jumpi\n  0x00\n  dup1\n  revert\ntag_7:\n  pop\n  jump(tag_8)\n    /* \"Learning_Concepts/19_visibility_specifier.sol\":95:162  function f1() public pure returns(uint) {\r... */\ntag_2:\n    /* \"Learning_Concepts/19_visibility_specifier.sol\":129:133  uint */\n  0x00\n    /* \"Learning_Concepts/19_visibility_specifier.sol\":153:154  1 */\n  0x01\n    /* \"Learning_Concepts/19_visibility_specifier.sol\":146:154  return 1 */\n  swap1\n  pop\n    /* \"Learning_Concepts/19_visibility_specifier.sol\":95:162  function f1() public pure returns(uint) {\r... */\n  swap1\n  jump\t// out\n    /* \"Learning_Concepts/19_visibility_specifier.sol\":171:239  function f2() private pure returns(uint) {\r... */\ntag_4:\n    /* \"Learning_Concepts/19_visibility_specifier.sol\":206:210  uint */\n  0x00\n    /* \"Learning_Concepts/19_visibility_specifier.sol\":230:231  2 */\n  0x02\n    /* \"Learning_Concepts/19_visibility_specifier.sol\":223:231  return 2 */\n  swap1\n  pop\n    /* \"Learning_Concepts/19_visibility_specifier.sol\":171:239  function f2() private pure returns(uint) {\r... */\n  swap1\n  jump\t// out\n    /* \"Learning_Concepts/19_visibility_specifier.sol\":248:317  function f3() internal pure returns(uint) {\r... */\ntag_6:\n    /* \"Learning_Concepts/19_visibility_specifier.sol\":284:288  uint */\n  0x00\n    /* \"Learning_Concepts/19_visibility_specifier.sol\":308:309  3 */\n  0x03\n    /* \"Learning_Concepts/19_visibility_specifier.sol\":301:309  return 3 */\n  swap1\n  pop\n    /* \"Learning_Concepts/19_visibility_specifier.sol\":248:317  function f3() internal pure returns(uint) {\r... */\n  swap1\n  jump\t// out\n    /* \"Learning_Concepts/19_visibility_specifier.sol\":75:545  contract A {\r... */\ntag_8:\n  dataSize(sub_0)\n  dup1\n  dataOffset(sub_0)\n  0x00\n  codecopy\n  0x00\n  return\nstop\n\nsub_0: assembly {\n        /* \"Learning_Concepts/19_visibility_specifier.sol\":75:545  contract A {\r... */\n      mstore(0x40, 0x80)\n      callvalue\n      dup1\n      iszero\n      tag_1\n      jumpi\n      0x00\n      dup1\n      revert\n    tag_1:\n      pop\n      jumpi(tag_2, lt(calldatasize, 0x04))\n      shr(0xe0, calldataload(0x00))\n      dup1\n      0xc27fc305\n      eq\n      tag_3\n      jumpi\n      dup1\n      0xc3f90202\n      eq\n      tag_4\n      jumpi\n    tag_2:\n      0x00\n      dup1\n      revert\n        /* \"Learning_Concepts/19_visibility_specifier.sol\":95:162  function f1() public pure returns(uint) {\r... */\n    tag_3:\n      tag_5\n      tag_6\n      jump\t// in\n    tag_5:\n      mload(0x40)\n      tag_7\n      swap2\n      swap1\n      tag_8\n      jump\t// in\n    tag_7:\n      mload(0x40)\n      dup1\n      swap2\n      sub\n      swap1\n      return\n        /* \"Learning_Concepts/19_visibility_specifier.sol\":326:395  function f4() external pure returns(uint) {\r... */\n    tag_4:\n      tag_9\n      tag_10\n      jump\t// in\n    tag_9:\n      mload(0x40)\n      tag_11\n      swap2\n      swap1\n      tag_8\n      jump\t// in\n    tag_11:\n      mload(0x40)\n      dup1\n      swap2\n      sub\n      swap1\n      return\n        /* \"Learning_Concepts/19_visibility_specifier.sol\":95:162  function f1() public pure returns(uint) {\r... */\n    tag_6:\n        /* \"Learning_Concepts/19_visibility_specifier.sol\":129:133  uint */\n      0x00\n        /* \"Learning_Concepts/19_visibility_specifier.sol\":153:154  1 */\n      0x01\n        /* \"Learning_Concepts/19_visibility_specifier.sol\":146:154  return 1 */\n      swap1\n      pop\n        /* \"Learning_Concepts/19_visibility_specifier.sol\":95:162  function f1() public pure returns(uint) {\r... */\n      swap1\n      jump\t// out\n        /* \"Learning_Concepts/19_visibility_specifier.sol\":326:395  function f4() external pure returns(uint) {\r... */\n    tag_10:\n        /* \"Learning_Concepts/19_visibility_specifier.sol\":362:366  uint */\n      0x00\n        /* \"Learning_Concepts/19_visibility_specifier.sol\":386:387  4 */\n      0x04\n        /* \"Learning_Concepts/19_visibility_specifier.sol\":379:387  return 4 */\n      swap1\n      pop\n        /* \"Learning_Concepts/19_visibility_specifier.sol\":326:395  function f4() external pure returns(uint) {\r... */\n      swap1\n      jump\t// out\n        /* \"#utility.yul\":7:125   */\n    tag_15:\n        /* \"#utility.yul\":94:118   */\n      tag_17\n        /* \"#utility.yul\":112:117   */\n      dup2\n        /* \"#utility.yul\":94:118   */\n      tag_18\n      jump\t// in\n    tag_17:\n        /* \"#utility.yul\":89:92   */\n      dup3\n        /* \"#utility.yul\":82:119   */\n      mstore\n        /* \"#utility.yul\":7:125   */\n      pop\n      pop\n      jump\t// out\n        /* \"#utility.yul\":131:353   */\n    tag_8:\n        /* \"#utility.yul\":224:228   */\n      0x00\n        /* \"#utility.yul\":262:264   */\n      0x20\n        /* \"#utility.yul\":251:260   */\n      dup3\n        /* \"#utility.yul\":247:265   */\n      add\n        /* \"#utility.yul\":239:265   */\n      swap1\n      pop\n        /* \"#utility.yul\":275:346   */\n      tag_20\n        /* \"#utility.yul\":343:344   */\n      0x00\n        /* \"#utility.yul\":332:341   */\n      dup4\n        /* \"#utility.yul\":328:345   */\n      add\n        /* \"#utility.yul\":319:325   */\n      dup5\n        /* \"#utility.yul\":275:346   */\n      tag_15\n      jump\t// in\n    tag_20:\n        /* \"#utility.yul\":131:353   */\n      swap3\n      swap2\n      pop\n      pop\n      jump\t// out\n        /* \"#utility.yul\":359:436   */\n    tag_18:\n        /* \"#utility.yul\":396:403   */\n      0x00\n        /* \"#utility.yul\":425:430   */\n      dup2\n        /* \"#utility.yul\":414:430   */\n      swap1\n      pop\n        /* \"#utility.yul\":359:436   */\n      swap2\n      swap1\n      pop\n      jump\t// out\n\n    auxdata: 0xa2646970667358221220922308184c8c9f90de3c028157d9da7aefb94d50ef24d66ad4dda9ea7bbb515564736f6c63430008070033\n}\n",
				"bytecode": {
					"linkReferences": {},
					"object": "608060405261001261004960201b60201c565b60005561002361005260201b60201c565b60015561003461005b60201b60201c565b60025534801561004357600080fd5b50610064565b60006001905090565b60006002905090565b60006003905090565b60e3806100726000396000f3fe6080604052348015600f57600080fd5b506004361060325760003560e01c8063c27fc305146037578063c3f90202146051575b600080fd5b603d606b565b60405160489190608a565b60405180910390f35b60576074565b60405160629190608a565b60405180910390f35b60006001905090565b60006004905090565b60848160a3565b82525050565b6000602082019050609d6000830184607d565b92915050565b600081905091905056fea2646970667358221220922308184c8c9f90de3c028157d9da7aefb94d50ef24d66ad4dda9ea7bbb515564736f6c63430008070033",
					"opcodes": "PUSH1 0x80 PUSH1 0x40 MSTORE PUSH2 0x12 PUSH2 0x49 PUSH1 0x20 SHL PUSH1 0x20 SHR JUMP JUMPDEST PUSH1 0x0 SSTORE PUSH2 0x23 PUSH2 0x52 PUSH1 0x20 SHL PUSH1 0x20 SHR JUMP JUMPDEST PUSH1 0x1 SSTORE PUSH2 0x34 PUSH2 0x5B PUSH1 0x20 SHL PUSH1 0x20 SHR JUMP JUMPDEST PUSH1 0x2 SSTORE CALLVALUE DUP1 ISZERO PUSH2 0x43 JUMPI PUSH1 0x0 DUP1 REVERT JUMPDEST POP PUSH2 0x64 JUMP JUMPDEST PUSH1 0x0 PUSH1 0x1 SWAP1 POP SWAP1 JUMP JUMPDEST PUSH1 0x0 PUSH1 0x2 SWAP1 POP SWAP1 JUMP JUMPDEST PUSH1 0x0 PUSH1 0x3 SWAP1 POP SWAP1 JUMP JUMPDEST PUSH1 0xE3 DUP1 PUSH2 0x72 PUSH1 0x0 CODECOPY PUSH1 0x0 RETURN INVALID PUSH1 0x80 PUSH1 0x40 MSTORE CALLVALUE DUP1 ISZERO PUSH1 0xF JUMPI PUSH1 0x0 DUP1 REVERT JUMPDEST POP PUSH1 0x4 CALLDATASIZE LT PUSH1 0x32 JUMPI PUSH1 0x0 CALLDATALOAD PUSH1 0xE0 SHR DUP1 PUSH4 0xC27FC305 EQ PUSH1 0x37 JUMPI DUP1 PUSH4 0xC3F90202 EQ PUSH1 0x51 JUMPI JUMPDEST PUSH1 0x0 DUP1 REVERT JUMPDEST PUSH1 0x3D PUSH1 0x6B JUMP JUMPDEST PUSH1 0x40 MLOAD PUSH1 0x48 SWAP2 SWAP1 PUSH1 0x8A JUMP JUMPDEST PUSH1 0x40 MLOAD DUP1 SWAP2 SUB SWAP1 RETURN JUMPDEST PUSH1 0x57 PUSH1 0x74 JUMP JUMPDEST PUSH1 0x40 MLOAD PUSH1 0x62 SWAP2 SWAP1 PUSH1 0x8A JUMP JUMPDEST PUSH1 0x40 MLOAD DUP1 SWAP2 SUB SWAP1 RETURN JUMPDEST PUSH1 0x0 PUSH1 0x1 SWAP1 POP SWAP1 JUMP JUMPDEST PUSH1 0x0 PUSH1 0x4 SWAP1 POP SWAP1 JUMP JUMPDEST PUSH1 0x84 DUP2 PUSH1 0xA3 JUMP JUMPDEST DUP3 MSTORE POP POP JUMP JUMPDEST PUSH1 0x0 PUSH1 0x20 DUP3 ADD SWAP1 POP PUSH1 0x9D PUSH1 0x0 DUP4 ADD DUP5 PUSH1 0x7D JUMP JUMPDEST SWAP3 SWAP2 POP POP JUMP JUMPDEST PUSH1 0x0 DUP2 SWAP1 POP SWAP2 SWAP1 POP JUMP INVALID LOG2 PUSH5 0x6970667358 0x22 SLT KECCAK256 SWAP3 0x23 ADDMOD XOR 0x4C DUP13 SWAP16 SWAP1 0xDE EXTCODECOPY MUL DUP2 JUMPI 0xD9 0xDA PUSH27 0xEFB94D50EF24D66AD4DDA9EA7BBB515564736F6C63430008070033 "
				},
				"gasEstimates": {
					"creation": {
						"codeDepositCost": "45400",
						"executionCost": "infinite",
						"totalCost": "infinite"
					},
					"external": {
						"f1()": "315",
						"f4()": "337"
					},
					"internal": {
						"f2()": "infinite",
						"f3()": "infinite"
					}
				},
				"methodIdentifiers": {
					"f1()": "c27fc305",
					"f4()": "c3f90202"
				}
			},
			"storageLayout": {
				"storage": [
					{
						"astId": 37,
						"contract": "Learning_Concepts/19_visibility_specifier.sol:A",
						"label": "a",
						"offset": 0,
						"slot": "0",
						"type": "t_uint256"
					},
					{
						"astId": 41,
						"contract": "Learning_Concepts/19_visibility_specifier.sol:A",
						"label": "b",
						"offset": 0,
						"slot": "1",
						"type": "t_uint256"
					},
					{
						"astId": 45,
						"contract": "Learning_Concepts/19_visibility_specifier.sol:A",
						"label": "c",
						"offset": 0,
						"slot": "2",
						"type": "t_uint256"
					}
				],
				"types": {
					"t_uint256": {
						"encoding": "inplace",
						"label": "uint256",
						"numberOfBytes": "32"
					}
				}
			},
			"userdoc": {
				"kind": "user",
				"methods": {},
				"version": 1
			}
		}
	}
}