{
	"Learning_Concepts/03_function.sol": {
		"PlayWithPrice": {
			"abi": [
				{
					"inputs": [],
					"name": "get_price",
					"outputs": [
						{
							"internalType": "int256",
							"name": "",
							"type": "int256"
						}
					],
					"stateMutability": "view",
					"type": "function"
				},
				{
					"inputs": [],
					"name": "incriment_price",
					"outputs": [],
					"stateMutability": "nonpayable",
					"type": "function"
				},
				{
					"inputs": [],
					"name": "price",
					"outputs": [
						{
							"internalType": "int256",
							"name": "",
							"type": "int256"
						}
					],
					"stateMutability": "view",
					"type": "function"
				},
				{
					"inputs": [
						{
							"internalType": "int256",
							"name": "new_price",
							"type": "int256"
						}
					],
					"name": "set_price",
					"outputs": [],
					"stateMutability": "nonpayable",
					"type": "function"
				}
			],
			"devdoc": {
				"kind": "dev",
				"methods": {},
				"version": 1
			},
			"evm": {
				"assembly": "    /* \"Learning_Concepts/03_function.sol\":75:532  contract PlayWithPrice {\r... */\n  mstore(0x40, 0x80)\n    /* \"Learning_Concepts/03_function.sol\":124:126  30 */\n  0x1e\n    /* \"Learning_Concepts/03_function.sol\":105:126  int public price = 30 */\n  0x00\n  sstore\n    /* \"Learning_Concepts/03_function.sol\":75:532  contract PlayWithPrice {\r... */\n  callvalue\n  dup1\n  iszero\n  tag_1\n  jumpi\n  0x00\n  dup1\n  revert\ntag_1:\n  pop\n  dataSize(sub_0)\n  dup1\n  dataOffset(sub_0)\n  0x00\n  codecopy\n  0x00\n  return\nstop\n\nsub_0: assembly {\n        /* \"Learning_Concepts/03_function.sol\":75:532  contract PlayWithPrice {\r... */\n      mstore(0x40, 0x80)\n      callvalue\n      dup1\n      iszero\n      tag_1\n      jumpi\n      0x00\n      dup1\n      revert\n    tag_1:\n      pop\n      jumpi(tag_2, lt(calldatasize, 0x04))\n      shr(0xe0, calldataload(0x00))\n      dup1\n      0x11f37ceb\n      eq\n      tag_3\n      jumpi\n      dup1\n      0x6638f798\n      eq\n      tag_4\n      jumpi\n      dup1\n      0xa035b1fe\n      eq\n      tag_5\n      jumpi\n      dup1\n      0xa28013ed\n      eq\n      tag_6\n      jumpi\n    tag_2:\n      0x00\n      dup1\n      revert\n        /* \"Learning_Concepts/03_function.sol\":237:314  function get_price() public view returns(int) {\r... */\n    tag_3:\n      tag_7\n      tag_8\n      jump\t// in\n    tag_7:\n      mload(0x40)\n      tag_9\n      swap2\n      swap1\n      tag_10\n      jump\t// in\n    tag_9:\n      mload(0x40)\n      dup1\n      swap2\n      sub\n      swap1\n      return\n        /* \"Learning_Concepts/03_function.sol\":346:417  function incriment_price() public  {\r... */\n    tag_4:\n      tag_11\n      tag_12\n      jump\t// in\n    tag_11:\n      stop\n        /* \"Learning_Concepts/03_function.sol\":105:126  int public price = 30 */\n    tag_5:\n      tag_13\n      tag_14\n      jump\t// in\n    tag_13:\n      mload(0x40)\n      tag_15\n      swap2\n      swap1\n      tag_10\n      jump\t// in\n    tag_15:\n      mload(0x40)\n      dup1\n      swap2\n      sub\n      swap1\n      return\n        /* \"Learning_Concepts/03_function.sol\":450:527  function set_price(int new_price) public {\r... */\n    tag_6:\n      tag_16\n      0x04\n      dup1\n      calldatasize\n      sub\n      dup2\n      add\n      swap1\n      tag_17\n      swap2\n      swap1\n      tag_18\n      jump\t// in\n    tag_17:\n      tag_19\n      jump\t// in\n    tag_16:\n      stop\n        /* \"Learning_Concepts/03_function.sol\":237:314  function get_price() public view returns(int) {\r... */\n    tag_8:\n        /* \"Learning_Concepts/03_function.sol\":278:281  int */\n      0x00\n        /* \"Learning_Concepts/03_function.sol\":301:306  price */\n      dup1\n      sload\n        /* \"Learning_Concepts/03_function.sol\":294:306  return price */\n      swap1\n      pop\n        /* \"Learning_Concepts/03_function.sol\":237:314  function get_price() public view returns(int) {\r... */\n      swap1\n      jump\t// out\n        /* \"Learning_Concepts/03_function.sol\":346:417  function incriment_price() public  {\r... */\n    tag_12:\n        /* \"Learning_Concepts/03_function.sol\":408:409  1 */\n      0x01\n        /* \"Learning_Concepts/03_function.sol\":400:405  price */\n      sload(0x00)\n        /* \"Learning_Concepts/03_function.sol\":400:409  price + 1 */\n      tag_22\n      swap2\n      swap1\n      tag_23\n      jump\t// in\n    tag_22:\n        /* \"Learning_Concepts/03_function.sol\":392:397  price */\n      0x00\n        /* \"Learning_Concepts/03_function.sol\":392:409  price = price + 1 */\n      dup2\n      swap1\n      sstore\n      pop\n        /* \"Learning_Concepts/03_function.sol\":346:417  function incriment_price() public  {\r... */\n      jump\t// out\n        /* \"Learning_Concepts/03_function.sol\":105:126  int public price = 30 */\n    tag_14:\n      sload(0x00)\n      dup2\n      jump\t// out\n        /* \"Learning_Concepts/03_function.sol\":450:527  function set_price(int new_price) public {\r... */\n    tag_19:\n        /* \"Learning_Concepts/03_function.sol\":510:519  new_price */\n      dup1\n        /* \"Learning_Concepts/03_function.sol\":502:507  price */\n      0x00\n        /* \"Learning_Concepts/03_function.sol\":502:519  price = new_price */\n      dup2\n      swap1\n      sstore\n      pop\n        /* \"Learning_Concepts/03_function.sol\":450:527  function set_price(int new_price) public {\r... */\n      pop\n      jump\t// out\n        /* \"#utility.yul\":7:144   */\n    tag_26:\n        /* \"#utility.yul\":52:57   */\n      0x00\n        /* \"#utility.yul\":90:96   */\n      dup2\n        /* \"#utility.yul\":77:97   */\n      calldataload\n        /* \"#utility.yul\":68:97   */\n      swap1\n      pop\n        /* \"#utility.yul\":106:138   */\n      tag_28\n        /* \"#utility.yul\":132:137   */\n      dup2\n        /* \"#utility.yul\":106:138   */\n      tag_29\n      jump\t// in\n    tag_28:\n        /* \"#utility.yul\":7:144   */\n      swap3\n      swap2\n      pop\n      pop\n      jump\t// out\n        /* \"#utility.yul\":150:477   */\n    tag_18:\n        /* \"#utility.yul\":208:214   */\n      0x00\n        /* \"#utility.yul\":257:259   */\n      0x20\n        /* \"#utility.yul\":245:254   */\n      dup3\n        /* \"#utility.yul\":236:243   */\n      dup5\n        /* \"#utility.yul\":232:255   */\n      sub\n        /* \"#utility.yul\":228:260   */\n      slt\n        /* \"#utility.yul\":225:344   */\n      iszero\n      tag_31\n      jumpi\n        /* \"#utility.yul\":263:342   */\n      tag_32\n      tag_33\n      jump\t// in\n    tag_32:\n        /* \"#utility.yul\":225:344   */\n    tag_31:\n        /* \"#utility.yul\":383:384   */\n      0x00\n        /* \"#utility.yul\":408:460   */\n      tag_34\n        /* \"#utility.yul\":452:459   */\n      dup5\n        /* \"#utility.yul\":443:449   */\n      dup3\n        /* \"#utility.yul\":432:441   */\n      dup6\n        /* \"#utility.yul\":428:450   */\n      add\n        /* \"#utility.yul\":408:460   */\n      tag_26\n      jump\t// in\n    tag_34:\n        /* \"#utility.yul\":398:460   */\n      swap2\n      pop\n        /* \"#utility.yul\":354:470   */\n      pop\n        /* \"#utility.yul\":150:477   */\n      swap3\n      swap2\n      pop\n      pop\n      jump\t// out\n        /* \"#utility.yul\":483:598   */\n    tag_35:\n        /* \"#utility.yul\":568:591   */\n      tag_37\n        /* \"#utility.yul\":585:590   */\n      dup2\n        /* \"#utility.yul\":568:591   */\n      tag_38\n      jump\t// in\n    tag_37:\n        /* \"#utility.yul\":563:566   */\n      dup3\n        /* \"#utility.yul\":556:592   */\n      mstore\n        /* \"#utility.yul\":483:598   */\n      pop\n      pop\n      jump\t// out\n        /* \"#utility.yul\":604:822   */\n    tag_10:\n        /* \"#utility.yul\":695:699   */\n      0x00\n        /* \"#utility.yul\":733:735   */\n      0x20\n        /* \"#utility.yul\":722:731   */\n      dup3\n        /* \"#utility.yul\":718:736   */\n      add\n        /* \"#utility.yul\":710:736   */\n      swap1\n      pop\n        /* \"#utility.yul\":746:815   */\n      tag_40\n        /* \"#utility.yul\":812:813   */\n      0x00\n        /* \"#utility.yul\":801:810   */\n      dup4\n        /* \"#utility.yul\":797:814   */\n      add\n        /* \"#utility.yul\":788:794   */\n      dup5\n        /* \"#utility.yul\":746:815   */\n      tag_35\n      jump\t// in\n    tag_40:\n        /* \"#utility.yul\":604:822   */\n      swap3\n      swap2\n      pop\n      pop\n      jump\t// out\n        /* \"#utility.yul\":909:1434   */\n    tag_23:\n        /* \"#utility.yul\":948:951   */\n      0x00\n        /* \"#utility.yul\":967:986   */\n      tag_44\n        /* \"#utility.yul\":984:985   */\n      dup3\n        /* \"#utility.yul\":967:986   */\n      tag_38\n      jump\t// in\n    tag_44:\n        /* \"#utility.yul\":962:986   */\n      swap2\n      pop\n        /* \"#utility.yul\":1000:1019   */\n      tag_45\n        /* \"#utility.yul\":1017:1018   */\n      dup4\n        /* \"#utility.yul\":1000:1019   */\n      tag_38\n      jump\t// in\n    tag_45:\n        /* \"#utility.yul\":995:1019   */\n      swap3\n      pop\n        /* \"#utility.yul\":1188:1189   */\n      dup2\n        /* \"#utility.yul\":1120:1186   */\n      0x7fffffffffffffffffffffffffffffffffffffffffffffffffffffffffffffff\n        /* \"#utility.yul\":1116:1190   */\n      sub\n        /* \"#utility.yul\":1113:1114   */\n      dup4\n        /* \"#utility.yul\":1109:1191   */\n      sgt\n        /* \"#utility.yul\":1104:1105   */\n      0x00\n        /* \"#utility.yul\":1101:1102   */\n      dup4\n        /* \"#utility.yul\":1097:1106   */\n      slt\n        /* \"#utility.yul\":1090:1107   */\n      iszero\n        /* \"#utility.yul\":1086:1192   */\n      and\n        /* \"#utility.yul\":1083:1215   */\n      iszero\n      tag_46\n      jumpi\n        /* \"#utility.yul\":1195:1213   */\n      tag_47\n      tag_48\n      jump\t// in\n    tag_47:\n        /* \"#utility.yul\":1083:1215   */\n    tag_46:\n        /* \"#utility.yul\":1375:1376   */\n      dup2\n        /* \"#utility.yul\":1307:1373   */\n      0x8000000000000000000000000000000000000000000000000000000000000000\n        /* \"#utility.yul\":1303:1377   */\n      sub\n        /* \"#utility.yul\":1300:1301   */\n      dup4\n        /* \"#utility.yul\":1296:1378   */\n      slt\n        /* \"#utility.yul\":1292:1293   */\n      0x00\n        /* \"#utility.yul\":1289:1290   */\n      dup4\n        /* \"#utility.yul\":1285:1294   */\n      slt\n        /* \"#utility.yul\":1281:1379   */\n      and\n        /* \"#utility.yul\":1278:1402   */\n      iszero\n      tag_49\n      jumpi\n        /* \"#utility.yul\":1382:1400   */\n      tag_50\n      tag_48\n      jump\t// in\n    tag_50:\n        /* \"#utility.yul\":1278:1402   */\n    tag_49:\n        /* \"#utility.yul\":1426:1427   */\n      dup3\n        /* \"#utility.yul\":1423:1424   */\n      dup3\n        /* \"#utility.yul\":1419:1428   */\n      add\n        /* \"#utility.yul\":1412:1428   */\n      swap1\n      pop\n        /* \"#utility.yul\":909:1434   */\n      swap3\n      swap2\n      pop\n      pop\n      jump\t// out\n        /* \"#utility.yul\":1440:1516   */\n    tag_38:\n        /* \"#utility.yul\":1476:1483   */\n      0x00\n        /* \"#utility.yul\":1505:1510   */\n      dup2\n        /* \"#utility.yul\":1494:1510   */\n      swap1\n      pop\n        /* \"#utility.yul\":1440:1516   */\n      swap2\n      swap1\n      pop\n      jump\t// out\n        /* \"#utility.yul\":1522:1702   */\n    tag_48:\n        /* \"#utility.yul\":1570:1647   */\n      0x4e487b7100000000000000000000000000000000000000000000000000000000\n        /* \"#utility.yul\":1567:1568   */\n      0x00\n        /* \"#utility.yul\":1560:1648   */\n      mstore\n        /* \"#utility.yul\":1667:1671   */\n      0x11\n        /* \"#utility.yul\":1664:1665   */\n      0x04\n        /* \"#utility.yul\":1657:1672   */\n      mstore\n        /* \"#utility.yul\":1691:1695   */\n      0x24\n        /* \"#utility.yul\":1688:1689   */\n      0x00\n        /* \"#utility.yul\":1681:1696   */\n      revert\n        /* \"#utility.yul\":1831:1948   */\n    tag_33:\n        /* \"#utility.yul\":1940:1941   */\n      0x00\n        /* \"#utility.yul\":1937:1938   */\n      dup1\n        /* \"#utility.yul\":1930:1942   */\n      revert\n        /* \"#utility.yul\":1954:2074   */\n    tag_29:\n        /* \"#utility.yul\":2026:2049   */\n      tag_57\n        /* \"#utility.yul\":2043:2048   */\n      dup2\n        /* \"#utility.yul\":2026:2049   */\n      tag_38\n      jump\t// in\n    tag_57:\n        /* \"#utility.yul\":2019:2024   */\n      dup2\n        /* \"#utility.yul\":2016:2050   */\n      eq\n        /* \"#utility.yul\":2006:2068   */\n      tag_58\n      jumpi\n        /* \"#utility.yul\":2064:2065   */\n      0x00\n        /* \"#utility.yul\":2061:2062   */\n      dup1\n        /* \"#utility.yul\":2054:2066   */\n      revert\n        /* \"#utility.yul\":2006:2068   */\n    tag_58:\n        /* \"#utility.yul\":1954:2074   */\n      pop\n      jump\t// out\n\n    auxdata: 0xa2646970667358221220c43d4026e7ff05422165fd581cdcc9b523820a16f6b4489b8ce26d4ba9c8756364736f6c63430008070033\n}\n",
				"bytecode": {
					"linkReferences": {},
					"object": "6080604052601e60005534801561001557600080fd5b5061026e806100256000396000f3fe608060405234801561001057600080fd5b506004361061004c5760003560e01c806311f37ceb146100515780636638f7981461006f578063a035b1fe14610079578063a28013ed14610097575b600080fd5b6100596100b3565b6040516100669190610134565b60405180910390f35b6100776100bc565b005b6100816100d3565b60405161008e9190610134565b60405180910390f35b6100b160048036038101906100ac91906100f8565b6100d9565b005b60008054905090565b60016000546100cb919061014f565b600081905550565b60005481565b8060008190555050565b6000813590506100f281610221565b92915050565b60006020828403121561010e5761010d61021c565b5b600061011c848285016100e3565b91505092915050565b61012e816101e3565b82525050565b60006020820190506101496000830184610125565b92915050565b600061015a826101e3565b9150610165836101e3565b9250817f7fffffffffffffffffffffffffffffffffffffffffffffffffffffffffffffff038313600083121516156101a05761019f6101ed565b5b817f80000000000000000000000000000000000000000000000000000000000000000383126000831216156101d8576101d76101ed565b5b828201905092915050565b6000819050919050565b7f4e487b7100000000000000000000000000000000000000000000000000000000600052601160045260246000fd5b600080fd5b61022a816101e3565b811461023557600080fd5b5056fea2646970667358221220c43d4026e7ff05422165fd581cdcc9b523820a16f6b4489b8ce26d4ba9c8756364736f6c63430008070033",
					"opcodes": "PUSH1 0x80 PUSH1 0x40 MSTORE PUSH1 0x1E PUSH1 0x0 SSTORE CALLVALUE DUP1 ISZERO PUSH2 0x15 JUMPI PUSH1 0x0 DUP1 REVERT JUMPDEST POP PUSH2 0x26E DUP1 PUSH2 0x25 PUSH1 0x0 CODECOPY PUSH1 0x0 RETURN INVALID PUSH1 0x80 PUSH1 0x40 MSTORE CALLVALUE DUP1 ISZERO PUSH2 0x10 JUMPI PUSH1 0x0 DUP1 REVERT JUMPDEST POP PUSH1 0x4 CALLDATASIZE LT PUSH2 0x4C JUMPI PUSH1 0x0 CALLDATALOAD PUSH1 0xE0 SHR DUP1 PUSH4 0x11F37CEB EQ PUSH2 0x51 JUMPI DUP1 PUSH4 0x6638F798 EQ PUSH2 0x6F JUMPI DUP1 PUSH4 0xA035B1FE EQ PUSH2 0x79 JUMPI DUP1 PUSH4 0xA28013ED EQ PUSH2 0x97 JUMPI JUMPDEST PUSH1 0x0 DUP1 REVERT JUMPDEST PUSH2 0x59 PUSH2 0xB3 JUMP JUMPDEST PUSH1 0x40 MLOAD PUSH2 0x66 SWAP2 SWAP1 PUSH2 0x134 JUMP JUMPDEST PUSH1 0x40 MLOAD DUP1 SWAP2 SUB SWAP1 RETURN JUMPDEST PUSH2 0x77 PUSH2 0xBC JUMP JUMPDEST STOP JUMPDEST PUSH2 0x81 PUSH2 0xD3 JUMP JUMPDEST PUSH1 0x40 MLOAD PUSH2 0x8E SWAP2 SWAP1 PUSH2 0x134 JUMP JUMPDEST PUSH1 0x40 MLOAD DUP1 SWAP2 SUB SWAP1 RETURN JUMPDEST PUSH2 0xB1 PUSH1 0x4 DUP1 CALLDATASIZE SUB DUP2 ADD SWAP1 PUSH2 0xAC SWAP2 SWAP1 PUSH2 0xF8 JUMP JUMPDEST PUSH2 0xD9 JUMP JUMPDEST STOP JUMPDEST PUSH1 0x0 DUP1 SLOAD SWAP1 POP SWAP1 JUMP JUMPDEST PUSH1 0x1 PUSH1 0x0 SLOAD PUSH2 0xCB SWAP2 SWAP1 PUSH2 0x14F JUMP JUMPDEST PUSH1 0x0 DUP2 SWAP1 SSTORE POP JUMP JUMPDEST PUSH1 0x0 SLOAD DUP2 JUMP JUMPDEST DUP1 PUSH1 0x0 DUP2 SWAP1 SSTORE POP POP JUMP JUMPDEST PUSH1 0x0 DUP2 CALLDATALOAD SWAP1 POP PUSH2 0xF2 DUP2 PUSH2 0x221 JUMP JUMPDEST SWAP3 SWAP2 POP POP JUMP JUMPDEST PUSH1 0x0 PUSH1 0x20 DUP3 DUP5 SUB SLT ISZERO PUSH2 0x10E JUMPI PUSH2 0x10D PUSH2 0x21C JUMP JUMPDEST JUMPDEST PUSH1 0x0 PUSH2 0x11C DUP5 DUP3 DUP6 ADD PUSH2 0xE3 JUMP JUMPDEST SWAP2 POP POP SWAP3 SWAP2 POP POP JUMP JUMPDEST PUSH2 0x12E DUP2 PUSH2 0x1E3 JUMP JUMPDEST DUP3 MSTORE POP POP JUMP JUMPDEST PUSH1 0x0 PUSH1 0x20 DUP3 ADD SWAP1 POP PUSH2 0x149 PUSH1 0x0 DUP4 ADD DUP5 PUSH2 0x125 JUMP JUMPDEST SWAP3 SWAP2 POP POP JUMP JUMPDEST PUSH1 0x0 PUSH2 0x15A DUP3 PUSH2 0x1E3 JUMP JUMPDEST SWAP2 POP PUSH2 0x165 DUP4 PUSH2 0x1E3 JUMP JUMPDEST SWAP3 POP DUP2 PUSH32 0x7FFFFFFFFFFFFFFFFFFFFFFFFFFFFFFFFFFFFFFFFFFFFFFFFFFFFFFFFFFFFFFF SUB DUP4 SGT PUSH1 0x0 DUP4 SLT ISZERO AND ISZERO PUSH2 0x1A0 JUMPI PUSH2 0x19F PUSH2 0x1ED JUMP JUMPDEST JUMPDEST DUP2 PUSH32 0x8000000000000000000000000000000000000000000000000000000000000000 SUB DUP4 SLT PUSH1 0x0 DUP4 SLT AND ISZERO PUSH2 0x1D8 JUMPI PUSH2 0x1D7 PUSH2 0x1ED JUMP JUMPDEST JUMPDEST DUP3 DUP3 ADD SWAP1 POP SWAP3 SWAP2 POP POP JUMP JUMPDEST PUSH1 0x0 DUP2 SWAP1 POP SWAP2 SWAP1 POP JUMP JUMPDEST PUSH32 0x4E487B7100000000000000000000000000000000000000000000000000000000 PUSH1 0x0 MSTORE PUSH1 0x11 PUSH1 0x4 MSTORE PUSH1 0x24 PUSH1 0x0 REVERT JUMPDEST PUSH1 0x0 DUP1 REVERT JUMPDEST PUSH2 0x22A DUP2 PUSH2 0x1E3 JUMP JUMPDEST DUP2 EQ PUSH2 0x235 JUMPI PUSH1 0x0 DUP1 REVERT JUMPDEST POP JUMP INVALID LOG2 PUSH5 0x6970667358 0x22 SLT KECCAK256 0xC4 RETURNDATASIZE BLOCKHASH 0x26 0xE7 SELFDESTRUCT SDIV TIMESTAMP 0x21 PUSH6 0xFD581CDCC9B5 0x23 DUP3 EXP AND 0xF6 0xB4 BASEFEE SWAP12 DUP13 0xE2 PUSH14 0x4BA9C8756364736F6C6343000807 STOP CALLER "
				},
				"gasEstimates": {
					"creation": {
						"codeDepositCost": "124400",
						"executionCost": "22277",
						"totalCost": "146677"
					},
					"external": {
						"get_price()": "2415",
						"incriment_price()": "infinite",
						"price()": "2451",
						"set_price(int256)": "22564"
					}
				},
				"methodIdentifiers": {
					"get_price()": "11f37ceb",
					"incriment_price()": "6638f798",
					"price()": "a035b1fe",
					"set_price(int256)": "a28013ed"
				}
			},
			"storageLayout": {
				"storage": [
					{
						"astId": 4,
						"contract": "Learning_Concepts/03_function.sol:PlayWithPrice",
						"label": "price",
						"offset": 0,
						"slot": "0",
						"type": "t_int256"
					}
				],
				"types": {
					"t_int256": {
						"encoding": "inplace",
						"label": "int256",
						"numberOfBytes": "32"
					}
				}
			},
			"userdoc": {
				"kind": "user",
				"methods": {},
				"version": 1
			}
		}
	}
}