{
	"Learning_Concepts/06_overflow_problem_in_past.sol": {
		"Problem": {
			"abi": [
				{
					"constant": false,
					"inputs": [
						{
							"name": "added_money",
							"type": "uint8"
						}
					],
					"name": "add_money",
					"outputs": [],
					"payable": false,
					"stateMutability": "nonpayable",
					"type": "function"
				},
				{
					"constant": true,
					"inputs": [],
					"name": "account_balance",
					"outputs": [
						{
							"name": "",
							"type": "uint8"
						}
					],
					"payable": false,
					"stateMutability": "view",
					"type": "function"
				}
			],
			"devdoc": {
				"methods": {}
			},
			"evm": {
				"assembly": "    /* \"Learning_Concepts/06_overflow_problem_in_past.sol\":66:197  contract Problem {\r... */\n  mstore(0x40, 0x80)\n    /* \"Learning_Concepts/06_overflow_problem_in_past.sol\":121:122  0 */\n  0x0\n    /* \"Learning_Concepts/06_overflow_problem_in_past.sol\":90:122  uint8 public account_balance = 0 */\n  dup1\n  exp(0x100, 0x0)\n  dup2\n  sload\n  dup2\n  0xff\n  mul\n  not\n  and\n  swap1\n  dup4\n  0xff\n  and\n  mul\n  or\n  swap1\n  sstore\n  pop\n    /* \"Learning_Concepts/06_overflow_problem_in_past.sol\":66:197  contract Problem {\r... */\n  callvalue\n    /* \"--CODEGEN--\":8:17   */\n  dup1\n    /* \"--CODEGEN--\":5:7   */\n  iszero\n  tag_1\n  jumpi\n    /* \"--CODEGEN--\":30:31   */\n  0x0\n    /* \"--CODEGEN--\":27:28   */\n  dup1\n    /* \"--CODEGEN--\":20:32   */\n  revert\n    /* \"--CODEGEN--\":5:7   */\ntag_1:\n    /* \"Learning_Concepts/06_overflow_problem_in_past.sol\":66:197  contract Problem {\r... */\n  pop\n  dataSize(sub_0)\n  dup1\n  dataOffset(sub_0)\n  0x0\n  codecopy\n  0x0\n  return\nstop\n\nsub_0: assembly {\n        /* \"Learning_Concepts/06_overflow_problem_in_past.sol\":66:197  contract Problem {\r... */\n      mstore(0x40, 0x80)\n      jumpi(tag_1, lt(calldatasize, 0x4))\n      calldataload(0x0)\n      0x100000000000000000000000000000000000000000000000000000000\n      swap1\n      div\n      0xffffffff\n      and\n      dup1\n      0x2c6b06fa\n      eq\n      tag_2\n      jumpi\n      dup1\n      0xc08b9399\n      eq\n      tag_3\n      jumpi\n    tag_1:\n      0x0\n      dup1\n      revert\n        /* \"Learning_Concepts/06_overflow_problem_in_past.sol\":131:194  function add_money(uint8 added_money) public {\r... */\n    tag_2:\n      callvalue\n        /* \"--CODEGEN--\":8:17   */\n      dup1\n        /* \"--CODEGEN--\":5:7   */\n      iszero\n      tag_4\n      jumpi\n        /* \"--CODEGEN--\":30:31   */\n      0x0\n        /* \"--CODEGEN--\":27:28   */\n      dup1\n        /* \"--CODEGEN--\":20:32   */\n      revert\n        /* \"--CODEGEN--\":5:7   */\n    tag_4:\n        /* \"Learning_Concepts/06_overflow_problem_in_past.sol\":131:194  function add_money(uint8 added_money) public {\r... */\n      pop\n      tag_5\n      0x4\n      dup1\n      calldatasize\n      sub\n        /* \"--CODEGEN--\":13:15   */\n      0x20\n        /* \"--CODEGEN--\":8:11   */\n      dup2\n        /* \"--CODEGEN--\":5:16   */\n      lt\n        /* \"--CODEGEN--\":2:4   */\n      iszero\n      tag_6\n      jumpi\n        /* \"--CODEGEN--\":29:30   */\n      0x0\n        /* \"--CODEGEN--\":26:27   */\n      dup1\n        /* \"--CODEGEN--\":19:31   */\n      revert\n        /* \"--CODEGEN--\":2:4   */\n    tag_6:\n        /* \"Learning_Concepts/06_overflow_problem_in_past.sol\":131:194  function add_money(uint8 added_money) public {\r... */\n      dup2\n      add\n      swap1\n      dup1\n      dup1\n      calldataload\n      0xff\n      and\n      swap1\n      0x20\n      add\n      swap1\n      swap3\n      swap2\n      swap1\n      pop\n      pop\n      pop\n      jump(tag_7)\n    tag_5:\n      stop\n        /* \"Learning_Concepts/06_overflow_problem_in_past.sol\":90:122  uint8 public account_balance = 0 */\n    tag_3:\n      callvalue\n        /* \"--CODEGEN--\":8:17   */\n      dup1\n        /* \"--CODEGEN--\":5:7   */\n      iszero\n      tag_8\n      jumpi\n        /* \"--CODEGEN--\":30:31   */\n      0x0\n        /* \"--CODEGEN--\":27:28   */\n      dup1\n        /* \"--CODEGEN--\":20:32   */\n      revert\n        /* \"--CODEGEN--\":5:7   */\n    tag_8:\n        /* \"Learning_Concepts/06_overflow_problem_in_past.sol\":90:122  uint8 public account_balance = 0 */\n      pop\n      tag_9\n      jump(tag_10)\n    tag_9:\n      mload(0x40)\n      dup1\n      dup3\n      0xff\n      and\n      0xff\n      and\n      dup2\n      mstore\n      0x20\n      add\n      swap2\n      pop\n      pop\n      mload(0x40)\n      dup1\n      swap2\n      sub\n      swap1\n      return\n        /* \"Learning_Concepts/06_overflow_problem_in_past.sol\":131:194  function add_money(uint8 added_money) public {\r... */\n    tag_7:\n      pop\n      jump\t// out\n        /* \"Learning_Concepts/06_overflow_problem_in_past.sol\":90:122  uint8 public account_balance = 0 */\n    tag_10:\n      0x0\n      dup1\n      swap1\n      sload\n      swap1\n      0x100\n      exp\n      swap1\n      div\n      0xff\n      and\n      dup2\n      jump\t// out\n\n    auxdata: 0xa165627a7a7230582039711fa2e924c7e90842ccaf2cbbc4de70546740c98f371929af15983d23a88e0029\n}\n",
				"bytecode": {
					"linkReferences": {},
					"object": "608060405260008060006101000a81548160ff021916908360ff16021790555034801561002b57600080fd5b5060f78061003a6000396000f3fe6080604052600436106049576000357c0100000000000000000000000000000000000000000000000000000000900463ffffffff1680632c6b06fa14604e578063c08b9399146088575b600080fd5b348015605957600080fd5b50608660048036036020811015606e57600080fd5b81019080803560ff16906020019092919050505060b6565b005b348015609357600080fd5b50609a60b9565b604051808260ff1660ff16815260200191505060405180910390f35b50565b6000809054906101000a900460ff168156fea165627a7a7230582039711fa2e924c7e90842ccaf2cbbc4de70546740c98f371929af15983d23a88e0029",
					"opcodes": "PUSH1 0x80 PUSH1 0x40 MSTORE PUSH1 0x0 DUP1 PUSH1 0x0 PUSH2 0x100 EXP DUP2 SLOAD DUP2 PUSH1 0xFF MUL NOT AND SWAP1 DUP4 PUSH1 0xFF AND MUL OR SWAP1 SSTORE POP CALLVALUE DUP1 ISZERO PUSH2 0x2B JUMPI PUSH1 0x0 DUP1 REVERT JUMPDEST POP PUSH1 0xF7 DUP1 PUSH2 0x3A PUSH1 0x0 CODECOPY PUSH1 0x0 RETURN INVALID PUSH1 0x80 PUSH1 0x40 MSTORE PUSH1 0x4 CALLDATASIZE LT PUSH1 0x49 JUMPI PUSH1 0x0 CALLDATALOAD PUSH29 0x100000000000000000000000000000000000000000000000000000000 SWAP1 DIV PUSH4 0xFFFFFFFF AND DUP1 PUSH4 0x2C6B06FA EQ PUSH1 0x4E JUMPI DUP1 PUSH4 0xC08B9399 EQ PUSH1 0x88 JUMPI JUMPDEST PUSH1 0x0 DUP1 REVERT JUMPDEST CALLVALUE DUP1 ISZERO PUSH1 0x59 JUMPI PUSH1 0x0 DUP1 REVERT JUMPDEST POP PUSH1 0x86 PUSH1 0x4 DUP1 CALLDATASIZE SUB PUSH1 0x20 DUP2 LT ISZERO PUSH1 0x6E JUMPI PUSH1 0x0 DUP1 REVERT JUMPDEST DUP2 ADD SWAP1 DUP1 DUP1 CALLDATALOAD PUSH1 0xFF AND SWAP1 PUSH1 0x20 ADD SWAP1 SWAP3 SWAP2 SWAP1 POP POP POP PUSH1 0xB6 JUMP JUMPDEST STOP JUMPDEST CALLVALUE DUP1 ISZERO PUSH1 0x93 JUMPI PUSH1 0x0 DUP1 REVERT JUMPDEST POP PUSH1 0x9A PUSH1 0xB9 JUMP JUMPDEST PUSH1 0x40 MLOAD DUP1 DUP3 PUSH1 0xFF AND PUSH1 0xFF AND DUP2 MSTORE PUSH1 0x20 ADD SWAP2 POP POP PUSH1 0x40 MLOAD DUP1 SWAP2 SUB SWAP1 RETURN JUMPDEST POP JUMP JUMPDEST PUSH1 0x0 DUP1 SWAP1 SLOAD SWAP1 PUSH2 0x100 EXP SWAP1 DIV PUSH1 0xFF AND DUP2 JUMP INVALID LOG1 PUSH6 0x627A7A723058 KECCAK256 CODECOPY PUSH18 0x1FA2E924C7E90842CCAF2CBBC4DE70546740 0xc9 DUP16 CALLDATACOPY NOT 0x29 0xaf ISZERO SWAP9 RETURNDATASIZE 0x23 0xa8 DUP15 STOP 0x29 "
				},
				"gasEstimates": {
					"creation": {
						"codeDepositCost": "49400",
						"executionCost": "20366",
						"totalCost": "69766"
					},
					"external": {
						"account_balance()": "464",
						"add_money(uint8)": "223"
					}
				},
				"methodIdentifiers": {
					"account_balance()": "c08b9399",
					"add_money(uint8)": "2c6b06fa"
				}
			},
			"userdoc": {
				"methods": {}
			}
		}
	}
}