{
	"Learning_Concepts/09_byte_array.sol": {
		"Demo": {
			"abi": [
				{
					"constant": true,
					"inputs": [],
					"name": "b2",
					"outputs": [
						{
							"name": "",
							"type": "bytes2"
						}
					],
					"payable": false,
					"stateMutability": "view",
					"type": "function"
				},
				{
					"constant": false,
					"inputs": [],
					"name": "setter",
					"outputs": [],
					"payable": false,
					"stateMutability": "nonpayable",
					"type": "function"
				},
				{
					"constant": true,
					"inputs": [],
					"name": "b3",
					"outputs": [
						{
							"name": "",
							"type": "bytes3"
						}
					],
					"payable": false,
					"stateMutability": "view",
					"type": "function"
				}
			],
			"devdoc": {
				"methods": {}
			},
			"evm": {
				"assembly": "    /* \"Learning_Concepts/09_byte_array.sol\":75:258  contract Demo {\r... */\n  mstore(0x40, 0x80)\n  callvalue\n    /* \"--CODEGEN--\":8:17   */\n  dup1\n    /* \"--CODEGEN--\":5:7   */\n  iszero\n  tag_1\n  jumpi\n    /* \"--CODEGEN--\":30:31   */\n  0x0\n    /* \"--CODEGEN--\":27:28   */\n  dup1\n    /* \"--CODEGEN--\":20:32   */\n  revert\n    /* \"--CODEGEN--\":5:7   */\ntag_1:\n    /* \"Learning_Concepts/09_byte_array.sol\":75:258  contract Demo {\r... */\n  pop\n  dataSize(sub_0)\n  dup1\n  dataOffset(sub_0)\n  0x0\n  codecopy\n  0x0\n  return\nstop\n\nsub_0: assembly {\n        /* \"Learning_Concepts/09_byte_array.sol\":75:258  contract Demo {\r... */\n      mstore(0x40, 0x80)\n      jumpi(tag_1, lt(calldatasize, 0x4))\n      calldataload(0x0)\n      0x100000000000000000000000000000000000000000000000000000000\n      swap1\n      div\n      0xffffffff\n      and\n      dup1\n      0xadd6ef2\n      eq\n      tag_2\n      jumpi\n      dup1\n      0x3f3108f7\n      eq\n      tag_3\n      jumpi\n      dup1\n      0xe9b61909\n      eq\n      tag_4\n      jumpi\n    tag_1:\n      0x0\n      dup1\n      revert\n        /* \"Learning_Concepts/09_byte_array.sol\":124:140  bytes2 public b2 */\n    tag_2:\n      callvalue\n        /* \"--CODEGEN--\":8:17   */\n      dup1\n        /* \"--CODEGEN--\":5:7   */\n      iszero\n      tag_5\n      jumpi\n        /* \"--CODEGEN--\":30:31   */\n      0x0\n        /* \"--CODEGEN--\":27:28   */\n      dup1\n        /* \"--CODEGEN--\":20:32   */\n      revert\n        /* \"--CODEGEN--\":5:7   */\n    tag_5:\n        /* \"Learning_Concepts/09_byte_array.sol\":124:140  bytes2 public b2 */\n      pop\n      tag_6\n      jump(tag_7)\n    tag_6:\n      mload(0x40)\n      dup1\n      dup3\n      not(0xffffffffffffffffffffffffffffffffffffffffffffffffffffffffffff)\n      and\n      not(0xffffffffffffffffffffffffffffffffffffffffffffffffffffffffffff)\n      and\n      dup2\n      mstore\n      0x20\n      add\n      swap2\n      pop\n      pop\n      mload(0x40)\n      dup1\n      swap2\n      sub\n      swap1\n      return\n        /* \"Learning_Concepts/09_byte_array.sol\":181:255  function setter() public {\r... */\n    tag_3:\n      callvalue\n        /* \"--CODEGEN--\":8:17   */\n      dup1\n        /* \"--CODEGEN--\":5:7   */\n      iszero\n      tag_8\n      jumpi\n        /* \"--CODEGEN--\":30:31   */\n      0x0\n        /* \"--CODEGEN--\":27:28   */\n      dup1\n        /* \"--CODEGEN--\":20:32   */\n      revert\n        /* \"--CODEGEN--\":5:7   */\n    tag_8:\n        /* \"Learning_Concepts/09_byte_array.sol\":181:255  function setter() public {\r... */\n      pop\n      tag_9\n      jump(tag_10)\n    tag_9:\n      stop\n        /* \"Learning_Concepts/09_byte_array.sol\":156:172  bytes3 public b3 */\n    tag_4:\n      callvalue\n        /* \"--CODEGEN--\":8:17   */\n      dup1\n        /* \"--CODEGEN--\":5:7   */\n      iszero\n      tag_11\n      jumpi\n        /* \"--CODEGEN--\":30:31   */\n      0x0\n        /* \"--CODEGEN--\":27:28   */\n      dup1\n        /* \"--CODEGEN--\":20:32   */\n      revert\n        /* \"--CODEGEN--\":5:7   */\n    tag_11:\n        /* \"Learning_Concepts/09_byte_array.sol\":156:172  bytes3 public b3 */\n      pop\n      tag_12\n      jump(tag_13)\n    tag_12:\n      mload(0x40)\n      dup1\n      dup3\n      not(0xffffffffffffffffffffffffffffffffffffffffffffffffffffffffff)\n      and\n      not(0xffffffffffffffffffffffffffffffffffffffffffffffffffffffffff)\n      and\n      dup2\n      mstore\n      0x20\n      add\n      swap2\n      pop\n      pop\n      mload(0x40)\n      dup1\n      swap2\n      sub\n      swap1\n      return\n        /* \"Learning_Concepts/09_byte_array.sol\":124:140  bytes2 public b2 */\n    tag_7:\n      0x0\n      dup1\n      swap1\n      sload\n      swap1\n      0x100\n      exp\n      swap1\n      div\n      0x1000000000000000000000000000000000000000000000000000000000000\n      mul\n      dup2\n      jump\t// out\n        /* \"Learning_Concepts/09_byte_array.sol\":181:255  function setter() public {\r... */\n    tag_10:\n        /* \"Learning_Concepts/09_byte_array.sol\":217:226  b2 = \"ab\" */\n      0x6162000000000000000000000000000000000000000000000000000000000000\n        /* \"Learning_Concepts/09_byte_array.sol\":217:219  b2 */\n      0x0\n      dup1\n        /* \"Learning_Concepts/09_byte_array.sol\":217:226  b2 = \"ab\" */\n      0x100\n      exp\n      dup2\n      sload\n      dup2\n      0xffff\n      mul\n      not\n      and\n      swap1\n      dup4\n      0x1000000000000000000000000000000000000000000000000000000000000\n      swap1\n      div\n      mul\n      or\n      swap1\n      sstore\n      pop\n        /* \"Learning_Concepts/09_byte_array.sol\":237:247  b3 = \"abc\" */\n      0x6162630000000000000000000000000000000000000000000000000000000000\n        /* \"Learning_Concepts/09_byte_array.sol\":237:239  b3 */\n      0x0\n      0x2\n        /* \"Learning_Concepts/09_byte_array.sol\":237:247  b3 = \"abc\" */\n      0x100\n      exp\n      dup2\n      sload\n      dup2\n      0xffffff\n      mul\n      not\n      and\n      swap1\n      dup4\n      0x10000000000000000000000000000000000000000000000000000000000\n      swap1\n      div\n      mul\n      or\n      swap1\n      sstore\n      pop\n        /* \"Learning_Concepts/09_byte_array.sol\":181:255  function setter() public {\r... */\n      jump\t// out\n        /* \"Learning_Concepts/09_byte_array.sol\":156:172  bytes3 public b3 */\n    tag_13:\n      0x0\n      0x2\n      swap1\n      sload\n      swap1\n      0x100\n      exp\n      swap1\n      div\n      0x10000000000000000000000000000000000000000000000000000000000\n      mul\n      dup2\n      jump\t// out\n\n    auxdata: 0xa165627a7a7230582063b6079bad3d9853a8fc6836f3d5c0e538395eea02783434e492099e06da0af80029\n}\n",
				"bytecode": {
					"linkReferences": {},
					"object": "608060405234801561001057600080fd5b5061028e806100206000396000f3fe608060405260043610610057576000357c0100000000000000000000000000000000000000000000000000000000900463ffffffff1680630add6ef21461005c5780633f3108f7146100c9578063e9b61909146100e0575b600080fd5b34801561006857600080fd5b5061007161014b565b60405180827dffffffffffffffffffffffffffffffffffffffffffffffffffffffffffff19167dffffffffffffffffffffffffffffffffffffffffffffffffffffffffffff1916815260200191505060405180910390f35b3480156100d557600080fd5b506100de61017b565b005b3480156100ec57600080fd5b506100f5610232565b60405180827cffffffffffffffffffffffffffffffffffffffffffffffffffffffffff19167cffffffffffffffffffffffffffffffffffffffffffffffffffffffffff1916815260200191505060405180910390f35b6000809054906101000a90047e010000000000000000000000000000000000000000000000000000000000000281565b7f61620000000000000000000000000000000000000000000000000000000000006000806101000a81548161ffff02191690837e01000000000000000000000000000000000000000000000000000000000000900402179055507f6162630000000000000000000000000000000000000000000000000000000000600060026101000a81548162ffffff02191690837d01000000000000000000000000000000000000000000000000000000000090040217905550565b600060029054906101000a90047d010000000000000000000000000000000000000000000000000000000000028156fea165627a7a7230582063b6079bad3d9853a8fc6836f3d5c0e538395eea02783434e492099e06da0af80029",
					"opcodes": "PUSH1 0x80 PUSH1 0x40 MSTORE CALLVALUE DUP1 ISZERO PUSH2 0x10 JUMPI PUSH1 0x0 DUP1 REVERT JUMPDEST POP PUSH2 0x28E DUP1 PUSH2 0x20 PUSH1 0x0 CODECOPY PUSH1 0x0 RETURN INVALID PUSH1 0x80 PUSH1 0x40 MSTORE PUSH1 0x4 CALLDATASIZE LT PUSH2 0x57 JUMPI PUSH1 0x0 CALLDATALOAD PUSH29 0x100000000000000000000000000000000000000000000000000000000 SWAP1 DIV PUSH4 0xFFFFFFFF AND DUP1 PUSH4 0xADD6EF2 EQ PUSH2 0x5C JUMPI DUP1 PUSH4 0x3F3108F7 EQ PUSH2 0xC9 JUMPI DUP1 PUSH4 0xE9B61909 EQ PUSH2 0xE0 JUMPI JUMPDEST PUSH1 0x0 DUP1 REVERT JUMPDEST CALLVALUE DUP1 ISZERO PUSH2 0x68 JUMPI PUSH1 0x0 DUP1 REVERT JUMPDEST POP PUSH2 0x71 PUSH2 0x14B JUMP JUMPDEST PUSH1 0x40 MLOAD DUP1 DUP3 PUSH30 0xFFFFFFFFFFFFFFFFFFFFFFFFFFFFFFFFFFFFFFFFFFFFFFFFFFFFFFFFFFFF NOT AND PUSH30 0xFFFFFFFFFFFFFFFFFFFFFFFFFFFFFFFFFFFFFFFFFFFFFFFFFFFFFFFFFFFF NOT AND DUP2 MSTORE PUSH1 0x20 ADD SWAP2 POP POP PUSH1 0x40 MLOAD DUP1 SWAP2 SUB SWAP1 RETURN JUMPDEST CALLVALUE DUP1 ISZERO PUSH2 0xD5 JUMPI PUSH1 0x0 DUP1 REVERT JUMPDEST POP PUSH2 0xDE PUSH2 0x17B JUMP JUMPDEST STOP JUMPDEST CALLVALUE DUP1 ISZERO PUSH2 0xEC JUMPI PUSH1 0x0 DUP1 REVERT JUMPDEST POP PUSH2 0xF5 PUSH2 0x232 JUMP JUMPDEST PUSH1 0x40 MLOAD DUP1 DUP3 PUSH29 0xFFFFFFFFFFFFFFFFFFFFFFFFFFFFFFFFFFFFFFFFFFFFFFFFFFFFFFFFFF NOT AND PUSH29 0xFFFFFFFFFFFFFFFFFFFFFFFFFFFFFFFFFFFFFFFFFFFFFFFFFFFFFFFFFF NOT AND DUP2 MSTORE PUSH1 0x20 ADD SWAP2 POP POP PUSH1 0x40 MLOAD DUP1 SWAP2 SUB SWAP1 RETURN JUMPDEST PUSH1 0x0 DUP1 SWAP1 SLOAD SWAP1 PUSH2 0x100 EXP SWAP1 DIV PUSH31 0x1000000000000000000000000000000000000000000000000000000000000 MUL DUP2 JUMP JUMPDEST PUSH32 0x6162000000000000000000000000000000000000000000000000000000000000 PUSH1 0x0 DUP1 PUSH2 0x100 EXP DUP2 SLOAD DUP2 PUSH2 0xFFFF MUL NOT AND SWAP1 DUP4 PUSH31 0x1000000000000000000000000000000000000000000000000000000000000 SWAP1 DIV MUL OR SWAP1 SSTORE POP PUSH32 0x6162630000000000000000000000000000000000000000000000000000000000 PUSH1 0x0 PUSH1 0x2 PUSH2 0x100 EXP DUP2 SLOAD DUP2 PUSH3 0xFFFFFF MUL NOT AND SWAP1 DUP4 PUSH30 0x10000000000000000000000000000000000000000000000000000000000 SWAP1 DIV MUL OR SWAP1 SSTORE POP JUMP JUMPDEST PUSH1 0x0 PUSH1 0x2 SWAP1 SLOAD SWAP1 PUSH2 0x100 EXP SWAP1 DIV PUSH30 0x10000000000000000000000000000000000000000000000000000000000 MUL DUP2 JUMP INVALID LOG1 PUSH6 0x627A7A723058 KECCAK256 PUSH4 0xB6079BAD RETURNDATASIZE SWAP9 MSTORE8 0xa8 0xfc PUSH9 0x36F3D5C0E538395EEA MUL PUSH25 0x3434E492099E06DA0AF8002900000000000000000000000000 "
				},
				"gasEstimates": {
					"creation": {
						"codeDepositCost": "130800",
						"executionCost": "177",
						"totalCost": "130977"
					},
					"external": {
						"b2()": "450",
						"b3()": "544",
						"setter()": "40749"
					}
				},
				"methodIdentifiers": {
					"b2()": "0add6ef2",
					"b3()": "e9b61909",
					"setter()": "3f3108f7"
				}
			},
			"userdoc": {
				"methods": {}
			}
		}
	}
}