{
	"Learning_Concepts/14_structure.sol": {
		"studentDemo": {
			"abi": [
				{
					"inputs": [],
					"name": "s1",
					"outputs": [
						{
							"internalType": "string",
							"name": "name",
							"type": "string"
						},
						{
							"internalType": "uint256",
							"name": "roll",
							"type": "uint256"
						}
					],
					"stateMutability": "view",
					"type": "function"
				},
				{
					"inputs": [
						{
							"internalType": "string",
							"name": "_name",
							"type": "string"
						},
						{
							"internalType": "uint256",
							"name": "_roll",
							"type": "uint256"
						}
					],
					"name": "set_student",
					"outputs": [],
					"stateMutability": "nonpayable",
					"type": "function"
				}
			],
			"devdoc": {
				"kind": "dev",
				"methods": {},
				"version": 1
			},
			"evm": {
				"assembly": "    /* \"Learning_Concepts/14_structure.sol\":226:404  contract studentDemo {\r... */\n  mstore(0x40, 0x80)\n  callvalue\n  dup1\n  iszero\n  tag_1\n  jumpi\n  0x00\n  dup1\n  revert\ntag_1:\n  pop\n  dataSize(sub_0)\n  dup1\n  dataOffset(sub_0)\n  0x00\n  codecopy\n  0x00\n  return\nstop\n\nsub_0: assembly {\n        /* \"Learning_Concepts/14_structure.sol\":226:404  contract studentDemo {\r... */\n      mstore(0x40, 0x80)\n      callvalue\n      dup1\n      iszero\n      tag_1\n      jumpi\n      0x00\n      dup1\n      revert\n    tag_1:\n      pop\n      jumpi(tag_2, lt(calldatasize, 0x04))\n      shr(0xe0, calldataload(0x00))\n      dup1\n      0x6cc014de\n      eq\n      tag_3\n      jumpi\n      dup1\n      0x9eec7ca9\n      eq\n      tag_4\n      jumpi\n    tag_2:\n      0x00\n      dup1\n      revert\n        /* \"Learning_Concepts/14_structure.sol\":254:271  Student public s1 */\n    tag_3:\n      tag_5\n      tag_6\n      jump\t// in\n    tag_5:\n      mload(0x40)\n      tag_7\n      swap3\n      swap2\n      swap1\n      tag_8\n      jump\t// in\n    tag_7:\n      mload(0x40)\n      dup1\n      swap2\n      sub\n      swap1\n      return\n        /* \"Learning_Concepts/14_structure.sol\":280:401  function set_student(string memory _name, uint _roll) public {\r... */\n    tag_4:\n      tag_9\n      0x04\n      dup1\n      calldatasize\n      sub\n      dup2\n      add\n      swap1\n      tag_10\n      swap2\n      swap1\n      tag_11\n      jump\t// in\n    tag_10:\n      tag_12\n      jump\t// in\n    tag_9:\n      stop\n        /* \"Learning_Concepts/14_structure.sol\":254:271  Student public s1 */\n    tag_6:\n      0x00\n      dup1\n      0x00\n      add\n      dup1\n      sload\n      tag_13\n      swap1\n      tag_14\n      jump\t// in\n    tag_13:\n      dup1\n      0x1f\n      add\n      0x20\n      dup1\n      swap2\n      div\n      mul\n      0x20\n      add\n      mload(0x40)\n      swap1\n      dup2\n      add\n      0x40\n      mstore\n      dup1\n      swap3\n      swap2\n      swap1\n      dup2\n      dup2\n      mstore\n      0x20\n      add\n      dup3\n      dup1\n      sload\n      tag_15\n      swap1\n      tag_14\n      jump\t// in\n    tag_15:\n      dup1\n      iszero\n      tag_16\n      jumpi\n      dup1\n      0x1f\n      lt\n      tag_17\n      jumpi\n      0x0100\n      dup1\n      dup4\n      sload\n      div\n      mul\n      dup4\n      mstore\n      swap2\n      0x20\n      add\n      swap2\n      jump(tag_16)\n    tag_17:\n      dup3\n      add\n      swap2\n      swap1\n      0x00\n      mstore\n      keccak256(0x00, 0x20)\n      swap1\n    tag_18:\n      dup2\n      sload\n      dup2\n      mstore\n      swap1\n      0x01\n      add\n      swap1\n      0x20\n      add\n      dup1\n      dup4\n      gt\n      tag_18\n      jumpi\n      dup3\n      swap1\n      sub\n      0x1f\n      and\n      dup3\n      add\n      swap2\n    tag_16:\n      pop\n      pop\n      pop\n      pop\n      pop\n      swap1\n      dup1\n      0x01\n      add\n      sload\n      swap1\n      pop\n      dup3\n      jump\t// out\n        /* \"Learning_Concepts/14_structure.sol\":280:401  function set_student(string memory _name, uint _roll) public {\r... */\n    tag_12:\n        /* \"Learning_Concepts/14_structure.sol\":362:367  _name */\n      dup2\n        /* \"Learning_Concepts/14_structure.sol\":352:354  s1 */\n      0x00\n        /* \"Learning_Concepts/14_structure.sol\":352:359  s1.name */\n      dup1\n      add\n        /* \"Learning_Concepts/14_structure.sol\":352:367  s1.name = _name */\n      swap1\n      dup1\n      mload\n      swap1\n      0x20\n      add\n      swap1\n      tag_20\n      swap3\n      swap2\n      swap1\n      tag_21\n      jump\t// in\n    tag_20:\n      pop\n        /* \"Learning_Concepts/14_structure.sol\":388:393  _roll */\n      dup1\n        /* \"Learning_Concepts/14_structure.sol\":378:380  s1 */\n      0x00\n        /* \"Learning_Concepts/14_structure.sol\":378:385  s1.roll */\n      0x01\n      add\n        /* \"Learning_Concepts/14_structure.sol\":378:393  s1.roll = _roll */\n      dup2\n      swap1\n      sstore\n      pop\n        /* \"Learning_Concepts/14_structure.sol\":280:401  function set_student(string memory _name, uint _roll) public {\r... */\n      pop\n      pop\n      jump\t// out\n    tag_21:\n      dup3\n      dup1\n      sload\n      tag_22\n      swap1\n      tag_14\n      jump\t// in\n    tag_22:\n      swap1\n      0x00\n      mstore\n      keccak256(0x00, 0x20)\n      swap1\n      0x1f\n      add\n      0x20\n      swap1\n      div\n      dup2\n      add\n      swap3\n      dup3\n      tag_24\n      jumpi\n      0x00\n      dup6\n      sstore\n      jump(tag_23)\n    tag_24:\n      dup3\n      0x1f\n      lt\n      tag_25\n      jumpi\n      dup1\n      mload\n      not(0xff)\n      and\n      dup4\n      dup1\n      add\n      or\n      dup6\n      sstore\n      jump(tag_23)\n    tag_25:\n      dup3\n      dup1\n      add\n      0x01\n      add\n      dup6\n      sstore\n      dup3\n      iszero\n      tag_23\n      jumpi\n      swap2\n      dup3\n      add\n    tag_26:\n      dup3\n      dup2\n      gt\n      iszero\n      tag_27\n      jumpi\n      dup3\n      mload\n      dup3\n      sstore\n      swap2\n      0x20\n      add\n      swap2\n      swap1\n      0x01\n      add\n      swap1\n      jump(tag_26)\n    tag_27:\n    tag_23:\n      pop\n      swap1\n      pop\n      tag_28\n      swap2\n      swap1\n      tag_29\n      jump\t// in\n    tag_28:\n      pop\n      swap1\n      jump\t// out\n    tag_29:\n    tag_30:\n      dup1\n      dup3\n      gt\n      iszero\n      tag_31\n      jumpi\n      0x00\n      dup2\n      0x00\n      swap1\n      sstore\n      pop\n      0x01\n      add\n      jump(tag_30)\n    tag_31:\n      pop\n      swap1\n      jump\t// out\n        /* \"#utility.yul\":7:419   */\n    tag_33:\n        /* \"#utility.yul\":85:90   */\n      0x00\n        /* \"#utility.yul\":110:176   */\n      tag_35\n        /* \"#utility.yul\":126:175   */\n      tag_36\n        /* \"#utility.yul\":168:174   */\n      dup5\n        /* \"#utility.yul\":126:175   */\n      tag_37\n      jump\t// in\n    tag_36:\n        /* \"#utility.yul\":110:176   */\n      tag_38\n      jump\t// in\n    tag_35:\n        /* \"#utility.yul\":101:176   */\n      swap1\n      pop\n        /* \"#utility.yul\":199:205   */\n      dup3\n        /* \"#utility.yul\":192:197   */\n      dup2\n        /* \"#utility.yul\":185:206   */\n      mstore\n        /* \"#utility.yul\":237:241   */\n      0x20\n        /* \"#utility.yul\":230:235   */\n      dup2\n        /* \"#utility.yul\":226:242   */\n      add\n        /* \"#utility.yul\":275:278   */\n      dup5\n        /* \"#utility.yul\":266:272   */\n      dup5\n        /* \"#utility.yul\":261:264   */\n      dup5\n        /* \"#utility.yul\":257:273   */\n      add\n        /* \"#utility.yul\":254:279   */\n      gt\n        /* \"#utility.yul\":251:363   */\n      iszero\n      tag_39\n      jumpi\n        /* \"#utility.yul\":282:361   */\n      tag_40\n      tag_41\n      jump\t// in\n    tag_40:\n        /* \"#utility.yul\":251:363   */\n    tag_39:\n        /* \"#utility.yul\":372:413   */\n      tag_42\n        /* \"#utility.yul\":406:412   */\n      dup5\n        /* \"#utility.yul\":401:404   */\n      dup3\n        /* \"#utility.yul\":396:399   */\n      dup6\n        /* \"#utility.yul\":372:413   */\n      tag_43\n      jump\t// in\n    tag_42:\n        /* \"#utility.yul\":91:419   */\n      pop\n        /* \"#utility.yul\":7:419   */\n      swap4\n      swap3\n      pop\n      pop\n      pop\n      jump\t// out\n        /* \"#utility.yul\":439:779   */\n    tag_44:\n        /* \"#utility.yul\":495:500   */\n      0x00\n        /* \"#utility.yul\":544:547   */\n      dup3\n        /* \"#utility.yul\":537:541   */\n      0x1f\n        /* \"#utility.yul\":529:535   */\n      dup4\n        /* \"#utility.yul\":525:542   */\n      add\n        /* \"#utility.yul\":521:548   */\n      slt\n        /* \"#utility.yul\":511:633   */\n      tag_46\n      jumpi\n        /* \"#utility.yul\":552:631   */\n      tag_47\n      tag_48\n      jump\t// in\n    tag_47:\n        /* \"#utility.yul\":511:633   */\n    tag_46:\n        /* \"#utility.yul\":669:675   */\n      dup2\n        /* \"#utility.yul\":656:676   */\n      calldataload\n        /* \"#utility.yul\":694:773   */\n      tag_49\n        /* \"#utility.yul\":769:772   */\n      dup5\n        /* \"#utility.yul\":761:767   */\n      dup3\n        /* \"#utility.yul\":754:758   */\n      0x20\n        /* \"#utility.yul\":746:752   */\n      dup7\n        /* \"#utility.yul\":742:759   */\n      add\n        /* \"#utility.yul\":694:773   */\n      tag_33\n      jump\t// in\n    tag_49:\n        /* \"#utility.yul\":685:773   */\n      swap2\n      pop\n        /* \"#utility.yul\":501:779   */\n      pop\n        /* \"#utility.yul\":439:779   */\n      swap3\n      swap2\n      pop\n      pop\n      jump\t// out\n        /* \"#utility.yul\":785:924   */\n    tag_50:\n        /* \"#utility.yul\":831:836   */\n      0x00\n        /* \"#utility.yul\":869:875   */\n      dup2\n        /* \"#utility.yul\":856:876   */\n      calldataload\n        /* \"#utility.yul\":847:876   */\n      swap1\n      pop\n        /* \"#utility.yul\":885:918   */\n      tag_52\n        /* \"#utility.yul\":912:917   */\n      dup2\n        /* \"#utility.yul\":885:918   */\n      tag_53\n      jump\t// in\n    tag_52:\n        /* \"#utility.yul\":785:924   */\n      swap3\n      swap2\n      pop\n      pop\n      jump\t// out\n        /* \"#utility.yul\":930:1584   */\n    tag_11:\n        /* \"#utility.yul\":1008:1014   */\n      0x00\n        /* \"#utility.yul\":1016:1022   */\n      dup1\n        /* \"#utility.yul\":1065:1067   */\n      0x40\n        /* \"#utility.yul\":1053:1062   */\n      dup4\n        /* \"#utility.yul\":1044:1051   */\n      dup6\n        /* \"#utility.yul\":1040:1063   */\n      sub\n        /* \"#utility.yul\":1036:1068   */\n      slt\n        /* \"#utility.yul\":1033:1152   */\n      iszero\n      tag_55\n      jumpi\n        /* \"#utility.yul\":1071:1150   */\n      tag_56\n      tag_57\n      jump\t// in\n    tag_56:\n        /* \"#utility.yul\":1033:1152   */\n    tag_55:\n        /* \"#utility.yul\":1219:1220   */\n      0x00\n        /* \"#utility.yul\":1208:1217   */\n      dup4\n        /* \"#utility.yul\":1204:1221   */\n      add\n        /* \"#utility.yul\":1191:1222   */\n      calldataload\n        /* \"#utility.yul\":1249:1267   */\n      0xffffffffffffffff\n        /* \"#utility.yul\":1241:1247   */\n      dup2\n        /* \"#utility.yul\":1238:1268   */\n      gt\n        /* \"#utility.yul\":1235:1352   */\n      iszero\n      tag_58\n      jumpi\n        /* \"#utility.yul\":1271:1350   */\n      tag_59\n      tag_60\n      jump\t// in\n    tag_59:\n        /* \"#utility.yul\":1235:1352   */\n    tag_58:\n        /* \"#utility.yul\":1376:1439   */\n      tag_61\n        /* \"#utility.yul\":1431:1438   */\n      dup6\n        /* \"#utility.yul\":1422:1428   */\n      dup3\n        /* \"#utility.yul\":1411:1420   */\n      dup7\n        /* \"#utility.yul\":1407:1429   */\n      add\n        /* \"#utility.yul\":1376:1439   */\n      tag_44\n      jump\t// in\n    tag_61:\n        /* \"#utility.yul\":1366:1439   */\n      swap3\n      pop\n        /* \"#utility.yul\":1162:1449   */\n      pop\n        /* \"#utility.yul\":1488:1490   */\n      0x20\n        /* \"#utility.yul\":1514:1567   */\n      tag_62\n        /* \"#utility.yul\":1559:1566   */\n      dup6\n        /* \"#utility.yul\":1550:1556   */\n      dup3\n        /* \"#utility.yul\":1539:1548   */\n      dup7\n        /* \"#utility.yul\":1535:1557   */\n      add\n        /* \"#utility.yul\":1514:1567   */\n      tag_50\n      jump\t// in\n    tag_62:\n        /* \"#utility.yul\":1504:1567   */\n      swap2\n      pop\n        /* \"#utility.yul\":1459:1577   */\n      pop\n        /* \"#utility.yul\":930:1584   */\n      swap3\n      pop\n      swap3\n      swap1\n      pop\n      jump\t// out\n        /* \"#utility.yul\":1590:1954   */\n    tag_63:\n        /* \"#utility.yul\":1678:1681   */\n      0x00\n        /* \"#utility.yul\":1706:1745   */\n      tag_65\n        /* \"#utility.yul\":1739:1744   */\n      dup3\n        /* \"#utility.yul\":1706:1745   */\n      tag_66\n      jump\t// in\n    tag_65:\n        /* \"#utility.yul\":1761:1832   */\n      tag_67\n        /* \"#utility.yul\":1825:1831   */\n      dup2\n        /* \"#utility.yul\":1820:1823   */\n      dup6\n        /* \"#utility.yul\":1761:1832   */\n      tag_68\n      jump\t// in\n    tag_67:\n        /* \"#utility.yul\":1754:1832   */\n      swap4\n      pop\n        /* \"#utility.yul\":1841:1893   */\n      tag_69\n        /* \"#utility.yul\":1886:1892   */\n      dup2\n        /* \"#utility.yul\":1881:1884   */\n      dup6\n        /* \"#utility.yul\":1874:1878   */\n      0x20\n        /* \"#utility.yul\":1867:1872   */\n      dup7\n        /* \"#utility.yul\":1863:1879   */\n      add\n        /* \"#utility.yul\":1841:1893   */\n      tag_70\n      jump\t// in\n    tag_69:\n        /* \"#utility.yul\":1918:1947   */\n      tag_71\n        /* \"#utility.yul\":1940:1946   */\n      dup2\n        /* \"#utility.yul\":1918:1947   */\n      tag_72\n      jump\t// in\n    tag_71:\n        /* \"#utility.yul\":1913:1916   */\n      dup5\n        /* \"#utility.yul\":1909:1948   */\n      add\n        /* \"#utility.yul\":1902:1948   */\n      swap2\n      pop\n        /* \"#utility.yul\":1682:1954   */\n      pop\n        /* \"#utility.yul\":1590:1954   */\n      swap3\n      swap2\n      pop\n      pop\n      jump\t// out\n        /* \"#utility.yul\":1960:2078   */\n    tag_73:\n        /* \"#utility.yul\":2047:2071   */\n      tag_75\n        /* \"#utility.yul\":2065:2070   */\n      dup2\n        /* \"#utility.yul\":2047:2071   */\n      tag_76\n      jump\t// in\n    tag_75:\n        /* \"#utility.yul\":2042:2045   */\n      dup3\n        /* \"#utility.yul\":2035:2072   */\n      mstore\n        /* \"#utility.yul\":1960:2078   */\n      pop\n      pop\n      jump\t// out\n        /* \"#utility.yul\":2084:2507   */\n    tag_8:\n        /* \"#utility.yul\":2225:2229   */\n      0x00\n        /* \"#utility.yul\":2263:2265   */\n      0x40\n        /* \"#utility.yul\":2252:2261   */\n      dup3\n        /* \"#utility.yul\":2248:2266   */\n      add\n        /* \"#utility.yul\":2240:2266   */\n      swap1\n      pop\n        /* \"#utility.yul\":2312:2321   */\n      dup2\n        /* \"#utility.yul\":2306:2310   */\n      dup2\n        /* \"#utility.yul\":2302:2322   */\n      sub\n        /* \"#utility.yul\":2298:2299   */\n      0x00\n        /* \"#utility.yul\":2287:2296   */\n      dup4\n        /* \"#utility.yul\":2283:2300   */\n      add\n        /* \"#utility.yul\":2276:2323   */\n      mstore\n        /* \"#utility.yul\":2340:2418   */\n      tag_78\n        /* \"#utility.yul\":2413:2417   */\n      dup2\n        /* \"#utility.yul\":2404:2410   */\n      dup6\n        /* \"#utility.yul\":2340:2418   */\n      tag_63\n      jump\t// in\n    tag_78:\n        /* \"#utility.yul\":2332:2418   */\n      swap1\n      pop\n        /* \"#utility.yul\":2428:2500   */\n      tag_79\n        /* \"#utility.yul\":2496:2498   */\n      0x20\n        /* \"#utility.yul\":2485:2494   */\n      dup4\n        /* \"#utility.yul\":2481:2499   */\n      add\n        /* \"#utility.yul\":2472:2478   */\n      dup5\n        /* \"#utility.yul\":2428:2500   */\n      tag_73\n      jump\t// in\n    tag_79:\n        /* \"#utility.yul\":2084:2507   */\n      swap4\n      swap3\n      pop\n      pop\n      pop\n      jump\t// out\n        /* \"#utility.yul\":2513:2642   */\n    tag_38:\n        /* \"#utility.yul\":2547:2553   */\n      0x00\n        /* \"#utility.yul\":2574:2594   */\n      tag_81\n      tag_82\n      jump\t// in\n    tag_81:\n        /* \"#utility.yul\":2564:2594   */\n      swap1\n      pop\n        /* \"#utility.yul\":2603:2636   */\n      tag_83\n        /* \"#utility.yul\":2631:2635   */\n      dup3\n        /* \"#utility.yul\":2623:2629   */\n      dup3\n        /* \"#utility.yul\":2603:2636   */\n      tag_84\n      jump\t// in\n    tag_83:\n        /* \"#utility.yul\":2513:2642   */\n      swap2\n      swap1\n      pop\n      jump\t// out\n        /* \"#utility.yul\":2648:2723   */\n    tag_82:\n        /* \"#utility.yul\":2681:2687   */\n      0x00\n        /* \"#utility.yul\":2714:2716   */\n      0x40\n        /* \"#utility.yul\":2708:2717   */\n      mload\n        /* \"#utility.yul\":2698:2717   */\n      swap1\n      pop\n        /* \"#utility.yul\":2648:2723   */\n      swap1\n      jump\t// out\n        /* \"#utility.yul\":2729:3037   */\n    tag_37:\n        /* \"#utility.yul\":2791:2795   */\n      0x00\n        /* \"#utility.yul\":2881:2899   */\n      0xffffffffffffffff\n        /* \"#utility.yul\":2873:2879   */\n      dup3\n        /* \"#utility.yul\":2870:2900   */\n      gt\n        /* \"#utility.yul\":2867:2923   */\n      iszero\n      tag_87\n      jumpi\n        /* \"#utility.yul\":2903:2921   */\n      tag_88\n      tag_89\n      jump\t// in\n    tag_88:\n        /* \"#utility.yul\":2867:2923   */\n    tag_87:\n        /* \"#utility.yul\":2941:2970   */\n      tag_90\n        /* \"#utility.yul\":2963:2969   */\n      dup3\n        /* \"#utility.yul\":2941:2970   */\n      tag_72\n      jump\t// in\n    tag_90:\n        /* \"#utility.yul\":2933:2970   */\n      swap1\n      pop\n        /* \"#utility.yul\":3025:3029   */\n      0x20\n        /* \"#utility.yul\":3019:3023   */\n      dup2\n        /* \"#utility.yul\":3015:3030   */\n      add\n        /* \"#utility.yul\":3007:3030   */\n      swap1\n      pop\n        /* \"#utility.yul\":2729:3037   */\n      swap2\n      swap1\n      pop\n      jump\t// out\n        /* \"#utility.yul\":3043:3142   */\n    tag_66:\n        /* \"#utility.yul\":3095:3101   */\n      0x00\n        /* \"#utility.yul\":3129:3134   */\n      dup2\n        /* \"#utility.yul\":3123:3135   */\n      mload\n        /* \"#utility.yul\":3113:3135   */\n      swap1\n      pop\n        /* \"#utility.yul\":3043:3142   */\n      swap2\n      swap1\n      pop\n      jump\t// out\n        /* \"#utility.yul\":3148:3317   */\n    tag_68:\n        /* \"#utility.yul\":3232:3243   */\n      0x00\n        /* \"#utility.yul\":3266:3272   */\n      dup3\n        /* \"#utility.yul\":3261:3264   */\n      dup3\n        /* \"#utility.yul\":3254:3273   */\n      mstore\n        /* \"#utility.yul\":3306:3310   */\n      0x20\n        /* \"#utility.yul\":3301:3304   */\n      dup3\n        /* \"#utility.yul\":3297:3311   */\n      add\n        /* \"#utility.yul\":3282:3311   */\n      swap1\n      pop\n        /* \"#utility.yul\":3148:3317   */\n      swap3\n      swap2\n      pop\n      pop\n      jump\t// out\n        /* \"#utility.yul\":3323:3400   */\n    tag_76:\n        /* \"#utility.yul\":3360:3367   */\n      0x00\n        /* \"#utility.yul\":3389:3394   */\n      dup2\n        /* \"#utility.yul\":3378:3394   */\n      swap1\n      pop\n        /* \"#utility.yul\":3323:3400   */\n      swap2\n      swap1\n      pop\n      jump\t// out\n        /* \"#utility.yul\":3406:3560   */\n    tag_43:\n        /* \"#utility.yul\":3490:3496   */\n      dup3\n        /* \"#utility.yul\":3485:3488   */\n      dup2\n        /* \"#utility.yul\":3480:3483   */\n      dup4\n        /* \"#utility.yul\":3467:3497   */\n      calldatacopy\n        /* \"#utility.yul\":3552:3553   */\n      0x00\n        /* \"#utility.yul\":3543:3549   */\n      dup4\n        /* \"#utility.yul\":3538:3541   */\n      dup4\n        /* \"#utility.yul\":3534:3550   */\n      add\n        /* \"#utility.yul\":3527:3554   */\n      mstore\n        /* \"#utility.yul\":3406:3560   */\n      pop\n      pop\n      pop\n      jump\t// out\n        /* \"#utility.yul\":3566:3873   */\n    tag_70:\n        /* \"#utility.yul\":3634:3635   */\n      0x00\n        /* \"#utility.yul\":3644:3757   */\n    tag_96:\n        /* \"#utility.yul\":3658:3664   */\n      dup4\n        /* \"#utility.yul\":3655:3656   */\n      dup2\n        /* \"#utility.yul\":3652:3665   */\n      lt\n        /* \"#utility.yul\":3644:3757   */\n      iszero\n      tag_98\n      jumpi\n        /* \"#utility.yul\":3743:3744   */\n      dup1\n        /* \"#utility.yul\":3738:3741   */\n      dup3\n        /* \"#utility.yul\":3734:3745   */\n      add\n        /* \"#utility.yul\":3728:3746   */\n      mload\n        /* \"#utility.yul\":3724:3725   */\n      dup2\n        /* \"#utility.yul\":3719:3722   */\n      dup5\n        /* \"#utility.yul\":3715:3726   */\n      add\n        /* \"#utility.yul\":3708:3747   */\n      mstore\n        /* \"#utility.yul\":3680:3682   */\n      0x20\n        /* \"#utility.yul\":3677:3678   */\n      dup2\n        /* \"#utility.yul\":3673:3683   */\n      add\n        /* \"#utility.yul\":3668:3683   */\n      swap1\n      pop\n        /* \"#utility.yul\":3644:3757   */\n      jump(tag_96)\n    tag_98:\n        /* \"#utility.yul\":3775:3781   */\n      dup4\n        /* \"#utility.yul\":3772:3773   */\n      dup2\n        /* \"#utility.yul\":3769:3782   */\n      gt\n        /* \"#utility.yul\":3766:3867   */\n      iszero\n      tag_99\n      jumpi\n        /* \"#utility.yul\":3855:3856   */\n      0x00\n        /* \"#utility.yul\":3846:3852   */\n      dup5\n        /* \"#utility.yul\":3841:3844   */\n      dup5\n        /* \"#utility.yul\":3837:3853   */\n      add\n        /* \"#utility.yul\":3830:3857   */\n      mstore\n        /* \"#utility.yul\":3766:3867   */\n    tag_99:\n        /* \"#utility.yul\":3615:3873   */\n      pop\n        /* \"#utility.yul\":3566:3873   */\n      pop\n      pop\n      pop\n      jump\t// out\n        /* \"#utility.yul\":3879:4199   */\n    tag_14:\n        /* \"#utility.yul\":3923:3929   */\n      0x00\n        /* \"#utility.yul\":3960:3961   */\n      0x02\n        /* \"#utility.yul\":3954:3958   */\n      dup3\n        /* \"#utility.yul\":3950:3962   */\n      div\n        /* \"#utility.yul\":3940:3962   */\n      swap1\n      pop\n        /* \"#utility.yul\":4007:4008   */\n      0x01\n        /* \"#utility.yul\":4001:4005   */\n      dup3\n        /* \"#utility.yul\":3997:4009   */\n      and\n        /* \"#utility.yul\":4028:4046   */\n      dup1\n        /* \"#utility.yul\":4018:4099   */\n      tag_101\n      jumpi\n        /* \"#utility.yul\":4084:4088   */\n      0x7f\n        /* \"#utility.yul\":4076:4082   */\n      dup3\n        /* \"#utility.yul\":4072:4089   */\n      and\n        /* \"#utility.yul\":4062:4089   */\n      swap2\n      pop\n        /* \"#utility.yul\":4018:4099   */\n    tag_101:\n        /* \"#utility.yul\":4146:4148   */\n      0x20\n        /* \"#utility.yul\":4138:4144   */\n      dup3\n        /* \"#utility.yul\":4135:4149   */\n      lt\n        /* \"#utility.yul\":4115:4133   */\n      dup2\n        /* \"#utility.yul\":4112:4150   */\n      eq\n        /* \"#utility.yul\":4109:4193   */\n      iszero\n      tag_102\n      jumpi\n        /* \"#utility.yul\":4165:4183   */\n      tag_103\n      tag_104\n      jump\t// in\n    tag_103:\n        /* \"#utility.yul\":4109:4193   */\n    tag_102:\n        /* \"#utility.yul\":3930:4199   */\n      pop\n        /* \"#utility.yul\":3879:4199   */\n      swap2\n      swap1\n      pop\n      jump\t// out\n        /* \"#utility.yul\":4205:4486   */\n    tag_84:\n        /* \"#utility.yul\":4288:4315   */\n      tag_106\n        /* \"#utility.yul\":4310:4314   */\n      dup3\n        /* \"#utility.yul\":4288:4315   */\n      tag_72\n      jump\t// in\n    tag_106:\n        /* \"#utility.yul\":4280:4286   */\n      dup2\n        /* \"#utility.yul\":4276:4316   */\n      add\n        /* \"#utility.yul\":4418:4424   */\n      dup2\n        /* \"#utility.yul\":4406:4416   */\n      dup2\n        /* \"#utility.yul\":4403:4425   */\n      lt\n        /* \"#utility.yul\":4382:4400   */\n      0xffffffffffffffff\n        /* \"#utility.yul\":4370:4380   */\n      dup3\n        /* \"#utility.yul\":4367:4401   */\n      gt\n        /* \"#utility.yul\":4364:4426   */\n      or\n        /* \"#utility.yul\":4361:4449   */\n      iszero\n      tag_107\n      jumpi\n        /* \"#utility.yul\":4429:4447   */\n      tag_108\n      tag_89\n      jump\t// in\n    tag_108:\n        /* \"#utility.yul\":4361:4449   */\n    tag_107:\n        /* \"#utility.yul\":4469:4479   */\n      dup1\n        /* \"#utility.yul\":4465:4467   */\n      0x40\n        /* \"#utility.yul\":4458:4480   */\n      mstore\n        /* \"#utility.yul\":4248:4486   */\n      pop\n        /* \"#utility.yul\":4205:4486   */\n      pop\n      pop\n      jump\t// out\n        /* \"#utility.yul\":4492:4672   */\n    tag_104:\n        /* \"#utility.yul\":4540:4617   */\n      0x4e487b7100000000000000000000000000000000000000000000000000000000\n        /* \"#utility.yul\":4537:4538   */\n      0x00\n        /* \"#utility.yul\":4530:4618   */\n      mstore\n        /* \"#utility.yul\":4637:4641   */\n      0x22\n        /* \"#utility.yul\":4634:4635   */\n      0x04\n        /* \"#utility.yul\":4627:4642   */\n      mstore\n        /* \"#utility.yul\":4661:4665   */\n      0x24\n        /* \"#utility.yul\":4658:4659   */\n      0x00\n        /* \"#utility.yul\":4651:4666   */\n      revert\n        /* \"#utility.yul\":4678:4858   */\n    tag_89:\n        /* \"#utility.yul\":4726:4803   */\n      0x4e487b7100000000000000000000000000000000000000000000000000000000\n        /* \"#utility.yul\":4723:4724   */\n      0x00\n        /* \"#utility.yul\":4716:4804   */\n      mstore\n        /* \"#utility.yul\":4823:4827   */\n      0x41\n        /* \"#utility.yul\":4820:4821   */\n      0x04\n        /* \"#utility.yul\":4813:4828   */\n      mstore\n        /* \"#utility.yul\":4847:4851   */\n      0x24\n        /* \"#utility.yul\":4844:4845   */\n      0x00\n        /* \"#utility.yul\":4837:4852   */\n      revert\n        /* \"#utility.yul\":4864:4981   */\n    tag_48:\n        /* \"#utility.yul\":4973:4974   */\n      0x00\n        /* \"#utility.yul\":4970:4971   */\n      dup1\n        /* \"#utility.yul\":4963:4975   */\n      revert\n        /* \"#utility.yul\":4987:5104   */\n    tag_41:\n        /* \"#utility.yul\":5096:5097   */\n      0x00\n        /* \"#utility.yul\":5093:5094   */\n      dup1\n        /* \"#utility.yul\":5086:5098   */\n      revert\n        /* \"#utility.yul\":5110:5227   */\n    tag_60:\n        /* \"#utility.yul\":5219:5220   */\n      0x00\n        /* \"#utility.yul\":5216:5217   */\n      dup1\n        /* \"#utility.yul\":5209:5221   */\n      revert\n        /* \"#utility.yul\":5233:5350   */\n    tag_57:\n        /* \"#utility.yul\":5342:5343   */\n      0x00\n        /* \"#utility.yul\":5339:5340   */\n      dup1\n        /* \"#utility.yul\":5332:5344   */\n      revert\n        /* \"#utility.yul\":5356:5458   */\n    tag_72:\n        /* \"#utility.yul\":5397:5403   */\n      0x00\n        /* \"#utility.yul\":5448:5450   */\n      0x1f\n        /* \"#utility.yul\":5444:5451   */\n      not\n        /* \"#utility.yul\":5439:5441   */\n      0x1f\n        /* \"#utility.yul\":5432:5437   */\n      dup4\n        /* \"#utility.yul\":5428:5442   */\n      add\n        /* \"#utility.yul\":5424:5452   */\n      and\n        /* \"#utility.yul\":5414:5452   */\n      swap1\n      pop\n        /* \"#utility.yul\":5356:5458   */\n      swap2\n      swap1\n      pop\n      jump\t// out\n        /* \"#utility.yul\":5464:5586   */\n    tag_53:\n        /* \"#utility.yul\":5537:5561   */\n      tag_117\n        /* \"#utility.yul\":5555:5560   */\n      dup2\n        /* \"#utility.yul\":5537:5561   */\n      tag_76\n      jump\t// in\n    tag_117:\n        /* \"#utility.yul\":5530:5535   */\n      dup2\n        /* \"#utility.yul\":5527:5562   */\n      eq\n        /* \"#utility.yul\":5517:5580   */\n      tag_118\n      jumpi\n        /* \"#utility.yul\":5576:5577   */\n      0x00\n        /* \"#utility.yul\":5573:5574   */\n      dup1\n        /* \"#utility.yul\":5566:5578   */\n      revert\n        /* \"#utility.yul\":5517:5580   */\n    tag_118:\n        /* \"#utility.yul\":5464:5586   */\n      pop\n      jump\t// out\n\n    auxdata: 0xa2646970667358221220628d31665afa2cb680784db6199b5125aa8be28465edc752dd4ff5751b871ca664736f6c63430008070033\n}\n",
				"bytecode": {
					"linkReferences": {},
					"object": "608060405234801561001057600080fd5b50610524806100206000396000f3fe608060405234801561001057600080fd5b50600436106100365760003560e01c80636cc014de1461003b5780639eec7ca91461005a575b600080fd5b610043610076565b604051610051929190610303565b60405180910390f35b610074600480360381019061006f919061025f565b610110565b005b6000806000018054610087906103f1565b80601f01602080910402602001604051908101604052809291908181526020018280546100b3906103f1565b80156101005780601f106100d557610100808354040283529160200191610100565b820191906000526020600020905b8154815290600101906020018083116100e357829003601f168201915b5050505050908060010154905082565b81600080019080519060200190610128929190610137565b50806000600101819055505050565b828054610143906103f1565b90600052602060002090601f01602090048101928261016557600085556101ac565b82601f1061017e57805160ff19168380011785556101ac565b828001600101855582156101ac579182015b828111156101ab578251825591602001919060010190610190565b5b5090506101b991906101bd565b5090565b5b808211156101d65760008160009055506001016101be565b5090565b60006101ed6101e884610358565b610333565b905082815260208101848484011115610209576102086104b7565b5b6102148482856103af565b509392505050565b600082601f830112610231576102306104b2565b5b81356102418482602086016101da565b91505092915050565b600081359050610259816104d7565b92915050565b60008060408385031215610276576102756104c1565b5b600083013567ffffffffffffffff811115610294576102936104bc565b5b6102a08582860161021c565b92505060206102b18582860161024a565b9150509250929050565b60006102c682610389565b6102d08185610394565b93506102e08185602086016103be565b6102e9816104c6565b840191505092915050565b6102fd816103a5565b82525050565b6000604082019050818103600083015261031d81856102bb565b905061032c60208301846102f4565b9392505050565b600061033d61034e565b90506103498282610423565b919050565b6000604051905090565b600067ffffffffffffffff82111561037357610372610483565b5b61037c826104c6565b9050602081019050919050565b600081519050919050565b600082825260208201905092915050565b6000819050919050565b82818337600083830152505050565b60005b838110156103dc5780820151818401526020810190506103c1565b838111156103eb576000848401525b50505050565b6000600282049050600182168061040957607f821691505b6020821081141561041d5761041c610454565b5b50919050565b61042c826104c6565b810181811067ffffffffffffffff8211171561044b5761044a610483565b5b80604052505050565b7f4e487b7100000000000000000000000000000000000000000000000000000000600052602260045260246000fd5b7f4e487b7100000000000000000000000000000000000000000000000000000000600052604160045260246000fd5b600080fd5b600080fd5b600080fd5b600080fd5b6000601f19601f8301169050919050565b6104e0816103a5565b81146104eb57600080fd5b5056fea2646970667358221220628d31665afa2cb680784db6199b5125aa8be28465edc752dd4ff5751b871ca664736f6c63430008070033",
					"opcodes": "PUSH1 0x80 PUSH1 0x40 MSTORE CALLVALUE DUP1 ISZERO PUSH2 0x10 JUMPI PUSH1 0x0 DUP1 REVERT JUMPDEST POP PUSH2 0x524 DUP1 PUSH2 0x20 PUSH1 0x0 CODECOPY PUSH1 0x0 RETURN INVALID PUSH1 0x80 PUSH1 0x40 MSTORE CALLVALUE DUP1 ISZERO PUSH2 0x10 JUMPI PUSH1 0x0 DUP1 REVERT JUMPDEST POP PUSH1 0x4 CALLDATASIZE LT PUSH2 0x36 JUMPI PUSH1 0x0 CALLDATALOAD PUSH1 0xE0 SHR DUP1 PUSH4 0x6CC014DE EQ PUSH2 0x3B JUMPI DUP1 PUSH4 0x9EEC7CA9 EQ PUSH2 0x5A JUMPI JUMPDEST PUSH1 0x0 DUP1 REVERT JUMPDEST PUSH2 0x43 PUSH2 0x76 JUMP JUMPDEST PUSH1 0x40 MLOAD PUSH2 0x51 SWAP3 SWAP2 SWAP1 PUSH2 0x303 JUMP JUMPDEST PUSH1 0x40 MLOAD DUP1 SWAP2 SUB SWAP1 RETURN JUMPDEST PUSH2 0x74 PUSH1 0x4 DUP1 CALLDATASIZE SUB DUP2 ADD SWAP1 PUSH2 0x6F SWAP2 SWAP1 PUSH2 0x25F JUMP JUMPDEST PUSH2 0x110 JUMP JUMPDEST STOP JUMPDEST PUSH1 0x0 DUP1 PUSH1 0x0 ADD DUP1 SLOAD PUSH2 0x87 SWAP1 PUSH2 0x3F1 JUMP JUMPDEST DUP1 PUSH1 0x1F ADD PUSH1 0x20 DUP1 SWAP2 DIV MUL PUSH1 0x20 ADD PUSH1 0x40 MLOAD SWAP1 DUP2 ADD PUSH1 0x40 MSTORE DUP1 SWAP3 SWAP2 SWAP1 DUP2 DUP2 MSTORE PUSH1 0x20 ADD DUP3 DUP1 SLOAD PUSH2 0xB3 SWAP1 PUSH2 0x3F1 JUMP JUMPDEST DUP1 ISZERO PUSH2 0x100 JUMPI DUP1 PUSH1 0x1F LT PUSH2 0xD5 JUMPI PUSH2 0x100 DUP1 DUP4 SLOAD DIV MUL DUP4 MSTORE SWAP2 PUSH1 0x20 ADD SWAP2 PUSH2 0x100 JUMP JUMPDEST DUP3 ADD SWAP2 SWAP1 PUSH1 0x0 MSTORE PUSH1 0x20 PUSH1 0x0 KECCAK256 SWAP1 JUMPDEST DUP2 SLOAD DUP2 MSTORE SWAP1 PUSH1 0x1 ADD SWAP1 PUSH1 0x20 ADD DUP1 DUP4 GT PUSH2 0xE3 JUMPI DUP3 SWAP1 SUB PUSH1 0x1F AND DUP3 ADD SWAP2 JUMPDEST POP POP POP POP POP SWAP1 DUP1 PUSH1 0x1 ADD SLOAD SWAP1 POP DUP3 JUMP JUMPDEST DUP2 PUSH1 0x0 DUP1 ADD SWAP1 DUP1 MLOAD SWAP1 PUSH1 0x20 ADD SWAP1 PUSH2 0x128 SWAP3 SWAP2 SWAP1 PUSH2 0x137 JUMP JUMPDEST POP DUP1 PUSH1 0x0 PUSH1 0x1 ADD DUP2 SWAP1 SSTORE POP POP POP JUMP JUMPDEST DUP3 DUP1 SLOAD PUSH2 0x143 SWAP1 PUSH2 0x3F1 JUMP JUMPDEST SWAP1 PUSH1 0x0 MSTORE PUSH1 0x20 PUSH1 0x0 KECCAK256 SWAP1 PUSH1 0x1F ADD PUSH1 0x20 SWAP1 DIV DUP2 ADD SWAP3 DUP3 PUSH2 0x165 JUMPI PUSH1 0x0 DUP6 SSTORE PUSH2 0x1AC JUMP JUMPDEST DUP3 PUSH1 0x1F LT PUSH2 0x17E JUMPI DUP1 MLOAD PUSH1 0xFF NOT AND DUP4 DUP1 ADD OR DUP6 SSTORE PUSH2 0x1AC JUMP JUMPDEST DUP3 DUP1 ADD PUSH1 0x1 ADD DUP6 SSTORE DUP3 ISZERO PUSH2 0x1AC JUMPI SWAP2 DUP3 ADD JUMPDEST DUP3 DUP2 GT ISZERO PUSH2 0x1AB JUMPI DUP3 MLOAD DUP3 SSTORE SWAP2 PUSH1 0x20 ADD SWAP2 SWAP1 PUSH1 0x1 ADD SWAP1 PUSH2 0x190 JUMP JUMPDEST JUMPDEST POP SWAP1 POP PUSH2 0x1B9 SWAP2 SWAP1 PUSH2 0x1BD JUMP JUMPDEST POP SWAP1 JUMP JUMPDEST JUMPDEST DUP1 DUP3 GT ISZERO PUSH2 0x1D6 JUMPI PUSH1 0x0 DUP2 PUSH1 0x0 SWAP1 SSTORE POP PUSH1 0x1 ADD PUSH2 0x1BE JUMP JUMPDEST POP SWAP1 JUMP JUMPDEST PUSH1 0x0 PUSH2 0x1ED PUSH2 0x1E8 DUP5 PUSH2 0x358 JUMP JUMPDEST PUSH2 0x333 JUMP JUMPDEST SWAP1 POP DUP3 DUP2 MSTORE PUSH1 0x20 DUP2 ADD DUP5 DUP5 DUP5 ADD GT ISZERO PUSH2 0x209 JUMPI PUSH2 0x208 PUSH2 0x4B7 JUMP JUMPDEST JUMPDEST PUSH2 0x214 DUP5 DUP3 DUP6 PUSH2 0x3AF JUMP JUMPDEST POP SWAP4 SWAP3 POP POP POP JUMP JUMPDEST PUSH1 0x0 DUP3 PUSH1 0x1F DUP4 ADD SLT PUSH2 0x231 JUMPI PUSH2 0x230 PUSH2 0x4B2 JUMP JUMPDEST JUMPDEST DUP2 CALLDATALOAD PUSH2 0x241 DUP5 DUP3 PUSH1 0x20 DUP7 ADD PUSH2 0x1DA JUMP JUMPDEST SWAP2 POP POP SWAP3 SWAP2 POP POP JUMP JUMPDEST PUSH1 0x0 DUP2 CALLDATALOAD SWAP1 POP PUSH2 0x259 DUP2 PUSH2 0x4D7 JUMP JUMPDEST SWAP3 SWAP2 POP POP JUMP JUMPDEST PUSH1 0x0 DUP1 PUSH1 0x40 DUP4 DUP6 SUB SLT ISZERO PUSH2 0x276 JUMPI PUSH2 0x275 PUSH2 0x4C1 JUMP JUMPDEST JUMPDEST PUSH1 0x0 DUP4 ADD CALLDATALOAD PUSH8 0xFFFFFFFFFFFFFFFF DUP2 GT ISZERO PUSH2 0x294 JUMPI PUSH2 0x293 PUSH2 0x4BC JUMP JUMPDEST JUMPDEST PUSH2 0x2A0 DUP6 DUP3 DUP7 ADD PUSH2 0x21C JUMP JUMPDEST SWAP3 POP POP PUSH1 0x20 PUSH2 0x2B1 DUP6 DUP3 DUP7 ADD PUSH2 0x24A JUMP JUMPDEST SWAP2 POP POP SWAP3 POP SWAP3 SWAP1 POP JUMP JUMPDEST PUSH1 0x0 PUSH2 0x2C6 DUP3 PUSH2 0x389 JUMP JUMPDEST PUSH2 0x2D0 DUP2 DUP6 PUSH2 0x394 JUMP JUMPDEST SWAP4 POP PUSH2 0x2E0 DUP2 DUP6 PUSH1 0x20 DUP7 ADD PUSH2 0x3BE JUMP JUMPDEST PUSH2 0x2E9 DUP2 PUSH2 0x4C6 JUMP JUMPDEST DUP5 ADD SWAP2 POP POP SWAP3 SWAP2 POP POP JUMP JUMPDEST PUSH2 0x2FD DUP2 PUSH2 0x3A5 JUMP JUMPDEST DUP3 MSTORE POP POP JUMP JUMPDEST PUSH1 0x0 PUSH1 0x40 DUP3 ADD SWAP1 POP DUP2 DUP2 SUB PUSH1 0x0 DUP4 ADD MSTORE PUSH2 0x31D DUP2 DUP6 PUSH2 0x2BB JUMP JUMPDEST SWAP1 POP PUSH2 0x32C PUSH1 0x20 DUP4 ADD DUP5 PUSH2 0x2F4 JUMP JUMPDEST SWAP4 SWAP3 POP POP POP JUMP JUMPDEST PUSH1 0x0 PUSH2 0x33D PUSH2 0x34E JUMP JUMPDEST SWAP1 POP PUSH2 0x349 DUP3 DUP3 PUSH2 0x423 JUMP JUMPDEST SWAP2 SWAP1 POP JUMP JUMPDEST PUSH1 0x0 PUSH1 0x40 MLOAD SWAP1 POP SWAP1 JUMP JUMPDEST PUSH1 0x0 PUSH8 0xFFFFFFFFFFFFFFFF DUP3 GT ISZERO PUSH2 0x373 JUMPI PUSH2 0x372 PUSH2 0x483 JUMP JUMPDEST JUMPDEST PUSH2 0x37C DUP3 PUSH2 0x4C6 JUMP JUMPDEST SWAP1 POP PUSH1 0x20 DUP2 ADD SWAP1 POP SWAP2 SWAP1 POP JUMP JUMPDEST PUSH1 0x0 DUP2 MLOAD SWAP1 POP SWAP2 SWAP1 POP JUMP JUMPDEST PUSH1 0x0 DUP3 DUP3 MSTORE PUSH1 0x20 DUP3 ADD SWAP1 POP SWAP3 SWAP2 POP POP JUMP JUMPDEST PUSH1 0x0 DUP2 SWAP1 POP SWAP2 SWAP1 POP JUMP JUMPDEST DUP3 DUP2 DUP4 CALLDATACOPY PUSH1 0x0 DUP4 DUP4 ADD MSTORE POP POP POP JUMP JUMPDEST PUSH1 0x0 JUMPDEST DUP4 DUP2 LT ISZERO PUSH2 0x3DC JUMPI DUP1 DUP3 ADD MLOAD DUP2 DUP5 ADD MSTORE PUSH1 0x20 DUP2 ADD SWAP1 POP PUSH2 0x3C1 JUMP JUMPDEST DUP4 DUP2 GT ISZERO PUSH2 0x3EB JUMPI PUSH1 0x0 DUP5 DUP5 ADD MSTORE JUMPDEST POP POP POP POP JUMP JUMPDEST PUSH1 0x0 PUSH1 0x2 DUP3 DIV SWAP1 POP PUSH1 0x1 DUP3 AND DUP1 PUSH2 0x409 JUMPI PUSH1 0x7F DUP3 AND SWAP2 POP JUMPDEST PUSH1 0x20 DUP3 LT DUP2 EQ ISZERO PUSH2 0x41D JUMPI PUSH2 0x41C PUSH2 0x454 JUMP JUMPDEST JUMPDEST POP SWAP2 SWAP1 POP JUMP JUMPDEST PUSH2 0x42C DUP3 PUSH2 0x4C6 JUMP JUMPDEST DUP2 ADD DUP2 DUP2 LT PUSH8 0xFFFFFFFFFFFFFFFF DUP3 GT OR ISZERO PUSH2 0x44B JUMPI PUSH2 0x44A PUSH2 0x483 JUMP JUMPDEST JUMPDEST DUP1 PUSH1 0x40 MSTORE POP POP POP JUMP JUMPDEST PUSH32 0x4E487B7100000000000000000000000000000000000000000000000000000000 PUSH1 0x0 MSTORE PUSH1 0x22 PUSH1 0x4 MSTORE PUSH1 0x24 PUSH1 0x0 REVERT JUMPDEST PUSH32 0x4E487B7100000000000000000000000000000000000000000000000000000000 PUSH1 0x0 MSTORE PUSH1 0x41 PUSH1 0x4 MSTORE PUSH1 0x24 PUSH1 0x0 REVERT JUMPDEST PUSH1 0x0 DUP1 REVERT JUMPDEST PUSH1 0x0 DUP1 REVERT JUMPDEST PUSH1 0x0 DUP1 REVERT JUMPDEST PUSH1 0x0 DUP1 REVERT JUMPDEST PUSH1 0x0 PUSH1 0x1F NOT PUSH1 0x1F DUP4 ADD AND SWAP1 POP SWAP2 SWAP1 POP JUMP JUMPDEST PUSH2 0x4E0 DUP2 PUSH2 0x3A5 JUMP JUMPDEST DUP2 EQ PUSH2 0x4EB JUMPI PUSH1 0x0 DUP1 REVERT JUMPDEST POP JUMP INVALID LOG2 PUSH5 0x6970667358 0x22 SLT KECCAK256 PUSH3 0x8D3166 GAS STATICCALL 0x2C 0xB6 DUP1 PUSH25 0x4DB6199B5125AA8BE28465EDC752DD4FF5751B871CA664736F PUSH13 0x63430008070033000000000000 "
				},
				"gasEstimates": {
					"creation": {
						"codeDepositCost": "263200",
						"executionCost": "306",
						"totalCost": "263506"
					},
					"external": {
						"s1()": "infinite",
						"set_student(string,uint256)": "infinite"
					}
				},
				"methodIdentifiers": {
					"s1()": "6cc014de",
					"set_student(string,uint256)": "9eec7ca9"
				}
			},
			"storageLayout": {
				"storage": [
					{
						"astId": 9,
						"contract": "Learning_Concepts/14_structure.sol:studentDemo",
						"label": "s1",
						"offset": 0,
						"slot": "0",
						"type": "t_struct(Student)6_storage"
					}
				],
				"types": {
					"t_string_storage": {
						"encoding": "bytes",
						"label": "string",
						"numberOfBytes": "32"
					},
					"t_struct(Student)6_storage": {
						"encoding": "inplace",
						"label": "struct Student",
						"members": [
							{
								"astId": 3,
								"contract": "Learning_Concepts/14_structure.sol:studentDemo",
								"label": "name",
								"offset": 0,
								"slot": "0",
								"type": "t_string_storage"
							},
							{
								"astId": 5,
								"contract": "Learning_Concepts/14_structure.sol:studentDemo",
								"label": "roll",
								"offset": 0,
								"slot": "1",
								"type": "t_uint256"
							}
						],
						"numberOfBytes": "64"
					},
					"t_uint256": {
						"encoding": "inplace",
						"label": "uint256",
						"numberOfBytes": "32"
					}
				}
			},
			"userdoc": {
				"kind": "user",
				"methods": {},
				"version": 1
			}
		}
	}
}