{
	"Learning_Concepts/15_enum.sol": {
		"Lottery": {
			"abi": [
				{
					"inputs": [],
					"name": "lottery_amount",
					"outputs": [
						{
							"internalType": "uint256",
							"name": "",
							"type": "uint256"
						}
					],
					"stateMutability": "view",
					"type": "function"
				},
				{
					"inputs": [],
					"name": "lottery_result",
					"outputs": [],
					"stateMutability": "nonpayable",
					"type": "function"
				}
			],
			"devdoc": {
				"kind": "dev",
				"methods": {},
				"version": 1
			},
			"evm": {
				"assembly": "    /* \"Learning_Concepts/15_enum.sol\":75:342  contract Lottery {\r... */\n  mstore(0x40, 0x80)\n    /* \"Learning_Concepts/15_enum.sol\":128:131  100 */\n  0x64\n    /* \"Learning_Concepts/15_enum.sol\":99:131  uint public lottery_amount = 100 */\n  0x00\n  sstore\n    /* \"Learning_Concepts/15_enum.sol\":152:153  1 */\n  0x01\n    /* \"Learning_Concepts/15_enum.sol\":138:153  uint user_1 = 1 */\n  dup1\n  sstore\n    /* \"Learning_Concepts/15_enum.sol\":75:342  contract Lottery {\r... */\n  callvalue\n  dup1\n  iszero\n  tag_1\n  jumpi\n  0x00\n  dup1\n  revert\ntag_1:\n  pop\n  dataSize(sub_0)\n  dup1\n  dataOffset(sub_0)\n  0x00\n  codecopy\n  0x00\n  return\nstop\n\nsub_0: assembly {\n        /* \"Learning_Concepts/15_enum.sol\":75:342  contract Lottery {\r... */\n      mstore(0x40, 0x80)\n      callvalue\n      dup1\n      iszero\n      tag_1\n      jumpi\n      0x00\n      dup1\n      revert\n    tag_1:\n      pop\n      jumpi(tag_2, lt(calldatasize, 0x04))\n      shr(0xe0, calldataload(0x00))\n      dup1\n      0x10cb4c7c\n      eq\n      tag_3\n      jumpi\n      dup1\n      0x728f8dd4\n      eq\n      tag_4\n      jumpi\n    tag_2:\n      0x00\n      dup1\n      revert\n        /* \"Learning_Concepts/15_enum.sol\":162:339  function lottery_result() public {\r... */\n    tag_3:\n      tag_5\n      tag_6\n      jump\t// in\n    tag_5:\n      stop\n        /* \"Learning_Concepts/15_enum.sol\":99:131  uint public lottery_amount = 100 */\n    tag_4:\n      tag_7\n      tag_8\n      jump\t// in\n    tag_7:\n      mload(0x40)\n      tag_9\n      swap2\n      swap1\n      tag_10\n      jump\t// in\n    tag_9:\n      mload(0x40)\n      dup1\n      swap2\n      sub\n      swap1\n      return\n        /* \"Learning_Concepts/15_enum.sol\":162:339  function lottery_result() public {\r... */\n    tag_6:\n        /* \"Learning_Concepts/15_enum.sol\":220:221  0 */\n      0x00\n        /* \"Learning_Concepts/15_enum.sol\":210:216  user_1 */\n      sload(0x01)\n        /* \"Learning_Concepts/15_enum.sol\":210:221  user_1 == 0 */\n      eq\n        /* \"Learning_Concepts/15_enum.sol\":206:331  if (user_1 == 0) {\r... */\n      iszero\n      tag_12\n      jumpi\n        /* \"Learning_Concepts/15_enum.sol\":283:284  0 */\n      0x00\n        /* \"Learning_Concepts/15_enum.sol\":266:280  lottery_amount */\n      dup1\n        /* \"Learning_Concepts/15_enum.sol\":266:284  lottery_amount = 0 */\n      dup2\n      swap1\n      sstore\n      pop\n        /* \"Learning_Concepts/15_enum.sol\":206:331  if (user_1 == 0) {\r... */\n    tag_12:\n        /* \"Learning_Concepts/15_enum.sol\":162:339  function lottery_result() public {\r... */\n      jump\t// out\n        /* \"Learning_Concepts/15_enum.sol\":99:131  uint public lottery_amount = 100 */\n    tag_8:\n      sload(0x00)\n      dup2\n      jump\t// out\n        /* \"#utility.yul\":7:125   */\n    tag_14:\n        /* \"#utility.yul\":94:118   */\n      tag_16\n        /* \"#utility.yul\":112:117   */\n      dup2\n        /* \"#utility.yul\":94:118   */\n      tag_17\n      jump\t// in\n    tag_16:\n        /* \"#utility.yul\":89:92   */\n      dup3\n        /* \"#utility.yul\":82:119   */\n      mstore\n        /* \"#utility.yul\":7:125   */\n      pop\n      pop\n      jump\t// out\n        /* \"#utility.yul\":131:353   */\n    tag_10:\n        /* \"#utility.yul\":224:228   */\n      0x00\n        /* \"#utility.yul\":262:264   */\n      0x20\n        /* \"#utility.yul\":251:260   */\n      dup3\n        /* \"#utility.yul\":247:265   */\n      add\n        /* \"#utility.yul\":239:265   */\n      swap1\n      pop\n        /* \"#utility.yul\":275:346   */\n      tag_19\n        /* \"#utility.yul\":343:344   */\n      0x00\n        /* \"#utility.yul\":332:341   */\n      dup4\n        /* \"#utility.yul\":328:345   */\n      add\n        /* \"#utility.yul\":319:325   */\n      dup5\n        /* \"#utility.yul\":275:346   */\n      tag_14\n      jump\t// in\n    tag_19:\n        /* \"#utility.yul\":131:353   */\n      swap3\n      swap2\n      pop\n      pop\n      jump\t// out\n        /* \"#utility.yul\":359:436   */\n    tag_17:\n        /* \"#utility.yul\":396:403   */\n      0x00\n        /* \"#utility.yul\":425:430   */\n      dup2\n        /* \"#utility.yul\":414:430   */\n      swap1\n      pop\n        /* \"#utility.yul\":359:436   */\n      swap2\n      swap1\n      pop\n      jump\t// out\n\n    auxdata: 0xa26469706673582212203a33d195de70a179a1e0edf15b6d89e25d7be8e6418e9cfe5ed3973df3e541a164736f6c63430008070033\n}\n",
				"bytecode": {
					"linkReferences": {},
					"object": "608060405260646000556001805534801561001957600080fd5b5060d9806100286000396000f3fe6080604052348015600f57600080fd5b506004361060325760003560e01c806310cb4c7c146037578063728f8dd414603f575b600080fd5b603d6059565b005b6045606d565b604051605091906080565b60405180910390f35b60006001541415606b57600080819055505b565b60005481565b607a816099565b82525050565b6000602082019050609360008301846073565b92915050565b600081905091905056fea26469706673582212203a33d195de70a179a1e0edf15b6d89e25d7be8e6418e9cfe5ed3973df3e541a164736f6c63430008070033",
					"opcodes": "PUSH1 0x80 PUSH1 0x40 MSTORE PUSH1 0x64 PUSH1 0x0 SSTORE PUSH1 0x1 DUP1 SSTORE CALLVALUE DUP1 ISZERO PUSH2 0x19 JUMPI PUSH1 0x0 DUP1 REVERT JUMPDEST POP PUSH1 0xD9 DUP1 PUSH2 0x28 PUSH1 0x0 CODECOPY PUSH1 0x0 RETURN INVALID PUSH1 0x80 PUSH1 0x40 MSTORE CALLVALUE DUP1 ISZERO PUSH1 0xF JUMPI PUSH1 0x0 DUP1 REVERT JUMPDEST POP PUSH1 0x4 CALLDATASIZE LT PUSH1 0x32 JUMPI PUSH1 0x0 CALLDATALOAD PUSH1 0xE0 SHR DUP1 PUSH4 0x10CB4C7C EQ PUSH1 0x37 JUMPI DUP1 PUSH4 0x728F8DD4 EQ PUSH1 0x3F JUMPI JUMPDEST PUSH1 0x0 DUP1 REVERT JUMPDEST PUSH1 0x3D PUSH1 0x59 JUMP JUMPDEST STOP JUMPDEST PUSH1 0x45 PUSH1 0x6D JUMP JUMPDEST PUSH1 0x40 MLOAD PUSH1 0x50 SWAP2 SWAP1 PUSH1 0x80 JUMP JUMPDEST PUSH1 0x40 MLOAD DUP1 SWAP2 SUB SWAP1 RETURN JUMPDEST PUSH1 0x0 PUSH1 0x1 SLOAD EQ ISZERO PUSH1 0x6B JUMPI PUSH1 0x0 DUP1 DUP2 SWAP1 SSTORE POP JUMPDEST JUMP JUMPDEST PUSH1 0x0 SLOAD DUP2 JUMP JUMPDEST PUSH1 0x7A DUP2 PUSH1 0x99 JUMP JUMPDEST DUP3 MSTORE POP POP JUMP JUMPDEST PUSH1 0x0 PUSH1 0x20 DUP3 ADD SWAP1 POP PUSH1 0x93 PUSH1 0x0 DUP4 ADD DUP5 PUSH1 0x73 JUMP JUMPDEST SWAP3 SWAP2 POP POP JUMP JUMPDEST PUSH1 0x0 DUP2 SWAP1 POP SWAP2 SWAP1 POP JUMP INVALID LOG2 PUSH5 0x6970667358 0x22 SLT KECCAK256 GASPRICE CALLER 0xD1 SWAP6 0xDE PUSH17 0xA179A1E0EDF15B6D89E25D7BE8E6418E9C INVALID 0x5E 0xD3 SWAP8 RETURNDATASIZE RETURN 0xE5 COINBASE LOG1 PUSH5 0x736F6C6343 STOP ADDMOD SMOD STOP CALLER "
				},
				"gasEstimates": {
					"creation": {
						"codeDepositCost": "43400",
						"executionCost": "44305",
						"totalCost": "87705"
					},
					"external": {
						"lottery_amount()": "2429",
						"lottery_result()": "7262"
					}
				},
				"methodIdentifiers": {
					"lottery_amount()": "728f8dd4",
					"lottery_result()": "10cb4c7c"
				}
			},
			"storageLayout": {
				"storage": [
					{
						"astId": 4,
						"contract": "Learning_Concepts/15_enum.sol:Lottery",
						"label": "lottery_amount",
						"offset": 0,
						"slot": "0",
						"type": "t_uint256"
					},
					{
						"astId": 7,
						"contract": "Learning_Concepts/15_enum.sol:Lottery",
						"label": "user_1",
						"offset": 0,
						"slot": "1",
						"type": "t_uint256"
					}
				],
				"types": {
					"t_uint256": {
						"encoding": "inplace",
						"label": "uint256",
						"numberOfBytes": "32"
					}
				}
			},
			"userdoc": {
				"kind": "user",
				"methods": {},
				"version": 1
			}
		}
	}
}