{
	"Learning_Concepts/08_dynamic_size_array.sol": {
		"DynArr": {
			"abi": [
				{
					"constant": false,
					"inputs": [
						{
							"name": "index",
							"type": "uint256"
						},
						{
							"name": "element",
							"type": "uint256"
						}
					],
					"name": "set_element",
					"outputs": [],
					"payable": false,
					"stateMutability": "nonpayable",
					"type": "function"
				},
				{
					"constant": true,
					"inputs": [
						{
							"name": "",
							"type": "uint256"
						}
					],
					"name": "arr",
					"outputs": [
						{
							"name": "",
							"type": "uint256"
						}
					],
					"payable": false,
					"stateMutability": "view",
					"type": "function"
				}
			],
			"devdoc": {
				"methods": {}
			},
			"evm": {
				"assembly": "    /* \"Learning_Concepts/08_dynamic_size_array.sol\":75:242  contract DynArr {\r... */\n  mstore(0x40, 0x80)\n    /* \"Learning_Concepts/08_dynamic_size_array.sol\":100:127  uint[] public arr = [1,2,3] */\n  0x60\n  mload(0x40)\n  swap1\n  dup2\n  add\n  0x40\n  mstore\n  dup1\n    /* \"Learning_Concepts/08_dynamic_size_array.sol\":121:122  1 */\n  0x1\n    /* \"Learning_Concepts/08_dynamic_size_array.sol\":100:127  uint[] public arr = [1,2,3] */\n  0xff\n  and\n  dup2\n  mstore\n  0x20\n  add\n    /* \"Learning_Concepts/08_dynamic_size_array.sol\":123:124  2 */\n  0x2\n    /* \"Learning_Concepts/08_dynamic_size_array.sol\":100:127  uint[] public arr = [1,2,3] */\n  0xff\n  and\n  dup2\n  mstore\n  0x20\n  add\n    /* \"Learning_Concepts/08_dynamic_size_array.sol\":125:126  3 */\n  0x3\n    /* \"Learning_Concepts/08_dynamic_size_array.sol\":100:127  uint[] public arr = [1,2,3] */\n  0xff\n  and\n  dup2\n  mstore\n  pop\n  0x0\n  swap1\n  0x3\n  tag_1\n  swap3\n  swap2\n  swap1\n  jump\t// in(tag_2)\ntag_1:\n  pop\n    /* \"Learning_Concepts/08_dynamic_size_array.sol\":75:242  contract DynArr {\r... */\n  callvalue\n    /* \"--CODEGEN--\":8:17   */\n  dup1\n    /* \"--CODEGEN--\":5:7   */\n  iszero\n  tag_3\n  jumpi\n    /* \"--CODEGEN--\":30:31   */\n  0x0\n    /* \"--CODEGEN--\":27:28   */\n  dup1\n    /* \"--CODEGEN--\":20:32   */\n  revert\n    /* \"--CODEGEN--\":5:7   */\ntag_3:\n    /* \"Learning_Concepts/08_dynamic_size_array.sol\":75:242  contract DynArr {\r... */\n  pop\n  jump(tag_4)\ntag_2:\n  dup3\n  dup1\n  sload\n  dup3\n  dup3\n  sstore\n  swap1\n  0x0\n  mstore\n  keccak256(0x0, 0x20)\n  swap1\n  dup2\n  add\n  swap3\n  dup3\n  iszero\n  tag_5\n  jumpi\n  swap2\n  0x20\n  mul\n  dup3\n  add\ntag_6:\n  dup3\n  dup2\n  gt\n  iszero\n  tag_7\n  jumpi\n  dup3\n  mload\n  dup3\n  swap1\n  0xff\n  and\n  swap1\n  sstore\n  swap2\n  0x20\n  add\n  swap2\n  swap1\n  0x1\n  add\n  swap1\n  jump(tag_6)\ntag_7:\ntag_5:\n  pop\n  swap1\n  pop\n  tag_8\n  swap2\n  swap1\n  jump\t// in(tag_9)\ntag_8:\n  pop\n  swap1\n  jump\t// out\ntag_9:\n  tag_10\n  swap2\n  swap1\ntag_11:\n  dup1\n  dup3\n  gt\n  iszero\n  tag_12\n  jumpi\n  0x0\n  dup2\n  0x0\n  swap1\n  sstore\n  pop\n  0x1\n  add\n  jump(tag_11)\ntag_12:\n  pop\n  swap1\n  jump\ntag_10:\n  swap1\n  jump\t// out\ntag_4:\n  dataSize(sub_0)\n  dup1\n  dataOffset(sub_0)\n  0x0\n  codecopy\n  0x0\n  return\nstop\n\nsub_0: assembly {\n        /* \"Learning_Concepts/08_dynamic_size_array.sol\":75:242  contract DynArr {\r... */\n      mstore(0x40, 0x80)\n      jumpi(tag_1, lt(calldatasize, 0x4))\n      calldataload(0x0)\n      0x100000000000000000000000000000000000000000000000000000000\n      swap1\n      div\n      0xffffffff\n      and\n      dup1\n      0x726665b\n      eq\n      tag_2\n      jumpi\n      dup1\n      0x71e5ee5f\n      eq\n      tag_3\n      jumpi\n    tag_1:\n      0x0\n      dup1\n      revert\n        /* \"Learning_Concepts/08_dynamic_size_array.sol\":136:229  function set_element(uint index, uint element) public {\r... */\n    tag_2:\n      callvalue\n        /* \"--CODEGEN--\":8:17   */\n      dup1\n        /* \"--CODEGEN--\":5:7   */\n      iszero\n      tag_4\n      jumpi\n        /* \"--CODEGEN--\":30:31   */\n      0x0\n        /* \"--CODEGEN--\":27:28   */\n      dup1\n        /* \"--CODEGEN--\":20:32   */\n      revert\n        /* \"--CODEGEN--\":5:7   */\n    tag_4:\n        /* \"Learning_Concepts/08_dynamic_size_array.sol\":136:229  function set_element(uint index, uint element) public {\r... */\n      pop\n      tag_5\n      0x4\n      dup1\n      calldatasize\n      sub\n        /* \"--CODEGEN--\":13:15   */\n      0x40\n        /* \"--CODEGEN--\":8:11   */\n      dup2\n        /* \"--CODEGEN--\":5:16   */\n      lt\n        /* \"--CODEGEN--\":2:4   */\n      iszero\n      tag_6\n      jumpi\n        /* \"--CODEGEN--\":29:30   */\n      0x0\n        /* \"--CODEGEN--\":26:27   */\n      dup1\n        /* \"--CODEGEN--\":19:31   */\n      revert\n        /* \"--CODEGEN--\":2:4   */\n    tag_6:\n        /* \"Learning_Concepts/08_dynamic_size_array.sol\":136:229  function set_element(uint index, uint element) public {\r... */\n      dup2\n      add\n      swap1\n      dup1\n      dup1\n      calldataload\n      swap1\n      0x20\n      add\n      swap1\n      swap3\n      swap2\n      swap1\n      dup1\n      calldataload\n      swap1\n      0x20\n      add\n      swap1\n      swap3\n      swap2\n      swap1\n      pop\n      pop\n      pop\n      jump(tag_7)\n    tag_5:\n      stop\n        /* \"Learning_Concepts/08_dynamic_size_array.sol\":100:127  uint[] public arr = [1,2,3] */\n    tag_3:\n      callvalue\n        /* \"--CODEGEN--\":8:17   */\n      dup1\n        /* \"--CODEGEN--\":5:7   */\n      iszero\n      tag_8\n      jumpi\n        /* \"--CODEGEN--\":30:31   */\n      0x0\n        /* \"--CODEGEN--\":27:28   */\n      dup1\n        /* \"--CODEGEN--\":20:32   */\n      revert\n        /* \"--CODEGEN--\":5:7   */\n    tag_8:\n        /* \"Learning_Concepts/08_dynamic_size_array.sol\":100:127  uint[] public arr = [1,2,3] */\n      pop\n      tag_9\n      0x4\n      dup1\n      calldatasize\n      sub\n        /* \"--CODEGEN--\":13:15   */\n      0x20\n        /* \"--CODEGEN--\":8:11   */\n      dup2\n        /* \"--CODEGEN--\":5:16   */\n      lt\n        /* \"--CODEGEN--\":2:4   */\n      iszero\n      tag_10\n      jumpi\n        /* \"--CODEGEN--\":29:30   */\n      0x0\n        /* \"--CODEGEN--\":26:27   */\n      dup1\n        /* \"--CODEGEN--\":19:31   */\n      revert\n        /* \"--CODEGEN--\":2:4   */\n    tag_10:\n        /* \"Learning_Concepts/08_dynamic_size_array.sol\":100:127  uint[] public arr = [1,2,3] */\n      dup2\n      add\n      swap1\n      dup1\n      dup1\n      calldataload\n      swap1\n      0x20\n      add\n      swap1\n      swap3\n      swap2\n      swap1\n      pop\n      pop\n      pop\n      jump(tag_11)\n    tag_9:\n      mload(0x40)\n      dup1\n      dup3\n      dup2\n      mstore\n      0x20\n      add\n      swap2\n      pop\n      pop\n      mload(0x40)\n      dup1\n      swap2\n      sub\n      swap1\n      return\n        /* \"Learning_Concepts/08_dynamic_size_array.sol\":136:229  function set_element(uint index, uint element) public {\r... */\n    tag_7:\n        /* \"Learning_Concepts/08_dynamic_size_array.sol\":214:221  element */\n      dup1\n        /* \"Learning_Concepts/08_dynamic_size_array.sol\":201:204  arr */\n      0x0\n        /* \"Learning_Concepts/08_dynamic_size_array.sol\":205:210  index */\n      dup4\n        /* \"Learning_Concepts/08_dynamic_size_array.sol\":201:211  arr[index] */\n      dup2\n      sload\n      dup2\n      lt\n      iszero\n      iszero\n      tag_13\n      jumpi\n      invalid\n    tag_13:\n      swap1\n      0x0\n      mstore\n      keccak256(0x0, 0x20)\n      add\n        /* \"Learning_Concepts/08_dynamic_size_array.sol\":201:221  arr[index] = element */\n      dup2\n      swap1\n      sstore\n      pop\n        /* \"Learning_Concepts/08_dynamic_size_array.sol\":136:229  function set_element(uint index, uint element) public {\r... */\n      pop\n      pop\n      jump\t// out\n        /* \"Learning_Concepts/08_dynamic_size_array.sol\":100:127  uint[] public arr = [1,2,3] */\n    tag_11:\n      0x0\n      dup2\n      dup2\n      sload\n      dup2\n      lt\n      iszero\n      iszero\n      tag_15\n      jumpi\n      invalid\n    tag_15:\n      swap1\n      0x0\n      mstore\n      keccak256(0x0, 0x20)\n      add\n      0x0\n      swap2\n      pop\n      swap1\n      pop\n      sload\n      dup2\n      jump\t// out\n\n    auxdata: 0xa165627a7a72305820c80dfcf73213575329343821a1465749707840e75b18aa1620e88c880dc4d7900029\n}\n",
				"bytecode": {
					"linkReferences": {},
					"object": "6080604052606060405190810160405280600160ff168152602001600260ff168152602001600360ff16815250600090600361003c92919061004f565b5034801561004957600080fd5b506100c6565b828054828255906000526020600020908101928215610090579160200282015b8281111561008f578251829060ff1690559160200191906001019061006f565b5b50905061009d91906100a1565b5090565b6100c391905b808211156100bf5760008160009055506001016100a7565b5090565b90565b610156806100d56000396000f3fe60806040526004361061004c576000357c0100000000000000000000000000000000000000000000000000000000900463ffffffff1680630726665b1461005157806371e5ee5f14610096575b600080fd5b34801561005d57600080fd5b506100946004803603604081101561007457600080fd5b8101908080359060200190929190803590602001909291905050506100e5565b005b3480156100a257600080fd5b506100cf600480360360208110156100b957600080fd5b8101908080359060200190929190505050610107565b6040518082815260200191505060405180910390f35b806000838154811015156100f557fe5b90600052602060002001819055505050565b60008181548110151561011657fe5b90600052602060002001600091509050548156fea165627a7a72305820c80dfcf73213575329343821a1465749707840e75b18aa1620e88c880dc4d7900029",
					"opcodes": "PUSH1 0x80 PUSH1 0x40 MSTORE PUSH1 0x60 PUSH1 0x40 MLOAD SWAP1 DUP2 ADD PUSH1 0x40 MSTORE DUP1 PUSH1 0x1 PUSH1 0xFF AND DUP2 MSTORE PUSH1 0x20 ADD PUSH1 0x2 PUSH1 0xFF AND DUP2 MSTORE PUSH1 0x20 ADD PUSH1 0x3 PUSH1 0xFF AND DUP2 MSTORE POP PUSH1 0x0 SWAP1 PUSH1 0x3 PUSH2 0x3C SWAP3 SWAP2 SWAP1 PUSH2 0x4F JUMP JUMPDEST POP CALLVALUE DUP1 ISZERO PUSH2 0x49 JUMPI PUSH1 0x0 DUP1 REVERT JUMPDEST POP PUSH2 0xC6 JUMP JUMPDEST DUP3 DUP1 SLOAD DUP3 DUP3 SSTORE SWAP1 PUSH1 0x0 MSTORE PUSH1 0x20 PUSH1 0x0 KECCAK256 SWAP1 DUP2 ADD SWAP3 DUP3 ISZERO PUSH2 0x90 JUMPI SWAP2 PUSH1 0x20 MUL DUP3 ADD JUMPDEST DUP3 DUP2 GT ISZERO PUSH2 0x8F JUMPI DUP3 MLOAD DUP3 SWAP1 PUSH1 0xFF AND SWAP1 SSTORE SWAP2 PUSH1 0x20 ADD SWAP2 SWAP1 PUSH1 0x1 ADD SWAP1 PUSH2 0x6F JUMP JUMPDEST JUMPDEST POP SWAP1 POP PUSH2 0x9D SWAP2 SWAP1 PUSH2 0xA1 JUMP JUMPDEST POP SWAP1 JUMP JUMPDEST PUSH2 0xC3 SWAP2 SWAP1 JUMPDEST DUP1 DUP3 GT ISZERO PUSH2 0xBF JUMPI PUSH1 0x0 DUP2 PUSH1 0x0 SWAP1 SSTORE POP PUSH1 0x1 ADD PUSH2 0xA7 JUMP JUMPDEST POP SWAP1 JUMP JUMPDEST SWAP1 JUMP JUMPDEST PUSH2 0x156 DUP1 PUSH2 0xD5 PUSH1 0x0 CODECOPY PUSH1 0x0 RETURN INVALID PUSH1 0x80 PUSH1 0x40 MSTORE PUSH1 0x4 CALLDATASIZE LT PUSH2 0x4C JUMPI PUSH1 0x0 CALLDATALOAD PUSH29 0x100000000000000000000000000000000000000000000000000000000 SWAP1 DIV PUSH4 0xFFFFFFFF AND DUP1 PUSH4 0x726665B EQ PUSH2 0x51 JUMPI DUP1 PUSH4 0x71E5EE5F EQ PUSH2 0x96 JUMPI JUMPDEST PUSH1 0x0 DUP1 REVERT JUMPDEST CALLVALUE DUP1 ISZERO PUSH2 0x5D JUMPI PUSH1 0x0 DUP1 REVERT JUMPDEST POP PUSH2 0x94 PUSH1 0x4 DUP1 CALLDATASIZE SUB PUSH1 0x40 DUP2 LT ISZERO PUSH2 0x74 JUMPI PUSH1 0x0 DUP1 REVERT JUMPDEST DUP2 ADD SWAP1 DUP1 DUP1 CALLDATALOAD SWAP1 PUSH1 0x20 ADD SWAP1 SWAP3 SWAP2 SWAP1 DUP1 CALLDATALOAD SWAP1 PUSH1 0x20 ADD SWAP1 SWAP3 SWAP2 SWAP1 POP POP POP PUSH2 0xE5 JUMP JUMPDEST STOP JUMPDEST CALLVALUE DUP1 ISZERO PUSH2 0xA2 JUMPI PUSH1 0x0 DUP1 REVERT JUMPDEST POP PUSH2 0xCF PUSH1 0x4 DUP1 CALLDATASIZE SUB PUSH1 0x20 DUP2 LT ISZERO PUSH2 0xB9 JUMPI PUSH1 0x0 DUP1 REVERT JUMPDEST DUP2 ADD SWAP1 DUP1 DUP1 CALLDATALOAD SWAP1 PUSH1 0x20 ADD SWAP1 SWAP3 SWAP2 SWAP1 POP POP POP PUSH2 0x107 JUMP JUMPDEST PUSH1 0x40 MLOAD DUP1 DUP3 DUP2 MSTORE PUSH1 0x20 ADD SWAP2 POP POP PUSH1 0x40 MLOAD DUP1 SWAP2 SUB SWAP1 RETURN JUMPDEST DUP1 PUSH1 0x0 DUP4 DUP2 SLOAD DUP2 LT ISZERO ISZERO PUSH2 0xF5 JUMPI INVALID JUMPDEST SWAP1 PUSH1 0x0 MSTORE PUSH1 0x20 PUSH1 0x0 KECCAK256 ADD DUP2 SWAP1 SSTORE POP POP POP JUMP JUMPDEST PUSH1 0x0 DUP2 DUP2 SLOAD DUP2 LT ISZERO ISZERO PUSH2 0x116 JUMPI INVALID JUMPDEST SWAP1 PUSH1 0x0 MSTORE PUSH1 0x20 PUSH1 0x0 KECCAK256 ADD PUSH1 0x0 SWAP2 POP SWAP1 POP SLOAD DUP2 JUMP INVALID LOG1 PUSH6 0x627A7A723058 KECCAK256 0xc8 0xd 0xfc 0xf7 ORIGIN SGT JUMPI MSTORE8 0x29 CALLVALUE CODESIZE 0x21 LOG1 0x46 JUMPI 0x49 PUSH17 0x7840E75B18AA1620E88C880DC4D7900029 "
				},
				"gasEstimates": {
					"creation": {
						"codeDepositCost": "68400",
						"executionCost": "infinite",
						"totalCost": "infinite"
					},
					"external": {
						"arr(uint256)": "797",
						"set_element(uint256,uint256)": "20546"
					}
				},
				"methodIdentifiers": {
					"arr(uint256)": "71e5ee5f",
					"set_element(uint256,uint256)": "0726665b"
				}
			},
			"userdoc": {
				"methods": {}
			}
		}
	}
}