{
	"Learning_Concepts/06_overflow_problem_in_past.sol": {
		"Problem": {
			"abi": [
				{
					"constant": false,
					"inputs": [
						{
							"name": "added_money",
							"type": "uint256"
						}
					],
					"name": "add_money",
					"outputs": [],
					"payable": false,
					"stateMutability": "nonpayable",
					"type": "function"
				},
				{
					"constant": true,
					"inputs": [],
					"name": "account_balance",
					"outputs": [
						{
							"name": "",
							"type": "uint256"
						}
					],
					"payable": false,
					"stateMutability": "view",
					"type": "function"
				}
			],
			"devdoc": {
				"methods": {}
			},
			"evm": {
				"assembly": "    /* \"Learning_Concepts/06_overflow_problem_in_past.sol\":66:243  contract Problem {\r... */\n  mstore(0x40, 0x80)\n    /* \"Learning_Concepts/06_overflow_problem_in_past.sol\":120:121  0 */\n  0x0\n    /* \"Learning_Concepts/06_overflow_problem_in_past.sol\":90:121  uint public account_balance = 0 */\n  dup1\n  sstore\n    /* \"Learning_Concepts/06_overflow_problem_in_past.sol\":66:243  contract Problem {\r... */\n  callvalue\n    /* \"--CODEGEN--\":8:17   */\n  dup1\n    /* \"--CODEGEN--\":5:7   */\n  iszero\n  tag_1\n  jumpi\n    /* \"--CODEGEN--\":30:31   */\n  0x0\n    /* \"--CODEGEN--\":27:28   */\n  dup1\n    /* \"--CODEGEN--\":20:32   */\n  revert\n    /* \"--CODEGEN--\":5:7   */\ntag_1:\n    /* \"Learning_Concepts/06_overflow_problem_in_past.sol\":66:243  contract Problem {\r... */\n  pop\n  dataSize(sub_0)\n  dup1\n  dataOffset(sub_0)\n  0x0\n  codecopy\n  0x0\n  return\nstop\n\nsub_0: assembly {\n        /* \"Learning_Concepts/06_overflow_problem_in_past.sol\":66:243  contract Problem {\r... */\n      mstore(0x40, 0x80)\n      jumpi(tag_1, lt(calldatasize, 0x4))\n      calldataload(0x0)\n      0x100000000000000000000000000000000000000000000000000000000\n      swap1\n      div\n      0xffffffff\n      and\n      dup1\n      0xafcaf640\n      eq\n      tag_2\n      jumpi\n      dup1\n      0xc08b9399\n      eq\n      tag_3\n      jumpi\n    tag_1:\n      0x0\n      dup1\n      revert\n        /* \"Learning_Concepts/06_overflow_problem_in_past.sol\":130:240  function add_money(uint added_money) public {\r... */\n    tag_2:\n      callvalue\n        /* \"--CODEGEN--\":8:17   */\n      dup1\n        /* \"--CODEGEN--\":5:7   */\n      iszero\n      tag_4\n      jumpi\n        /* \"--CODEGEN--\":30:31   */\n      0x0\n        /* \"--CODEGEN--\":27:28   */\n      dup1\n        /* \"--CODEGEN--\":20:32   */\n      revert\n        /* \"--CODEGEN--\":5:7   */\n    tag_4:\n        /* \"Learning_Concepts/06_overflow_problem_in_past.sol\":130:240  function add_money(uint added_money) public {\r... */\n      pop\n      tag_5\n      0x4\n      dup1\n      calldatasize\n      sub\n        /* \"--CODEGEN--\":13:15   */\n      0x20\n        /* \"--CODEGEN--\":8:11   */\n      dup2\n        /* \"--CODEGEN--\":5:16   */\n      lt\n        /* \"--CODEGEN--\":2:4   */\n      iszero\n      tag_6\n      jumpi\n        /* \"--CODEGEN--\":29:30   */\n      0x0\n        /* \"--CODEGEN--\":26:27   */\n      dup1\n        /* \"--CODEGEN--\":19:31   */\n      revert\n        /* \"--CODEGEN--\":2:4   */\n    tag_6:\n        /* \"Learning_Concepts/06_overflow_problem_in_past.sol\":130:240  function add_money(uint added_money) public {\r... */\n      dup2\n      add\n      swap1\n      dup1\n      dup1\n      calldataload\n      swap1\n      0x20\n      add\n      swap1\n      swap3\n      swap2\n      swap1\n      pop\n      pop\n      pop\n      jump(tag_7)\n    tag_5:\n      stop\n        /* \"Learning_Concepts/06_overflow_problem_in_past.sol\":90:121  uint public account_balance = 0 */\n    tag_3:\n      callvalue\n        /* \"--CODEGEN--\":8:17   */\n      dup1\n        /* \"--CODEGEN--\":5:7   */\n      iszero\n      tag_8\n      jumpi\n        /* \"--CODEGEN--\":30:31   */\n      0x0\n        /* \"--CODEGEN--\":27:28   */\n      dup1\n        /* \"--CODEGEN--\":20:32   */\n      revert\n        /* \"--CODEGEN--\":5:7   */\n    tag_8:\n        /* \"Learning_Concepts/06_overflow_problem_in_past.sol\":90:121  uint public account_balance = 0 */\n      pop\n      tag_9\n      jump(tag_10)\n    tag_9:\n      mload(0x40)\n      dup1\n      dup3\n      dup2\n      mstore\n      0x20\n      add\n      swap2\n      pop\n      pop\n      mload(0x40)\n      dup1\n      swap2\n      sub\n      swap1\n      return\n        /* \"Learning_Concepts/06_overflow_problem_in_past.sol\":130:240  function add_money(uint added_money) public {\r... */\n    tag_7:\n        /* \"Learning_Concepts/06_overflow_problem_in_past.sol\":221:232  added_money */\n      dup1\n        /* \"Learning_Concepts/06_overflow_problem_in_past.sol\":203:218  account_balance */\n      sload(0x0)\n        /* \"Learning_Concepts/06_overflow_problem_in_past.sol\":203:232  account_balance + added_money */\n      add\n        /* \"Learning_Concepts/06_overflow_problem_in_past.sol\":185:200  account_balance */\n      0x0\n        /* \"Learning_Concepts/06_overflow_problem_in_past.sol\":185:232  account_balance = account_balance + added_money */\n      dup2\n      swap1\n      sstore\n      pop\n        /* \"Learning_Concepts/06_overflow_problem_in_past.sol\":130:240  function add_money(uint added_money) public {\r... */\n      pop\n      jump\t// out\n        /* \"Learning_Concepts/06_overflow_problem_in_past.sol\":90:121  uint public account_balance = 0 */\n    tag_10:\n      sload(0x0)\n      dup2\n      jump\t// out\n\n    auxdata: 0xa165627a7a723058200a4dff6062f483e9ae1cd472c82d9a8aabec084fb7668612faf30027d4329be70029\n}\n",
				"bytecode": {
					"linkReferences": {},
					"object": "60806040526000805534801561001457600080fd5b5060ed806100236000396000f3fe6080604052600436106049576000357c0100000000000000000000000000000000000000000000000000000000900463ffffffff168063afcaf64014604e578063c08b9399146085575b600080fd5b348015605957600080fd5b50608360048036036020811015606e57600080fd5b810190808035906020019092919050505060ad565b005b348015609057600080fd5b50609760bb565b6040518082815260200191505060405180910390f35b806000540160008190555050565b6000548156fea165627a7a723058200a4dff6062f483e9ae1cd472c82d9a8aabec084fb7668612faf30027d4329be70029",
					"opcodes": "PUSH1 0x80 PUSH1 0x40 MSTORE PUSH1 0x0 DUP1 SSTORE CALLVALUE DUP1 ISZERO PUSH2 0x14 JUMPI PUSH1 0x0 DUP1 REVERT JUMPDEST POP PUSH1 0xED DUP1 PUSH2 0x23 PUSH1 0x0 CODECOPY PUSH1 0x0 RETURN INVALID PUSH1 0x80 PUSH1 0x40 MSTORE PUSH1 0x4 CALLDATASIZE LT PUSH1 0x49 JUMPI PUSH1 0x0 CALLDATALOAD PUSH29 0x100000000000000000000000000000000000000000000000000000000 SWAP1 DIV PUSH4 0xFFFFFFFF AND DUP1 PUSH4 0xAFCAF640 EQ PUSH1 0x4E JUMPI DUP1 PUSH4 0xC08B9399 EQ PUSH1 0x85 JUMPI JUMPDEST PUSH1 0x0 DUP1 REVERT JUMPDEST CALLVALUE DUP1 ISZERO PUSH1 0x59 JUMPI PUSH1 0x0 DUP1 REVERT JUMPDEST POP PUSH1 0x83 PUSH1 0x4 DUP1 CALLDATASIZE SUB PUSH1 0x20 DUP2 LT ISZERO PUSH1 0x6E JUMPI PUSH1 0x0 DUP1 REVERT JUMPDEST DUP2 ADD SWAP1 DUP1 DUP1 CALLDATALOAD SWAP1 PUSH1 0x20 ADD SWAP1 SWAP3 SWAP2 SWAP1 POP POP POP PUSH1 0xAD JUMP JUMPDEST STOP JUMPDEST CALLVALUE DUP1 ISZERO PUSH1 0x90 JUMPI PUSH1 0x0 DUP1 REVERT JUMPDEST POP PUSH1 0x97 PUSH1 0xBB JUMP JUMPDEST PUSH1 0x40 MLOAD DUP1 DUP3 DUP2 MSTORE PUSH1 0x20 ADD SWAP2 POP POP PUSH1 0x40 MLOAD DUP1 SWAP2 SUB SWAP1 RETURN JUMPDEST DUP1 PUSH1 0x0 SLOAD ADD PUSH1 0x0 DUP2 SWAP1 SSTORE POP POP JUMP JUMPDEST PUSH1 0x0 SLOAD DUP2 JUMP INVALID LOG1 PUSH6 0x627A7A723058 KECCAK256 EXP 0x4d SELFDESTRUCT PUSH1 0x62 DELEGATECALL DUP4 0xe9 0xae SHR 0xd4 PUSH19 0xC82D9A8AABEC084FB7668612FAF30027D4329B 0xe7 STOP 0x29 "
				},
				"gasEstimates": {
					"creation": {
						"codeDepositCost": "47400",
						"executionCost": "5105",
						"totalCost": "52505"
					},
					"external": {
						"account_balance()": "416",
						"add_money(uint256)": "20437"
					}
				},
				"methodIdentifiers": {
					"account_balance()": "c08b9399",
					"add_money(uint256)": "afcaf640"
				}
			},
			"userdoc": {
				"methods": {}
			}
		}
	}
}