{
	"Learning_Concepts/18_payable_function.sol": {
		"Pay": {
			"abi": [
				{
					"inputs": [],
					"name": "get_ether",
					"outputs": [],
					"stateMutability": "payable",
					"type": "function"
				}
			],
			"devdoc": {
				"kind": "dev",
				"methods": {},
				"version": 1
			},
			"evm": {
				"assembly": "    /* \"Learning_Concepts/18_payable_function.sol\":75:380  contract Pay {\r... */\n  mstore(0x40, 0x80)\n  callvalue\n  dup1\n  iszero\n  tag_1\n  jumpi\n  0x00\n  dup1\n  revert\ntag_1:\n  pop\n  dataSize(sub_0)\n  dup1\n  dataOffset(sub_0)\n  0x00\n  codecopy\n  0x00\n  return\nstop\n\nsub_0: assembly {\n        /* \"Learning_Concepts/18_payable_function.sol\":75:380  contract Pay {\r... */\n      mstore(0x40, 0x80)\n      jumpi(tag_1, lt(calldatasize, 0x04))\n      shr(0xe0, calldataload(0x00))\n      dup1\n      0xfe5782cf\n      eq\n      tag_2\n      jumpi\n    tag_1:\n      0x00\n      dup1\n      revert\n        /* \"Learning_Concepts/18_payable_function.sol\":331:369  function get_ether() public payable {} */\n    tag_2:\n      tag_3\n      tag_4\n      jump\t// in\n    tag_3:\n      stop\n    tag_4:\n      jump\t// out\n\n    auxdata: 0xa264697066735822122019a124b4ffd55d301fa4636d2f8b02f86be53cc651de4a397c847d3414f0c51764736f6c63430008070033\n}\n",
				"bytecode": {
					"linkReferences": {},
					"object": "6080604052348015600f57600080fd5b50606180601d6000396000f3fe608060405260043610601c5760003560e01c8063fe5782cf146021575b600080fd5b60276029565b005b56fea264697066735822122019a124b4ffd55d301fa4636d2f8b02f86be53cc651de4a397c847d3414f0c51764736f6c63430008070033",
					"opcodes": "PUSH1 0x80 PUSH1 0x40 MSTORE CALLVALUE DUP1 ISZERO PUSH1 0xF JUMPI PUSH1 0x0 DUP1 REVERT JUMPDEST POP PUSH1 0x61 DUP1 PUSH1 0x1D PUSH1 0x0 CODECOPY PUSH1 0x0 RETURN INVALID PUSH1 0x80 PUSH1 0x40 MSTORE PUSH1 0x4 CALLDATASIZE LT PUSH1 0x1C JUMPI PUSH1 0x0 CALLDATALOAD PUSH1 0xE0 SHR DUP1 PUSH4 0xFE5782CF EQ PUSH1 0x21 JUMPI JUMPDEST PUSH1 0x0 DUP1 REVERT JUMPDEST PUSH1 0x27 PUSH1 0x29 JUMP JUMPDEST STOP JUMPDEST JUMP INVALID LOG2 PUSH5 0x6970667358 0x22 SLT KECCAK256 NOT LOG1 0x24 0xB4 SELFDESTRUCT 0xD5 0x5D ADDRESS 0x1F LOG4 PUSH4 0x6D2F8B02 0xF8 PUSH12 0xE53CC651DE4A397C847D3414 CREATE 0xC5 OR PUSH5 0x736F6C6343 STOP ADDMOD SMOD STOP CALLER "
				},
				"deployedBytecode": {
					"immutableReferences": {},
					"linkReferences": {},
					"object": "608060405260043610601c5760003560e01c8063fe5782cf146021575b600080fd5b60276029565b005b56fea264697066735822122019a124b4ffd55d301fa4636d2f8b02f86be53cc651de4a397c847d3414f0c51764736f6c63430008070033",
					"opcodes": "PUSH1 0x80 PUSH1 0x40 MSTORE PUSH1 0x4 CALLDATASIZE LT PUSH1 0x1C JUMPI PUSH1 0x0 CALLDATALOAD PUSH1 0xE0 SHR DUP1 PUSH4 0xFE5782CF EQ PUSH1 0x21 JUMPI JUMPDEST PUSH1 0x0 DUP1 REVERT JUMPDEST PUSH1 0x27 PUSH1 0x29 JUMP JUMPDEST STOP JUMPDEST JUMP INVALID LOG2 PUSH5 0x6970667358 0x22 SLT KECCAK256 NOT LOG1 0x24 0xB4 SELFDESTRUCT 0xD5 0x5D ADDRESS 0x1F LOG4 PUSH4 0x6D2F8B02 0xF8 PUSH12 0xE53CC651DE4A397C847D3414 CREATE 0xC5 OR PUSH5 0x736F6C6343 STOP ADDMOD SMOD STOP CALLER "
				},
				"gasEstimates": {
					"creation": {
						"codeDepositCost": "19400",
						"executionCost": "75",
						"totalCost": "19475"
					},
					"external": {
						"get_ether()": "98"
					}
				},
				"methodIdentifiers": {
					"get_ether()": "fe5782cf"
				}
			},
			"storageLayout": {
				"storage": [],
				"types": null
			},
			"userdoc": {
				"kind": "user",
				"methods": {},
				"version": 1
			}
		}
	}
}