{
	"Learning_Concepts/15_enum.sol": {
		"Lottery": {
			"abi": [
				{
					"inputs": [],
					"name": "lottery_result",
					"outputs": [],
					"stateMutability": "nonpayable",
					"type": "function"
				}
			],
			"devdoc": {
				"kind": "dev",
				"methods": {},
				"version": 1
			},
			"evm": {
				"assembly": "    /* \"Learning_Concepts/15_enum.sol\":75:228  contract Lottery {\r... */\n  mstore(0x40, 0x80)\n    /* \"Learning_Concepts/15_enum.sol\":121:124  100 */\n  0x64\n    /* \"Learning_Concepts/15_enum.sol\":99:124  uint lottery_amount = 100 */\n  0x00\n  sstore\n    /* \"Learning_Concepts/15_enum.sol\":145:146  0 */\n  0x00\n    /* \"Learning_Concepts/15_enum.sol\":131:146  uint user_1 = 0 */\n  0x01\n  sstore\n    /* \"Learning_Concepts/15_enum.sol\":75:228  contract Lottery {\r... */\n  callvalue\n  dup1\n  iszero\n  tag_1\n  jumpi\n  0x00\n  dup1\n  revert\ntag_1:\n  pop\n  dataSize(sub_0)\n  dup1\n  dataOffset(sub_0)\n  0x00\n  codecopy\n  0x00\n  return\nstop\n\nsub_0: assembly {\n        /* \"Learning_Concepts/15_enum.sol\":75:228  contract Lottery {\r... */\n      mstore(0x40, 0x80)\n      callvalue\n      dup1\n      iszero\n      tag_1\n      jumpi\n      0x00\n      dup1\n      revert\n    tag_1:\n      pop\n      jumpi(tag_2, lt(calldatasize, 0x04))\n      shr(0xe0, calldataload(0x00))\n      dup1\n      0x10cb4c7c\n      eq\n      tag_3\n      jumpi\n    tag_2:\n      0x00\n      dup1\n      revert\n        /* \"Learning_Concepts/15_enum.sol\":155:225  function lottery_result() public {\r... */\n    tag_3:\n      tag_4\n      tag_5\n      jump\t// in\n    tag_4:\n      stop\n    tag_5:\n      jump\t// out\n\n    auxdata: 0xa2646970667358221220abe147963209299c91a55dbf1b8bec99836aa03fcba9d94956eda78096d769be64736f6c63430008070033\n}\n",
				"bytecode": {
					"linkReferences": {},
					"object": "608060405260646000556000600155348015601957600080fd5b50606d806100286000396000f3fe6080604052348015600f57600080fd5b506004361060285760003560e01c806310cb4c7c14602d575b600080fd5b60336035565b005b56fea2646970667358221220abe147963209299c91a55dbf1b8bec99836aa03fcba9d94956eda78096d769be64736f6c63430008070033",
					"opcodes": "PUSH1 0x80 PUSH1 0x40 MSTORE PUSH1 0x64 PUSH1 0x0 SSTORE PUSH1 0x0 PUSH1 0x1 SSTORE CALLVALUE DUP1 ISZERO PUSH1 0x19 JUMPI PUSH1 0x0 DUP1 REVERT JUMPDEST POP PUSH1 0x6D DUP1 PUSH2 0x28 PUSH1 0x0 CODECOPY PUSH1 0x0 RETURN INVALID PUSH1 0x80 PUSH1 0x40 MSTORE CALLVALUE DUP1 ISZERO PUSH1 0xF JUMPI PUSH1 0x0 DUP1 REVERT JUMPDEST POP PUSH1 0x4 CALLDATASIZE LT PUSH1 0x28 JUMPI PUSH1 0x0 CALLDATALOAD PUSH1 0xE0 SHR DUP1 PUSH4 0x10CB4C7C EQ PUSH1 0x2D JUMPI JUMPDEST PUSH1 0x0 DUP1 REVERT JUMPDEST PUSH1 0x33 PUSH1 0x35 JUMP JUMPDEST STOP JUMPDEST JUMP INVALID LOG2 PUSH5 0x6970667358 0x22 SLT KECCAK256 0xAB 0xE1 SELFBALANCE SWAP7 ORIGIN MULMOD 0x29 SWAP13 SWAP2 0xA5 0x5D 0xBF SHL DUP12 0xEC SWAP10 DUP4 PUSH11 0xA03FCBA9D94956EDA78096 0xD7 PUSH10 0xBE64736F6C6343000807 STOP CALLER "
				},
				"gasEstimates": {
					"creation": {
						"codeDepositCost": "21800",
						"executionCost": "27187",
						"totalCost": "48987"
					},
					"external": {
						"lottery_result()": "122"
					}
				},
				"methodIdentifiers": {
					"lottery_result()": "10cb4c7c"
				}
			},
			"storageLayout": {
				"storage": [
					{
						"astId": 4,
						"contract": "Learning_Concepts/15_enum.sol:Lottery",
						"label": "lottery_amount",
						"offset": 0,
						"slot": "0",
						"type": "t_uint256"
					},
					{
						"astId": 7,
						"contract": "Learning_Concepts/15_enum.sol:Lottery",
						"label": "user_1",
						"offset": 0,
						"slot": "1",
						"type": "t_uint256"
					}
				],
				"types": {
					"t_uint256": {
						"encoding": "inplace",
						"label": "uint256",
						"numberOfBytes": "32"
					}
				}
			},
			"userdoc": {
				"kind": "user",
				"methods": {},
				"version": 1
			}
		}
	}
}