{
	"Learning_Concepts/15_enum.sol": {
		"Lottery": {
			"abi": [
				{
					"inputs": [],
					"name": "lottery_amount",
					"outputs": [
						{
							"internalType": "uint256",
							"name": "",
							"type": "uint256"
						}
					],
					"stateMutability": "view",
					"type": "function"
				},
				{
					"inputs": [],
					"name": "lottery_result",
					"outputs": [],
					"stateMutability": "nonpayable",
					"type": "function"
				},
				{
					"inputs": [],
					"name": "user_1",
					"outputs": [
						{
							"internalType": "enum Lottery.user",
							"name": "",
							"type": "uint8"
						}
					],
					"stateMutability": "view",
					"type": "function"
				}
			],
			"devdoc": {
				"kind": "dev",
				"methods": {},
				"version": 1
			},
			"evm": {
				"assembly": "    /* \"Learning_Concepts/15_enum.sol\":75:446  contract Lottery {\r... */\n  mstore(0x40, 0x80)\n    /* \"Learning_Concepts/15_enum.sol\":128:131  100 */\n  0x64\n    /* \"Learning_Concepts/15_enum.sol\":99:131  uint public lottery_amount = 100 */\n  0x00\n  sstore\n    /* \"Learning_Concepts/15_enum.sol\":225:233  user.won */\n  0x00\n    /* \"Learning_Concepts/15_enum.sol\":204:233  user public user_1 = user.won */\n  0x01\n  exp(0x0100, 0x00)\n  dup2\n  sload\n  dup2\n  0xff\n  mul\n  not\n  and\n  swap1\n  dup4\n  0x01\n  dup2\n  gt\n  iszero\n  tag_1\n  jumpi\n  tag_2\n  tag_3\n  jump\t// in\ntag_2:\ntag_1:\n  mul\n  or\n  swap1\n  sstore\n  pop\n    /* \"Learning_Concepts/15_enum.sol\":75:446  contract Lottery {\r... */\n  callvalue\n  dup1\n  iszero\n  tag_4\n  jumpi\n  0x00\n  dup1\n  revert\ntag_4:\n  pop\n  jump(tag_5)\n    /* \"#utility.yul\":7:187   */\ntag_3:\n    /* \"#utility.yul\":55:132   */\n  0x4e487b7100000000000000000000000000000000000000000000000000000000\n    /* \"#utility.yul\":52:53   */\n  0x00\n    /* \"#utility.yul\":45:133   */\n  mstore\n    /* \"#utility.yul\":152:156   */\n  0x21\n    /* \"#utility.yul\":149:150   */\n  0x04\n    /* \"#utility.yul\":142:157   */\n  mstore\n    /* \"#utility.yul\":176:180   */\n  0x24\n    /* \"#utility.yul\":173:174   */\n  0x00\n    /* \"#utility.yul\":166:181   */\n  revert\n    /* \"Learning_Concepts/15_enum.sol\":75:446  contract Lottery {\r... */\ntag_5:\n  dataSize(sub_0)\n  dup1\n  dataOffset(sub_0)\n  0x00\n  codecopy\n  0x00\n  return\nstop\n\nsub_0: assembly {\n        /* \"Learning_Concepts/15_enum.sol\":75:446  contract Lottery {\r... */\n      mstore(0x40, 0x80)\n      callvalue\n      dup1\n      iszero\n      tag_1\n      jumpi\n      0x00\n      dup1\n      revert\n    tag_1:\n      pop\n      jumpi(tag_2, lt(calldatasize, 0x04))\n      shr(0xe0, calldataload(0x00))\n      dup1\n      0x10cb4c7c\n      eq\n      tag_3\n      jumpi\n      dup1\n      0x728f8dd4\n      eq\n      tag_4\n      jumpi\n      dup1\n      0xf1e96c27\n      eq\n      tag_5\n      jumpi\n    tag_2:\n      0x00\n      dup1\n      revert\n        /* \"Learning_Concepts/15_enum.sol\":259:443  function lottery_result() public {\r... */\n    tag_3:\n      tag_6\n      tag_7\n      jump\t// in\n    tag_6:\n      stop\n        /* \"Learning_Concepts/15_enum.sol\":99:131  uint public lottery_amount = 100 */\n    tag_4:\n      tag_8\n      tag_9\n      jump\t// in\n    tag_8:\n      mload(0x40)\n      tag_10\n      swap2\n      swap1\n      tag_11\n      jump\t// in\n    tag_10:\n      mload(0x40)\n      dup1\n      swap2\n      sub\n      swap1\n      return\n        /* \"Learning_Concepts/15_enum.sol\":204:233  user public user_1 = user.won */\n    tag_5:\n      tag_12\n      tag_13\n      jump\t// in\n    tag_12:\n      mload(0x40)\n      tag_14\n      swap2\n      swap1\n      tag_15\n      jump\t// in\n    tag_14:\n      mload(0x40)\n      dup1\n      swap2\n      sub\n      swap1\n      return\n        /* \"Learning_Concepts/15_enum.sol\":259:443  function lottery_result() public {\r... */\n    tag_7:\n        /* \"Learning_Concepts/15_enum.sol\":317:325  user.won */\n      0x00\n        /* \"Learning_Concepts/15_enum.sol\":307:325  user_1 == user.won */\n      0x01\n      dup2\n      gt\n      iszero\n      tag_17\n      jumpi\n      tag_18\n      tag_19\n      jump\t// in\n    tag_18:\n    tag_17:\n        /* \"Learning_Concepts/15_enum.sol\":307:313  user_1 */\n      0x01\n      0x00\n      swap1\n      sload\n      swap1\n      0x0100\n      exp\n      swap1\n      div\n      0xff\n      and\n        /* \"Learning_Concepts/15_enum.sol\":307:325  user_1 == user.won */\n      0x01\n      dup2\n      gt\n      iszero\n      tag_20\n      jumpi\n      tag_21\n      tag_19\n      jump\t// in\n    tag_21:\n    tag_20:\n      eq\n        /* \"Learning_Concepts/15_enum.sol\":303:435  if (user_1 == user.won) {\r... */\n      iszero\n      tag_22\n      jumpi\n        /* \"Learning_Concepts/15_enum.sol\":387:388  0 */\n      0x00\n        /* \"Learning_Concepts/15_enum.sol\":370:384  lottery_amount */\n      dup1\n        /* \"Learning_Concepts/15_enum.sol\":370:388  lottery_amount = 0 */\n      dup2\n      swap1\n      sstore\n      pop\n        /* \"Learning_Concepts/15_enum.sol\":303:435  if (user_1 == user.won) {\r... */\n    tag_22:\n        /* \"Learning_Concepts/15_enum.sol\":259:443  function lottery_result() public {\r... */\n      jump\t// out\n        /* \"Learning_Concepts/15_enum.sol\":99:131  uint public lottery_amount = 100 */\n    tag_9:\n      sload(0x00)\n      dup2\n      jump\t// out\n        /* \"Learning_Concepts/15_enum.sol\":204:233  user public user_1 = user.won */\n    tag_13:\n      0x01\n      0x00\n      swap1\n      sload\n      swap1\n      0x0100\n      exp\n      swap1\n      div\n      0xff\n      and\n      dup2\n      jump\t// out\n        /* \"#utility.yul\":7:146   */\n    tag_24:\n        /* \"#utility.yul\":98:139   */\n      tag_26\n        /* \"#utility.yul\":133:138   */\n      dup2\n        /* \"#utility.yul\":98:139   */\n      tag_27\n      jump\t// in\n    tag_26:\n        /* \"#utility.yul\":93:96   */\n      dup3\n        /* \"#utility.yul\":86:140   */\n      mstore\n        /* \"#utility.yul\":7:146   */\n      pop\n      pop\n      jump\t// out\n        /* \"#utility.yul\":152:270   */\n    tag_28:\n        /* \"#utility.yul\":239:263   */\n      tag_30\n        /* \"#utility.yul\":257:262   */\n      dup2\n        /* \"#utility.yul\":239:263   */\n      tag_31\n      jump\t// in\n    tag_30:\n        /* \"#utility.yul\":234:237   */\n      dup3\n        /* \"#utility.yul\":227:264   */\n      mstore\n        /* \"#utility.yul\":152:270   */\n      pop\n      pop\n      jump\t// out\n        /* \"#utility.yul\":276:506   */\n    tag_15:\n        /* \"#utility.yul\":373:377   */\n      0x00\n        /* \"#utility.yul\":411:413   */\n      0x20\n        /* \"#utility.yul\":400:409   */\n      dup3\n        /* \"#utility.yul\":396:414   */\n      add\n        /* \"#utility.yul\":388:414   */\n      swap1\n      pop\n        /* \"#utility.yul\":424:499   */\n      tag_33\n        /* \"#utility.yul\":496:497   */\n      0x00\n        /* \"#utility.yul\":485:494   */\n      dup4\n        /* \"#utility.yul\":481:498   */\n      add\n        /* \"#utility.yul\":472:478   */\n      dup5\n        /* \"#utility.yul\":424:499   */\n      tag_24\n      jump\t// in\n    tag_33:\n        /* \"#utility.yul\":276:506   */\n      swap3\n      swap2\n      pop\n      pop\n      jump\t// out\n        /* \"#utility.yul\":512:734   */\n    tag_11:\n        /* \"#utility.yul\":605:609   */\n      0x00\n        /* \"#utility.yul\":643:645   */\n      0x20\n        /* \"#utility.yul\":632:641   */\n      dup3\n        /* \"#utility.yul\":628:646   */\n      add\n        /* \"#utility.yul\":620:646   */\n      swap1\n      pop\n        /* \"#utility.yul\":656:727   */\n      tag_35\n        /* \"#utility.yul\":724:725   */\n      0x00\n        /* \"#utility.yul\":713:722   */\n      dup4\n        /* \"#utility.yul\":709:726   */\n      add\n        /* \"#utility.yul\":700:706   */\n      dup5\n        /* \"#utility.yul\":656:727   */\n      tag_28\n      jump\t// in\n    tag_35:\n        /* \"#utility.yul\":512:734   */\n      swap3\n      swap2\n      pop\n      pop\n      jump\t// out\n        /* \"#utility.yul\":740:863   */\n    tag_36:\n        /* \"#utility.yul\":783:790   */\n      0x00\n        /* \"#utility.yul\":812:817   */\n      dup2\n        /* \"#utility.yul\":801:817   */\n      swap1\n      pop\n        /* \"#utility.yul\":818:857   */\n      tag_38\n        /* \"#utility.yul\":851:856   */\n      dup3\n        /* \"#utility.yul\":818:857   */\n      tag_39\n      jump\t// in\n    tag_38:\n        /* \"#utility.yul\":740:863   */\n      swap2\n      swap1\n      pop\n      jump\t// out\n        /* \"#utility.yul\":869:946   */\n    tag_31:\n        /* \"#utility.yul\":906:913   */\n      0x00\n        /* \"#utility.yul\":935:940   */\n      dup2\n        /* \"#utility.yul\":924:940   */\n      swap1\n      pop\n        /* \"#utility.yul\":869:946   */\n      swap2\n      swap1\n      pop\n      jump\t// out\n        /* \"#utility.yul\":952:1075   */\n    tag_27:\n        /* \"#utility.yul\":1006:1015   */\n      0x00\n        /* \"#utility.yul\":1039:1069   */\n      tag_42\n        /* \"#utility.yul\":1063:1068   */\n      dup3\n        /* \"#utility.yul\":1039:1069   */\n      tag_36\n      jump\t// in\n    tag_42:\n        /* \"#utility.yul\":1026:1069   */\n      swap1\n      pop\n        /* \"#utility.yul\":952:1075   */\n      swap2\n      swap1\n      pop\n      jump\t// out\n        /* \"#utility.yul\":1081:1261   */\n    tag_19:\n        /* \"#utility.yul\":1129:1206   */\n      0x4e487b7100000000000000000000000000000000000000000000000000000000\n        /* \"#utility.yul\":1126:1127   */\n      0x00\n        /* \"#utility.yul\":1119:1207   */\n      mstore\n        /* \"#utility.yul\":1226:1230   */\n      0x21\n        /* \"#utility.yul\":1223:1224   */\n      0x04\n        /* \"#utility.yul\":1216:1231   */\n      mstore\n        /* \"#utility.yul\":1250:1254   */\n      0x24\n        /* \"#utility.yul\":1247:1248   */\n      0x00\n        /* \"#utility.yul\":1240:1255   */\n      revert\n        /* \"#utility.yul\":1267:1378   */\n    tag_39:\n        /* \"#utility.yul\":1346:1347   */\n      0x02\n        /* \"#utility.yul\":1339:1344   */\n      dup2\n        /* \"#utility.yul\":1336:1348   */\n      lt\n        /* \"#utility.yul\":1326:1372   */\n      tag_45\n      jumpi\n        /* \"#utility.yul\":1352:1370   */\n      tag_46\n      tag_19\n      jump\t// in\n    tag_46:\n        /* \"#utility.yul\":1326:1372   */\n    tag_45:\n        /* \"#utility.yul\":1267:1378   */\n      pop\n      jump\t// out\n\n    auxdata: 0xa2646970667358221220f79896f752f06d26f481621aebaaac8e0c72823b347afca96fdc602afa69b3e764736f6c63430008070033\n}\n",
				"bytecode": {
					"linkReferences": {},
					"object": "608060405260646000556000600160006101000a81548160ff0219169083600181111561002f5761002e610046565b5b021790555034801561004057600080fd5b50610075565b7f4e487b7100000000000000000000000000000000000000000000000000000000600052602160045260246000fd5b6101e7806100846000396000f3fe608060405234801561001057600080fd5b50600436106100415760003560e01c806310cb4c7c14610046578063728f8dd414610050578063f1e96c271461006e575b600080fd5b61004e61008c565b005b6100586100d2565b6040516100659190610124565b60405180910390f35b6100766100d8565b6040516100839190610109565b60405180910390f35b600060018111156100a05761009f61016e565b5b600160009054906101000a900460ff1660018111156100c2576100c161016e565b5b14156100d057600080819055505b565b60005481565b600160009054906101000a900460ff1681565b6100f48161015c565b82525050565b61010381610152565b82525050565b600060208201905061011e60008301846100eb565b92915050565b600060208201905061013960008301846100fa565b92915050565b600081905061014d8261019d565b919050565b6000819050919050565b60006101678261013f565b9050919050565b7f4e487b7100000000000000000000000000000000000000000000000000000000600052602160045260246000fd5b600281106101ae576101ad61016e565b5b5056fea2646970667358221220f79896f752f06d26f481621aebaaac8e0c72823b347afca96fdc602afa69b3e764736f6c63430008070033",
					"opcodes": "PUSH1 0x80 PUSH1 0x40 MSTORE PUSH1 0x64 PUSH1 0x0 SSTORE PUSH1 0x0 PUSH1 0x1 PUSH1 0x0 PUSH2 0x100 EXP DUP2 SLOAD DUP2 PUSH1 0xFF MUL NOT AND SWAP1 DUP4 PUSH1 0x1 DUP2 GT ISZERO PUSH2 0x2F JUMPI PUSH2 0x2E PUSH2 0x46 JUMP JUMPDEST JUMPDEST MUL OR SWAP1 SSTORE POP CALLVALUE DUP1 ISZERO PUSH2 0x40 JUMPI PUSH1 0x0 DUP1 REVERT JUMPDEST POP PUSH2 0x75 JUMP JUMPDEST PUSH32 0x4E487B7100000000000000000000000000000000000000000000000000000000 PUSH1 0x0 MSTORE PUSH1 0x21 PUSH1 0x4 MSTORE PUSH1 0x24 PUSH1 0x0 REVERT JUMPDEST PUSH2 0x1E7 DUP1 PUSH2 0x84 PUSH1 0x0 CODECOPY PUSH1 0x0 RETURN INVALID PUSH1 0x80 PUSH1 0x40 MSTORE CALLVALUE DUP1 ISZERO PUSH2 0x10 JUMPI PUSH1 0x0 DUP1 REVERT JUMPDEST POP PUSH1 0x4 CALLDATASIZE LT PUSH2 0x41 JUMPI PUSH1 0x0 CALLDATALOAD PUSH1 0xE0 SHR DUP1 PUSH4 0x10CB4C7C EQ PUSH2 0x46 JUMPI DUP1 PUSH4 0x728F8DD4 EQ PUSH2 0x50 JUMPI DUP1 PUSH4 0xF1E96C27 EQ PUSH2 0x6E JUMPI JUMPDEST PUSH1 0x0 DUP1 REVERT JUMPDEST PUSH2 0x4E PUSH2 0x8C JUMP JUMPDEST STOP JUMPDEST PUSH2 0x58 PUSH2 0xD2 JUMP JUMPDEST PUSH1 0x40 MLOAD PUSH2 0x65 SWAP2 SWAP1 PUSH2 0x124 JUMP JUMPDEST PUSH1 0x40 MLOAD DUP1 SWAP2 SUB SWAP1 RETURN JUMPDEST PUSH2 0x76 PUSH2 0xD8 JUMP JUMPDEST PUSH1 0x40 MLOAD PUSH2 0x83 SWAP2 SWAP1 PUSH2 0x109 JUMP JUMPDEST PUSH1 0x40 MLOAD DUP1 SWAP2 SUB SWAP1 RETURN JUMPDEST PUSH1 0x0 PUSH1 0x1 DUP2 GT ISZERO PUSH2 0xA0 JUMPI PUSH2 0x9F PUSH2 0x16E JUMP JUMPDEST JUMPDEST PUSH1 0x1 PUSH1 0x0 SWAP1 SLOAD SWAP1 PUSH2 0x100 EXP SWAP1 DIV PUSH1 0xFF AND PUSH1 0x1 DUP2 GT ISZERO PUSH2 0xC2 JUMPI PUSH2 0xC1 PUSH2 0x16E JUMP JUMPDEST JUMPDEST EQ ISZERO PUSH2 0xD0 JUMPI PUSH1 0x0 DUP1 DUP2 SWAP1 SSTORE POP JUMPDEST JUMP JUMPDEST PUSH1 0x0 SLOAD DUP2 JUMP JUMPDEST PUSH1 0x1 PUSH1 0x0 SWAP1 SLOAD SWAP1 PUSH2 0x100 EXP SWAP1 DIV PUSH1 0xFF AND DUP2 JUMP JUMPDEST PUSH2 0xF4 DUP2 PUSH2 0x15C JUMP JUMPDEST DUP3 MSTORE POP POP JUMP JUMPDEST PUSH2 0x103 DUP2 PUSH2 0x152 JUMP JUMPDEST DUP3 MSTORE POP POP JUMP JUMPDEST PUSH1 0x0 PUSH1 0x20 DUP3 ADD SWAP1 POP PUSH2 0x11E PUSH1 0x0 DUP4 ADD DUP5 PUSH2 0xEB JUMP JUMPDEST SWAP3 SWAP2 POP POP JUMP JUMPDEST PUSH1 0x0 PUSH1 0x20 DUP3 ADD SWAP1 POP PUSH2 0x139 PUSH1 0x0 DUP4 ADD DUP5 PUSH2 0xFA JUMP JUMPDEST SWAP3 SWAP2 POP POP JUMP JUMPDEST PUSH1 0x0 DUP2 SWAP1 POP PUSH2 0x14D DUP3 PUSH2 0x19D JUMP JUMPDEST SWAP2 SWAP1 POP JUMP JUMPDEST PUSH1 0x0 DUP2 SWAP1 POP SWAP2 SWAP1 POP JUMP JUMPDEST PUSH1 0x0 PUSH2 0x167 DUP3 PUSH2 0x13F JUMP JUMPDEST SWAP1 POP SWAP2 SWAP1 POP JUMP JUMPDEST PUSH32 0x4E487B7100000000000000000000000000000000000000000000000000000000 PUSH1 0x0 MSTORE PUSH1 0x21 PUSH1 0x4 MSTORE PUSH1 0x24 PUSH1 0x0 REVERT JUMPDEST PUSH1 0x2 DUP2 LT PUSH2 0x1AE JUMPI PUSH2 0x1AD PUSH2 0x16E JUMP JUMPDEST JUMPDEST POP JUMP INVALID LOG2 PUSH5 0x6970667358 0x22 SLT KECCAK256 0xF7 SWAP9 SWAP7 0xF7 MSTORE CREATE PUSH14 0x26F481621AEBAAAC8E0C72823B34 PUSH27 0xFCA96FDC602AFA69B3E764736F6C63430008070033000000000000 "
				},
				"gasEstimates": {
					"creation": {
						"codeDepositCost": "97400",
						"executionCost": "46552",
						"totalCost": "143952"
					},
					"external": {
						"lottery_amount()": "2429",
						"lottery_result()": "7350",
						"user_1()": "2582"
					}
				},
				"methodIdentifiers": {
					"lottery_amount()": "728f8dd4",
					"lottery_result()": "10cb4c7c",
					"user_1()": "f1e96c27"
				}
			},
			"storageLayout": {
				"storage": [
					{
						"astId": 4,
						"contract": "Learning_Concepts/15_enum.sol:Lottery",
						"label": "lottery_amount",
						"offset": 0,
						"slot": "0",
						"type": "t_uint256"
					},
					{
						"astId": 12,
						"contract": "Learning_Concepts/15_enum.sol:Lottery",
						"label": "user_1",
						"offset": 0,
						"slot": "1",
						"type": "t_enum(user)7"
					}
				],
				"types": {
					"t_enum(user)7": {
						"encoding": "inplace",
						"label": "enum Lottery.user",
						"numberOfBytes": "1"
					},
					"t_uint256": {
						"encoding": "inplace",
						"label": "uint256",
						"numberOfBytes": "32"
					}
				}
			},
			"userdoc": {
				"kind": "user",
				"methods": {},
				"version": 1
			}
		}
	}
}