{
	"Learning_Concepts/09_byte_array.sol": {
		"Demo": {
			"abi": [
				{
					"constant": true,
					"inputs": [],
					"name": "b2",
					"outputs": [
						{
							"name": "",
							"type": "bytes2"
						}
					],
					"payable": false,
					"stateMutability": "view",
					"type": "function"
				},
				{
					"constant": false,
					"inputs": [],
					"name": "setter",
					"outputs": [],
					"payable": false,
					"stateMutability": "nonpayable",
					"type": "function"
				},
				{
					"constant": true,
					"inputs": [
						{
							"name": "index",
							"type": "uint256"
						}
					],
					"name": "getter",
					"outputs": [
						{
							"name": "",
							"type": "bytes1"
						}
					],
					"payable": false,
					"stateMutability": "view",
					"type": "function"
				},
				{
					"constant": true,
					"inputs": [],
					"name": "b3",
					"outputs": [
						{
							"name": "",
							"type": "bytes3"
						}
					],
					"payable": false,
					"stateMutability": "view",
					"type": "function"
				}
			],
			"devdoc": {
				"methods": {}
			},
			"evm": {
				"assembly": "    /* \"Learning_Concepts/09_byte_array.sol\":75:563  contract Demo {\r... */\n  mstore(0x40, 0x80)\n  callvalue\n    /* \"--CODEGEN--\":8:17   */\n  dup1\n    /* \"--CODEGEN--\":5:7   */\n  iszero\n  tag_1\n  jumpi\n    /* \"--CODEGEN--\":30:31   */\n  0x0\n    /* \"--CODEGEN--\":27:28   */\n  dup1\n    /* \"--CODEGEN--\":20:32   */\n  revert\n    /* \"--CODEGEN--\":5:7   */\ntag_1:\n    /* \"Learning_Concepts/09_byte_array.sol\":75:563  contract Demo {\r... */\n  pop\n  dataSize(sub_0)\n  dup1\n  dataOffset(sub_0)\n  0x0\n  codecopy\n  0x0\n  return\nstop\n\nsub_0: assembly {\n        /* \"Learning_Concepts/09_byte_array.sol\":75:563  contract Demo {\r... */\n      mstore(0x40, 0x80)\n      jumpi(tag_1, lt(calldatasize, 0x4))\n      calldataload(0x0)\n      0x100000000000000000000000000000000000000000000000000000000\n      swap1\n      div\n      0xffffffff\n      and\n      dup1\n      0xadd6ef2\n      eq\n      tag_2\n      jumpi\n      dup1\n      0x3f3108f7\n      eq\n      tag_3\n      jumpi\n      dup1\n      0x94cad55d\n      eq\n      tag_4\n      jumpi\n      dup1\n      0xe9b61909\n      eq\n      tag_5\n      jumpi\n    tag_1:\n      0x0\n      dup1\n      revert\n        /* \"Learning_Concepts/09_byte_array.sol\":145:161  bytes2 public b2 */\n    tag_2:\n      callvalue\n        /* \"--CODEGEN--\":8:17   */\n      dup1\n        /* \"--CODEGEN--\":5:7   */\n      iszero\n      tag_6\n      jumpi\n        /* \"--CODEGEN--\":30:31   */\n      0x0\n        /* \"--CODEGEN--\":27:28   */\n      dup1\n        /* \"--CODEGEN--\":20:32   */\n      revert\n        /* \"--CODEGEN--\":5:7   */\n    tag_6:\n        /* \"Learning_Concepts/09_byte_array.sol\":145:161  bytes2 public b2 */\n      pop\n      tag_7\n      jump(tag_8)\n    tag_7:\n      mload(0x40)\n      dup1\n      dup3\n      not(0xffffffffffffffffffffffffffffffffffffffffffffffffffffffffffff)\n      and\n      not(0xffffffffffffffffffffffffffffffffffffffffffffffffffffffffffff)\n      and\n      dup2\n      mstore\n      0x20\n      add\n      swap2\n      pop\n      pop\n      mload(0x40)\n      dup1\n      swap2\n      sub\n      swap1\n      return\n        /* \"Learning_Concepts/09_byte_array.sol\":379:463  function setter() public  {\r... */\n    tag_3:\n      callvalue\n        /* \"--CODEGEN--\":8:17   */\n      dup1\n        /* \"--CODEGEN--\":5:7   */\n      iszero\n      tag_9\n      jumpi\n        /* \"--CODEGEN--\":30:31   */\n      0x0\n        /* \"--CODEGEN--\":27:28   */\n      dup1\n        /* \"--CODEGEN--\":20:32   */\n      revert\n        /* \"--CODEGEN--\":5:7   */\n    tag_9:\n        /* \"Learning_Concepts/09_byte_array.sol\":379:463  function setter() public  {\r... */\n      pop\n      tag_10\n      jump(tag_11)\n    tag_10:\n      stop\n        /* \"Learning_Concepts/09_byte_array.sol\":471:560  function getter(uint index) public view returns(byte) {\r... */\n    tag_4:\n      callvalue\n        /* \"--CODEGEN--\":8:17   */\n      dup1\n        /* \"--CODEGEN--\":5:7   */\n      iszero\n      tag_12\n      jumpi\n        /* \"--CODEGEN--\":30:31   */\n      0x0\n        /* \"--CODEGEN--\":27:28   */\n      dup1\n        /* \"--CODEGEN--\":20:32   */\n      revert\n        /* \"--CODEGEN--\":5:7   */\n    tag_12:\n        /* \"Learning_Concepts/09_byte_array.sol\":471:560  function getter(uint index) public view returns(byte) {\r... */\n      pop\n      tag_13\n      0x4\n      dup1\n      calldatasize\n      sub\n        /* \"--CODEGEN--\":13:15   */\n      0x20\n        /* \"--CODEGEN--\":8:11   */\n      dup2\n        /* \"--CODEGEN--\":5:16   */\n      lt\n        /* \"--CODEGEN--\":2:4   */\n      iszero\n      tag_14\n      jumpi\n        /* \"--CODEGEN--\":29:30   */\n      0x0\n        /* \"--CODEGEN--\":26:27   */\n      dup1\n        /* \"--CODEGEN--\":19:31   */\n      revert\n        /* \"--CODEGEN--\":2:4   */\n    tag_14:\n        /* \"Learning_Concepts/09_byte_array.sol\":471:560  function getter(uint index) public view returns(byte) {\r... */\n      dup2\n      add\n      swap1\n      dup1\n      dup1\n      calldataload\n      swap1\n      0x20\n      add\n      swap1\n      swap3\n      swap2\n      swap1\n      pop\n      pop\n      pop\n      jump(tag_15)\n    tag_13:\n      mload(0x40)\n      dup1\n      dup3\n      not(0xffffffffffffffffffffffffffffffffffffffffffffffffffffffffffffff)\n      and\n      not(0xffffffffffffffffffffffffffffffffffffffffffffffffffffffffffffff)\n      and\n      dup2\n      mstore\n      0x20\n      add\n      swap2\n      pop\n      pop\n      mload(0x40)\n      dup1\n      swap2\n      sub\n      swap1\n      return\n        /* \"Learning_Concepts/09_byte_array.sol\":354:370  bytes3 public b3 */\n    tag_5:\n      callvalue\n        /* \"--CODEGEN--\":8:17   */\n      dup1\n        /* \"--CODEGEN--\":5:7   */\n      iszero\n      tag_16\n      jumpi\n        /* \"--CODEGEN--\":30:31   */\n      0x0\n        /* \"--CODEGEN--\":27:28   */\n      dup1\n        /* \"--CODEGEN--\":20:32   */\n      revert\n        /* \"--CODEGEN--\":5:7   */\n    tag_16:\n        /* \"Learning_Concepts/09_byte_array.sol\":354:370  bytes3 public b3 */\n      pop\n      tag_17\n      jump(tag_18)\n    tag_17:\n      mload(0x40)\n      dup1\n      dup3\n      not(0xffffffffffffffffffffffffffffffffffffffffffffffffffffffffff)\n      and\n      not(0xffffffffffffffffffffffffffffffffffffffffffffffffffffffffff)\n      and\n      dup2\n      mstore\n      0x20\n      add\n      swap2\n      pop\n      pop\n      mload(0x40)\n      dup1\n      swap2\n      sub\n      swap1\n      return\n        /* \"Learning_Concepts/09_byte_array.sol\":145:161  bytes2 public b2 */\n    tag_8:\n      0x0\n      dup1\n      swap1\n      sload\n      swap1\n      0x100\n      exp\n      swap1\n      div\n      0x1000000000000000000000000000000000000000000000000000000000000\n      mul\n      dup2\n      jump\t// out\n        /* \"Learning_Concepts/09_byte_array.sol\":379:463  function setter() public  {\r... */\n    tag_11:\n        /* \"Learning_Concepts/09_byte_array.sol\":416:425  b2 = \"ab\" */\n      0x6162000000000000000000000000000000000000000000000000000000000000\n        /* \"Learning_Concepts/09_byte_array.sol\":416:418  b2 */\n      0x0\n      dup1\n        /* \"Learning_Concepts/09_byte_array.sol\":416:425  b2 = \"ab\" */\n      0x100\n      exp\n      dup2\n      sload\n      dup2\n      0xffff\n      mul\n      not\n      and\n      swap1\n      dup4\n      0x1000000000000000000000000000000000000000000000000000000000000\n      swap1\n      div\n      mul\n      or\n      swap1\n      sstore\n      pop\n        /* \"Learning_Concepts/09_byte_array.sol\":436:445  b3 = \"ab\" */\n      0x6162000000000000000000000000000000000000000000000000000000000000\n        /* \"Learning_Concepts/09_byte_array.sol\":436:438  b3 */\n      0x0\n      0x2\n        /* \"Learning_Concepts/09_byte_array.sol\":436:445  b3 = \"ab\" */\n      0x100\n      exp\n      dup2\n      sload\n      dup2\n      0xffffff\n      mul\n      not\n      and\n      swap1\n      dup4\n      0x10000000000000000000000000000000000000000000000000000000000\n      swap1\n      div\n      mul\n      or\n      swap1\n      sstore\n      pop\n        /* \"Learning_Concepts/09_byte_array.sol\":379:463  function setter() public  {\r... */\n      jump\t// out\n        /* \"Learning_Concepts/09_byte_array.sol\":471:560  function getter(uint index) public view returns(byte) {\r... */\n    tag_15:\n        /* \"Learning_Concepts/09_byte_array.sol\":519:523  byte */\n      0x0\n        /* \"Learning_Concepts/09_byte_array.sol\":543:545  b2 */\n      dup1\n      0x0\n      swap1\n      sload\n      swap1\n      0x100\n      exp\n      swap1\n      div\n      0x1000000000000000000000000000000000000000000000000000000000000\n      mul\n        /* \"Learning_Concepts/09_byte_array.sol\":546:551  index */\n      dup3\n        /* \"Learning_Concepts/09_byte_array.sol\":543:552  b2[index] */\n      0x2\n      dup2\n      lt\n      iszero\n      iszero\n      tag_21\n      jumpi\n      invalid\n    tag_21:\n      byte\n      0x100000000000000000000000000000000000000000000000000000000000000\n      mul\n        /* \"Learning_Concepts/09_byte_array.sol\":536:552  return b2[index] */\n      swap1\n      pop\n        /* \"Learning_Concepts/09_byte_array.sol\":471:560  function getter(uint index) public view returns(byte) {\r... */\n      swap2\n      swap1\n      pop\n      jump\t// out\n        /* \"Learning_Concepts/09_byte_array.sol\":354:370  bytes3 public b3 */\n    tag_18:\n      0x0\n      0x2\n      swap1\n      sload\n      swap1\n      0x100\n      exp\n      swap1\n      div\n      0x10000000000000000000000000000000000000000000000000000000000\n      mul\n      dup2\n      jump\t// out\n\n    auxdata: 0xa165627a7a7230582089d2cc4fae01ceef767137b097db94b2b1afe7a5e4570e221279f625937206900029\n}\n",
				"bytecode": {
					"linkReferences": {},
					"object": "608060405234801561001057600080fd5b50610392806100206000396000f3fe608060405260043610610062576000357c0100000000000000000000000000000000000000000000000000000000900463ffffffff1680630add6ef2146100675780633f3108f7146100d457806394cad55d146100eb578063e9b619091461017e575b600080fd5b34801561007357600080fd5b5061007c6101e9565b60405180827dffffffffffffffffffffffffffffffffffffffffffffffffffffffffffff19167dffffffffffffffffffffffffffffffffffffffffffffffffffffffffffff1916815260200191505060405180910390f35b3480156100e057600080fd5b506100e9610219565b005b3480156100f757600080fd5b506101246004803603602081101561010e57600080fd5b81019080803590602001909291905050506102d0565b60405180827effffffffffffffffffffffffffffffffffffffffffffffffffffffffffffff19167effffffffffffffffffffffffffffffffffffffffffffffffffffffffffffff1916815260200191505060405180910390f35b34801561018a57600080fd5b50610193610336565b60405180827cffffffffffffffffffffffffffffffffffffffffffffffffffffffffff19167cffffffffffffffffffffffffffffffffffffffffffffffffffffffffff1916815260200191505060405180910390f35b6000809054906101000a90047e010000000000000000000000000000000000000000000000000000000000000281565b7f61620000000000000000000000000000000000000000000000000000000000006000806101000a81548161ffff02191690837e01000000000000000000000000000000000000000000000000000000000000900402179055507f6162000000000000000000000000000000000000000000000000000000000000600060026101000a81548162ffffff02191690837d01000000000000000000000000000000000000000000000000000000000090040217905550565b60008060009054906101000a90047e01000000000000000000000000000000000000000000000000000000000000028260028110151561030c57fe5b1a7f0100000000000000000000000000000000000000000000000000000000000000029050919050565b600060029054906101000a90047d010000000000000000000000000000000000000000000000000000000000028156fea165627a7a7230582089d2cc4fae01ceef767137b097db94b2b1afe7a5e4570e221279f625937206900029",
					"opcodes": "PUSH1 0x80 PUSH1 0x40 MSTORE CALLVALUE DUP1 ISZERO PUSH2 0x10 JUMPI PUSH1 0x0 DUP1 REVERT JUMPDEST POP PUSH2 0x392 DUP1 PUSH2 0x20 PUSH1 0x0 CODECOPY PUSH1 0x0 RETURN INVALID PUSH1 0x80 PUSH1 0x40 MSTORE PUSH1 0x4 CALLDATASIZE LT PUSH2 0x62 JUMPI PUSH1 0x0 CALLDATALOAD PUSH29 0x100000000000000000000000000000000000000000000000000000000 SWAP1 DIV PUSH4 0xFFFFFFFF AND DUP1 PUSH4 0xADD6EF2 EQ PUSH2 0x67 JUMPI DUP1 PUSH4 0x3F3108F7 EQ PUSH2 0xD4 JUMPI DUP1 PUSH4 0x94CAD55D EQ PUSH2 0xEB JUMPI DUP1 PUSH4 0xE9B61909 EQ PUSH2 0x17E JUMPI JUMPDEST PUSH1 0x0 DUP1 REVERT JUMPDEST CALLVALUE DUP1 ISZERO PUSH2 0x73 JUMPI PUSH1 0x0 DUP1 REVERT JUMPDEST POP PUSH2 0x7C PUSH2 0x1E9 JUMP JUMPDEST PUSH1 0x40 MLOAD DUP1 DUP3 PUSH30 0xFFFFFFFFFFFFFFFFFFFFFFFFFFFFFFFFFFFFFFFFFFFFFFFFFFFFFFFFFFFF NOT AND PUSH30 0xFFFFFFFFFFFFFFFFFFFFFFFFFFFFFFFFFFFFFFFFFFFFFFFFFFFFFFFFFFFF NOT AND DUP2 MSTORE PUSH1 0x20 ADD SWAP2 POP POP PUSH1 0x40 MLOAD DUP1 SWAP2 SUB SWAP1 RETURN JUMPDEST CALLVALUE DUP1 ISZERO PUSH2 0xE0 JUMPI PUSH1 0x0 DUP1 REVERT JUMPDEST POP PUSH2 0xE9 PUSH2 0x219 JUMP JUMPDEST STOP JUMPDEST CALLVALUE DUP1 ISZERO PUSH2 0xF7 JUMPI PUSH1 0x0 DUP1 REVERT JUMPDEST POP PUSH2 0x124 PUSH1 0x4 DUP1 CALLDATASIZE SUB PUSH1 0x20 DUP2 LT ISZERO PUSH2 0x10E JUMPI PUSH1 0x0 DUP1 REVERT JUMPDEST DUP2 ADD SWAP1 DUP1 DUP1 CALLDATALOAD SWAP1 PUSH1 0x20 ADD SWAP1 SWAP3 SWAP2 SWAP1 POP POP POP PUSH2 0x2D0 JUMP JUMPDEST PUSH1 0x40 MLOAD DUP1 DUP3 PUSH31 0xFFFFFFFFFFFFFFFFFFFFFFFFFFFFFFFFFFFFFFFFFFFFFFFFFFFFFFFFFFFFFF NOT AND PUSH31 0xFFFFFFFFFFFFFFFFFFFFFFFFFFFFFFFFFFFFFFFFFFFFFFFFFFFFFFFFFFFFFF NOT AND DUP2 MSTORE PUSH1 0x20 ADD SWAP2 POP POP PUSH1 0x40 MLOAD DUP1 SWAP2 SUB SWAP1 RETURN JUMPDEST CALLVALUE DUP1 ISZERO PUSH2 0x18A JUMPI PUSH1 0x0 DUP1 REVERT JUMPDEST POP PUSH2 0x193 PUSH2 0x336 JUMP JUMPDEST PUSH1 0x40 MLOAD DUP1 DUP3 PUSH29 0xFFFFFFFFFFFFFFFFFFFFFFFFFFFFFFFFFFFFFFFFFFFFFFFFFFFFFFFFFF NOT AND PUSH29 0xFFFFFFFFFFFFFFFFFFFFFFFFFFFFFFFFFFFFFFFFFFFFFFFFFFFFFFFFFF NOT AND DUP2 MSTORE PUSH1 0x20 ADD SWAP2 POP POP PUSH1 0x40 MLOAD DUP1 SWAP2 SUB SWAP1 RETURN JUMPDEST PUSH1 0x0 DUP1 SWAP1 SLOAD SWAP1 PUSH2 0x100 EXP SWAP1 DIV PUSH31 0x1000000000000000000000000000000000000000000000000000000000000 MUL DUP2 JUMP JUMPDEST PUSH32 0x6162000000000000000000000000000000000000000000000000000000000000 PUSH1 0x0 DUP1 PUSH2 0x100 EXP DUP2 SLOAD DUP2 PUSH2 0xFFFF MUL NOT AND SWAP1 DUP4 PUSH31 0x1000000000000000000000000000000000000000000000000000000000000 SWAP1 DIV MUL OR SWAP1 SSTORE POP PUSH32 0x6162000000000000000000000000000000000000000000000000000000000000 PUSH1 0x0 PUSH1 0x2 PUSH2 0x100 EXP DUP2 SLOAD DUP2 PUSH3 0xFFFFFF MUL NOT AND SWAP1 DUP4 PUSH30 0x10000000000000000000000000000000000000000000000000000000000 SWAP1 DIV MUL OR SWAP1 SSTORE POP JUMP JUMPDEST PUSH1 0x0 DUP1 PUSH1 0x0 SWAP1 SLOAD SWAP1 PUSH2 0x100 EXP SWAP1 DIV PUSH31 0x1000000000000000000000000000000000000000000000000000000000000 MUL DUP3 PUSH1 0x2 DUP2 LT ISZERO ISZERO PUSH2 0x30C JUMPI INVALID JUMPDEST BYTE PUSH32 0x100000000000000000000000000000000000000000000000000000000000000 MUL SWAP1 POP SWAP2 SWAP1 POP JUMP JUMPDEST PUSH1 0x0 PUSH1 0x2 SWAP1 SLOAD SWAP1 PUSH2 0x100 EXP SWAP1 DIV PUSH30 0x10000000000000000000000000000000000000000000000000000000000 MUL DUP2 JUMP INVALID LOG1 PUSH6 0x627A7A723058 KECCAK256 DUP10 0xd2 0xcc 0x4f 0xae ADD 0xce 0xef PUSH23 0x7137B097DB94B2B1AFE7A5E4570E221279F62593720690 STOP 0x29 "
				},
				"gasEstimates": {
					"creation": {
						"codeDepositCost": "182800",
						"executionCost": "226",
						"totalCost": "183026"
					},
					"external": {
						"b2()": "450",
						"b3()": "566",
						"getter(uint256)": "632",
						"setter()": "40749"
					}
				},
				"methodIdentifiers": {
					"b2()": "0add6ef2",
					"b3()": "e9b61909",
					"getter(uint256)": "94cad55d",
					"setter()": "3f3108f7"
				}
			},
			"userdoc": {
				"methods": {}
			}
		}
	}
}